:020000040800F2
:100000000810002019FB0008D1F60008D3F60008FC
:10001000D5F60008D7F60008D9F600080000000061
:10002000000000000000000000000000F57600085D
:10003000DBF60008000000009D7600084D1A00085D
:1000400041FB000845FB000849FB0008DDF60008FD
:100050004DFB000851FB000827F700082DF70008AA
:1000600055FB000859FB000821F700085DFB00085C
:1000700061FB000865FB0008E1F6000869FB000869
:100080006DFB000871FB000875FB000879FB000898
:100090007DFB000881FB000885FB000889FB000848
:1000A0008DFB000891FB0008E7F6000895FB0008AF
:1000B00099FB00089DFB0008A1FB0008A5FB0008B8
:1000C000A9FB0008ADFB0008B1FB0008B5FB000868
:1000D000EDF60008F3F60008B9FB0008BDFB0008C8
:1000E000C1FB0008C5FB0008C9FB0008CDFB0008E8
:1000F000F9F60008FDF6000801F70008D1FB00083A
:10010000D5FB0008D9FB0008DDFB0008E1FB000877
:10011000E5FB0008E9FB0008EDFB0008F1FB000827
:10012000F5FB0008F9FB000805F70008FDFB0008D7
:1001300001FC000805FC000809FC000818B10228B1
:1001400006D003D3704700BF03A002E007A000E081
:100150000CA001F063BC00002A2A204576656E746D
:1001600049443A2041646465640D0A002A2A204506
:1001700076656E7449443A204D6F646966696564BA
:100180000D0A00002A2A204576656E7449443A20FB
:1001900052656D6F7665640D0A00000010B5012888
:1001A000044608D0022809D0042809D0082809D01C
:1001B000102809D00BE000BF18A006E01DA004E045
:1001C00023A002E02AA000E031A001F027FC00BF3C
:1001D00037A001F023FCE00744BF0FF2E40001F078
:1001E0001DFCA00744BF0FF2E00001F017FC600700
:1001F00044BF0FF2E00001F011FC200744BF0FF2F2
:10020000E40001F00BFCE00644BF0FF2E80001F04F
:1002100005FCBDE81040BAA001F000BC2A2A204528
:1002200076656E74466C61673A2053696C656E74CE
:100230000D0A00002A2A204576656E74466C6167B7
:100240003A20496D706F7274616E740D0A0000007F
:100250002A2A204576656E74466C61673A20507292
:1002600065204578697374696E670D0A00000000A7
:100270002A2A204576656E74466C61673A20506F75
:1002800073697469766520416374696F6E0D0A0045
:100290002A2A204576656E74466C61673A204E6561
:1002A00067617469766520416374696F6E0D0A0039
:1002B0002A2A204576656E74466C6167733A0000A1
:1002C0002053696C656E740020496D706F727461A3
:1002D0006E740000205072654578697374696E67AA
:1002E0000000000020506F73697469766541637483
:1002F000696F6E00204E656761746976654163744D
:10030000696F6E000B28C24923D8DFE800F00609A8
:100310000B0D0F11131517191C1F00BF0DA016E0B0
:1003200012A014E019A012E020A010E026A00EE018
:100330002BA00CE031A00AE036A008E0084606E059
:1003400001F1240003E000BF38A000E03EA001F06E
:1003500065BB70472A2A2043617465676F727949CB
:10036000443A204F746865720D0A00002A2A20431F
:10037000617465676F727949443A20496E636F6DA5
:10038000696E672043616C6C0D0A00002A2A2043C5
:10039000617465676F727949443A204D697373657A
:1003A000642043616C6C0D0A000000002A2A20437F
:1003B000617465676F727949443A20566F69636565
:1003C000204D61696C0D0A002A2A2043617465671B
:1003D0006F727949443A20536F6369616C0D0A006A
:1003E0002A2A2043617465676F727949443A205321
:1003F00063686564756C650D0A0000002A2A204355
:10040000617465676F727949443A20456D61696C22
:100410000D0A00002A2A2043617465676F727949CA
:10042000443A204E6577730D0A0000002A2A2043C3
:10043000617465676F727949443A204C6F636174E7
:10044000696F6E0D0A0000002A2A204361746567F7
:100450006F727949443A20456E7465727461696EB1
:100460006D656E740D0A000070B56A4C04F60805DF
:100470004FF6FF7601462E8000220C23534323447F
:1004800003F50273187818B198780840884203D0B1
:10049000521C802AF1DB0BE02A800020A8700E227B
:1004A000227029885C4801F0B9FA2988B14205D147
:1004B000DFF8FC0C01F0B2FA0020207070BD0000E3
:1004C00038B5544C40F64401204601F0BBFA0020F8
:1004D0000021C2B20C235A43401CA318C5B2802D80
:1004E00083F80812F5DB21704FF6FF70A4F80200C4
:1004F000A4F80808BDE8324002A001F08FBA00005D
:100500000A0D0000414E435320434C49454E5420B0
:100510005245534554200A0D0000000070B53D4C73
:10052000DFF8906C04F62E0502E0022001F006F8D8
:100530004FF0FF320021012001F03DFB2178052919
:1005400023D008290AD00E2906D00F2902D010295D
:10055000EBD01CE00120E9E70020E7E7012000F0F4
:1005600077FE022000F074FE032000F071FE0420EC
:1005700000F06EFE288800281EBF6888002802F060
:1005800093F8052000F064FED2E70020FAE7304639
:1005900001F044FACCE7DFF8A40CC068012101F0B7
:1005A000D8BA000010B50FF27500DFF8904C02F0D9
:1005B000CBF9DFF88C2CDFF88C0C002101F07DFAF0
:1005C000E06000220021012001F0AEFBC4F8080029
:1005D000FFF776FFBDE8104001A001F01FBA000050
:1005E0002D2D20414E435320434C49454E54204924
:1005F0004E495449414C495A4544200A0D000000D7
:10060000DFF8380C80684FF0FF3101F0D5BB0000F7
:1006100050F700082471002050F500082DE9F14F33
:10062000A8B0012028998DF80C004878FF2840F0E8
:10063000B785084640F60143B0F80310DFF8086CB0
:10064000DFF8F84BDFF8048CCA1A00F05C85921EC4
:1006500000F06685521E00F00C82521E00F01083DE
:10066000521E00F01281121F0DD0521F00F039836C
:10067000521E00F06B85521E00F07C85521E00F069
:10068000FA8200F085BD41F2483000F0B9FD00F07B
:10069000ABFD08F21C4001F0C1F900F0ABFD40F0E9
:1006A000F180C8790A7A92FBF0F2D2B2142804BF22
:1006B00004270C25062804BF0427002506F6080495
:1006C000289E0595049200250EE000F083FD08F2B7
:1006D0003C5003E000F07EFD08F5E56001F09EF976
:1006E000F079C719FFB26D1C0498E9B2814280F21B
:1006F0005A85F019F2194379907943EA0029F319E0
:1007000006F10800DB79C25D059843EA022AC019A8
:1007100006F1090206F10A03125C185CCDF804A088
:1007200042EA002B049ACDF800905B4608F59260EF
:1007300001F074F9608908B1814501DAA4F80A90E2
:10074000A08908B1504501DAA4F80CA0BBF5C05F40
:1007500008D1A4F80E90A4F810A000F03BFD08F218
:10076000D440BBE741F60100834509D10146A4F816
:100770001A90A4F81CA053464A4608F5A060ADE7BD
:1007800041F602008345A0D041F603018B4504D118
:1007900053464A4608F5AD60A0E741F6040083459C
:1007A00004D100F034FD08F29C5097E741F60500B3
:1007B000834504D100F02BFD08F5BA608EE741F6C1
:1007C0000600834504D100F022FD08F5C16085E7ED
:1007D00041F60700834504D100F019FD08F5C96012
:1007E0007CE741F60800834504D100F010FD08F5D0
:1007F000D06073E741F60900834504D100F007FD9E
:1008000008F5D6606AE741F60A00834504D100F096
:10081000FEFC08F2EC6061E741F60B0083451CBF6B
:1008200041F60C018B453FF455AF41F60D00834571
:10083000A9D041F60E018B4504D153464A4608F52E
:10084000EA604BE741F60F00834504D100F0DFFC7E
:1008500008F2847042E74FF23140834509D10146E6
:10086000A4F82690A4F828A053464A4608F2B4708B
:1008700034E745F22B00834585D000F0ABFC08F24D
:10088000E4702BE708F60C00F2E041F2783000F05B
:10089000B7FC00F0A9FC08F6680001F0BFF800F012
:1008A000A9FC40F0E380C8790A7A92FBF0F1C9B262
:1008B000152804BF4FF0050A0C24072804BF4FF089
:1008C000050A0024501E289A10724FF0000BDDF824
:1008D000A090059406F60805049111E000F076FC5E
:1008E00008F5176003E000F071FC08F6444001F0E1
:1008F00095F899F8070050445FFA80FA0BF1010B64
:1009000004985FFA8BF1814280F24D8409EB0A0072
:1009100009EB0A0204795079D67944EA002409F1F6
:10092000080009EB0A0310F80A2005989B7946EAAB
:100930000226504409F10902175C09F10A02105C11
:1009400057EA002718BF002BD3D0002C18BF002E69
:10095000CFD0019600943A4608F6D40001F05EF834
:10096000B7F5285F04D100F031FC08F51460BEE74C
:1009700042F601208742B1D042F602218F4204D1D3
:1009800000F024FC08F51A60B1E742F60320874224
:100990001CBF42F604218F42A0D042F605208742B8
:1009A00007D1EC8301462E843346224608F6DC103C
:1009B0009DE742F61920874204D100F024FC08F597
:1009C000226094E742F62B20874204D100F01BFC02
:1009D00008F654208BE742F60F20874204D100F03E
:1009E00012FC08F6882082E742F62920874204D1CB
:1009F00000F009FC08F6C42079E742F6242087427B
:100A000004D100F000FC08F5316070E741F20D20E0
:100A1000874207D16C8501462E863346224608F66A
:100A2000583064E74DF6F300874207D1AC850146A4
:100A30006E863346224608F6983058E74CF2E96055
:100A4000874207D1EC850146AE863346224608F53B
:100A50003D604CE742F6A62087427FF444AF6C82AB
:100A6000AE8200F0B3FB08F6084040E708F6744099
:100A70007DE308F59D5000F0D1FF00F0B5FB08F6CE
:100A8000CC4000F0CBFF00F0B5FB40F0F180C8791E
:100A9000012804D102254FF0000A4FF00409022872
:100AA00004D102254FF00C0A4FF01209097A289F51
:100AB000CDF810A05FFA89F291FBF2F0C0B208F510
:100AC00059634FF0000B019306F60806824612E0C8
:100AD0000092024608F6BC5007E0B6F832E0F44552
:100AE000F6D1328700920246019800F097FF4D44FC
:100AF000EDB20BF1010B5FFA8BF0504580F253839E
:100B0000F81D07F10801425D04984B5D401907F19B
:100B1000090142EA0322095C07F10A03185C41EA71
:100B20000021B1F5205F04D108F6285000F076FFCF
:100B3000DDE742F60300814207D100232380A38032
:100B4000E380628008F65450F0E7B1F5245F1CBFE3
:100B500042F60210814273D02180A280B1F5285F55
:100B600008BF08F6FC50E1D042F60120814264D073
:100B700042F60223994208BF08F65460D6D042F6E6
:100B8000032081421CBF42F60423994255D042F60D
:100B90000520814203D1014608F68C60C6E742F683
:100BA0001920814203D1014608F56D60BEE742F687
:100BB0002B20814203D1014608F57060B6E742F66A
:100BC0000F20814203D1014608F57360AEE742F67B
:100BD0002920814203D1014608F66870A6E742F653
:100BE0002420814203D1014608F57B609EE741F253
:100BF0000D20814203D1014608F6F47096E74DF6C8
:100C0000F300814205D1014641F2380308EB0300AD
:100C10008CE74CF2E960814203D1014641F278034E
:100C2000F4E742F6A620814219BF41F2F8004044A1
:100C300041F2B40308EB030078E708F6286075E793
:100C4000E280B4F804C0B6F820E060886346F4455A
:100C500008BF72840BD0B6F830E0F44508BFF286C6
:100C600005D0B6F834E0F4457FF437AF728739E742
:100C700041F2341045E241F2C43108EB010076E262
:100C800041F2F83000F0BCFA2898C279B0F80510AB
:100C900008F5377000F0C2FE289C00270EE004F132
:100CA0000A0004F1080130F8273031F827203946CE
:100CB00008F54F7000F0B2FE7F1CFFB2E07987426A
:100CC000EDDB317808290BD12189DFF8F80A019092
:100CD000C18401986289028508F56B7000F09EFE60
:100CE00061E2437AB0F80720B0F8051041F28814A9
:100CF00008EB040000F092FE00F07CFA40F0FF8167
:100D000006F60802B1F80710108E814250D141F268
:100D1000F81108EB010000F081FE2898847AC77A68
:100D2000D0F80EA090F80D90057B08F5217000F02A
:100D300075FE2046FFF702FA3846FFF72FFA2846DD
:100D4000FFF7E0FA49460FF6A03000F067FE514683
:100D50000FF6AC3000F062FE022C14D100210C2002
:100D600000FB01F2324402F502729368534503D04E
:100D7000491C8029F4DB1BE0002010700FF6A03026
:100D800000F04CFE14E000210C232A4603FB01F086
:100D9000304400F502752878B0B3491C8029F5DB92
:100DA00034B9F80704D43846FFF75EFBFFF7F3FBCE
:100DB0002898DFF8107AB0F80710B88E81428FD1EA
:100DC00028998C7A802108A800F03CFE08F1A40044
:100DD0002100069040F0EA8041F2342000F010FA41
:100DE0002898417A4A1F92B2002406F1860006F53F
:100DF000837306F6080E00270025A146059004938C
:100E0000CDF804E0079211E0012028706C70AF70FB
:100E1000EA7085F80490C5F808A00FF6243000F0B9
:100E2000FDFDBDE709F103001FFA80F90798814530
:100E300080F2AA802898484400F1100102226846F6
:100E400001F08EFD00F0B8F9ECD00199887830BB44
:100E5000B1F800A008F1500000F0E0FD0C2000FB0C
:100E60000AFAB2440AF2092B9BF80000FFF766F970
:100E70009BF80100FFF792F99BF80200FFF742FA96
:100E80009BF803100FF6042000F0C8FDDAF81012EA
:100E90000FF6102000F0C2FD0199012088702898FB
:100EA0004844C17B07291ED8DFE801F0191613104A
:100EB0000D0A07040FF6A41013E00FF6841010E0DB
:100EC0000FF670100DE00FF658100AE00FF6401004
:100ED00007E00FF62C1004E00FF6181001E00FF6F3
:100EE000001000F09BFD28984844C07B08B90124FD
:100EF00006E0062808BF012702D0072808BF012501
:100F0000BDF8002009F10100FF2A1FFA80F909D875
:100F100000F064F901F024FD0499BDF800200020E0
:100F2000885409E000F04CF900F058F9FE2201F075
:100F300017FD002086F80402BDF80000814409F185
:100F400002011FFA81F9210015D0421C802A07DC1A
:100F50000499059801F004FDBDF80000401C05E06F
:100F600004990598802201F0FBFC80200F2186F86F
:100F700085003170002400F01FF904D004990FF6A9
:100F8000601000F04BFD51E730780F2808BF08F1E2
:100F9000EC0005D02F4304D01020307008F5B67057
:100FA000A8E00020307008F5DA70A3E0012C40F0D2
:100FB000A38041F29C2000F023F9289800F10B0156
:100FC00008A801F0DDFC28980B3001F0E5FC289919
:100FD0004A7A80B2121A921E1FFA82F901F10C02AB
:100FE00002EB000A0FF6F80001904FF0000B06F537
:100FF000837503E00BF103001FFA80FBCB455BDA3E
:101000000AEB0B00411C0222684601F0A9FC00F02B
:10101000D3F8EFD01AF80B40404600F0FFFC1CB9A3
:101020000FF6540000F0FAFC1AF80B00BDF800208F
:10103000441EA441E40F0BF10100FF2A1FFA80FBBC
:101040000BD80AF1020000EB0B01284601F088FCE6
:10105000BDF80000002129540CE000F0B1F80AF1BD
:10106000020000EB0B01FE22284601F079FC002172
:1010700086F80412BDF8000083440BF102011FFA48
:1010800081FB8CB1421C802A07DC2946701D01F0CF
:1010900067FCBDF80000401C05E080222946701D59
:1010A00001F05EFC8020307100F086F8A6D0019837
:1010B000294600F0B3FCA1E739880C2406F20B2086
:1010C00004FB01F2805C012818BF05280CD008F54C
:1010D000147000F0A3FC398806F502704C4300221E
:1010E00002551123337007E001203872102131704E
:1010F00008F5027000F092FCFFF74DFA53E041F260
:10110000F420404433E0B0F80B30B0F80920B0F8D8
:10111000071041F2284408EB040000F07FFC42E095
:10112000B0F80720B0F8051041F28C4308EB03003B
:1011300000F074FC062028998DF80800B1F805002D
:10114000ADF80A0002A800F0DFFA2CE0C2792AB15B
:10115000B0F8051008F5A85000F060FC00F04AF85F
:1011600003D1A06800F04DFE1DE008F5AB5000F083
:1011700055FC18E0817A289800910389C279B0F86B
:10118000051041F2B45408EB040000F047FC0AE0FB
:101190000FF2C87000F042FC00218DF80C1002E044
:1011A00000228DF80C209DF80C0029B0BDE8F08FCE
:1011B000A8F5000814F90008BDF8000000287047E1
:1011C000BDF800100698FF2200F028BC33462246E6
:1011D0003946704753464A4659467047289848440E
:1011E00000F11101049870472898037AC279B0F889
:1011F0000510704728997088B1F805209042704713
:10120000404400F00BBC014633462246704701467D
:1012100053464A46704780B5DFF8AC0500F0FEFB48
:1012200011218DF80010DFF8A4054188ADF80210F7
:10123000684600F069FA01BD00000000608C0020E3
:1012400038F900081D0500082471002054B8000872
:101250002DE9FF41DFF87475DFF87455052807F6AE
:10126000120447F2305810D8DFE810F006002700CB
:1012700078009D00DE000D01042038704FF40462F8
:101280007888FB2101F0AEFB002840F04C814FF440
:101290000462FB21284600F0C1FB052038707888E5
:1012A00001F01BFD044600F046F914B905F14C00AD
:1012B00031E1214605F1700033E10821D022397077
:1012C0008DF800202D2112228DF802108DF80320B8
:1012D0001E214B228DF804108DF805200F21A42229
:1012E0008DF806108DF8072099214E228DF80810F0
:1012F0008DF80920CE21B5228DF80A108DF80B202B
:101300003121F4228DF80C108DF80D200521792261
:1013100000238DF80E108DF80F208DF801306A46ED
:101320007888022101F01AFD010004D105F1A40022
:1013300000F074FB03E005F1F00000F06FFB00F03B
:10134000FAF8E28BA18B21B9002A6CD105F5A670C1
:10135000E1E0002A67D005F5D67062E0072038701A
:10136000788801F0D5FC00F0E5F826B905F506709F
:1013700000F054FB04E0314605F5197000F04EFB17
:10138000E28BA18B21B9002A4DD105F53170C2E065
:10139000002A48D005F5437000F040FB628A218A9C
:1013A00005F558703DE009203870A08B0190009041
:1013B00063882288798805F56D7000F02FFB6288BC
:1013C0002188788801F0EBFC00F0B4F8002E0CBF07
:1013D00005F2244005F2544000F020FB218C002946
:1013E0001FBFE28C002A05F27C4000F017FBA18CA5
:1013F00000291FBF628D002A05F59E6000F00EFBDC
:10140000618C00291FBF228D002A05F2545000F084
:1014100005FBA18A00291CBFE28A002A03D005F23D
:10142000BC5000F0FBFA7EE00A2038706288218808
:1014300005F5C46000F0F2FA62882188788801F02E
:10144000CEFC00F077F8002E0CBF05F24C6005F5DD
:10145000D16000F0E3FAA18D19B105F2BC6000F093
:10146000DDFAE18D19B105F2047000F0D7FA218E92
:1014700019B105F2447000F0D1FA218B002952D045
:1014800005F284704DE00120218BADF80000A9B178
:101490000D2038706B467888022201F0ECFC00F0D9
:1014A00049F8218B26B905F2C47000F0B7FA05E0BF
:1014B00033460C2205F60C0000F0B0FA228EC2B1C1
:1014C0000C20387005F50860798800F0A7FA218EA5
:1014D00000F02BF800F02EF826B905F6BC0000F05D
:1014E0009DFA06E0218E33460C2205F6FC0000F042
:1014F00095FAA28DBAB10B20387005F5176079887E
:1015000000F08CFAA18D00F010F8044600F013F8FA
:1015100024B905F6B41000F081FA04E0214605F67E
:10152000FC1000F07BFABDE8FF8178886B46022250
:1015300001F0A1BC06464046FFF762B82DE9F8432A
:10154000A24FDFF89092A0B007F5047407F60805E3
:1015500047F230580C264FF6FF7220B1022800F0F7
:10156000878054D3CCE00E20387028889042014602
:1015700001D0802902DB09F1340083E0714309F1D5
:101580007000615800F04AFA28880FF2383146435B
:101590006846A459142201F005FD00208DF80000D2
:1015A000220C200A8DF802008DF8032000208DF80F
:1015B0000500012228208DF806208DF807008DF8FF
:1015C0000820022028228DF809008DF80A208DF8C5
:1015D0000D20032004228DF801408DF80C008DF8B9
:1015E0000F200621240E012305208DF8111007225B
:1015F0008DF804408DF80B308DF80E308DF810000A
:101600008DF81220698E78886B46132225E00F2012
:10161000387007F1860497F88510224609F1D80042
:1016200000F0FCF997F885608021684600F00AFA1E
:1016300001208DF8000000216B4605E014F801C080
:1016400003F800C01046491C421CB142C0B2F5DB91
:1016500000211954D2B2698E788801F0F0FB04465B
:101660004046FEF7CDFF002C4AD02146484609E00F
:101670001020387028889042014601D0802904DB70
:1016800009F58E7000F0CAF93AE006FB01F000237C
:10169000225809F5AC7000F0C1F928888EA2704379
:1016A00002212058D2E90034CDE900348DF8010040
:1016B0008DF80010020A030C000E8DF804008DF85E
:1016C000022000208DF803308DF805006B46698EEE
:1016D0007888062201F0B3FB04464046FEF790FFEF
:1016E0001CB12146484600F099F9298809F5D670C1
:1016F00000F094F928884643B819002180F80812B0
:1017000021B0BDE8F083000010B501782F4C01290D
:101710000CD0022912D0032915D005291DD0062985
:1017200021D008292DD0112932D010BD42882A4855
:1017300062800821217000F071F93FE08DA000F077
:101740006DF9022004E000BF90A000F067F90320CB
:101750002070BDE81040FEF7B3BE00BF92A000F0BD
:101760005DF9052012E000BF94A000F057F9207841
:10177000052803D11949886800F043FB0620207032
:1017800010BD00BF95A000F049F90820207015E0B9
:10179000217000BF99A000F041F90021C8B20C22CD
:1017A0005043221802F50272107820B9491CCAB2BF
:1017B000802AF3DB10BD9078FEF756FEBDE810409E
:1017C000FEF7E9BE2C790020C4F80008247100203F
:1017D000BCCE0008CCEB000890F80008608C00201C
:1017E0002A2A204170704964656E74696669657261
:1017F0003A2000002A2A205469746C653A200000BF
:101800002A2A205375625469746C653A20000000DE
:101810002A2A204D6573736167653A200000000035
:101820002A2A204D65737361676553697A653A208A
:10183000000000002A2A20446174653A200000005C
:101840002A2A20506F736974697665416374696FE1
:101850006E4C6162656C3A20000000002A2A204E1E
:1018600065676174697665416374696F6E4C616226
:10187000656C3A20000000002A2A20446973706CCD
:1018800061794E616D653A20000000002A2A2043EC
:10189000617465676F7279436F756E743A20256461
:1018A0000D0A00002A2A204E6F746966696361740C
:1018B000696F6E5549443A203078253038780D0AE2
:1018C0000000000000000000000001FFFF02FFFF19
:1018D00003FFFF04050607000200000000000000EF
:1018E0002025730D0A0000002A2A204361746567D1
:1018F0006F7279436F756E743A202564200D0A006B
:101900002A2A204E6F74696669636174696F6E5527
:1019100049443A2030782530386C78200D0A000090
:101920002A2A206E6F74696679456E7472793A203E
:1019300025642052656D6F7665640D0A0000000015
:101940002A2A206E6F74696679456E7472793A201E
:1019500025642041646465640D0A0000696E766147
:101960006C69642065636F64652030782530345875
:101970000A000000414E43535F444953434F4E4ECB
:10198000454354494E47200A0D000000414E435341
:101990005F444953434F4E4E5F434F4D504C455467
:1019A00045200A0D00000000414E43535F4D545541
:1019B0005F555044415445200A0D0000414E4353A9
:1019C0005F4D54555F45584348414E47455F434F2F
:1019D0004D504C455445200A0D000000414E4353E4
:1019E0005F444953434F5645525F414E43535F5303
:1019F000455256494345200A0D000000203D3D3E1A
:101A000020414E43535F434845434B5F4E4F54493B
:101A10004649434154494F4E200A0D000EB4C0B50B
:101A2000024603A800210190009101AB0121044866
:101A300078440C3001F0C2FA06BC5DF810FB00BF20
:101A40009DE00000002202F055BA2E0080B5DFF8BC
:101A50000804016802F0B4FD012803D0BDE801408C
:101A600003F034B801BDEFF3058000B16EE0DFF89C
:101A7000EC13086810B901220A6070474FF0FF307C
:101A80007047000080B5EFF3058000B10FE0DFF88C
:101A9000CC030168012909D1DFF8C41300220A70C0
:101AA0000223036002F042FB002002BD02E06FF05F
:101AB000050002BD4FF0FF3002BDF8B584B0002331
:101AC0000393EFF30583002B3DD103003BD080252A
:101AD000182600245AB3136803B11C4693691BB13E
:101AE0001E0004D0392E02D21379DF0701D5002061
:101AF0002AE0536903B19D08D2F80CC0976887B1FA
:101B0000BCF15C0F1FD31269002A18BF002B1AD03A
:101B100001920B46029700962A46214602F004FAEB
:101B200010E0BCF1000F04BF1269002A0BD103AB17
:101B3000019300960B46AAB2214602F026FA01282C
:101B400001D000200390039805B0F0BD6FF00500B0
:101B500070473EB5040001D0002903D56FF00301A2
:101B6000019126E04FF0FF320192EFF30580A8B11A
:101B70000020029002AD009500230122204602F0D1
:101B80006DFE00230093002201AB0021204602F0ED
:101B900065FE029868B100F053F90AE000230122C3
:101BA000204602F005FE01AB00220021204602F093
:101BB000FFFD01983EBD2DE9F84F06460F46EFF3B5
:101BC000058018B16FF00500BDE8F28F002E48BF08
:101BD0006FF00300F8D4B8074CBF4FF00009B146CE
:101BE000144602F04DFB0025A34682466FF0020822
:101BF00009E002F045FBA0EB0A0083452CBFABEBEC
:101C0000000B4FF0000B5B466A464946002002F08D
:101C100091FD012810D1009835400543F90705EAE8
:101C2000060003D5B04203D12846CDE70028FBD1FA
:101C3000002CDED14546F7E7002C0CBF45466FF07F
:101C400001050028DFD1EFE770B5054600F012F975
:101C500025D105B1686800F0010400071FD455B113
:101C6000E868A96831B1502819D38CB1042003F079
:101C70001FF806E098B9002C14BF0420012003F0DF
:101C80000CF806000BD0002D14BF2968002101E0DC
:101C90000120ECE703F0B1FB0CB146F00106304641
:101CA00070BDF8B5024650080C4640000025EFF321
:101CB000058111B16FF0050515E010B96FF003054E
:101CC00011E0D1076FF002066FF00107214602D53F
:101CD00003F014F801E003F005FA012803D0002C0A
:101CE00014BF3D4635462846F2BD38B50146480882
:101CF00040000024EFF3058212B16FF0050411E0FB
:101D000010B96FF003040DE0C9076FF0020502D5AA
:101D100002F0DBFF03E00023002103F042F801287A
:101D200018BF2C46204632BD7CB50E461446002511
:101D3000EFF3058100293DD100283BD0B04239D3D3
:101D400044B1E268A16819B1502A33D3012101E0FE
:101D5000002A2FD101281AD1012908D1032000908F
:101D60000022A3680021012002F031FF03E00322DA
:101D7000002102F05DFF05001CD0A6B100F073F851
:101D8000012810D0284603F0A0FA002512E001290E
:101D900004D1A268314602F0D3FF02E0314602F0DE
:101DA000E9FF050006D0002C14BF21680021284659
:101DB00003F023FB284676BD7CB50C46002528B1F0
:101DC0006FF00206EFF3058179B114B16FF00305EE
:101DD00015E000956A46002103F036FA01280DD17E
:101DE000009860B100F02CF809E0214603F07AF980
:101DF000012804D014B16FF0010500E035462846F3
:101E000076BD38B5002410B96FF0030416E06FF00A
:101E10000205EFF3058151B10094694603F09EF885
:101E200001280AD1009848B100F00AF806E0002322
:101E3000002202F0B6FF012800D02C46204632BD19
:101E4000DFF82C004FF080510160BFF34F8FBFF3DC
:101E50006F8F70470000000010E000E0D88C002079
:101E60001FED00E0606800230022002102F099BF0E
:101E700004ED00E00026EFF305800028704770476E
:101E800070B596B0002200210120DFF84849DFF844
:101E90004859FFF749FFE061294607A83C2201F0B5
:101EA00081F80020FFF7D0FE2062002200210120EF
:101EB000FFF73AFFDFF824190FF6FD026062009188
:101EC000019269460FF6D90003F0E2FA01210220DF
:101ED00003F0BDFB05F5E66200210FF25170FFF73C
:101EE000ECFDE06207A803F0D1FB010006D005F18C
:101EF0003C00FFF793FD03F035FD03E005F17400AE
:101F0000FFF78CFD0FF68C100088ADF81A0005F174
:101F10009C00FFF783FD00F049FD28B1014605F163
:101F2000C800FFF77BFD03E00FF66C10FFF776FDAE
:101F3000DFF8AC08016811F1010F0ED0426821747E
:101F4000120A090A6174110A4068E274A074120C42
:101F50002175627504F1100606E0002003F004FD0F
:101F6000060008BF0FF6901632460621002003F047
:101F70000FFD28B1014605F1F800FFF74FFD10E015
:101F800005F5AA70FFF74AFD30780290717801914B
:101F9000B0780090F3783279717905F5D070FFF759
:101FA0003DFD70790FF65812207231796172F07828
:101FB000A072B178E1727078207318203178617363
:101FC000102103F0E5FC28B1014605F5EE70FFF79E
:101FD00025FD03E005F50D70FFF720FD0FF630122B
:101FE0001021082003F0D4FC28B1014605F51F702C
:101FF000FFF714FD03E005F53570FFF70FFD18211D
:10200000012003F0E9FC28B1014605F54770FFF710
:1020100005FD03E005F55770FFF700FD00F07DFDBD
:1020200028B1014605F56370FFF7F8FC03E005F5FC
:102030007070FFF7F3FC0DF1160006A901900091F6
:1020400005AB07220021012003F0CAFD28B101469B
:1020500005F57970FFF7E2FC03E005F21440FFF7A5
:10206000DDFC0FF65400BDF8181000900523BDF8F4
:102070001400002200F00EFE002814BF05F5876052
:1020800005F58E60FFF7CAFC0DF11A0000900223DF
:10209000BDF81610BDF81400002200F0FBFD00286A
:1020A00014BF05F5956005F2DC40FFF7B7FC02228E
:1020B0000221002000F00DFD28B1014605F5A260C7
:1020C000FFF7ACFC03E005F24C50FFF7A7FCDFF88C
:1020D00014670320307003F024FD28B1014605F594
:1020E000AF60FFF79BFC03E005F5B760FFF796FCD8
:1020F0000020707008211020317170710021DFF80C
:10210000E806F170B06001210020B1707073C1B2B7
:1021100031448873401CC1B21029F8DB00200490C0
:102120000023B168F078039102900122717930792F
:10213000019100907178B07803F007FD28B1014655
:1021400005F5BD60FFF76AFC03E005F23460FFF7B8
:1021500065FCB07860B103F0D3FD28B1014605F508
:10216000CE60FFF75BFC03E005F5D660FFF756FC99
:1021700005F5DC60FFF752FC00F0D6FB00204FF6BF
:10218000FF7186F89000F18405F20C7200210FF2C5
:102190008D40FFF792FCA06203F09CFE03F0C4FEAA
:1021A0008920E070FEF7FEF90FF26943002206F184
:1021B0009101002004F094F80D23012206F128007B
:1021C0000221837002700170182203234170C270D3
:1021D000037080202083A0216183012000F0AAF9F0
:1021E00016B070BD2DE9F8432DED028B044688B082
:1021F0006078DFF8F055DFF8F495052805F19006D2
:1022000005D03E2823D0FF2800F0CA8056E1A188DF
:10221000E88C814217D10021E98431704846FFF7EC
:10222000FDFBA279A18809F12C00FFF7F7FB032041
:102230008DF81C0007A8A188ADF81E10FFF764FAFE
:10224000002000F096FA012000F074F936E1E07801
:102250000A27012809F19C089FEDB48B3ED0032882
:1022600002D00C2816D029E109F16800FFF7D6FB4F
:10227000B4F80B0047430197B4F809500095B4F83F
:10228000070004F059F953EC182B04F063F900F03F
:102290001BF913E109F58470FFF7C0FB20790028D2
:1022A0000CBF0FF26C500FF27450FFF7B7FBE88CC5
:1022B00006AA0DF1190100F0E1FB10B10FF26C500C
:1022C000F2E009F59C70FFF7A9FB9DF818209DF836
:1022D000191009F5AE70FFF7A1FBEFE0707804F07C
:1022E00027F8B4F8051009F5C070FFF797FB607A7E
:1022F0000290A17A0191E07A0090237B627BA17B1E
:1023000009F5E470FFF78AFBB4F81300474301971F
:10231000B4F811000090B4F80F0004F00DF953EC7C
:10232000182B04F017F900F0CFF8307804280CBF10
:10233000062005203070B4F80500E884617A059124
:10234000A07A0490E17A0391207B0290617B019155
:10235000A07B0090237AE279B4F8051009F50670A5
:10236000FFF75CFBB4F805007080217A7171A07BE7
:10237000F072617BB172207B7072E17A3172A07A67
:10238000F071617AB17100F05DF901208DF81C00E7
:1023900007A8B4F80510ADF81E10FFF7B5F98DE0E9
:1023A000B4F803004FF48061401A16D0401E45D0A7
:1023B000401E15D0401E1BD0401E1CD0401E1DD0FC
:1023C000801E6FD0401E1FD0401E23D0401E1ED046
:1023D00040F60401401A6AD070E009F5297063E004
:1023E000B4F8051009F53570FFF718FB022022E05C
:1023F00009F54C7058E009F5577055E009F565701E
:10240000FFF70CFB042016E009F574704CE009F5A9
:102410007F7049E0D4F807100FF23040FFF7FEFA62
:10242000D4F807100FF23C40FFF7F8FA09F22C40FD
:10243000FFF7F4FA032000F049F93FE0237AE2794C
:10244000B4F8051009F28C40FFF7E8FAE1790129A8
:1024500003D1227A09F2E44004E0022907D1227A6A
:1024600009F5B060FFF7DAFA00F00FF911E081B971
:102470003479757BB77B00F0E5F8B07B029001976B
:102480002B46717B3279009109F5C3602146FFF735
:10249000C5FA307B012811D1DFF83813C869FFF77E
:1024A000B0FC0BE009F28460FFF7B8FA06E009F22D
:1024B000AC60FFF7B3FAE88C00F017FD08B001201C
:1024C000BDEC028BBDE8F28302460B464046FFF7A7
:1024D000A5BA80B50FF2A030FFF7A0FAC148B0F856
:1024E0009200BDE804401EE0FEF795BE38B5C04C32
:1024F0002046FFF793FABB4800F1920500F19601E0
:10250000E87803F0ACFC03F01FFC28B1014604F1AD
:102510005000FFF783FA03E004F18400FFF77EFA2E
:102520002888BDE83440132103F0FCBB0000000004
:102530000000F43F2DE9F84787B00446A54F012875
:1025400007BF3E8BB7F81A904FF4C8664FF47A690C
:10255000DFF890A2DFF89C820AF19005687803F01A
:10256000E7FE022C10D12878012818BF02280BD1D1
:1025700003F063FA010003D04046FFF74FFA03E08F
:1025800008F14C00FFF74AFA0020069005900AF186
:102590002902049206229AF828000FF2843103904F
:1025A00002910192002300932C704A46314600208C
:1025B00003F066FA28B1014608F19400FFF72EFAFD
:1025C00003E008F1CC00FFF729FA39460E2003F0AA
:1025D0004FFB01000AD0012C0CBF08F1F80008F5F0
:1025E000967008B0BDE8F047FFF718BA012C0AD181
:1025F00008F5B270FFF712FA68787F4908B0BDE8B5
:10260000F04703F0E1BE08F5C67008B0BDE8F0473A
:10261000FFF704BA6F48806AB4E0000080B500F0AC
:102620000BF80220FFF786FFF9E7000080B500F005
:1026300003F802F04CFFFAE74FF0FF3200210120CF
:10264000FFF7B9BA1CB5674800F1920400F1960192
:10265000E07803F0E4FB401E8041C00FA0706A46A2
:1026600020880DF1010103F019FB9DF801109DF880
:102670000020E172227338B99DF800309DF80120E6
:10268000A1785E48FFF7CAF913BD80B55C48FFF733
:10269000C5F9544800F1960190F8950003F0DFFB6E
:1026A000BDE8014003F050BB80B5FFF7CBFF5549B3
:1026B000087830B1012801BF487A0128887A0128BA
:1026C00003D1BDE80240012000E001BD70B504283F
:1026D0004D4C4E4E47F230554AD8DFE800F03303F8
:1026E000192C22000121A172208803F0A8FA010010
:1026F0001CBF3046FFF792F906F15000FFF78EF944
:10270000284600F03AF80020A07206F184002BE081
:102710006BA0FFF783F920883349BDE8704003F0D0
:1027200043BA218806F1B800FFF778F92088BDE8A0
:10273000704003F01FBB2088012103F082FB06F1EB
:10274000F00011E066A0FFF769F92088132103F07B
:10275000E9FA01001CBF06F5AA70FFF75FF92846E9
:1027600000F00BF806F5BC70BDE87040FFF756B9F5
:1027700070BD1848C069FFF744BB1648C0690AE03D
:102780001448C06A0121FFF7E4B91248406AFFF714
:1027900038BB1048406A4FF0FF31FFF70DBB000017
:1027A00010B50446616801F1080003F0A9FF00B10B
:1027B0000120207010BD000006490A6A10B10128EE
:1027C00005D070474FF0FF311046FFF76ABA104648
:1027D000FFF78BBAAC20002008D90008AC08032012
:1027E0008075FF1FB886002007B201005CE000087A
:1027F0004CF30008B4ED000846E0010020F80008A2
:10280000E0F700084C8700204A87002070EF00089E
:10281000737461747573206F6B200A007374617434
:102820007573206E6F6B200A000000003D3D3E3E38
:10283000206863695F6C655F726561645F70687969
:10284000203A206661696C0A0D000000206E756DEB
:10285000657269635F76616C7565203D20256C64E7
:102860000A000000204865785F76616C7565203D40
:1028700020256C780A0000000A202A2A205465725C
:102880006D20434F4E4E454354494F4E202A2A2037
:10289000200A000040030000202053756363657325
:1028A000733A206863695F726573657420636F6D46
:1028B0006D616E640A0000004852414E4300000002
:1028C0004741505F50524F435F504153535F4B4518
:1028D000595F524553504F4E5345200A0D0000009A
:1028E0007465726D696E61746520636F6E6E656389
:1028F00074696F6E200A00006C7AD8AC57720000C1
:10290000123456789ABCDEF0123456789ABCDEF057
:10291000FEDCBA0987654321FEDCBA0987654321DD
:10292000094852414E4300000B490020087700221D
:102930000A48027303F01EBF07490A7F41F82200CC
:10294000087F401C0877704704490A7B41F8220041
:10295000087B401C08737047188C0020908C002066
:1029600010B5044600F01EFB204610BD10B504460D
:1029700010460A460146204603F024FF204610BDBB
:102980005FEA000C11F8012B00F8012B12B111F8CD
:10299000012BF9E76046704700F1010310F8011BB5
:1029A00011B110F8011BFBE7C01A704700B587B0E2
:1029B00000F043F800F03BF8032100F009F800F0C4
:1029C00043F800284CBFFF209DF8000007B000BD71
:1029D000ADF80410ADF806107047049207A90391F2
:1029E0000322704778B5C7B004460D461646032249
:1029F00000F033F8ADF81C40ADF81E50ADF8206083
:102A000000F015F8222200F00BF8FFF7E6FF00F0C7
:102A10001CF800284CBFFF209DF8000048B070BD96
:102A2000ADF806200821ADF80410062270471822E0
:102A3000002101A8FFF79ABF014600208DF8000091
:102A40007047049207A9039101220692CDF814D091
:102A5000002101A802F06FBD092200216846FFF79E
:102A600085BF1822002102A8FFF780BF0522079228
:102A7000CDF818D0002102A802F05DBD70B5C8B035
:102A800006460C4615460522FFF7E7FFADF8206025
:102A9000FFF7E7FF302200F012F8FFF7E7FF00280A
:102AA00048BFFF2009D49DF8000030B99DF803000D
:102AB000207000209DF80410297048B070BDADF85A
:102AC0000A200821ADF808100222059208A90491F5
:102AD000704718B5C7B000F013F8312200F009F8BC
:102AE000FFF7AFFF00284CBFFF209DF8000048B063
:102AF00010BDADF806200821ADF804100322704780
:102B000000248DF81C008DF8004007A841708270E9
:102B10000021182201A8FFF729BF00B587B00020C7
:102B20008DF8000000F0A2F940F2011200F032FA34
:102B300000F0D0F900284CBFFF209DF8000007B03E
:102B400000BD2DE9F841C7B00446884616461F4629
:102B5000012808BF022003D002280CBF102000204B
:102B60000DF11D031D1800F035F8012C8DF81C40E7
:102B700002D0022C1AD01BE00224224641460DF15D
:102B80001D00FFF7EDFE2E706F7000F06FF900F082
:102B900044F94FF4817200F017F8E41C0692049493
:102BA00000F098F9002805D5FF2009E01024E4E79B
:102BB000972005E09DF8000010B94E9800F065F8E8
:102BC000FFE748B0BDE8F081ADF8062007A9039102
:102BD00003227047032200216846FFF7C7BE2DE994
:102BE000F64F0C46C7B005469B46012C08BF022095
:102BF00003D0022C0CBF102000200DF11F031E1863
:102C0000FFF7E8FF012CADF81C508DF81E4002D0F4
:102C1000022C2DD02EE00227569C559DDDF85091B8
:102C2000DDF84CA1DDF8488148993A460DF11F00C6
:102C3000FFF796FEA6F800B086F8028086F803A09B
:102C400086F804907571B47100F010F900F0E5F8A1
:102C50004FF4827207A9ADF8062003910A370322C8
:102C60000497069200F036F9002805D5FF2009E008
:102C70001027D1E7972005E09DF8000010B957987C
:102C800000F003F849B0BDE8F08FBDF801100180F5
:102C90000020704778B5C7B01D464C9B00F069F91D
:102CA00000268DF800608DF821502A4619460DF156
:102CB0002200FFF755FE00F0D9F800F0AEF84FF40F
:102CC000837200F061F9AD1D00F002F900284CBFDD
:102CD000FF209DF8000049B060BD00B5C7B000F00E
:102CE0002CF800F0C3F800F098F840F20B1200F056
:102CF0002AF800F0EFF800284CBFFF209DF80000F4
:102D000047B000BD0023ADF81C008DF81E107047C1
:102D100000B5C7B000F011F800F0A8F800F07DF899
:102D20004FF4897200F00FF800F0D4F800284CBF7F
:102D3000FF209DF8000047B000BD00228DF8002064
:102D4000ADF81C0070470F210291ADF8062002215A
:102D5000049107AA012106910392704718B5C7B0E4
:102D6000134600228DF8002002290CBF10240224F3
:102D7000FFF7C9FF224619460DF11F00FFF7F0FDCE
:102D800000F074F840F2131100F04BF800F0A2F8D4
:102D900000284CBFFF209DF8000048B010BD18B5BA
:102DA000C7B000F00FF800F038F840F2151200F04C
:102DB00029F800F08FF800284CBFFF209DF8000094
:102DC00048B010BD0024ADF81C008DF8004007A8E5
:102DD000418082800021182201A8FFF7C7BD18B5E5
:102DE000C7B0FFF7EFFF00F018F840F2171200F03D
:102DF00009F800F06FF800284CBFFF209DF8000094
:102E000048B010BD0F210291ADF8062006210491B3
:102E100007AA01210691039270473F21ADF80410E3
:102E20007047ADF806100F2202923F2007A9ADF8B7
:102E3000040003910122E41C06920494704730B50B
:102E4000C7B000F02DF800F04BF800F00FF84FF489
:102E50008E7100F02FF800F03DF800284CBFFF20E5
:102E60009DF8000047B030BD8DF8003018220021D9
:102E700001A8FFF77BBD30B5C7B000F011F800F036
:102E80002FF8FFF7F3FF40F2211100F013F800F0E4
:102E900021F800284CBFFF209DF8000047B030BD4E
:102EA0001446ADF81C00002507A88DF8005041809D
:102EB00004717047ADF806100F2202923F2007A957
:102EC000ADF8040003910122641D0692049470473A
:102ED00006920495CDF814D0002101A802F02BBB76
:102EE00019460DF12100FFF73BBD00B5C7B0FFF754
:102EF00024FFFFF7BBFF40F2251200F009F8FFF7AF
:102F0000E9FF00284CBFFF209DF8000047B000BD3E
:102F1000ADF806203F21ADF804100222049207A963
:102F20000391012206927047B8B5C7B04C9C4D9DE5
:102F300000F01FF800278DF821308DF800708DF813
:102F400022402246294600F01BF8FFF78FFFFFF7CB
:102F500064FF4FF4937200F017F8E41D0692049496
:102F6000FFF7B8FF00284CBFFF209DF8000048B0D5
:102F7000B0BDADF81C00ADF81E108DF820207047D4
:102F80000DF12300FFF7ECBCADF8062007A9039173
:102F900001227047ADF806203F21ADF80410012250
:102FA000069270474AB1000011F8013B521E00F82A
:102FB000013B1CBF11F8013BF8E770472DE9F14FC9
:102FC000B0B0924604910DF142013A9A2B91994684
:102FD0004A7000200AE01AF8011B0498309A9047C2
:102FE0000028049000F06A860D98401C0D909AF815
:102FF000000050B12528EED100210022079108924F
:1030000009910A920B910C9204E00D9800F058BEC1
:1030100041F001011AF8010F2028F9D023280CD023
:103020002B2804D02D2805D0302809D00BE041F002
:103030000201EFE741F00401ECE741F00801E9E7A4
:1030400041F01001E6E72A280FD1D9F8002052F804
:10305000040BC9F8002000280F9003D540420F90C0
:1030600041F004010AF1010A14E00F92DFF8583C24
:103070000AE00F98984205DA00EB800402EB440264
:10308000303A0F920AF1010A9AF80020A2F13000BA
:103090000A28EED39AF800002E2803D04FF0FF3212
:1030A0000E9229E01AF8010F2A2809D1D9F8000058
:1030B00050F8042BC9F800000E920AF1010A1BE037
:1030C0002D280CBF0AF1010A002000220E92DFF821
:1030D000F84B0BE040B90E9AA24205DA02EB8205EA
:1030E00003EB4503303B0E930AF1010A9AF80030D6
:1030F000A3F130020A2AEDD3ADF840100FF6CC3020
:103100009AF8001003F068FB08B11AF8010B8DF86B
:1031100042009DF84200682805D19AF8000068280E
:103120000CD1622106E06C2804BF9AF800006C28DC
:1031300004D171218DF842100AF1010A12A80690FB
:103140001AF801BBBBF125012CD01C3900F0D68147
:10315000091F022940F2D281133900F0E1840939B4
:1031600000F0CC81891E00F07685491E00F0238591
:10317000491E022940F2C281091F00F01C85491F27
:1031800000F03181491E00F0CB84491E00F0D88048
:10319000C91E0DD0891E00F0C384C91E00F0C08472
:1031A00000F064BD25238DF84830012100F069BD91
:1031B000D9F8000050F8044BC9F80000002C059421
:1031C00040F0AB802B994878002800F0A1804FF0A8
:1031D000FF340FF6003003F00BFB201A40F06E8531
:1031E00000F050BD01236A4602A9304600F042FEBD
:1031F000002840F063856D1EF4D13096079D12AF14
:1032000075B1309E17F8012B02A9304600F022FE5E
:10321000002801D46D1EF5D10028309640F04E856F
:103220000A9D3020002D8DF800000CDD309E01231A
:103230006A4602A9304600F01DFE002840F03E8597
:103240006D1EF4D13096059F089D75B1309E17F81C
:10325000012B02A9304600F0FDFD002801D46D1EAF
:10326000F5D10028309640F029850B9D3020002DA7
:103270008DF800000CDD309E01236A4602A930461D
:1032800000F0F8FD002840F019856D1EF4D130964D
:1032900005980899099D471875B1309E17F8012BBC
:1032A00002A9304600F0D6FD002801D46D1EF5D1EC
:1032B0000028309640F002850C9D3020002D8DF8BE
:1032C00000000CDD309E01236A4602A9304600F062
:1032D000D1FD002840F0F2846D1EF4D130969DF8A7
:1032E000400041077FF583AE2020002C8DF80000C0
:1032F0007FF77DAE309D01236A4602A9284600F083
:10330000B9FD002840F0DA84641EF4D130956EE6F1
:103310000FF6C030059000F0B5BC0E9D002D04D511
:103320002046FFF739FB044607E02A46204603F013
:103330007FFA002814BF041B2C46089400F0A2BC9E
:10334000D9F8001051F8040BC9F8001020F000045F
:10335000002121F0FF3512ABCDE902450593DDE9EF
:10336000022306993C2413B90AB90E98A0B102F0C1
:103370000F05641E30353A2D08DA12090D5542EA60
:1033800003721B0908BF002A02D105E02735F4E7C4
:1033900005980D19A842EAD308190590C4F13C021A
:1033A0000E98089282420ADABDF84010821A4FF64F
:1033B000EF7001400A92ADF8401000F063BC0028A5
:1033C00040F160849DF8400000F01400102840F0A7
:1033D00059840F9B07990A985B1A1B1A9A1A002A9C
:1033E00040F350849AE32B99487820B14FF0FF3492
:1033F0000FF6B020EFE69DF84200622860D0682802
:1034000017D06A283FD06C2806D0712847D074287E
:103410002CD07A281DD062E0D9F8001051F8040BA6
:10342000C9F80010002866D14FF0FF340FF68C2049
:10343000D1E6D9F8001051F8040BC9F8001020B9F2
:103440004FF0FF340FF67420C5E60D99018000F0AF
:1034500019BCD9F8001051F8040BC9F80010002865
:1034600049D14FF0FF340FF65420B4E6D9F80010DC
:1034700051F8040BC9F8001000283CD14FF0FF347C
:103480000FF63820A7E6D9F8001051F8040BC9F858
:10349000001080B94FF0FF340FF620209BE6D9F8DA
:1034A000001051F8040BC9F8001020B94FF0FF3498
:1034B0000FF608208FE60D9AD317C0E90023E1E349
:1034C000D9F8001051F8040BC9F8001020B94FF0DA
:1034D000FF340FF6E8107EE60D990170D2E3D9F8BB
:1034E000001051F8040BC9F8001020B94FF0FF3458
:1034F0000FF6C8106FE60D990160C3E3D9F80020FC
:10350000D21D22F00702C9F80020D2E900010832DA
:10351000C9F80020CDE90201C80F02D007982D217B
:103520000AE0BDF84000810702D507982B2103E08F
:10353000C00705D50798202112AA1154401C0790F6
:1035400012A80799DDE9024543184BF020006128D5
:10355000059321AE0BD00E98002802D506200E90C0
:1035600005E001BF4BF02000672801210E91DDE945
:10357000020148004015401C0A460DD109030BD03A
:10358000ABF1610703201A2F089002D20FF6481101
:103590000DE00FF648110AE070B912030CD1ABF13F
:1035A000610703201A2F08901CD30FF6381103224D
:1035B0001846FFF7F7FC65E3DDE902016A4603F010
:1035C00063F9CDE902014BF02000612811D1059883
:1035D00030210170821C0592BBF1610F0CBF782174
:1035E000582102E00FF6F801E1E741700798801CCE
:1035F0000790DDE9020120F0000231F0004308BF2E
:10360000002A02D10025002445E14BF02008B8F142
:10361000610F40F095800E98002847BF212101914D
:10362000401C0190019F7F1C204629460022002358
:10363000DDE9024503F060F938BF85F000450099E7
:103640008DF88420091F002F00910DF1850034DDD5
:103650000646204629460022002303F067F92BD2B4
:103660001C2203F07DF904460D4603F017FAFF1FF4
:10367000002F804609DD03F02DFA02460B46204656
:10368000294603F0EFFA04460D46F01D0721B8F174
:10369000000F0CDD491E5EBF08F00F0200F8012D7F
:1036A0004FEA2818F3D502E0002200F8012D491E48
:1036B000FAD5C61D002FCCDC30460DF18501401A2D
:1036C00001990DF1850605468842C8BF0D46002DBB
:1036D0002FD4854206DA0DF18500415D0829A8BF87
:1036E0000F2000DA0020294621AA0A4400E06D1EBE
:1036F00012F80139491E8342F9D00F2804D10DF187
:103700008500425C521C4254002904D50098001DDB
:1037100021AE6D1C0090681E0BD431180A7830322F
:10372000D3B23A2BA4BF5A443A3A401E01F80129B9
:10373000F4D50E98002840F1AD80691E0E91A9E0E5
:103740000099DFF8002747F29750414391FBF2F2CE
:10375000009225F00045C2F10702002A04DD204650
:10376000294600F04BFB0BE052420020DFF8D81650
:1037700000F044FB02460B462046294603F0E4FADB
:1037800004460D46B8F1660F06BF009F0A370627AC
:103790000E983F18142FC8BF142730208DF88400CE
:1037A0000DF1850000E03046002F35DD064620464D
:1037B000294603F0EDFB01460A4606F10803042002
:1037C0000A26B2FBF6F606EB860EA2EB4E0230326C
:1037D00003F8012C0A22B6FBF2F202EB820EA6EBF2
:1037E0004E063036401E03F8026DE9D1083F002F27
:1037F00003F10806D7DD084602F09EFE02460B469E
:103800002046294603F02EFA0022DFF8403602F067
:10381000A1FE04460D46CAE70DF18501401A0DF1DF
:10382000850604E00099491E401E0091761C3178FF
:103830003029F7D0B8F1660F02D10099491C04E095
:10384000B8F1650F0CBF012100210E9D4D19A84252
:10385000B8BF451E002D1DD4854204DA705D3428A2
:10386000C8BF392000DC30202946721E531800E002
:103870006D1E13F80149491E8442F9D0392802D13E
:10388000705C401C7054002904D50098401C1646FA
:103890006D1C0090009C03F08DFB406A0778DDF8FA
:1038A000388028B2002802DC01250FF23C664BF07C
:1038B0002000662808BF641C16D0672846D120B2B5
:1038C00010F1040F48DB404546DA9DF84000641CC7
:1038D000010703D428B24045D8BF804620B2B8EBD8
:1038E000000848BF4FF000080FFA84FBBBF1000F3F
:1038F00000F3B5800898411C0891302205990A54BC
:10390000B8F1000F03DC9DF84000010704D50898CA
:10391000411C089105990F5418EB0B0FB8BFC8F163
:10392000000424B26042A0442AB20B909045B8BF74
:103930004546059B08982DB209952A4631461844FC
:10394000FFF730FBA8EB05000C90D2E0BBF1610F54
:1039500017D14FF0700B19E028B2404504DA9DF8FA
:1039600040100A0758BF8046B8F1010848BF4FF021
:103970000008BBF1670F14BF4FF0450B4FF0650B0C
:1039800004E0BBF1410F08BF4FF0500B0898411CF9
:103990000891B8F1000F059916F8012B0A5403DCC1
:1039A0009DF8400001071AD50898411C0891B8F10C
:1039B000000F05990F5412DD6D1E28B28045B8BF67
:1039C00045460598089B2AB231461844FFF7EAFAA3
:1039D00008992DB269180891A8EB05000B9005987D
:1039E0000899084421B2002980F800B003D42B22A2
:1039F0004270821C04E02D2242700C46821C6442FC
:103A000000212CAB20460AE004460A2094FBF0F08B
:103A100000EB8005A4EB450403F8014B491C00B200
:103A20000028F1DC012906DC4BF02000652804BFEA
:103A3000302002F8010B00292CAB08D1302002F80D
:103A4000010B06E0491E585C303002F8010B0029DA
:103A5000F8DC059908980844121A099249E028B23E
:103A600021B288421CDA0598089B2AB231461844D4
:103A7000FFF798FA08992DB269180891ABEB050089
:103A8000B8F1000F0B9003DC9DF84000020704D54D
:103A9000059847540999491C0991CDF8308028E0D0
:103AA0000598089B22B231461844FFF77BFA089824
:103AB0002D1B5844B8F1000F089003DC9DF840100E
:103AC0000A0703D5411C089105990F5428B2804577
:103AD000B8BF45460598089B2AB206EB0B0118446F
:103AE000FFF760FA08982DB228180890A8EB050097
:103AF0000B909DF8400000F01400102840F0C280A8
:103B0000079A08990B988A18099982180C988A18AC
:103B100082180F98824280F2B580821A0A92B1E030
:103B20009DF84200622808D068280ED06A2814D078
:103B30006C281FD0712810D01CE0D9F8001051F863
:103B4000040BC9F80010C0B21AE0D9F8001051F8FF
:103B5000040BC9F8001080B212E0D9F80020D21D81
:103B600022F00702C9F80020D2E900010832C9F8A2
:103B7000002006E0D9F8001051F8040BC9F8001035
:103B80000021CDE902019DF8400001075AD5DDE989
:103B90000223002B08BF002A54D04BF020007828C5
:103BA00050D1079812A930220A54401C431C079395
:103BB00001F800B046E09DF84200622808D068286D
:103BC0000ED06A2814D06C281FD0712810D01CE0A9
:103BD000D9F8001051F8040BC9F8001040B21AE0EF
:103BE000D9F8001051F8040BC9F8001000B212E027
:103BF000D9F80020D21D22F00702C9F80020D2E92E
:103C000000010832C9F8002006E0D9F8001051F888
:103C1000040BC9F80010C117CDE90201002902D533
:103C200007982D210AE0BDF84000810702D50798CA
:103C30002B2103E0C00705D50798202112AA1154B3
:103C4000401C079012A807990144059102A8594603
:103C500000F04EF816E001200790D9F8000050F867
:103C6000041BC9F800008DF848100BE02521012243
:103C7000BBF1000F8DF84810079203D08DF849B0C2
:103C8000022107910F9A07980A990C9C121A08981A
:103C9000521A0B99121A0998521A121A9DF84000DA
:103CA000141B41073FF5AAAA2020002C8DF8000024
:103CB0007FF7A4AA309E2546FFF794BA4FF0FF3055
:103CC00031B0BDE8F08F0000CBCCCC0C686A6C74CE
:103CD0007A4C00007072696E74665F733A2062619C
:103CE0006420257320617267756D656E7400000035
:103CF0002DE9FC4304466F29256908BF082605D035
:103D000041F02000782814BF0A261026D4E90023A9
:103D10003C2790469946642918BF692905D1002B94
:103D200003D5D8F1000869EB4909B9F1000F08BFC4
:103D3000B8F1000F0CD1206B50B9082E3AD194F88D
:103D40003800010736D530203B2785F83B0031E0AD
:103D50008DF80010404649463246F31703F02EF91D
:103D60003032D0B27F1E3A2801970EDAEA5540462B
:103D700049463246F31703F021F980465FEA01090C
:103D800008BFB8F1000F05D108E09DF80000121837
:103D9000513AEBE7E068E9198842DBD3082E09D1F4
:103DA00094F83800010705D5E85D302802D07F1E61
:103DB0003020E855C7F13C02A261E919E160206BAF
:103DC000824208DA821A22624FF6EF70218F014098
:103DD0002187BDE8F38300280ED594F8380000F061
:103DE0001400102808D1636B6169206A5B1A1B1AE2
:103DF0009A1A002AC8BF2262BDE8F3832DE9D04396
:103E000006460F4614464FF00008DFF8449012E0D3
:103E1000E00707D542464B463046394602F09AFB4A
:103E200006460F464046494642464B4602F092FB44
:103E3000641080468946002CEAD130463946BDE8F8
:103E4000D0830000A08601000000F03F84D7974196
:103E50000000244010B503460C461146A068984760
:103E6000A06020B1E06A401CE062002010BD4FF06D
:103E7000FF3010BDF8B505460E4617461C4600201B
:103E80005CB117F8011BB068A847B06030B1F06AA8
:103E9000401CF0620020641EF3D1F2BD4FF0FF30F1
:103EA000F2BD00007072696E74665F733A20256E11
:103EB00020646973616C6C6F776564007072696E01
:103EC00074663A2062616420256E20617267756DA8
:103ED000656E7400000000006E616E004E414E0081
:103EE000696E6600494E46003000704762F30F224B
:103EF00062F31F4200B500BF130096469446103986
:103F000028BFA0E80C50FAD85FEA417C28BF0CC05B
:103F100048BF40F8042BC90728BF20F8022B48BF30
:103F200000F8012B00BD0000F0B585B050260B9DB8
:103F300025B986F3118800F047FAFEE70C9C24B9F6
:103F400086F3118800F040FAFEE75C270097DDF861
:103F500000E0BEF15C0F04D086F3118800F034FA63
:103F6000FEE7009E25630026022584F8595004AF21
:103F70000A9D039602940197009500F034F82046BC
:103F800000F078F8049805B0F0BD2DE9F843064636
:103F9000174684B088469946B80003F093F80500A8
:103FA0001CD05C2003F08EF8040014D000202563A0
:103FB00084F85900039002940D980C990190009197
:103FC0004B463A464146304600F00DF8204600F098
:103FD00051F8012004E0284603F0FDF84FF0FF30CF
:103FE00005B0BDE8F0832DE9F0470A9F81460C46F5
:103FF0001546386B9A46A522A900FFF777FF396B63
:1040000001EB8502101FC0084FEAC00808F0070046
:1040100007F1340554B10021625C6A54605C10B150
:10402000491C1029F8D30020E87300E02870089E8E
:10403000372E88BF3726099CFE62AE61E861C6F163
:104040003806381D03F023F907F1180003F01FF9B3
:104050003F61BE617F6200202862002187F858100E
:1040600052464946404600F095FC386004B127604E
:10407000BDE8F0872DE9F04100F054F8DFF83C5539
:10408000DFF85485E86C401CE8641426A86A28BB55
:10409000AC62E86C012829D1002706FB07F04044F8
:1040A00003F0E8F87F1C382FF7D305F1740003F014
:1040B000E1F805F18807384603F0DCF8284603F0FC
:1040C000D9F805F1140003F0D5F805F1380003F034
:1040D000D1F805F17400E8622F6307E0A86D28B9F4
:1040E000E06AA96ACA6A904228BFAC62A86EE26A16
:1040F000401C6064696D914238BF6A65A86656438A
:10410000211D08EB060003F0C5F800F0CEFCA86DF9
:1041100030B100F0B0F903D200F09AFB00F054F98E
:10412000BDE8F081044600F0A7BC000080B586B071
:1041300000210591049103AA04A905A803F0E4F85D
:104140000598049902900022009201910023039A9D
:1041500011A10FF2AD30FFF7E7FE98B103F0DEF8E2
:104160005021012810D181F3118800F02DF9DFF8DA
:104170004C044FF0FF31C1660122826500210165C8
:1041800000F02AFC07B000BD10F1010FFAD181F355
:10419000118800F019F9FEE749444C450000000081
:1041A000DFF8DC07016F491C01677047DFF80C245A
:1041B000506D002100B10121936AD86A28B9DFF857
:1041C000C4070368012B00D809B100207047D16EE5
:1041D000106D081A704770B5DFF8E063306F002487
:1041E000002520B900F044F800F0EEF8FEE700F0FA
:1041F00043FC306F401E3067306F002836D1F06CC2
:10420000D0B933E0F068C46800F036F800F01BFA6B
:10421000E06A716D814238BF70651423DFF864274E
:104220005843211D104403F035F8E06AB16ACA6AA8
:10423000904224BF0121316630680028E2D10CB1E0
:1042400000F0ABF9F46D44B100F01EF808B10120A4
:104250003066641EF8D10020F065306E30B1DFF8B2
:1042600028174FF08050012500F0ADF800F05EBA3D
:10427000502181F31188704704F1180003F030B821
:10428000DFF8FC06006D70472DE9F843DFF82C736A
:10429000386F0026002852D13C6D641C3C6510D15B
:1042A000F86A006820B1FFF7E3FF00F08DF8FEE741
:1042B000F86A396BF9623863786E401C786600F0F2
:1042C0006CF9F86EDFF8BC9684424FF0140827D3DF
:1042D0001FE0F96AC868C568686884422DD3281D44
:1042E00002F0FEFFA86A18B105F1180002F0F8FF0D
:1042F000E86A796D814238BF786508FB00F0291DB6
:10430000484402F0C7FFE86AB96ACA6A904228BF07
:104310000126F86A00680028DBD14FF0FF31F9660A
:10432000B86AC06A08FB00F859F80810022928BFCB
:104330000126386E30B1012604E0F866F0E7F86D2A
:10434000401CF86581E210B5DFF87022106F10B1E3
:104350000121116610BD1066516DDFF8283600E0AE
:10436000491E14244C43185930B90029F8D100F0E3
:1043700012F800F029F8FEE7181900F10804436864
:104380005B684360A34204BF5B6843604068C368E6
:104390009362516510BD502080F31188704710B5AD
:1043A0000C4620B9FFF7F7FF00F00EF8FEE700F02B
:1043B00029F802F07CFF2046BDE8104009E0DFF854
:1043C000C8154FF080500860BFF34F8FBFF36F8F59
:1043D0007047012100F0ADBA38B50D46144620B93A
:1043E000FFF7D9FFFFF7F0FFFEE700F00BF802F050
:1043F00051FF0CB14FF0FF3521462846BDE834404F
:1044000000F097BADFF87825936A03F11801704736
:1044100038B5C068C46824B9FFF7BDFFFFF7D4FF03
:10442000FEE7FFF729FF654D286F50B900F00BF943
:1044300000F015F838BF6A6500F015F800F0ADF827
:1044400004E004F11801284602F024FF00F013F8FC
:1044500003D201212966012032BD002032BDE26A6B
:10446000686D904270471420DFF818354243211DD3
:10447000981802F00FBFA86AC16AE06A81427047CB
:10448000DFF8FC144A6E0260096D41607047F8B5B0
:1044900004460D46502024B980F31188FFF794FF9D
:1044A000FEE725B980F31188FFF78EFFFEE700F0E5
:1044B000E3FADFF8CC04016D62682E688B1A16F1FE
:1044C000010F0ED0476ED4F800C0674501D091426D
:1044D0000BD2B34207D2F31A2B60416E2160006DFC
:1044E0006060002402E000202860012400F0DDFA72
:1044F0002046F2BDDFF888140120086670470000EE
:1045000070B5354C2D4D11E000F0B6FA286AC6683A
:10451000301D02F0E5FEE86C401EE864686B401E4A
:10452000686300F0C2FA304600F020F8686B00289B
:10453000EAD12168022901D3FFF741FFFFF736FED8
:104540000228F3D3FFF72CFEE86E296D884208D3CA
:10455000FFF72CFE022828BF03F08AF8FFF73BFE86
:10456000E4E7FFF718FFFFF72FFFFEE710B504465B
:1045700094F8590040B9206B02F02DFE2046BDE8AA
:10458000104002F028BE10BD0128F7D00228FAD052
:10459000FFF701FFFFF718FFFEE70849C86A006848
:1045A00010B94FF0FF3203E0C86AC268D0684268B1
:1045B000CA667047DFF8C803806A704758870020D2
:1045C000DFF8BC13886D08B901207047086F08B97F
:1045D000022070470020704768790020F8B5044633
:1045E00000207CB3E16ADFF89853AA6AD36A994243
:1045F00022D2A069002804D4A86AC26AC2F1380293
:10460000A2611427DFF87C636269794331448A42EE
:104610000ED100F018F8A86AC06A696D814238BFEF
:104620006865E0624743211DF01902F033FE08E09F
:10463000A86AC16AE16204E0E16CAA6AD36A99429D
:1046400000D20120F2BD201D02F04ABE38B504465A
:10465000002134B3DFF82853A86A5022844204D0E2
:1046600082F31188FFF7B0FEFEE7206D20B982F3D8
:104670001188FFF7A9FEFEE7E26AE36C401E9A424A
:1046800020650ED068B9FFF7DEFFE26CE262C2F18E
:104690003800A061696D914238BF6A65FFF7E3FE9B
:1046A0000121084632BDF8B5040034D0206D5022F7
:1046B00020B982F31188FFF787FEFEE7E36C994289
:1046C00038BF1946E36A8B4225D0012823D1DFF891
:1046D000B052A86A844204D182F31188FFF774FEB5
:1046E000FEE7A069E16200285CBFC1F13801A16169
:1046F0001427DFF8906261697B43F21891420AD176
:10470000FFF7A1FFE06A696D814238BF68654743E2
:10471000211DF0193AE1F1BDDFF86412886A18B181
:10472000886A026D521C0265886A704700F0BDF904
:10473000284670BD2DE9F04180460F4614461D46BF
:1047400000F09AF98E4EB06A90F85800022810D006
:10475000B06A416D21EA0808C0F854800120B16AAE
:1047600081F858002DB10121284600F0E2F8FFF74A
:1047700026FE00F09AF900F07FF914B1B06A406D9E
:104780002060B06A90F85800022818BF002405D1B4
:10479000B06A416D21EA070747650124B16A00202C
:1047A00081F8580000F081F92046BDE8F081000052
:1047B0002DE9F84304460F4691461D4601264FF069
:1047C000500824B988F31188FFF7FEFDFEE700F0DA
:1047D00053F900F09FF8B9F1040F22D8DFE809F08F
:1047E000060319051D00616D0F43676501282AD175
:1047F000FFF729FFE26A624D686D904238BF6A6533
:10480000FFF731FEA06AA8B188F31188FFF7DCFD3D
:10481000FEE7616D491C6165E8E70228E5D10026E5
:1048200011E0616D11F1010FE0D088F31188FFF7FD
:10483000CBFDFEE7FFF7B1FEFFF71DFE03D200F050
:1048400007F8FFF7C1FD00F030F93046BDE8F2830C
:104850004D4A4FF080511160704700002DE9F0473C
:1048600004460F4692461D4601264FF0500824B9D3
:1048700088F31188FFF7A8FDFEE700F03BF9EFF39E
:10488000118988F31188FFF79FFD00F043F8BAF112
:10489000040F18D8DFE80AF006030F051300616D56
:1048A0000F436765012830D1A06AA8B188F3118849
:1048B000FFF78AFDFEE7616D491C6165F2E702289A
:1048C000EFD1002621E0616D11F1010FEAD088F3EC
:1048D0001188FFF779FDFEE7294D286F40B9FFF7F2
:1048E000B2FEFFF7BCFD38BF6A6500F01CF802E0BD
:1048F00004F11801284602F0CDFCFFF7BCFD04D2FC
:10490000089800B106600120286689F311883046B6
:10491000BDE8F0870DB1606D2860022194F8580061
:1049200084F8581070471420164B4243211D9818E4
:104930007047F8B5124D2F6D0C46A96A0646081D42
:1049400002F0CEFC16F1010F05D124B1A86A011DB9
:1049500005F138001AE0A86AF6194660BE42A86A56
:1049600005D2011D286BBDE8F44002F0A0BC011D7A
:10497000E86A02F09CFCE86E864238BFEE66F1BD44
:10498000588700206879002004ED00E0BDE8F4407D
:1049900002F080BC490810B54900A0F120034FF097
:1049A000807499611A60DC616FF002020FF20D01F0
:1049B000596140F8242D203810BD00005A494A683A
:1049C000502012F1010F80F31188BFF34F8FBFF316
:1049D0006F8F00D0FEE7FEE77CB5544A544B106859
:1049E0005021984202D100F0B1F8FEE71068514B17
:1049F000984202D100F0AAF8FEE74F4B1C780194D0
:104A0000FF251D701E78484C8DF800609DF8000051
:104A100000F050002070072005E09DF800506D0068
:104A2000401E8DF800509DF800502E06F5D44542EA
:104A300015F1030F03D0A06000F088F8FEE7000234
:104A400000F4E060A06001981870116A41F47001F0
:104A50001162106A40F07040106202F00BFE0020FC
:104A6000606002F065FE3548016841F04041016038
:104A700002F04EFE002076BD502080F31188BFF377
:104A80004F8FBFF36F8F28494A68521C012A4A6032
:104A90000AD12B490A68130606D080F31188BFF3A8
:104AA0004F8FBFF36F8FFEE770471F49486838B9D3
:104AB000502080F31188BFF34F8FBFF36F8FFEE755
:104AC000401E486008BF80F31188704780B55020B1
:104AD00080F31188BFF34F8FBFF36F8FFFF7D4FBC5
:104AE00018B117494FF080500860002282F31188F6
:104AF00001BD000010B5EFF30580502110280A4ACF
:104B000007D3104B185C1478A04202D200F01EF8B4
:104B1000FEE790680C4A136803F4E063984202D2FF
:104B200000F014F8FEE710BDDC20002000ED00E0EE
:104B300071C20F4170C20F4100E400E034EF00E0A9
:104B400004ED00E0F0E300E00CED00E081F31188FB
:104B5000BFF34F8FBFF36F8F7047000070B5040035
:104B60000D4602D100F0E4F8FEE7FFF785FF206C68
:104B7000E16B226800FB01F3491E484310441344D3
:104B8000A3600026A663E060626004F144004FF079
:104B9000FF310170417075B92069A0B104F11000B6
:104BA000FFF736FC78B1DFF898184FF080500860B6
:104BB00000F045FB07E004F1100002F05BFB04F19C
:104BC000240002F057FBFFF770FF012070BD7CB599
:104BD0001C46502320B983F3118800F030FBFEE718
:104BE00024B983F3118800F02AFBFEE72AB129B922
:104BF00083F3118800F023FBFEE779B95025009577
:104C0000009E502E0FD1009B34B1069B012584F8E5
:104C10004650009400F028F8204676BD83F31188B2
:104C200000F00DFBFEE783F3118800F008FBFEE7C0
:104C3000F8B505000E46174602D100F079F8FEE7F8
:104C400006FB05F0503002F03DFA04000AD00020C7
:104C500084F8460000943B4604F150023146284651
:104C600000F002F82046F2BD38B5049D1C4600292C
:104C70000CBF2D602A60E863296428460121FFF7F4
:104C80006DFF85F84C4031BD30B1002181600022BC
:104C900002600023C36084E0704710B50246002123
:104CA0000120FFF7C5FF0446FFF7EEFF204610BDC9
:104CB0001CB500900B46002200210120FFF787FF62
:104CC0000446FFF7E1FF204616BD10B5040002D1EF
:104CD00000F02EF8FEE7FFF76DFCA16881420BD1D2
:104CE000E068401EE06005D100230022002120463C
:104CF00000F057F8012010BD002010BD38B50400A9
:104D00000D4602D100F014F8FEE7FFF753FCA1684E
:104D1000814204D1E068401CE060012032BD294698
:104D2000204600F0DFF910B1E168491CE16032BDB6
:104D3000502080F31188BFF34F8FBFF36F8F704700
:104D400038B50C461346502120B981F3118800F084
:104D500076FAFEE7A04204D281F3118800F06FFAE0
:104D6000FEE70225009500220021FFF730FF00B189
:104D7000846332BD10B50C46502120B981F31188EF
:104D800000F05DFAFEE7A04204D281F3118800F042
:104D900056FAFEE702220021FFF74AFF00B18463C2
:104DA00010BD2DE9F64782B004461E46502714B9BF
:104DB00000F043FAFEE75FEA010A01D1206C60B916
:104DC000022E02D1E06B01280AD1FFF7F9FB50B99E
:104DD000039840B100F031FAFEE700F02EFAFEE74A
:104DE00000F02BFAFEE727460024DFF854864FF048
:104DF00080592EE0039800284BD014B900F010FA27
:104E00000124FFF752FEFFF7CBF9FFF735FE07F15C
:104E1000440000F008FA04BF0022027000F008FA13
:104E200004BF00224270FFF740FE00F04DF800285A
:104E300044D1FFF721FEB86BF96B884214BF0025FF
:104E40000125FFF732FE45BB384600F097FAFFF721
:104E5000C2F9FFF711FEB86BF96B884201D3022E3D
:104E6000C8D132465146384600F040FA796A29B135
:104E700007F12400FFF7CCFA08B904E018B1C8F82C
:104E8000009000F0DCF9FFF710FE012004B0BDE84F
:104E9000F087FFF70AFE0020F8E7039907F11000FA
:104EA000FFF77DFA384600F069FAFFF794F9002819
:104EB000CFD1C8F8009000F0C2F9CAE7384600F038
:104EC0005DFAFFF788F9E6E703A96846FFF7DFBA5E
:104ED0002DE9F8430446884615461E46502714B966
:104EE00000F0ABF9FEE7B8F1000F01D1206C28BB50
:104EF000022E02D1E06B012823D1FFF7FBFDEFF377
:104F0000118900F063F801D3022E22D194F9457083
:104F1000A06B32464146204600F0E8F917F1010F38
:104F200012D1606A98B104F12400FFF771FA0028E9
:104F300018BF002D0BD00120286008E000F07DF99B
:104F4000FEE700F07AF9FEE77F1C84F84570012047
:104F500000E0002089F31188BDE8F283F8B504462B
:104F60000D46502714B900F068F9FEE7206C10B127
:104F700000F063F9FEE7206808B9A068D0B9FFF730
:104F8000B9FDEFF3118600F021F81BD294F945101A
:104F9000401C11F1010FA0630FD1606A80B104F1D0
:104FA0002400FFF735FA002818BF002D08D0012093
:104FB000286005E000F041F9FEE7491C84F845103F
:104FC000012000E0002086F31188F2BD87F31188EC
:104FD000BFF34F8FBFF36F8FA06BE16B88427047B9
:104FE0002DE9F74306460F460024502526B985F3E0
:104FF000118800F024F9FEE70FB9306C48B9FFF7CB
:10500000DFFA78B9029868B185F3118800F017F9D2
:10501000FEE785F3118800F012F9FEE700F0FEF8D4
:10502000FFF7D9F8FFF728FDB56BDFF81484002DE2
:105030004FF0805932D10298002845D014B900F0C1
:10504000EFF80124FFF731FDFFF7AAF8FFF714FD91
:1050500006F14400415711F1010F04BF0022027014
:1050600000F0E6F804BF00224270FFF71EFD02A91F
:10507000FFF72BFF002830462AD100F0B3F90028B3
:10508000CCD000F0C6F800F0C9F8FFF7A4F800286B
:10509000C8D1C8F8009000F0D2F8C3E739463046CE
:1050A00000F058F96D1EB563306940B106F110008B
:1050B000FFF7AEF918B1C8F8009000F0C0F8FFF79C
:1050C000F4FC0120BDE8FE83FFF7EFFC0020F9E7C8
:1050D00000F054F9FFF77FF8304600F083F900281C
:1050E000A0D0F3E72DE9F24382B006460024002564
:1050F000502716B900F0A1F8FEE7306C10B100F0AF
:105100009CF8FEE7FFF75CFA40B9029830B100F076
:1051100094F8FEE700F082F8FFF75DF8FFF7ACFCCB
:10512000B06BDFF81C8300284FF080593BD1029808
:1051300000284ED014B900F073F80124FFF7B5FC35
:10514000FFF72EF8FFF798FC06F1440000F06BF82B
:1051500004BF0022027000F06BF804BF002242700E
:10516000FFF7A3FC02A9FFF7B0FE0028304634D1B8
:1051700000F038F90028CDD0306838B9FFF77CFC52
:10518000B068FFF72BFA0546FFF78FFC00F041F8F7
:1051900000F044F8FFF71FF80028BFD1C8F80090CE
:1051A00000F04DF8BAE7401EB063306810B9FFF761
:1051B000B3FAB060306940B106F11000FFF728F98A
:1051C00018B1C8F8009000F03AF8FFF76EFC012023
:1051D0001DE0CDB100F031F8FEE700F0CFF8FEF7AA
:1051E000FAFF304600F0FEF8002897D075B1FFF7BF
:1051F00043FC706A00281DBF306B0168C1F13801A3
:105200000021B068FFF74FFAFFF74FFC0020BDE820
:10521000FE83029906F12400FFF7C1B83046ADE0E5
:105220006846FFF72DB990F9001011F1010F704792
:1052300090F9011011F1010F704787F31188BFF346
:105240004F8FBFF36F8F70472DE9F84304460F4629
:105250001546502624B986F31188FFF7F0FFFEE7C4
:105260000FB9206C70B9FFF745FCEFF3118886F396
:105270001188FFF7E4FFA66B4EB9002088F3118870
:10528000BDE8F28386F31188FFF7D9FFFEE794F9B2
:1052900044903946204600F05DF8761E19F1010F62
:1052A000A6630CD1206970B104F11000FFF7B0F8CB
:1052B000002818BF002D06D00120286003E009F166
:1052C000010984F844900120D8E710B5040002D108
:1052D000FFF72EFDFEE700F0A0F894F8460020B995
:1052E0002046BDE8104001F076BF10BDF8B5064677
:1052F0001546B46B326C002742B9306830BBB068D9
:10530000FFF7A4F900210746B1601FE065B9706896
:10531000FDF748FE7068316CB268084490427060D6
:1053200014D33068706011E0F068FDF73BFE306C1C
:10533000F16840420144F1603268914202D2B168A2
:105340000844F060022D01D104B1641E641CB463F2
:105350003846F2BD026C002A0B4600D1704710B5EA
:10536000C16884681144C160A14224BF0168C16062
:10537000C168BDE810401846FDF714BEF8B50546F3
:10538000FFF77AFB05F1440494F9016007E005F1A9
:105390002400FFF73DF808B1FFF7ACF8761E70B2B5
:1053A000012802DB686A0028F1D14FF0FF366670F1
:1053B000FFF77BFBFFF760FB94F9007007E005F156
:1053C0001000FFF725F808B1FFF794F87F1E78B2B8
:1053D000012802DB28690028F1D12670BDE8F140E0
:1053E000FFF763BB10B50446FFF746FBA06B441EF6
:1053F000A441FFF75AFBE00F10BD10B50023114C7C
:1054000054F833201AB15B1C082BF9D310BD44F8B3
:10541000331004EBC301486010BD10B50021094AE8
:1054200002EBC1035C68844203D0491C0829F7D30E
:1054300010BD002042F83100586010BD000000008F
:1054400004ED00E0808B0020F8B504460D461646BA
:10545000FFF712FB04F1380797F90C0010F1010F68
:1054600004BF0021397397F90D0010F1010F04BF3B
:1054700000217973FFF719FB386828B932462946AD
:1054800004F12400FEF7A8FF2046BDE8F24075E7CE
:105490007FB50C46684D6168684E28626962281DB8
:1054A00002F054F9246805F1280002F059F97460FB
:1054B00006F1080002F054F901203070696829B142
:1054C0000FF2411200920294684688477FBD1FB5D3
:1054D0005A4C04F1080002F046F900BB2078F0B104
:1054E000694604F1080002F067F95348016A49B1BE
:1054F000009A029201238DF8043001A888479DF894
:10550000040000E001202070207818B1009802F01B
:1055100008FA04E0009904F1080002F02DF904F102
:10552000080002F020F928B9207818B104F1080029
:10553000FDF726F91FBD2DE9FC410446002000F0CF
:1055400056F8DFF8F48066882088012188F800107A
:10555000C6F3090646EA802638484068A168E26832
:10556000C272B6B2A0F80960D2B20C30FDF71AFDD3
:10557000D8F81420002100209047002548F2E800C8
:10558000FDF707F912E0B7F80100B0420BD1887AB5
:10559000C21E6069D2B28242C8BF024620696261FF
:1055A000F91CFDF7FFFC387800B1012508F128004F
:1055B00002F0D9F898B9694608F1280002F0FCF821
:1055C0000098014600F10B07487A0F28DBD1788854
:1055D000B04202D12269397811707878E4E7280066
:1055E000CCD0012000F003F80020BDE8F68112497C
:1055F000496A08B921B1084700291CBF01200847A2
:105600007047000010B50146487A0F2818BF0E28D1
:1056100007D10B4802F0BAF8BDE810400020FDF7B2
:10562000B4B8064C04F1080002F0B0F804F1080028
:10563000BDE81040FDF7A4B8C08B0020808C00208E
:10564000E88B00200D48002101604160704710B5D3
:1056500000F007F85C6800F009F85C6082F31088DD
:1056600010BDEFF3108272B6044B704719B10129D7
:1056700002D104437047844370470000B08C00207F
:1056800002F0F1F99DF80E0005B000BDF8B500F18B
:105690000C026B462E214FF66640F1E7F8B500F19B
:1056A0000C026B460F214FF66840E9E7F8B5024659
:1056B0006B4610214FF67540E2E7F0B51C491D4BD3
:1056C0000A681D49C2F30D0201EB82010C682268D1
:1056D0009A4205D16569A169E269E368246905E038
:1056E000264635697169B2697368B4682E0E067012
:1056F0002F0C47702E0A867001724272C5F3031692
:1057000005F00F0505711A0C0D0EC6704571C272B9
:105710000E0C0D0A190E81721B0A210E220C8671C5
:10572000C571037341738273C4730020F0BD000020
:105730003C400058B95646A9000003207C4900E0CF
:105740007C4981B00A6802430A60096808400090F9
:10575000009801B0704710B57749784C4FF400407D
:10576000086002F0D1F902F0FDF900F055F800F000
:1057700091F87348A06304F1380002F061FC042042
:10578000FFF7DEFF0120FFF7DBFF0220FFF7D8FF66
:105790000420FFF7D3FF0120FFF7D0FF0220FFF71F
:1057A000CDFF00220F210E2002F09CFC0E2002F003
:1057B000B7FC00220F213A2002F094FC3A2002F0BC
:1057C000AFFC60482060002147F6FF700F22E060C8
:1057D0006160A2602161A161E1616161204602F026
:1057E000DFFC00220021204602F091FD5648606255
:1057F0000021A16204F1240002F027FEFCF733F936
:10580000524A0FF20D100021FCF757F9606702F0C1
:10581000C0F9FCF737F9FEE780B59AB0482108A82F
:10582000FCF710F91C2101A8FCF70CF902F02EFE80
:105830004748016821F018010160012145480268CC
:1058400061F34A2202604721006800F4C0600090C2
:105850004FF4803200980891099201214FF4807230
:105860000A910B921291402200210C92139108A8E8
:1058700002F024FE6F200221019002910022039287
:105880000492059206920792012101A803F064F8A0
:105890001BB000BD80B594B050216846FCF7D2F82B
:1058A0004FF440524FF48041009211910222102196
:1058B00012921391684603F053FA15B000BD10B56B
:1058C000254C264820604FF4E1310C206061002215
:1058D0004FF40040E06100F010F8204603F0BCFBFC
:1058E0000021204604F066FB0021204604F06DFBF9
:1058F0002046BDE8104004F03FBB6160A260E2605A
:105900002261A26122626262A2627047000000000E
:1059100080B54FF0FF3201210120FCF74CF9F8E788
:1059200000680F49884208BF04F0A2BB704700001E
:10593000480000584C00005810400058AC89002026
:10594000000C00580028004000100058A4F900087E
:10595000900000580004005888880020003801405A
:10596000004801407047000020B501460648074D39
:1059700000E00838C2798A4218BFA842F9D18A42A9
:1059800018BF002020BD00BFF873FF1F0070FF1F6D
:1059900018B50C46C7B0114600F03DF88DF81D4013
:1059A00022460DF11E00FCF7DBFF00F041F83F211D
:1059B000ADF804100C22ADF8062007A903910122CE
:1059C000A41C0692049400F020F800284CBFFF208D
:1059D0009DF8000048B010BD00B5C7B000F021F838
:1059E0000F2200F007F800284CBFFF209DF80000B0
:1059F00047B000BDADF806203F21ADF804100222EB
:105A0000049207A9039101220692CDF814D0002137
:105A100001A8FFF790BD00228DF800208DF81C0032
:105A2000704700238DF81C008DF81D108DF8003094
:105A30001822002101A8FCF799BF00B587B000F03B
:105A400095F900F0E7F9812200F03DFA00F010F836
:105A500000284CBFFF209DF8000007B000BDADF846
:105A600006203F21ADF804100322049207A90391F8
:105A700001220692CDF814D0002101A8FFF75BBDEA
:105A80002DE9F84DC7B09446DDF840E1519A559D97
:105A9000569EDDF84CA1ADF81D108DF81C004FF09E
:105AA000000BADF81FC08DF821308DF822E000F01A
:105AB0002CF800F01FF824F8095F668000F0AAF9BE
:105AC0003F20ADF8040083210120ADF8061000F05E
:105AD0000AF8FFF7CFFF00284CBFFF209DF8000019
