:020000040800F2
:10000000081000209D0801082106010823060108A8
:10001000250601082706010829060108000000003E
:1000200000000000000000000000000009C90008F6
:100030002B06010800000000B1C80008014F0008AD
:10004000D5080108D9080108DD0801087F06010864
:10005000E1080108E50801087306010879060108AE
:10006000E9080108ED0801086D060108F10801081A
:10007000F5080108F90801082D060108FD08010826
:100080000109010805090108090901080D0901080C
:100090001109010815090108190901081D090108BC
:1000A0002109010825090108330601082909010869
:1000B0002D0901083109010835090108390901082C
:1000C0003D090108410901084509010849090108DC
:1000D000390601083F0601084D09010851090108C8
:1000E00055090108590901085D090108610901085C
:1000F00045060108490601084D0601086509010881
:10010000690901086D0901087109010875090108EB
:10011000790901087D09010881090108850901089B
:10012000890901088D090108510601089109010892
:1001300095090108990901089D09010818B10228CB
:1001400007D003D370470FF2140004E00FF2200031
:1001500001E00FF2340004F0DBBB00002A2A204546
:1001600076656E7449443A2041646465640D0A0002
:100170002A2A204576656E7449443A204D6F646999
:10018000666965640D0A00002A2A204576656E744A
:1001900049443A2052656D6F7665640D0A0000008F
:1001A00010B50128044608D0022809D004280AD036
:1001B00008280BD010280CD00FE00FF270000AE0D6
:1001C0000FF2800007E00FF2980004E00FF2B00099
:1001D00001E00FF2CC0004F09BFB0FF2E40004F00E
:1001E00097FBE00744BF0FF2E80004F091FBA00783
:1001F00044BF0FF2E40004F08BFB600744BF0FF232
:10020000E40004F085FB200744BF0FF2E80004F08F
:100210007FFBE00644BF0FF2EC0004F079FBBDE881
:10022000104001A004F074BB0A0D00002A2A2045EA
:1002300076656E74466C61673A2053696C656E74BE
:100240000D0A00002A2A204576656E74466C6167A7
:100250003A20496D706F7274616E740D0A0000006F
:100260002A2A204576656E74466C61673A20507282
:1002700065204578697374696E670D0A0000000097
:100280002A2A204576656E74466C61673A20506F65
:1002900073697469766520416374696F6E0D0A0035
:1002A0002A2A204576656E74466C61673A204E6551
:1002B00067617469766520416374696F6E0D0A0029
:1002C0002A2A204576656E74466C6167733A000091
:1002D0002053696C656E740020496D706F72746193
:1002E0006E740000205072654578697374696E679A
:1002F0000000000020506F73697469766541637473
:10030000696F6E00204E656761746976654163743C
:10031000696F6E000B282CD8DFE800F006090C0F7F
:100320001215181B1E2124270FF248001FE00FF2A0
:100330005C001CE00FF2740019E00FF2900016E070
:100340000FF2A40013E00FF2B80010E00FF2CC009F
:100350000DE00FF2E0000AE00FF2F00007E00FF20C
:10036000101004E00FF2301001E00FF2481004F01A
:10037000CFBA70472A2A2043617465676F72794942
:10038000443A204F746865720D0A00002A2A2043FF
:10039000617465676F727949443A20496E636F6D85
:1003A000696E672043616C6C0D0A00002A2A2043A5
:1003B000617465676F727949443A204D697373655A
:1003C000642043616C6C0D0A000000002A2A20435F
:1003D000617465676F727949443A20566F69636545
:1003E000204D61696C0D0A002A2A204361746567FB
:1003F0006F727949443A20536F6369616C0D0A004A
:100400002A2A2043617465676F727949443A205300
:1004100063686564756C650D0A0000002A2A204334
:10042000617465676F727949443A20456D61696C02
:100430000D0A00002A2A2043617465676F727949AA
:10044000443A204E6577730D0A0000002A2A2043A3
:10045000617465676F727949443A204865616C74CC
:1004600020616E64204669746E6573730D0A000026
:100470002A2A2043617465676F727949443A2042A1
:100480007573696E65737320616E642046696E6171
:100490006E63650D0A0000002A2A204361746567B7
:1004A0006F727949443A204C6F636174696F6E0DC5
:1004B0000A0000002A2A2043617465676F72794937
:1004C000443A20456E7465727461696E6D656E7430
:1004D0000D0A00000FB418B585B068460FF2FC0194
:1004E000142204F039FA08988DF8010000240898C5
:1004F0008DF80040000A8DF8020005220898000CD3
:100500008DF803000898000E8DF804009DF8240073
:10051000012804BF8DF8054006229DF8250001281A
:1005200007D1BDF8260020B101230DF8023000F0FC
:1005300075F89DF82800012806D1BDF82A0018B1E9
:10054000D4B2022300F068F89DF82C00012806D1EF
:10055000BDF82E0018B1D4B2032300F05DF89DF869
:100560003000012803D1D0B2042300F051F89DF8E7
:100570003100012803D1D0B2052300F049F89DF8DD
:100580003200012803D1D0B2062300F041F89DF8D3
:100590003300012803D1D0B2072300F039F8DFF887
:1005A000240DB0F83A1840886B46D2B204F090FBA4
:1005B000044647F2305000F032FE54B100F04EFDD8
:1005C00001464FF4D4730FF2280200F013FE03F03B
:1005D00013FF06B010BC5DF814FB00000000000023
:1005E000000001FFFF02FFFF03FFFF0405060700F5
:1005F000414E43535F436D645F4765744E6F74694A
:100600006669636174696F6E417474720000000002
:100610000DF80030521C70470DF80430521CD3B254
:10062000521C0DF80300D3B2000A0DF80300521C4F
:10063000704700002DE9F04F00260024002885B007
:10064000A04640F0E080ADF80C1001928DF8024019
:10065000DFF8749C0FF2D41ADFF8685CDFF86CBC2A
:1006600001E0F61CB6B2BDF80C00864280F2CE80E6
:100670000198801900F062FBBDF800100029F0D04D
:1006800005F6080002900146887810BB0F880FF22B
:10069000C01004F03DF90C204743E819049000F223
:1006A00009273878FFF74AFD7878FFF779FDB878A1
:1006B000FFF730FEF9780FF2EC1004F029F90498F6
:1006C000D0F810120FF2F41004F022F90299012070
:1006D00088700198805D07281ED8DFE800F01916A1
:1006E00013100D0A07040FF2F41013E00FF20820A4
:1006F00010E00FF220200DE00FF224200AE00FF2AC
:10070000342007E00FF23C2004E00FF2482001E023
:100710000FF24C2004F0FCF80198805D08B9012428
:1007200009E0062803D101208DF8020003E0072824
:1007300008BF4FF00108761CB6B2029605F5837724
:100740000198BDF800208619FF2A08D8B11C384648
:1007500004F053FBBDF800100020785410E000F0C6
:10076000F3FA01464FF4087301F028FA00F0BAFAE0
:10077000FE22B11C384604F040FB002085F804023C
:10078000029EBDF800008619B61C2000B6B217D034
:10079000BDF80020521C812A05F1860006DA394690
:1007A00004F02BFBBDF80000401C04E08022394619
:1007B00004F023FB802085F8850000240F2028709A
:1007C000BDF80000002804D039460FF2944004F030
:1007D0009FF848E758EA00000AD0102000F0B3FA6A
:1007E00001464FF4117301F0E9F90FF2881008E0A7
:1007F00000F0A9FA014640F2492301F0DFF90FF2B7
:10080000BC1004F085F805B0BDE8F08F29789DF89C
:1008100002000F29DED100F097FA01464FF40F7362
:1008200001F0CCF90FF2E810EBE70000414E435322
:100830005F50617273655F4765744E6F7469666976
:10084000636174696F6E417474725F526573700096
:100850000D0A2A2A2A2A2A2A2A2A2A2A2A2A2A2A35
:100860002A204461746120536F757263652044656A
:100870007461696C20496E666F726D6174696F6E28
:10088000205265636569766564202A2A2A2A2A2A05
:100890002A2A2A2A2A2A2A2A2A2A2A2A2A2A2A2AB8
:1008A0000D0A00002A2A2043617465676F7279433C
:1008B0006F756E743A2025640D0A00002A2A204EB6
:1008C0006F74696669636174696F6E5549443A2053
:1008D0003078253038780D0A000000002A2A204E92
:1008E00065676174697665416374696F6E4C6162B6
:1008F000656C3A20000000002A2A20506F7369744A
:10090000697665416374696F6E4C6162656C3A200B
:10091000000000002A2A20446174653A200000008B
:100920002A2A204D65737361676553697A653A2099
:10093000000000002A2A204D6573736167653A2024
:10094000000000002A2A205375625469746C653ACD
:10095000200000002A2A205469746C653A200000A7
:100960002A2A204170704964656E746966696572EF
:100970003A20000020332E3220506572666F726D6F
:10098000204E6F74696669636174696F6E2041639C
:1009900074696F6E203D3E20414E43535F50455277
:1009A000464F524D5F4E4F54494649434154494F7B
:1009B0004E5F414354494F4E200A0D00204E6F2098
:1009C0004170704964656E7469666965722026209D
:1009D000506F736974697665416374696F6E4C61B9
:1009E00062656C202620204E6567617469766541DA
:1009F0006374696F6E4C6162656C203D3D3E2020E2
:100A0000414E43535F49444C45200A0D000000000D
:100A100020332E3220476574204150502041747499
:100A200072696275746573202844657461696C200D
:100A3000496E666F726D6174696F6E2061626F7569
:100A40007420746865204170702C204E6F77206F81
:100A50006E6C7920737570706F727420746F20479C
:100A60006574204E616D65206F662041707029208D
:100A70003D3E20414E43535F4745545F4150505FD8
:100A8000415454524942555445200A0D000000007B
:100A90002DE9FE4F0027012840F08380DFF824680D
:100AA000DFF824880FF23819DFF820B8ADF802100B
:100AB000154606F5837A01E0FF1CBFB2BDF80200BF
:100AC000874270DAE81900F039F9BDF80010002902
:100AD000F2D0EC5D0FF2241003F01AFF1CB90FF2F4
:100AE0006C1003F015FFE85D441EA4417F1CBFB2EB
:100AF0000197E40FBDF80020EF19FF2A09D8B91CAF
:100B0000504604F07AF9BDF8001000200AF8010000
:100B100010E000F019F9014640F27A2301F02CFCB4
:100B200000F0E0F8FE22B91C504604F066F90020FF
:100B300086F80402019FBDF80000C719BF1CBFB2B0
:100B40008CB1421C812A07DA5146701D04F055F918
:100B5000BDF80000401C05E080225146701D04F0E5
:100B60004CF980203071BDF800000028A6D0514615
:100B70000FF2EC0003F0CCFEA0E700F0E5F8014630
:100B800040F29A2301F0F8FB29880FF2DC0003F011
:100B9000BFFE288844433019002180F80812112034
:100BA0003070BDE8F78F06F608050C2428886043EE
:100BB000301890F80B02012818BF0528DDD101205C
:100BC00028721020307000F0BFF801464FF42673F1
:100BD00001F0D2FB0FF2C40003F09AFEE1E700003F
:100BE000414E43535F50617273655F476574417056
:100BF00070417474725F5265737000000D0A2A2A86
:100C00002A2A2A2A2A2A2A2A2A2A2A2A2A204170F1
:100C1000702041747472696275746520496E666FE4
:100C2000726D6174696F6E20526563656976656483
:100C3000202A2A2A2A2A2A2A2A2A2A2A2A2A2A2A1E
:100C40002A2A2A2A2A2A2A0D0A0000002A2A2044AF
:100C50006973706C61794E616D653A200000000027
:100C60002025730D0A000000436F6D6D616E6449AD
:100C7000444765744170704174747269627574653B
:100C800073206E6F74696679456E7472793D256460
:100C90002052656D6F7665640A0D000020332E3496
:100CA00020506572666F726D204E6F74696669635D
:100CB0006174696F6E20416374696F6E203D3E20E0
:100CC000414E43535F504552464F524D5F4E4F5435
:100CD000494649434154494F4E5F414354494F4E61
:100CE000200A0D00BDF800100FF20800FF2203F0EB
:100CF0000FBE0000637574207468652041747472BF
:100D00006962757465494420782056616C75652068
:100D10006C656E3D2564203C3D2073697A656F6685
:100D200028616E63735F636F6E746578742E6C698F
:100D30007374293D2564200A0D000000411C022225
:100D4000684604F05AB82870584604F067B82DE990
:100D5000FC410546089C0FF2A4000E461746984633
:100D600003F0D6FD2846FFF7E9F93046FFF718FAF9
:100D70003846FFF7CFFA41460FF2D80003F0C8FD1E
:100D800021460FF2E80003F0C3FD0C22022DDFF82C
:100D9000343511D1002102FB01F0184400F5027036
:100DA0008568A54203D0491C8029F4DB24E0002299
:100DB00002700FF2D8001BE0002102FB01F0184482
:100DC00000F5027C9CF8000018B1491C8029F4DB76
:100DD00012E001208CF800008CF801508CF80260C1
:100DE0008CF803708CF80480CCF808400FF2BC003B
:100DF000BDE8FC4103F08CBDBDE8F3812A2A2A2A14
:100E00002A2A2A2A2A2A2A2A2A2A2A204E6F74695A
:100E10006669636174696F6E20536F7572636520D4
:100E2000426173696320496E666F726D6174696FA8
:100E30006E205265636569766564202A2A2A2A2A0B
:100E40002A2A2A2A2A2A2A2A2A2A2A2A2A2A2A2A02
:100E50002A0D0A002A2A2043617465676F7279435C
:100E60006F756E743A202564200D0A002A2A204EE0
:100E70006F74696669636174696F6E5549443A209D
:100E800030782530386C78200D0A00002A2A206E30
:100E90006F74696679456E7472793A2025642052C0
:100EA000656D6F7665640D0A000000002A2A206EC9
:100EB0006F74696679456E7472793A2025642041B1
:100EC000646465640D0A00007CB5DFF88C4804F6A4
:100ED00008054FF6FF7601462E8000220C2353436F
:100EE000234403F50273187818B19B780B408B42AA
:100EF00013D0521C802AF1DB2888B0420CD100F0BC
:100F0000ADF8014640F2ED2300F072F90FF2300027
:100F100003F0FEFC0020207073BD0020A870D2B248
:100F20000E2020702A8000F099F8014640F2E62356
:100F300000F05EF929880FF24C0003F0E9FCDBE7D2
:100F400020616E63735F636F6E746578742E6E6F6D
:100F500074696679456E747279203D3D20494E561C
:100F6000414C49445F4E4F544946595F454E545297
:100F700059203D3E20414E43535F49444C45200A91
:100F80000D000000322E20476574204D6F726520E1
:100F900044657461696C20496E666F726D61746935
:100FA0006F6E20206E6F74696679456E7472793D3C
:100FB0002564203D3D3E20414E43535F4745545FED
:100FC0004E4F54494649434154494F4E5F41545452
:100FD000524942555445200A0D00000010B5DFF873
:100FE000784740F64401204603F086FF00200C219C
:100FF0000023C2B24A432244401C82F80832C2B2E3
:10100000802AF6DB4FF6FF706080A4F80808237092
:1010100000F024F8014640F20D330FF2140200F004
:10102000E9F8BDE810400FF21C0003F071BC0000AD
:10103000414E43535F436C69656E745F52657365DF
:1010400074000000414E435320434C49454E542008
:101050005245534554200A0D000000009B4803F000
:10106000DDBE2DE9F047974C0FF29406964F0FF234
:10107000B408DFF858A204F62E0540F23D6902E0FC
:10108000022003F0A0F84FF0FF320021012003F00E
:10109000EBFF2078052823D008280AD00E2806D098
:1010A0000F2802D01028EBD01CE00120E9E7002037
:1010B000E7E7012002F0CEF9022002F0CBF903208D
:1010C00002F0C8F9042002F0C5F9298800291EBFE2
:1010D0006888002804F060FE052002F0BBF9D2E722
:1010E0000020FAE701F04CF901464B4642463846EB
:1010F00003F00EFC2178304603F00AFCC3E7000041
:10110000696E76616C696420616E63735F636F6E94
:10111000746578742E73746174653D2564200A0DBE
:1011200000000000414E43535F4170705F55706492
:101130006174655F5365727669636500DFF8940DCD
:101140004068012103F05EBF10B5DFF88C0DDFF8B9
:10115000844D05F09DFD0FF23C02DFF8800D00216B
:1011600003F004FF606000220021012004F037F842
:101170002060FFF733FFFFF771FF014640F2453370
:101180000FF2340200F036F8BDE810400FF24000D4
:1011900003F0BEBB10FC00080000000000000000CF
:1011A000000000000000000000050000000000003A
:1011B0000000000000000000414E43535F436C6993
:1011C000656E745F4170705F496E69740000000065
:1011D0002D2D20414E435320434C49454E54204928
:1011E0004E495449414C495A4544200A0D000000DB
:1011F0000FF20802344803F08BBB0000414E43530A
:101200005F4E6F74696669636174696F6E5F43688E
:1012100065636B00DFF8BC0C006804F04CB8DFF8C5
:10122000B40C00684FF0FF3104F020B82DE9F0470E
:101230000746DFF898A0244C0FF294080FF2A80597
:1012400001F09EF8014640F25F3300F0EDF8BA7805
:1012500039880FF2041003F05BFB002640F2653979
:1012600010E001F08DF801464B4600F0DDF807EB89
:101270008600B0F80530B0F80320314603F05FF97E
:10128000761CF6B2B8788642EBDB0E480178082966
:1012900016D100F62E05B7F803002880B7F8050030
:1012A000688001F06DF8014640F26E3300F0BCF842
:1012B0006A8829880FF20010BDE8F04703F028BBC8
:1012C000BDE8F087BC75002044450008584500087B
:1012D00047617474506172736553657276696365B2
:1012E00073427955554944004143495F4154545F25
:1012F00046494E445F42595F545950455F56414CF0
:1013000055455F524553505F56534556545F434FC2
:101310004445202D204E756D506169723D25642035
:10132000466F756E645F4174747269627574655F4F
:1013300048616E646C653D3078253034582C4772B6
:101340006F75705F456E645F48616E646C653D30BB
:1013500078253034580A0D004143495F4154545FA9
:1013600046494E445F42595F545950455F56414C7F
:1013700055455F524553505F56534556545F434F52
:101380004445202D20436F6E6E656374696F6E5FF8
:1013900048616E646C653D3078253034582C4E754C
:1013A0006D5F6F665F48616E646C655F5061697206
:1013B0003D25640A0D0000004143495F4154545FDC
:1013C00046494E445F42595F545950455F56414C1F
:1013D00055455F524553505F56534556545F434FF2
:1013E0004445202D20466F756E6420414E43535373
:1013F000657276696365537461727448616E646C7A
:10140000653D3078253034582C414E435353657236
:1014100076696365456E6448616E646C653D3078DD
:10142000253034580A0D00004246204603F070BAB9
:101430002DE9F04F0546DFF8A88A87B001F0EDFFEF
:10144000DFF8A09A0FF2143A014640F27F3300F021
:10145000B5FBEB78AA7829880FF2143003F058FA1C
:1014600000F07CFF40F06781A878E978142802F644
:10147000120204BF04270C24039291FBF0F106280A
:101480000495C9B204BF04270024069400200591E6
:1014900020E003F0C3FC01464FF4797300F08EFBAB
:1014A0000FF240302B46324659460FE045F22B00F2
:1014B00083454046EDD103F0B1FC40F2E2330146F2
:1014C00000F07CFB2B4632465946204603F020FABA
:1014D00000F04AFF8DF808009DF808400598844206
:1014E00080F2378104983844857806784178C0784E
:1014F00045EA002546EA012606980499C0190844E1
:101500000179407941EA002B01F087FF01464FF451
:10151000697300F053FB019500965B46059A0FF244
:10152000EC20214603F0F4F90398008808B18642C4
:1015300001DA039806800398408808B1A84201DACE
:1015400003984580BBF5C05F12D103988680404662
:101550000399CD8003F062FC014640F2B63300F0FF
:101560002DFB0FF2EC202B4632464FF4C051ADE775
:1015700041F6010083450ED1039806824046039947
:101580004D8203F04BFC01464FF46F7300F016FBE5
:101590000FF2E82086E741F6020083450FF2183487
:1015A00004D101F03AFF40F2BF3388E741F603006F
:1015B000834509D101F031FF014640F2C13300F00B
:1015C000FDFA0FF220306DE741F60400834509D1A2
:1015D00001F023FF014640F2C33300F0EFFA0FF2AF
:1015E00038305FE741F60500834509D101F015FF6A
:1015F000014640F2C53300F0E1FA0FF2503051E7F6
:1016000041F60600834509D101F007FF014640F28B
:10161000C73300F0D3FA0FF26C3043E741F607000E
:10162000834509D101F0F9FE014640F2C93300F0CB
:10163000C5FA0FF2903035E741F60800834509D12D
:1016400001F0EBFE014640F2CB3300F0B7FA0FF2A7
:10165000AC3027E741F60900834509D101F0DDFEF2
:10166000014640F2CD3300F0A9FA0FF2C03019E77D
:1016700041F60A00834509D101F0CFFE014640F250
:10168000CF3300F09BFA0FF2E0300BE741F60B008E
:10169000834509D101F0C1FE014640F2D13300F08B
:1016A0008DFA0FF20040FDE641F60C00834509D1AA
:1016B00001F0B3FE014640F2D33300F07FFA0FF29F
:1016C000E430EFE641F60D00834504D101F0A5FEBC
:1016D00040F2D533F3E641F60E00834509D101F01F
:1016E0009CFE014640F2D73300F068FA0FF2DC307E
:1016F000D8E641F60F00834509D101F08EFE014680
:1017000040F2D93300F05AFA0FF2F430CAE64FF241
:10171000314083457FF4CAAE0398868340460399DF
:10172000CD8303F07BFB01464FF4787300F046FA5B
:101730000FF2FC30B6E601F070FE01464FF47B7309
:1017400000F03CFA07B0BDE8F04F0FF2144003F090
:10175000DFB800F0DCBF0000BC7500204761747486
:10176000506172736553657276696365730000003A
:101770004143495F4154545F524541445F42595F80
:1017800047524F55505F545950455F524553505F33
:1017900056534556545F434F4445202D20436F6EAA
:1017A0006E656374696F6E5F48616E646C653D3031
:1017B00078253034582C4174747269627574655F91
:1017C000446174615F4C656E6774683D25642C44A8
:1017D0006174615F4C656E6774683D256420210A01
:1017E00000000000696E76616C69642055554944BB
:1017F0003D30782530345820666F756E64205B2547
:1018000030345820253034585D210A006E756D53F0
:101810006572763D25642F25642C73686F72742081
:10182000555549443D3078253034582053657276FB
:1018300069636548616E646C65205B30782530347F
:1018400058202D203078253034585D200A0D0000B6
:101850004741505F534552564943455F55554944AA
:101860003D30782530345820666F756E64205B25D6
:1018700030345820253034585D210A0047454E4504
:101880005249435F4154545249425554455F534570
:1018900052564943455F555549443D3078253034CB
:1018A0005820666F756E64205B25303458202530D3
:1018B00034585D210A000000414D535F5345525694
:1018C0004943455F555549443D30782530345820CB
:1018D000666F756E64205B2530345820253034588F
:1018E0005D210A004C494E4B5F4C4F53535F5345AB
:1018F00052564943455F555549443D30782530346B
:101900005820666F756E64205B2530345820253072
:1019100034585D210A00000054585F504F5745521B
:101920005F534552564943455F555549443D3078CC
:101930002530345820666F756E64205B253034582E
:1019400020253034585D210A0000000043555252D2
:10195000454E545F54494D455F53455256494345A2
:101960005F555549443D30782530345820666F75B1
:101970006E64205B2530345820253034585D210AB0
:10198000000000005245464552454E43455F5550C4
:10199000444154455F54494D455F53455256494370
:1019A000455F555549443D30782530345820666FA1
:1019B000756E64205B2530345820253034585D2105
:1019C0000A0000004E4558545F4453545F43484159
:1019D0004E47455F534552564943455F5555494427
:1019E0003D30782530345820666F756E64205B2555
:1019F00030345820253034585D210A00474C554377
:101A00004F53455F534552564943455F55554944E9
:101A10003D30782530345820666F756E64205B2524
:101A200030345820253034585D210A004845414C57
:101A300054485F544845524D4F4D455445525F53AD
:101A40004552564943455F555549443D3078253008
:101A5000345820666F756E64205B2530345820251D
:101A60003034585D210A00004445564943455F49DA
:101A70004E464F524D4154494F4E5F534552564981
:101A800043455F555549443D3078253034582066EC
:101A90006F756E64205B2530345820253034585DD6
:101AA000210A0000556E6B6E6F776E2055554944C4
:101AB0003D30782530345820666F756E64205B2584
:101AC00030345820253034585D210A0050484F4E9C
:101AD000455F414C4552545F534552564943455F1B
:101AE000555549443D30782530345820666F756E21
:101AF00064205B2530345820253034585D210A009D
:101B0000424154544552595F534552564943455FEB
:101B1000555549443D30782530345820666F756EF0
:101B200064205B2530345820253034585D210A006C
:101B3000414E43535F534552564943455F555549BE
:101B4000443D30782530345820666F756E64205BD4
:101B50002530345820253034585D210A000000001B
:101B60004143495F4154545F524541445F42595F8C
:101B700047524F55505F545950455F524553505F3F
:101B800056534556545F434F44452C206661696C5B
:101B90006564206E6F206672656520696E64657885
:101BA00020696E20636F6E6E656374696F6E20745A
:101BB00061626C6520210A0D000000005246484613
:101BC00002F0A6BE2DE9F84F0546DFF814A388B051
:101BD00000F0D6FBDFF80C830FF20C39014640F21F
:101BE000FD3300F0C9FBEB78AA7829880FF20830A2
:101BF00002F08EFE00F0B2FB40F05B81EB78A8783B
:101C0000152804BF05270C24072804BF0527002436
:101C1000194691FBF0F1581EE870C9B202F61A029B
:101C20000020039204950794069124E000F0A8FB9D
:101C3000014640F2644300F09FFB0FF228302B4630
:101C40002246314613E042F6A62B5E45EED10398BC
:101C500004800398458000F093FB014640F2624304
:101C600000F08AFB0FF22C302B462246594602F038
:101C70004FFE00F079FB8DF808009DF808B006983B
:101C8000834580F224810498C01910F8014C017832
:101C900044EA0124417805918578C078049945EAA1
:101CA00000250798C01908440679407956EA0026AD
:101CB0001CBF05980028DCD0002C18BF002DD8D000
:101CC00000F05EFB014640F2294300F055FB059B06
:101CD0000FF2FC20019500943246594602F018FE9E
:101CE000B6F5285F0DD100F04BFB014640F22D43C5
:101CF00000F042FB0FF244302B4622464FF42851AD
:101D0000B5E742F6012086420FF2603B0CD100F0AD
:101D100037FB014640F22F4300F02EFB2B462246B4
:101D200042F601215846A2E742F6022086420DD132
:101D300000F026FB014640F2314300F01DFB0FF29C
:101D40005C302B46224642F6022190E742F6032001
:101D500086420BD100F014FB014640F2334300F001
:101D60000BFB2B46224642F60321DBE742F604201A
:101D700086420BD100F004FB014640F2354300F0EF
:101D8000FBFA2B46224642F60421CBE742F6052019
:101D900086420ED10398848150460399CD8103F089
:101DA0003DF8014640F23B4300F0E6FA0FF22830DE
:101DB00045E742F61920864209D100F0E1FA0146D2
:101DC00040F23E4300F0D8FA0FF2503037E742F6C7
:101DD0002B20864209D100F0D3FA014640F241435C
:101DE00000F0CAFA0FF2683029E742F60F20864267
:101DF00009D100F0C5FA014640F2434300F0BCFAB5
:101E00000FF280301BE742F62920864209D100F00C
:101E1000B7FA014640F2464300F0AEFA0FF2A030A6
:101E20000DE742F62420864209D100F0A9FA0146C6
:101E30004FF4896300F0A0FA0FF2D030FFE641F2D0
:101E40000D2086420ED10398048350460399CD831A
:101E500002F0E4FF014640F24F4300F08DFA0FF22A
:101E6000F430ECE64DF6F30086420ED1039844833D
:101E7000504603990D8402F0D1FF014640F25543CC
:101E800000F07AFA0FF20C40D9E64CF2E960864293
:101E90007FF4D9AE03988483504603994D8402F0B1
:101EA000BDFF014640F25B4300F066FA0FF21C40B2
:101EB000C5E600F065FA014640F26C4300F05CFABA
:101EC00009B0BDE8F04F0FF23C4002F021BD09B06F
:101ED000BDE8F08FD4900020D12E000863100008D8
:101EE0005845000844450008476174745061727396
:101EF00065436861727300004143495F4154545F18
:101F0000524541445F42595F545950455F524553D1
:101F1000505F56534556545F434F4445202D204350
:101F20006F6E6E656374696F6E5F48616E646C6539
:101F30003D307825782C48616E646C655F56616C25
:101F400075655F506169725F4C656E6774683D25A9
:101F5000642C446174615F4C656E6774683D2564F0
:101F60000A0D0000556E6B6E6F776E5F636861726D
:101F700020555549443D30782530345820666F75DA
:101F80006E64205B2530345820253034585D210A9A
:101F90000000000043454E5452414C5F41444452BE
:101FA0004553535F5245534F4C5554494F4E5F551F
:101FB0005549443D30782530345820666F756E643D
:101FC000205B2530345820253034585D210A00002C
:101FD0002D2D2047415454203A206E756D48646C75
:101FE0006556616C7565506169723D25642C736836
:101FF0006F727420555549443D307825303458204F
:10200000464F554E44204368617250726F7065723E
:10201000746965733D3078253034582043686172A7
:1020200048616E646C65205B307825303458202D13
:10203000203078253034585D0A0000004741502098
:102040004445564943455F4E414D455F55554944CA
:102050003D30782530345820666F756E64205B25DE
:1020600030345820253034585D210A004741502033
:10207000415050454152414E43455F555549443DBD
:1020800030782530345820666F756E64205B2530BB
:10209000345820253034585D210A00004741502033
:1020A0005045524950484552414C5F505249564163
:1020B00043595F464C41475F555549443D3078256B
:1020C00030345820666F756E64205B25303458209C
:1020D000253034585D210A0047415454205345525D
:1020E000564943455F4348414E4745445F43484155
:1020F00052414354455249535449435F555549440D
:102100003D30782530345820666F756E64205B252D
:1021100030345820253034585D210A00424154544F
:102120004552595F4C4556454C5F434841525F55B7
:102130005549443D30782530345820666F756E64BB
:10214000205B2530345820253034585D210A0000AA
:1021500043555252454E545F54494D455F434841A3
:10216000525F555549443D30782530345820666FCC
:10217000756E64205B2530345820253034585D213D
:102180000A0000004C4F43414C5F54494D455F49A4
:102190004E464F524D4154494F4E5F434841525F66
:1021A000555549443D30782530345820666F756E5A
:1021B00064205B2530345820253034585D210A00D6
:1021C000446576696365496E666F726D6174696FA7
:1021D0006E53657276696365204D414E55464143A5
:1021E00054555245525F4E414D455F555549443D0A
:1021F00030782530345820666F756E64205B25304A
:10220000345820253034585D210A00004465766931
:102210006365496E666F726D6174696F6E53657246
:1022200076696365204D4F44454C5F4E554D4245A0
:10223000525F555549443D30782530345820666FFB
:10224000756E64205B2530345820253034585D216C
:102250000A000000414E43535F4E4F5449464943E4
:102260004154494F4E5F534F555243455F43484198
:10227000525F555549443D30782530345820666FBB
:10228000756E64205B2530345820253034585D212C
:102290000A000000414E43535F434F4E54524F4C8F
:1022A0005F504F494E545F434841525F5555494432
:1022B0003D30782530345820666F756E64205B257C
:1022C00030345820253034585D210A00414E4353A4
:1022D0005F444154415F534F555243455F4348412A
:1022E000525F555549443D30782530345820666F4B
:1022F000756E64205B2530345820253034585D21BC
:102300000A0000004143495F4154545F5245414433
:102310005F42595F545950455F524553505F565381
:102320004556545F434F44452C206661696C656493
:102330002068616E646C65206E6F7420666F756EC8
:102340006420696E20636F6E6E656374696F6E20C2
:102350007461626C6520210A0D000000DFF8542DC5
:102360002988508888427047049881789DF8080031
:10237000CF19FFB2401C70474A46404602F0C8BA27
:10238000504602F04BBD2DE9F04F0646DFF8288D90
:1023900087B001F042F8DFF824AD0FF2783B014638
:1023A00040F27A4300F01CFCF378B27831880FF2E7
:1023B000743002F0ADFADFF8FC2C31885088884286
:1023C00040F09781B078012803D102244FF0000932
:1023D0000425022803D102244FF00C09122502F62D
:1023E0002802F078DFF8D87C0292E9B2039690FBDD
:1023F000F1F1CDF81890C9B205950020049123E0C1
:1024000002F00CFD01464FF49E6300F0E9FB0FF271
:1024100070302A4631460FE042F6A6294E45404626
:10242000EED102F0FBFC014640F2EE4300F0D8FB97
:102430000FF288302A46494602F06AFA05980419D4
:102440009DF80400E4B2401C8DF804009DF80410CF
:102450000498814280F25B810398811C00190D5D14
:10246000C078039945EA0025069800190A1D165CF4
:102470000844407946EA0026B6F5205F0CD100F00A
:10248000CCFF014640F29D4300F0AAFB0FF27030F2
:102490002A464FF42051CFE742F603094E450ED1AC
:1024A00000203880B880F8807D8000F0B6FF0146BB
:1024B00040F2AA4300F094FB0FF27030BAE7B6F591
:1024C000245F1CBF42F60210864240D1FD80029973
:1024D000B8880A880FF2903990420FD14D8000F0F1
:1024E0009CFF40F2B543014600F07AFB0095BB88A3
:1024F0007A883146484602F00BFA9FE70A8A9042F2
:1025000005D1CD8200F089FF40F2B943EBE78A8A1A
:10251000904205D14D8300F080FF40F2BD43E2E7D9
:102520004A8A904205D10D8300F077FF40F2C14303
:10253000D9E700F072FF014640F2C34300F050FBC0
:102540000095BB887A880FF24C303146D3E73E8045
:10255000B6F5285FBD800CD100F05FFF014640F268
:10256000CD4300F03DFB0FF26C302A464FF428516A
:1025700062E742F6012086420FF284390BD100F067
:102580004CFF014640F2CF4300F02AFB2A4642F6B8
:102590000121484650E742F6022086420CD100F065
:1025A0003CFF014640F2D14300F01AFB0FF27C30B1
:1025B0002A4642F602213FE742F6032086420AD12C
:1025C00000F02BFF014640F2D34300F009FB2A46FE
:1025D00042F60321DDE742F6042086420AD100F0EC
:1025E0001CFF014640F2D54300F0FAFA2A4642F6B3
:1025F0000421CEE742F60520864209D100F00DFF06
:1026000001464FF49B6300F0EBFA0FF2583000E7FD
:1026100042F61920864209D100F0FFFE014640F241
:10262000DB4300F0DDFA0FF28030F2E642F62B20B9
:10263000864209D100F0F1FE014640F2DE4300F08F
:10264000CFFA0FF29430E4E642F60F20864209D129
:1026500000F0E3FE01464FF49C6300F0C1FA0FF274
:10266000A830D6E642F62920864209D100F0D5FEF0
:10267000014640F2E34300F0B3FA0FF2C430C8E67B
:1026800042F62420864209D100F0C7FE014640F2FE
:10269000E54300F0A5FA0FF2F030BAE641F20D2062
:1026A000864209D100F0B9FE01464FF49D6300F067
:1026B00097FA0FF21840ACE64DF6F300864209D1C6
:1026C00000F0ABFE014640F2EA4300F089FA0FF257
:1026D00040409EE64CF2E96086427FF49DAE00F0F9
:1026E0009CFE014640F2EC4300F07AFA0FF26040A3
:1026F0008FE600F092FE01464FF49F6300F070FAFF
:1027000007B0BDE8F04F0FF2844002F001B907B006
:10271000BDE8F08F476174745061727365446573EE
:10272000637300004143495F4154545F46494E443E
:102730005F494E464F5F524553505F56534556547E
:102740005F434F4445202D20436F6E6E656374696F
:102750006F6E5F48616E646C653D307825782C46FD
:102760006F726D61743D25642C4576656E745F44AF
:102770006174615F4C656E6774683D25640A0D0085
:1027800020696E76616C696420636861722076618D
:102790006C756520555549443D30782530345820B6
:1027A0004368617256616C756548616E646C652042
:1027B0005B253034585D210A00000000202043458D
:1027C0004E5452414C5F414444524553535F52452D
:1027D000534F4C5554494F4E5F555549443D307801
:1027E00025303458204368617256616C75654861C4
:1027F0006E646C65205B253034585D210A00000052
:102800005052494D4152595F534552564943455FD5
:10281000555549443D3078253034582068616E6400
:102820006C653D3078253034580A0D00726573654B
:1028300074204348415241435445524953544943FB
:102840005F555549443D3078253034582043686100
:1028500072537461727448616E646C653D307825A2
:102860003034580A0D000000757569643D307825D4
:102870003034582068616E646C653D3078253034A2
:10288000582D3078253034582D3078253034580A7A
:102890000D0A0D0020756E6B6F776E5F6368617255
:1028A0005F6465736320555549443D307825303465
:1028B000582068616E646C653D3078253034582D41
:1028C0003078253034582D307825303458200A0D92
:1028D00000000000474150204445564943455F4EA3
:1028E000414D455F555549443D3078253034582099
:1028F000666F756E64205B253034585D210A0000D8
:1029000047415020415050454152414E43455F554B
:102910005549443D30782530345820666F756E64D3
:10292000205B253034585D210A00000047415020CB
:102930005045524950484552414C5F5052495641CA
:1029400043595F464C41475F555549443D307825D2
:1029500030345820666F756E64205B253034585DC6
:10296000210A000020534552564943455F434841E0
:102970004E4745445F4348415241435445524953B1
:102980005449435F555549443D30782530345820EB
:102990004368617256616C756548616E646C652050
:1029A0005B253034585D0A00424154544552595F0A
:1029B0004C4556454C5F434841525F555549443D4F
:1029C00030782530345820666F756E64205B253072
:1029D00034585D210A00000043555252454E545F61
:1029E00054494D455F434841525F555549443D3038
:1029F000782530345820666F756E64205B2530343E
:102A0000585D210A000000004C4F43414C5F54497F
:102A10004D455F494E464F524D4154494F4E5F43DD
:102A20004841525F555549443D307825303458204F
:102A3000666F756E64205B253034585D210A000096
:102A4000446576696365496E666F726D6174696F1E
:102A50006E53657276696365204D414E554641431C
:102A600054555245525F4E414D455F555549443D81
:102A700030782530345820666F756E64205B2530C1
:102A800034585D210A000000446576696365496E2B
:102A9000666F726D6174696F6E5365727669636596
:102AA000204D4F44454C5F4E554D4245525F555564
:102AB00049443D30782530345820666F756E642067
:102AC0005B253034585D210A0000000020414E4350
:102AD000535F4E4F54494649434154494F4E5F530B
:102AE0004F555243455F434841525F555549443D18
:102AF000307825303458204368617256616C7565B2
:102B000048616E646C65205B253034585D210A0095
:102B10002020414E43535F434F4E54524F4C5F5021
:102B20004F494E545F434841525F555549443D30EB
:102B30007825303458204368617256616C75654859
:102B4000616E646C65205B253034585D210A00009D
:102B500020414E43535F444154415F534F555243CC
:102B6000455F434841525F555549443D30782530D3
:102B70003458204368617256616C756548616E64B3
:102B80006C65205B253034585D210A004143495F64
:102B90004154545F46494E445F494E464F5F52454B
:102BA00053505F56534556545F434F44452C20665F
:102BB00061696C65642068616E646C65206E6F7419
:102BC00020666F756E6420696E20636F6E6E65633C
:102BD00074696F6E207461626C6520210A0D0000BB
:102BE0005A46504601F094BE2DE9FC470446DFF8F2
:102BF000C8A4DFF8C8840FF20019FFF7C1FB014633
:102C00004FF4A063FFF7B8FB2379628821880FF2A5
:102C1000001001F07DFEDFF89C042288418891427B
:102C20005AD100F638056088298888421DD1FFF7FF
:102C3000A7FB014640F20753FFF79EFB0FF240103F
:102C400001F066FE6779A679D4F809000090237A2E
:102C5000E27931463846FEF77AF837B9F00704D4FE
:102C60003046FEF731F9FEF769FA6088A988884294
:102C70003FD1657995B9FFF783FB014640F22953AF
:102C8000FFF77AFB0FF2341001F042FE2079411F6A
:102C900004F10A0289B20020FDF7CCFC012D17D106
:102CA000FFF76EFB014640F23553FFF765FB0FF26D
:102CB000741001F02DFEA01D04F012F8E11D82B287
:102CC0000A442179081A811E89B20120FDF7E0FE2D
:102CD000BDE8F347FEF732BAFFF752FB014640F278
:102CE0004453FFF749FBBDE8F6470FF2901001F09F
:102CF0000FBEBDE8F38700004761747450617273C2
:102D0000654E6F74696669636174696F6E00000077
:102D10004143495F474154545F4E4F5449464943EC
:102D20004154494F4E5F56534556545F434F4445B7
:102D3000202D20436F6E6E656374696F6E5F48610E
:102D40006E646C653D307825782C417474726962CC
:102D50007574655F48616E646C653D30782530340C
:102D6000582C4174747269627574655F56616C7534
:102D7000655F4C656E6774683D25640A0D00000050
:102D8000312E20496E636F6D696E67204E6F6669E4
:102D90006669636174696F6E2072656365697665E3
:102DA0006420424153494320696E666F726D6174BD
:102DB000696F6E203A200A0D00000000332E31208A
:102DC00050617273652044657461696C20496E6658
:102DD0006F726D6174696F6E206F66204E6F7469DB
:102DE0006669636174696F6E20417474726962759B
:102DF00074652C20436F6D6D616E64494447657442
:102E00004E6F74696669636174696F6E4174747240
:102E100069627574657320526573706F6E73653A7D
:102E2000200A0D00332E33205061727365204465F3
:102E30007461696C20496E666F726D6174696F6E42
:102E4000206F66204150502041747472696275741D
:102E5000652C20436F6D6D616E6449444765744114
:102E60007070417474726962757465732052657311
:102E7000706F6E73653A200A0D0000004143495F90
:102E8000474154545F4E4F54494649434154494F7A
:102E90004E5F56534556545F434F44452C20666160
:102EA000696C65642068616E646C65206E6F742067
:102EB000666F756E6420696E20636F6E6E656374F5
:102EC000696F6E207461626C6520210A0D0000003C
:102ED0002DE9FC41054601246878FF2840F0E68092
:102EE000B5F80300754E0FF2DC17DFF8CC8140F621
:102EF0000141401A63D0801E74D0401E30D0401E65
:102F000049D0401E1CD0001F0AD0401F53D0401E85
:102F100000F08380401E00F0A880401E30D0B7E053
:102F200000F07BFA014640F261533A4601F044F961
:102F30000FF2AC1001F0ECFC681DFEF779FAB6E078
:102F400000F06BFA01464FF4AD633A4601F034F9F4
:102F50000FF2BC1001F0DCFC681DFEF733FEA6E0AA
:102F600000F05BFA014640F26F533A4601F024F953
:102F70000FF2C41001F0CCFC681DFFF704FA96E0D4
:102F800000F04BFA014640F276533A4601F014F94C
:102F90000FF2C81066E000F040FA014640F27D539F
:102FA0003A4601F009F90FF2E81001F0B1FC681D92
:102FB000FEF73CF97BE0681DFFF716FE77E000F0B6
:102FC0002CFA014640F28F533A4601F0F5F8B5F875
:102FD0000B30B5F80920B5F807100FF2E41001F036
:102FE00097FC64E000F019FA014640F299533A4622
:102FF00001F0E2F8B5F80720B5F805100FF224202B
:1030000001F086FC06208DF8040001A8B5F8051033
:10301000ADF8061001F0F8F949E0E87970B100F078
:10302000FCF9014640F2A6533A4601F0C5F8EA79A8
:10303000B5F805100FF2602001F06AFC1D484188C8
:10304000B5F80500814203D10020FEF7E3F82EE039
:1030500000F0E3F9014640F2AE533A4601F0ACF815
:103060000FF2942001F054FC21E000F0D6F9014663
:1030700040F2B5533A4601F09FF8A87A00902B89A8
:10308000EA79B5F805100FF2C42001F041FC0EE01A
:1030900000F0C3F9014640F2BA533A4601F08CF809
:1030A000B5F803100FF2583001F032FC002420462E
:1030B000BDE8F681BC75002058450008444500086D
:1030C000CC900020414E43535F436C69656E745F42
:1030D0004576656E745F48616E646C6572000000D1
:1030E000204143495F4154545F524541445F425936
:1030F0005F47524F55505F545950455F52455350AA
:103100005F56534556545F434F44450A0000000044
:10311000204143495F4154545F524541445F425905
:103120005F545950455F524553505F56534556546E
:103130005F434F44450A0000204143495F415454D6
:103140005F46494E445F494E464F5F524553505F7C
:1031500056534556545F434F44450A002041434966
:103160005F474154545F444953435F524541445F74
:10317000434841525F42595F555549445F52455358
:10318000505F56534556545F434F44450A00000074
:10319000204143495F4154545F46494E445F425980
:1031A0005F545950455F56414C55455F5245535009
:1031B0005F56534556545F434F44450A0000000094
:1031C0004143495F474154545F4154545249425529
:1031D00054455F4D4F4449464945445F5653455613
:1031E000545F434F444520417474725F48616E647C
:1031F0006C653D307825303458204F6666736574B1
:103200003D30782530345820417474725F446174C5
:10321000615F4C656E6774683D30782530345820A6
:103220000A0D00004143495F4154545F45584348EB
:10323000414E47455F4D54555F524553505F56537D
:103240004556545F434F444520436F6E6E6563742B
:10325000696F6E5F48616E646C653D30782530340F
:1032600058205365727665725F52585F4D545520F1
:103270003D202564203D3D3E20414E43535F4D544B
:10328000555F45584348414E47455F434F4D504C6D
:10329000455445200A0000004143495F47415454CA
:1032A0005F50524F435F434F4D504C4554455F561E
:1032B000534556545F434F4445202D20436F6E6E57
:1032C000656374696F6E5F48616E646C653D3078EC
:1032D000253034782C4572726F725F436F64653DA0
:1032E0003078253032582028307834313A20466101
:1032F000696C6564290A0D004143495F4741545494
:103300005F50524F435F434F4D504C4554455F56BD
:10331000534556545F434F44452C206661696C65A4
:10332000642068616E646C65206E6F7420666F75D2
:103330006E6420696E20636F6E6E656374696F6E74
:10334000207461626C6520210A0D00004143495FD1
:10335000474154545F4552524F525F524553505F5C
:1033600056534556545F434F444520436F6E6E6538
:103370006374696F6E5F48616E646C653D3078257B
:10338000303458205265715F4F70636F64653D3013
:103390007825303258204174747269627574655FA3
:1033A00048616E646C653D30782530345820457234
:1033B000726F725F436F64653D30782530325820FC
:1033C00028307830353A20496E73756666696369CE
:1033D000656E742061757468656E74696361746983
:1033E0006F6E2C307830413A204174747269627586
:1033F0007465206E6F7420666F756E64290A000014
:10340000696E76616C69642065636F6465203078ED
:10341000253034580A0000003870404601F0FEBCE8
:1034200080B5FDF71BFE014640F2CF53DFF834258F
:10343000FDF7E0FEDFF8300501F06AFA11208DF8A3
:103440000000DFF828154888ADF80200684600F053
:10345000DBFF01BD2DE9FF47DFF81075DFF81065D0
:10346000DFF81095DFF81085052807F6120547F2FA
:10347000305A10D8DFE810F006003E00B000FE0021
:103480007C01E101042038704FF404627888FA214D
:1034900003F05DFC002840F06282FFF7BEFF0146AA
:1034A00040F24F6300F087FE4FF40462FA21DFF828
:1034B000CC0401F02DFA05203870788801F072FBF9
:1034C00000F07DFE002C404609D101F0A7FC01462A
:1034D00040F2556300F06FFEDFF8A40430E201F023
:1034E0009DFC014640F2596300F065FE2146DFF87D
:1034F000940432E2082038700021D0208DF80000BA
:103500008DF801102D208DF8020012218DF8031086
:103510001E208DF804004B218DF805100F208DF82A
:103520000600A4218DF8071099208DF808004E217F
:103530008DF80910CE208DF80A00B5218DF80B10FA
:1035400031208DF80C00F4218DF80D1005208DF838
:103550000E0079218DF80F106A467888022101F05B
:1035600064FB040040460BD101F058FC01464FF4C7
:10357000CD6300F020FEDFF8700E01F0C9F90BE01A
:1035800001F04CFC014640F26C6300F014FE214651
:10359000DFF8580E01F0BCF95046FDF740FEE88B0D
:1035A000A98B59B900283DD1FFF737FF014640F2FA
:1035B000726300F000FEDFF8380EC1E100283ED053
:1035C000FFF72BFF014640F2766300F0F4FDEA8B33
:1035D000A98BDFF8200EC8E007203870788801F04A
:1035E0000AFB00F0ECFD002C40460BD101F016FC6C
:1035F000014640F2836300F0DEFD0FF28C3001F0F3
:1036000087F90BE001F00AFC014640F2876300F005
:10361000D2FD21460FF2BC3001F07AF9E88BA98B7C
:1036200061B9002840F09B81FFF7F7FE014640F2A8
:103630008C6300F0C0FD0FF2FC3081E1002800F047
:103640008E81FFF7EAFE01464FF4D26300F0B3FD2E
:10365000EA8BA98B0FF2244001F05AF9FFF7DDFE47
:10366000014640F2916300F0A6FD6A8A298A0FF2B2
:1036700060407AE00920FFF7CFFE014640F29C63EC
:1036800000F099FDA88B019000906B882A887988BA
:103690000FF2904001F03CF96A882988788801F09F
:1036A000E7FA00F08CFD002C404609D101F0B6FB92
:1036B000014640F2A56300F07EFD0FF2D84008E01D
:1036C00001F0ACFB014640F2A96300F074FD0FF27B
:1036D000F44001F01DF9298C00291CBFE88C00285A
:1036E0000CD0FFF79AFE014640F2AE6300F063FD96
:1036F000EA8C298C0FF2F44001F00AF9A98C002918
:103700001CBF688D00280CD0FFF787FE014640F2F1
:10371000B26300F050FD6A8DA98C0FF2445001F0A5
:10372000F7F8698C00291CBF288D00280CD0FFF702
:1037300074FE014640F2B66300F03DFD2A8D698CAF
:103740000FF2805001F0E4F8A98A00291CBFE88A32
:1037500000280CD0FFF761FE014640F2BA6300F08A
:103760002AFDEA8AA98A0FF2C45001F0D1F8F6E0E6
:103770000A20FFF751FE014640F2C46300F01BFD32
:103780006A8829880FF2086001F0C2F86A882988DF
:10379000788801F07EFA00F012FD002C404609D135
:1037A00001F03CFB014640F2CC6300F004FD0FF257
:1037B0000C6008E001F032FB01464FF4DA6300F0E0
:1037C000FAFC0FF2346001F0A3F8A88D58B1FFF7AE
:1037D00024FE014640F2D56300F0EDFCA98D0FF206
:1037E0004C6001F095F8E88D58B1FFF716FE0146E0
:1037F00040F2D96300F0DFFCE98D0FF2786001F050
:1038000087F8288E58B1FFF708FE014640F2DD63C5
:1038100000F0D1FC298E0FF29C6001F079F8288B22
:103820000028A4D0FFF7F9FD014640F2E16300F063
:10383000C2FC298B0FF2BC608FE00120298BADF810
:10384000000031B30D2038706B467888022201F0F9
:1038500059FA00F0B4FC002C40460CD101F0DEFA1D
:10386000014640F2F56300F0A6FC298B0FF2C4601C
:1038700001F04EF80DE001F0D1FA014640F2FA6392
:1038800000F099FC298B0FF2F46023460C2201F022
:103890003FF8288E002830D00C213970FFF7BDFD8D
:1038A000014640F2037300F086FC2A8E79880FF2FD
:1038B000387001F02DF8298E00F078FC00F07FFCC4
:1038C000002C40460BD101F0A9FA014640F20C73DE
:1038D00000F071FC0FF24C7001F01AF80DE001F0ED
:1038E0009DFA014640F2117300F065FC298E0FF23B
:1038F000747023460C2201F00BF8A88D00282ED0FE
:103900000B213970FFF789FD014640F21A7300F070
:1039100052FCAA8D79880FF2B87000F0F9FFA98DDA
:1039200000F044FC00F04BFC002C40460BD101F0B1
:1039300075FA014640F2237300F03DFC0FF2D4709B
:1039400000F0E6FF0BE001F069FA014640F2277350
:1039500000F031FC21460FF6040000F0D9FFBDE86D
:10396000FF87000020FC00083CFC0008BC7500201C
:103970004445000864FC00085845000870FC000835
:10398000BCFC0008E0FC0008474154545F50524F13
:10399000435F444953435F414C4C5F5052494D4152
:1039A00052595F534552564943455320414C4C2090
:1039B000736572766963657320646973636F766596
:1039C000726564205375636365737366756C6C7997
:1039D000200A0000474154545F50524F435F44490E
:1039E00053435F414C4C5F5052494D4152595F53D4
:1039F00045525649434553206163695F676174745A
:103A00005F646973635F616C6C5F7072696D617232
:103A1000795F736572766963657320636D64204EA8
:103A20004F4B20737461747573203D3078253032AC
:103A300058200A00474154545F50524F435F444955
:103A400053435F414C4C5F5052494D4152595F5373
:103A50004552564943455320414E435320536572C6
:103A600076696365206973204E4F5420666F756ECA
:103A70006420212121200A0D0000000047415454F8
:103A80005F50524F435F444953435F414C4C5F503A
:103A900052494D4152595F5345525649434553206F
:103AA000414E43532053657276696365205B3078DD
:103AB00025303458202D203078253034585D206949
:103AC0007320666F756E6420212121200A0D00008D
:103AD000474154545F50524F435F444953435F4101
:103AE0004C4C5F5052494D4152595F5345525649D3
:103AF00043455320474154542053657276696365AA
:103B0000205B307825303458202D20307825303413
:103B1000585D20697320666F756E64202121212015
:103B20000A0D0000414E43535F444953434F5645ED
:103B3000525F414C4C5F434841525320636F6E6E5D
:103B4000656374696F6E5F68616E646C653D307843
:103B50002530345820414C4C536572766963654872
:103B6000616E646C655B25303458202D202530341F
:103B7000585D20414E4353536572766963654861D1
:103B80006E646C655B25303458202D202530345808
:103B90005D0A0000414C4C2063686172616374658A
:103BA0007269737469637320646973636F76657295
:103BB0006564205375636365737366756C6C7920F7
:103BC0000A0D0000414C4C206368617261637465AA
:103BD0007269737469637320646973636F76657265
:103BE00079204661696C6564200A0D004741545490
:103BF0005F50524F435F444953435F414C4C5F43D6
:103C00004841525320414E43534E6F746966696375
:103C10006174696F6E536F75726365436861725347
:103C20007461727448646C653D3078253034582076
:103C300020414E43534E6F74696669636174696FC6
:103C40006E536F757263654368617256616C75651A
:103C500048646C653D307825303458200A0D0000EA
:103C6000474154545F50524F435F444953435F416F
:103C70004C4C5F434841525320414E43534461747E
:103C800061536F75726365436861725374617274D6
:103C900048646C653D3078253034582020414E43CF
:103CA0005344617461536F75726365436861725602
:103CB000616C756548646C653D30782530345820FA
:103CC0000A0D0000474154545F50524F435F44492E
:103CD00053435F414C4C5F434841525320414E4354
:103CE00053436F6E74726F6C506F696E744368618A
:103CF00072537461727448646C653D307825303459
:103D0000582020414E4353436F6E74726F6C506F56
:103D1000696E744368617256616C756548646C6560
:103D20003D307825303458200A0D00004741545466
:103D30005F50524F435F444953435F414C4C5F4394
:103D40004841525320536572766963654368616EDA
:103D500067656443686172537461727448646C652A
:103D60003D3078253034582020536572766963657C
:103D70004368616E6765644368617256616C75651E
:103D800048646C653D307825303458200A0D0000B9
:103D9000414E43535F444953434F5645525F414C54
:103DA0004C5F434841525F4445534353205B2530A9
:103DB0003458202D20253034585D0A00416C6C2089
:103DC00063686172616374657269737469632064A6
:103DD000657363726970746F727320646973636F63
:103DE0007665726564205375636365737366756C7D
:103DF0006C79200A0D000000416C6C2063686172D0
:103E00006163746572697374696320646573637256
:103E10006970746F727320646973636F7665727909
:103E2000204661696C6564200A0D000047415454C6
:103E30005F50524F435F444953435F414C4C5F4492
:103E40004553435320414E43534E6F746966696333
:103E50006174696F6E536F75726365436861724414
:103E600065736348646C653D307825303458200AAA
:103E70000D000000474154545F50524F435F444986
:103E800053435F414C4C5F444553435320414E43A1
:103E900053436F6E74726F6C506F696E74436861D8
:103EA000724465736348646C653D307825303458DE
:103EB000200A0D00474154545F50524F435F44491C
:103EC00053435F414C4C5F444553435320414E4361
:103ED0005344617461536F757263654368617244E2
:103EE00065736348646C653D307825303458200A2A
:103EF0000D000000474154545F50524F435F444906
:103F000053435F414C4C5F444553435320536572C8
:103F1000766963654368616E67656443686172448E
:103F200065736348646C653D307825303458200AE9
:103F30000D000000536572766963654368616E67C2
:103F40006564436861724465736348646C653D30C1
:103F50007825303458206E6F7469666963617469BE
:103F60006F6E20656E61626C656420537563636576
:103F7000737366756C6C79200A0D00005365727658
:103F80006963654368616E6765644368617244652F
:103F9000736348646C653D307825303458206E6F0B
:103FA00074696669636174696F6E20656E61626CC5
:103FB0006564204661696C656420424C455F5354DA
:103FC000415455535F4E4F545F414C4C4F574544FD
:103FD0003D30782530327820726573756C743D30D1
:103FE00078253032580A0000414E43535F454E4118
:103FF000424C455F4E4F54494649434154494F4E08
:104000005F444154415F534F555243455F444553CC
:1040100043203078253034582030782530345820EB
:104020000A000000414E435344617461536F75723E
:104030006365436861724465736348646C65206EB0
:104040006F74696669636174696F6E20656E616221
:104050006C6564205375636365737366756C6C7906
:10406000200A0D00414E435344617461536F7572D1
:104070006365436861724465736348646C653D3091
:104080007825303458206E6F74696669636174698D
:104090006F6E20656E61626C6564204661696C6557
:1040A0006420424C455F5354415455535F4E4F5426
:1040B0005F414C4C4F5745443D3078253032782095
:1040C000726573756C743D3078253032580A000083
:1040D000414E43535F454E41424C455F4E4F54491C
:1040E0004649434154494F4E5F4E4F544946494318
:1040F0004154494F4E5F534F555243455F444553DA
:1041000043203078253034582030782530345820FA
:104110000A000000414E43534E6F74696669636143
:1041200074696F6E536F757263654368617244653D
:10413000736348646C65206E6F746966696361744B
:10414000696F6E20656E61626C6564205375636390
:1041500065737366756C6C79200A0D00414E43538C
:104160004E6F74696669636174696F6E536F7572BF
:104170006365436861724465736348646C65206E6F
:104180006F74696669636174696F6E20656E6162E0
:104190006C6564204661696C656420726573756C3A
:1041A000743D3078253032580A00000078886B461C
:1041B000022200F0A7BD4A46304600F0A9BB0446E3
:1041C0005046FDF72CB82DE9F84FDB4D0FF274384F
:1041D0000FF2884B0FF28039A0B005F5047405F694
:1041E000080647F2305A0C274FF6FF7120B102281B
:1041F00000F08E8049D3F4E00E2028703088884289
:1042000001D080280BDB00F0FCF8014640F23C7343
:104210005A46FEF7B2F831880FF24C408AE000F0BF
:10422000F0F8014640F242735A46FEF7A6F830888D
:10423000784321580FF26C4000F06AFB3088474306
:104240000121E05901908DF808108DF809108DF8C2
:104250000C108DF810108DF814108DF815108DF8C5
:1042600016108DF817104FF49470ADF80A00ADF8E1
:104270000E00ADF8120001A984B06846142200F0C7
:104280006BFB0FBCFCF726F9ABE00F242C7000F0A1
:10429000B8F8014640F25B735A46FEF76EF805F136
:1042A000860495F885100FF26440224600F030FB3A
:1042B00095F885706846802100F01EFE01208DF87B
:1042C000000000216B4605E014F801C003F800C0AF
:1042D0001046491C421CB942C0B2F5DB00211954FA
:1042E000D2B2718E688800F0F3FC04465046FCF7A9
:1042F00096FF002C75D000F084F8014640F2E313DD
:104300000FF24432FEF739F821460FF2DC2011E0BB
:10431000102028703088884201D080280DDB00F002
:1043200070F8014640F266735A46FEF726F8318867
:104330000FF21C4000F0ECFA53E000F062F8014686
:1043400040F26C735A46FEF718F8318807FB01F00B
:10435000002322580FF2344000F0DAFA31880FF2CD
:10436000E02279436058D2E90034CDE900348DF879
:104370000100020A8DF8022002218DF80010020CC3
:10438000000E8DF804008DF8032000208DF8050044
:104390006B46718E6888062200F09AFC04465046EF
:1043A000FCF73DFF54B100F02CF8014640F2C71372
:1043B0000FF26822FDF7E1FF00F01EF800F021F88F
:1043C000014640F273735A46FDF7D7FF31880FF26A
:1043D000104000F09DFA30884743E819002180F82A
:1043E000081221B0BDE8F08F14FD000860FD000840
:1043F000BCFD00081CFE000821460FF2EC1000F086
:1044000087BA484600F00ABD70B501460FF2341570
:104410000A780FF208460FF24010474C012A0CD0E0
:10442000022A1AD0032A25D0052A34D0062A3FD0E2
:10443000082A51D0112A5DD070BD498861800821B9
:10444000217000F0EBFC014640F2857300F076F835
:104450000FF2E03000F05CFA6AE000F0DFFC0146A9
:1044600040F28D7300F06AF80FF2FC3000F050FA61
:1044700002200BE000F0D2FC014640F2957300F000
:104480005DF80FF2FC3000F043FA03202070BDE825
:104490007040FCF7A3BD00F0C1FC014640F29D73E3
:1044A00000F04CF80FF2F43000F032FA05201FE073
:1044B00000F0B4FC014640F2A57300F03FF80FF2A3
:1044C000F03000F025FA2078052804BF0020FCF722
:1044D000A1FE0620207070BD00F0A0FC014640F255
:1044E000AF7300F02BF80FF2E83000F011FA08205B
:1044F00020701DE01121217000F090FC01464FF466
:10450000F76300F01BF80FF2E83000F001FA002129
:10451000C8B20C225043221802F50272107820B95A
:10452000491CC8B28028F3DB70BD9078FCF7CCFC46
:10453000BDE87040FCF702BEBC750020324628463C
:1045400000F0E6B90D0A205B25735D5B25735D5BAA
:1045500025645D2000000000433A5C776F726B7346
:10456000706163655C46575F57425F414C4C5F49E1
:1045700044455C4669726D776172655C50726F6A22
:10458000656374735C502D4E55434C454F2D574217
:1045900035352E4E75636C656F5C4170706C696368
:1045A0006174696F6E735C424C455C424C455F4878
:1045B00065617274526174654672656552544F53F9
:1045C0005F414E43535C53544D33325F5750414E1D
:1045D0005C4170705C616E63735F636C69656E747F
:1045E0005F6170702E630000206163695F676174B2
:1045F000745F77726974655F636861725F76616C1E
:10460000756520636D64204E4F4B20737461747523
:1046100073203D307825303258200A00414E4353F4
:104620005F436D645F506572666F726D4E6F746943
:104630006669636174696F6E416374696F6E0000CF
:104640000200000000000000414E43535F436D64D0
:104650005F4765744170704174747200416E63739A
:1046600050726F6352657100414E43535F4745542A
:104670005F4E4F54494649434154494F4E5F415460
:104680005452494255544520494E56414C49445F85
:104690004E4F544946595F454E5452592025642087
:1046A0000A0D0000414E43535F4745545F4E4F543F
:1046B000494649434154494F4E5F4154545249423F
:1046C00055544520696E746572616374207769740E
:1046D0006820694F53204E6F74696669636174691D
:1046E0006F6E49442030782530386C782C20726504
:1046F000747269657665206D6F726520696E666F8C
:10470000726D6174696F6E0A0D000000414E435373
:104710005F4745545F4150505F41545452494255A0
:104720005445204170704964656E746966696572AC
:104730004C656E6774683D256420417070496465FE
:104740006E7469666965723A2573200A0D0000006F
:10475000414E43535F504552464F524D5F4E4F546A
:10476000494649434154494F4E5F414354494F4E96
:1047700020494E56414C49445F4E4F544946595F7B
:10478000454E545259202564200A0D00414E435392
:104790005F504552464F524D5F4E4F544946494334
:1047A0004154494F4E5F414354494F4E206E6F7400
:1047B000696679456E7472793D2564204E6F74691F
:1047C0006669636174696F6E4944203078253038BA
:1047D0006C782061637449443D2564200A0D000013
:1047E000414E43535F504552464F524D5F4E4F54DA
:1047F000494649434154494F4E5F414354494F4E06
:10480000206E6F74696679456E7472793D256420F7
:1048100052656D6F7665640A0D000000414E43538A
:104820005F4170705F4E6F74696669636174696F30
:104830006E000000414E43535F434F4E4E4543547C
:104840004544203D3D3E20414E43535F4449534340
:104850004F5645525F414E43535F5345525649436D
:1048600045200A0D00000000414E43535F44495368
:10487000434F4E4E454354494E47200A0D00000019
:10488000414E43535F444953434F4E4E5F434F4D58
:10489000504C455445200A0D00000000414E435342
:1048A0005F4D54555F555044415445200A0D00005A
:1048B000414E43535F4D54555F45584348414E4721
:1048C000455F434F4D504C455445200A0D000000B4
:1048D000414E43535F444953434F5645525F414E07
:1048E00043535F53455256494345200A0D0000008B
:1048F000203D3D3E20414E43535F434845434B5F7F
:104900004E4F54494649434154494F4E200A0D00E9
:104910000EB4C0B5024603A800210190009101AB7E
:104920000121044878440C3002F0AEFA06BC5DF870
:1049300010FB00BF45BF000062B38B0708D0521EBA
:1049400011F8013B00F8013B00F024808B07F6D101
:10495000830740F0208000BF103A07D330B4B1E89D
:104960003810103AA0E83810F9D230BC530724BFF1
:10497000B1E80810A0E8081044BF51F8043B40F823
:10498000043BD20724BF31F8022B20F8022B44BF8E
:104990000B7803707047121F17D35B0009D151F8D1
:1049A000043B20F8023B1B0C121F20F8023BF6D2FE
:1049B0000BE051F8043B00F8013B1B0A20F8023BD6
:1049C0001B0C121F00F8013BF3D238BF121D521E00
:1049D00024BF11F8013B00F8013BF8D8704700B53F
:1049E00087B000208DF8000000F087F940F2011038
:1049F000ADF806003F220120069000F0F6F90028ED
:104A00004CBFFF209DF8000007B000BD2DE9F84124
:104A100007460128C7B0884615461E4608BF022033
:104A200003D002280CBF102000200DF11D010C182E
:104A300000F036F8012F8DF81C7002D0022F18D02C
:104A400019E002273A4641460DF11D0000F0D5F964
:104A50002570667000F051F93F204FF4817100F02D
:104A600016F8FF1C049700F0C2F9002805D5FF20B6
:104A700009E01027E6E7972005E09DF8000010B94F
:104A80004E9800F067F8FFE748B0BDE8F081ADF858
:104A90000400ADF8061007A80321039006917047A3
:104AA00003220021684600F0AEB92DE9F64F0C460E
:104AB0000546012CC7B09B4608BF022003D0022C3C
:104AC0000CBF102000200DF11F010E18FFF7E8FFAA
:104AD000012CADF81C508DF81E4002D0022C2CD0B9
:104AE0002DE00227569C559DDDF85091DDF84CA134
:104AF000DDF8488148993A4600F0B6F8A6F800B0CB
:104B000086F8028086F803A086F804907571B47167
:104B100000F0F3F83F20ADF804004FF4827107A8CD
:104B2000ADF80610039003210A370497069100F0B0
:104B30005EF9002805D5FF2009E01027D2E797206D
:104B400005E09DF8000010B9579800F003F849B04F
:104B5000BDE8F08FBDF8011001800020704730B52E
:104B6000C7B01C464A9B00F023F900258DF8005081
:104B70008DF82140224619460DF1220000F03DF942
:104B800000F0BBF83F204FF4837100F01CF9A41D26
:104B9000049400F02CF900284CBFFF209DF8000081
:104BA00047B030BD00B5C7B000F039F800F017F8D5
:104BB0000F21029140F20B10022100F00EF90028A3
:104BC0004CBFFF209DF8000047B000BD0023ADF8AA
:104BD0001C008DF8003007A8418082800021182237
:104BE00001A800F010B900228DF80020ADF81C00DB
:104BF0008DF81E10704700B5C7B000F010F8FFF731
:104C0000EEFF0F2102914FF48970022100F0E5F8C8
:104C100000284CBFFF209DF8000047B000BD0021D8
:104C2000ADF81C008DF80010704718B5C7B01346DA
:104C300000228DF800200229FFF7D8FF0CBF1024B6
:104C400002242246194600F00FF800F056F840F210
:104C5000131100F02FF800F0CAF800284CBFFF2015
:104C60009DF8000048B010BD0DF11F0000F0C5B860
:104C700000B5C7B0FFF7AAFF0F21029140F215104F
:104C800000F0AAF800284CBFFF209DF8000047B0B4
:104C900000BD00B5C7B0FFF799FF0F21029140F2A8
:104CA000171000F099F800284CBFFF209DF8000075
:104CB00047B000BDADF806103F2007A9ADF80400CD
:104CC00003910F20012102900691E41C0494704787
:104CD00018B5C7B000F02BF800F041F800F00DF85F
:104CE0004FF48E7100F02DF800F081F800284CBFD1
:104CF000FF209DF8000048B010BD1822002101A837
:104D000000F081B818B5C7B000F011F800F027F82E
:104D1000FFF7F3FF40F2211100F013F800F067F8FD
:104D200000284CBFFF209DF8000048B010BD14467D
:104D3000ADF81C00002207A88DF800204180047106
:104D40007047ADF806103F2007A9ADF804000391A5
:104D50000F20012102900691641D049470472246A1
:104D600019460DF1210000F048B878B5C7B04C9C49
:104D70004D9D00F01DF800268DF821308DF8006063
:104D80008DF822402246294600F019F8FFF7B5FFBA
:104D90003F204FF4937100F016F8E41D049400F0E6
:104DA00026F800284CBFFF209DF8000048B070BDD9
:104DB000ADF81C00ADF81E108DF8202070470DF1E5
:104DC000230000F01AB8ADF80400ADF8061007A8EB
:104DD00001210390069170470621ADF80600049169
:104DE00007A801213F2203900691ADF80420CDF8D9
:104DF00014D0002101A802F0ACBF10B50446FFF7A3
:104E00009BFD204610BD10B5044610460A460146DB
:104E1000204603F02FF8204610BD704738B55C21BE
:104E2000044603F05AF8254608B15C2105E02F211D
:104E3000204603F052F820B12F21204603F04DF810
:104E4000451C284632BD38B5EFF3108472B6284DA4
:104E50006946281D03F066F96946281D03F0C0F96C
:104E600038B184F31088BDF80010224A03F0A2FA8A
:104E700031BD0120287084F3108831BD80B503F066
:104E800097FA022100910023194800F124014FF400
:104E90008052001D03F02DF801BD00BFF8B5144687
:104EA0000026EFF3108510F1010F1ED001281CBF62
:104EB00002284FF0FF3618D1BCB1264672B60C4F0F
:104EC000012392B2381D03F028F800281CBF39785E
:104ED000002908D000223A7085F31088A1B2054A53
:104EE00003F068FA01E085F310883046F2BD000057
:104EF00008140020474E0008002203F00BBB704747
:104F000080B5DFF80404016803F055FE012803D0E2
:104F1000BDE8014004F0F2B801BDEFF3058000B137
:104F20006DE0DFF8E813086810B901220A607047E5
:104F30004FF0FF30704780B5EFF3058000B10FE010
:104F4000DFF8C8030168012909D1DFF8C433002262
:104F50001A700221016003F0FDFB002002BD02E097
:104F60006FF0050002BD4FF0FF3002BDF8B584B010
:104F700000230393EFF30583002B3DD103003BD0C7
:104F80008025182600245AB3136803B11C46936980
:104F90001BB11E0004D0392E02D21379DF0701D5D0
:104FA00000202AE0536903B19D08D2F80CC097682D
:104FB00087B1BCF15C0F1FD31269002A18BF002B08
:104FC0001AD001920B46029700962A46214603F01A
:104FD000BBFA10E0BCF1000F04BF1269002A0BD12C
:104FE00003AB019300960B46AAB2214603F0DBFA0D
:104FF000012801D000200390039805B0F0BD6FF0A8
:10500000050070473EB5040001D0002903D56FF0BC
:105010000300019026E04FF0FF320192EFF305808C
:10502000A8B10020029002AD009500230122204685
:1050300003F026FF0020009001AB00220021204653
:1050400003F01EFF029868B100F054F90AE0002353
:105050000122204603F0B6FE01AB002200212046CB
:1050600003F0B0FE01983EBD2DE9FE4F8346EFF3FD
:10507000058018B16FF00500BDE8FE8FBBF1000F91
:1050800048BF6FF00300F7D4144601940E46B007F2
:105090004CBF4FF00009D94603F008FC02960025EA
:1050A000019F6FF001086FF0020A064606E003F068
:1050B000FDFB801B87422CBF3F1A00273B466A46F8
:1050C0004946002003F03EFE012810D100980299C5
:1050D0000BEA05050543CA0705EA0B0002D558454A
:1050E00001D10AE048B9002CE1D15046C4E7002CB8
:1050F0000CBF554645460028E0D12846BCE770B5B0
:10510000054600F00FF925D105B1686800F00104EB
:1051100000071FD455B1E868A96831B1502819D3E8
:105120008CB1042004F0EFF806E098B9002C14BF0D
:105130000420012004F0DCF806000BD0002D14BF81
:105140002968002101E00120ECE704F07EFC0CB1AD
:1051500046F00106304670BDF8B5024650080C46D0
:1051600040000025EFF3058111B16FF0050515E052
:1051700010B96FF0030511E0D1076FF002066FF070
:105180000107214602D504F0E4F801E004F0D7FA63
:10519000012803D0002C14BF3D4635462846F2BDF9
:1051A00038B50146480840000024EFF3058212B1EB
:1051B0006FF0050411E010B96FF003040DE0C907AA
:1051C0006FF0020502D504F0ABF803E000230021E4
:1051D00004F012F9012818BF2C46204632BD7CB5D8
:1051E0000E4614460025EFF3058100293CD1002826
:1051F0003AD0B04238D344B1E268A16819B1502A1C
:1052000032D3012101E0002A2ED1012819D1012930
:1052100008D1032000900022A3680021012004F09F
:1052200004F802E0032204F02FF805001CD0A6B118
:1052300000F071F8012810D0284604F070FB00251A
:1052400012E0012904D1A268314604F0A4F802E07A
:10525000314604F0BAF8050006D0002C14BF2168CE
:105260000021284604F0F1FB284676BD7CB50C46AB
:10527000002528B16FF00206EFF3058179B114B172
:105280006FF0030515E000956A46002104F006FB67
:1052900001280DD1009860B100F02CF809E02146FA
:1052A00004F04DFA012804D014B16FF0010500E0BC
:1052B0003546284676BD38B5002410B96FF0030492
:1052C00016E06FF00205EFF3058151B100946946D5
:1052D00004F070F901280AD1009848B100F00AF8EA
:1052E00006E00023002204F087F8012800D02C46B5
:1052F000204632BDDFF828204FF080511160BFF307
:105300004F8FBFF36F8F704710E000E014910020C3
:105310001FED00E0606800230022002104F06CB85B
:1053200004ED00E00026EFF3058000287047000040
:10533000034B036003F15C0008608020106070473D
:10534000BC860020F8B590B002A80FF68441DFF8C3
:10535000185CDFF8186C0FF6B0473822FFF7FCFA3C
:105360000020FFF7CCFE286000F079F8686000F0BC
:1053700076F8A8600FF6D531DFF8F40B00900191B4
:1053800069460FF6B13002F091FC0121022004F0D1
:10539000ACFB0FF684420FF649100021FFF7E6FD43
:1053A000286102A804F0BEFB0400DFF8C80B0FD090
:1053B000FFF734FD01464FF4BD733A4600F09EFD01
:1053C00021460FF67840FFF7A3FAC046C0460BE02F
:1053D000FFF724FD01464FF4C0733A4600F08EFDFE
:1053E0000FF69040FFF794FA00F0DDFA01F03CFC74
:1053F000DFF8846B0FF6A442002086F8900006F1D7
:1054000026044FF6FF70208000210FF6C500FFF73D
:10541000ADFDE86004F0DCFB04F003FCFBF794FE58
:105420000FF6A503002206F19F01002004F054FEB0
:105430000220E07080210120A0700D202071022048
:10544000A070182060710320A070DFF8300B01807D
:10545000A0214180012000F084FB11B0F0BD0022AA
:1054600000210120FFF7BBBE2DE9F047044688B0BC
:105470006078DFF8046BDFF8F49A0FF6444ADFF83F
:10548000F48A052806F1900505D03E2852D0FF2861
:1054900000F02D814EE2A088F18C884246D1002098
:1054A000F0842870A07950B900F02BFD01464FF42C
:1054B000F27300F043FAA1790FF61C4028E0162899
:1054C0000AD100F01EFD01464FF4F37300F036FAE6
:1054D000A1790FF654401BE03D2840460ED1FFF75E
:1054E0009DFC01464FF4F47300F028FAA1790FF601
:1054F000A440FFF70DFA00F036FC0BE0FFF78EFC3E
:10550000014640F2EB1300F019FAA1790FF6F440CE
:10551000FFF7FEF903208DF81C0007A8A188ADF85D
:105520001E10FEF771FF002000F0EEFC012000F0DD
:1055300018FBFFE1E078012800F08780032802D003
:105540000C2822D0F6E100F0DCFC01464FF4027397
:1055500000F0F4F90FF6F440FFF7DAF900F0D1FCAF
:10556000014640F20D2300F0E9F9B4F80B00019078
:10557000B4F809000090B4F80730B4F80520217998
:105580000FF6F440FFF7C4F9D4E100F0BAFC01468D
:1055900040F2122300F0D2F9DFF8E409FFF7B8F97E
:1055A00020790028404609D1FFF738FC014640F237
:1055B000162300F0C3F9DFF8CC0908E0FFF72EFC52
:1055C000014640F21A2300F0B9F9DFF8BC09FFF7F1
:1055D0009FF9F08C06AA0DF1190101F0EFFB0028EC
:1055E000404628D1FFF71AFC01464FF4087300F03B
:1055F000A5F9DFF89809DFF89849FFF789F99DF8D0
:105600001900022804BF9DF81810022904D100F0E7
:1056100078FC4FF4097303E000F073FC4FF40A7355
:10562000014600F08BF99DF818209DF819102046CE
:10563000FFF76EF97EE1FFF7F1FB014640F22D2303
:1056400000F07CF90FF6CC4072E1E87B04F06AFDD3
:1056500000F057FC014640F23E2300F06FF9B4F829
:1056600005100FF6CC40FFF753F9287804280CBF3B
:10567000062005202870B4F80500F08400F041FCF5
:1056800001464FF4157300F059F9607A0590A07A3D
:105690000490E07A0390207B0290607B0190A07BD5
:1056A0000090237AE279B4F805100FF6C840FFF7AE
:1056B0002FF9B4F805006880207A6871A07BE87241
:1056C000607BA872207B6872E07A2872A07AE87109
:1056D000607AA87100F010FB01208DF81C0007A86B
:1056E000B4F80510ADF81E10FEF78EFE22E1B4F8F6
:1056F00003004FF48061401A19D0401E00F08E80E4
:10570000401E1ED0401E2BD0401E33D0401E3BD02A
:10571000801E00F00481401E43D0401E55D0401E24
:1057200049D040F60601401A00F0EF8002E100F097
:10573000E8FB01464FF4207300F000F90FF6C0407B
:10574000F6E000F0DEFB014640F2862300F0F6F8BA
:10575000B4F805100FF6D840FFF7DAF802205AE047
:1057600000F0CFFB01464FF4237300F0E7F80FF68B
:105770001C50DDE000F0C5FB01464FF4247300F03F
:10578000DDF80FF63850D3E000F0BBFB014640F2E5
:10579000962300F0D3F8DFF8FC07FFF7B9F80420F0
:1057A00039E000F0AEFB01464FF4277300F0C6F875
:1057B000DFF8E407BCE000F0A4FB01464FF42873D7
:1057C00000F0BCF8DFF8D407B2E000F09AFB014625
:1057D0004FF4297300F0B2F8D4F807100FF64450D4
:1057E000FFF796F800F08DFB014640F2A52300F08C
:1057F000A5F8D4F807100FF64450FFF789F800F029
:1058000080FB014640F2A62300F098F80FF64050C6
:10581000FFF77EF8032000F0D1FA8BE000F071FB77
:10582000014640F2AE2300F089F8237AE279B4F819
:105830000510DFF86C07FFF76BF8E07901280BD152
:1058400000F05FFB01464FF42C7300F077F8227AEA
:10585000E179DFF850070CE002280FD100F051FB8E
:10586000014640F2B32300F069F8227AE1790FF69D
:105870004050FFF74DF800F076FA3FE000283DD1A8
:105880002C796E7BAF7B00F037FA00F03AFB0146D3
:1058900040F2BD2300F052F8A87B029001973346F6
:1058A000687B2A7900902146DFF8FC06FFF730F884
:1058B00024BB00F026FB014640F2C12300F03EF875
:1058C000DFF8E806DFF8E866FFF722F80A240FF2AF
:1058D000842931460846411E0028FBD14846FFF77F
:1058E00017F8641EF5D16888132104F013FE28B957
:1058F00002208DF81C0007A8FEF786FD287B0128F2
:1059000018D1002000F000FB14E000F0FAFA014684
:1059100040F2DD2300F012F80FF6345008E000F0FA
:10592000F0FA01464FF4397300F008F80FF64850CA
:10593000FEF7EEFF012008B0BDE8F087524648466A
:10594000FEF7E6BF80B500F00BFA014640F20733E0
:105950000FF6505200F000FA0FF66450FEF7D8FF31
:10596000DFF81406B0F89200BDE8044018E0FDF737
:1059700057BD10B500F0F4F9014640F213330FF6AD
:10598000605200F0E9F90FF67450FEF7C1FF00F025
:10599000DCF904F075FE04F0CFFD2088BDE810406E
:1059A000132104F0B7BD78B5DFF80806DFF8085614
:1059B0000088DFF8086689B0ADF81A0001F0ABF98D
:1059C000286810F1010F0ED069683074090A000AC6
:1059D000707406F110046868B074F174080A090C58
:1059E0003075717506E0002004F082FE040008BFE7
:1059F0000FF65C5422460621002004F08BFE6079ED
:105A00003072102120797072E078B072A078F07254
:105A10006078307320780FF6405470732246182057
:105A200004F078FE0FF6405600F096F84EF66E50F1
:105A3000089007AA28680FF64055079006212E20E7
:105A400004F068FE22461021182004F063FE00F0E6
:105A500083F81821012004F084FEFEF7C0FF0DF149
:105A6000160006A90190009105AB07220021012034
:105A700004F0B7FC0FF61850BDF81810DFF8EC442E
:105A8000DFF8F06400900523BDF814000022FFF752
:105A900066F868B13046FFF7C1F9014640F2993324
:105AA0002A462046FEF734FF0FF6EC40FEF730FFA3
:105AB0000DF11A0000900223BDF81610BDF8140075
:105AC0000022FFF74CF868B13046FFF7A7F901460E
:105AD00040F2A3332A462046FEF71AFF0FF6E840AD
