:020000040800F2
:10000000081000202DFB0008E5F60008E7F60008C0
:10001000E9F60008EBF60008EDF600080000000025
:10002000000000000000000000000000E976000869
:10003000EFF6000800000000917600085D1A000845
:1000400055FB000859FB00085DFB0008F1F60008AD
:1000500061FB000865FB00083BF7000841F700085A
:1000600069FB00086DFB000835F7000871FB00080C
:1000700075FB000879FB0008F5F600087DFB000819
:1000800081FB000885FB000889FB00088DFB000848
:1000900091FB000895FB000899FB00089DFB0008F8
:1000A000A1FB0008A5FB0008FBF60008A9FB00085F
:1000B000ADFB0008B1FB0008B5FB0008B9FB000868
:1000C000BDFB0008C1FB0008C5FB0008C9FB000818
:1000D00001F7000807F70008CDFB0008D1FB000876
:1000E000D5FB0008D9FB0008DDFB0008E1FB000898
:1000F0000DF7000811F7000815F70008E5FB0008E8
:10010000E9FB0008EDFB0008F1FB0008F5FB000827
:10011000F9FB0008FDFB000801FC000805FC0008D5
:1001200009FC00080DFC000819F7000811FC000884
:1001300015FC000819FC00081DFC000818B1022875
:1001400006D003D3704700BF03A002E007A000E081
:100150000CA001F06BBC00002A2A204576656E7465
:1001600049443A2041646465640D0A002A2A204506
:1001700076656E7449443A204D6F646966696564BA
:100180000D0A00002A2A204576656E7449443A20FB
:1001900052656D6F7665640D0A00000010B5012888
:1001A000044608D0022809D0042809D0082809D01C
:1001B000102809D00BE000BF18A006E01DA004E045
:1001C00023A002E02AA000E031A001F02FFC00BF34
:1001D00037A001F02BFCE00744BF0FF2E40001F070
:1001E00025FCA00744BF0FF2E00001F01FFC6007F0
:1001F00044BF0FF2E00001F019FC200744BF0FF2EA
:10020000E40001F013FCE00644BF0FF2E80001F047
:100210000DFCBDE81040B9A001F008BC2A2A204519
:1002200076656E74466C61673A2053696C656E74CE
:100230000D0A00002A2A204576656E74466C6167B7
:100240003A20496D706F7274616E740D0A0000007F
:100250002A2A204576656E74466C61673A20507292
:1002600065204578697374696E670D0A00000000A7
:100270002A2A204576656E74466C61673A20506F75
:1002800073697469766520416374696F6E0D0A0045
:100290002A2A204576656E74466C61673A204E6561
:1002A00067617469766520416374696F6E0D0A0039
:1002B0002A2A204576656E74466C6167733A0000A1
:1002C0002053696C656E740020496D706F727461A3
:1002D0006E740000205072654578697374696E67AA
:1002E0000000000020506F73697469766541637483
:1002F000696F6E00204E656761746976654163744D
:10030000696F6E000B28C34923D8DFE800F00609A7
:100310000B0D0F11131517191C1F00BF0DA016E0B0
:1003200012A014E019A012E020A010E026A00EE018
:100330002BA00CE031A00AE036A008E0084606E059
:1003400001F1240003E000BF38A000E03EA001F06E
:100350006DBB70472A2A2043617465676F727949C3
:10036000443A204F746865720D0A00002A2A20431F
:10037000617465676F727949443A20496E636F6DA5
:10038000696E672043616C6C0D0A00002A2A2043C5
:10039000617465676F727949443A204D697373657A
:1003A000642043616C6C0D0A000000002A2A20437F
:1003B000617465676F727949443A20566F69636565
:1003C000204D61696C0D0A002A2A2043617465671B
:1003D0006F727949443A20536F6369616C0D0A006A
:1003E0002A2A2043617465676F727949443A205321
:1003F00063686564756C650D0A0000002A2A204355
:10040000617465676F727949443A20456D61696C22
:100410000D0A00002A2A2043617465676F727949CA
:10042000443A204E6577730D0A0000002A2A2043C3
:10043000617465676F727949443A204C6F636174E7
:10044000696F6E0D0A0000002A2A204361746567F7
:100450006F727949443A20456E7465727461696EB1
:100460006D656E740D0A000070B56B4C04F60805DE
:100470004FF6FF7601462E8000220C23534323447F
:1004800003F50273187818B198780840884203D0B1
:10049000521C802AF1DB0BE02A800020A8700E227B
:1004A000227029885D4801F0C1FA2988B14204D13F
:1004B0005B4801F0BBFA0020207070BD38B5564C87
:1004C00040F64401204601F0C5FA00200021C2B2E6
:1004D0000C235A43401CA318C5B2802D83F8081280
:1004E000F5DB21704FF6FF70A4F80200A4F80808AD
:1004F000BDE8324002A001F099BA00000A0D0000E8
:10050000414E435320434C49454E54205245534598
:1005100054200A0D0000000070B53F4CDFF8A06CBD
:1005200004F62E0502E0022001F00EF84FF0FF3233
:100530000021012001F047FB2178052923D008295B
:100540000AD00E2906D00F2902D01029EBD01CE0CA
:100550000120E9E70020E7E7012000F07FFE02200C
:1005600000F07CFE032000F079FE042000F076FE0F
:10057000288800281EBF6888002802F09EF8052001
:1005800000F06CFED2E70020FAE7304601F04EFAA8
:10059000CCE7DFF8B40C4068012101F0E2BA0000BA
:1005A00010B50FF28100DFF8A04C02F0D7F9DFF8A8
:1005B0009C2CDFF89C0C002101F087FA606000227F
:1005C0000021012001F0B8FBC4F80000FFF776FF1E
:1005D000BDE8104001A001F029BA00002D2D2041F6
:1005E0004E435320434C49454E5420494E495449AB
:1005F000414C495A4544200A0D000000DFF8480CE0
:10060000006801F006BCDFF8400C00684FF0FF31D5
:1006100001F0DABB64F700082471002064F50008DB
:10062000BCF500082DE9F14FA8B0012028998DF8FC
:100630000C004878FF2840F0BA85084640F6014390
:10064000B0F80310DFF80C6CDFF80C8CCA1A00F05D
:100650006185921E00F06B85521E00F00B82521EC7
:1006600000F01183521E00F01281121F0DD0521F94
:1006700000F03A83521E00F07085521E00F0818512
:10068000521E00F0FB8200F08ABD41F2483000F0BB
:10069000BDFD00F0AFFD08F21C4001F0C7F900F00D
:1006A000AFFD40F0F180C8790A7A92FBF0F2D2B245
:1006B000142804BF04270C24062804BF04270024A0
:1006C00006F60805289E0594049200240EE000F02A
:1006D00087FD08F23C5003E000F082FD08F5E5607C
:1006E00001F0A4F9F079C719FFB2641C0498E1B2D3
:1006F000814280F25F85F019F2194379907943EADB
:100700000029F31906F10800DB79C25D059843EA78
:10071000022AC01906F1090206F10A03125C185CEC
:10072000CDF804A042EA002B049ACDF800905B4675
:1007300008F5926001F07AF9688908B1814501DA1B
:10074000A5F80A90A88908B1504501DAA5F80CA0CF
:10075000BBF5C05F08D1A5F80E90A5F810A000F079
:100760003FFD08F2D440BBE741F60100834509D1C3
:100770000146A5F81A90A5F81CA053464A4608F56C
:10078000A060ADE741F602008345A0D041F6030129
:100790008B4504D153464A4608F5AD60A0E741F6C3
:1007A0000400834504D100F038FD08F29C5097E71F
:1007B00041F60500834504D100F02FFD08F5BA602D
:1007C0008EE741F60600834504D100F026FD08F5CA
:1007D000C16085E741F60700834504D100F01DFDA7
:1007E00008F5C9607CE741F60800834504D100F0B4
:1007F00014FD08F5D06073E741F60900834504D184
:1008000000F00BFD08F5D6606AE741F60A00834563
:1008100004D100F002FD08F2EC6061E741F60B0044
:1008200083451CBF41F60C018B453FF455AF41F6A3
:100830000D008345A9D041F60E018B4504D15346E6
:100840004A4608F5EA604BE741F60F00834504D1BC
:1008500000F0E3FC08F2847042E74FF23140834538
:1008600009D10146A5F82690A5F828A053464A4686
:1008700008F2B47034E745F22B00834585D000F0D0
:10088000AFFC08F2E4702BE708F60C00F1E041F24F
:10089000783000F0BBFC00F0ADFC08F6680001F019
:1008A000C5F800F0ADFC40F0E280C8790A7A92FB0E
:1008B000F0F1C9B2152804BF4FF0050A0C2507282E
:1008C00004BF4FF0050A0025501E289A10724FF001
:1008D000000BDDF8A090059506F60804049111E0E0
:1008E00000F07AFC08F5176003E000F075FC08F6EC
:1008F000444001F09BF899F8070050445FFA80FAF1
:100900000BF1010B04985FFA8BF1814280F2528463
:1009100009EB0A0009EB0A0205795079D67945EA14
:10092000002509EB0A0009EB0A03027A05989B7976
:1009300046EA0226504409F10902175C09F10A024D
:10094000105C57EA002718BF002BD4D0002D18BF29
:10095000002ED0D0019600953A4608F6D40001F05A
:1009600065F8B7F5285F04D100F036FC08F514608F
:10097000BFE742F601208742B2D042F602218F4201
:1009800004D100F029FC08F51A60B2E742F6032012
:1009900087421CBF42F604218F42A1D042F60520B7
:1009A000874207D1E5830146268433462A4608F666
:1009B000DC109EE742F61920874204D100F029FCA2
:1009C00008F5226095E742F62B20874204D100F01B
:1009D00020FC08F654208CE742F60F20874204D111
:1009E00000F017FC08F6882083E742F629208742AA
:1009F00004D100F00EFC08F6C4207AE742F6242069
:100A0000874204D100F005FC08F5316071E741F23E
:100A10000D20874207D165850146268633462A4642
:100A200008F6583065E74DF6F300874207D1A585F3
:100A30000146668633462A4608F6983059E74CF256
:100A4000E960874207D1E5850146A68633462A46F6
:100A500008F53D604DE742F6A62087427FF445AF9A
:100A60006582A68200F0B8FB08F6084041E708F668
:100A7000744083E308F59D5000F0D8FF00F0BAFB06
:100A800008F6CC4000F0D2FF00F0BAFB40F0F38053
:100A9000C879012804D102244FF0000A4FF004095C
:100AA000022804D102244FF00C0A4FF01209097AEF
:100AB000289FCDF810A05FFA89F291FBF2F0C0B246
:100AC00008F5596306F608054FF0000B01938246BE
:100AD000DFF8FC6C12E00092024608F6BC5007E01A
:100AE000B5F832E0F445F6D12A8700920246019823
:100AF00000F09CFF4C44E4B20BF1010B5FFA8BF069
:100B0000504580F25783F81D07F10801025D0498F3
:100B10000B5D001907F1090142EA0322095C07F1A4
:100B20000A03185C41EA0021B1F5205F04D108F600
:100B3000285000F07BFFDDE742F60300814207D139
:100B400000233380B380F380728008F65450F0E7BE
:100B5000B1F5245F1CBF42F60210814273D0318090
:100B6000B280B1F5285F08BF08F6FC50E1D042F62C
:100B70000120814264D042F60223994208BF08F660
:100B80005460D6D042F6032081421CBF42F60423B3
:100B9000994255D042F60520814203D1014608F61C
:100BA0008C60C6E742F61920814203D1014608F560
:100BB0006D60BEE742F62B20814203D1014608F565
:100BC0007060B6E742F60F20814203D1014608F576
:100BD0007360AEE742F62920814203D1014608F650
:100BE0006870A6E742F62420814203D1014608F549
:100BF0007B609EE741F20D20814203D1014608F659
:100C0000F47096E74DF6F300814205D1014641F2BA
:100C1000380308EB03008CE74CF2E960814203D112
:100C2000014641F27803F4E742F6A620814219BF5B
:100C300041F2F800404441F2B40308EB030078E7C6
:100C400008F6286075E7F280B6F804C0B5F820E031
:100C500070886346F44508BF6A840BD0B5F830E06D
:100C6000F44508BFEA8605D0B5F834E0F4457FF4D2
:100C700037AF6A8739E741F2341049E241F2C431B3
:100C800008EB01007AE241F2F83000F0BFFA289850
:100C9000C279B0F8051008F5377000F0C7FE289D3E
:100CA00000270EE005F10A0005F1080130F82730B1
:100CB00031F82720394608F54F7000F0B7FE7F1C49
:100CC000FFB2E8798742EDDB317808290BD1298919
:100CD000DFF8000B0190C18401986A89028508F54C
:100CE0006B7000F0A3FE65E2437AB0F80720B0F81D
:100CF000051041F2881508EB050000F097FE00F0A2
:100D00007FFA40F0038206F60802B1F80710108E51
:100D1000814250D141F2F81108EB010000F086FE4B
:100D20002898857AC77AD0F80EA090F80D90047BA9
:100D300008F5217000F07AFE2846FFF7FFF93846E3
:100D4000FFF72CFA2046FFF7DDFA49460FF6A830E8
:100D500000F06CFE51460FF6B83000F067FE022D31
:100D600014D100210C2000FB01F2324402F5027282
:100D70009368534503D0491C8029F4DB1BE0002015
:100D800010700FF6AC3000F051FE14E000210C237F
:100D9000224603FB01F0304400F502742078B0B322
:100DA000491C8029F5DB35B9F80704D43846FFF72C
:100DB0005BFBFFF7EEFB2898DFF8187AB0F8071016
:100DC000B88E81428FD128998D7A802108A800F0B1
:100DD00041FE08F1A4002900069040F0EC8041F2A9
:100DE000342000F013FA2898417A4A1F92B2002565
:100DF00006F1860006F5837306F6080E0027002428
:100E0000A94605900493CDF804E0079211E0012073
:100E100020706570A770E27084F80490C4F808A090
:100E20000FF62C3000F002FEBDE709F103001FFAB7
:100E300080F90798814580F2AC802898484400F1F9
:100E400010010222684601F095FD00F0C1F9ECD0D6
:100E50000199887830BBB1F800A008F1500000F08B
:100E6000E5FD0C2000FB0AFAB2440AF2092B9BF8BC
:100E70000000FFF763F99BF80100FFF78FF99BF87B
:100E80000200FFF73FFA9BF803100FF6102000F066
:100E9000CDFDDAF810120FF61C2000F0C7FD019905
:100EA0000120887028984844C17B07291ED8DFE8B4
:100EB00001F0191613100D0A07040FF6B01013E015
:100EC0000FF68C1010E00FF67C100DE00FF660109E
:100ED0000AE00FF64C1007E00FF6341004E00FF6AE
:100EE000241001E00FF6081000F0A0FD28984844F7
:100EF000C07B08B9012506E0062808BF012702D0FB
:100F0000072808BF0124BDF8002009F10100FF2ACD
:100F10001FFA80FA09D800F067F901F02BFD049957
:100F2000BDF800200020885409E000F04BF900F0E3
:100F30005BF9FE2201F01EFD002086F80402BDF8D8
:100F40000090D14409F102001FFA80F9280017D05F
:100F5000BDF80020521C802A07DC0499059801F096
:100F600009FDBDF80000401C05E0049905988022A9
:100F700001F000FD802086F8850000250F203070EC
:100F800000F026F904D004990FF6641000F04EFD2D
:100F90004FE730780F2808BF08F1EC0005D0274351
:100FA00004D01020307008F5B670AAE00020307030
:100FB00008F5DA70A5E0012D40F0A58041F29C20F3
:100FC00000F024F9289800F10B0108A801F0E2FCD8
:100FD00028980B3001F0EAFC28994A7A80B2121A5C
:100FE000921E1FFA82F901F10C0202EB000A0FF6C1
:100FF000001001904FF0000B06F5837403E00BF135
:1010000003001FFA80FBCB455DDA0AEB0B00411CA5
:101010000222684601F0AEFC00F0DAF8EFD01AF8D0
:101020000B50404600F002FD1DB90FF65C0000F0C9
:10103000FDFC1AF80B00BDF80020451EAD41ED0F78
:101040000BF10100FF2A1FFA80FB0BD80AF1020006
:1010500000EB0B01204601F08DFCBDF800000021E3
:1010600021540CE000F0AEF80AF1020000EB0B0195
:10107000FE22204601F07EFC002186F8041258462C
:10108000BDF800B05844801C1FFA80FB9DB1BDF82C
:101090000020521C802A07DC2146701D01F06AFCEA
:1010A000BDF80000401C05E080222146701D01F0C3
:1010B00061FC8020307100F08BF8A4D001982146AB
:1010C00000F0B4FC9FE739880C2506F20B2005FBE5
:1010D00001F2805C012818BF05280CD008F51470B7
:1010E00000F0A4FC398806F502704D4300224255F9
:1010F0001123337007E0012038721021317008F598
:10110000027000F093FCFFF744FA53E041F2F42040
:10111000404433E0B0F80B30B0F80920B0F80710C5
:1011200041F2284508EB050000F080FC42E0B0F8F1
:101130000720B0F8051041F28C4308EB030000F0E3
:1011400075FC062028998DF80800B1F80500ADF867
:101150000A0002A800F0DEFA2CE0C2792AB1B0F849
:10116000051008F5A85000F061FC00F049F803D123
:101170000020FFF743FA1DE008F5AB5000F056FCE5
:1011800018E0817A289800910389C279B0F8051097
:1011900041F2B45508EB050000F048FC0AE00FF2FC
:1011A000CC7000F043FC00218DF80C1002E000220E
:1011B0008DF80C209DF80C0029B0BDE8F08F0000E0
:1011C00028F90008BDF800100698FF2200F02EBC98
:1011D000BDF800000028704733462A46394670475C
:1011E00053464A46594670472898504400F1110129
:1011F000049870472898037AC279B0F805107047B0
:1012000028997088B1F8052090427047404400F05A
:101210000DBC014633462A467047014653464A46AE
:10122000704780B5DFF8B00500F000FC11218DF8A3
:101230000010DFF8A8054188ADF80210684600F0FC
:1012400069FA01BD00000000A88C00204CF90008DC
:10125000190500082471002090B800082DE9FF410D
:10126000DFF87875DFF87855052807F6120447F29D
:10127000305810D8DFE810F00600270078009D00F5
:10128000DE000D01042038704FF404627888FB21E1
:1012900001F0B2FB002840F04C814FF40462FB21C6
:1012A000284600F0C3FB05203870788801F01FFD48
:1012B000044600F046F914B905F14C0031E121462D
:1012C00005F1700033E10821D02239708DF800203B
:1012D0002D2112228DF802108DF803201E214B22A1
:1012E0008DF804108DF805200F21A4228DF806102A
:1012F0008DF8072099214E228DF808108DF80920CD
:10130000CE21B5228DF80A108DF80B203121F42260
:101310008DF80C108DF80D200521792200238DF811
:101320000E108DF80F208DF801306A467888022162
:1013300001F01EFD010004D105F1A40000F076FBD0
:1013400003E005F1F00000F071FB00F0FAF8E28B29
:10135000A18B21B9002A6CD105F5A670E1E0002A25
:1013600067D005F5D67062E007203870788801F004
:10137000D9FC00F0E5F826B905F5067000F056FB3B
:1013800004E0314605F5197000F050FBE28BA18BAB
:1013900021B9002A4DD105F53170C2E0002A48D0AC
:1013A00005F5437000F042FB628A218A05F558700A
:1013B0003DE009203870A08B01900090638822885E
:1013C000798805F56D7000F031FB62882188788896
:1013D00001F0EFFC00F0B4F8002E0CBF05F2244041
:1013E00005F2544000F022FB218C00291FBFE28C43
:1013F000002A05F27C4000F019FBA18C00291FBFD8
:10140000628D002A05F59E6000F010FB618C0029BA
:101410001FBF228D002A05F2545000F007FBA18A5D
:1014200000291CBFE28A002A03D005F2BC5000F05C
:10143000FDFA7EE00A2038706288218805F5C460D4
:1014400000F0F4FA62882188788801F0D2FC00F07C
:1014500077F8002E0CBF05F24C6005F5D16000F066
:10146000E5FAA18D19B105F2BC6000F0DFFAE18D5B
:1014700019B105F2047000F0D9FA218E19B105F204
:10148000447000F0D3FA218B002952D005F2847009
:101490004DE00120218BADF80000A9B10D2038707E
:1014A0006B467888022201F0F0FC00F049F8218BAD
:1014B00026B905F2C47000F0B9FA05E033460C22F3
:1014C00005F60C0000F0B2FA228EC2B10C20387082
:1014D00005F50860798800F0A9FA218E00F02BF854
:1014E00000F02EF826B905F6BC0000F09FFA06E0E1
:1014F000218E33460C2205F6FC0000F097FAA28DEF
:10150000BAB10B20387005F51760798800F08EFAB3
:10151000A18D00F010F8044600F013F824B905F688
:10152000B41000F083FA04E0214605F6FC1000F048
:101530007DFABDE8FF8178886B46022201F0A5BCE8
:1015400006464046FFF75FB82DE9F843A34FDFF8A2
:101550009492A0B007F5047407F6080547F23058D6
:101560000C264FF6FF7220B1022800F0878054D37A
:10157000CCE00E20387028889042014601D08029A6
:1015800002DB09F1340083E0714309F17000615816
:1015900000F04CFA28880FF23C3146436846A459C3
:1015A000142201F009FD00208DF80000220C200A11
:1015B0008DF802008DF8032000208DF8050001222F
:1015C00028208DF806208DF807008DF808200220CD
:1015D00028228DF809008DF80A208DF80D200320AF
:1015E00004228DF801408DF80C008DF80F200621A3
:1015F000240E012305208DF8111007228DF80440D8
:101600008DF80B308DF80E308DF810008DF812200B
:10161000698E78886B46132225E00F20387007F119
:10162000860497F88510224609F1D80000F0FEF9EB
:1016300097F885608021684600F00CFA01208DF84B
:10164000000000216B4605E014F801C003F800C05B
:101650001046491C421CB142C0B2F5DB00211954AE
:10166000D2B2698E788801F0F4FB04464046FEF75A
:10167000CAFF002C4AD02146484609E010203870A5
:1016800028889042014601D0802904DB09F58E703C
:1016900000F0CCF93AE006FB01F00023225809F5EE
:1016A000AC7000F0C3F928888FA270430221205843
:1016B000D2E90034CDE900348DF801008DF8001036
:1016C000020A030C000E8DF804008DF802200020A1
:1016D0008DF803308DF805006B46698E78880622F8
:1016E00001F0B7FB04464046FEF78DFF1CB12146D2
:1016F000484600F09BF9298809F5D67000F096F964
:1017000028884643B819002180F8081221B0BDE8A6
:10171000F083000010B50178304C01290CD002296B
:1017200012D0032915D005291DD0062921D008295A
:101730002DD0112932D010BD42882B48628008215B
:10174000217000F073F93FE08EA000F06FF90220E5
:1017500004E000BF91A000F069F903202070BDE80B
:101760001040FEF7ABBE00BF93A000F05FF905206C
:1017700012E000BF95A000F059F92078052803D1A8
:101780001A49086800F045FB0620207010BD00BF14
:1017900096A000F04BF90820207015E0217000BFE2
:1017A0009AA000F043F90021C8B20C22504322183D
:1017B00002F50272107820B9491CCAB2802AF3DB04
:1017C00010BD9078FEF750FEBDE81040FEF7E1BE78
:1017D000A08C00202C790020D8F80008247100206B
:1017E000F8CE0008E0EB0008A4F80008A88C002060
:1017F0002A2A204170704964656E74696669657251
:101800003A2000002A2A205469746C653A200000AE
:101810002A2A205375625469746C653A20000000CE
:101820002A2A204D6573736167653A200000000025
:101830002A2A204D65737361676553697A653A207A
:10184000000000002A2A20446174653A200000004C
:101850002A2A20506F736974697665416374696FD1
:101860006E4C6162656C3A20000000002A2A204E0E
:1018700065676174697665416374696F6E4C616216
:10188000656C3A20000000002A2A20446973706CBD
:1018900061794E616D653A20000000002A2A2043DC
:1018A000617465676F7279436F756E743A20256451
:1018B0000D0A00002A2A204E6F74696669636174FC
:1018C000696F6E5549443A203078253038780D0AD2
:1018D0000000000000000000000001FFFF02FFFF09
:1018E00003FFFF04050607000200000000000000DF
:1018F0002025730D0A0000002A2A204361746567C1
:101900006F7279436F756E743A202564200D0A005A
:101910002A2A204E6F74696669636174696F6E5517
:1019200049443A2030782530386C78200D0A000080
:101930002A2A206E6F74696679456E7472793A202E
:1019400025642052656D6F7665640D0A0000000005
:101950002A2A206E6F74696679456E7472793A200E
:1019600025642041646465640D0A0000696E766137
:101970006C69642065636F64652030782530345865
:101980000A000000414E43535F444953434F4E4EBB
:10199000454354494E47200A0D000000414E435331
:1019A0005F444953434F4E4E5F434F4D504C455457
:1019B00045200A0D00000000414E43535F4D545531
:1019C0005F555044415445200A0D0000414E435399
:1019D0005F4D54555F45584348414E47455F434F1F
:1019E0004D504C455445200A0D000000414E4353D4
:1019F0005F444953434F5645525F414E43535F53F3
:101A0000455256494345200A0D000000203D3D3E09
:101A100020414E43535F434845434B5F4E4F54492B
:101A20004649434154494F4E200A0D000EB4C0B5FB
:101A3000024603A800210190009101AB0121044856
:101A400078440C3001F0C7FA06BC5DF810FB00BF0B
:101A5000A1E00000002202F025BA2E0080B5DFF8D8
:101A60000804016802F086FD012803D0BDE80140AA
:101A700003F008B801BDEFF3058000B16EE0DFF8B8
:101A8000EC13086810B901220A6070474FF0FF306C
:101A90007047000080B5EFF3058000B10FE0DFF87C
:101AA000CC030168012909D1DFF8C41300220A70B0
:101AB0000223036002F012FB002002BD02E06FF07F
:101AC000050002BD4FF0FF3002BDF8B584B0002321
:101AD0000393EFF30583002B3DD103003BD080251A
:101AE000182600245AB3136803B11C4693691BB12E
:101AF0001E0004D0392E02D21379DF0701D5002051
:101B00002AE0536903B19D08D2F80CC0976887B1E9
:101B1000BCF15C0F1FD31269002A18BF002B1AD02A
:101B200001920B46029700962A46214602F0D4F90C
:101B300010E0BCF1000F04BF1269002A0BD103AB07
:101B4000019300960B46AAB2214602F0F6F901284D
:101B500001D000200390039805B0F0BD6FF00500A0
:101B600070473EB5040001D0002903D56FF0030192
:101B7000019126E04FF0FF320192EFF30580A8B10A
:101B80000020029002AD009500230122204602F0C1
:101B900041FE00230093002201AB0021204602F009
:101BA00039FE029868B100F053F90AE000230122DF
:101BB000204602F0D7FD01AB00220021204602F0B2
:101BC000D1FD01983EBD2DE9F84F83460F46EFF356
:101BD000058018B16FF00500BDE8F28FBBF1000F72
:101BE00048BF6FF00300F7D4B8074CBF4FF00009AF
:101BF000D946144602F01CFB0025264682466FF0AB
:101C0000020807E002F014FBA0EB0A0086422CBF9A
:101C1000361A002633466A464946002002F064FD23
:101C2000012811D10BEA0500009D0543F90705EADB
:101C30000B0003D5584503D12846CDE70028FBD13A
:101C4000002CDFD14546F7E7002C0CBF45466FF06E
:101C500001050028DED1EFE770B5054600F012F966
:101C600025D105B1686800F0010400071FD455B103
:101C7000E868A96831B1502819D38CB1042002F06A
:101C8000F3FF06E098B9002C14BF0420012002F0F5
:101C9000E0FF06000BD0002D14BF2968002101E0F1
:101CA0000120ECE703F085FB0CB146F0010630465D
:101CB00070BDF8B5024650080C4640000025EFF311
:101CC000058111B16FF0050515E010B96FF003053E
:101CD00011E0D1076FF002066FF00107214602D52F
:101CE00002F0E8FF01E003F0D9F9012803D0002C4D
:101CF00014BF3D4635462846F2BD38B50146480872
:101D000040000024EFF3058212B16FF0050411E0EA
:101D100010B96FF003040DE0C9076FF0020502D59A
:101D200002F0AFFF03E00023002103F016F80128C2
:101D300018BF2C46204632BD7CB50E461446002501
:101D4000EFF3058100293DD100283BD0B04239D3C3
:101D500044B1E268A16819B1502A33D3012101E0EE
:101D6000002A2FD101281AD1012908D1032000907F
:101D70000022A3680021012002F005FF03E00322F6
:101D8000002102F031FF05001CD0A6B100F073F86D
:101D9000012810D0284603F074FA002512E001292A
:101DA00004D1A268314602F0A7FF02E0314602F0FA
:101DB000BDFF050006D0002C14BF21680021284675
:101DC00003F0F7FA284676BD7CB50C46002528B10D
:101DD0006FF00206EFF3058179B114B16FF00305DE
:101DE00015E000956A46002103F00AFA01280DD19A
:101DF000009860B100F02CF809E0214603F04EF99C
:101E0000012804D014B16FF0010500E035462846E2
:101E100076BD38B5002410B96FF0030416E06FF0FA
:101E20000205EFF3058151B10094694603F072F8A1
:101E300001280AD1009848B100F00AF806E0002312
:101E4000002202F08AFF012800D02C46204632BD35
:101E5000DFF82C004FF080510160BFF34F8FBFF3CC
:101E60006F8F70470000000010E000E0D88C002069
:101E70001FED00E0606800230022002102F06DBF2A
:101E800004ED00E00026EFF305800028704770475E
:101E900070B596B0002200210120DFF84C49DFF830
:101EA0004C59FFF749FFE061294607A83C2201F0A1
:101EB00083F80020FFF7D0FE2062002200210120DD
:101EC000FFF73AFFDFF828190FF601126062009160
:101ED000019269460FF6DD0003F0B4FA01210220F9
:101EE00003F08FFB05F5E86200210FF24D70FFF75C
:101EF000ECFDE06207A803F0A3FB010006D005F1AA
:101F00003C00FFF793FD03F007FD03E005F17400CB
:101F1000FFF78CFD0FF690100088ADF81A0005F160
:101F20009C00FFF783FD00F04BFD28B1014605F151
:101F3000C800FFF77BFD03E00FF67010FFF776FD9A
:101F4000DFF8B008016811F1010F0ED0426821746A
:101F5000120A090A6174110A4068E274A074120C32
:101F60002175627504F1100606E0002003F0D6FC2E
:101F7000060008BF0FF6941632460621002003F033
:101F8000E1FC28B1014605F1F800FFF74FFD10E034
:101F900005F5AE70FFF74AFD307802907178019137
:101FA000B0780090F3783279717905F5D870FFF741
:101FB0003DFD70790FF65C12207231796172F07814
:101FC000A072B178E1727078207318203178617353
:101FD000102103F0B7FC28B1014605F5F670FFF7B4
:101FE00025FD03E005F51170FFF720FD0FF6341213
:101FF0001021082003F0A6FC28B1014605F5237046
:10200000FFF714FD03E005F53970FFF70FFD182108
:10201000012003F0BBFC28B1014605F54B70FFF72A
:1020200005FD03E005F55B70FFF700FD00F07FFDA7
:1020300028B1014605F56770FFF7F8FC03E005F5E8
:102040007470FFF7F3FC0DF1160006A901900091E2
:1020500005AB07220021012003F09CFD28B10146B9
:1020600005F57D70FFF7E2FC03E005F22440FFF781
:10207000DDFC0FF65800BDF8181000900523BDF8E0
:102080001400002200F010FE002814BF05F589603E
:1020900005F59060FFF7CAFC0DF11A0000900223CD
:1020A000BDF81610BDF81400002200F0FDFD002858
:1020B00014BF05F5976005F2EC40FFF7B7FC02226C
:1020C0000221002000F00FFD28B1014605F5A460B3
:1020D000FFF7ACFC03E005F25C50FFF7A7FCDFF86C
:1020E00018670320307003F0F6FC28B1014605F5AF
:1020F000B160FFF79BFC03E005F5B960FFF796FCC4
:102100000020707008211020317170710021DFF8FB
:10211000EC06F170B06001210020B1707073C1B2A3
:1021200031448873401CC1B21029F8DB00200490B0
:102130000023B168F078039102900122717930791F
:10214000019100907178B07803F0D9FC28B1014674
:1021500005F5BF60FFF76AFC03E005F24460FFF796
:1021600065FCB07860B103F0A9FD28B1014605F522
:10217000D060FFF75BFC03E005F5D860FFF756FC85
:1021800005F5DE60FFF752FC00F0D8FB00204FF6AB
:10219000FF7186F89000F18405F21C7200210FF2A5
:1021A0008940FFF792FCA06203F088FE03F0B0FEC6
:1021B0008920E070FEF7F4F90FF26543002206F182
:1021C0009101002004F086F806F128000122022186
:1021D00002700D2341708370017003233144182273
:1021E000037081F8292080202083A02161830120B1
:1021F00000F0A6F916B070BD2DE9F8432DED028B65
:10220000044688B06078DFF8F055DFF8F4950528CB
:1022100005F1900605D03E2823D0FF2800F0CA80A3
:1022200051E1A188E88C814217D10021E984317005
:102230004846FFF7FBFBA279A18809F12C00FFF7C4
:10224000F5FB03208DF81C0007A8A188ADF81E102F
:10225000FFF760FA002000F096FA012000F070F914
:1022600031E1E0780A27012809F19C089FEDB28B43
:102270003ED0032802D00C2816D024E109F16800D2
:10228000FFF7D4FBB4F80B0047430197B4F80950AB
:102290000095B4F8070004F049F953EC182B04F04A
:1022A00053F900F016F90EE109F58470FFF7BEFB53
:1022B000207900280CBF0FF26C500FF27450FFF71A
:1022C000B5FBE88C06AA0DF1190100F0E1FB10B195
:1022D0000FF26C50EDE009F59C70FFF7A7FB9DF83D
:1022E00018209DF8191009F5AE70FFF79FFBEAE082
:1022F000707804F017F8B4F8051009F5C070FFF70E
:1023000095FB607A0290A17A0191E07A0090237B9C
:10231000627BA17B09F5E470FFF788FBB4F813003A
:1023200047430197B4F811000090B4F80F0004F08F
:10233000FDF853EC182B04F007F900F0CAF83078D8
:1023400004280CBF062005203070B4F80500E8848E
:10235000617A0591A07A0490E17A0391207B029042
:10236000617B0191A07B0090237AE279B4F805109B
:1023700009F50670FFF75AFBB4F805007080217A62
:102380007171A07BF072617BB172207B7072E17A17
:102390003172A07AF071617AB17100F059F90120BF
:1023A0008DF81C0007A8B4F80510ADF81E10FFF753
:1023B000B1F988E0B4F803004FF48061401A14D0FA
:1023C000401E40D0401E13D0401E19D0801E1AD08F
:1023D000801E6CD0401E1CD0401E20D0401E1BD042
:1023E00040F60401401A67D06DE009F5297060E0FD
:1023F000B4F8051009F53570FFF718FB02201FE04F
:1024000009F54C7055E009F55770FFF70FFB0420F4
:1024100016E009F566704CE009F5717049E0D4F8F2
:1024200007100FF23C40FFF701FBD4F807100FF242
:102430004840FFF7FBFA09F57D70FFF7F7FA032034
:1024400000F04EF93FE0237AE279B4F8051009F282
:102450005440FFF7EBFAE179012903D1227A09F21E
:10246000AC4004E0022907D1227A09F5A960FFF700
:10247000DDFA00F013F911E081B93479757BB77B8F
:1024800000F0E6F8B07B029001972B46717B327921
:10249000009109F5BC602146FFF7C8FA307B01289E
:1024A00011D1DFF84413C869FFF7B3FC0BE009F260
:1024B0004C60FFF7BBFA06E009F27460FFF7B6FA6A
:1024C000E88C00F01CFD08B00120BDEC028BBDE8DB
:1024D000F28302460B464046FFF7A8BA80B50FF2DA
:1024E000AC30FFF7A3FAC448B0F89200BDE804404E
:1024F0001EE0FEF796BE38B5C24C2046FFF796FAAE
:10250000BD4800F1920500F19601E87803F09FFCC8
:1025100003F0F8FB28B1014604F15000FFF786FAFA
:1025200003E004F18400FFF781FA2888BDE8344015
:10253000132103F0D5BB0000000000000000F43FB1
:102540002DE9F84787B00446A74F012807BF3E8B07
:10255000B7F81A904FF4C8664FF47A69DFF898A27A
:10256000DFF8A4820AF19005687803F0DBFE022C04
:1025700010D12878012818BF02280BD103F037FAB0
:10258000010003D04046FFF751FA03E008F14C0088
:10259000FFF74CFA0020069005900AF129020492F8
:1025A00006229AF828000FF28C31039002910192D2
:1025B000002300932C704A463146002003F03AFA7B
:1025C00028B1014608F19400FFF730FA03E008F162
:1025D000CC00FFF72BFA39460E2003F023FB010055
:1025E0000AD0012C0CBF08F1F80008F5967008B06D
:1025F000BDE8F047FFF71ABA012C0AD108F5B2700E
:10260000FFF714FA6878814908B0BDE8F04703F095
:10261000D5BE08F5C67008B0BDE8F047FFF706BAAA
:102620007148806AB8E0000080B500F00BF8022025
:10263000FFF786FFF9E7000080B500F003F802F02D
:1026400020FFFAE74FF0FF3200210120FFF7BBBA6D
:102650001FB5694800F1920400F19601E07801ABE2
:102660000DF1020203F0A3FB401E8041C00FA070D9
:102670006A4620880DF1010103F0EAFA9DF8011085
:102680009DF80020E172227338B99DF800309DF862
:102690000120A1785E48FFF7C9F91FBD80B55D48EC
:1026A000FFF7C4F9544800F1960190F8950003F043
:1026B000CEFBBDE8014003F025BB80B5FFF7C8FFA6
:1026C0005549087830B1012801BF487A0128887A35
:1026D000012803D1BDE80240012001E001BD000056
:1026E00070B504284D4C4E4E47F230554AD8DFE8BD
:1026F00000F03303192C22000121A172208803F07D
:1027000078FA01001CBF3046FFF790F906F150003F
:10271000FFF78CF9284600F03AF80020A07206F185
:1027200084002BE06BA0FFF781F920883349BDE8D6
:10273000704003F013BA218806F1B800FFF776F96C
:102740002088BDE8704003F0F3BA2088012103F02F
:1027500070FB06F1F00011E066A0FFF767F9208832
:10276000132103F0BDFA01001CBF06F5AA70FFF7A4
:102770005DF9284600F00BF806F5BC70BDE8704026
:10278000FFF754B970BD1848C069FFF742BB16483F
:10279000C0690AE01448C06A0121FFF7E2B9124893
:1027A000406AFFF736BB1048406A4FF0FF31FFF731
:1027B0000BBB000010B50446616801F1080003F08E
:1027C00099FF00B10120207010BD000006490A6A7F
:1027D00010B1012805D070474FF0FF311046FFF7C8
:1027E00068BA1046FFF789BAAC20002044D9000827
:1027F000AC0803208075FF1FB886002007B20100D7
:10280000A8E0000860F30008C8ED000846E00100F9
:1028100034F80008F4F700084C8700204A870020AD
:1028200084EF0008737461747573206F6B200A0065
:10283000737461747573206E6F6B200A0000000062
:102840003D3D3E3E206863695F6C655F7265616413
:102850005F706879203A206661696C0A0D0000009B
:10286000206E756D657269635F76616C7565203D7C
:1028700020256C640A000000204865785F76616C52
:102880007565203D20256C780A0000000A202A2A60
:10289000205465726D20434F4E4E454354494F4E70
:1028A000202A2A20200A000040030000202053751F
:1028B00063636573733A206863695F7265736574F7
:1028C00020636F6D6D616E640A0000004852414ED6
:1028D000430000004741505F50524F435F50415307
:1028E000535F4B45595F524553504F4E5345200A55
:1028F0000D0000007465726D696E61746520636F10
:102900006E6E656374696F6E200A00006C7AD8ACD5
:1029100057720000123456789ABCDEF012345678A2
:102920009ABCDEF0FEDCBA0987654321FEDCBA09F9
:1029300087654321094852414E4300000B4900205E
:10294000087700220A48027303F00EBF07490A7F86
:1029500041F82200087F401C0877704704490A7B31
:1029600041F82200087B401C08737047188C002037
:10297000808C002010B5044600F01EFB204610BDE0
:1029800010B5044610460A460146204603F014FFDF
:10299000204610BD5FEA000C11F8012B00F8012B56
:1029A00012B111F8012BF9E76046704700F10103FD
:1029B00010F8011B11B110F8011BFBE7C01A70479A
:1029C00000B587B000F043F800F03BF8032100F0B9
:1029D00009F800F043F800284CBFFF209DF80000E4
:1029E00007B000BDADF80410ADF8061070470492B2
:1029F00007A903910322704778B5C7B004460D4676
:102A00001646032200F033F8ADF81C40ADF81E5016
:102A1000ADF8206000F015F8222200F00BF8FFF767
:102A2000E6FF00F01CF800284CBFFF209DF80000D6
:102A300048B070BDADF806200821ADF8041006229C
:102A400070471822002101A8FFF79ABF0146002015
:102A50008DF800007047049207A9039101220692A5
:102A6000CDF814D0002101A802F03FBD09220021B9
:102A70006846FFF785BF1822002102A8FFF780BF34
:102A800005220792CDF818D0002102A802F02DBD32
:102A900070B5C8B006460C4615460522FFF7E7FF9D
:102AA000ADF82060FFF7E7FF302200F012F8FFF7E3
:102AB000E7FF002848BFFF2009D49DF8000030B987
:102AC0009DF80300207000209DF80410297048B084
:102AD00070BDADF80A200821ADF808100222059259
:102AE00008A90491704718B5C7B000F013F8312257
:102AF00000F009F8FFF7AFFF00284CBFFF209DF85A
:102B0000000048B010BDADF806200821ADF8041053
:102B10000322704700248DF81C008DF8004007A8A0
:102B2000417082700021182201A8FFF729BF00B56B
:102B300087B000208DF8000000F0A2F940F20112E9
:102B400000F032FA00F0D0F900284CBFFF209DF8C9
:102B5000000007B000BD2DE9F841C7B00446884623
:102B600016461F46012808BF022003D002280CBFCA
:102B7000102000200DF11D031D1800F035F8012C68
:102B80008DF81C4002D0022C1AD01BE002242246F1
:102B900041460DF11D00FFF7EDFE2E706F7000F045
:102BA0006FF900F044F94FF4817200F017F8E41C5B
:102BB0000692049400F098F9002805D5FF2009E05A
:102BC0001024E4E7972005E09DF8000010B94E9826
:102BD00000F065F8FFE748B0BDE8F081ADF80620E9
:102BE00007A9039103227047032200216846FFF7DB
:102BF000C7BE2DE9F64F0C46C7B005469B46012CD3
:102C000008BF022003D0022C0CBF102000200DF1C1
:102C10001F031E18FFF7E8FF012CADF81C508DF8BC
:102C20001E4002D0022C2DD02EE00227569C559D2E
:102C3000DDF85091DDF84CA1DDF8488148993A461D
:102C40000DF11F00FFF796FEA6F800B086F802808F
:102C500086F803A086F804907571B47100F010F93D
:102C600000F0E5F84FF4827207A9ADF80620039151
:102C70000A3703220497069200F036F9002805D59A
:102C8000FF2009E01027D1E7972005E09DF800001C
:102C900010B9579800F003F849B0BDE8F08FBDF8BF
:102CA000011001800020704778B5C7B01D464C9BCD
:102CB00000F069F900268DF800608DF821502A4651
:102CC00019460DF12200FFF755FE00F0D9F800F08B
:102CD000AEF84FF4837200F061F9AD1D00F002F917
:102CE00000284CBFFF209DF8000049B060BD00B532
:102CF000C7B000F02CF800F0C3F800F098F840F2EC
:102D00000B1200F02AF800F0EFF800284CBFFF206B
:102D10009DF8000047B000BD0023ADF81C008DF801
:102D20001E10704700B5C7B000F011F800F0A8F809
:102D300000F07DF84FF4897200F00FF800F0D4F83D
:102D400000284CBFFF209DF8000047B000BD0022C6
:102D50008DF80020ADF81C0070470F210291ADF8EE
:102D600006200221049107AA0121069103927047CF
:102D700018B5C7B0134600228DF8002002290CBFF9
:102D800010240224FFF7C9FF224619460DF11F0047
:102D9000FFF7F0FD00F074F840F2131100F04BF86B
:102DA00000F0A2F800284CBFFF209DF8000048B0BA
:102DB00010BD18B5C7B000F00FF800F038F840F2B9
:102DC000151200F029F800F08FF800284CBFFF2002
:102DD0009DF8000048B010BD0024ADF81C008DF82F
:102DE000004007A8418082800021182201A8FFF737
:102DF000C7BD18B5C7B0FFF7EFFF00F018F840F2F5
:102E0000171200F009F800F06FF800284CBFFF20FF
:102E10009DF8000048B010BD0F210291ADF80620CA
:102E20000621049107AA01210691039270473F21D0
:102E3000ADF804107047ADF806100F2202923F2043
:102E400007A9ADF8040003910122E41C0692049442
:102E5000704730B5C7B000F02DF800F04BF800F027
:102E60000FF84FF48E7100F02FF800F03DF80028B5
:102E70004CBFFF209DF8000047B030BD8DF80030FA
:102E80001822002101A8FFF77BBD30B5C7B000F0C4
:102E900011F800F02FF8FFF7F3FF40F2211100F0D6
:102EA00013F800F021F800284CBFFF209DF8000027
:102EB00047B030BD1446ADF81C00002507A88DF8BA
:102EC0000050418004717047ADF806100F22029245
:102ED0003F2007A9ADF8040003910122641D06926A
:102EE0000494704706920495CDF814D0002101A8EF
:102EF00002F0FBBA19460DF12100FFF73BBD00B50A
:102F0000C7B0FFF724FFFFF7BBFF40F2251200F028
:102F100009F8FFF7E9FF00284CBFFF209DF80000EB
:102F200047B000BDADF806203F21ADF804100222E5
:102F3000049207A90391012206927047B8B5C7B061
:102F40004C9C4D9D00F01FF800278DF821308DF826
:102F500000708DF822402246294600F01BF8FFF74A
:102F60008FFFFFF764FF4FF4937200F017F8E41D32
:102F700006920494FFF7B8FF00284CBFFF209DF88D
:102F8000000048B0B0BDADF81C00ADF81E108DF8C3
:102F9000202070470DF12300FFF7ECBCADF80620B0
:102FA00007A9039101227047ADF806203F21ADF833
:102FB00004100122069270474AB1000011F8013B4B
:102FC000521E00F8013B1CBF11F8013BF8E77047A7
:102FD00040F0200070472DE9F14FB0B092460491C7
:102FE0000DF142013A9A2B9199464A7000200AE06D
:102FF0001AF8011B0498309A90470028049000F0BA
:1030000041860D98401C0D909AF8000050B125287B
:10301000EED1002100220791089209910A920B91AA
:103020000C9204E00D9800F02FBE41F001011AF857
:10303000010F2028F9D023280CD02B2804D02D28CC
:1030400005D0302809D00BE041F00201EFE741F054
:103050000401ECE741F00801E9E741F01001E6E77F
:103060002A280FD1D9F8002052F8040BC9F8002003
:1030700000280F9003D540420F9041F004010AF15F
:10308000010A14E00F92DFF8083C0AE00F9898421A
:1030900005DA00EB800402EB4402303A0F920AF1A9
:1030A000010A9AF80020A2F130000A28EED39AF81B
:1030B00000002E2803D04FF0FF320E9229E01AF8BC
:1030C000010F2A2809D1D9F8000050F8042BC9F8BB
:1030D00000000E920AF1010A1BE02D280CBF0AF134
:1030E000010A002000220E92DFF8A44B0BE040B949
:1030F0000E9AA24205DA02EB820503EB4503303B50
:103100000E930AF1010A9AF80030A3F130020A2A5C
:10311000EDD3ADF840100FF67C309AF8001003F0B4
:1031200055FB08B11AF8010B8DF842009DF84200DA
:10313000682805D19AF8000068280CD1622106E0C1
:103140006C2804BF9AF800006C2804D171218DF816
:1031500042100AF1010A12A806901AF801BBBBF14D
:1031600025012CD01C3900F09481091F022940F25E
:103170009081133900F0B884093900F08A81891EE2
:1031800000F04D85491E00F0FA84491E022940F2E4
:103190008081091F00F0F384491F00F0EF80491E71
:1031A00000F0A284491E00F0D780C91E0CD0891EF1
:1031B00000F09A84C91E00F0978400F03BBD012303
:1031C0000793252100F033BDD9F8000050F8044BD7
:1031D000C9F80000002C059440F0AB802B9948788A
:1031E000002800F0A1804FF0FF340FF6B02003F06C
:1031F000F9FA241A40F0468500F028BD01236A46FA
:1032000002A9304600F00EFE002840F03B85641E07
:10321000F4D13096079C12AF74B1309E17F8011BA1
:103220000498B0470028049000F02C850D98401CAD
:10323000641E0D90F2D130960A9C3021002C8DF83E
:1032400000100CDD309E01236A4602A9304600F0D2
:10325000E9FD002840F01685641EF4D13096059FE4
:10326000089C74B1309E17F8011B0498B0470028E1
:10327000049000F007850D98401C641E0D90F2D15B
:1032800030960B9C3021002C8DF800100CDD309E08
:1032900001236A4602A9304600F0C4FD002840F030
:1032A000F184641EF4D1309605980899099C47185A
:1032B00074B1309E17F8011B0498B04700280490A1
:1032C00000F0E0840D98401C641E0D90F2D1309601
:1032D0000C9C3021002C8DF800100CDD309E012359
:1032E0006A4602A9304600F09DFD002840F0CA84DD
:1032F000641EF4D130969DF8400041077FF584AEFE
:103300002020002D8DF800007FF77EAE309C012339
:103310006A4602A9204600F085FD002840F0B284EC
:103320006D1EF4D130946FE60FF65830059000F022
:103330008DBC0E9D002D04D52046FFF737FB0446BB
:1033400007E02A46204603F06DFA002814BF041B4C
:103350002C46089400F07ABCD9F8001051F8040B00
:10336000C9F8001020F00004002121F0FF35CDE95C
:10337000024512AB0593782100F04DBC2B9948789B
:1033800020B14FF0FF340FF6CC2030E79DF842001B
:10339000622860D0682817D06A283FD06C2806D0F1
:1033A000712847D074282CD07A281DD062E0D9F833
:1033B000001051F8040BC9F80010002866D14FF036
:1033C000FF340FF6A82012E7D9F8001051F8040BCB
:1033D000C9F8001020B94FF0FF340FF6902006E72F
:1033E0000D99018000F032BCD9F8001051F8040B9F
:1033F000C9F80010002849D14FF0FF340FF66C20B7
:10340000F5E6D9F8001051F8040BC9F800100028AF
:103410003CD14FF0FF340FF65420E8E6D9F8001005
:1034200051F8040BC9F8001080B94FF0FF340FF6C3
:103430003C20DCE6D9F8001051F8040BC9F8001064
:1034400020B94FF0FF340FF62420D0E60D9AD317A1
:10345000C0E90023FAE3D9F8001051F8040BC9F8C9
:10346000001020B94FF0FF340FF60020BFE60D9991
:103470000170EBE3D9F8001051F8040BC9F8001003
:1034800020B94FF0FF340FF6E410B0E60D9901605B
:10349000DCE39DF842004C2807BFD9F80010CA1D94
:1034A000D9F80000C21D22F00702C9F80020D2E9B5
:1034B00000010832C9F80020CDE90201C80F02D08E
:1034C00007982D210AE0BDF84000810702D5079832
:1034D0002B2103E0C00705D50798202112AA11541B
:1034E000401C079012A807994BF0200300EB010C39
:1034F000DDE90201CDE92C01612BCDF814C021AC2E
:103500000BD00E98002848BF062105D404BF4BF00D
:103510002000672801D101210E91DDE902014F0051
:1035200047EAD0777E15FF174FF0FF32974208BF6A
:10353000964210D1090341EA10510003002908BF47
:10354000002808D0ABF1610503211A2D089118D38A
:103550000FF6381110E0DDE902014A00521512F1B0
:10356000010F11D108030FD1ABF1610503211A2D11
:1035700008911FD30FF61C1103226046FFF71CFDB4
:1035800064E30FF60411F7E7DDE902016A4603F090
:1035900075F9CDE902014BF02000612811D10598A1
:1035A00030210170821C0592BBF1610F0CBF7821A4
:1035B000582102E00FF6D801DEE741700798801C21
:1035C0000790DDE9020120F0000231F0004308BF5E
:1035D000002A02D10026002542E14BF02008B8F174
:1035E000610F40F092800E98002847BF2121019181
:1035F000401C0190019FDDE92C017F1C002200236B
:10360000DDE9024503F072F938BF85F00045009905
:103610008DF88420091F002F00910DF1850632DD01
:10362000204629460022002303F07AF92BD21C22DF
:1036300003F090F904460D4603F02AFAFF1F002F0D
:10364000804609DD03F040FA02460B462046294633
:1036500003F002FB04460D46F01D0721B8F1000FF0
:103660000CDD491E5EBF08F00F0200F8012D4FEA85
:103670002818F3D502E0002200F8012D491EFAD5E2
:10368000C61D002FCCDC0DF18500361A01980DF116
:1036900085048642D8BF304600282FD4B04206DACF
:1036A0000DF185010A5C082AA8BF0F2100DA00216C
:1036B000024621AB134400E0401E13F80159521E8C
:1036C0008D42F9D00F2904D10DF185018B5C5B1C73
:1036D0008B54002A04D50099091D21AC401C00918F
:1036E000411E0BD4621813783033DDB23A2DA4BFDB
:1036F0005B443A3B491E02F80139F4D50E99002982
:1037000040F1AC80421E0E92A8E00099DFF8042739
:1037100047F29750414391FBF2F20092DDE92C45CC
:10372000C2F10702002A25F0004504DD20462946A3
:1037300000F04CFB0BE052420020DFF8DC1600F0FA
:1037400045FB02460B462046294603F0F7FA04469D
:103750000D46B8F1660F06BF009F0A3706270E9880
:103760003F18142FC8BF142730208DF884000DF1A6
:103770008506002F34DD2046294603F003FC014670
:103780000A4606F1080304200A26B2FBF6F606EB09
:10379000860EA2EB4E02303203F8012C0A22B6FB51
:1037A000F2F202EB820EA6EB4E063036401E03F814
:1037B000026DE9D1083F002F03F10806D9DD084664
:1037C00002F0B4FE02460B462046294603F044FAB6
:1037D0000022DFF8483602F0B7FE04460D46CAE77D
:1037E0000DF18500361A0DF1850404E00098401EA5
:1037F000761E0090641C20783028F7D0B8F1660F50
:1038000002D10098401C04E0B8F1650F0CBF012004
:1038100000200E9940188642B8BF701E00281DD4A3
:10382000B04204DA215C3429C8BF392100DC3021E0
:103830000246631E9D1800E0401E15F80169521EE5
:103840008E42F9D0392902D1A15C491CA154002A29
:1038500004D50099491C1C46401C00910646009D59
:1038600003F0A2FB406A0778DDF8388030B2002808
:1038700002DC01260FF220644BF02000662808BF0E
:103880006D1C16D0672845D128B210F1040F47DB14
:10389000404545DA9DF840006D1C010703D430B265
:1038A0004045D8BF804628B2B8EB000848BF4FF06B
:1038B00000080FFA85FBBBF1000F00F3B4800898F5
:1038C000411C0891302205990A54B8F1000F03DC1D
:1038D0009DF84000010704D50898411C08910599FE
:1038E0000F5418EB0B0FB8BFC8F100052DB268429A
:1038F000454432B20B909542B8BF2E46059B0898BE
:1039000036B20996324621461844FFF755FBAD1BE7
:103910000C95D2E0BBF1610F17D14FF0700B19E09D
:1039200030B2404504DA9DF840100A0758BF80467F
:10393000B8F1010848BF4FF00008BBF1670F14BF92
:103940004FF0450B4FF0650B04E0BBF1410F08BF92
:103950004FF0500B0898411C0891B8F1000F0599E1
:1039600014F8012B0A5403DC9DF8400001071AD516
:103970000898411C0891B8F1000F05990F5412DD09
:10398000761E30B28045B8BF46460598089B32B2D5
:1039900021461844FFF710FB089936B271180891B8
:1039A000A8EB06000B9005980899084429B2002955
:1039B00080F800B003D42B224270821C04E02D2238
:1039C00042700D46821C6D4200212CAB28460AE055
:1039D00004460A2094FBF0F000EB8005A4EB4504BC
:1039E00003F8014B491C00B20028F1DC012906DC78
:1039F0004BF02000652804BF302002F8010B00299D
:103A00002CAB08D1302002F8010B06E0491E585CAF
:103A1000303002F8010B0029F8DC059908980844B9
:103A2000121A099249E030B229B288421CDA05988C
:103A3000089B32B221461844FFF7BEFA089936B205
:103A400071180891ABEB0600B8F1000F0B9003DC86
:103A50009DF84000020704D5059847540999491C70
:103A60000991CDF8308028E00598089B2AB22146BC
:103A70001844FFF7A1FA0898761B5844B8F1000FD4
:103A8000089003DC9DF840100A0703D5411C0891FB
:103A900005990F5430B28045B8BF46460598089B3B
:103AA00032B204EB0B011844FFF786FA089836B2DD
:103AB00030180890A8EB06000B909DF8400000F02D
:103AC0001400102840F0C280079A08980B998218B9
:103AD00009988A1882180C980F998018884280F2E9
:103AE000B580081A0A90B1E09DF84200622808D01B
:103AF00068280ED06A2814D06C281FD0712810D0E6
:103B00001CE0D9F8001051F8040BC9F80010C0B23D
:103B10001AE0D9F8001051F8040BC9F8001080B26F
:103B200012E0D9F80000C21D22F00702C9F80020F7
:103B3000D2E900010832C9F8002006E0D9F80010E7
:103B400051F8040BC9F800100021CDE902019DF8DD
:103B5000400001075AD5DDE90223002B08BF002AE7
:103B600054D04BF02000782850D1079812A9302269
:103B70000A54401C431C079301F800B046E09DF82E
:103B80004200622808D068280ED06A2814D06C2819
:103B90001FD0712810D01CE0D9F8001051F8040B88
:103BA000C9F8001040B21AE0D9F8001051F8040B1F
:103BB000C9F8001000B212E0D9F80000C21D22F0CE
:103BC0000702C9F80020D2E900010832C9F8002034
:103BD00006E0D9F8001051F8040BC9F80010C1171D
:103BE000CDE90201002902D507982D210AE0BDF890
:103BF0004000810702D507982B2103E0C00705D5B7
:103C00000798202112AA1154401C079012A8079966
:103C100001440591594602A800F04EF816E0012033
:103C20000790D9F8000050F8041BC9F800008DF87F
:103C300048100BE001212522BBF1000F07918DF800
:103C4000482003D0022207928DF849B00F9D0799B2
:103C50000A986D1A08992D1A0B986D1A09992D1A40
:103C60000C986D1A9DF840102D1A48073FF5D2AAFE
:103C70002021002D8DF800107FF7CCAA309E2C4615
:103C8000FFF7BCBA4FF0FF3031B0BDE8F08F000055
:103C9000CBCCCC0C686A6C747A4C00007072696E84
:103CA00074665F733A2062616420257320617267D5
:103CB000756D656E740000002DE9FC4707468A4665
:103CC0003C6950466F2808BF082505D0FFF780F9EA
:103CD000782814BF0A251025D7E900013C26804624
:103CE0008946BAF1640F18BFBAF1690F05D10029EE
:103CF00003D5D8F1000869EB4909B9F1000F08BFF5
:103D0000B8F1000F0CD1386B50B9082D3AD197F8A3
:103D10003800010736D530223B2684F83B2031E0BD
:103D20008DF800A0404649462A46EB1703F040F9BB
:103D30003032D0B2761E3A2801960EDAA2554046AD
:103D400049462A46EB1703F033F980465FEA01093A
:103D500008BFB8F1000F05D108E09DF80000121867
:103D6000513AEBE7F868A1198842DBD3082D09D155
:103D700097F83800010705D5A05D302802D0761EDF
:103D80003020A055C6F13C03BB61A119F960386B26
:103D9000834208DAC31A3B624FF6EF70398F014055
:103DA0003987BDE8F38700280ED597F8380000F072
:103DB0001400102808D17A6B7969386A521A121ADD
:103DC000D21A002AC8BF3A62BDE8F3872DE9D04372
:103DD00006460F4614464FF00008DFF8449012E004
:103DE000E00707D542464B463046394602F0ACFB69
:103DF00006460F464046494642464B4602F0A4FB63
:103E0000641080468946002CEAD130463946BDE828
:103E1000D0830000A08601000000F03F84D79741C6
:103E200000002440F8B505460E4617461C46002003
:103E30005CB117F8011BB068A847B06030B1F06AF8
:103E4000401CF0620020641EF3D1F2BD4FF0FF3041
:103E5000F2BD00007072696E74665F733A20256E61
:103E600020646973616C6C6F776564007072696E51
:103E700074663A2062616420256E20617267756DF8
:103E8000656E7400000000006E616E004E414E00D1
:103E9000696E6600494E46003000704762F30F229B
:103EA00062F31F4200B500BF1300964694461039D6
:103EB00028BFA0E80C50FAD85FEA417C28BF0CC0AC
:103EC00048BF40F8042BC90728BF20F8022B48BF81
:103ED00000F8012B00BD0000F0B585B050260B9D09
:103EE00025B986F3118800F047FAFEE70C9C24B947
:103EF00086F3118800F040FAFEE75C270097DDF8B2
:103F000000E0BEF15C0F04D086F3118800F034FAB3
:103F1000FEE7009E25630026022584F8595004AF71
:103F20000A9D039602940197009500F034F820460C
:103F300000F078F8049805B0F0BD2DE9F843064686
:103F4000174684B088469946B80003F0B5F80500D6
:103F50001CD05C2003F0B0F8040014D000202563CE
:103F600084F85900039002940D980C9901900091E7
:103F70004B463A464146304600F00DF8204600F0E8
:103F800051F8012004E0284603F01FF94FF0FF30FC
:103F900005B0BDE8F0832DE9F0470A9F81460C4645
:103FA0001546386B9A46A522A900FFF777FF396BB3
:103FB00001EB8502101FC0084FEAC00808F0070097
:103FC00007F1340554B10021625C6A54605C10B1A1
:103FD000491C1029F8D30020E87300E02870089EDF
:103FE000372E88BF3726099CFE62AE61E861C6F1B4
:103FF0003806381D03F045F907F1180003F041F9C0
:104000003F61BE617F6200202862002187F858105E
:1040100052464946404600F099FC386004B127609A
:10402000BDE8F0872DE9F04100F054F8DFF8405585
:10403000DFF85885E86C401CE8641426A86A28BBA1
:10404000AC62E86C012829D1002706FB07F0404448
:1040500003F00AF97F1C382FF7D305F1740003F041
:1040600003F905F18807384603F0FEF8284603F007
:10407000FBF805F1140003F0F7F805F1380003F040
:10408000F3F805F17400E8622F6307E0A86D28B922
:10409000E06AA96ACA6A904228BFAC62A86EE26A66
:1040A000401C6064696D914238BF6A65A8665643DA
:1040B000211D08EB060003F0E7F800F0D2FCA86D24
:1040C00030B100F0B0F903D200F09FFB00F054F9DA
:1040D000BDE8F081044600F0ABBC000080B586B0BE
:1040E00000210591049103AA04A905A803F006F98B
:1040F0000598049902900022009201910023039AEE
:1041000011A10FF2AD30FFF7E7FE98B103F000F90F
:104110005021012810D181F3118800F02DF9DFF82A
:1041200050044FF0FF31C166012282650021016514
:1041300000F02EFC07B000BD10F1010FFAD181F3A1
:10414000118800F019F9FEE749444C4500000000D1
:10415000DFF81C04016F491C01677047DFF8102469
:10416000506D002100B10121936AD86A28B9DFF8A7
:10417000C8070368012B00D809B100207047D06E32
:10418000116D401A704770B5DFF8E463306F00249A
:10419000002520B900F044F800F0EEF8FEE700F04A
:1041A00047FC306F401E3067306F002836D1F06C0E
:1041B000D0B933E0F068C46800F036F800F01DFABA
:1041C000E06A716D814238BF70651423DFF868279B
:1041D0005843211D104403F057F8E06AB16ACA6AD7
:1041E000904224BF0121316630680028E2D10CB131
:1041F00000F0ACF9F46D44B100F01EF808B10120F4
:104200003066641EF8D10020F065306E30B1DFF802
:104210002C174FF08050012500F0ADF800F060BA87
:10422000502181F31188704704F1180003F052B84F
:10423000DFF80C07006D70472DE9F843DFF83073A5
:10424000386F0026002852D13C6D641C3C6510D1AB
:10425000F86A006820B1FFF7E3FF00F08DF8FEE791
:10426000F86A396BF9623863786E401C786600F042
:104270006DF9F86EDFF8C09684424FF0140827D32A
:104280001FE0F96AC868C568686884422DD3281D94
:1042900003F020F8A86A18B105F1180003F01AF825
:1042A000E86A796D814238BF786508FB00F0291D06
:1042B000484402F0E9FFE86AB96ACA6A904228BF36
:1042C0000126F86A00680028DBD14FF0FF31F9665B
:1042D000B86AC06A08FB00F859F80810022928BF1C
:1042E0000126386E30B1012604E0F866F0E7F86D7B
:1042F000401CF86586E210B5DFF87422106F10B12B
:104300000121116610BD1066516DDFF82C3600E0FA
:10431000491E14244C43185930B90029F8D100F033
:1043200012F800F029F8FEE7181900F108044368B4
:104330005B684360A34204BF5B6843604068C36836
:104340009362516510BD502080F31188704710B5FD
:104350000C4620B9FFF7F7FF00F00EF8FEE700F07B
:1043600029F802F09EFF2046BDE8104009E0DFF882
:10437000CC154FF080500860BFF34F8FBFF36F8FA5
:104380007047012100F0B1BA38B50D46144620B986
:10439000FFF7D9FFFFF7F0FFFEE700F00BF802F0A0
:1043A00073FF0CB14FF0FF3521462846BDE834407D
:1043B00000F09BBADFF88825936A03F11801704773
:1043C00038B5C068C46824B9FFF7BDFFFFF7D4FF54
:1043D000FEE7FFF729FF664D286F50B900F00DF991
:1043E00000F015F838BF6A6500F015F800F0AEF877
:1043F00004E004F11801284602F046FF00F013F82B
:1044000003D201212966012032BD002032BDE26ABB
:10441000686D904270471420DFF81C354243211D1F
:10442000981802F031BFA86AC16AE06A81427047F9
:10443000DFF80C154A6E0260096D41607047F8B5EF
:1044400004460D46502024B980F31188FFF794FFED
:10445000FEE725B980F31188FFF78EFFFEE700F035
:10446000E7FADFF8DC04016D62682E688B1A16F13A
:10447000010F0ED0476ED4F800C0674501D09142BD
:104480000BD2B34207D2F31A2B60416E2160006D4C
:104490006060002402E000202860012400F0E1FABE
:1044A0002046F2BDDFF8981401200866704700002E
:1044B00070B5364C2E4D11E000F0BAFA286AC66885
:1044C000301D02F007FFE86C401EE864686B401E78
:1044D000686300F0C6FA304600F021F8686B0028E7
:1044E000EAD12168012901D9FFF741FFFFF736FE24
:1044F0000128F3D9286F401C2867E86E296D88428F
:1045000008D3FFF72BFE012888BF03F0ABF8FFF7B5
:104510003AFEE3E7FFF717FFFFF72EFFFEE710B5C0
:10452000044694F8590040B9206B02F04EFE204634
:10453000BDE8104002F049BE10BD0128F7D00228A6
:10454000FAD0FFF700FFFFF717FFFEE70849C86A38
:10455000006810B94FF0FF3203E0C86AC268D06843
:104560004268CA667047DFF8D803806A7047000067
:1045700058870020DFF8C813886D08B901207047FC
:10458000086F08B902207047002070476879002042
:10459000F8B5044600207CB3E16ADFF8A453AA6AA8
:1045A000D36A994222D2A069002804D4A86AC26AB8
:1045B000C2F13802A2611427DFF87C636269794393
:1045C00031448A420ED100F018F8A86AC06A696DB9
:1045D000814238BF6865E0624743211DF01902F04F
:1045E00053FE08E0A86AC16AE16204E0E16CAA6ACD
:1045F000D36A994200D20120F2BD201D02F06ABEAA
:1046000038B50446002134B3DFF83453A86A502289
:10461000844204D082F31188FFF7AEFEFEE7206DDE
:1046200020B982F31188FFF7A7FEFEE7E26AE36C88
:10463000401E9A4220650ED068B9FFF7DEFFE26C9B
:10464000E262C2F13800A061696D914238BF6A65CB
:10465000FFF7E1FE0121084632BDF8B5040034D071
:10466000206D502220B982F31188FFF785FEFEE706
:10467000E36C994238BF1946E36A8B4225D0012882
:1046800023D1DFF8BC52A86A844204D182F3118896
:10469000FFF772FEFEE7A069E16200285CBFC1F18E
:1046A0003801A1611427DFF8906261697B43F21839
:1046B00091420AD1FFF7A1FFE06A696D814238BFDC
:1046C00068654743211DF0193CE1F1BDDFF8701228
:1046D000886A18B1886A026D521C0265886A704740
:1046E00000F0BFF9284670BD2DE9F04180460F4625
:1046F00014461D4600F09CF9914EB06A90F858009F
:10470000022810D0B06A416D21EA0808C0F8548030
:104710000120B16A81F858002DB10121284600F02E
:10472000E4F8FFF724FE00F09CF900F081F914B1E1
:10473000B06A406D2060B06A90F85800022818BF37
:10474000002405D1B06A416D21EA070747650124BD
:10475000B16A002081F8580000F083F92046BDE8D6
:10476000F08100002DE9F84304460F4691461D46AE
:1047700001264FF0500824B988F31188FFF7FCFD9B
:10478000FEE700F055F90DB1606D286000F0A1F86A
:10479000B9F1040F22D8DFE809F0060319051D005E
:1047A000616D0F43676501282AD1FFF726FFE26A92
:1047B000634D686D904238BF6A65FFF72CFEA06AB2
:1047C000A8B188F31188FFF7D7FDFEE7616D491C9A
:1047D0006165E8E70228E5D1002611E0616D11F17D
:1047E000010FE0D088F31188FFF7C6FDFEE7FFF761
:1047F000ADFEFFF718FE03D200F007F8FFF7BCFD8F
:1048000000F02FF93046BDE8F2834C4A4FF080515A
:10481000116070472DE9F04704460F4692461D4649
:1048200001264FF0500824B988F31188FFF7A4FD42
:10483000FEE700F03BF9EFF3118988F31188FFF7E9
:104840009BFD0DB1606D286000F043F8BAF1040FD4
:1048500018D8DFE80AF006030F051300616D0F4357
:104860006765012830D1A06AA8B188F31188FFF7E5
:1048700083FDFEE7616D491C6165F2E70228EFD117
:10488000002621E0616D11F1010FEAD088F3118853
:10489000FFF772FDFEE72A4D286F40B9FFF7ADFE26
:1048A000FFF7B5FD38BF6A6500F019F802E004F1C2
:1048B0001801284602F0E8FCFFF7B5FD04D208987D
:1048C00000B106600120286689F311883046BDE8F2
:1048D000F087022194F8580084F85810704714208B
:1048E000154B4243211D98187047F8B5144D2F6D94
:1048F0000C46A96A0646081D02F0ECFC16F1010FF1
:1049000005D124B1A86A011D05F138001AE0A86A92
:10491000F6194660BE42A86A05D2011D286BBDE8A3
:10492000F44002F0BEBC011DE86A02F0BAFCE86E79
:10493000864238BFEE66F1BD6879002004ED00E0E4
:1049400058870020BDE8F44002F09EBC490810B52D
:104950004900A0F120034FF0807499611A60DC6176
:104960006FF002020FF20D01596140F8242D20383A
:1049700010BD00005A494A68502012F1010F80F31F
:104980001188BFF34F8FBFF36F8F00D0FEE7FEE7B4
:104990007CB5544A544B10685021984202D100F023
:1049A000B1F8FEE71068514B984202D100F0AAF826
:1049B000FEE74F4B1C780194FF251D701E78484C74
:1049C0008DF800609DF8000000F050002070072076
:1049D00005E09DF800506D00401E8DF800509DF8D8
:1049E00000502E06F5D4454215F1030F03D0A06008
:1049F00000F088F8FEE7000200F4E060A060019893
:104A00001870116A41F470011162106A40F0704030
:104A1000106202F029FE0020606002F083FE35483B
:104A2000016841F04041016002F06CFE002076BD5B
:104A3000502080F31188BFF34F8FBFF36F8F284949
:104A40004A68521C012A4A600AD12B490A68130697
:104A500006D080F31188BFF34F8FBFF36F8FFEE74F
:104A600070471F49486838B9502080F31188BFF358
:104A70004F8FBFF36F8FFEE7401E486008BF80F383
:104A80001188704780B5502080F31188BFF34F8F95
:104A9000BFF36F8FFFF7D0FB18B117494FF080506D
:104AA0000860002282F3118801BD000010B5EFF309
:104AB0000580502110280A4A07D3104B185C14783F
:104AC000A04202D200F01EF8FEE790680C4A13687C
:104AD00003F4E063984202D200F014F8FEE710BD40
:104AE000DC20002000ED00E071C20F4170C20F41D8
:104AF00000E400E034EF00E004ED00E0F0E300E06B
:104B00000CED00E081F31188BFF34F8FBFF36F8F7F
:104B10007047000070B504000D4602D100F0E4F8C3
:104B2000FEE7FFF785FF206CE16B226800FB01F3D5
:104B3000491E484310441344A3600026A663E06066
:104B4000626004F144004FF0FF310170417075B9AB
:104B50002069A0B104F11000FFF732FC78B1DFF852
:104B600094184FF08050086000F045FB07E004F116
:104B7000100002F079FB04F1240002F075FBFFF74E
:104B800070FF012070BD7CB51C46502320B983F313
:104B9000118800F030FBFEE724B983F3118800F0A0
:104BA0002AFBFEE72AB129B983F3118800F023FB21
:104BB000FEE779B950250095009E502E0FD1009B3D
:104BC00034B1069B012584F84650009400F028F883
:104BD000204676BD83F3118800F00DFBFEE783F3DA
:104BE000118800F008FBFEE7F8B505000E461746F1
:104BF00002D100F079F8FEE706FB05F0503002F034
:104C00005BFA04000AD0002084F8460000943B467A
:104C100004F150023146284600F002F82046F2BD69
:104C200038B5049D1C4600290CBF2D602A60E8633E
:104C3000296428460121FFF76DFF85F84C4031BDFE
:104C400030B100218160002202600023C36084E053
:104C5000704710B5024600210120FFF7C5FF04464A
:104C6000FFF7EEFF204610BD1CB500900B4600225A
:104C700000210120FFF787FF0446FFF7E1FF2046F0
:104C800016BD10B5040002D100F02EF8FEE7FFF7C4
:104C90006AFCA16881420BD1E068401EE06005D14A
:104CA000002300220021204600F057F8012010BD0B
:104CB000002010BD38B504000D4602D100F014F8F4
:104CC000FEE7FFF750FCA168814204D1E068401C78
:104CD000E060012032BD2946204600F0DFF910B126
:104CE000E168491CE16032BD502080F31188BFF3B8
:104CF0004F8FBFF36F8F704738B50C461346502166
:104D000020B981F3118800F076FAFEE7A04204D2C0
:104D100081F3118800F06FFAFEE70225009500226A
:104D20000021FFF730FF00B1846332BD10B50C469F
:104D3000502120B981F3118800F05DFAFEE7A0420E
:104D400004D281F3118800F056FAFEE70222002116
:104D5000FFF74AFF00B1846310BD2DE9F64782B02A
:104D600004461E46502714B900F043FAFEE75FEAF6
:104D7000010A01D1206C60B9022E02D1E06B01283A
:104D80000AD1FFF7F7FB50B9039840B100F031FAB0
:104D9000FEE700F02EFAFEE700F02BFAFEE72746CA
:104DA0000024DFF850864FF080592EE00398002849
:104DB0004BD014B900F010FA0124FFF752FEFFF7B0
:104DC000C7F9FFF735FE07F1440000F008FA04BF09
:104DD0000022027000F008FA04BF00224270FFF7C0
:104DE00040FE00F04DF8002844D1FFF721FEB86BDB
:104DF000F96B884214BF00250125FFF732FE45BB41
:104E0000384600F097FAFFF7BEF9FFF711FEB86BCE
:104E1000F96B884201D3022EC8D13246514638463A
:104E200000F040FA796A29B107F12400FFF7C8FAC7
:104E300008B904E018B1C8F8009000F0DCF9FFF7F9
:104E400010FE012004B0BDE8F087FFF70AFE002045
:104E5000F8E7039907F11000FFF779FA384600F0F8
:104E600069FAFFF790F90028CFD1C8F8009000F058
:104E7000C2F9CAE7384600F05DFAFFF784F9E6E7C1
:104E800003A96846FFF7DBBA2DE9F84304468846D4
:104E900015461E46502714B900F0ABF9FEE7B8F1ED
:104EA000000F01D1206C28BB022E02D1E06B01283B
:104EB00023D1FFF7FBFDEFF3118900F063F801D375
:104EC000022E22D194F94570A06B3246414620460D
:104ED00000F0E8F917F1010F12D1606A98B104F1FE
:104EE0002400FFF76DFA002818BF002D0BD0012019
:104EF000286008E000F07DF9FEE700F07AF9FEE7AF
:104F00007F1C84F84570012000E0002089F311889F
:104F1000BDE8F283F8B504460D46502714B900F0F9
:104F200068F9FEE7206C10B100F063F9FEE7206835
:104F300008B9A068D0B9FFF7B9FDEFF3118600F00A
:104F400021F81BD294F94510401C11F1010FA06308
:104F50000FD1606A80B104F12400FFF731FA002814
:104F600018BF002D08D00120286005E000F041F9AD
:104F7000FEE7491C84F84510012000E0002086F37C
:104F80001188F2BD87F31188BFF34F8FBFF36F8F86
:104F9000A06BE16B884270472DE9F74306460F4648
:104FA0000024502526B985F3118800F024F9FEE786
:104FB0000FB9306C48B9FFF7DDFA78B9029868B1DB
:104FC00085F3118800F017F9FEE785F3118800F0EA
:104FD00012F9FEE700F0FEF8FFF7D5F8FFF728FD1D
:104FE000B56BDFF81084002D4FF0805932D1029854
:104FF000002845D014B900F0EFF80124FFF731FD87
:10500000FFF7A6F8FFF714FD06F14400415711F130
:10501000010F04BF0022027000F0E6F804BF002276
:105020004270FFF71EFD02A9FFF72BFF0028304654
:105030002AD100F0B3F90028CCD000F0C6F800F077
:10504000C9F8FFF7A0F80028C8D1C8F8009000F010
:10505000D2F8C3E73946304600F058F96D1EB56303
:10506000306940B106F11000FFF7AAF918B1C8F88D
:10507000009000F0C0F8FFF7F4FC0120BDE8FE83CB
:10508000FFF7EFFC0020F9E700F054F9FFF77BF899
:10509000304600F083F90028A0D0F3E72DE9F24371
:1050A00082B0064600240025502716B900F0A1F86A
:1050B000FEE7306C10B100F09CF8FEE7FFF75AFAFB
:1050C00040B9029830B100F094F8FEE700F082F8A1
:1050D000FFF759F8FFF7ACFCB06BDFF81883002836
:1050E0004FF080593BD1029800284ED014B900F0FF
:1050F00073F80124FFF7B5FCFFF72AF8FFF798FCD7
:1051000006F1440000F06BF804BF0022027000F0CA
:105110006BF804BF00224270FFF7A3FC02A9FFF75F
:10512000B0FE0028304634D100F038F90028CDD048
:10513000306838B9FFF77CFCB068FFF729FA0546FC
:10514000FFF78FFC00F041F800F044F8FFF71BF880
:105150000028BFD1C8F8009000F04DF8BAE7401E13
:10516000B063306810B9FFF7B1FAB060306940B190
:1051700006F11000FFF724F918B1C8F8009000F00C
:105180003AF8FFF76EFC01201DE0CDB100F031F8D8
:10519000FEE700F0CFF8FEF7F6FF304600F0FEF82D
:1051A000002897D075B1FFF743FC706A00281DBF37
:1051B000306B0168C1F138010021B068FFF74DFA8A
:1051C000FFF74FFC0020BDE8FE83029906F12400A2
:1051D000FFF7BDB83046ADE06846FFF729B990F952
:1051E000001011F1010F704790F9011011F1010F3A
:1051F000704787F31188BFF34F8FBFF36F8F7047EE
:105200002DE9F84304460F461546502624B986F387
:105210001188FFF7F0FFFEE70FB9206C70B9FFF7B8
:1052200045FCEFF3118886F31188FFF7E4FFA66BC6
:105230004EB9002088F31188BDE8F28386F3118807
:10524000FFF7D9FFFEE794F944903946204600F075
:105250005DF8761E19F1010FA6630CD1206970B1BB
:1052600004F11000FFF7ACF8002818BF002D06D09D
:105270000120286003E009F1010984F8449001202D
:10528000D8E710B5040002D1FFF72EFDFEE700F0CD
:10529000A0F894F8460020B92046BDE8104001F07F
:1052A00094BF10BDF8B506461546B46B326C0027A6
:1052B00042B9306830BBB068FFF7A2F90021074659
:1052C000B1601FE065B97068FDF776FE7068316CFB
:1052D000B26808449042706014D33068706011E086
:1052E000F068FDF769FE306CF16840420144F160FE
:1052F0003268914202D2B1680844F060022D01D1B7
:1053000004B1641E641CB4633846F2BD026C002A0A
:105310000B4600D1704710B5C16884681144C16064
:10532000A14224BF0168C160C168BDE810401846B1
:10533000FDF742BEF8B50546FFF77AFB05F14404D8
:1053400094F9016007E005F12400FFF739F808B18E
:10535000FFF7A8F8761E70B2012802DB686A002801
:10536000F1D14FF0FF366670FFF77BFBFFF760FB74
:1053700094F9007007E005F11000FFF721F808B17B
:10538000FFF790F87F1E78B2012802DB2869002819
:10539000F1D12670BDE8F140FFF763BB10B50446BC
:1053A000FFF746FBA06B441EA441FFF75AFBE00F3A
:1053B00010BD10B50023104C54F833201AB15B1CFB
:1053C000082BF9D310BD44F8331004EBC301486037
:1053D00010BD10B50021084A02EBC1035C6884428D
:1053E00003D0491C0829F7D310BD002042F8310032
:1053F000586010BD04ED00E0808B0020F8B5044635
:105400000D461646FFF714FB04F1380797F90C0018
:1054100010F1010F04BF0021397397F90D0010F14D
:10542000010F04BF00217973FFF71BFB386828B90F
:105430003246294604F12400FEF7A6FF2046BDE8C7
:10544000F24077E77FB50C46684D6168684E286288
:105450006962281D02F074F9246805F1280002F041
:1054600079F9746006F1080002F074F901203070D7
:10547000696829B10FF24112009202946846884788
:105480007FBD1FB55A4C04F1080002F066F900BB5D
:105490002078F0B1694604F1080002F087F953481A
:1054A000016A49B1009A029201238DF8043001A8E3
:1054B00088479DF8040000E001202070207818B192
:1054C000009802F028FA04E0009904F1080002F0C4
:1054D0004DF904F1080002F040F928B9207818B11C
:1054E00004F10800FDF756F91FBD2DE9FC41044603
:1054F000002000F056F8DFF8F4806688208801214B
:1055000088F80010C6F3090646EA80263848406845
:10551000A168E268C272B6B2A0F80960D2B20C30DB
:10552000FDF74AFDD8F814200021002090470025FF
:1055300048F2E800FDF737F912E0B7F80100B04291
:105540000BD1887AC21E6069D2B28242C8BF0246BD
:1055500020696261F91CFDF72FFD387800B1012543
:1055600008F1280002F0F9F898B9694608F1280016
:1055700002F01CF90098014600F10B07487A0F2849
:10558000DBD17888B04202D12269397811707878FD
:10559000E4E72800CCD0012000F003F80020BDE8AB
:1055A000F6811249496A08B921B1084700291CBF90
:1055B000012008477047000010B50146487A0F28BF
:1055C00018BF0E2807D10B4802F0DAF8BDE81040EA
:1055D0000020FDF7E4B8064C04F1080002F0D0F812
:1055E00004F10800BDE81040FDF7D4B8C08B0020DE
:1055F000708C0020E88B00200D4800210160416084
:10560000704710B500F007F85C6800F009F85C60BE
:1056100082F3108810BDEFF3108272B6044B70470E
:1056200019B1012902D10443704784437047000037
:10563000B08C002002F011FA9DF80E0005B000BDFC
:10564000F8B500F10C026B462E214FF66640F1E7EB
:10565000F8B500F10C026B460F214FF66840E9E700
:10566000F8B502466B4610214FF67540E2E7F0B5FB
:105670001C491D4B0A681D49C2F30D0201EB820152
:105680000C6822689A4205D16569A169E269E368FC
:10569000246905E0264635697169B2697368B468A2
:1056A0002E0E06702F0C47702E0A86700172427201
:1056B000C5F3031605F00F0505711A0C0D0EC67023
:1056C0004571C2720E0C0D0A190E81721B0A210E51
:1056D000220C8671C571037341738273C4730020F9
:1056E000F0BD00003C400058B95646A90000032018
:1056F0007C4900E07C4981B00A6802430A6009687D
:1057000008400090009801B0704710B57749784C78
:105710004FF40040086002F0F1F902F01DFA00F0C9
:1057200055F800F091F87348A06304F1380002F0D6
:1057300081FC0420FFF7DEFF0120FFF7DBFF0220E2
:10574000FFF7D8FF0420FFF7D3FF0120FFF7D0FFBA
:105750000220FFF7CDFF00220F210E2002F0BCFC3B
:105760000E2002F0D7FC00220F213A2002F0B4FCF8
:105770003A2002F0CFFC60482060002147F6FF701D
:105780000F22E0606160A2602161A161E16161615D
:10579000204602F0FFFC00220021204602F0ADFD71
:1057A000564860620021A16204F1240002F03FFE2D
:1057B000FCF761F9524A0FF20D100021FCF785F950
:1057C000606702F0E0F9FCF765F9FEE780B59AB092
:1057D000482108A8FCF73EF91C2101A8FCF73AF97A
:1057E00002F046FE4748016821F0180101600121DE
:1057F0004548026861F34A2202604721006800F4CC
:10580000C06000904FF48032009808910992012105
:105810004FF480720A910B921291402200210C9257
:10582000139108A802F03CFE6F2002210190029122
:10583000002203920492059206920792012101A888
:1058400003F07CF81BB000BD80B594B050216846D1
:10585000FCF700F94FF440524FF48041009211914F
:105860000222102112921391684603F06BFA15B0D0
:1058700000BD10B5254C264820604FF4E1310C20C6
:10588000606100224FF40040E06100F010F8204613
:1058900003F0D6FB0021204604F07CFB00212046CB
:1058A00004F083FB2046BDE8104004F055BB616066
:1058B000A260E2602261A26122626262A26270471B
:1058C0000000000080B54FF0FF3201210120FCF7FD
:1058D0007AF9F8E700680F49884208BF04F0B8BBBE
:1058E00070470000480000584C0000581040005815
:1058F000AC890020000C005800280040001000581F
:10590000B8F900089000005800040058888800206A
:1059100000380140004801407047000020B50146B2
:105920000648074D00E00838C2798A4218BFA842ED
:10593000F9D18A4218BF002020BD00BFF873FF1FB5
:105940000070FF1F18B50C46C7B0114600F03DF8B7
:105950008DF81D4022460DF11E00FDF70BF800F0FA
:1059600041F83F21ADF804100C22ADF8062007A93C
:1059700003910122A41C0692049400F020F8002850
:105980004CBFFF209DF8000048B010BD00B5C7B067
:1059900000F021F80F2200F007F800284CBFFF208C
:1059A0009DF8000047B000BDADF806203F21ADF8DE
:1059B00004100222049207A9039101220692CDF855
:1059C00014D0002101A8FFF790BD00228DF800201F
:1059D0008DF81C00704700238DF81C008DF81D10F9
:1059E0008DF800301822002101A8FCF7C9BF00B5CE
:1059F00087B000F099F900F0D5F9812200F051FA52
:105A000000F010F800284CBFFF209DF8000007B000
:105A100000BDADF806203F21ADF80410032204922A
:105A200007A9039101220692CDF814D0002101A804
:105A3000FFF75BBD2DE9F84DC7B09446DDF840E1B6
:105A4000519A559D569EDDF84CA1ADF81D108DF86C
:105A50001C004FF0000BADF81FC08DF821308DF801
:105A600022E000F02CF800F01FF824F8095F6680AF
:105A700000F098F93F20ADF8040083210120ADF833
:105A8000061000F00AF8FFF7CFFF00284CBFFF20F8
:105A90009DF8000048B0BDE8F08D07AA5744069075
:105AA00003920D370497704788F800A007AC54990B
:105AB000E419524608F101005444FCF75BBF8DF82D
:105AC0002320174652998DF800B00DF1240809A83B
:105AD000B844FCF74FBF00B5C7B000F03EF900F086
