:020000040800F2
:1000000008100020993F00083540000837400008DC
:10001000674100086B4100086F41000800000000C4
:10002000000000000000000000000000394000084F
:100030003B400008000000003D4000083F40000831
:1000400073410008774100087B41000855400008D3
:100050007F410008834100084340000887410008B1
:100060008B4100088F41000845400008934100087B
:10007000974100089B4100084F4000089F4100083D
:10008000A3410008A7410008AB41000800000000A0
:1000900000000000AF410008B341000847400008DD
:1000A000B7410008BB410008BF410008C341000838
:1000B000C7410008CB410008CF410008D3410008E8
:1000C0000000000000000000D74100080000000010
:1000D00049400008DB41000800000000DF41000843
:1000E000E3410008E741000800000000EB41000880
:1000F0005D40000859400008EF410008F341000846
:10010000F7410008000000000000000000000000AF
:10011000FB410008FF410008034200080000000006
:1001200000000000000000000000000000000000CF
:1001300000000000000000000742000838B504007D
:1001400009D004F18005686808B900F01EF800F0D5
:1001500021F8012801D1012032BDA06A08B100F0C8
:100160002AF800F00AF821F02A01FFE7816000F088
:100170001BF8BDE8324000F0E8BA2068416821F47D
:1001800090414160206881687047002129702046B5
:1001900000F0D5BB24206860206801684908490048
:1001A0000160204600F066B92068016841F0010155
:1001B000016020467047204600F064BA216851E88B
:1001C000002F7047206800F1080151E8001F00F17E
:1001D000080221F0400142E8001000287047F8B5FD
:1001E000044640F60F002668F1693268B36808409B
:1001F00004F15C050ED1880602D5900602D4D80021
:1002000040F181806969002900F029812046BDE81C
:10021000F4400847DFF89006034204BFDFF88C760D
:100220003A4270D0CF0707D5D70505D501273762E9
:100230002E6B46F001062E638E0708D5DE0706D525
:10024000276802263E622E6B46F004062E634E0798
:1002500008D5DE0706D5276804263E622E6B46F0D9
:1002600002062E630E070AD5960601D4034206D075
:10027000266808203062286B40F0080028630805D3
:1002800009D5500107D526684FF400603062286B0D
:1002900040F020002863286B002833D0890607D55A
:1002A000900601D4D80003D5696909B12046884772
:1002B000286B21688A68510602D410F0280F1CD0E0
:1002C000204600F0C7FA00F0D1F811D5FFF77AFF09
:1002D000FCD1286A60B10FF2DD518163286A00F019
:1002E0003AFC00280ED0286A816BBDE8F44008472C
:1002F0002046BDE8F24000F0F5BC204600F0F2FCDC
:1003000000202863F1BD286901286AD1CF0668D58D
:10031000D00666D51020306200F0A8F82DD5296AE5
:100320000868406880B20028ECD02A889042E9DA58
:100330006880086801688A061BD4FFF73FFF22F433
:10034000807200F08FF8F8D1206800F077FAFBD1C6
:10035000FFF738FFFCD12020E86200202861FFF77A
:100360002DFF22F0100200F07DF8F8D1286A00F08D
:10037000BCFB29886888091A2DE028886988411AF9
:10038000688800281CBF88B2002868D0226852E81C
:10039000003F23F4907342E800300028F6D1206833
:1003A00000F1080200F1080352E8002FDFF8B8025C
:1003B000024043E800200028F1D12020E86200201C
:1003C00028616861226852E8003F23F0100342E888
:1003D00000300028F6D12046BDE8F44089B200F094
:1003E00082BCC80209D5580207D54FF4801030628C
:1003F0002046BDE8F24000F077BC080609D510069B
:1004000001D4180205D5A96949B32046BDE8F440D6
:100410000847480611D550060FD5FFF7CFFE22F04A
:10042000400200F01FF8F8D12020A8620020A86147
:100430002046BDE8F24000F0E6BA080206D55000BA
:1004400004D52046BDE8F24000F04FBCC80148BFCB
:10045000002A04D52046BDE8F24000F047BCF1BDBB
:1004600022F4F07241E8002000287047206881687B
:1004700048067047F8B50446DFF848042168DFF8FD
:1004800048C40A68DFF844740240A0680243206947
:10049000024360690243E06902430A6000254A683A
:1004A000E06822F4405202434A60A369DFF8202446
:1004B00091421CBF206A03438E68DFF8180406408F
:1004C00033438B600FF2A416CB6A606A1B0940EAC3
:1004D0000313CB626145DFF800044FF4004339D1C8
:1004E0003F6807F00307032F4DD8DFE807F0024607
:1004F00043494FF0010CE169B1F5004F4FF6F07739
:1005000040F08080BCF1010F09D0BCF1020F0AD08D
:10051000BCF1040F71D0BCF1080F71D099E000F06C
:1005200042FC002815D0626A616836F81230B0FBD0
:10053000F3F04A0802EB4002B2FBF1F080B2A0F106
:100540001001B942EAD20740C0F3420007432068D5
:10055000C7607FE0914216D13F6817F4406723D00F
:10056000B7F5806F09D0B7F5006F03D0B7F5406FCE
:1005700006D008E04FF0020C07E04FF0040C04E056
:100580004FF0080C01E04FF0100C9142B3D1BCF1D8
:10059000000F09D0BCF1020F0AD0BCF1040F15D036
:1005A000BCF1080F15D054E000F0F5FB002851D045
:1005B000616A36F81120B0FBF2F6626802EB420184
:1005C0008E4246D31103B14205D242E000F099FBBE
:1005D000ECE71846ECE75008002110EB062051EB41
:1005E0001661002300F0FCFBA0F54071DFF8EC225F
:1005F00091422ED22268D0602CE000F082FB90E77E
:10060000184690E7BCF1010F09D0BCF1020F09D0E8
:10061000BCF1040F18D0BCF1080F18D019E000F09D
:10062000C2FBB8B1626A36F812306168B0FBF3F011
:1006300000EB5100B0FBF1F080B2A0F11001B94223
:1006400007D22168C86005E000F05BFBE9E71846C7
:10065000E8E7012504F168000121418001800021C3
:100660008160C1602846F2BDFEFFFFEF010002007D
:100670000400060008000A000C00100020004000E2
:100680008000000190F82810CA0706D50268536858
:10069000C16A23F400330B43536090F828108A0793
:1006A00006D502685368016B23F480330B43536013
:1006B00090F828104A0706D502685368416B23F466
:1006C00080230B43536090F828100A0706D5026870
:1006D0005368816B23F400430B43536090F8281058
:1006E000CA0606D502689368C16B23F480530B4396
:1006F000936090F828108A0606D502689368016C0A
:1007000023F400530B43936090F828104A0610D549
:1007100002685368416C23F480130B435360416CAF
:10072000B1F5801F05D15368816C23F4C0030B43DE
:10073000536090F828100A0606D501684A68C06C14
:1007400022F4002202434A607047F8B5044604F1DF
:1007500080050020E8606FF07E4700F059FC0646F7
:10076000206801680A0708D50097334600224FF435
:100770000011204600F017F860B9206801684A07A8
:100780000AD50097334600224FF48001204600F03E
:100790000AF808B10320F2BD20206860A86000209C
:1007A000E0662870F2BD2DE9F041069C05460E4634
:1007B00090461F462868C1693140B1420CBF0120F4
:1007C0000020404526D114F1010FF3D000F020FCA9
:1007D000C01B844200D33CB900F025F800F02DF88E
:1007E000FCD100F01AF811E0286801684A07E1D549
:1007F000C1690A05DED54FF40062026200F013F809
:1008000000F01BF8FCD100F008F8C1600021017075
:10081000032000E00020BDE8F08105F180002021E8
:10082000416081607047296851E8002F22F4D0723E
:1008300041E800200028F6D17047286800F108013F
:1008400051E8001F490800F10802490042E8001081
:1008500000287047026852E8003F23F4907342E892
:1008600000310029F6D1016801F1080201F1080305
:1008700052E8002F0E490A4043E800210029F2D136
:10088000C16E012908D1026852E8003F23F010032D
:1008900042E800310029F6D12021C0F8881000215B
:1008A000C1660167704700000100001020010004CC
:1008B000FEFFFFEF806A00F1560100220A810A80E4
:1008C00000F010BAF369FFCF0038014088000058EB
:1008D00000800040FFF4FF110024F40000FD0F0031
:1008E0004E4900E04E4981B00A6802430A60096837
:1008F00008400090009801B0704798B949484A49AB
:1009000001604FF4E131416000218160C16001610B
:1009100081610C2141614FF40041C161002181627C
:10092000FFF70CBC7047002804BF3E48FFF757BCD8
:10093000704718B93B48806F00F043B9704738B52D
:1009400086B004466846142100F068FB2168364AE8
:10095000914248D10120FFF7C5FF4FF4007000F02D
:1009600044F80120FFF7BEFF4FF4806000F03DF82F
:100970002F48304D816A8908890041F00101816268
:100980000022016841F4804101600F21006800F4F9
:10099000804005900598242000F060FB242000F0A2
:1009A0007BFB0120FFF79CFF0420FFF799FF224803
:1009B00028600F2068601020A8600020E860802078
:1009C000286100206861A861E8612862284600F07B
:1009D00035F8A567AC6200220F210E2000F03EFB27
:1009E0000E2000F059FB07B030BD0090022100201E
:1009F00001910290032107200391049069464FF072
:100A0000904000F09FBB00680749884204D1074925
:100A10000868002818BF00477047000048000058C9
:100A20004C000058E0200020003801401024002035
:100A300060000058802200204400024038B50400C5
:100A400001D1012032BD2168DFF880024018142254
:100A500004F12405B0FBF2F2DFF87402E8619200C1
:100A60002A62022068700A68A0686FF30E120243BF
:100A7000E06802432069024360690243A0690243BF
:100A8000E0690243206A02430A60204600F0F9F858
:100A9000A068B0F5804F04BF002161602079696AC9
:100AA00000F03F0000F014F838B1052805D22046C8
:100AB00000F0FBF800F012F803E000202863686300
:100AC000A8630020A861012068700020287032BD52
:100AD0000860A96AE86A486060687047296B00206E
:100AE0000860696BA86B4860704781B040B100F145
:100AF00024014A78022A05D0042088610020087069
:100B0000012026E00268136823F00E0313604A6A8E
:100B1000136823F48073136000680268520852005F
:100B20000260012091F82020CB6902F01C02904065
:100B300058608A6AC86A5060086B30B1026822F453
:100B4000807202604A6B886B506001204870002000
:100B5000087001B0704738B500F1240200245178C4
:100B6000022903D004209061012428E001680B6869
:100B700023F00E030B6001680D686D086D000D60B9
:100B8000516A0B6823F480730B60012192F82030C6
:100B9000D56903F01C0399406960936AD16A596072
:100BA000116B31B10B6823F480730B60536B916B45
:100BB0005960012151701470516901B18847204674
:100BC00032BDF8B500F124010423CA691468026833
:100BD000156891F8206006F01C0603FA06F73C42FF
:100BE00010D06F070ED51468A50603D4156825F03C
:100BF0000405156000F03DF8C968002938D0BDE84B
:100C0000F4400847022303FA06F73C4213D0AF072B
:100C100011D51468A50605D4156825F00A051560D8
:100C200001224A7000F025F800220A708968F9B1A3
:100C3000BDE8F4400847082303FA06F6344217D00B
:100C40002B0715D5136823F00E031360012291F8CA
:100C50002030CC6903F01C039A40626001228A6153
:100C60004A7000220A70096911B1BDE8F4400847D2
:100C7000F1BD91F82020CC6902F01C029340636022
:100C80007047426C1349920801EB8201816414227F
:100C900001780839B1FBF2F10F4AC26401F01F017B
:100CA000012202FA01F10165704701790B4A01F056
:100CB0003F0102EB81024265491E094A826501F04B
:100CC000030101228A40C26570470000F8FFFDBFA2
:100CD000000002400008024080080240FC08024078
:100CE00040090240704770477047704770470000E6
:100CF0004FF0B040006800F0F000B02888BFB0208E
:100D0000704738B54FF0B044304DA16811F00C0178
:100D100006D1FFF7EDFFC0F3031055F8200032BDF8
:100D200004292B4A05D008292A4804D12168C90280
:100D300022D5104632BDE16801F00301022904D03A
:100D4000032904D12168C90207D5104605E0FFF741
:100D5000CFFFC0F3031055F82000E168E268E368B4
:100D6000C1F306214843C2F30211491C5B0FB0FBDB
:100D7000F1F05B1CB0FBF3F032BD80B5FFF7C1FFB3
:100D80001149FFE7144A0968C1F3031152F8211011
:100D9000B0FBF1F002BD80B5FFF7EFFF00F010F8F7
:100DA000C1F3022106E080B5FFF7E7FF00F008F885
:100DB000C1F3C22112F8211001F01F01C84002BD89
:100DC0000149064A0968704708000058A03E00081B
:100DD0000024F4000048E801603E00080C410008CF
:100DE000B3BBD9B1B2F5803F7DD2022A1ED98C4661
:100DF000B1FBF2F102FB11C31B0443EA1043B3FB46
:100E0000F2FC02FB1C3380B240EA0343B3FBF2F076
:100E100002FB103240EA0C4000237047022A05D939
:100E20008446B0FBF2F002FB10C270474AB105D114
:100E300000F0010249085FEA3000704700220023F9
:100E4000704700F051BA0B000200002100207047EB
:100E5000904271EB030CF6D3B3F5803F2FD2F0B57F
:100E6000B3FA83F7B1FA81F4A7F10F0E3D1B53409B
:100E7000CEF1200602FA0EF2F3415340B5F10F070E
:100E800046D80F3C2C444140C4F12006A040F1411B
:100E90004140B1FBF3F603FB1611A2FB0645001B14
:100EA000A94102D2761E8018594180EA010221FA36
:100EB0000EF362FA0EF200215A403046F0BD30B413
:100EC000B1FBF3FC03FB1C11A2FB0C45001BA94169
:100ED00003D2ACF1010C8018594130BC02460B46DC
:100EE000604600217047B2F1807F65D3F0B5B2FA59
:100EF00082F7B1FA81F4C7F10F063D1B22FA06F31F
:100F000007F1110EF24120355A40B5F10F07B8D95B
:100F10004140C4F12006A040F1414140B1FBF3FC47
:100F200003FB1C11A2FB0C45001BA94103D2BCF121
:100F3000010C801859410F2F12D30F3FC90341EA0A
:100F40005041B1FBF3F603FB1611A2FB0645D4EBAF
:100F5000C030A94102D2761E8018594146EACC3CE5
:100F600007B34140C7F12006B840F1414140B1FB11
:100F7000F3F603FB1611A2FB0645001BA94102D2A2
:100F8000761E8018594180EA010221FA0EF3C7F15A
:100F9000200462FA0EF20CFA07F05A402CFA04F11F
:100FA0003043F0BD80EA010221FA0EF3002162FA1B
:100FB0000EF260465A40F0BD8C46B1FBF2F102FBE6
:100FC00011C31B0243EA1063B3FBF2FC02FB1C33A8
:100FD0001B024CEA002043EA1063B3FBF2FC02FB65
:100FE0001C331B024CEA002043EA1063B3FBF2FC03
:100FF00002FB1C331B024CEA002043EA1063B3FBE4
:10100000F2FC02FB1C324CEA002000237047000077
:1010100001484068704700BFD0200020002200F047
:1010200065B900000901020081B002D43C48815436
:1010300005E03C4802F00F02104400F8041C01B027
:101040007047394A13684FF6FF0100020B4000F465
:10105000E0601843354908431060704738B5324B9B
:101060001C68C4F30223C3F10704052C28BF042421
:101070001D1D072D34BF0023DB1E012505FA04F4D6
:10108000641E2140994005FA03F35B1E1A40114388
:10109000BDE83440C6E70000010007D4012200F09B
:1010A0001F01234B8A40400943F82020704701006C
:1010B0000BD4012200F01F011E4B8A40400943F867
:1010C0002020BFF34F8FBFF36F8F704710B5401EC6
:1010D000B0F1807F01D3012010BD174C60600F215B
:1010E0004FF0FF30FFF79EFF0022A2600720206034
:1010F000002010BD010007D4012200F01F010F4B9A
:101100008A40400943F820207047010007D401229B
:1011100000F01F010A4B8A40400943F82020704725
:1011200000E400E018ED00E00CED00E00000FA053E
:1011300000E100E080E100E010E000E000E200E01B
:1011400080E200E02DE9F84F4FF00009604A614B62
:101150004FF00F0805460E4633E05F4FBD4214BF07
:10116000072704278F4027434CF82E70C1431C6883
:1011700001EA040C7468E40248BF40EA0C0CC3F8AE
:1011800000C05C6801EA040C7468A40248BF40EA2D
:101190000C0CC3F804C0146801EA040C7468E4037E
:1011A00048BF40EA0C0CC2F800C0546801EA040CC5
:1011B0007168890348BF40EA0C0CC2F804C009F109
:1011C0000109316831FA09F078D0012404FA09F4F0
:1011D00014EA0100F3D04FEA490C032101FA0CF1A3
:1011E0006FEA010E716801F00307012F1CBF01F0C7
:1011F0000301022911D1A968F7680EEA010107FA73
:101200000CF73943A960696821EA04047168C1F3E5
:10121000001101FA09F10C436C604FEA890134793D
:1012200004F00304032C1FD0EC68B7680EEA040432
:1012300007FA0CF73C43EC60347904F00304022C09
:1012400012D14FEAD90705EB870401F01C07D4F847
:1012500020A008FA07FB2AEA0B0AD6F810B00BFA0E
:1012600007F747EA0A0727622C680EEA0407347971
:1012700004F0030404FA0CF43C432C60746814F486
:10128000403F9CD0DFF854C04FEA990E5CF82E70B6
:1012900001F00C0108FA01F427EA0404B5F1904FBB
:1012A00008BF002709D00E4FBD4208BF012704D058
:1012B0000C4FBD427FF451AF022753E7BDE8F18FD9
:1012C00081B0002A14BF8161816201B070470000C3
:1012D000800800580008005800100048080001402D
:1012E00000040048000800487047000000B500BF37
:1012F000130096469446103928BFA0E80C50FAD83F
:101300005FEA417C28BF0CC048BF40F8042BC907E6
:1013100028BF20F8022B48BF00F8012B00BD0000B9
:10132000DFF8F0140A6892B200E00246086880B262
:101330008242FAD170472DE9FC4104461825DFF8B6
:10134000D884DFF8D864684308EB000730780628B3
:1013500008D131787170347078754FF0FF3070605B
:10136000002039E000F077F8B9680918B96008F191
:101370000803B96832786A439A589142327813D395
:1013800008F1150315FB02FC13F80C30062B25D0D1
:1013900008F108066B43F358994222BF08F1150380
:1013A0006A439A5CEED219E01146337869439A4257
:1013B0000BD008F1140308F1150C5B5C15FB03F569
:1013C0000CF805407A753B7500E07A7508F1140257
:1013D0005454317871703470BDE8F6811146694318
:1013E00008F115035B5C062B04D008F1140615FB0D
:1013F00003F574557B753A7508F115025454EBE703
:10140000F8B5DFF81834DFF810541E7818240246B7
:101410006243B0422A4404D118785870507D187045
:101420000FE0167D507D92F815C005F11507664353
:10143000062807F806C004D0167D143514FB00F406
:101440002E55012010731878062802BF00294FF08E
:10145000FF315960F1BD10B5DFF8C043606810F18D
:10146000010F0FD0FFF75CFF6168DFF8B423814202
:1014700061683CBF5388C918081A517848431178ED
:10148000C84000E0002080B210BD2DE9F84FDFF821
:101490009053DFF890B3D5F80880D8F80000DBF857
:1014A00000104A0500F06AF9DFF87063DFF868A3FE
:1014B00021F4806181604FF0180934780AF1080046
:1014C00019FB04F14758FFF7C6FF874217D20027E0
:1014D0000121B170062C3DD019FB04F40AF108017A
:1014E0000AF108020959814223BF0AF1080109598A
:1014F000091A002111510AEB04014C7DEAE7A98881
:101500004118B94202D2AF880021E2E73F1ADFE773
:10151000022802DA2878012800D07F1ED8F80000BF
:10152000C1684A07FAD500F02FF9DBF80C00000C6F
:10153000BFB247EA0047CBF80C70FFF7F1FE7060CE
:10154000A8680068816841F480618160AFF3008021
:10155000BDE8F18FB8B20028DAD1FFF7E1FE706084
:101560000320BDE8F24FFFF7C5BD2DE9F843EFF3C7
:10157000108872B6AA4DA84BA8680168CA224A62B0
:1015800053204862A54A886820F48060886018204B
:101590001678374647431F44387B022826D13C68DB
:1015A000D7F810909078F0B17A7B012A0AD1012106
:1015B0003046FFF725FF88F310887968304600F041
:1015C000F0F804E088F31088304600F09BF8A86833
:1015D0000068CA2141622246532141624846314691
:1015E00000F02AF90BE0FFF750FF06E0C868420759
:1015F000FCD500F07EF88C49086088F31088FF2144
:10160000A86802685162BDE8F183F8B5844CA16016
:10161000CA2209684A6253224A62824A136843F026
:1016200020031360136803F00703C3F1040323705E
:1016300095682D0C05F07F056D1C6570EDB2926804
:10164000C2F30E02521C628092B2521E6A43A2F58D
:10165000A072DA404FF6FF739A422CBFA380A2809B
:10166000724A136843F400231360714B1D6845F4FC
:1016700000251D6048BB6948674E0123837018250B
:101680004FF0FF33436000235FFA83FC06F10C0741
:1016900015FB0CFC4FF0000E07F80CE05B1CDFB2F2
:1016A000062FF1DB06230370886820F480608860D1
:1016B00000F01FF8D0600320FFF727FDA16808683D
:1016C000826842F48042826005E0C868410544BFF8
:1016D0000320FFF70FFDA1680A68FF205062002277
:1016E00003210320FFF7BAFCBDE8F2400320FFF717
:1016F000D3BCC86800F0800060F49060C8604FF40C
:1017000000207047F8B50746EFF3108472B6032047
:10171000FFF7CDFC424DAE683068CA2141623A46BF
:1017200053214162182043494243895C02291BD15D
:1017300000213846FFF764FE3848017806290ED1AB
:10174000306838490A68530500F018F821F48061C0
:101750008160C1684A07FCD500F016F804E04078C3
:10176000884218BFFFF791FEA9680A68FF205062FF
:101770000320FFF791FC84F31088F1BD02D5C16806
:101780004A07FCD481687047C16801F0800161F4A8
:101790009061C1604FF40020234908600320FFF7E7
:1017A000B4BC2DE9F04180460F46424618201A4944
:1017B00042438C18207B022804BF4046FFF7A2FF5B
:1017C000EFF3108572B60320FFF771FC144EB0687A
:1017D0000068CA2141625321416202202073A76040
:1017E00067604046FFF7A7FD0C490A7849789142A7
:1017F00002D0FFF74AFE02E0A168081AA060FF20AD
:10180000B1680A6850620320FFF746FC85F3108830
:10181000BDE8F08128280040702100200424002029
:1018200074230020082800400C08005800080058C5
:10183000800800587C2100201047000010B596B0A9
:1018400009A80FF2AC21834C342200F07BF90FF28F
:1018500055200190009469460FF2312000F0B6F94E
:101860000121022000F09BFA7B4A0021012000F0B8
:1018700014FB09A800F0BFFB08B100F095FC0020A4
:10188000ADF81A0000F092FC00F0C8F802460621FC
:10189000002000F0AFFC4EF66E50089007AA6F498A
:1018A0000868079006212E2000F0A4FC0FF21822F1
:1018B0001021182000F09EFC0FF21C22102108209D
:1018C00000F098FC1821012000F0BBFC00F0E4FCC3
:1018D0000DF1160006A90190009105AB0722002129
:1018E000012000F099FE0FF2D010BDF81810009002
:1018F0000723BDF81400002200F08EFD0DF11A0040
:1019000000900223BDF81610BDF81400002200F06C
:1019100083FD002000F034FE002004901023504985
:1019200003910820002201930090029200230121DC
:10193000012000F03EFE00F0FFFE4A484FF4004157
:1019400001604FF00051026F48780C2802F0FF024E
:101950000EDC00200870BFF34F8F434943480A68EC
:1019600002F4E06202430A60BFF34F8F00BFFDE75D
:1019700089780B189A4238BF111A00F053FF00F013
:101980004DF83B4942790A7202794A72C2788A72EA
:101990008278CA7242780A730278521C4A7306210E
:1019A00042798DF8052002798DF80420C2788DF8EF
:1019B000032082788DF8022042788DF801206A4653
:1019C0000078401C8DF80000002000F013FC00F0AF
:1019D0000AF816B010BD80B54078052808BF00F0A1
:1019E00002F8012002BD00B587B0002006900590E6
:1019F00000220FF2F40004920821002302900191CA
:101A000000920393A0228021002000F070FD07B017
:101A10005DF804EB16490E2000F02EBE80B50F498C
:101A20000A6812F1010F0DD012484B6802701B0AB0
:101A3000120A427049688170C370190A01711B0C47
:101A4000437102BD002000F0B1FF08B90FF2700031
:101A500002BD0000A00803200B1C00088075FF1FBA
:101A600007B20100104000580CED00E00400FA0538
:101A7000C0200020DC2300200021012000F01ABA41
:101A8000012000F03DBA012000F042BA10B5044632
:101A9000616801F1080000F05FFE00B101202070D4
:101AA00010BD000010B1012803D07047012000F0E4
:101AB00015BA00F01BBA0000424C45636F72650016
:101AC0000000000000000000123456789ABCDEF0DE
:101AD000123456789ABCDEF0FEDCBA0987654321E1
:101AE000FEDCBA09876543210953544D5F4F5441C9
:101AF00000000000000000000000000000000000E6
:101B0000000000001E0004000A0502011C3AFB0050
:101B1000F4010000FFFFFFFF48010100002000006A
:101B20000000000062B38B0708D0521E11F8013B81
:101B300000F8013B00F024808B07F6D1830740F0CA
:101B4000208000BF103A07D330B4B1E83810103A03
:101B5000A0E83810F9D230BC530724BFB1E8081010
:101B6000A0E8081044BF51F8043B40F8043BD207FA
:101B700024BF31F8022B20F8022B44BF0B780370EE
:101B80007047121F17D35B0009D151F8043B20F8AE
:101B9000023B1B0C121F20F8023BF6D20BE051F85F
:101BA000043B00F8013B1B0A20F8023B1B0C121FF0
:101BB00000F8013BF3D238BF121D521E24BF11F8AA
:101BC000013B00F8013BF8D8704700007FB50C4698
:101BD0006D4D61686D4EE8612962284600F0F8FE9F
:101BE000246805F1240000604060746006F108007C
:101BF0000060406001203070296829B10FF2551053
:101C000000900294684688477FBD1FB55F4C04F181
:101C1000080000F0EAFE00BB2178F1B1694604F14A
:101C2000080000F00BFF5848C16949B100980290C4
:101C300001228DF8042001A888479DF8040000E0E7
:101C400001202070207818B1009800F0ACFF04E06B
:101C5000009904F1080000F0D1FE04F1080000F042
:101C6000C4FE28B9207818B104F10800FFF704FF7A
:101C70001FBD2DE9F8430646002000F05FF8748888
:101C80003088B268DFF80081C4F3090444EA802494
:101C9000F068A4B2C1B2204600F03CF8002748F238
:101CA000E8094846FFF7EFFE08E06888A04202D145
:101CB000316928780870687800B1012708F124009C
:101CC00000F093FEF0B9694608F1240000F0B6FE7A
:101CD000009800F10B05407A0F28E6D0B5F8011006
:101CE000A1420DD10098817AC81E7169C0B28842A4
:101CF000C8BF0846706102463069E91CFFF712FF51
:101D00002878D9E73800CCD0012000F017F800205F
:101D1000BDE8F28310B513461C4A5468A4F80900C4
:101D2000E1720A46194604F10C00FFF7FBFE164A61
:101D30001369BDE810400021002018471249096AC4
:101D400082B008B921B101E011B1012002B0084709
:101D500002B0704710B50146487A0F2818BF0E2808
:101D600007D10B4800F054FEBDE810400020FFF7FB
:101D700087BE064C04F1080000F04AFE04F108009A
:101D8000BDE81040FFF778BEE0220020B02300201D
:101D9000042300200C48002101604160704710B509
:101DA00000F00CF85C6819B1012904D1204301E06E
:101DB00024EA0000586082F3108810BDEFF310820F
:101DC00072B6014B70470000E42300202DE9FC4768
:101DD000604CDFF88491A5692840A0614FF0FF3A7C
:101DE00021694FF0010834E0521C54F83200616957
:101DF00019400142F8D0616904EBC20608407168DD
:101E00001840014208BFC6F804A07768384000F0C7
:101E1000A5F8606208FA00F087437760EFF310815D
:101E200072B6626A206908FA02F2D2431040206159
:101E3000022004EBC00353F8086C1640401E43F820
:101E4000086CF6D181F31088606A59F82010884731
:101E50002169A36960690140194205D0E069216ADE
:101E6000084208BF0022C0D0C4F824A000F0E8FE59
:101E7000EFF3108972B6216960690140A0690142DF
:101E800001BFE169206A014200F090FF89F31088E8
:101E9000C046C046A561BDE8F38738B51446EFF3E8
:101EA000108572B600F05AF82B4941F8204085F3AE
:101EB000108831BD10B500F00BF804431C6153F8D5
:101EC0003140204343F83100FFE782F3108810BD12
:101ED000EFF3108272B61F4B1C697047EFF310814D
:101EE00072B61C4A536923EA000005E0EFF3108143
:101EF00072B6184A53691843506181F310887047CD
:101F0000EFF3108172B6134AD3691843D061F4E736
:101F1000F8B5104C666A256A374616F1010F0EBFF8
:101F20000026012101FA06F6206202E0304600F0A8
:101F30003EFF216AE0690842F8D06762EFF3108142
:101F400072B6E269206A8243E26181F310882562F9
:101F5000F1BD000098200020002200200246002051
:101F6000110C090404BF1020120412F07F4F04BFAB
:101F7000083012020FF2180112F0704F04BF001D5A
:101F80001201120FC0F11F00895C401AC0B27047E5
:101F90000403020201010101000000000000000032
:101FA0001FB500F044F84FF6524000F064FF14B142
:101FB0009DF80F0020700EE01FB5002408B10090BE
:101FC000042409B10191241D6B466A46E1B24FF623
:101FD000544000F050FF9DF80E0004B010BD00F01A
:101FE0004AFF9DF80E0005B000BDF8B500F020F8DE
:101FF0004FF65A40F3E7F8B500F10C026B46252185
:102000004FF66640EBE7F8B500F10C026B460F2186
:102010004FF66840E3E7F8B500F003F84FF6694083
:10202000DDE78DF800006B466A46012170470446E3
:102030006B46002200217047F8B5FFF7F2FF4FF61C
:102040007340CCE710B55049504C4FF40040086045
:1020500000F060FF606840010ED56068C0000BD4DE
:1020600000F084FF00F082FF206840F480302060A0
:10207000216821F48031216000F013F800F057F856
:102080004348016800220260026902F050020261C6
:1020900000F028F800F0E3FD4FF0FF30FFF796FE68
:1020A000FAE73C4881B0016841F4801101603F21AA
:1020B000006800F48010009000983748416041614A
:1020C000016841F47C110160026942F47C120261F2
:1020D000016841F03F010160026942F03F02026184
:1020E00001B0704710B500F041FF00F03FFF2748F6
:1020F0002A4C016821F4407141F4807101600F2184
:10210000026842F4004202602548816047F6FF7190
:10211000C160046000F054FFCA206062FF215320B8
:102120006062A068C008C000A060616210BD80B598
:1021300000F01CFF00F01AFF1448016841F0010193
:10214000016001688907FCD5416821F4404141F4F0
:102150008041416001BD38B50446FEF759FF14F1D6
:10216000010F054609D000F0E9FE241805E00D48EE
:10217000016821F00401016030BFFEF749FF401BF8
:10218000A042F4D331BD0000104000589000005828
:102190008008005850000058040C005800280040E7
:1021A0000C23002010ED00E072B6FEE700B587B00A
:1021B00000F010F8012003220690ADF80420ADF8DD
:1021C000062000F011F800284CBFFF209DF8000009
:1021D00007B000BD00208DF800001822002101A8E2
:1021E00000F098BF03900691CDF814D0002101A80B
:1021F000FFF73FBD18B50C46C7B0114600228DF859
:1022000000208DF81C008DF81D4022460DF11E00A7
:1022100000F07AFF00F02AF83F200C21ADF804000E
:10222000ADF8061007A8012103900691A41C0494A0
:1022300000F02CF800284CBFFF209DF8000048B0AB
:1022400010BD00B5C7B000F00AF80F2000F013F879
:1022500000284CBFFF209DF8000047B000BD0022C1
:102260008DF800208DF81C008DF81D10182200211B
:1022700001A800F04FBFADF8060007A902200490A6
:102280003F22012003910690ADF80420CDF814D030
:10229000002101A8FFF7EDBC00B587B000208DF844
:1022A000000000F0E0F840F20110ADF806003F2217
:1022B0000120069000F013F900284CBFFF209DF884
:1022C000000007B000BD2DE9F84107460128C7B05E
:1022D000884615461E4608BF022003D002280CBFC0
:1022E000102000200DF11D010C1800F036F8012F10
:1022F0008DF81C7002D0022F18D019E002273A4640
:1023000041460DF11D0000F0FFFE2570667000F0E3
:10231000AAF83F204FF4817100F016F8FF1C0497D3
:1023200000F0DFF8002805D5FF2009E01027E6E7D8
:10233000972005E09DF8000010B94E9800F067F86E
:10234000FFE748B0BDE8F081ADF80400ADF8061035
:1023500007A80321039006917047032200216846D5
:1023600000F0D8BE2DE9F64F0C460546012CC7B04B
:102370009B4608BF022003D0022C0CBF1020002077
:102380000DF11F010E18FFF7E8FF012CADF81C50EE
:102390008DF81E4002D0022C2CD02DE00227569C36
:1023A000559DDDF85091DDF84CA1DDF84881489944
:1023B0003A4600F054F8A6F800B086F8028086F895
:1023C00003A086F804907571B47100F04CF83F20BA
:1023D000ADF804004FF4827107A8ADF80610039021
:1023E00003210A370497069100F07BF8002805D5F1
:1023F000FF2009E01027D2E7972005E09DF80000B4
:1024000010B9579800F003F849B0BDE8F08FBDF857
:10241000011001800020704730B5C7B01C464A9BB0
:1024200000F049F800258DF800508DF82140224633
:1024300019460DF1220000F067FE00F014F83F206D
:102440004FF4837100F042F8A41D049400F049F8A1
:1024500000284CBFFF209DF8000047B030BD0DF1B3
:102460001F0000F051BE1822002101A800F052BE4A
:1024700078B5C7B04C9C4D9D00F01DF800268DF836
:1024800021308DF800608DF822402246294600F068
:1024900019F8FFF7E8FF3F204FF4937100F016F8AA
:1024A000E41D049400F01DF800284CBFFF209DF8A7
:1024B000000048B070BDADF81C00ADF81E108DF8DE
:1024C000202070470DF1230000F01EBEADF804007F
:1024D000ADF8061007A80121039006917047ADF8EA
:1024E0000420CDF814D0002101A8FFF7C2BB2DE9CC
:1024F000F84DC7B09446DDF840E1519A559D569E7F
:10250000DDF84CA1ADF81D108DF81C004FF0000B4C
:10251000ADF81FC08DF821308DF822E000F024F8CE
:1025200000F017F824F8095F668000F0E7F83F2014
:10253000832100F0DBF8574406910D37049700F033
:10254000B5F800284CBFFF209DF8000048B0BDE85A
:10255000F08D88F800A007AC5499E419524608F1B0
:102560000100544400F0D0BD8DF823201746529945
:102570008DF800B00DF1240809A8B84400F0C4BDDE
:1025800000B5C7B000F00CF8852000F095F800F019
:102590008AF800284CBFFF209DF8000047B000BD1E
:1025A00000218DF81C008DF80010182201A800F001
:1025B000B1BD2DE9F841C7B04FF0000800F026F892
:1025C0000DF12300DDF844E14E9F4F9E509D529C3B
:1025D0008DF81F30C0F800E08DF800808DF8207075
:1025E0008DF821608DF822508DF8274000F086F894
:1025F0008620ADF8060007A90C2000F050F800284E
:102600004CBFFF209DF8000000F07DB88DF81C0045
:1026100007A8417082707047F8B5C8B005460E46ED
:1026200017461C4600F023F808A8467087708DF8FE
:10263000205000F056F88A21ADF80A103F200321FF
:1026400000F042F8002848BFFF200ED49DF800009B
:1026500058B94F994E98BDF801202280BDF803204B
:102660000280BDF805000880002049B0F0BD0722B7
:102670000021684600F04EBD18B5C7B000F051F813
:1026800000F03CF83F208E2100F040F800F00EF8FA
:1026900000284CBFFF209DF8000048B010BD0490FA
:1026A0003F22012003910690ADF80420CDF814D00C
:1026B000002101A8FFF7DDBAADF8060007A9012047
:1026C0003F22039104907047ADF80800059108A8D7
:1026D000072104900791CDF818D0002102A8FFF738
:1026E000C8BA1822002102A800F014BDADF80400F9
:1026F000ADF8061007A801210390704718220021A9
:1027000001A800F007BD48B0BDE8F081ADF80400B5
:10271000ADF8061007A8012103900691641C0494EB
:102720007047044600208DF800008DF81C402246BA
:102730000DF11D0000F0E8BC1C49002008770022C4
:102740001B48027000F036B818490A7F41F8220091
:10275000087F401C0877704770B504466078FF28F2
:1027600002BFB4F8031001F47F41B1F5406F12D1FC
:1027700000260E4D00E0761C297FF0B288420AD276
:10278000F1B255F82110204688470100F3D002D05D
:10279000022805D006E02046BDE87040FFF71BB9CF
:1027A000002070BD012070BD0000000054230020F7
:1027B0001C24002080B5C046C046C046C046C04666
:1027C000C046C046C046C046C046C046C046C046D9
:1027D000C046C046C046C046C046C046C046C046C9
:1027E000C046C046C046C046C046C046C04600F0CF
:1027F000EDFCC046C046C046C046BDE8014000F002
:102800005DBD000000EB8100654AD0F88010914268
:1028100001D0012070470020704742F4806240F8E8
:10282000212070472DE9F04104460D460026DFF8CF
:10283000748102214046FFF7E5FF0028F9D100F03E
:1028400070FD0120FFF7E7FB0027AF4215D23000F3
:1028500013D1381900F045F806467F1CF5E7002033
:10286000FFF7D9FB00F06BFD002202214046FFF785
:10287000D4FF00252846BDE8F081002EEFD0ED1BE7
:102880006D1CF7E72DE9F84380460C4615460026F7
:10289000DFF8109102214846FFF7B4FF0028F9D174
:1028A00000F03FFD0027AF4216D2AEB904EBC700DF
:1028B000D0E9002308EBC70000F023F806467F1C90
:1028C000F1E700F03CFD002202214846FFF7A5FF9A
:1028D00000252846BDE8F283002EF2D0ED1B6D1CCA
:1028E000F7E782B001460020009002E0009A521CF7
:1028F000009200982328F9D300220023002002B080
:1029000001E0014601202DE9F84F86B0022501269D
:102910000295049603918DF8000005919246DFF828
:102920008480214F9B46EFF3108938680003FCD464
:1029300072B6D8F8180008B1012519E00721404601
:10294000FFF760FF0025C4B294B99DF8000020B9DC
:1029500001A902A800F048FD05E0059952465B4632
:10296000012000F0B1FC002207214046FFF755FF8F
:1029700089F310880DB1002002E0002C03D0012063
:102980000020C0460646254318BF002ECDD138682A
:102990004103FCD4701E8041C00F07B0BDE8F08F2A
:1029A00000040080001400581040005801460648FA
:1029B000064AC3798B4218BF904218BF0838F8D135
:1029C0008B4218BF00207047F873FF1F0070FF1F75
:1029D0000249016002490161704700BFA32A000853
:1029E000C92A0008006040607047EFF3108172B69A
:1029F000026882420CBF012000201CE0EFF310822D
:102A000072B603680B60486001600868416023E0AB
:102A1000EFF3108272B6086043684B60416048680B
:102A2000016019E0EFF3108172B642680368136029
:102A300002684368536081F31088704710B5EFF364
:102A4000108472B602680A600068FFE7FFF7EAFFC9
:102A500084F3108810BD0B6082F31088704700006B
:102A600000F0AFBD6C486D49016001F12002426089
:102A700001F13002826001F13C02026201F1440284
:102A8000426201F14C02C26001F15402026101F1A3
:102A90007002426101F1740282618031C16100F013
:102AA000AEBD38B504465E4D2846FFF79BFF5A4839
:102AB0004068A1680160E168C16085605949416072
:102AC00000F0B9FD58482AE080B5534842681368C1
:102AD00001211972406800F0B4FD002002BD38B534
:102AE000514C4F4D04E000F041F8009821688847B0
:102AF0002846FFF77AFF0028F5D031BD4A484168E3
:102B0000084738B50446494D2846006040604248B1
:102B1000C068A1680160456000F098FD44482168E4
:102B2000016061684160002032BD80B53A48C268EA
:102B3000136810211972C06800F08EFD002002BDDC
:102B400035483B4AC168C16813680868184738B5FA
:102B5000374C364D04E000F009F80098616888476A
:102B60002846FFF742FF0028F5D031BD69462846C8
:102B7000FFF764BF38B504462E4D2846FFF732FFF5
:102B80002D480060406024480069A1688160E168C8
:102B9000C16005612168016061684160216941612E
:102BA0006169816131BD80B501462348FFF730FF7F
:102BB000BDE802400FF2050000F057BD38B5164CD5
:102BC0001D4D06E0FFF7D2FF009920690069FFF76D
:102BD0001FFF2846FFF709FF0028F3D031BD10B5CD
:102BE000164C2046006040600B4841690C60BDE80F
:102BF000104000F04EBD1CB5104C06E06946204662
:102C0000FFF71CFF0098C046C0462046FFF7EDFEC8
:102C10000028F3D013BD000000000320AC090320FE
:102C2000480A032090080320F4230020500A0320C0
:102C3000FC230020380A0320EC230020400A032054
:102C400070470000BFF34F8F264927480A6802F4F7
:102C5000E06202430A60BFF34F8F00BFFDE710B58B
:102C60002248234C88B0016841F400410160FFF71D
:102C700091F820480168C908C90041F004010160C9
:102C800000F020FD1C490020FEF7BFFC00F057FDBE
:102C900001210120FFF783F800F079F8FFF7E2FE49
:102CA000164A00210220FFF7F8F804F23C500FF218
:102CB00051010090019169460FF2490000F086F839
:102CC00004F25470029004F5C96140F23C50059042
:102CD0000391049402A8FFF74DFFFFF7C1FE08B06F
:102CE00010BD00000CED00E00400FA0508000058DB
:102CF00030000320800400580C2300200F2E000811
:102D00007047000038B50546686830F80B1FB1F50C
:102D1000124F15D180784FF0005490B921780229D4
:102D200008BF207030D000F019FD0120FFF784F9B2
:102D300000210120FFF733F8FEF780FD0120287005
:102D400031BD0020FFF72CF9FF281DD042F210758D
:102D500088B92078022808D100212170FFF745F9B1
:102D60000121002000F008F9FAE70220207000217C
:102D70000020FFF721F92846FFF7EDF90020FFF7C3
:102D80000FF910382028F6D3FFF75CFF00BF80B59D
:102D90000121002000F017FE0121012000F013FEA8
:102DA000BDE804400121022000F00DBE70474FF045
:102DB000FF30FFF70BB800210220FFF77BB802209D
:102DC000FFF79EB80220FFF7A3B800007FB50C46BE
:102DD0004D4D61684D4EE8612962284600F05AFE6B
:102DE0002468746006F1080000604060012000F073
:102DF00068F801203070296841B10FF2E9000FF244
:102E0000ED02009001920294684688477FBD1FB58D
:102E10003E4C04F10800FFF7E8FD00BB2178F1B15A
:102E2000694604F10800FFF709FE3748C16949B156
:102E30000098029001228DF8042001A888479DF88F
:102E4000040000E001202070207818B10098FFF7FE
:102E5000AAFE04E0009904F10800FFF7CFFD04F199
:102E60000800FFF7C2FD28B9207818B104F1080066
:102E7000FFF7A1FF1FBD2DE9F04105460E46904624
:102E80001C46002000F01DF8204F7868A0F809507B
:102E9000C672324641460C30FEF744FE1A4A1369A8
:102EA00000210020984748F2E800FFF78BFF79687F
:102EB0008A78D21C04F10800FEF734FEBDE8F04128
:102EC00001201CB51049124C096A20B901B188478C
:102ED0000020207013BD0120207011B1BDE81C40FE
:102EE000084713BD0020FFF76ABF000010B5014678
:102EF000064C04F10800FFF78BFD04F10800BDE863
:102F00001040FFF758BF000030230020C0230020EE
:102F10001D240020114810B5016841F48071016042
:102F20000320FEF78EF8002000F0BEFD00240028EC
:102F300014BF012400F018F8204610BD084800789E
:102F40007047084805E00748016841F00201016048
:102F50007047016841F0010101607047004000586E
:102F6000D0200020042004E07047000011480168D0
:102F700041F480710160704710B50C460E4900287D
:102F8000086805D1810507D500F0A8FB20B110BD68
:102F9000810558BF00F09CFB0848016821F004013E
:102FA000012C016001D130BF10BD40BF20BF20BF48
:102FB00010BD0000000400581404005810ED00E09B
:102FC00038B5040044D094F8210028B9002184F8D1
:102FD00020102046C046C04600F049F8FF2510B139
:102FE00000F03FF834E02168DFF8B0008A68024062
:102FF0008A6021688A68636820690343A069034383
:103000001A438A602168E068086120680169A26843
:1030100041EA024101612068C16821F08001C1607C
:103020002068C16C21F00201C1642168CA6CE369A7
:10303000606903431A43CA6420688168880609D41A
:1030400000F020F830B120684562042100F01FF83C
:10305000012032BD20684562012184F82110002042
:1030600032BD20684562042184F821107047022097
:1030700084F82100CA2021684862532022685062E7
:10308000204626E020460BE02068C0F8248084F823
:103090002110002084F8200070470000BFFF8FFF40
:1030A00070B5044640F2E9362068C16821F0A001FD
:1030B000C160FDF7ADFF05462068C168880606D4EB
:1030C000FDF7A6FF401BB042F6D3032070BD0020E1
:1030D00070BD70B504462068C1684A0612D44FF02E
:1030E000FF32C26040F2E936FDF792FF05462068E4
:1030F000C168480606D4FDF78BFF401BB042F6D3EB
:10310000032070BD002070BD10B50446FEF70AFD17
:10311000204610BD10B5044610460A46014620461A
:1031200000F0E4FC204610BD1FB541780024FF29C3
:1031300049D1B0F803104F4A40F60143C91A04D0F0
:1031400012392ED0091F1AD03DE05388B0F807106D
:103150005B1C99420BD100218DF80C1000F10D027F
:1031600002920124B0F80B108DF80D1015E0D288F2
:10317000521C914227D101248DF80C4006E0117AAF
:1031800009B31472032101248DF80C1000F10D0213
:103190000292B0F80B008DF80D0002A800F0DAFCE6
:1031A00011E0D288B0F80710521C91420BD100F107
:1031B0000A0301930023427A00920022B0F805002E
:1031C000FFF756F90124204604B010BD10B586B0B3
:1031D0002948284CFFF7B8FA0094082301220FF27F
:1031E0009C010220FFF76FF8002104910191A01CBF
:1031F00005900A22012304210392029300910423E3
:1032000020880FF288020221FFF7ACF80021049118
:1032100002910191201D05900A2220210392009124
:10322000012320880FF274020221FFF79BF8A01DF2
:1032300005900121049100200A220323019004211A
:10324000039202930091F82320880FF2600202217A
:10325000FFF788F80020207206B010BD80B50091FD
:103260000122044881880272012300880022FFF7AE
:10327000D3F802BDD0230020293100088FE5B3D553
:103280002E7F4A982A487ACC20FE000019ED82AEA3
:10329000ED214C9D4145228E22FE000019ED82AEAB
:1032A000ED214C9D4145228E23FE000019ED82AE9A
:1032B000ED214C9D4145228E24FE00007047000008
:1032C000DFF800F0692000202DE9F041404F06466C
:1032D00038780128884614461D4608BF02201BD0B6
:1032E000012139700020786000F018F8010011D138
:1032F000012E22462B46404602D100F05BF802E048
:103300001146FFF7DDFF00F009F832490A6822EAAA
:1033100006060E6000213970BDE8F0814FF47A7026
:1033200018E02E49CA680020002A07D52C4B2D4AE8
:103330000B600A60C968002948BF01207047254911
:103340000A6842F000420A6000200968002958BF5C
:103350000120704770B50546FDF75AFE06461E4C23
:103360002068C10311D5FDF753FE801BA842F7D397
:10337000032070BD164920604860012070BDFDF734
:1033800047FE801BA84210D3F2E72068C10744BF64
:1033900001212160010404D54FF40041216020F493
:1033A00000404CF2FA310840E4D120684103E6D4F1
:1033B000002070BD10B507490C6844F001040C6092
:1033C00040F8042BBFF36F8F036010BD00000000B6
:1033D000982300201440005810400058084000581E
:1033E00023016745AB89EFCD2DE9F04100F053F89B
:1033F000884608BF02204CD000F052F800F055F883
:10340000010044D12968DFF8C470022919D14FF0B6
:10341000FF32C8F800206E6800E0761C6968AA6870
:1034200051188E4208D2304600F043F800F03DF8C3
:103430000100F2D0C8F800607A69DFF894100A4001
:103440007A6139688A050FD53A6822F400723A60C9
:10345000396841F4006139603A6822F400623A60E8
:10346000396841F4007139603A6851050FD53968FF
:1034700021F4806139603A6842F480523A603968D8
:1034800021F4805139603A6842F480623A60002148
:103490002170BDE8F081104C054620780128704766
:1034A000002001216060217070474FF47A70FFF7AF
:1034B00051BF08490A6822F4FF6242EAC00242F49E
:1034C000803242F002020A6070470000004000585B
:1034D00005F8FFFF1440005898230020C0680840FA
:1034E000884201D10120704700207047C069084020
:1034F000884201D1012070470020704710B5684C08
:1035000002212046FFF7F2FF38B16068C04381070F
:1035100003D5FFF71CFB022018E001212046FFF72E
:10352000E5FF38B16068C043C10703D5FFF7D7FA9C
:1035300001200BE008212046FFF7D8FF38B1606872
:10354000C043010703D5FFF756FB0820A06010BD5C
:1035500010B5534C02212046FFF7C0FF58B96068F0
:10356000C043810307D5606840F400306060BDE867
:103570001040FFF7E5BA08212046FFF7AFFF70B90A
:103580006068C04301030AD56068464940F40020E2
:103590006060086880474FF40020A06010BD2021C3
:1035A0002046FFF79BFF58B96068C043810207D5EA
:1035B000606840F400106060BDE81040FFF79EBAFC
:1035C00010BD394881B0016841F480110160006884
:1035D00000F48010009000983448016841F40071B4
:1035E00001603348026842F40072026040BF20BFAD
:1035F0003048016841F40041016001B0704780B576
:103600002D48016841F480110160006800F48010C9
:10361000009000982248016841F0010101600268B1
:1036200042F4803202602C20FDF736FDBDE80240F6
:103630002D20FDF731BD214801684908490001608E
:1036400070471F494FF48030086070471B4801687D
:1036500021F002010160704718484FF400314160C9
:10366000016821F400310160704738B504460C4D03
:1036700008212846FFF732FF30B10A480460686825
:1036800020F40020686031BDA0474FF40021A960FC
:1036900031BD0A48016821F008010160704700004F
:1036A000000C00580C24002050010058D408005889
:1036B000200800580C04005850000058040C005812
:1036C000080C00581348016841F40071016070470C
:1036D0001148016841F480410160704710B50E4AFD
:1036E0000E4B106820F48040106032211C680C489A
:1036F000B4FBF0F0484351698B0506D5002818BF8C
:10370000401EF8D101E0002010BD50698105FAD5B6
:10371000032010BD0804005800040058DC200020DD
:1037200040420F00484900E0484981B00A6802431E
:103730000A60096808400090009801B0704780B5A1
:10374000FFF7FFFBFFF7FFFB4148016841F48031C1
:10375000016000F0ADFABDE801400EE000B587B0B1
:1037600068460FF230211C22FEF7ECF9FFF737FA1A
:103770006846FEF748FC07B000BDF0B585B0684666
:103780001421FDF74BFC00260025002400210FF238
:10379000D40000EBC102907988B11368B3F1904F67
:1037A00008D02C4FBB4208D02B4FBB4204BF90889F
:1037B000044304E09088064301E090880543491CD7
:1037C0002629E4DB002002900121032003900191CF
:1037D000B0B288B100900120FFF7A4FF0120FFF7ED
:1037E000A3FF69464FF09040FDF7ACFC0022B1B258
:1037F0004FF09040FDF764FDA8B280B10090022028
:10380000FFF790FF0220FFF78FFF124E6946304608
:10381000FDF798FC0022A9B23046FDF751FDA0B299
:1038200080B100900420FFF77DFF0420FFF77CFFAC
:10383000094D69462846FDF785FC0022A1B22846BD
:10384000FDF73EFD05B0F0BD4C0000584C0100589E
:103850009008005800040048000800480020FDF7C8
:103860004CB80000000000480100000000000048C3
:1038700001000000000000480100000000000048B6
:1038800001000000000000480100000000000048A6
:103890000100000000000048010000000000004896
:1038A0000100000000000048010000000000004886
:1038B0000100000000000048010000000000004876
:1038C0000100000000000048010000000000004866
:1038D0000100000000000048010000000000004856
:1038E0000100000000000048010000000000004846
:1038F0000100000000000048010000000000004836
:103900000100000000000048010000000000004825
:103910000100000000000048010000000000004815
:103920000100000000000048010000000000004805
:1039300001000000000000480100000000000048F5
:1039400001000000000000480100000000000048E5
:1039500001000000000000480100000000000048D5
:1039600001000000000000480100000000000048C5
:1039700001000000000000480100000000000048B5
:1039800001000000000000480100000000000048A5
:103990000100000000000000000000000000000026
:1039A00064380008280003202C00032026040400AB
:1039B0002A4981B00A6802430A60096808400090F9
:1039C000009801B07047F0B585B005460C466846D2
:1039D0001421FDF723FB2DB1012D08BF102002D0CB
:1039E000022D02D10120FFF7E3FF0FF28C001C4FE4
:1039F00030F81500009001210220039007EB8506A6
:103A0000029130682CB9002101916946FDF79AFBBB
:103A100020E04FF40411019107EBC5046946FDF75E
:103A200091FB0FF2600050F8251004F1240000F023
:103A300058F9F268002104F1240000F04BF90FF26C
:103A400040004457B16900222046FDF707FB20469D
:103A5000FDF722FB002005B0F0BD00004C0000582F
:103A60002C200020002000F013B8012000F010B836
:103A7000022000F00DB8000001001000400000001E
:103A8000060A1700000000160400001606000016C3
:103A9000704700000249016002490161704700BFA0
:103AA000032B00082B2B000870B50F4E044630780E
:103AB0000025A8B1FDF761F932784FF47A71B1FBB6
:103AC000F2F1B0FBF1F0FDF701FB48B9102C07D281
:103AD000002221464FF0FF30FDF7C0FAB46000E04D
:103AE0000125284670BD00BFD020002062F30F22C0
:103AF00062F31F42401810F0030308D0C91A1FD305
:103B0000DB0748BF00F8012D28BF20F8022D130065
:103B100030B414461546103928BF20E93C00FAD8C5
:103B2000490728BF20E90C0048BF40F8042D890050
:103B300028BF20F8022D48BF00F8012D30BC704787
:103B4000C91818BF00F8012DCB0728BF00F8012DB8
:103B500070470000F8B506464A4D307920B101287B
:103B600024D0032857D0F1BD31680A78012A4FF0DC
:103B7000006004D0022A09D0072A0FD0F1BD00222C
:103B800028606A7400F08AF82A74F1BD0121286067
:103B9000697400F083F800202874F1BD01228DF8CB
:103BA000002069460220FFF759FBF1BD7479002718
:103BB0001EE0316805F1080339441844FDF7B2FFEF
:103BC00000F066F80028FBD1D5F800C0D5E9022343
:103BD000DCE90001994208BF904209D10CF10800CC
:103BE0002860287CC0F10800241AC7190020287416
:103BF000287CC0F108029442DBD2002CC5D0316889
:103C000005F10803224639441844FDF78BFF287C50
:103C100024182C74F1BD287CA8B1C0F1080105F16D
:103C20000803FF221844FFF761FF03E000F030F8BB
:103C30000028FBD12868D5E90267D0E90023BB4200
:103C400008BFB242F2D1687C90B101289DD14FF0FB
:103C5000005100200870BFF34F8F0B490B480A68D2
:103C600002F4E06202430A60BFF34F8F00BFFDE73A
:103C7000FEF796F90020FEF793F901210020FFF7E7
:103C80007BF9FAE7802300200CED00E00400FA0540
:103C90002868012205F10801FEF7F4BD3068C178FB
:103CA000297031688878687030684178A9707047E9
:103CB00080B5FFF7D3FD022100910023044800F1F5
:103CC00024014FF48052001D00F011F801BD0000E6
:103CD000081000200346002009B95A6070470120EF
:103CE000704708B90120704701600020704710B587
:103CF000029C016042600021C160016141618161FB
:103D00000381A107047704D5008910B14FF0FF307B
:103D100010BD002010BD00004748484A01681268E5
:103D2000B1F1006F0AD3120302F47F2244488218D3
:103D30008A4203D308684349884201D00020704773
:103D40000120704780B5404940480860016881F310
:103D500008884068804730BF01BD10B5FFF7DCFF21
:103D60004FF0005420B100202070BDE81040E9E77A
:103D7000012020700E206070FF20A07010BD38B5AB
:103D8000334C2068C00002D4206880011AD54FF05F
:103D90000055287828B9FFF7BFFF10B1FFF7D2FF11
:103DA00012E0287848B9FFF7B7FF30B90120287032
:103DB0000E206870FF20A87006E02878012818BF40
:103DC000022801D0FFF7C9FF2248016841F47001C1
:103DD00001600020FEF7EAFD40B180791E49A16034
:103DE000A16821F47C5141EA0021A1604FF0B0406C
:103DF000016841F48031016018490A68D208D20094
:103E000042F001020A600A6802F00702012AFAD1B0
:103E100001688903FCD581688908890041F00201A5
:103E20008160816801F00C010829FAD10168490814
:103E30004900016031BD0000407100088040005819
:103E4000FCFFFF07298A449408ED00E00070000899
:103E50009400005888ED00E0FECAFECA00400058F9
:103E60000100000003000000050000000100000048
:103E700001000000060000000A0000002000000011
:103E80000200000004000000080000001000000014
:103E9000400000008000000000010000000200005F
:103EA000A0860100400D0300801A060000350C00BA
:103EB00040420F0080841E0000093D0000127A007D
:103EC0000024F40000366E010048E801006CDC02BA
:103ED00000000000000000000000000000000000E2
:103EE0002DE9FC4D016800F10805490805EBC10208
:103EF000019200F10802406800F0010A02EBC108DB
:103F0000400808EBC00B00200021019A95422FD0F9
:103F10002A68AE186A68324400920835009A9642C0
:103F2000F3D016F9014B009A964205D12A68AE18D3
:103F30006A6832440092083516F8017B884210D135
:103F4000D84508BF00F01AF8D8F80000D8F80410D7
:103F5000BAF1000F18BF48440144884208F108082C
:103F6000EED0002C00F8017B05D5641CE6D1D5E726
:103F70005846BDE8F68D641ED5D5CFE7012000F088
:103F800001B8000080B5AFF30080024A110018208C
:103F9000ABBEFBE72600020000F024F8012810D099
:103FA0000D4880470D480047F0B543464C465546FE
:103FB0005E466746F8B40A4C6B462360BFF34F8FEA
:103FC00030BF074C2468A546F8BC9846A146AA46CF
:103FD000B346BC46F0BD00007F3D00085B410008D1
:103FE00014240020024900200860704700000000EF
:103FF0001824002019E050F8042BD30744BFA9F17E
:1040000001039A18091F0023042942F8043BF9D23E
:104010005FEA817C134604D54FF0000CA2F800C083
:104020009B1CC90744BF0021197050F8041B0029CC
:10403000E1D170477047FEE770477047704700F066
:104040000FB87047704770470020FCF76CBC002029
:10405000FCF76FBCFDF789BAFFF77ABAFFF74EBAE3
:10406000024841680278891841607047D0200020DA
:1040700010B5074979441831064C7C44163404E0E5
:104080000A68081D114488470146A142F8D110BDB5
:104090002C000000780000004EF68851CEF200019E
:1040A000086840F470000860BFF34F8FBFF36F8F54
:1040B0004FF00070E1EE100A7047000039FFFFFF7B
:1040C00040030000E02000207008000030000320C2
:1040D000000000000DFEFFFF0200000002000000D3
:1040E0002A01000002000000280003200800000050
:1040F000F1FDFFFF020000000200000010010000BF
:10410000AF00000008100020D810000000000000E0
:10411000000000000000000000000000010000009E
:104120000200000003000000040000000120C0465F
:10413000002801D0FFF79CFFAFF300800020AFF311
:104140000080FDF77FFF00F000F800F001B80000EC
:1041500007463846FFF716FFFBE7AFF30080FFF78F
:104160009BFFFFF7E3FFFFF7FEBFFFF7FEBFFFF781
:10417000FEBFFFF7FEBFFFF7FEBFFFF7FEBFFFF773
:10418000FEBFFFF7FEBFFFF7FEBFFFF7FEBFFFF763
:10419000FEBFFFF7FEBFFFF7FEBFFFF7FEBFFFF753
:1041A000FEBFFFF7FEBFFFF7FEBFFFF7FEBFFFF743
:1041B000FEBFFFF7FEBFFFF7FEBFFFF7FEBFFFF733
:1041C000FEBFFFF7FEBFFFF7FEBFFFF7FEBFFFF723
:1041D000FEBFFFF7FEBFFFF7FEBFFFF7FEBFFFF713
:1041E000FEBFFFF7FEBFFFF7FEBFFFF7FEBFFFF703
:1041F000FEBFFFF7FEBFFFF7FEBFFFF7FEBFFFF7F3
:10420000FEBFFFF7FEBFFFF7FEBFF8000001810011
:104210008100810081008100810081008100810096
:104220008100810081008100810081008100810086
:104230008100810081008100810081008100810076
:104240008100810081008100810081008100BA002D
:10425000044800100048FD000D48653A00086B3A1C
:104260000008713A00080FFD00000FFD00000FE587
:10427000002F30B50A4B5A6842F480225A60EFF39F
:10428000108472B6802251F8045B40F8045B521E21
:10429000F9D11868C103FCD484F3108830BD1040F4
:1042A0000058EC00F8FFF400030DFF0186F4000055
:0B42B00001F9000010FC0002093D00B5
:040000050800415B53
:00000001FF
