:020000040800F2
:1000000008100020514D00084D4B00084F4B0008D0
:10001000514B0008534B0008554B000800000000EE
:10002000000000000000000000000000574B000826
:10003000594B0008000000005B4B00085D4B0008B6
:10004000614D0008654D0008694D0008614B0008CE
:100050006D4D0008714D00089F4B0008A54B00082E
:10006000754D0008794D0008994B00087D4D00083A
:10007000814D0008854D0008654B0008894D00083A
:100080008D4D0008914D0008954D0008994D0008D0
:100090009D4D0008A14D0008A54D0008A94D000880
:1000A000AD4D0008B14D0008B54D0008B94D000830
:1000B000BD4D0008C14D0008C54D0008C94D0008E0
:1000C000CD4D0008D14D0008D54D0008D94D000890
:1000D0006B4B0008714B0008DD4D0008E14D000836
:1000E000E54D0008E94D0008ED4D0008F14D000810
:1000F000774B00087B4B00087F4B0008F54D00084C
:10010000F94D0008FD4D0008014E0008054E00089D
:10011000094E00080D4E0008114E0008154E00084B
:10012000194E00081D4E0008834B0008214E0008A0
:10013000254E0008294E00082D4E000838B503460C
:10014000D3F88C0020280AD109B1100001D1012078
:1001500032BD00F006F8BDE8384000F0B8B9022022
:1001600032BD0020D866DFF844431868A0420CD0A6
:100170004068040209D5186850E8004F054644F06D
:10018000806445E800400028F5D1184670472DE905
:10019000F041054640F60F0C2A68D369104613EA71
:1001A0000C0F0768966805F15C0407F0200003F067
:1001B00020010DD1002914D010B9F00040F18C803D
:1001C000A169002900F042812846BDE8F0410847B6
:1001D000DFF868C416EA0C0F04BFDFF864E417EA1E
:1001E0000E0F79D05FEAC37E48BF5FEAC75807D5D4
:1001F0004FF0010EC2F820E0626B42F00102626330
:100200009A070AD5F20708D5D5F800800222C8F867
:100210002020626B42F0040262635A070AD5F2079B
:1002200008D5D5F800800422C8F82020626B42F07F
:10023000020262631A070DD5002808BF16EA0C0FE8
:1002400008D0D5F800C00822CCF82020626B42F01C
:10025000080262631A0509D57B0107D52F684FF4A0
:1002600000623A62626B42F020026263626B002AB3
:1002700031D031B108B9F00003D5A16909B12846E0
:100280008847606B29688A68510602D410F0280FED
:100290001CD000F007F928688168480611D500F0E5
:1002A000E1F8FCD1606A60B10FF2B5318163606A38
:1002B00000F0FAFB00280ED0606A816BBDE8F041C7
:1002C00008472846BDE8F04100F086BC284600F00B
:1002D00083FC00206063B9E02069012878D1D8064A
:1002E00076D5F90674D5102010622A6821889068A6
:1002F000420637D5626A1368586880B2002828D051
:10030000884226DA6080106801688A061AD400F0F4
:10031000B7F821F4807100F0A1F8F8D100F0CAF824
:10032000FCD100F0B2F8FCD1202020630021216133
:1003300000F0A6F821F0100100F090F8F8D1606A02
:1003400000F07EFB0220606121886088091A89B272
:1003500006E088427AD11A68900677D50222626157
:10036000284631E062886088891A00281CBF88B25C
:1003700000286BD02A46106850E8003F054623F459
:10038000907300F065F8F6D1106800F1080300F1F1
:10039000080653E8003FDFF81801034046E8003044
:1003A0000028F1D12020206300232361A36113687A
:1003B00053E8003F156823F0100300F049F8F6D128
:1003C0000220606189B21046BDE8F04100F005BC32
:1003D000D80209D5710207D54FF480101062284663
:1003E000BDE8F04100F0FABB180609D5390601D482
:1003F000300205D5E16949B32846BDE8F041084718
:10040000580611D579060FD500F03AF821F04001D1
:1004100000F024F8F8D12020E0620021E1612846B4
:10042000BDE8F04100F0F6BB180206D5790004D50E
:100430002846BDE8F04100F001BCD80148BF002FBC
:1004400004D52846BDE8F04100F0F9BBBDE8F081D5
:1004500045E800300028704721F4F07142E80010B0
:1004600000287047296801F1080252E8001F286837
:1004700000F1080321F0400143E800100028704714
:10048000286850E8001F02467047286800F10801FC
:1004900051E8001F00F1080321F0400143E800107B
:1004A00000287047284600F09EB8000000800040F9
:1004B000FEFFFFEF286800F1080151E8001F49081E
:1004C00000F10803490043E800100028704750B5C8
:1004D000034600209965FF2403F15C010A804A80ED
:1004E00088619868B0F5805F04D1186990B940F2CE
:1004F000FF140FE018B9186960B17F2007E0B0F170
:10050000805F06D1186908B97F2403E03F20888006
:1005100001E000248C800020486322240C631868CA
:1005200000F1080454E8004F00F1080644F001040B
:1005300046E800400028F2D18868B0F1005F23D17E
:100540008889824220D39A68B2F5805F04BF186917
:10055000002803D10FF211328A610BE00FF2592407
:100560008C61186930B100F031F841F48071FFF707
:1005700075FFF8D100F02FF841F0805144E80010E9
:100580000028F7D1002050BD9868B0F5805F04BF07
:10059000186900280CD10FF22D128A61186850E8F2
:1005A000001F024641F02001FFF758FFF6D1E9E7AE
:1005B0000FF2C1028A6118690028EFD000F006F836
:1005C00041F49071FFF74AFFF8D1DBE7196851E871
:1005D000001F1A687047186800F1080151E8001FF1
:1005E00000F10804704710B500F00EF8FCD100F0DF
:1005F00015F8FCD1C16E00F025F82021C0F88C1050
:100600000022C266426710BD016851E8002F0B4608
:1006100022F4907243E8002100297047016801F13B
:10062000080201F1080452E8002FDFF804140A4020
:1006300044E800210029704700000000010000107C
:1006400020010004012909D1026852E8002F036843
:1006500022F0100243E800210029F5D17047000084
:10066000806A00F1560100220A8100230B8000F00D
:10067000B3BA000038B500F04DF81ED14B6A91882E
:10068000846D0B402370816D4B1C00F049F818D12C
:1006900000F04DF800F060F8FCD100F06AF80BD1E2
:1006A0000023136100F04EF8FCD10168CB69DC0631
:1006B00044BF10230B6276E07AE0886940F00800BE
:1006C000886131BD38B500F025F81ED14B6A91889C
:1006D000846D0B402380816D8B1C00F021F818D1B4
:1006E00000F025F800F038F8FCD100F042F80BD10A
:1006F0000023136100F026F8FCD10168CB69DC0609
:1007000044BF10230B624EE052E0886940F00800BD
:10071000886131BD00F15C020168136B222B7047C8
:10072000836551884B1E53805188002970470368A8
:1007300053E8003F046823F4907344E80031002933
:10074000F5D17047016851E8003F0C4623F01003D3
:1007500044E8003100297047016801F1080353E8BB
:10076000003F5B0801F108055B0045E80031002906
:100770007047202111630023936100215161364BA2
:10078000016899420CD049680B0209D5016851E80B
:10079000003F0C4623F0806344E800310029F5D186
:1007A0001169012970471188BDE8344000F015BA7D
:1007B000BDE8324000F024BA2DE9F84300F0FFF81C
:1007C00046D1A089002835D0B80633D500F09CF872
:1007D0000870A86D421C00F0CFF812D0F90748BF8E
:1007E0005FEAC85200F096F803D5F10701D500F092
:1007F000BBF800F098F820B1284600F0EDF9002091
:10080000606360880028DFD100F0A4F8FCD100F01C
:10081000C9F8FCD100F0F1F809D100F0DEF844BFCE
:10082000102101622188284600F0D7F902E028460D
:1008300000F0E6F9608868B1A18988420ADA00F020
:10084000A4F8FCD17B48A06100F07AF8FCD101E06B
:1008500000F004F8BDE8F18300800040816941F0B8
:1008600008018161704700002DE9F84300F0A7F806
:1008700046D1A089002835D0B80633D500F044F819
:100880000880A86D821C00F077F812D0F90748BFE5
:100890005FEAC85200F03EF803D5F10701D500F039
:1008A00063F800F040F820B1284600F095F90020E8
:1008B000606360880028DFD100F04CF8FCD100F0C4
:1008C00071F8FCD100F099F809D100F086F844BF26
:1008D000102101622188284600F07FF902E02846B5
:1008E00000F08EF9608868B1A18988420ADA00F0C8
:1008F0004CF8FCD15048A06100F022F8FCD101E096
:10090000FFF7ACFFBDE8F1832968486AA96D09EAE1
:100910000000704705D501210162606B40F00100C5
:100920006063B8077047780708D5F10706D52A68CD
:1009300004201062606B40F002006063606B7047DF
:10094000296851E8001F2A6841F0200142E80010A0
:1009500000287047296851E8001F2A6821F4807137
:1009600042E80010002870472A6802201062606B7D
:1009700040F0040060637047AA656088411E618092
:100980002868C76917F0070F7047286800F1080248
:1009900052E8001F00F1080921F0805149E80010D9
:1009A00000287047286800F1080100F1080351E8A9
:1009B000001F1F48014043E800100028704705460B
:1009C00005F15C042868B4F80490C7690146D1F8C1
:1009D00000808668216B22297047002121612868E8
:1009E00050E8001F024621F0100142E800100028E4
:1009F000F5D12868C169CA0670472020206300210C
:100A0000A161002060610D49286888420CD04068CF
:100A1000010209D5286850E8001F024621F08061D4
:100A200042E800100028F5D1206901287047000035
:100A3000FEFFFFEF75060008C506000800800040B5
:100A400040B100F124014A78022A05D004208861CF
:100A500000220A70012070470268136823F00E0319
:100A600013604A6A136823F4807313600068026895
:100A7000520852000260012091F82020CB6902F058
:100A80001C02904058608A6AC86A5060086B30B196
:100A9000026822F480720260486B8A6B4260012215
:100AA0004A7000200870704738B500F12402002415
:100AB0005178022903D004209061012428E00168C4
:100AC0000B6823F00E030B6001680D686D086D0064
:100AD0000D60516A0B6823F480730B60012192F85A
:100AE0002030D56903F01C0399406960936AD16A8C
:100AF0005960116B31B10B6823F480730B60516B3B
:100B0000936B4B60012353701470516901B1884796
:100B1000204632BDF8B500F124010423CA691468E7
:100B20000268156891F8206006F01C0603FA06F7C3
:100B30003C4210D06F070ED51468A50603D4146884
:100B400024F00404146000F03EF8C968002939D08C
:100B5000BDE8F4400847022303FA06F73C4213D0ED
:100B6000AF0711D51468A50605D4146824F00A044B
:100B7000146001224A7000F026F800220A70896889
:100B800001B3BDE8F4400847082303FA06F63442EF
:100B900018D02B0716D5146824F00E041460012217
:100BA00091F82030CC6903F01C039A406260012365
:100BB00001228A614B7000220A70096911B1BDE8F7
:100BC000F4400847F1BD91F82020CC6902F01C02E6
:100BD00093406360704700007047704770477047EC
:100BE000002800D0704710B5104C00F004F8BDE8A4
:100BF0001040FFF7A3BA0F4823600F4B0360704704
:100C000000680D49884204D1084A1068002818BFBE
:100C10000047704700680849884204D1044A1068B8
:100C2000002818BF00477047000000006016002031
:100C30006416002090120020003801407047704771
:100C40004FF0B040006800F0F000B02888BFB0203E
:100C50007047DFF898070068000100F0F000704767
:100C60002DE9F04104004BD0207881064FF0B045CB
:100C700034D5A868E96810F00C0001F0030103D036
:100C80000C2808BF01293DD1E069002838D0FFF7C2
:100C9000D7FF616A88420CD2084600F05BFB00284F
:100CA0002ED12968606A21F0F001014300F01AFAA0
:100CB00009E0286820F0F000014300F013FA606AB0
:100CC00000F048FBE0B900F037FBDFF824170860BC
:100CD000DFF82007006800F0C1FB88B92078C10761
:100CE00068D5A868E96800F00C00082801F0030145
:100CF00003D00C2808BF032934D16068002859D1DB
:100D00000120EDE1E069E8B1296841F0010100F05E
:100D1000D4FA06462868800706D400F0C1FB801B81
:100D20000328F7D30320DBE12868616A20F0F00094
:100D3000084328606868216A20F47F4040EA012067
:100D40006860CBE728684008400000F06EFB06466C
:100D500028684008C007C1D500F0A2FB801B03280B
:100D6000F6D3DFE76068B0F5803F04D1296841F42D
:100D70008031296003E0286820F4803028606068B2
:100D800058B100F08DFB06462868800312D400F0AD
:100D900087FB801B6528F7D3C4E700F081FB06467C
:100DA0002868400CC00705D500F07AFB801B652839
:100DB000F6D3B7E72078810715D5A868E96800F071
:100DC0000C00042801F0030103D00C2808BF0229FD
:100DD00028D1E068002893D06868216920F0FE409F
:100DE00040EA016068602168DFF80C6611F0180FB6
:100DF00000F08B806069002877D0C806706858D5ED
:100E0000800730D4716841F00101716000F048FB47
:100E100007467068800726D400F042FBC01B0328F9
:100E2000F7D37FE7E06870B1296841F4807100F082
:100E300044FA064628684005CED400F031FB801BFA
:100E40000328F7D36EE7286820F4807000F0EDFAED
:100E500006462868800AC007C5D500F021FB801B24
:100E60000328F6D35EE7706840F0040000F043F911
:100E700007467068000705D400F012FBC01B042869
:100E8000F7D34FE77068A16920F4706040EA012051
:100E9000706070684008400000F02DF907467068E7
:100EA0004008C00731D500F0FBFAC01B0328F6D379
:100EB00038E740F0010000F01EF90746706880072F
:100EC00005D400F0EDFAC01B0328F7D32AE77068B9
:100ED00020F0040070607068C008C00715D500F0ED
:100EE000DFFAC01B0428F6D31CE7706820F004006A
:100EF00000F001F907467068C008C007C9D500F0C6
:100F0000CFFAC01B0428F6D30CE7207841074BD555
:100F1000DFF8E8743868C1050ED400F0C7FA00F0B5
:100F2000BFFA80463868C10506D400F0B9FAA0EBD4
:100F300008000328F6D3F5E6A068012804D130683C
:100F400040F00100306010E00528306806D140F024
:100F500004003060316841F0010105E040084000C4
:100F60003060316821F004013160A06841F28937B6
:100F700060B100F095FA80463068800714D400F024
:100F80008FFAA0EB0800B842F6D3CBE600F088FA5F
:100F9000804630684008C00706D500F081FAA0EB13
:100FA0000800B842F5D3BDE62078410620D5A06AF6
:100FB0000028B0680DD040F0010000F077F9074636
:100FC000B068800714D400F06BFAC01B0328F7D375
:100FD000A8E64008400000F069F90746B0684008FC
:100FE000C00705D500F05CFAC01B0328F6D399E6CC
:100FF000E06A002873D0A968EA68022801F00C01B1
:1010000059D1236B02F00300984202BF02F0700036
:10101000636B984213D1A36BC2F30620984202BFC0
:1010200002F47810E36B984209D1236C02F06060FF
:10103000984202BF02F06042606C824237D00C29B5
:101040003AD0286841013FF55BAE00F0EBF9064667
:101050002868810105D500F023FA801B0328F7D307
:1010600060E6E868DFF89813226B0840616B104374
:10107000A26B0843E16B40EA0220226C0843616CDA
:1010800010430843E860286840F080702860E968F1
:1010900041F08051E96000F003FA044628688101BC
:1010A0001DD400F0FDF9001B0328F7D33AE62868A9
:1010B000810114D4E7E70C293FF422AE00F0B2F925
:1010C00004462868810105D500F0EAF9001B0328D1
:1010D000F7D327E6E868DFF82C130840E860002023
:1010E000BDE8F08129606968206A21F47F4141EA06
:1010F000002169607047706000F0D2B92DE9F843B3
:101100000400884600F0AE80DFF8FC5200F0C9F819
:101110000CD200F0CEF8064600F0C3F806D000F07E
:10112000BFF9801B0228F7D90320B8E02078810797
:101130004FF0B04611D5B268A06822F0F002024329
:10114000B26000F0ADF90746B068C00305D400F006
:10115000A7F9C01B0228F7D9E6E72078DFF88C72E0
:10116000810612D53A68606922F0F00202433A60C3
:1011700000F096F981463868800306D400F090F9B3
:10118000A0EB09000228F6D9CEE72078410613D556
:101190003868A1690009000140EA1110386000F0C8
:1011A0007FF981463868C00306D400F079F9A0EBD6
:1011B00009000228F6D9B7E72078410711D5B268AF
:1011C000E06822F4E0620243B26000F069F9074689
:1011D000B068800305D400F063F9C01B0228F7D97A
:1011E000A2E72078010711D5B068216920F460508A
:1011F00040EAC10000F05AF80746B068400305D441
:1012000000F04EF9C01B0228F7D98DE72078C107FE
:101210002AD56068022818D13168890322D5B268BE
:10122000920840EA820000F041F80746B068616821
:1012300000F00C00B0EB810F16D000F031F9C01BAC
:1012400041F289318842F1D36EE7032802D1316837
:10125000890103E00028316802D18907DFD401E069
:101260004905DCD401201AE0286800F00700804519
:101270000BD200F01EF8044600F013F805D000F081
:101280000FF9001B0228F7D94EE700F055F858492E
:10129000086000F027F9BDE8F24300F0DFB8BDE8D0
:1012A000F283286800F0070040457047B06000F006
:1012B000F7B82968C90848EAC101296000F0F0B808
:1012C00038B54FF0B044524DA16811F00C0106D171
:1012D000FFF7B6FCC0F3031055F8200032BD042917
:1012E0004C4A05D008294C4804D12168C90222D5AE
:1012F000104632BDE16801F00301022904D0032940
:1013000004D12168C90207D5104605E0FFF798FC13
:10131000C0F3031055F82000E168E268E368C1F308
:1013200006214843C2F30211491C5B0FB0FBF1F0E8
:101330005B1CB0FBF3F032BD80B5FFF7C1FF334952
:10134000FFE7364A0968C1F3031152F82110B0FBD8
:10135000F1F002BD70B52E49B1282EBFCC6AC0F3A2
:10136000031051F82040FFF774FC054600F0DAF84E
:101370002A49C5F3031251F82210294AB4FBF1F1AE
:101380005FF00004B1FBF2F1B0F5007F2FA2204620
:101390001FD100BF26A353F820508D4216D2401C07
:1013A0000328F8D9184D2868C00844EAC00000F0A6
:1013B0003CF80646286800F00700A04213D000F071
:1013C0006FF8801B0328F5D3032070BD52F820402E
:1013D000E8E700BF1AA353F820508D42F6D2401C14
:1013E0000328F8D3DEE7002070BD00000801005894
:1013F000EC100020D4100020900000580004005889
:101400008C80C111FCFFFEEE00400058080000581F
:10141000A84A00080024F4000048E801684A0008CF
:1014200040420F00286820F08070286000F038B833
:101430001200000024000000360000004000000000
:10144000060000000C00000010000000000000007A
:1014500001000000020000000300000070B50F4E04
:10146000044630780025A8B1FFF766FF32784FF4C4
:101470007A71B1FBF2F2B0FBF2F000F0ADF848B9CE
:10148000102C07D2002221464FF0FF3000F06CF8FC
:10149000B46000E00125284670BD00BFCC100020DC
:1014A00001484068704700BFCC1000200248016826
:1014B00041F480710160704700040058164810B56F
:1014C000016841F480710160032000F040F80020C1
:1014D000FFF7C4FF0024002814BF012400F0C3F864
:1014E000204610BD0D48806870470C480078704752
:1014F0000B480BE00A48016821F0020101607047C7
:101500000748016821F0040101607047016849083B
:10151000490001607047000000400058CC100020D6
:10152000042004E0DFF80800006800F4C0607047A1
:10153000000400580901020002D43C48815470475D
:101540003B4B02F00F021A4402F8041C7047394B5F
:1015500019684FF6FF020002114000F4E0600843F2
:10156000354908431860704770B5324B1C68C4F3A6
:1015700002230124C3F10705052D2EBF0F2504FA10
:1015800005F56D1E1E1D072E34BF0023DB1E2940EE
:10159000994004FA03F3BDE870405B1E1A40114302
:1015A000C8E70000010007D4012200F01F01234B0F
:1015B0008A40400943F82020704701000BD40122E3
:1015C00000F01F011E4B8A40400943F82020BFF362
:1015D0004F8FBFF36F8F704710B5401EB0F1807F03
:1015E00001D3012010BD174C60600F214FF0FF3078
:1015F000FFF7A0FF0021A16007202060002010BDA0
:10160000010007D4012200F01F010F4B8A4040095E
:1016100043F820207047010007D4012200F01F0189
:101620000A4B8A40400943F82020704700E400E05C
:1016300018ED00E00CED00E00000FA0500E100E02C
:1016400080E100E010E000E000E200E080E200E085
:10165000404981B00A6802430A6009680840009066
:10166000009801B0704780B54FF40020FFF7F0FFFD
:10167000002200212E20FFF777FFBDE802402E2038
:10168000FFF790BF00683449884200D0704780B5AA
:101690004FF48010FFF7DCFF002200212C20FFF721
:1016A00063FF2C20FFF77EFF002200212D20FFF793
:1016B0005BFFBDE802402D20FFF774BF10B594B06A
:1016C00004465021684600F04FF8226823498A42B8
:1016D0000FD14FF400734FF0805100930E91684684
:1016E00000F05CF808B100F099FA4FF48020FFF7A1
:1016F000AFFF14B010BD18B595B00446502101A835
:1017000000F032F8226816498A4221D14FF4006372
:101710004FF480710193119101A800F03FF808B1D6
:1017200000F07CFA0F48816B41F400418163002195
:10173000026842F4806202600022006800F4806067
:10174000009000980320FFF70FFF0320FFF72AFF08
:1017500016B010BD50000058000C00580010005882
:101760000028004058000058002200F059BA704785
:10177000DFF81C130A68030903F47F2300019A436E
:1017800000F47F2000F081B9DFF804231368010C16
:1017900023EA014343EA0043136070472DE9F8430D
:1017A000054600242878DFF8E8624106A0464FF09D
:1017B000B04743D5286B70B1B0F5800F06D0B0F5B7
:1017C000000F18BFB0F5400F2ED035E0F96841F496
:1017D0008031F96029E0386820F080603860FFF7D8
:1017E0005FFE81463868C00EC00707D5FFF758FE78
:1017F000A0EB09000228F5D9032415E000F02EF92A
:10180000A96820F4781000F038F9814638680001A2
:1018100006D4FFF745FEA0EB09000228F6D9EBE756
:1018200038696969084338613CB93168286B21F42B
:1018300040010143316001E00124A0462868010510
:1018400032D5D6F80880286C08F4407880452AD034
:10185000FFF72CFEB8F1000FB16805D1286C21F418
:1018600040710143B1601EE0B06840F48030B06068
:1018700021F44071B06820F48030B060286C0143DE
:10188000B160B068C0070ED5FFF70AFE8046B068A9
:10189000800708D4FFF704FEA0EB080041F289316D
:1018A0008842F4D30324A0462878C10705D53268BE
:1018B000A869920840EA820232602978880705D533
:1018C0003168E86921F44061014331602978C80634
:1018D00044BFA86AFFF758FF2878810644BFE86A2A
:1018E000FFF752FF2878410744BF286AFFF740FFFF
:1018F0002878010744BF686AFFF73AFF2868C105E6
:1019000032D53268686B22F0406202433260696B04
:10191000B1F1006F00F09CF8686BB0F1806F23D1DB
:1019200000F0A5F804463868C00EC00707D5FFF7D9
:10193000B7FD001B0228F6D94FF0030814E000F0B1
:101940008DF8E96820F0606000F097F80446386888
:10195000000105D4FFF7A4FD001B0228F7D9EBE72F
:101960003869696908433861286881051CD5A86B06
:10197000B0F1804F18BFB0F1004F00D020B93168EE
:1019800021F04041084309E0316821F040413160D5
:1019900020F08050326822F0406210433060A86B23
:1019A000B0F1C05F00F054F82868410535D53268C1
:1019B000E86B22F0405202433260E96BB1F1005F04
:1019C00003D1F86840F48030F860E86BB0F1805FD4
:1019D00023D100F04CF804463868C00EC00707D584
:1019E000FFF75EFD001B0228F6D94FF0030814E054
:1019F00000F034F8296920F0604000F03EF8044619
:101A00003868000105D4FFF74BFD001B0228F7D909
:101A1000EBE738696969084338612868C10405D56E
:101A2000F268686C22F440420243F260296888043C
:101A30000BD5796AE86C21F0300101437962796A4B
:101A4000A86C890840EA810179624046BDE8F283CA
:101A500003D1F86840F08070F860704738696968B1
:101A600020F4FE4040EA0120386138697047396847
:101A700021F080613960FFF713BD08433861386891
:101A800040F080603860FFF70BBD1043086070477E
:101A900088000058594900E0594981B00A6802435A
:101AA0000A60096808400090009801B0704710B5BE
:101AB000FFF704FD00F0CEF800F04DF800F089F8D3
:101AC000504C5148A06304F1380000F00FFA042094
:101AD000FFF7E2FF0120FFF7DFFF0220FFF7DCFF47
:101AE0000420FFF7D7FF0120FFF7D4FF0220FFF704
:101AF000D1FF00220F210E20FFF736FD0E20FFF749
:101B000051FD00220F213A20FFF72EFD3A20FFF76A
:101B100049FD3E482060002147F6FF700F22E0603B
:101B20006160A2602161A161E1616161204600F014
:101B300015FA00220021204600F0BCFA3448606209
:101B40000021A16204F1240000F03AFB00F096F8B5
:101B500000F049F9FCE780B59AB0482108A8FFF7E2
:101B600003FE1C2101A8FFF7FFFDFFF79FFC29489A
:101B7000016821F01801016001212748026861F322
:101B80004A2202604721006800F4C06000904FF4D0
:101B9000803200980891099201214FF480720A91D5
:101BA0000B921291402200210C92139108A8FFF78A
:101BB00057F86F20022101900291002203920492B3
:101BC000059206920792012101A8FFF797FA1BB030
:101BD00000BD80B594B050216846FFF7C5FD4FF4B5
:101BE00040524FF480410092119102221021129232
:101BF00013916846FFF7D2FD15B000BD48000058AC
:101C00004C00005834140020000C005800280040FC
:101C10000010005890000058000400587047000061
:101C200000B500BF130096469446103928BFA0E8BF
:101C30000C50FAD85FEA417C28BF0CC048BF40F87E
:101C4000042BC90728BF20F8022B48BF00F8012B3E
:101C500000BD000080B5944A4FF40041116000209F
:101C600000F0CEFA48B180799049914A0A600B6839
:101C700023F47C5343EA00230B6001BD10B58D486B
:101C80008D4C88B0016841F050010160CA228B4838
:101C9000C2615321C161FF210268D208D2000260F3
:101CA000C1618748026842F40042026000F0BCFA59
:101CB00084480268042161F3020202600020824924
:101CC00000F0FBFB00F0ABFD0121012000F0B1FAB8
:101CD0000121002000F066FE0121012000F062FEDB
:101CE0000121022000F05EFE0FF23D137749012230
:101CF0000020FEF775FF00F0A7FE754A00214FF4A3
:101D0000807001F000F804F23C51009169460FF236
:101D100031020FF23100019201F078F804F25471AF
:101D2000029104F5C96240F23C510392059104947A
:101D300002A800F011FF00F085FE08B010BD000001
:101D40007047000038B5044688B06068B0F80B10E2
:101D5000B1F5124F2DD104A801F01BF968460021FE
:101D600000220023002580E82E00616801F10D00AB
:101D70000078D8B900F0ECFD0F218DF800107F221B
:101D800054488DF802200168090CADF80C10006869
:101D9000C0F30B00ADF80E00684601F0F3F801F057
:101DA00039F90021012000F044FA02E0012808BFBF
:101DB000227009B030BD38B50446FFF771FB14F14D
:101DC000010F054609D0FFF790FB241805E04248B3
:101DD000016821F00401016030BFFFF761FB401B87
:101DE000A042F4D331BD02E000F039BA00BF4FF099
:101DF000FF3000F017BF00214FF4807000F090BF5B
:101E0000022000F0AFBF022000F0B4BF012805D0CF
:101E1000022805D0102805D101F02BBA01F03CBAF8
:101E200001F068BA70470000F8B52C4C274E04F555
:101E300080752F88B7F5807F27D230780D2821D183
:101E400016A1204601F04CFB04F5827708B924481E
:101E50000DE013A1204601F043FB10B94FF0B05044
:101E600005E010A1204601F03BFB20B91D48686049
:101E7000384601F03FFB4FF480712046FFF774FCB9
:101E8000002701E0E0557F1C2F80314601B0BDE8FE
:101E9000F040154B01220020FEF7A2BE535731003F
:101EA0005357320053573300104000589C000058DD
:101EB000FECAFECA900800583C00032008280040D3
:101EC0000800005880040058341400203016002008
:101ED0004F2E0008002004E010ED00E0F01000207C
:101EE0000400001601000016291E0008F8B504467B
:101EF0000025ACB104F13406307910B92046FFF763
:101F0000C1FB0F4F384600F021F8386840F001104F
:101F10003860204600F007F835600121317100E09B
:101F200001252846F2BD10B50021064A064B00EBFC
:101F30008104491C06296360E261F8D310BD0000EA
:101F4000000C00586F170008DF0B0008002101602B
:101F50004FF03F1242603F238360704738B5040062
:101F600052D094F8210028B9002184F8201020468E
:101F7000FFF7C1FB0220DFF8B81084F821000A68DF
:101F8000D00645D42268CA21516253202168486294
:101F900000F04BF8FF2510B100F03FF834E0216865
:101FA000DFF890008A6802408A602268936860685F
:101FB00021690343A0690B43034393602068E168F0
:101FC000016120680169A26841EA0241016120685B
:101FD000C16821F08001C1602068C16C8908890056
:101FE000C1642268D36CE16960690B430343D36425
:101FF00021688868810609D400F015F830B100F036
:102000000CF8002084F82000012032BD20684562D1
:10201000012184F82110002032BD2068456204218E
:1020200084F821107047204606E020461DE000009D
:102030000C280040BFFF8FFF38B504462068C168F8
:1020400021F0A001C160FFF72BFA05462068C168A6
:10205000880608D4FFF724FA401B40F2E931884291
:10206000F4D3032032BD002032BD38B504462068C9
:10207000C1684A0612D44FF0FF31C160FFF710FA71
:1020800005462068C168480608D4FFF709FA401BD6
:1020900040F2E9318842F4D3032032BD002032BD42
:1020A00020684762032184F82110002084F8200072
:1020B000032070472DE9F84300F047F808BF0220DD
:1020C00038D000F04FF80ED5FFF7EAF90546206842
:1020D000C168480707D5FFF7E3F9401B4045F6D331
:1020E000FFF7DEFF26E000F037F800F053F8FFF7C7
:1020F000D7F905462068C1684A0705D4FFF7D0F92B
:10210000401B4045F6D3EBE7C0F81490206800F080
:1021100013F81E48026842F4002202601C4801685D
:1021200041F4002101602068816841F480418160B0
:1021300000F038F8BDE8F2838168C908C900816001
:10214000206881680E43866070470446894694F88B
:1021500020001646012870472068816821F48061BC
:1021600081607047012084F82000022184F821104A
:10217000CA2022685062532120684162FF272068EC
:102180008168480540F2E93870470000800800582F
:10219000000800582068C16801F0800161F4906176
:1021A000C16070472068816841F4806181600121CD
:1021B0002068476284F82110002084F820007047CE
:1021C00010B5040001D1012010BD607A20B90021B2
:1021D00021722046FFF772FA0220607221680A68B5
:1021E000606822F0200202430A602068016841F022
:1021F00004010160012060720021E160002010BD37
:1022000020B501460648074D00E00838C2798A42E9
:1022100018BFA842F9D18A4218BF002020BD00BFD4
:10222000F873FF1F0070FF1F1B4800210160416011
:10223000704710B500F007F85C6800F009F85C60C2
:1022400082F3108810BDEFF3108272B6124B704704
:1022500019B1012902D1044370478443704738B54E
:10226000EFF3108472B60C490C4D086820B1296850
:1022700088476A6890470AE0486820B1A8688047A4
:10228000E968884703E0286980476969884784F3DB
:10229000108831BD0000000038160020384D0008BD
:1022A000DFF83C150A6892B200E00246086880B286
:1022B0008242FAD17047F0B5DFF82835DFF82855AB
:1022C0001E78182402466243B0422A4404D118788A
:1022D0005870547D1C700FE0167D507D92F815C02B
:1022E00005F115076643062807F806C004D0167DD9
:1022F000143514FB00F42E55012010731A78062AA9
:1023000002BF00294FF0FF30D860F0BD10B5DFF8F4
:10231000D444E06810F1010F0ED0FFF7C1FFE1686F
:1023200081422FBFE268E168E2888A182179101A99
:10233000E2784843D04000E0002080B210BD2DE993
:10234000F84FDFF8A884DFF8A8B4D8F80060DBF80D
:102350000000410500F088F9DFF88854DFF888A410
:1023600020F48060B0604FF018092C780AF1080062
:1023700019FB04F14758FFF7C9FF874202D2002733
:10238000012105E029894118B94203D22F89002192
:10239000A97015E001223F1AAA7011E00A590AF14A
:1023A0000803121A1A5108E009FB04F40AF10801A3
:1023B0000A598242F2D200230B510AEB04014C7DF0
:1023C000062CF1D1B8B238B9FFF76AFFE8600320F4
:1023D000BDE8F24FFFF714B9022802DAE8780128C5
:1023E00000D07F1E00F046F9DBF80C0067F30F0009
:1023F000CBF80C00FFF754FFE860D8F800008168C4
:1024000041F480618160AFF30080BDE8F18F2DE978
:10241000F843EFF3108472B6DFF8D053DFF8C83317
:102420002968CA20486253224A628868DFF8B423C8
:1024300020F48060886018201678374647431F4490
:1024400097F80CC0BCF1020F26D1D7F80080D7F85E
:1024500010909078E8B17A7B012A0AD101213046A8
:10246000FFF729FF84F310887968304600F012F9ED
:1024700004E084F31088304600F0C0F82868CA21D0
:1024800041625322426231464246484601F040F8DA
:102490000EE0FFF754FF09E0C8684207FCD500F0E2
:1024A0007EF84FF40020DFF84C13086084F31088A6
:1024B000FF2228684262BDE8F1832DE9F041DFF890
:1024C0002C432168CA224A6253234B62C84B1A68C4
:1024D00042F020021A601D68C24A05F00705C5F1E6
:1024E0000405D5709E68360C06F07F06761C1671C2
:1024F0009B68C3F30E035B1CD3805B1E7343A3F581
:10250000A073EB404FF6FF75AB422CBF15811381D2
:10251000B94B1D6845F400251D60B84D2E6846F482
:1025200000262E6040BB012090704FF0FF35D56033
:102530000020AD4D002605F10C085FFA80FC18253F
:1025400015FB0CFC401CC7B208F80C60062FF4DB2E
:10255000062010708A6822F480628A6000F01FF8FA
:102560004FF40021D9600320FFF755F820688168F7
:1025700041F48041816005E0C868410544BF032003
:10258000FFF73EF82168FF20486200220321032064
:10259000FEF7EAFFBDE8F0410320FFF703B8C86883
:1025A00000F0800060F49060C86070472DE9F04151
:1025B00004460025EFF3108672B61827DFF828C20C
:1025C0000CF10C0E07FB05F81EF8080010B16D1C8D
:1025D000062DF5DB062D0CD06F430CEB0700012711
:1025E000077386F310880461427303600D70002046
:1025F00002E086F310880120BDE8F081F8B50746B7
:10260000EFF3108472B60320FEF7D7FF774D7C4AB4
:102610002E68CA20706253213B46182071624343E2
:10262000D15C022917D100213846FFF744FE6D48DE
:10263000017806290AD16E4801684A0500F014F8AD
:1026400020F48060B06000F015F804E04078884223
:1026500018BFFFF774FE2968FF2048620320FEF7C9
:10266000A1FF84F31088F1BD02D5F0684107FCD4C6
:10267000B0687047F0684107FCD5F0685D4900F02C
:10268000800060F49060F0604FF400200860032048
:10269000FEF7C1BF2DE9F04704461825524E6843A6
:1026A00037188A46397B022904BF2046FFF7A6FF68
:1026B000EFF3108972B60320FEF77FFFDFF82C815D
:1026C000D8F80000CA2141625322426202203873C6
:1026D000C7F808A0C7F804A0DFF808A19AF800001E
:1026E000062808D100F075F878754FF0FF31CAF868
:1026F0000C10002056E0FFF709FEB9680918B96010
:1027000006F10803B9689AF800206A439A58914282
:102710002AD39AF8002004E006F1150E6A431EF849
:10272000022006F1150315FB02FC13F80C30062BF2
:1027300006D006F1080C6B435CF803309942EBD2EB
:102740001146694306F1150E1EF80130062B05D01F
:1027500006F1140C15FB03F50CF805407B753A7572
:1027600006F1150254541DE09AF800109AF800C0C2
:10277000614515FB01F20FD006F1140E06F1150CA0
:102780001EF8023015FB03F50CF8054079753B7512
:1027900006F114018C5403E006F1140379759C547E
:1027A00000F017F89AF800109AF801208A4202D037
:1027B000FFF7C5FD02E0B968081AB860FF20D8F835
:1027C000001048620320FEF7EDFE89F31088BDE893
:1027D000F0879AF800108AF801108AF800407047D4
:1027E00028280040F815002024130020341400206D
:1027F000082800400C0800580008005880080058BD
:10280000301300204B4900E04B4981B00A68024375
:102810000A60096808400090009801B07047F8B558
:102820008AB0142105A8FEF79FFF0022079203211A
:102830004FF46042069105920120FFF7E3FF05A9DE
:102840004FF0904000F066FE3A4D3C4C286840083E
:1028500040002860182105910220FFF7D3FF05A949
:1028600000F073F8286820F0020028600025FEF7C9
:102870003FFEFEF73FFEFEF743FE14216846FEF7DB
:1028800073FF0026002700212D4A02EBC102907938
:1028900080B11368B3F1904F0AD0A34205D0294804
:1028A000834207D19088074304E09288164301E0F1
:1028B00090880543491C2629E6DB0021029101226C
:1028C000032101920391A8B288B100900120FFF783
:1028D00099FF0120FFF798FF69464FF0904000F004
:1028E00019FE0022A9B24FF0904000F0DFFEB0B216
:1028F00068B100900220FFF785FF0220FFF784FFF8
:1029000000F022F80022B1B2204600F0CFFEB8B2AB
:1029100070B100900420FFF775FF0420FFF774FFEB
:10292000084C00F011F80022B9B2204600F0BEFEBB
:102930000BB0F0BD4C0000584C010058000400489A
:1029400048480008000800486946204600F0E2BDFB
:1029500000B587B04FEA0D0005A11C2200F0C4FEAF
:1029600000F02FF9684600F005FB07B000BD00003D
:1029700000000000000000000000000048480008BF
:10298000280003202C00032026040400284981B0DD
:102990000A6802430A60096808400090009801B084
:1029A0007047000030B585B004460D4600F03BF896
:1029B000200008BF042004D0012C18BF022C02D133
:1029C0000820FFF7E3FF2900DFF868201AA00ED1E6
:1029D00030F8141000910023019301210223029189
:1029E000039300F01BF80120FFF7E5F914E0012D37
:1029F00012D130F8140000904FF4041302950193A3
:102A000000F00CF80EA0045D00220F2160B2FEF76A
:102A1000ABFD60B2FEF7C6FD05B030BD694652F8A9
:102A2000240000F077BD14220021684600F068BE43
:102A30004C000058D81000201000010002000000D7
:102A40000A06070000F0D9BE6C486D49016001F12B
:102A50002002426001F13003836001F14002026212
:102A600001F14803436201F15002C26001F15803D1
:102A7000036101F17402426101F1780383618431E1
:102A8000C16100F0D8BE38B504465E4D284600F05E
:102A900035FF5A494868A1680160E2685A49C26036
:102AA0004160856000F0E3FE58482AE080B5534855
:102AB0004268136801211972406800F0DEFE0020B0
:102AC00002BD38B5514C4F4D04E000F041F800987C
:102AD00021688847284600F014FF0028F5D031BD52
:102AE0004A484168084738B50446494D284600F031
:102AF00005FF4249C868A1680160456000F0C2FE58
:102B000044482168016062684260002032BD80B59F
:102B10003A48C268136810211972C06800F0B8FE04
:102B2000002002BD3548C168C2683A4910680B6888
:102B3000184738B5374C364D04E000F009F80098D6
:102B400061688847284600F0DCFE0028F5D031BDDA
:102B50006946284600F0FEBE38B504462E4D28468C
:102B600000F0CCFE2D4800F0C9FE24480069A168A1
:102B70008160E268C260056121680160626842604C
:102B8000216941616269826131BD80B50146234896
:102B900000F0CAFEBDE802400FF2050000F081BE61
:102BA00038B5164C1D4D06E0FFF7D2FF009920699D
:102BB000006900F0B9FE284600F0A3FE0028F3D01B
:102BC00031BD10B5164C204600F098FE0B494869FF
:102BD0000460BDE8104000F078BE1CB5104C06E063
:102BE0006946204600F0B6FE009800F0C5FE20467B
:102BF00000F087FE0028F3D013BD00000000032082
:102C0000B8090320580A03209C0803204816002016
:102C1000600A032050160020480A032040160020B6
:102C2000500A03202DE9F843654C664EA5692840FB
:102C3000A0614FF0FF372169E2696069236A4FF0B4
:102C400001083CE0491C54F831301A42FAD054F8DB
:102C5000312004EBC1091040D9F804100CEA00003F
:102C6000014208BFC9F80470D9F80410084000F008
:102C7000ABF8D9F8042008FA00F18A43C9F8042017
:102C80006062EFF3108172B608FA00F22069D24355
:102C900010402061022004EBC003401E53F808CC12
:102CA00002EA0C0C43F808CCF5D181F31088606A75
:102CB00056F8201088472169E2696069236AD4F8D0
:102CC00018C0014011EA0C0F05D01A4203D10021AF
:102CD00000EA0C02B7E7676200F04FFEEFF31086E0
:102CE00072B62269E1696069A36902401A4202BFB3
:102CF000206A0142FFF778F886F3108800F03EFE64
:102D0000A561BDE8F18338B51446EFF3108572B6BE
:102D100000F05AF82B4941F8204085F3108831BD66
:102D200030B5EFF3108272B6254B1C6904431C6169
:102D300053F83150284343F8310082F3108830BDF6
:102D4000EFF3108172B61E4A536923EA000005E0D2
:102D5000EFF3108172B61A4A53691843506181F338
:102D600010887047EFF3108172B6154AD369184383
:102D7000D061F4E72DE9F041114C666A054637460B
:102D800016F1010F0EBF0026012000FA06F6D4F856
:102D90002080256203E029463046FFF727F8E069E6
:102DA0002842F8D06762EFF3108072B6E16921EA39
:102DB0000505E56180F31088C4F82080BDE8F08146
:102DC00098100020B413002002460020110C0904C2
:102DD00004BF1020120412F07F4F04BF083012020B
:102DE00012F0704F04BF001D120100BF03A3120FA9
:102DF000C0F11F00995C401AC0B270470403020280
:102E00000101010100000000000000007FB50C4638
:102E10004E4D61684E4E28626962281D00F0B0FD7B
:102E20002468746006F1080000F068FD012000F0DD
:102E30006AF801203070696841B10FF2ED020FF2BB
:102E4000F103009201930294684688477FBD1FB545
:102E50003F4C04F1080000F054FD00BB2078F0B1B5
:102E6000694604F1080000F075FD3848016A49B16F
:102E7000009A029201238DF8043001A888479DF83A
:102E8000040000E001202070207818B10098FFF7BE
:102E90007CFE04E0009904F1080000F03BFD04F121
:102EA000080000F02EFD28B9207818B104F10800C0
:102EB000FEF7A1FF1FBD2DE9F04106460F469046E3
:102EC0001C46002000F01FF8214D6868A0F809603A
:102ED000C7723A4641460C3000F006FC1B4A0120FE
:102EE0001070002152690020904748F2E800FEF778
:102EF0008AFF69688A78D21C04F1080000F0F4FBAC
:102F0000BDE8F041012010B51049124C496A20B9C2
:102F100001B188470021217010BD0120207011B13E
:102F2000BDE81040084710BD0020FEF769BF000053
:102F300010B50146064C04F1080000F0F5FC04F160
:102F40000800BDE81040FEF756BF000098150020AD
:102F50001816002069160020FFF7ADFF9DF80E003F
:102F600005B000BDF8B500F10C026B462E214FF6FE
:102F70006640F1E7F8B500F10C026B460F214FF601
:102F80006840E9E7F8B502466B4610214FF67540F8
:102F9000E2E7F0B51C491D4B0A681D49C2F30D025A
:102FA00001EB82010C6822689A4205D16569A1692A
:102FB000E269E368246905E0264635697169B2690A
:102FC0007368B4682E0E06702F0C47702E0A867038
:102FD00001724272C5F3031605F00F0505711A0C54
:102FE0000D0EC6704571C2720E0C0D0A190E81725B
:102FF0001B0A210E220C8671C57103734173827303
:10300000C4730020F0BD00003C400058B95646A9EA
:103010000000032038B596B007A8DFF83014DFF8B9
:1030200030443C2200F060FB0FF2794001900094A4
:1030300069460FF2594000F0ADFC01210220FFF774
:10304000F8F8DFF8102400210220FFF75CFE07A843
:10305000FFF788FF08B1FEF7E1FD0DF11600002132
:10306000018000F071FDDFF8F003016811F1010F3C
:103070000ED0DFF8E823436811701B0A090A51706B
:10308000190A4068D37090701B0C1171537106E0DF
:103090000020FFF7B5F8020008BF0FF21C4206211E
:1030A000002000F00FFE0FF218421021182000F04F
:1030B00009FE0FF21C421021082000F003FE182127
:1030C000012000F023FE00F065FE06A80DF11A01B4
:1030D0000190009105AB03220021012001F05AF874
:1030E000A5A4204601F040F9C3B2BDF81A10BDF8FE
:1030F00014000094002200F00AFF0DF11600009069
:103100000223BDF81810BDF81400DFF85443002264
:1031100000F0FDFE02220221002000F08DFD0120C2
:10312000207000F0D8FF082121710120002160707B
:10313000E170102001216071A1700022C9481021A6
:103140000823A0600492039002920191009301224F
:1031500000230121012000F0D2FFA07808B101F086
:103160007FF801F00BF904F1800500204FF6FF71A4
:103170002870E18201200FF2BD220021FFF7C3FD7C
:103180000FF2C11200212020FFF7BDFD0020A87022
:10319000062000F0DAFD01F013F9B34B012204F12F
:1031A00084010120FFF702FA0FF261220021402082
:1031B000FFF7A9FD00206871E8802083012000F05E
:1031C000AFF817B030BD70B54178A54CA74E0529B2
:1031D00004F1800504D03E2915D0FF2928D046E00F
:1031E0008088E18A884203D10020E0822870A8709C
:1031F000012000F095F801213170E08A708030469E
:1032000001F0DDF833E0C178012930D12A78042AB1
:103210000CBF0621052129700021B0F8050031708E
:103220007080E082304601F0CAF80720A8701EE0E6
:10323000B0F8030040F20241401A0FD0C01E09D07E
:10324000001F10D040F60501401A04BFE08A00F0CC
:103250009AFE0CE0E08A01F019F808E0E08A814962
:1032600000F07CFF03E0E08A012101F053F8012027
:1032700070BD7F4A107805280DD1D07820B100218B
:103280001079D170FFF7BAB90121D17040F6010170
:103290001079FFF7FFB970471CB5714C04F180003D
:1032A0000178052909D08179491E8941C90F8171A9
:1032B00020200021FFF734FD13BDE08A01AA0DF1A3
:1032C000050100F08EFCA0B99DF80500022804BF9E
:1032D0009DF80400022804D100210091012301225D
:1032E00004E000200090022302220021E08A00F086
:1032F000C7FC13BD5E490878052808D04879002826
:103300000CBF0320002048710021202006E0C8796E
:10331000401E8041C00FC87100214020FFF700BD52
:1033200018B54F4C84F8800087B000F059F8A022FF
:10333000802100F07FFE04F1880108B0BDE8104054
:103340004BE000004A49487918B9887938B901201A
:1033500008E003280ED1887938B9032008E0012855
:1033600008D102208870087003E0012802D10420EF
:10337000887003E0704700005057520018B587B0BE
:10338000044600F034FE641E032C1FD8DFE804F06E
:103390000206131600F02EF8802115E0002000230D
:1033A0004FF4A06206900590049003930290019060
:1033B0000090114608E000F01DF803E000F010F85E
:1033C0004FF4A0621146032000F034FE0A2000F002
:1033D00026FF08B0BDE810402649052000F009BFCF
:1033E0000020002306900590049003930290019022
:1033F00000907047002000230690059004900393EE
:1034000002900190009080227047000080B514491E
:10341000C88A91F887104FF4FA720029009207BF0A
:103420000023802200234FF40072114600F0ECFFCD
:1034300001BD000010B50A4C94F88000052804D0A6
:1034400000F0D5FD002084F8800010BDD84B0008A6
:10345000AC080320D33900088075FF1F2816002010
:103460000810002007B20100E543000858160020AC
:10347000881000209010002000210220FFF750BC8F
:103480000120FFF76FBC0120FFF774BC10B50446A4
:10349000616801F1080000F0F1FF00B10120207027
:1034A00010BD000010B1012803D07047FF20FFF7C6
:1034B00047BCFF20FFF74CBC6C7AD8AC57720000B9
:1034C000123456789ABCDEF0123456789ABCDEF08C
:1034D000FEDCBA0987654321FEDCBA098765432112
:1034E00010F8012B11F8013B0AB19A42F8D0D01A1A
:1034F0007047000000680549C0F3004252010123F3
:1035000000F01F0003FA00F08850704708080058C8
:10351000104700002DE9F04F00276B4A6B4B4FF02E
:103520000F0805460E4638E0694CA54214BF072433
:1035300004248C40674944EA0E0441F82C40C143FE
:10354000D3F800C0746801EA0C0CE40248BF40EAFA
:103550000C0CC3F800C0D3F804C0746801EA0C0C6A
:10356000A40248BF40EA0C0CC3F804C0D2F800C063
:10357000746801EA0C0CE40348BF40EA0C0CC2F882
:1035800000C0D2F804C001EA0C0C7168890348BF7E
:1035900040EA0C0CC2F804C07F1C316831FA07F015
:1035A00000F082800124BC4014EA0100F4D04FEA0C
:1035B000470C032101FA0CF16FEA010E716801F06A
:1035C0000309B9F1010F1CBF01F00301022912D157
:1035D000A968D6F80C900EEA010109FA0CF949EA3B
:1035E0000101A960696821EA04047168C1F300114E
:1035F000B9400C436C60B900347904F00304032C27
:1036000021D0EC68D6F808900EEA040409FA0CF907
:1036100049EA0404EC60347904F00304022C12D16A
:10362000FC0805EB840401F01C09D4F820A008FA7A
:1036300009FB2AEA0B0AD6F810B00BFA09F949EA95
:103640000A09C4F820902C680EEA040E347904F0BC
:10365000030404FA0CF444EA0E0CC5F800C07468C4
:1036600014F4403F98D0DFF86CE04FEA970C5EF816
:103670002C4001F00C0108FA01FE24EA0E0EB5F10F
:10368000904F08BF00240ED0134CA54208BF012460
:1036900009D0124CA54208BF022404D0104CA54208
:1036A0007FF442AF032444E7BDE8F08F0AB18161A3
:1036B0007047816270470B4A136801460B421CBF7A
:1036C0001160FEF7A3BB704780080058000800583F
:1036D00000100048080001400004004800080048AD
:1036E000000C00480C0800584AB1000011F8013BDA
:1036F000521E00F8013B1CBF11F8013BF8E7704770
:1037000010B5044610460A460146204600F0E0FE89
:10371000204610BDC0680840884201D10120704792
:1037200000207047C0690840884201D101207047DD
:103730000020704710B5684C02212046FFF7F2FFC9
:1037400038B16068C043810703D5FFF7F2F9022062
:1037500018E001212046FFF7E5FF38B16068C0435B
:10376000C10703D5FFF7ADF901200BE00821204682
:10377000FFF7D8FF38B16068C043010703D5FFF7F2
:103780002CFA0820A06010BD10B5534C0221204631
:10379000FFF7C0FF58B96068C043810307D5606870
:1037A00040F400306060BDE81040FFF7BBB908216D
:1037B0002046FFF7AFFF70B96068C04301030AD528
:1037C0006068464940F400206060086880474FF414
:1037D0000022A26010BD20212046FFF79BFF58B9B0
:1037E0006068C043810207D5606840F400106060E3
:1037F000BDE81040FFF774B910BD394881B00168C9
:1038000041F480110160006800F48010009000987D
:103810003448016841F4007101603348026842F4A1
:103820000072026040BF20BF3048016841F400418F
:10383000016001B0704780B52D48016841F48011E6
:103840000160006800F48010009000982248016830
:1038500041F001010160026842F4803202602C20D4
:10386000FDF7A0FEBDE802402D20FDF79BBE2148DC
:10387000016849084900016070471F494FF48030D2
:10388000086070471B48016821F002010160704721
:1038900018484FF400314160026822F4003202609F
:1038A000704738B504460C4D08212846FFF732FF13
:1038B00030B10A480460696821F40021696031BDB3
:1038C000A0474FF40020A86031BD0A48016821F0EC
:1038D0000801016070470000000C00585C160020D1
:1038E0005001005820080058D40800580C04005813
:1038F00050000058040C0058080C0058006040604C
:103900007047EFF3108172B6026882420CBF01204B
:1039100000201CE0EFF3108272B603680B60486071
:1039200001600868416024E0EFF3108272B608601D
:1039300043684B604160486801601AE0EFF3108112
:1039400072B642680368136002684368536081F38B
:103950001088704710B5EFF3108472B602680A60E1
:103960000168FFE70846FFF7E9FF84F3108810BD00
:103970000B6082F3108870477047704770470000F3
:103980000249034A01600261704700BFE72A00084C
:103990000F2B00087FB50C46684D6168684E2862A1
:1039A0006962281D00F09EFD246805F12800FFF7DC
:1039B000A5FF746006F10800FFF7A0FF012030703A
:1039C000696829B10FF24112009202946846884753
:1039D0007FBD1FB55A4C04F10800FFF792FF00BBF2
:1039E0002078F0B1694604F10800FFF7B3FF5348AF
:1039F000016A49B1009A029201238DF8043001A8AE
:103A000088479DF8040000E001202070207818B15C
:103A10000098FFF7BAF804E0009904F10800FFF7F6
:103A200079FF04F10800FFF76CFF28B9207818B17E
:103A300004F10800FFF720FD1FBD2DE9FC410446FD
:103A4000002000F056F8DFF8F48066882088012115
:103A500088F80010C6F3090646EA80263848406810
:103A6000A168E268C272B6B2A0F80960D2B20C30A6
:103A7000FFF73AFED8F814200021002090470025D7
:103A800048F2E800FFF7FFFC12E0B7F80100B0428F
:103A90000BD1887AC21E6069D2B28242C8BF024688
:103AA00020696261F91CFFF71FFE387800B101251B
:103AB00008F12800FFF725FF98B9694608F12800AA
:103AC000FFF748FF0098014600F10B07487A0F28DE
:103AD000DBD17888B04202D12269397811707878C8
:103AE000E4E72800CCD0012000F003F80020BDE876
:103AF000F6811249496A08B921B1084700291CBF5B
:103B0000012008477047000010B50146487A0F2889
:103B100018BF0E2807D10B48FFF706FFBDE810407D
:103B20000020FFF7ADBC064C04F10800FFF7FCFED7
:103B300004F10800BDE81040FFF79EBC68150020A6
:103B4000081600209015002000B587B000F024F87A
:103B500000F01CF8032100F009F800F024F8002818
:103B60004CBFFF209DF8000007B000BDADF8041069
:103B7000ADF806107047049107AA0121069103923F
:103B800070470F210291ADF80620704718220021DE
:103B900001A800F0B7BC014600208DF80000704776
:103BA000049207A9039101220692CDF814D00021B6
:103BB00001A8FFF742BF09220021684600F0A2BC1D
:103BC0001822002102A800F09DBC05220792CDF822
:103BD00018D0002102A8FFF730BF0821ADF804106B
:103BE000704770B5C8B006460C4615460522FFF76B
:103BF000E3FFADF82060FFF7E3FF302200F012F89A
:103C0000FFF7E3FF002848BFFF2009D49DF800001C
:103C100030B99DF80300207000209DF80410297031
:103C200048B070BDADF80A200821ADF80810022296
:103C3000059208A90491704718B5C7B000F013F8B1
:103C4000312200F009F8FFF7ABFF00284CBFFF203E
:103C50009DF8000048B010BDADF806200821ADF871
:103C600004100322704700248DF81C008DF80040DA
:103C700007A8417082700021182201A800F042BC00
:103C80005CB5C7B00026ADF81C008DF81F2007A852
:103C90004C9C817003718DF80060ADF82140FFF7F6
:103CA00075FFFFF79AFF3222FFF76BFF0721FFF73F
:103CB00062FFFFF77AFF00284CBFFF209DF800004D
:103CC00049B050BD18B50C46C7B0114600F050F8C9
:103CD0008DF81D4022460DF11E0000F00DFC00F095
:103CE00054F83F21ADF804100C22ADF8062007A9C6
:103CF00003910122A41C0692049400F020F80028ED
:103D00004CBFFF209DF8000048B010BD00B5C7B003
:103D100000F034F80F2200F007F800284CBFFF2015
:103D20009DF8000047B000BDADF806203F21ADF87A
:103D300004100222049207A9039101220692CDF8F1
:103D400014D0002101A8FFF778BE00B5C7B000224B
:103D50008DF80020ADF81C0000F017F81822FFF7CE
:103D6000E3FF00284CBFFF209DF8000047B000BDD6
:103D700000228DF800208DF81C00704700238DF87C
:103D80001C008DF81D108DF800301822002101A8AC
:103D900000F0B8BB00B587B000208DF8000000F03F
:103DA000E5F840F2011200F01AF900F0E6F80028F8
:103DB0004CBFFF209DF8000007B000BD2DE9F84181
:103DC000C7B00446884616461F46012808BF022091
:103DD00003D002280CBF102000200DF11D031D1878
:103DE00000F035F8012C8DF81C4002D0022C1AD0BE
:103DF0001BE00224224641460DF11D0000F07CFB31
:103E00002E706F7000F0B2F800F0AAF84FF48172D3
:103E100000F017F8E41C0692049400F0AEF80028B5
:103E200005D5FF2009E01024E4E7972005E09DF880
:103E3000000010B94E9800F065F8FFE748B0BDE803
:103E4000F081ADF8062007A90391032270470322F1
:103E50000021684600F056BB2DE9F64F0C46C7B06E
:103E600005469B46012C08BF022003D0022C0CBF44
:103E7000102000200DF11F031E18FFF7E8FF012C92
:103E8000ADF81C508DF81E4002D0022C2DD02EE033
:103E90000227569C559DDDF85091DDF84CA1DDF8C8
:103EA000488148993A460DF11F0000F025FBA6F81D
:103EB00000B086F8028086F803A086F80490757139
:103EC000B47100F053F800F04BF84FF4827207A978
:103ED000ADF8062003910A3703220497069200F0FA
:103EE0004CF8002805D5FF2009E01027D1E79720DE
:103EF00005E09DF8000010B9579800F003F849B0AC
:103F0000BDE8F08FBDF8011001800020704778B542
:103F1000C7B01D464C9B00F055F800268DF8006098
:103F20008DF821502A4619460DF1220000F0E4FADE
:103F300000F01CF800F014F84FF4837200F049F818
:103F4000AD1D00F018F800284CBFFF209DF80000C0
:103F500049B060BD00228DF80020ADF81C0070470C
:103F60003F21ADF8041070478DF800301822002171
:103F700001A800F0C7BA06920495CDF814D000212C
:103F800001A8FFF75ABD00B5C7B0FFF7E3FFFFF781
:103F9000EDFF40F2251200F009F8FFF7EEFF0028D0
:103FA0004CBFFF209DF8000047B000BDADF80620D3
:103FB0003F21ADF804100222049207A903910122C7
:103FC00006927047ADF81C00ADF81E108DF8202049
:103FD0007047ADF8062007A9039101227047ADF89C
:103FE00006203F21ADF8041001220692704700B56B
:103FF00087B000F047F900F088F9812200F0ADF9B0
:1040000000F010F800284CBFFF209DF8000007B01A
:1040100000BDADF806203F21ADF804100322049244
:1040200007A9039101220692CDF814D0002101A81E
:10403000FFF703BD2DE9F84DC7B09446DDF840E128
:10404000519A559D569EDDF84CA1ADF81D108DF886
:104050001C004FF0000BADF81FC08DF821308DF81B
:1040600022E000F02CF800F01FF824F8095F6680C9
:1040700000F04BF93F20ADF8040083210120ADF89A
:10408000061000F00AF8FFF7CFFF00284CBFFF2012
:104090009DF8000048B0BDE8F08D07AA574406908F
:1040A00003920D370497704788F800A007AC549925
:1040B000E419524608F10100544400F01DBA8DF88D
:1040C0002320174652998DF800B00DF1240809A855
:1040D000B84400F011BA00B5C7B000F0ECF800F039
:1040E00014F900F03CF9852200F0EBF8FFF79BFF94
:1040F00000284CBFFF209DF8000047B000BD2DE90F
:10410000F841C7B04FF0000800F022F84E9F4F9ED4
:10411000509D529C51988DF800800DF123018DF82F
:104120001F308DF820708DF821608DF822500860C6
:104130008DF8274000F0E9F8862200F00EF90C22F5
:10414000FFF76DFF00284CBFFF209DF80000AFE097
:104150008DF81C0007A841708270704700B5C7B089
:104160000023ADF81C008DF800300DF11E00182260
:10417000016001A8002100F0C5F9882200F0EDF8E7
:104180000622FFF74CFF00284CBFFF209DF80000DF
:1041900047B000BDF8B5C8B005460E4617461C46E8
:1041A00000F022F808A8467087708DF8205000F0C3
:1041B000A0F88A2200F08CF8032200F08FF8002883
:1041C00048BFFF200ED49DF8000058B94F994E9873
:1041D000BDF801202280BDF803300380BDF8050042
:1041E0000880002049B0F0BD07220021684600F099
:1041F00089B918B5C7B000F09BF800F0A1F800F03D
:1042000084F800F0ACF88E2200F09EF8FFF70CFF67
:1042100000284CBFFF209DF8000048B010BD00B53D
:10422000C7B000F048F800F070F800F098F88F225E
:1042300000F047F8FFF7F7FE00284CBFFF209DF87D
:10424000000047B000BD00228DF80020ADF81C0032
:104250007047ADF806203F21ADF8041002227047E8
:1042600000B587B000F00EF800F04FF8922200F091
:1042700074F8FFF7D7FE00284CBFFF209DF8000020
:1042800007B000BD00208DF80000704700B5C7B032
:10429000FFF7D9FF00F039F89522FFF7DAFFFFF7B3
:1042A000BEFE00284CBFFF209DF8000047B000BDB7
:1042B00048B0BDE8F08100228DF800208DF81C0088
:1042C0007047ADF8062007A90391012204927047B8
:1042D000ADF80A203F21ADF808107047059208A9F3
:1042E000049107220792CDF818D0002102A8FFF709
:1042F000A4BB1822002102A800F004B90023ADF8E5
:104300001C008DF81E108DF800301822002101A825
:1043100000F0F8B800B5C7B0FFF7F0FFA522FFF72F
:1043200078FE00284CBFFF209DF8000047B000BD7C
:10433000002304468DF800308DF81C40224670475B
:104340000DF11D0000F0D8B8ADF8062007A90391C3
:104350000122641C069204947047ADF806203F21A8
:10436000ADF804107047000000F1010310F8011BC4
:1043700011B110F8011BFBE7C01A70470749002074
:10438000087700220648027000F0C6B803490A7F89
:1043900041F82200087F401C08777047C0150020B4
:1043A0006816002000781749022802D0032803D09D
:1043B000704701220A7570470020087570477047E2
:1043C0000FF229020021802010B5FEF79CFC0D4859
:1043D00000240475E1B24454641CE2B2142AF9DBEF
:1043E00010BD704700218020FEF79ABC05490A786D
:1043F000087D521C0A7000281CBF012000F024B95F
:1044000070470000E01500205CB5C7B00026ADF88D
:104410001C0007A84C9C41808280ADF822300481AA
:104420008DF8006000F024F800F01CF840F28112D2
:104430000F210291ADF806200A21049107AA01215B
:104440000691039200F008F800284CBFFF209DF869
:10445000000049B050BD0692CDF814D0002101A84B
:10446000FFF7EBBA3F21ADF8041070478DF800302C
:104470001822002101A800F045B8000070B50446DC
:104480006078FF2802BFB4F8030000F47F40B0F565
:10449000406F13D100260D4D00E0761C297FF0B24D
:1044A00088420BD2F1B255F82120204690470100F6
:1044B000F3D003D0022806D0012070BD2046BDE80D
:1044C0007040FEF780BE002070BD00BFC015002008
:1044D0004018491C1CBFB1F1010100F8012DF9D1B0
:1044E000704700000249034A01600261704700BF43
:1044F000872A0008AD2A000810B50446FFF7F4F833
:10450000204610BD10B5044610460A460146204616
:10451000FFF7DEFF204610BD80B500F0B1F800F0D7
:10452000B0F800F0AFF800F0AEF800F0ADF800F031
:10453000ACF800F0ABF800F0AAF800F0A9F800F031
:10454000A8F800F0A7F800F0A6F800F0A5F800F031
:10455000A4F800F0A3F800F0A2F800F0A1F8BDE87C
:10456000014000F036B8000018B585B0417800244D
:10457000FF292BD1B0F8031040F60142891A02D06E
:104580001A3919D022E03C4A9388B0F807109B1CD6
:1045900099420BD1407B012410B1012802D015E0D3
:1045A000032100E002218DF800100CE05088401C2F
:1045B00081420BD1012409E004218DF80010B0F8EC
:1045C0000500ADF810006846FFF7ECFE204606B087
:1045D00010BD10B58AB02948274CFFF7D7FE4FF61B
:1045E0001071ADF8181000940623012206A90120CD
:1045F000FFF7E4FB4FF61170ADF81800A11C012283
:10460000059104920292102003900021062201914C
:104610000092238900F013F84FF61270ADF81800DD
:10462000211D059110200122039000210090049289
:1046300002920191638900F002F80AB010BD20884F
:1046400006AA0121FFF708BC1CB50B4C14239222CB
:10465000638110B1012806D00CE00091002223896B
:104660006188DBB202E000910022A1882088FFF778
:104670004EFC0246104616BDC010002069450008D9
:104680007047704770477047704770477047704772
:104690007047704770477047704770477047704762
:1046A000704700004B490A68920840EA820008609F
:1046B000704700EB8100484AD0F88010914201D049
:1046C000012070470020704742F4806240F82120AA
:1046D000704780B500F0A8F800F05BF83F481F2154
:1046E00081610321026809E000F0A6B880B500F0FE
:1046F0009BF800F04EF839480268022161F302028B
:1047000002603748016841F00401016030BF01BD1B
:1047100038B5344C00F06CF800F02EF80028FBD1CE
:104720004FF0B040816801F00C0104291BD10168F1
:1047300041F48031016001222B490B6862F30203CE
:104740000B600D6805F00705012DFAD1016889039A
:10475000FCD50221826861F301028260816801F068
:104760000C010829FAD1002203212046FFF7ACFFF3
:10477000BDE8314000F060B80321204699E780B5DC
:1047800000F052F81648016821F00401BDE700F07E
:1047900053B838B5134CFFF7EFFF0028FBD10421C5
:1047A000FFF7EBFF104D40B910480168090402D42F
:1047B0000068400507D500F01BF800F01DF82868D8
:1047C000C008C00028602046BDE838400022032110
:1047D0007AE7000008000058000400800004005838
:1047E00010ED00E000140058004000588804005804
:1047F00000220421204667E710B54FF0B04420683E
:1048000040F48070206020684105FCD50120FFF74E
:1048100049FF606A800880006062A06800F00C00B8
:104820000428FAD110BD00000248016821F00201FD
:104830000160704710E000E00248016841F00201A9
:104840000160704710E000E0000000480100000037
:1048500000000048010000000000004801000000C6
:1048600000000048010000000000004801000000B6
:1048700000000048010000000000004801000000A6
:104880000000004801000000000000480100000096
:104890000000004801000000000000480100000086
:1048A0000000004801000000000000480100000076
:1048B0000000004801000000000000480100000066
:1048C0000000004801000000000000480100000056
:1048D0000000004801000000000000480100000046
:1048E0000000004801000000000000480100000036
:1048F0000000004801000000000000480100000026
:104900000000004801000000000000480100000015
:104910000000004801000000000000480100000005
:1049200000000048010000000000004801000000F5
:1049300000000048010000000000004801000000E5
:1049400000000048010000000000004801000000D5
:1049500000000048010000000000004801000000C5
:1049600000000048010000000000004801000000B5
:1049700000000048010000002DE9FC4D016800F135
:104980000805490805EBC102019200F108034068DF
:1049900000F0010A03EBC108400808EBC00B00203F
:1049A000002105E0009A964218BF16F9014B0CD180
:1049B000019A954206D02B686A68EE18324400923C
:1049C0000835EFE75846BDE8F68D009A964205D1C6
:1049D0002B686A68EE1832440092083516F8017B9D
:1049E000884210D1D84508BF00F017F8D8F8000069
:1049F000BAF1000F18BF4844D8F8041001448842A7
:104A000008F10808EED0002C00F8017B02D5641CE8
:104A1000E6D1C7E7641ED8D5C4E7012000F000B88E
:104A200080B500F007F8024A11001820ABBEFBE782
:104A30002600020010B500F013F802000023002445
:104A4000E4431068A04203D011000220ABBE136003
:104A50005068A04203D0111D0220ABBE536010BDB0
:104A600000487047E410002001000000030000002F
:104A70000500000001000000010000000600000029
:104A80000A000000200000000200000004000000F6
:104A9000080000001000000040000000800000003E
:104AA0000001000000020000A0860100400D03008C
:104AB000801A060000350C0040420F0080841E0062
:104AC00000093D0000127A000024F40000366E0157
:104AD0000048E801006CDC0200000000000000005B
:104AE00000000000000000001349002008604FF0A3
:104AF000B0411248026842F4700202604FF4E022B2
:104B0000086840F0010008608A600B680C480340A8
:104B10000C480B60026822F0050202600022436824
:104B20005B085B0043600848C8600861086820F4BF
:104B3000802008608A61704708ED00E088ED00E0A1
:104B4000FBFEF6FA94000058001004227047FEE7BE
:104B5000FEE7FEE7FEE770477047704700F026B8B3
:104B6000FDF755BC0848FBF7D5BF0848FBF70FBB5E
:104B70000748FBF70CBBFEF7DDBDFEF705BE00F0F6
:104B80001DB80448FBF7C6BFA814002090120020EF
:104B9000FC110020081500201020FEF78CBD01201C
:104BA000FEF789BD0220FEF786BD0000024841687D
:104BB00002788A1842607047CC1000200449C86807
:104BC0000A6882430A60486000F004B800000000F0
:104BD00000150058704700000000000000000000B1
:104BE0000000000000000000000000004400080079
:104BF0004005020112299C00F4010000FFFFFFFFA5
:104C0000480101000020D8060003720600000000E1
:104C10000D00000030B4002512E050F8042BD3073B
:104C200044BF4A44521E091F042942F8045BFAD2C9
:104C300013468C0744BF15809B1CC90748BF1D70D5
:104C400050F8041B0029E8D130BC704710B5074963
:104C500079441831064C7C44163404E00A68081D77
:104C6000114488470146A142F8D110BD2C00000034
:104C7000780000004EF68851CEF20001086840F43A
:104C800070000860BFF34F8FBFF36F8F4FF001705C
:104C9000E1EE100A704700007DFFFFFF7C05000079
:104CA000F0100020700800003C000320000000000D
:104CB000C9FCFFFF020000000200000074010000B8
:104CC000020000002800032014000000ADFCFFFFDC
:104CD00002000000020000005A0100002F00000046
:104CE00008100020E800000000F00DF8002801D0B6
:104CF000FFF7ACFFAFF300800020AFF30080FCF7BC
:104D0000D6FE00F002F80120704700F001B8000064
:104D100007463846FFF784FEFBE7000005480146DA
:104D200003B4684680F30988AFF30080FFF7A2FF61
:104D3000FFF7DAFFA5EDF5FE7F4700088F47000873
:104D4000ED46000811470008D3460008E946000870
:104D50000148804701480047E94A00081D4D000806
:104D6000FFF7FEBFFFF7FEBFFFF7FEBFFFF7FEBF77
:104D7000FFF7FEBFFFF7FEBFFFF7FEBFFFF7FEBF67
:104D8000FFF7FEBFFFF7FEBFFFF7FEBFFFF7FEBF57
:104D9000FFF7FEBFFFF7FEBFFFF7FEBFFFF7FEBF47
:104DA000FFF7FEBFFFF7FEBFFFF7FEBFFFF7FEBF37
:104DB000FFF7FEBFFFF7FEBFFFF7FEBFFFF7FEBF27
:104DC000FFF7FEBFFFF7FEBFFFF7FEBFFFF7FEBF17
:104DD000FFF7FEBFFFF7FEBFFFF7FEBFFFF7FEBF07
:104DE000FFF7FEBFFFF7FEBFFFF7FEBFFFF7FEBFF7
:104DF000FFF7FEBFFFF7FEBFFFF7FEBFFFF7FEBFE7
:104E0000FFF7FEBFFFF7FEBFFFF7FEBFFFF7FEBFD6
:104E1000FFF7FEBFFFF7FEBFFFF7FEBFFFF7FEBFC6
:104E2000FFF7FEBFFFF7FEBFFFF7FEBFFFF7FEBFB6
:104E3000EC008100F700040409505752E900F8FF24
:104E4000EC0004F700F70001F9000010FC000A086C
:104E50000048000C0048000C0048F8FF0300093D22
:014E60000051
:0400000508004D1D85
:00000001FF
