:020000040800F2
:100000000810002059B8000809B600080BB600080F
:100010000DB600080FB6000811B600080000000079
:1000200000000000000000000000000013B60008FF
:1000300015B600080000000017B6000819B6000841
:1000400079B800087DB8000881B8000869B60008D2
:1000500085B8000889B800088DB8000891B8000874
:1000600095B8000899B800089DB80008A1B8000824
:10007000A5B80008A9B8000827B60008ADB8000860
:10008000B1B80008B5B80008B9B800081FB6000834
:100090001DB60008BDB80008C1B80008C5B8000802
:1000A000C9B80008CDB80008D1B80008D5B8000814
:1000B000D9B80008DDB80008E1B80008E5B80008C4
:1000C000E9B80008EDB80008F1B80008F5B8000874
:1000D0002DB6000833B60008F9B80008FDB80008CE
:1000E00061B6000801B9000805B9000809B900089F
:1000F00039B600083DB6000841B600080DB9000841
:1001000011B9000815B9000819B900081DB900088F
:1001100021B9000825B9000829B900082DB900083F
:1001200031B9000835B9000845B6000839B90008EA
:100130003DB9000841B9000845B9000881B000F593
:10014000E0700268914203D343681A44914202D39B
:1001500080680028F5D101B07047DFF8681708689B
:1001600090B94FF4805048604FF480324FF0FF3028
:100170008A60C86008610420DFF84C27DFF84C373C
:100180004861C2F8BC010B600120704701F108030F
:1001900013F0070F0EBF0023C3F1080303F007039A
:1001A0001944D21A8161C26042F001034B60091DFB
:1001B00028238B50DFF80C170A69C26170472DE9BC
:1001C000FC4B074601F1080010F0070F0FBF8946EE
:1001D000C0F1080000F0070001EB000902F108017E
:1001E00011F0070F06D002F10800C0F1080000F07E
:1001F000070002441546A5EB090009EB0306A0EB36
:10020000030B43F00303C9F80430AE4228BF01F0EA
:10021000FFF92879C10758BF01F0FAF9BBF1100FB7
:1002200038BF01F0F5F9B869854207D1F86858443C
:10023000F860BE6140F00100706050E1786985426D
:100240000AD1B8688344C7F808B07E614BF001005A
:10025000706046F80BB042E1686800F003010129C4
:1002600040F0AB80C008C0000190C0081F2839D8FA
:10027000AC68D5F80C800090454508BF01F0C8F97E
:10028000A54208BF01F0C4F968680099C008C00021
:10029000B0EBC10F18BF01F0BBF9009907F12800BE
:1002A00000EBC100844206D03A699442C0F08080DD
:1002B000E168A9427CD1A04506D1009839680122A5
:1002C00082409143396075E0804506D038698045A9
:1002D0006ED3D8F80800A8426AD1C4F80C80C8F8D8
:1002E000084067E0EC68D5F81880AC420CD0A868EC
:1002F0003969884222D3C168A94204BFA168A942D2
:100300001CD1C460A0601BE005F11402146834B96C
:1003100005F1100214689CB101E01A46146804F15A
:1003200014031968002902BF04F11003186800289B
:10033000F3D139698A4228BF106001D201F068F90F
:10034000B8F1000F36D0E96907F5987000EB81002D
:100350000268954208D10460A4B9E869796801226D
:1003600082409143796025E03869804508D3D8F808
:100370001000A84214BFC8F81440C8F8104001E0AB
:1003800001F046F9B4B139698C4211D3C4F8188030
:10039000286928B1884226BF2061846101F038F9BC
:1003A000686938B13969884202D36061846101E0CB
:1003B00001F02EF901982D18834468684008400028
:1003C00068604BF0010171604FEADB0446F80BB046
:1003D0001F2C23D807F1280000EBC4084546BBF1C9
:1003E000100F38BF01F014F9386820FA04F1C9077A
:1003F00005D4012101FA04F404433C6007E0D8F875
:100400000800396988422CBF054601F001F9C8F897
:100410000860EE60B560C6F80C8060E05FEA1B2003
:1004200008BF002123D0B0F5803F28BF1F211ED276
:10043000A0F58072120C02F008029040A0F58051E5
:10044000090C01F004018840A0F580431B0CC2F1A7
:100450000E0203F00203521AD21A984002EBD03275
:10046000D01D2BFA00F101F0010101EB420107F56B
:10047000987202EB8100F1610022726132617A6848
:1004800022FA01F3DB0707D4012303FA01F1114338
:1004900079600660B0611DE002681F291DBF490830
:1004A000C1F119010BFA01F1594600E0024650680A
:1004B000C008C000584516D002F11003CC0F03EB62
:1004C0008403490018680028F0D13869834204D3B6
:1004D0001E60B261F660B66001E001F099F809F1C2
:1004E0000800BDE8F68B396990688A4228BF8842C7
:1004F000F3D3C6609660B060F2600020B061EEE7B2
:100500002DE9FE4F04468B46A5692E469046994636
:100510003146FFF713FEA8F128020168406801EB9D
:10052000000AAAF1270111F007000EBF0021C1F156
:10053000080101F007010AEB0100A0F12F0706F105
:100540001000874238BF374607F11800019059461E
:10055000002000902046FFF719FE07F1080010F078
:10056000070F18BF01F054F81B20786007F108014D
:1005700004F5E07090E80C5081E80C50C0F800B031
:10058000C0F80480C0F80C9081600198009900E0E8
:10059000001D07224260491C00F108025245F7D3B2
:1005A0000129D8BF01F034F8B74200F09580BF1B95
:1005B000301D311DC05940084000C85147F00101AD
:1005C00071604FEAD70BF751BBF11F0F21D804EB35
:1005D000CB0000F12805A846102F38BF01F018F80D
:1005E000206820FA0BF1C90705D4012101FA0BF1AB
:1005F0000843206006E0A868216988422CBF804635
:1006000001F006F8AE60C8F80C60C6F80880F56026
:100610006FE0380A08BF002123D0B0F5803F28BF23
:100620001F211ED2A0F58072120C02F00802904029
:10063000A0F58051090C01F004018840A0F5804329
:100640001B0CC2F10E0203F00203521AD21A984098
:1006500002EBD032D01D27FA00F101F0010101EBCD
:10066000420104EB8102002302F59870F16173618D
:100670003361626822FA01F3DB0707D4012303FA2E
:1006800001F1114361600660B0611DE002681F293D
:100690001DBF4908C1F1190107FA01F1394600E00F
:1006A00002465068C008C000B84216D002F11003DC
:1006B000C80F03EB8003490018680028F0D12069B7
:1006C000834204D31E60B261F660B56011E003B0EE
:1006D000BDE8F04F00F09CBF0BE0216990688A42B2
:1006E00028BF8842F3D3C6609560B060F2600020F6
:1006F000B06103B0BDE8F08F2DE9F041714F0546C0
:100700003868884608B9FFF728FDB96801EB08008A
:100710002F30491E20EA010188457DD205F5D876A3
:10072000B06828B1326889188A4275D2884273D37A
:1007300000F072FF01001CBF0C6811F1010F6BD0BB
:100740003068201805F5D87230605368984238BF79
:1007500018467060A86960BB286908B1814200D260
:100760002961316174610020F06105F12802386867
:1007700068624FF0FF3028620020D260926002F180
:10078000080353611361801C10322028F5D34E48B2
:10079000854208BFA4F1280228D055F8040CC008EF
:1007A00005EBC002A2F108000A19121A283A014604
:1007B0001CE005F5E070024600E092687AB3136829
:1007C00057683B449942F8D1137B1F0727D4AB6984
:1007D0001768BB4223D3D2F804C06744BB421ED281
:1007E000A444C2F804C0E868A96922182846FFF7A3
:1007F000CDFC1FE08068C0B103689342FAD1027B50
:10080000130712D4026801604368E4184460434649
:100810002846BDE8F041D2E40020BDE8F0812A6915
:10082000914238BF29610A19E5E70023224628468C
:10083000FFF766FEE8688045EED2A0EB0800A969E4
:10084000E86001EB0802AA6140F00100506048F046
:100850000300486001F10800BDE8F08138B4194B8D
:100860001A6882B94FF480525A604FF480344FF0C6
:10087000FF329C60DA601A610422134C134D5A61F6
:10088000C4F8BC211D6011F1400F17D28269AAB1D2
:10089000C368283199420BD200F5E0710C68A2427E
:1008A00003D34D682C44A24202D389680029F5D1B4
:1008B000C16999423CBF4FF0FF31C16132BC002099
:1008C0007047000064390020FC3000206859883CE3
:1008D0002DE9F84F00258946090AC9F1000B08BF28
:1008E000002323D0B1F5803F28BF1F231ED2A1F5DE
:1008F0008072120C02F008029140A1F580531B0C8B
:1009000003F004039940A1F58044240CC2F10E02C7
:1009100004F00204D21A121BA14002EBD132D11D05
:1009200029FA01F303F0010303EB4203074607F53D
:10093000987858F8230030B31F2B0FBF4C465C0843
:10094000C4F1190409FA04F4AC46594600E0640005
:100950004268D208D200A2EB09028A4203D21100F7
:10096000054600F06881426910304FEAD47B50F8A8
:100970002B00002A1CBF824294460028E7D18B46F8
:100980006046B0BBBDBB012000FA03F35B005842D8
:1009900003437868034000F04D81584203405B1EDA
:1009A000180B00F01000C340590901F00801CB40BA
:1009B0009A0802F00402D3405C0804F0020408180C
:1009C000E3401018C3F3400620183044F3401B18CE
:1009D00058F823000DE008464168C908C900A1EB9A
:1009E000090159453CBF8B46054601690029F2D1F2
:1009F00040690028F0D1002D00F01C81B868A0EB00
:100A00000900834580F0168138698542C0F0108165
:100A10006868C008C00009EB0B01884218BF00F0ED
:100A2000F7FD05EB0906B54280F00281EC68D5F8C8
:100A300018A0AC420CD0A8683969884222D3C1689A
:100A4000A94204BFA168A9421CD1C460A0601BE0F8
:100A500005F11402146834B905F1100214689CB150
:100A600001E01A46146804F114031968002902BF52
:100A700004F1100318680028F3D139698A4228BFAD
:100A8000106001D200F0C4FDBAF1000F36D0E96960
:100A900008EB81000268954209D10460200014D15E
:100AA000E8697968012282409143796026E03869DB
:100AB000824508D3DAF81000A84214BFCAF81440DF
:100AC000CAF8104001E000F0A3FDBCB138698442CF
:100AD00012D3C4F818A0286930B13969884226BFFA
:100AE0002061846100F094FD686938B139698842F9
:100AF00002D36061846101E000F08AFDBBF1100F58
:100B00000CD2D94449F003006860291D281D50F813
:100B1000090040F0010041F8090088E049F00300B5
:100B200068604BF0010070604FEADB0046F80BB0E4
:100B30001F281DD807EBC00101F12804396821FAEC
:100B400000F2D207A34605D4012202FA00F00843BE
:100B5000386006E0A068396988422CBF834600F0FF
:100B600057FDA660CBF80C60C6F808B0F4605EE0F4
:100B70005FEA1B2008BF002123D0B0F5803F28BFCB
:100B80001F211ED2A0F58072120C02F008029040C4
:100B9000A0F58051090C01F004018840A0F58043C4
:100BA0001B0CC2F10E0203F00203521AD21A984033
:100BB00002EBD032D01D2BFA00F101F0010101EB64
:100BC0004201F16100227261326108EB81007A68B2
:100BD00022FA01F3DB0707D4012303FA01F11143E1
:100BE00079600660B0611DE002681F291DBF4908D9
:100BF000C1F119010BFA01F1594600E002465068B3
:100C0000C008C000584518D002F11003CC0F03EB08
:100C10008403490018680028F0D13869834204D35E
:100C20001E60B261F660B66001E000F0F1FC13E115
:100C300000F0EEFC0DE18B46A3E6396990688A422C
:100C400028BF8842F1D3C6609660B060F260002091
:100C5000B061ECE72DE9F84F0646884671684842D6
:100C60000140491E080B00F01000C1404A0902F083
:100C70000802D1408B0803F00403D9404D0805F069
:100C800002051018E9401818C1F34004281806F5A9
:100C9000987A2044E14009185AF821104868C008A1
:100CA000C0000D46A0EB080909E001464868C008ED
:100CB000C000A0EB080048453CBF81460D460869CE
:100CC0000028F2D149690029F0D130698542C0F08D
:100CD000BE806868C00808EB090BC000584518BF03
:100CE00000F096FC05EB08008542009080F0AF8094
:100CF000EF68AC69AF420CD0A8683169884222D352
:100D0000C168A94204BFB968A9421CD1C760B860D4
:100D10001BE005F11402176837B905F110021768D6
:100D20009FB101E01A46176807F1140319680029FA
:100D300002BF07F1100318680028F3D131698A4215
:100D400028BF106001D200F063FC002C31D0E969AB
:100D50000AEB81000268954208D107608FB9E86903
:100D60007168012282409143716022E030698442BF
:100D700005D32069A84214BF6761276101E000F034
:100D800047FCB7B13069874211D3BC61286930B1E3
:100D90003169884226BF3861876100F039FC686993
:100DA00038B13169884202D37861876101E000F08F
:100DB0002FFCB9F1100F0BD24BF003006860291D16
:100DC000281D50F80B0040F0010041F80B003DE0F9
:100DD00048F00301696049F00100291D41F808004D
:100DE000009840F80990D6F808804FEAD80BBBF17C
:100DF000200F28BF00F00CFCB8F1000F22D006EB4A
:100E0000CB00776900F12804A246B8F1100F38BF73
:100E100000F0FEFB306820FA0BF1C90705D4012170
:100E200001FA0BF10843306006E0A068316988429E
:100E30002CBF824600F0ECFBA760CAF80C70C7F824
:100E400008A0FC60C6F808900098706104E000F00B
:100E5000DFFB0020BDE8F28F05F10800BDE8F28F4E
:100E60002DE9FE4F0546AFF30080F52DDFF89C67B6
:100E700080F004810B2D31BF10250B35ED08ED00FE
:100E80003068EC08E04010F0030F46D0C04300F09B
:100E90000100041906F1280000EBC408E700D8F8A7
:100EA00008506868C008C000B84218BF00F0B0FB26
:100EB000D5F80890454508BF00F0AAFB4D4508BF8E
:100EC00000F0A6FB6868C008C000B84218BF00F078
:100ED0009FFBC84507D13168012000FA04F421EADC
:100EE000040434600DE03069814508D3D9F80C0062
:100EF000A84204D1C8F80890C9F80C8001E000F0BD
:100F000087FB47F003006860291D281D05F10804D0
:100F1000C05940F00100C851F8E0B168A94280F022
:100F2000BE80002800F0A1804FF0010808FA04F10B
:100F3000490000FA04F4484201430C406042044076
:100F4000641E200B00F01000C440610901F008018C
:100F5000CC40A20802F00402D440630803F002036C
:100F60000818DC401018C4F3400718183818FC4063
:100F7000241806F1280000EBC40AE700DAF808900C
:100F8000D9F80400C008C000B84218BF00F040FB08
:100F9000D9F808B0D14508BF00F03AFBD94508BFE1
:100FA00000F036FBD9F80400C008C000B84218BFF2
:100FB00000F02EFBDA4506D1316808FA04F421EA84
:100FC000040434600DE03069834508D3DBF80C007D
:100FD000484504D1CAF808B0CBF80CA001E000F0F5
:100FE00017FB45F00300C9F804007F1B09F1040159
:100FF00047F00100485109EB05000190C751B46862
:101000004FEAD40ABAF1200F28BF00F001FB34B335
:10101000CDF800A006F12800756900EBCA0AD34696
:10102000102C38BF00F0F4FA3168009821FA00F271
:10103000D30704D408FA00F00843306007E0DAF878
:101040000800316988422CBF834600F0E1FACAF8F3
:101050000850CBF80C50C5F808B0C5F80CA0B76024
:1010600009F108040198706150E07068C0B3294626
:101070003046FFF7EFFD040011D047E015F1400FB7
:1010800028BF4FF0FF350AD20B35ED087068ED0030
:1010900028B129463046FFF71BFC040036D1B06862
:1010A000A8421DD3411B726910290AD350197061DF
:1010B000B16041F001034360415045F003055560C4
:1010C0000BE00021B1607161131D40F0030151601C
:1010D000111D095841F00101195002F1080415E0F1
:1010E000F06885420DD2401BB169F0604A19B261C7
:1010F00040F00100506045F003054D6001F1080427
:1011000004E029463046FFF7F7FA0446AFF30080C3
:101110002046FFF7EEBA002800D170472DE9FC47C2
:10112000A0F10805AFF30080DFF8E0643269954272
:10113000C0F05982686800F00301012900F0538271
:10114000C1084FEAC109C10705EB090839D42C6869
:1011500010F0030F00F04982604205449542A1441B
:10116000C0F041827069854200F0C780E408202CFD
:101170005ED2D5F80CA0AF68554508BF00F048FA1C
:10118000BD4208BF00F044FA6868C008C000B0EB78
:10119000C40F18BF00F03CFA06F1280000EBC400B1
:1011A000874205D031698F423FD3F968A9423CD1CB
:1011B000BA452CD13068012101FA04F420EA040474
:1011C0003460454580F00F82D8F80440E00740F1D4
:1011D0000A82A00700F16881B069804540F0A080D4
:1011E000F068B5618144C6F80C9049F00100686070
:1011F0007069854202D100207061B060F069484595
:1012000080F0F38100213046FFF728FBEDE18245B5
:1012100006D03069824508D3DAF80800A84204D124
:10122000C7F80CA0CAF80870CBE700F0F1F9C8E7DE
:10123000EC68AF69AC420BD0A868904223D3C16878
:10124000A94204BFA168A9421DD1C460A0601CE0EE
:1012500005F114031C6834B905F110031C68A4B12E
:1012600001E063461C6804F1140CDCF8001000294E
:1012700002BF04F1100CDCF800000028F1D1934209
:1012800028BF196001D200F0C3F9002F99D0E96995
:1012900006F5987000EB81000268954209D1046060
:1012A000200011D1E8697168012282409143716088
:1012B00087E73069874205D33869A84214BF7C614B
:1012C0003C6101E000F0A4F9002C3FF47AAF3169F1
:1012D0008C42AAD3A761286928B1884226BF206121
:1012E000846100F095F9686900283FF46AAF3169BC
:1012F00088429AD36061846163E798F8040000F043
:10130000030003287FF45DAFC6F8089049F001019F
:10131000D8F8040040084000C8F8040069600AE0FA
:10132000706980450AD1B06875618144C6F808903B
:1013300049F00100686045F8099056E1E408E400CE
:10134000A144E408202C3AD2D8F80CA0D8F80870B0
:10135000D04508BF00F05CF9B84508BF00F058F967
:10136000D8F80400C008C000B0EBC40F18BF00F0EC
:101370004FF906F1280000EBC400874207D031691D
:101380008F42C0F08480F968414540F08080BA45C2
:1013900007D13068012101FA04F420EA0404346022
:1013A00077E0824506D031698A4570D3DAF80800C3
:1013B00040456CD1C7F80CA0CAF8087069E0D8F8AD
:1013C0000C40D8F8187044450DD0D8F808003169A1
:1013D000884222D3C168414504BFA16841451CD160
:1013E000C460A0601BE008F11402146834B908F16D
:1013F000100214689CB101E01A46146804F1140349
:101400001968002902BF04F1100318680028F3D1FD
:1014100031698A4228BF106001D200F0F9F8002F2C
:1014200037D0D8F81C1006F5987000EB81000268E0
:1014300090450AD10460200012D1D8F81C007168D0
:10144000012282409143716023E03069874205D3D5
:101450003869404514BF7C613C6101E000F0D8F878
:10146000BCB131698C4212D3A761D8F8100028B101
:10147000884226BF2061846100F0CAF8D8F81400C1
:1014800038B13169884202D36061846101E000F0C3
:10149000BFF849F00100686045F80990706985421D
:1014A0000BD1C6F80890A0E064086400C8F80440B6
:1014B00049F00100686045F809904FEAD907202FEC
:1014C00022D206F1280000EBC704A046B9F1100FA4
:1014D00038BF00F09DF8306820FA07F1C90705D43D
:1014E000012101FA07F70743376006E0A068316978
:1014F00088422CBF804600F08BF8A560C8F80C50DD
:10150000C5F80880EC6070E05FEA192008BF002190
:1015100023D0B0F5803F28BF1F211ED2A0F58072D6
:10152000120C02F008029040A0F58051090C01F065
:1015300004018840A0F580431B0CC2F10E0203F0A9
:101540000203521AD21A984002EBD032D01D29FA67
:1015500000F101F0010101EB420106F5987202EB86
:10156000810000226A612A61E961726822FA01F34E
:10157000DB0707D4012303FA01F111437160056011
:10158000A8611DE002681F291DBF4908C1F11901AA
:1015900009FA01F1494600E002465068C008C0005F
:1015A000484526D002F11003CC0F03EB8403490019
:1015B00018680028F0D13069834204D31D60AA6105
:1015C000ED60AD6001E000F023F8306A401E30624B
:1015D0000BD1D6F8C80100E080680028FCD14FF09C
:1015E000FF30306201E000F013F8AFF30080BDE897
:1015F000F387316990688A4228BF8842E3D3C56087
:101600009560A860EA600020A861DEE7FC30002059
:10161000012000F017B870470749086808B100209A
:1016200070470648C008C00008600549C908C900DD
:10163000091A0160704700BFF83900200F10002020
:101640000814002080B5AFF30080024A1100182072
:10165000ABBEFBE72600020010B590B002A80FF267
:101660009C01DFF80046382201F008F80FF24960CB
:101670000190009469460FF2296001F043F80121BE
:10168000022001F028F9DFF8E0250021202001F0F8
:10169000A4F902A801F02EFA38B101460FF22C602D
:1016A00001F07EFAC046C04603E00FF2586001F038
:1016B00077FA00F06EF901F087FA0FF21552002167
:1016C000012001F08AF90FF245520021022001F0B9
:1016D00084F9DFF89845002084F88000202001F08C
:1016E000E3FA01F013FB0FF29D53002204F1810194
:1016F000002002F041F810B010BD00000000000012
:1017000000000000000000000000000000000000D9
:10171000440008004005020112279C00F40100006B
:10172000FFFFFFFF480101000020D80600037206FA
:10173000000000002DE9F843054686B06878DFF820
:101740002C45DFF82C7505284FF0000804F18006C1
:1017500054D03E2863D0FF280DD101203872B5F84F
:101760000300042842D040F20741884204D040F6EA
:101770000201884218D0EAE06879022804BFA979FA
:101780000029F8D1002002F00BF90FF2A05001F06F
:1017900007FAB078012806D13178062903D0002154
:1017A000022001F027F9D2E0002001F07DFAE8796B
:1017B000387310262889F88169893982AA897A8242
:1017C000EB89BB82288AF882012504950090029655
:1017D00001963D7BE08A039502F02DF910B10220BD
:1017E00002F0D4F8202001F05FFAB0E0012002F00E
:1017F000CDF870780A2102F03FF8A8E0A888E18AC5
:101800008842FAD1A4F8168086F800800FF24C5076
:1018100001F0C6F90120387200F09DF897E0E878F1
:10182000012846D0022861D0032802D00C281CD001
:101830008DE00FF2505001F0B3F9B5F80B100A200B
:1018400041430191B5F809000090B5F8070002F096
:101850003BF90022DFF81C3402F044F902460B4643
:101860000FF2545001F09CF971E00FF2B85001F002
:1018700097F9287900280CBF0FF2D8500FF2E050EA
:1018800001F08EF9E08A05AA0DF1150102F025FAA2
:1018900010B10FF2DC5026E00FF2F45001F080F9A5
:1018A0009DF814209DF815100FF2086001F078F9EA
:1018B0004DE0B5F80500E082062030700FF21860A8
:1018C00001F06EF987F8088000F045F8E08A02F030
:1018D000B0FA30B90FF2286001F062F90FF25460EB
:1018E00001E00FF2806001F05BF930E095F80D90B7
:1018F000687960BB29E005EB0800847BC07BFF288A
:1019000021D1072C1FDB05EB0800007C01281AD130
:101910000FF2906001F044F905EB0800407C832849
:1019200011D10FF2A06001F03BF90120B070E8790D
:101930003870287A7870687AB870A87AF870E87A7F
:101940003871287B7871641CA044C845D3DB012022
:1019500007B0BDE8F083E08A788107F1080001F064
:10196000F6B9C249CA8A824202D191F88000704712
:101970000020704780B501F00AFB062805D0BDE8BD
:1019800004400021012001F035B8BDE8014001F01C
:10199000F0B930B587B00020ADF81A000FF24860FA
:1019A00001F0FEF802F06FF9010004D00FF264605C
:1019B00001F0F6F803E00FF28C6001F0F1F8AE48A8
:1019C000AE4D016811F1010F0ED042682974120A60
:1019D000090A697405F110044068A874EA74100AD1
:1019E000120C28756A7506E0002002F0E1FA040086
:1019F00008BF0FF6404422460621002001F01FF9DF
:101A000028B101460FF25C6001F0CAF810E00FF255
:101A1000B06001F0C5F82078029060780190A0785D
:101A20000090E378227961790FF2E06001F0B8F874
:101A300060790FF608422872102120796872E078E8
:101A4000A872A078E87260782873207868731820EC
:101A500001F0F5F828B101460FF2EC6001F0A0F8B2
:101A600003E00FF23C7001F09BF80FF6E03210211A
:101A7000082001F0E4F828B101460FF26C7001F083
:101A80008FF803E00FF2B87001F08AF818210120F6
:101A900001F0FCF828B101460FF2EC7001F080F87B
:101AA00003E00FF6240001F07BF802F07BF928B187
:101AB00001460FF6440001F073F803E00FF66C00E6
:101AC00001F06EF80DF1160006A90190009105AB2A
:101AD00007220021042002F0C9FA28B101460FF6BE
:101AE000780001F05DF803E00FF69C0001F058F873
:101AF0000FF65C00BDF8181000900523BDF8140027
:101B0000002202F066F90DF11A0000900223BDF8E0
:101B10001610BDF81400002202F05BF90222022127
:101B2000002002F00FF928B101460FF6800001F005
:101B300037F803E00FF6B00001F032F84B4C00200C
:101B4000207002F047FA28B101460FF6C80001F0F4
:101B500027F803E00FF6FC0001F022F80120607086
:101B6000012108202071A170102060710021012046
:101B7000E070049110214248A060039008220120E7
:101B800001910092029000230022012102F03BFA11
:101B900028B101460FF6EC0001F002F803E00FF661
:101BA000301000F0FDFFA07860B102F08FFA28B18C
:101BB00001460FF6581000F0F3FF03E00FF68C100B
:101BC00000F0EEFF0FF6B41000F0EAFF07B030BDF2
:101BD000264890F88010062900D1704780B5002073
:101BE00001F0D4FE4FF4487101230022084602F0B0
:101BF00084FA10B90FF6B01004E0022001F0C6FE1E
:101C00000FF6D410BDE8024000F0CABF18B587B087
:101C10000FF6F410154C00F0C3FF94F8800006286E
:101C20001DD01021069105914FF4FA7004905021B7
:101C300000230291282200200393019200904FF488
:101C400048710B4B0022084602F084FA08B90420C0
:101C500003E0022001F09AFE002084F8800008B022
:101C600010BD0000AC080320432700088435002085
:101C70004C3900200000F43F8075FF1FB829002078
:101C800007B20100012001F08BBE0021202000F0EE
:101C9000B1BE012000F0D4BE012000F0D9BE00008A
:101CA00010B50446616801F1080002F0C7FA00B1FE
:101CB0000120207010BD000010B1012803D0704732
:101CC0003F2000F0ABBE3F2000F0B0BE20204661B8
:101CD000696C2020203A20534843495F43325F42D9
:101CE0004C455F496E697420636F6D6D616E642C45
:101CF00020726573756C743A203078253032780A1A
:101D00000D0000002020537563636573733A205300
:101D10004843495F43325F424C455F496E697420D6
:101D2000636F6D6D616E640A0D0000002D2D2047FC
:101D300041502047454E4552414C20444953434F62
:101D4000564552592050524F4345445552455F43E2
:101D50004F4D504C455445440A0000000D0A0D2AD1
:101D60002A20444953434F4E4E454354494F4E2039
:101D70004556454E542057495448205345525645E0
:101D800052200A003E3E3D3D204843495F4C455F9E
:101D9000434F4E4E454354494F4E5F555044415476
:101DA000455F434F4D504C4554455F535542455652
:101DB000545F434F44450A0020202020202D20431B
:101DC0006F6E6E656374696F6E20496E74657276AE
:101DD000616C3A202020252E3266206D730A202067
:101DE0002020202D20436F6E6E656374696F6E2016
:101DF0006C6174656E63793A2020202025640A2086
:101E0000202020202D205375706572766973696FCC
:101E10006E2054696D656F75743A202564206D736A
:101E20000A0D00003D3D3E3E204843495F4C455F62
:101E30005048595F5550444154455F434F4D504CB5
:101E40004554455F5355424556545F434F444520E2
:101E50002D200000737461747573206F6B200A006D
:101E6000737461747573206E6F6B200A000000003C
:101E70003D3D3E3E206863695F6C655F72656164ED
:101E80005F706879203A206661696C0A0D00000075
:101E90003D3D3E3E206863695F6C655F72656164CD
:101EA0005F706879202D2053756363657373200A12
:101EB000000000003D3D3E3E2050485920506172D8
:101EC000616D202054583D2025642C2052583D201F
:101ED0002564200A0D0000000D0A0D2A2A20434F18
:101EE0004E4E454354494F4E204556454E5420577B
:101EF00049544820534552564552200A00000000DC
:101F00000D0A0D2A2A204741545420534552564960
:101F100043455320262043484152414354455249AA
:101F2000535449435320444953434F564552592033
:101F3000200A00002A2047415454203A202053749C
:101F400061727420536561726368696E67205072B4
:101F5000696D617279205365727669636573200DCE
:101F60000A0D0000424C455F4354524C5F41707073
:101F70005F4E6F74696669636174696F6E28292C9E
:101F800020416C6C207365727669636573206469A7
:101F900073636F76657279204661696C6564200DA4
:101FA0000A0D00002D2D2D205354204D414E554635
:101FB00041435455524552204944202D2D2D200A8D
:101FC000000000002D2D2053455256455220444517
:101FD000544543544544202D2D20564941204D4120
:101FE0004E2049440A0000003D3D3E3E20537461AE
:101FF000727420426C655F4863695F4761705F4738
:102000006174745F496E69742066756E6374696F7C
:102010006E0A000020204661696C2020203A20686A
:1020200063695F726573657420636F6D6D616E6463
:102030002C20726573756C743A2030782578200AEC
:10204000000000002020537563636573733A2068B5
:1020500063695F726573657420636F6D6D616E6433
:102060000A00000020204661696C2020203A20618F
:1020700063695F68616C5F77726974655F636F6ED7
:102080006669675F6461746120636F6D6D616E6422
:10209000202D20434F4E4649475F444154415F50F5
:1020A0005542414444525F4F46465345542C20729A
:1020B0006573756C743A2030782578200A0000002A
:1020C0002020537563636573733A206163695F68A9
:1020D000616C5F77726974655F636F6E6669675F75
:1020E0006461746120636F6D6D616E64202D2043A7
:1020F0004F4E4649475F444154415F505542414429
:1021000044525F4F46465345540A00002020507504
:10211000626C696320426C7565746F6F74682041EE
:102120006464726573733A20253032783A25303210
:10213000783A253032783A253032783A253032787C
:102140003A253032780A000020204661696C202050
:10215000203A206163695F68616C5F7772697465BA
:102160005F636F6E6669675F6461746120636F6D42
:102170006D616E64202D20434F4E4649475F4441B8
:1021800054415F49525F4F46465345542C20726577
:1021900073756C743A2030782578200A00000000AE
:1021A0002020537563636573733A206163695F68C8
:1021B000616C5F77726974655F636F6E6669675F94
:1021C0006461746120636F6D6D616E64202D2043C6
:1021D0004F4E4649475F444154415F49525F4F4625
:1021E000465345540A00000020204661696C2020B7
:1021F000203A206163695F68616C5F77726974651A
:102200005F636F6E6669675F6461746120636F6DA1
:102210006D616E64202D20434F4E4649475F444117
:1022200054415F45525F4F46465345542C207265DA
:1022300073756C743A2030782578200A000000000D
:102240002020537563636573733A206163695F6827
:10225000616C5F77726974655F636F6E6669675FF3
:102260006461746120636F6D6D616E64202D204325
:102270004F4E4649475F444154415F45525F4F4688
:10228000465345540A00000020204661696C202016
:10229000203A206163695F68616C5F7365745F7485
:1022A000785F706F7765725F6C6576656C20636FC1
:1022B0006D6D616E642C20726573756C743A20309C
:1022C000782578200A000000202053756363657329
:1022D000733A206163695F68616C5F7365745F74F2
:1022E000785F706F7765725F6C6576656C20636F81
:1022F0006D6D616E640A000020204661696C2020CB
:10230000203A206163695F676174745F696E697404
:1023100020636F6D6D616E642C20726573756C74D3
:102320003A2030782578200A0000000020205375DC
:1023300063636573733A206163695F676174745F97
:10234000696E697420636F6D6D616E640A000000D0
:10235000485253544D00000020204661696C2020F3
:10236000203A206163695F6761705F696E697420FC
:10237000636F6D6D616E642C20726573756C743A59
:102380002030782578200A00202053756363657318
:10239000733A206163695F6761705F696E69742079
:1023A000636F6D6D616E640A00000000202046615D
:1023B000696C2020203A206863695F6C655F7365F3
:1023C000745F64656661756C745F70687920636FB3
:1023D0006D6D616E642C20726573756C743A20307B
:1023E000782578200A000000202053756363657308
:1023F000733A206863695F6C655F7365745F6465D9
:102400006661756C745F70687920636F6D6D616E65
:10241000640A000020204661696C2020203A206177
:1024200063695F6761705F7365745F696F5F636144
:10243000706162696C69747920636F6D6D616E643F
:102440002C20726573756C743A2030782578200AD8
:10245000000000002020537563636573733A2061A8
:1024600063695F6761705F7365745F696F5F636104
:10247000706162696C69747920636F6D6D616E64FF
:102480000A00000020204661696C2020203A20616B
:1024900063695F6761705F7365745F6175746865B8
:1024A0006E7469636174696F6E5F7265717569726C
:1024B000656D656E7420636F6D6D616E642C207246
:1024C0006573756C743A2030782578200A00000016
:1024D0002020537563636573733A206163695F6796
:1024E00061705F7365745F61757468656E7469634C
:1024F0006174696F6E5F726571756972656D656E25
:102500007420636F6D6D616E640A00002020466167
:10251000696C2020203A206163695F6761705F63A6
:102520006F6E6669677572655F77686974656C69F7
:10253000737420636F6D6D616E642C2072657375AA
:102540006C743A2030782578200A000020205375DA
:1025500063636573733A206163695F6761705F638A
:102560006F6E6669677572655F77686974656C69B7
:10257000737420636F6D6D616E640A003D3D3E3E75
:1025800020456E6420426C655F4863695F476170F7
:102590005F476174745F496E69742066756E637419
:1025A000696F6E0A0D000000200D0A0D2A2A2053C3
:1025B000544152542047454E4552414C20444953C2
:1025C000434F5645525920285343414E29202A2A29
:1025D00020200D0A0D0000002D2D20424C455F41AA
:1025E00070705F53746172745F4C696D6974656477
:1025F0005F446973635F5265712C204661696C6545
:1026000064200D0A0D0000000D0A0D2A2A204352F5
:102610004541544520434F4E4E454354494F4E206B
:10262000544F20534552564552202A2A20200D0A45
:102630000D0000006C7AD8AC577200001234567846
:102640009ABCDEF0123456789ABCDEF0FEDCBA0991
:1026500087654321FEDCBA098765432162B38B0796
:1026600008D0521E11F8013B00F8013B00F0248015
:102670008B07F6D1830740F0208000BF103A07D3C4
:1026800030B4B1E83810103AA0E83810F9D230BCB4
:10269000530724BFB1E80810A0E8081044BF51F860
:1026A000043B40F8043BD20724BF31F8022B20F84A
:1026B000022B44BF0B7803707047121F17D35B00C7
:1026C00009D151F8043B20F8023B1B0C121F20F8E3
:1026D000023BF6D20BE051F8043B00F8013B1B0A29
:1026E00020F8023B1B0C121F00F8013BF3D238BF4D
:1026F000121D521E24BF11F8013B00F8013BF8D80F
:10270000704770477FB50C466D4D61686D4EE8614E
:102710002962284601F0CEFD246805F124000060FE
:102720004060746006F10800006040600120307075
:10273000296829B10FF25510009002946846884725
:102740007FBD1FB55F4C04F1080001F0C0FD00BB68
:102750002178F1B1694604F1080001F0E1FD584823
:10276000C16949B10098029001228DF8042001A8A6
:1027700088479DF8040000E001202070207818B1FF
:10278000009801F082FE04E0009904F1080001F0D5
:10279000A7FD04F1080001F09AFD28B9207818B1CE
:1027A00004F10800FFF771FA1FBD2DE9F843064652
:1027B000002000F05FF874883088B268DFF800818C
:1027C000C4F3090444EA8024F068A4B2C1B22046EC
:1027D00000F03CF8002748F2E8094846FFF75CFAA9
:1027E00008E06888A04202D13169287808706878CA
:1027F00000B1012708F1240001F069FDF0B9694634
:1028000008F1240001F08CFD009800F10B05407ADE
:102810000F28E6D0B5F80110A1420DD10098817AB9
:10282000C81E7169C0B28842C8BF084670610246BE
:102830003069E91CFFF712FF2878D9E73800CCD0BF
:10284000012000F017F80020BDE8F28310B5134610
:102850001C4A5468A4F80900E1720A46194604F1BA
:102860000C00FFF7FBFE164A1369BDE8104000217B
:10287000002018471249096A82B008B921B101E065
:1028800011B1012002B0084702B0704710B50146EF
:10289000487A0F2818BF0E2807D10B4801F02AFDEF
:1028A000BDE810400020FFF7F4B9064C04F1080021
:1028B00001F020FD04F10800BDE81040FFF7E5B984
:1028C000DC38002094390020003900200C48002119
:1028D00001604160704710B500F00CF85C6819B1F8
:1028E000012904D1204301E024EA0000586082F36A
:1028F000108810BDEFF3108272B6014B70470000D4
:10290000C03900202DE9F843644CDFF89491A569A3
:102910002840A0614FF0FF372169E2696069236AAE
:102920004FF0010837E0491C54F831301A42FAD010
:1029300054F831201040304004EBC1067168014268
:1029400008BF77607168084000F0ACF8606270689A
:10295000616A08FA01F188437060EFF3108172B682
:10296000626A206908FA02F2D24310402061022014
:1029700004EBC00353F8086C1640401E43F8086C83
:10298000F6D181F31088606A59F8201088472169D0
:10299000E2696069236AA6690140314205D01A42A2
:1029A00003D1002100EA0602BEE76762C046C046C6
:1029B000EFF3108972B62269E16960690240A0698B
:1029C000024202BF226A114201F01BFF89F3108804
:1029D00002F0BEF8A561BDE8F18338B51446EFF307
:1029E000108572B600F05EF82D4941F8204085F35D
:1029F000108831BD10B500F00BF804431C6153F88A
:102A00003140204343F83100FFE782F3108810BDC6
:102A1000EFF3108272B6214B1C697047EFF31081FF
:102A200072B61E4A536923EA000005E0EFF31081F5
:102A300072B61A4A53691843506181F3108870477F
:102A4000EFF3108172B6154AD3691843D061F4E7E9
:102A50002DE9F041114C666A276A0546B04616F129
:102A6000010F0EBF0026012000FA06F6256203E0E2
:102A70002946304601F0C6FEE0692842F8D0C4F885
:102A80002480EFF3108072B6E16921EA0505E56163
:102A900080F310882762BDE8F0810000382900200B
:102AA0000836002002460020110C090404BF102043
:102AB000120412F07F4F04BF083012020FF2180107
:102AC00012F0704F04BF001D1201120FC0F11F0061
:102AD000895C401AC0B2704704030202010101017F
:102AE000000000000000000002F089F89DF80E00D0
:102AF00005B000BDF8B500F10C026B462C214FF675
:102B00006640F1E7F8B500F10C026B460F214FF675
:102B10006840E9E7F8B502466B460E214FF675406E
:102B2000E2E770B51B491C4B0A681C49C2F30D0251
:102B300001EB82010C6822689A4205D16569A1699E
:102B4000E269E368246904E025696169A269636850
:102B5000A4682E0E067001722E0C467042722E0A68
:102B60008670C473C5F3031605F00F050571C670B2
:102B70000D0E45710D0C85710D0A190E8172C5710E
:102B8000190CC1721B0A210E41730373210C81734E
:102B9000002070BD3C400058B95646A900000320F3
:102BA0000EB4C0B5024603A800210190009101AB0C
:102BB0000121044878440C3002F070F806BC5DF83E
:102BC00010FB00BF738C000007490020087700222B
:102BD0000648027100F00CB804490A7941F8220055
:102BE0000879401C087170472C390020E03900201A
:102BF00080B5C046C046C046C046C046C046C04676
:102C0000C046C046C046C046C046C046C046C04694
:102C1000C046C046C046C046C046C046C046C04684
:102C2000C046C046C046C046C046C046C046C04674
:102C3000C046C046C046BDE8014002F040BF18B5DE
:102C40000C46C7B0114600228DF800208DF81C00FC
:102C50008DF81D4022460DF11E0002F031FF00F0FC
:102C60003FF83F200C21ADF80400ADF8061007A88E
:102C7000012103900691A41C049400F041F800285F
:102C80004CBFFF209DF8000048B010BD00B5C7B094
:102C900000F01FF80F2000F028F800284CBFFF209C
:102CA0009DF8000047B000BD00B5C7B00021ADF8E9
:102CB0001C008DF80010182201A802F007FF182050
:102CC00000F013F800284CBFFF209DF8000047B02B
:102CD00000BD00228DF800208DF81C008DF81D101D
:102CE0001822002101A802F0F1BEADF8060007A9E4
:102CF000022004903F22012003910690ADF80420A9
:102D0000CDF814D0002101A8FFF74FBD80B50FF218
:102D1000B92200210420FFF760FE0FF27922002182
:102D20000820FFF75AFED34800210180C18081703E
:102D30000121C1700021017101720FF24100FFF702
:102D40004BFFBDE802400FF23030FFF729BF027899
:102D5000C84912B1012A03D070474088C880704723
:102D60000020C880087A08B100220A72002000F012
:102D700017BE00210820FFF73DBE00002DE9F84FE7
:102D800005466878FF2812D1BA4CB5F8030061896E
:102D900040F60442801A00F08B80801E4DD0001F48
:102DA00006D0401F00F0B780401E00F0DD80EBE051
:102DB000B5F80560207A58B10846FEF7D2FD217AB1
:102DC000062908BF0028F2D120724FF6FF706081FB
:102DD0006681E879297A91FBF0F914285FFA89F97C
:102DE000E5D14FF0100A00270FF2A8284FF64066F1
:102DF000F8B24845DBDA05EB0A0B9BF809009BF8B3
:102E00000A1040EA0120B04211D161894046FFF723
:102E1000C7FEABF107000178427841EA0221A181A7
:102E20008178C07841EA0021E181082121720AF10C
:102E300006005FFA80FA7F1CDAE7B5F805008142E8
:102E400002BF1126E87915283CD1297A0FF2B8295A
:102E50000FF27C2B481E28724FF6426A4FF64168EB
:102E6000287A0028A3D0A91905F10A02487A11F896
:102E7000057D925D497840EA022047EA0127618991
:102E8000404508D050450CD14846FFF789FE0A203E
:102E90002072A78205E05846FFF782FE09202072C3
:102EA00027821536287AA0F115012972F6B2D7E7E4
:102EB000B5F80500814201BF95F808B04FF0000851
:102EC000E879012860D100270FF2802942F6021A22
:102ED000F8B2B0EB9B0F57DA05EB080005F10A01D9
:102EE000C27A467A007B11F8081042EA0022524565
:102EF00046EA012609D161894846FFF751FE207A4A
:102F00000A2802D1E6820B21217208F104005FFA3F
:102F100080F87F1CDCE7B5F80500814202BFB5F8F8
:102F20000700A18A88422FD1687A022802BFA87AB6
:102F30006070012828D1E87AA0704CA448B900F04C
:102F40002FFD0FF28020FFF72BFE2046FFF728FE13
:102F50001AE00FF2B020FFF723FE2046FFF720FE15
:102F6000002000F013FD0FE00FF22820FFF718FEFD
:102F70003FA0FFF715FE6089B5F80510884203D120
:102F800000210420FFF736FD0020BDE8F28F39480C
:102F9000007A704710B50FF2AC20364CFFF700FEF8
:102FA00032A0FFF7FDFD2079401E8041C00F207147
:102FB000207A38B1218A6089E31CBDE810400222E2
:102FC00000F0A5BF10BD00001CB50120ADF8020047
:102FD0000021284C207AADF80010002844D0C01FF2
:102FE000052841D8DFE800F00308121823340FF257
:102FF0009420FFF7D5FD13BD0FF2A020FFF7D0FD01
:10300000E289A189608900F02EFF13BD0FF2B42080
:10301000FFF7C6FD218A04E00FF2E420FFF7C0FDB0
:10302000A18A60898A1C92B200F02EFF13BD0FF2B4
:103030001430FFF7B5FDE18A60890DF10203022229
:1030400000F038FF06202072022000F0A9FC13BD1A
:103050000FF21830FFF7A4FDE18A60896B46022267
:1030600000F028FF0620207213BD0000200A0D008A
:103070000A0000007C3900202D2D205032502043C2
:103080004C49454E5420494E495449414C495A45B2
:1030900044200A002D2D2047415454203A2050321C
:1030A000505F534552564943455F55554944204664
:1030B0004F554E44202D20636F6E6E656374696FAB
:1030C0006E2068616E646C652030782578200A0077
:1030D0002D2D2047415454203A2057524954455FE2
:1030E0005555494420464F554E44202D20636F6E60
:1030F0006E656374696F6E2068616E646C65203004
:103100007825780A000000002D2D204741545420D6
:103110003A204E4F54494649434154494F4E5F432C
:103120004841525F5555494420464F554E44202052
:103130002D20636F6E6E656374696F6E2068616EBB
:10314000646C6520307825780A0000002D2D20471A
:10315000415454203A20434C49454E545F43484122
:10316000525F434F4E4649475F444553435249508F
:10317000544F525F555549442D20636F6E6E656301
:1031800074696F6E2068616E646C65203078257894
:103190000A0000002D2D2047415454203A2041437D
:1031A000495F474154545F50524F435F434F4D5026
:1031B0004C4554455F56534556545F434F44452054
:1031C0000A000000202D2D20503250204150504C3C
:1031D00049434154494F4E20434C49454E54203AAF
:1031E000204E4F54494649434154494F4E20524581
:1031F000434549564544202D204C4544204F4646E2
:10320000200A0D00202D2D20503250204150504CCE
:1032100049434154494F4E20434C49454E54203A6E
:10322000204E4F54494649434154494F4E20524540
:10323000434549564544202D204C4544204F4E0AD5
:103240000D0000002D2D20503250204150504C498F
:10325000434154494F4E20434C49454E5420203A57
:1032600020425554544F4E20505553484544202D2C
:1032700020575249544520544F20534552564552E9
:10328000200A20005032505F444953434F56455264
:103290005F53455256494345530A00002A2047418F
:1032A0005454203A20446973636F7665722050321B
:1032B00050204368617261637465726973746963F5
:1032C000730A00002A2047415454203A204469736D
:1032D000636F7665722044657363726970746F7290
:1032E000206F66205458202D205772697465204342
:1032F0006861726163746572697469630A000000D1
:103300002A2047415454203A20446973636F7665FC
:10331000722044657363726970746F72206F6620E7
:103320005278202D204E6F74696669636174696FED
:103330006E20436861726163746572697469630ABF
:10334000000000002A2047415454203A20456E6175
:10335000626C6520536572766572204E6F74696683
:1033600069636174696F6E0A000000002A2047419A
:103370005454203A2044697361626C65205365722D
:10338000766572204E6F74696669636174696F6EE9
:103390000A000000DFF854150A6892B200E0024605
:1033A000086880B28242FAD170472DE9FC41044698
:1033B0001825DFF83C85DFF83C65684308EB00071B
:1033C0003078062808D131787170347078754FF0F4
:1033D000FF307060002039E000F077F8B968091814
:1033E000B96008F10803B96832786A439A58914283
:1033F000327813D308F1150315FB02FC13F80C30D7
:10340000062B25D008F108066B43F358994222BFDA
:1034100008F115036A439A5CEED219E0114633783D
:1034200069439A420BD008F1140308F1150C5B5C58
:1034300015FB03F50CF805407A753B7500E07A75CD
:1034400008F114025454317871703470BDE8F6817B
:103450001146694308F115035B5C062B04D008F1A3
:10346000140615FB03F574557B753A7508F11502C2
:103470005454EBE7F8B5DFF87C34DFF874541E7869
:10348000182402466243B0422A4404D11878587086
:10349000507D18700FE0167D507D92F815C005F133
:1034A00015076643062807F806C004D0167D1435B4
:1034B00014FB00F42E55012010731878062802BF63
:1034C00000294FF0FF315960F1BD10B5DFF82444F9
:1034D000606810F1010F0FD0FFF75CFF6168DFF843
:1034E0001824814261683CBF5388C918081A517872
:1034F00048431178C84000E0002080B210BD2DE99B
:10350000F84FDFF8F453DFF8F4B3D5F80880D8F8B3
:103510000000DBF800104A0500F09BF9DFF8D463E7
:10352000DFF8CCA321F4806181604FF01809347872
:103530000AF1080019FB04F14758FFF7C6FF87425C
:1035400017D200270121B170062C3DD019FB04F4DD
:103550000AF108010AF108020959814223BF0AF160
:1035600008010959091A002111510AEB04014C7D87
:10357000EAE7A9884118B94202D2AF880021E2E700
:103580003F1ADFE7022802DA2878012800D07F1EE0
:10359000D8F80000C1684A07FAD500F060F9DBF8F6
:1035A0000C00000CBFB247EA0047CBF80C70FFF7E5
:1035B000F1FE7060A8680068816841F480618160F4
:1035C000AFF30080BDE8F18FB8B20028DAD1FFF781
:1035D000E1FE70600320BDE8F24F02F0E9BA2DE988
:1035E000F843EFF3108872B6C34DC14BA868016869
:1035F000CA224A6253204862BE4A886820F480602A
:10360000886018201678374647431F44387B0228C5
:1036100026D13C68D7F810909078F0B17A7B012AD7
:103620000AD101213046FFF725FF88F31088796819
:10363000304600F021F904E088F31088304600F0AD
:10364000CCF8A8680068CA21416222465321416231
:103650004846314600F05CF90BE0FFF750FF06E00A
:10366000C8684207FCD500F07EF8A549086088F3D9
:103670001088FF21A86802685162BDE8F183F8B59F
:103680009D4CA160CA2209684A6253224A629B4A41
:10369000136843F020031360136803F00703C3F1BA
:1036A0000403237095682D0C05F07F056D1C657073
:1036B000EDB29268C2F30E02521C628092B2521EA8
:1036C0006A43A2F5A072DA404FF6FF739A422CBF0C
:1036D000A380A2808B4A136843F4002313608A4BB3
:1036E0001D6845F400251D6048BB8248804E0123BB
:1036F000837018254FF0FF33436000235FFA83FC8B
:1037000006F10C0715FB0CFC4FF0000E07F80CE05F
:103710005B1CDFB2062FF1DB06230370886820F400
:103720008060886000F01FF8D060032002F04BFA40
:10373000A1680868826842F48042826005E0C86837
:10374000410544BF032002F033FAA1680A68FF2054
:10375000506200220321032002F0DEF9BDE8F240AE
:10376000032002F0F7B9C86800F0800060F49060B0
:10377000C8604FF400207047F0B504460025EFF311
:10378000108672B61827DFF868C10CF10C0007FB31
:1037900005FE10F80E0010B16D1C062DF5DB062D90
:1037A0000CD06F430CEB07000127077386F31088DA
:1037B0000461427303600D700020F0BD86F3108831
:1037C0000120F0BD10B5044600F007F81820484A63
:1037D000444310190021017310BDF8B50746EFF3FB
:1037E000108472B6032002F0C0F9434DAE68306811
:1037F000CA2141623A46532141621820434942435B
:10380000895C02291BD100213846FFF733FE394875
:10381000017806290ED1306838490A68530500F04E
:1038200018F821F480618160C1684A07FCD500F076
:1038300016F804E04078884218BFFFF760FEA968D8
:103840000A68FF205062032002F084F984F3108894
:10385000F1BD02D5C1684A07FCD481687047C168D0
:1038600001F0800161F49061C1604FF400202449AF
:103870000860032002F0A7B92DE9F04180460F4609
:10388000424618201A4942438C18207B022804BF64
:103890004046FFF7A2FFEFF3108572B6032002F057
:1038A00064F9154EB0680068CA2141625321416233
:1038B00002202073A76067604046FFF776FD0D4940
:1038C0000A784978914202D0FFF719FE02E0A16818
:1038D000081AA060FF20B1680A685062032002F055
:1038E00039F985F31088BDE8F081000028280040F0
:1038F000F4340020E8390020B439002008280040C2
:103900000C080058000800588008005800350020B6
:1039100010470000414981B00A6802430A60096803
:1039200008400090009801B0704778B585B0044613
:103930006846142102F064F90CB9012004E0012C5E
:1039400018BF022C02D10220FFF7E4FF00F012F8AA
:1039500000950120019000210220039000F004F85E
:1039600000F00EF806B070BD0291694656F82400CA
:1039700002F04AB90FF2B000294E30F814507047E7
:1039800056F824000022294602F002BA0FF29801EC
:10399000234B31F8101053F82000012202F0F8B93F
:1039A0000FF284011E4B31F8101053F82000002252
:1039B00002F0EEB9F0B585B004460D466846142114
:1039C00002F01EF90120FFF7A5FF2800154E0FF2A7
:1039D00060070AD137F814000090002101910120FE
:1039E000029002210391FFF7C0FF012D13D137F898
:1039F0001400009001214FF404100190FFF7B4FF70
:103A00000FF23000045D00220F2160B202F084F852
:103A100060B202F09FF805B0F0BD00004C00005805
:103A2000DC290020FC290020100001000200000019
:103A30000004000028002DE9F841C7B04FF000084D
:103A4000ADF81C00DDF838C14F9E509F519D529C2F
:103A50008DF8008007A800F01AF8A0F808C0ADF8AB
:103A6000266087818DF82A508DF82B4000F015F8DC
:103A70004FF4C17000F016F8102000F017F800287D
:103A80004CBFFF209DF8000048B0BDE8F0814180A8
:103A9000ADF82020ADF8223070471822002101A88F
:103AA00002F014B8ADF8060007A9704704903F2251
:103AB000012003910690ADF80420CDF814D0002128
:103AC00001A8FEF772BE0000014648B1B0FA80F1CD
:103AD0008840C91CC1F58461090501EBD02140056E
:103AE00070470000B0B581EA030C0CF0004C40F2C6
:103AF000FF7515EA11541DBF15EA1357AC42AF42CA
:103B000039E0E41923EA455343F48013C90241F034
:103B1000004141EA505EC7021100A7FB02020028E3
:103B20004FF00000EEFB01204FF00001E3FB072106
:103B300018BF42F00102401800214941E3FB0E0189
:103B4000A4F580640F0302D252004041494154F170
:103B500001046CDD470872F1004250F1000051EBA6
:103B60000451A1F580115CBF41EA0C01B0BD4CEAE3
:103B700005510020B0BD05EA1357AC4214BFAF4257
:103B800041E050EA410E1CBF52EA430E02E061469A
:103B90000020B0BD24423C441BD15FEA070EF6D0A2
:103BA000090302BF01460020AEF1140EB1FA81F7FD
:103BB000AEEB070401FA07FE0C37C7F1200100FA4B
:103BC00007F7C8404EEA000E23EA455343F480133A
:103BD000A2E733F00043B3FA83F704BFB2FA82FEE0
:103BE00077440B3FE41BB7F1200E2FBF02FA0EF310
:103BF000BB40C7F1200E22FA0EFE38BF43EA0E0387
:103C0000BA40641C82E750EA410E14BF52EA430EE8
:103C10006FF000014FF4001717EB430F8ABF1946EE
:103C200017EB410FB5E74CEA05510020B0BDD4F1C8
:103C30000104B4F120070FDAC4F12007520828BFAD
:103C400042F0010210FA07F501FA07F7E1BF2A4333
:103C5000E0403843E1400FE0352C98DCC7F1200408
:103C600052EA400220FA07F218BF42F0010231FA8C
:103C700007F0A1400A43002172F1004250F1000018
:103C800051EB0C01B0BD00B587B000F014F8012075
:103C900003220690ADF80420ADF8062000F07CF871
:103CA00000284CBFFF209DF8000007B000BD18227F
:103CB00001A801F00BBF00208DF8000018220021A0
:103CC00001A801F003BF09220021684601F0FEBEF1
:103CD0001822002102A801F0F9BE70B5C8B006464E
:103CE0000C4615460522FFF7EFFFADF82060FFF701
:103CF000EFFF302100F014F80521049000F01BF8CC
:103D0000002848BFFF2009D49DF8000030B99DF875
:103D1000030020709DF804002870002048B070BD9A
:103D2000ADF80A1008200221ADF80800059108A896
:103D30007047ADF808000791CDF818D0002102A80F
:103D4000FEF733BD00B5C7B000F00EF8FFF7AFFFC8
:103D5000312000F013F800F01FF800284CBFFF20BE
:103D60009DF8000047B000BD00238DF81C008DF8C1
:103D7000003007A84170827000217047ADF806003E
:103D800007A9032004900822012003910690ADF8B2
:103D90000420704703900691CDF814D0002101A8AB
:103DA000FEF703BD00B587B000208DF8000000F0DD
:103DB0007CF840F20110ADF806003F220120069089
:103DC00000F0EDF800284CBFFF209DF8000007B080
:103DD00000BD30B5C7B01C464A9B00F0C7F80025AF
:103DE0008DF800508DF82140224619460DF1220031
:103DF00001F066FE00F059F83F204FF4837100F0A7
:103E0000BCF8A41D049400F0CCF800284CBFFF209F
:103E10009DF8000047B030BD0023ADF81C008DF8C0
:103E2000003007A8418082800021182201A801F0FB
:103E30004DBE00B5C7B000F010F8FFF7F6FF0F2138
:103E400002914FF48970022100F0A1F800284CBFC4
:103E5000FF209DF8000047B000BD0021ADF81C0018
:103E60008DF80010704700B5C7B0FFF7D5FF0F21E0
:103E7000029140F2151000F089F800284CBFFF2095
:103E80009DF8000047B000BD00B5C7B0FFF7C4FF04
:103E90000F21029140F2171000F078F800284CBF73
:103EA000FF209DF8000047B000BD1822002101A8A6
:103EB00001F00CBE18B5C7B000F011F800F045F8DD
:103EC000FFF7F3FF40F2211100F013F800F069F85A
:103ED00000284CBFFF209DF8000048B010BD1446DC
:103EE000ADF81C00002207A88DF800204180047165
:103EF0007047ADF806103F2007A9ADF80400039104
:103F00000F20012102900691641D0494704718B59A
:103F1000C7B000F010F8FFF7C8FF3F2040F22311B0
:103F200000F019F800F03DF800284CBFFF209DF884
:103F3000000048B010BD144600228DF80020ADF8F6
:103F40001C00ADF81E108DF82040224619460DF1D8
:103F5000210001F0B5BDADF80400ADF8061007A8CA
:103F6000012103900691641D04947047ADF81C0074
:103F7000ADF81E108DF820207047ADF80400ADF8A4
:103F8000061007A801210390069170470621ADF89D
:103F90000600049107A801213F2203900691ADF885
:103FA0000420CDF814D0002101A8FEF7FEBB0000CC
:103FB00001460648064AC3798B4218BF904218BF93
:103FC0000838F8D18B4218BF00207047F873FF1FE4
:103FD0000070FF1F00B5C7B000F00CF8852000F09E
:103FE000FCF800F0AEF800284CBFFF209DF8000060
:103FF00047B000BD00218DF81C008DF8001018227C
:1040000001A801F063BD2DE9F841C7B04FF00008E9
:1040100000F026F80DF12300DDF844E14E9F4F9E9D
:10402000509D529C8DF81F30C0F800E08DF8008044
:104030008DF820708DF821608DF822508DF8274082
:1040400000F0EFF88620ADF8060007A90C2000F07C
:1040500074F800284CBFFF209DF8000000F0E6B87F
:104060008DF81C0007A8417082707047F8B5C8B081
:1040700005460E4617461C4600F023F808A8467071
:1040800087708DF8205000F0C7F88A21ADF80A102B
:104090003F20032100F0B3F8002848BFFF200ED4D2
:1040A0009DF8000058B94F994E98BDF80120228024
:1040B000BDF803200280BDF805000880002049B04B
:1040C000F0BD07220021684601F000BD00B587B0B1
:1040D00000F0AFF800F0A5F8922000F009F800F029
:1040E00030F800284CBFFF209DF8000007B000BD4D
:1040F000ADF806003F220120704718B5C7B000F0A8
:1041000011F800F08EF80F2102919720062100F09F
:104110006DF800F017F800284CBFFF209DF8000054
:1041200048B010BD0024ADF81C008DF8213007A860
:10413000418002718DF80040704704903F220120B9
:1041400003910690ADF80420CDF814D0002101A809
:10415000FEF72BBB2DE9F04F0646C7B008461946BF
:10416000559CDDF84091519DDDF848B1539FDDF835
:104170005081DDF858A1ADF81C60002307AE8DF822
:104180000030708032710DF12100062201F098FCA0
:104190008DF82790B581ADF82AB03782ADF82E8022
:1041A000B482ADF832A000F03CF83F20ADF8040036
:1041B0009C210F200290ADF806101820049007A94A
:1041C000012003910690FFF7BFFF00284CBFFF209E
:1041D0009DF8000047B0BDE8F08FADF8060007A9D4
:1041E00001203F220391049070470321ADF806009F
:1041F000049107A801213F22039006917047ADF872
:104200000800059108A8072104900791CDF818D05F
:10421000002102A8FEF7C9BA1822002102A801F065
:1042200055BC1822002101A801F050BC48B0BDE8DF
:10423000F08100208DF800007047000070B5044642
:104240006078FF2802BFB4F8031001F47F41B1F594
:10425000406F1FD10025154E317FE8B2884222D22F
:10426000E9B256F8211020468847002808BF6D1C87
:10427000F2D018E0761C2979F0B288420AD2F1B265
:1042800055F82110204688470100F3D002D00228BB
:1042900005D006E02046BDE87040FDF74BBA00208F
:1042A00070BD012070BD0026014DE4E72C390020CF
:1042B000E03900200249016002490161704700BFF6
:1042C00087430008AD430008006040607047EFF38B
:1042D000108172B6026882420CBF012000201CE0EF
:1042E000EFF3108272B603680B60486001600868E3
:1042F000416023E0EFF3108272B6086043684B60C0
:1043000041604868016019E0EFF3108172B64268BD
:104310000368136002684368536081F31088704734
:1043200010B5EFF3108472B602680A600068FFE708
:10433000FFF7EAFF84F3108810BD0B6082F310884A
:104340007047000001F0B7BD6C486D49016001F194
:104350002002426001F13002826001F140020262FB
:1043600001F14802426201F15002C26001F15802BB
:10437000026101F17402426101F1780282618431CB
:10438000C16101F0B6BD38B504465E4D2846FFF761
:104390009BFF5A484068A1680160E168C160856080
:1043A0005949416001F0C1FD58482AE080B55348A1
:1043B0004268136801211972406801F0BCFD0020B9
:1043C00002BD38B5514C4F4D04E000F041F8009863
:1043D000216888472846FFF77AFF0028F5D031BDCD
:1043E0004A484168084738B50446494D28460060A8
:1043F00040604248C068A1680160456001F0A0FDCE
:1044000044482168016061684160002032BD80B588
:104410003A48C268136810211972C06801F096FD0D
:10442000002002BD35483B4AC168C168136808686E
:10443000184738B5374C364D04E000F009F80098BD
:10444000616888472846FFF742FF0028F5D031BD54
:1044500069462846FFF764BF38B504462E4D284606
:10446000FFF732FF2D480060406024480069A168D2
:104470008160E168C1600561216801606168416037
:10448000216941616169816131BD80B5014623487F
:10449000FFF730FFBDE802400FF2050001F05FBDFD
:1044A00038B5164C1D4D06E0FFF7D2FF0099206984
:1044B0000069FFF71FFF2846FFF709FF0028F3D028
:1044C00031BD10B5164C2046006040600B48416974
:1044D0000C60BDE8104001F056BD1CB5104C06E064
:1044E00069462046FFF71CFF0098C046C04620469C
:1044F000FFF7EDFE0028F3D013BD000000000320FD
:10450000B8090320580A03209C080320D039002052
:10451000600A0320D8390020480A0320C839002047
:10452000500A032010B5A949A94C4FF40040086077
:10453000606840010ED56068C0000BD401F03CFDFE
:1045400001F03AFD206840F480302060216821F4B9
:104550008031216000F06EF80020FFF729FD40B1A6
:1045600080799C49E160E16821F47C5141EA0021B5
:10457000E16010BD10B59848984C88B0016841F0D2
:1045800050010160CA229648C2615321C161FF22D5
:104590000168C908C9000160C2619248016841F41C
:1045A00000410160FEF792F98F480168C908C9000F
:1045B00041F00401016001F00DFD8C490020FFF77E
:1045C0005EF801F020FD01210120FEF784F90020B2
:1045D000FFF7ABF90120FFF7A8F90220FFF7A5F9D3
:1045E0000120FFF7D3F901210020FFF7E3F9FFF7DE
:1045F000ABFE7F4A00214020FEF7EFF904F23C5069
:104600000FF275010090019169460FF2710000F000
:10461000A1FA04F25470029004F5C96140F23C50D2
:1046200005900391049402A8FFF716FFFFF78AFE96
:1046300008B010BD6F4881B0016841F4801101607D
:104640003F21006800F48010009000986A484160A3
:104650004161016841F47C110160026942F47C12FD
:104660000261016841F03F010160026942F03F02CE
:10467000026101B0704700007047000038B5044681
:1046800088B0616801F10B054FF412422888801A46
:1046900010D0401E63D0401E75D0801E00F0808078
:1046A000401E00F08280401E00F08280401E00F01C
:1046B000868088E06846FEF734FA9DF802309DF85F
:1046C00001209DF800100FF26810FEF769FA9DF8BE
:1046D00004100FF28010FEF763FA9DF80C309DF87D
:1046E0000B209DF80A100FF28810FEF759FA0FF20E
:1046F0009810FEF755FA04A8102101F081FA6068BD
:104700000D300078F8B90FF2A030FEF749FA01F049
:1047100089FC0D208DF810007F2138488DF812108B
:1047200004680FF2A030240C2146FEF739FAADF8E8
:104730001C4004A8FEF7EEF9FCF78EFF00210120D3
:10474000FEF7C9F83FE0012806D10FF29C30FEF7D2
:1047500027FA0020207036E00FF2C03031E00FF26F
:104760004810FEF71DFA606800F10D040FF2942066
:104770002178FEF715FA2078002814BF0FF2F020F8
:104780000FF2B0201DE00FF24410FEF709FAD5F841
:104790000620D5F802100FF28410FEF701FA12E09D
:1047A000D5F802100FF29C1006E00FF2D41008E0CA
:1047B000D5F802100FF2EC10FEF7F2F903E00FF259
:1047C0002020FEF7EDF909B030BD00001040005880
:1047D00090000058FECAFECA900800583C00032012
:1047E00008280040080000588004005808370020BE
:1047F000974B000850000058040C0058002004E0BB
:1048000001E0704700BF4FF0FF30FEF77BB800219A
:104810004020FEF7EFB80220FEF712B90220FEF7A3
:1048200017B9B0F5806F08BFFDF7A4B87047000056
:10483000576972656C657373204669726D77617232
:10484000652076657273696F6E2025642E25642E4F
:1048500025640A00576972656C6573732046697236
:104860006D77617265206275696C642025640A0049
:104870004655532076657273696F6E2025642E2528
:10488000642E25640A0000003E3E3D3D205348430F
:10489000495F5355425F4556545F434F44455F520D
:1048A000454144590A0D00003E3E3D3D20534843DA
:1048B000495F5355425F4556545F4552524F525FD0
:1048C0004E4F544946200A0D000000003E3E3D3D3B
:1048D00020534843495F5355425F4556545F424C0D
:1048E000455F4E564D5F52414D5F555044415445D2
:1048F000202D2D20424C45204E564D2052414D201A
:10490000484153204245454E20555044415445446A
:104910002042592043505532200A000020202020F8
:10492000202D205374617274416464726573732026
:104930003D20256C78202C2053697A65203D202568
:104940006C640A003D3D3E3E20534843495F535549
:10495000425F4556545F4E564D5F53544152545F2B
:104960005752495445203A204E756D6265724F6624
:10497000576F726473203D20256C640A00000000AC
:104980003E3E3D3D20534843495F5355425F4556A7
:10499000545F4E564D5F454E445F57524954450A49
:1049A0000D0000003D3D3E3E534843495F53554294
:1049B0005F4556545F4E564D5F53544152545F45C8
:1049C00052415345203A204E756D6265724F6653D1
:1049D0006563746F7273203D20256C640A000000CB
:1049E0003E3E3D3D20534843495F5355425F455647
:1049F000545F4E564D5F454E445F45524153450A04
:104A00000D0000003E3E3D3D20534843495F535555
:104A1000425F4556545F4552524F525F4E4F544984
:104A200046205749544820524541534F4E2025783F
:104A3000200A0D003E3E3D3D20534843495F5355FB
:104A4000425F4556545F4552524F525F4E4F544954
:104A500046205749544820524541534F4E202D205F
:104A60004552525F424C455F494E4954200A00006E
:104A70003E3E3D3D20534843495F5355425F4556B6
:104A8000545F4552524F525F4E4F5449462057494A
:104A9000544820524541534F4E202D20424C452032
:104AA0004552524F52200A003E3E3D3D205749524A
:104AB000454C4553535F46575F52554E4E494E47FE
:104AC000200A00003E3E3D3D204442474D43555F95
:104AD0004765745265766973696F6E49443D202558
:104AE0006C78200A0D0000003E3E3D3D20534843B7
:104AF000495F5355425F4556545F434F44455F52AB
:104B000045414459202D204655535F46575F525525
:104B10004E4E494E47200A0D000000003E3E3D3DEE
:104B200020534843495F5355425F4556545F434FB6
:104B300044455F5245414459202D20554E4558501B
:104B400045435445442043415345200A0D0000008D
:104B5000704700007FB50C464D4D61684D4EE861D1
:104B60002962284601F098FB2468746006F1080069
:104B700000604060012000F068F801203070296872
:104B800041B10FF2E9000FF2ED02009001920294A0
:104B9000684688477FBD1FB53E4C04F10800FFF70B
:104BA00096FB00BB2178F1B1694604F10800FFF7DC
:104BB000B7FB3748C16949B10098029001228DF8CE
:104BC000042001A888479DF8040000E0012020701F
:104BD000207818B10098FFF758FC04E0009904F120
:104BE0000800FFF77DFB04F10800FFF770FB28B910
:104BF000207818B104F10800FFF709FE1FBD2DE968
:104C0000F04105460E4690461C46002000F01DF877
:104C1000204F7868A0F80950C672324641460C30E1
:104C2000FDF71CFD1A4A136900210020984748F23D
:104C3000E800FFF7F3FD79688A78D21C04F10800D8
:104C4000FDF70CFDBDE8F04101201CB51049124CE8
:104C5000096A20B901B188470020207013BD0120E6
:104C6000207011B1BDE81C40084713BD0020FFF7BC
:104C7000D2BD000010B50146064C04F10800FFF754
:104C800039FB04F10800BDE81040FFF7C0BD00008B
:104C900008390020A4390020013A00202DE9F04312
:104CA0009FB00FF29C16269CDFF8E48A02918DF8E3
:104CB0003B4000210B914FF0FF37044691461D46C3
:104CC0000AE019F8011B0298A0470028029000F0A2
:104CD000A4800B98401C0B9099F8000050B1252837
:104CE000EFD10020002105900691079008910990CE
:104CF0000A9103E00B98A7E041F0010119F8010FB8
:104D00002028F9D023280CD02B2804D02D2805D01A
:104D1000302809D083E041F00201EFE741F00401BF
:104D2000ECE741F00801E9E741F01001E6E7002077
:104D30000D900AE00D98404505DA00EB800302EB88
:104D40004302303A0D9209F1010999F80020A2F1CD
:104D500030000A28EED399F800002E2818BF0C97CF
:104D600026D119F8010F2A2808D12868286009F1EE
:104D7000010950F8042B28600C9219E02D280CBF73
:104D800019F8010B002000220C920BE040B90C9A9C
:104D9000424505DA02EB820203EB4203303B0C93FF
:104DA00009F1010999F80030A3F130020A2AEDD384
:104DB000ADF83810304699F8001001F077FA08B1D4
:104DC00019F8010B8DF83A009DF83A00682804BFE5
:104DD00099F80010682903D162208DF83A0008E0A4
:104DE0006C2804BF99F800006C2804D171218DF85B
:104DF0003A1009F1010910A804902A4619F8013B5C
:104E00006946204600F060F838B910AA6946204685
:104E100000F08CF900287FF55FAF384614E02A28AF
:104E200085D12A682A6052F8040B2A6000280D9068
:104E300003D540420D9041F0040109F101098AE7D0
:104E4000686A6C747A4C00001FB0BDE8F083622879
:104E500020D0682811D06A2803D06C2827D0712868
:104E600025D10868C01D20F007000860D0E90023A4
:104E700008300860194610467047002A0A680A6020
:104E8000106803D0121D0A6000B217E0121D0A60FC
:104E900080B217E0002A0A680A60106803D0121D69
:104EA0000A6040B20AE0121D0A60C0B20AE0002A9D
:104EB0000A680A60106803D0121D0A60C1177047A3
:104EC000121D0A600021704770B51C460D46B4F1F2
:104ED00025002E69114600F017811C386AD0001F8A
:104EE000022867D9133843D0093863D0801E16D002
:104EF000401E1ED0401E02285CD9001F19D0401F42
:104F000000F08380401E33D0401E00F0CD80C01ED4
:104F100000F0D880801E2BD0C01E29D0FAE068692E
:104F2000421C6A610A680A6052F8043B0A60335402
:104F3000FAE095F83A000122FFF789FFC5E9000180
:104F40000023994204DA6869411C69612D210DE052
:104F5000288F810704D56869411C69612B2105E010
:104F6000C00722D56869411C6961202131541CE0C9
:104F700095F83A000022FFF76AFFC5E9000195F8AD
:104F80003800010711D5D5E900230020834208BF6E
:104F900082420AD044F02000782806D16869302186
:104FA0003154401C411C69613454214668693044C5
:104FB000E86083E00868C01D20F007000860D0E9C1
:104FC000002308300860C5E90023D5E90001C80FB7
:104FD00004D06869411C69612D210DE0288F81078B
:104FE00004D56869411C69612B2105E0C00704D51F
:104FF0006869411C69612021315468693044E86066
:105000002146284600F0C4F98EE005F13A025078B6
:1050100020B14FF0FF340FF648205EE01078622890
:1050200008D0682824D06A2812D06C282ED0712885
:105030000ED02BE00A680A6052F8040B0A6020B90F
:105040004FF0FF340FF6302047E0E96A01706BE063
:105050000A680A6052F8040B0A6020B94FF0FF3466
:105060000FF6142039E0EA6AD317C0E900235BE0A9
:105070000A680A6052F8040B0A6020B94FF0FF3446
:105080000FF6F41029E0E96A01804DE00A680A6031
:1050900052F8040B0A6020B94FF0FF340FF6D81015
:1050A0001BE0E96A01603FE00A680A6052F8040BFD
:1050B0000A600021C5E90001EE607821284600F071
:1050C000BBF831E00868086050F8044B0860EC60F9
:1050D0003CB94FF0FF340FF6B81001F0F3F8201A86
:1050E00070BD2E6B002E04D5204601F00DF904464C
:1050F00008E032460021204601F022F9002814BFC2
:10510000041B3446AC610FE06869411C69612521CC
:10511000315409E06969481C6861252272542100F4
:1051200002D0411C69613454002070BD2DE9FC415E
:105130000F460646796B7869BC6A091A386A091AFB
:10514000B869091A786A091AF869091A97F83800CB
:105150000C1B410790460FD42021002C8DF8001025
:105160000ADD254601236A463946304600F060FCD8
:1051700000285DD16D1EF5D17B6942463946304627
:1051800000F056FC002853D130208DF800003D6A15
:10519000002D09DD01236A463946304600F048FCFF
:1051A000002845D16D1EF5D1BB69FA6839463046F5
:1051B00000F03EFC00283BD130208DF800007D6AD5
:1051C000002D08DD01236A463946304600F030FCE8
:1051D00070BB6D1EF6D1F868B969FB694218394693
:1051E000304600F025FC18BB30208DF80000BD6A69
:1051F000002D08DD01236A463946304600F018FCD0
:10520000B0B96D1EF6D197F8380041070DD52021B1
:10521000002C8DF8001008DD01236A46394630461F
:1052200000F006FC20B9641EF6D10020BDE8F6812E
:105230004FF0FF30BDE8F6812DE9FC4707468A466E
:105240003E69BAF16F0F08BF082405D04AF020016B
:10525000782914BF0A2410243C25D7E90023BAF189
:10526000640F18BFBAF1690F9046994606D1002124
:105270008B4203DAD8F1000869EB49090020814527
:1052800008BF80451FD1386BE8B9082C4CD197F87E
:105290003800010748D530203B2586F83B0043E025
:1052A00000280ED597F8380000F01400102808D117
:1052B0007A6B7869121A386A121A511A0029C8BF13
:1052C0003962BDE8F3878DF800A040464946224682
:1052D000E31701F061F83032D0B26D1E3A28019523
:1052E00004DB9DF80000A0F151018A187255404678
:1052F00049462246E31701F04FF8804689460020D0
:10530000814508BF804503D0F86871198842DCD315
:10531000082C09D197F83800010705D5715D3029AF
:1053200002D06D1E30207055C5F13C01B961701975
:10533000F860386B8142B3DA411A39624FF6EF7088
:10534000398F01403987BDE8F3872DE9D043064600
:105350000F4614464FF00008DFF8389412E0E007DB
:1053600007D542464B4630463946FEF7BBFB06465C
:105370000F464046494642464B46FEF7B3FB641093
:1053800080468946002CEAD130463946BDE8D083B4
:105390002DE9F34F054641F020048DB0D5E9008991
:1053A000612C02AE09D0286B002848BF062003D428
:1053B00008BF672C01D101202863D5E900235800DC
:1053C0004015401C0ED119030CD00320A8619DF894
:1053D000380061381A2802D20FF2D06111E00FF2C2
:1053E000D0610EE058004015401C0FD119030DD1BB
:1053F0000320A8619DF8380061381A2814D30FF2F1
:10540000B861E8680322FDF729F9D3E1194621F0D4
:105410000043B3F5801F10460DD20027BB4208BFE2
:10542000BA42019703D111E00FF28861E9E701AABE
:1054300001F0CAF80AE0DFF8607307EB1352DFF8F7
:105440005C3301921940DFF858331943C5E9000174
:10545000612C0ED1E86830210170811CE9609DF853
:10546000381061290CBF7821582141706869801C6F
:105470006861D5E900AB2BF0004300202AF0000260
:10548000834204BF8242002300F05A81612C40F025
:10549000A980286B00284CBF2120401C009040466A
:1054A000009F7F1C49460022002301F0C5F8D94621
:1054B00001988DF8082038BF89F00049001F01903D
:1054C000002FD0460DF1090040F3498140F2FF71F1
:1054D000DFF8D0B20C910646404649460022002330
:1054E00001F0C2F880F03A814800400D00F11C0242
:1054F00010D0002A0EDD0C98824205DB09F0004036
:1055000040EA0B01002013E0A448084040EA0251A1
:1055100040460DE029F00043002028F000028342BD
:1055200008BF82420FBF40461C22404601F0B4F83B
:105530008046894601F04EF9FF1F002F044609DD21
:1055400001F066F902460B464046494601F072F901
:1055500080468946F01D072104E004F00F0200F8A0
:10556000012D2411002C01DD491EF6D5491E5CBF1A
:10557000002200F8012DF9D5ECE00020194602AA1E
:105580000A4400E05B1E12F80149491E8442F9D02A
:105590000F2804D10DF10900425C521C425400292D
:1055A00004D50198001D02AE5B1C0190591E12D457
:1055B0009DF838007218147804F130085FFA88F406
:1055C000392CC4BFA0F13A04A044491E02F8018955
:1055D000F1D58DF83800286B002840F1B080591EB5
:1055E0002963ACE0404649460022002301F024F83C
:1055F000019938BF89F0004947F2975041436A4A00
:1056000091FBF2F20192D2F1070204DD40464946D5
:10561000FFF79BFE0AE0524200206449FFF795FE27
:1056200002460B464046494601F076F98046662C14
:10563000286BDFF87CB106BF019F0A3706273F18A9
:10564000142FC8BF142730208DF8080089460DF1AB
:10565000090000E03046002F34DD0646404649464A
:1056600001F07EFA01460A4606F1080304200A26E4
:10567000B2FBF6F606EB860EA2EB4E02303203F8D2
:10568000012C0A22B6FBF2F202EB820EA6EB4E06CA
:105690003036401E03F8026DE9D1083F002F03F1B8
:1056A0000806D7DD0846FEF70FFA02460B464046CD
:1056B000494601F0BFF800225B46FEF713FA804628
:1056C0008946CBE70DF10901401A0DF1090604E006
:1056D0000199491E401E0191761C31783029F7D07E
:1056E000662C02D10199491C03E0652C0CBF0121F5
:1056F00000212B6BCB189842B8BF431E002B1ED441
:10570000834204DAF05C3528A8BF392000DA302063
:105710001946721E02EB010800E05B1E18F80199A1
:10572000491E8145F9D0392802D1705C401C705463
:10573000002904D50198401C16465B1C0190019875
:1057400000B200901BB29DF838103246284600F097
:1057500034F82FE0C61D002F3FF7BEAE30460DF1E6
:105760000901401A009903468842C8BF0B46002B26
:105770000DF109063FF52FAF8342BFF6FEAE0DF1E6
:105780000900C05C07287FF7F8AE0F20F6E600009E
:10579000CBCCCC0C0000244002FCFFFFFFFF0F80AD
:1057A0000000E03F0000F07FA08601000000F03F15
:1057B00084D797410FB0BDE8F08F2DE9F84783B04B
:1057C00006468A461746984601F0DEF9B8F1000F02
:1057D000406A356B90F8009003DC4FF001080FF23F
:1057E000DC27BDF930404AF02000662808BF641C61
:1057F00015D0672840F0848014F1040FC0F2868031
:10580000AC4280F2838096F83800641C010702D411
:10581000A845B8BF454620B22D1A48BF00250FFA4B
:1058200084FAF068B169BAF1000F25DC4A1C302314
:105830004354002D03DC96F83800010703D5F068C7
:1058400000F80290521C15EB0A0FB8BF6C4220B250
:10585000441941424445B8BFA046B26171620FFA93
:1058600088F5F561F068B3692A4639461844FCF7B3
:10587000F5FE641BB462C4E022B29045084417DA16
:1058800042463946FCF7EAFEB0694044B061AAEBF3
:105890000801002D716203DC96F838100A0705D55F
:1058A000F16801F80090F069401CF061B562A8E071
:1058B0003946FCF7D3FEB069002D5044A8EB04082C
:1058C00003DC96F838100A0703D5F16801F8009058
:1058D000401CB0610FFA88F08542F068B369B8BF28
:1058E000A8460FFA88F207EB0A011844FCF7B6FE47
:1058F000B0690FFA88F10844B061681A706280E0FC
:10590000BAF1610F14D14FF0700A16E0A84504DA1D
:1059100096F838100A0758BF45466D1E48BF002547
:10592000BAF1670F14BF4FF0450A4FF0650A04E063
:10593000BAF1410F08BF4FF0500AB169F368481C33
:10594000B061002D17F8012B5A5403DC96F838107B
:105950000A071BD5F168431CB36101F80090002DC4
:1059600014DDA8F101080FFA88F08542F068B8BF8D
:10597000A8460FFA88F239461844FCF76FFEB06962
:105980000FFA88F108446D1AB0617562F068B16968
:105990000844002C80F800A003D42B214170811C06
:1059A00003E02D2141706442811C00206A460AE018
:1059B00023460A2493FBF4F404EB8405A3EB45038C
:1059C00002F8013B401C24B2002CF1DC012806DC6B
:1059D0004AF02002652A04BF302201F8012B48B9A1
:1059E000302001F8010B07E0401E1DF80020303286
:1059F00001F8012B0028F7DCF068B2691044091A9D
:105A0000F16196F8380000F0140010280DD171698A
:105A1000B0694118706A4118F0694118B06A4118BC
:105A2000706B8142BCBF411A316204B0BDE8F0879F
:105A3000F8B505460E4617461C46002074B117F807
:105A4000011BB068A847B06030B1F06A401CF0623A
:105A50000020641EF3D1F2BD4FF0FF30F2BD000014
:105A60007072696E74665F733A20256E2064697384
:105A7000616C6C6F776564007072696E74663A2051
:105A800062616420256E20617267756D656E7400B9
:105A90007072696E74665F733A2062616420257368
:105AA00020617267756D656E740000006E616E0036
:105AB0004E414E00696E6600494E46003000704708
:105AC00010B50446FCF7CAFD204610BD10B50446CB
:105AD00010460A460146204601F05CF8204610BDFB
