:020000040800F2
:10000000081000206D890008D5860008D7860008F2
:10001000D9860008DB860008DD86000800000000A5
:10002000000000000000000000000000DF86000863
:10003000E186000800000000E3860008E58600086D
:100040007D8900088189000885890008E986000803
:10005000898900088D890008278700082D870008F6
:10006000918900089589000821870008998900086E
:100070009D890008A1890008ED860008A58900086F
:10008000A9890008AD890008B1890008B589000870
:10009000B9890008BD890008C1890008C589000820
:1000A000C9890008CD890008D1890008D5890008D0
:1000B000D9890008DD890008E1890008E589000880
:1000C000E9890008ED890008F1890008F589000830
:1000D000F3860008F9860008F9890008FD89000800
:1000E000018A0008058A0008098A00080D8A0008AC
:1000F000FF8600080387000807870008118A0008A8
:10010000158A0008198A00081D8A0008218A00083B
:10011000258A0008298A00082D8A0008318A0008EB
:10012000358A0008398A00080B8700083D8A0008D4
:10013000418A0008458A0008498A000840F02000EA
:1001400070472DE9F14FB2B09A4601A891460023BD
:100150000691C0E900333C9A0F930DF14A011491C6
:100160004A7009E0329823464A4604A900F0B4FFD9
:10017000002800F12181A14499F80010252909D116
:1001800000200021002209900A910B920C910D92FF
:100190000E910FE001AA4FF0FF31484601F000F840
:1001A000040002D10F9800F0F9BDDBD50124E2E78D
:1001B00041F0010119F8010F2028F9D023280CD0B3
:1001C0002B2804D02D2805D0302809D00BE041F091
:1001D0000201EFE741F00401ECE741F00801E9E733
:1001E00041F01001E6E72A280FD1DAF8002052F892
:1001F000040BCAF800200028119003D5404211904A
:1002000041F0040109F1010914E01192DFF8102B0B
:100210000AE0119B934205DA03EB830400EB4400F0
:100220003038119009F1010999F80000A0F130036C
:100230000A2BEED399F800202E2A03D04FF0FF307E
:10024000109029E019F8010F2A2809D1DAF80020C6
:1002500052F8040BCAF80020109009F101091BE0C4
:100260002D280CBF09F10109002000221092DFF8AF
:10027000B02A0BE040B9109C944205DA04EB8405E7
:1002800003EB4503303B109309F1010999F8003065
:10029000A3F130040A2CEDD3ADF848100FF68420FA
:1002A00099F8001000F086FF08B119F8010B8DF8DD
:1002B0004A009DF84A00682805D199F8001068297D
:1002C0000CD1622006E06C2804BF99F800106C295C
:1002D00004D171208DF84A0009F1010922AA08927F
:1002E00019F801BBBBF125002DD01C3800F0278187
:1002F000001F022840F223810E382AD0401F00F050
:100300004784093800F01B81801E00F0DA84401E0B
:1003100000F08984401E022840F21181001F00F085
:100320008284401F00F08080401E00F03184401E17
:1003300066D0C01E21D0801E00F02A84C01E00F0AE
:10034000278400F0DDBC0122252109928DF8881058
:100350002AE06C228DF84A20DAF8000050F8042BCD
:10036000CAF80000002A44D11499487800283ED0E9
:100370004FF0FF340FF6B41012E09DF84A006C28DD
:10038000EAD0DAF8000050F8044BCAF800000794ED
:10039000D4B91499487898B14FF0FF340FF6A810EB
:1003A00000F014FF241A07D1329822AA04A900F001
:1003B000F8FC00287FF5E0AE4FF0FF3000F0EEBC17
:1003C0000FF6A0100790EFE7109D002D04D52046F2
:1003D00000F01CFF044608E02A460021204600F0F9
:1003E00031FF002814BF041B2C460A94DCE70FF6EB
:1003F0007812329804A900F05AFD0028D4D5DBE722
:10040000DAF8001051F8040BCAF8001020F00002CE
:10041000002121F0FF33CDE9042322AC0794782199
:1004200004A800F0A4FDBFE71499487820B14FF06C
:10043000FF340FF63810B3E79DF84A00622862D007
:10044000682819D06A2840D06C2806D071284DD071
:1004500074282DD07A281ED064E0DAF8001051F804
:10046000040BCAF8001020B94FF0FF340FF6141037
:1004700096E70F99016097E7DAF8001051F8040B3E
:10048000CAF8001020B94FF0FF340FF6F80087E7E4
:100490000F99018088E7DAF8001051F8040BCAF8C8
:1004A00000100028E5D14FF0FF340FF6D80077E7B1
:1004B000DAF8001051F8040BCAF800100028D8D15F
:1004C0004FF0FF340FF6BC006AE7DAF8001051F87D
:1004D000040BCAF8001020B94FF0FF340FF6A40047
:1004E0005EE70F9AD317C0E900235DE7DAF8001042
:1004F00051F8040BCAF800100028F2D14FF0FF3475
:100500000FF680004CE7DAF8001051F8040BCAF837
:10051000001020B94FF0FF340FF6680040E70F9944
:10052000017041E7DAF8001051F8040BCAF8001026
:1005300000289ED14FF0FF340FF6480030E7DAF87C
:100540000000C21D9DF84A0022F007024C28CAF89C
:100550000020D2E9000107BF0832CAF8002002F1EA
:100560000803CAF80030CDE90401C80F02D0099889
:100570002D210AE0BDF84800810702D509982B21FA
:1005800003E0C00705D50998202122AA1154401C78
:10059000099022A809994BF0200300EB010CDDE93A
:1005A0000401CDE92001612BCDF81CC015AC0BD0A6
:1005B0001098002848BF062105D404BF4BF0200046
:1005C000672801D101211091DDE904014F0047EABC
:1005D000D0777E15FF174FF0FF32974208BF964243
:1005E00014D1090341EA10510003002908BF002873
:1005F0000CD0ABF1610503211A2D0A9118D30FF627
:100600000C310322604600F049FECDE6DDE904012D
:100610004A00521512F1010F0DD108030BD1ABF1B5
:10062000610503211A2D0A911BD30FF6E821E8E793
:100630000FF6D421E5E7DDE904016A4600F03AFE51
:10064000CDE904014BF02000612811D10798302238
:100650000270811C0791BBF1610F0CBF78215821FA
:1006600002E00FF6AC21CCE741700998801C09909C
:10067000DDE9040120F0000231F0004308BF002A48
:1006800002D10026002546E14BF02008B8F1610FA9
:1006900040F092801099002947BF21200390491C07
:1006A0000391039FDDE920017F1C00220023DDE987
:1006B000044500F037FE38BF85F0004500988DF8FE
:1006C0005420001F002F00900DF1550632DD20460A
:1006D00029460022002300F03FFE2BD21C2200F00E
:1006E00055FE04460D4600F0EFFEFF1F002F80462A
:1006F00009DD00F005FF02460B462046294600F0C2
:10070000C7FF04460D46F01D0721B8F1000F0CDDB0
:10071000491E5EBF08F00F0200F8012D4FEA2818AD
:10072000F3D502E0002200F8012D491EFAD5C61DBE
:10073000002FCCDC0DF15500361A03980DF155044D
:100740008642D8BF304600282FD4B04206DA0DF1D9
:1007500055010A5C082AA8BF0F2100DA00210246D1
:1007600015AB134400E0401E13F80159521E8D4290
:10077000F9D00F2904D10DF155018B5C5B1C8B5412
:10078000002A04D50099091D15AC401C0091411E9A
:100790000BD4621813783033DDB23A2DA4BF5B441A
:1007A0003A3B491E02F80139F4D5109A002A40F16B
:1007B000B080411E1091ACE00099DFF80C2947F29F
:1007C0009750414391FBF2F20092DDE92045C2F1DE
:1007D0000702002A25F0004504DD2046294600F0E6
:1007E00050FC0BE052420020DFF8E01800F049FC1A
:1007F00002460B462046294600F0BCFF04460D4643
:10080000B8F1660F06BF009F0A37062710983F18F9
:10081000142FC8BF142730208DF854000020DFF8B3
:10082000B018CDE920010DF15506002F33DD20462B
:10083000294601F0C3F801460A4606F108030420E0
:100840000A26B2FBF6F606EB860EA2EB4E0230321B
:1008500003F8012C0A22B6FBF2F202EB820EA6EBA1
:100860004E063036401E03F8026DE9D1083F002FD6
:1008700003F10806D9DD084601F0B2F802460B463E
:100880002046294600F004FFDDE9202301F0B6F8F8
:1008900004460D46CBE70DF15500361A0DF155040F
:1008A00004E00098401E761E0090641C20783028DA
:1008B000F7D0B8F1660F02D10098401C04E0B8F1FF
:1008C000650F0CBF01200020109940188642B8BF68
:1008D000701E00281DD4B04204DA215C3429C8BF40
:1008E000392100DC30210246631E9D1800E0401EC5
:1008F00015F80169521E8E42F9D0392902D1A15C46
:10090000491CA154002A04D50099491C1C46401CCE
:1009100000910646009D00F047FC406A0778DDF82C
:10092000408030B2002802DC01260FF2EC744BF05C
:100930002000662808BF6D1C16D0672845D128B254
:1009400010F1040F47DB404545DA9DF848006D1C67
:10095000010703D430B24045D8BF804628B2B8EB77
:10096000000848BF4FF000080FFA85FB07980A9966
:10097000BBF1000F00F3B1804A1C0A9230234354AC
:10098000B8F1000F03DC9DF84800010704D50A9870
:10099000411C0A9107990F5418EB0B0FB8BFC8F10F
:1009A00000052DB26842454432B20D909542B8BF61
:1009B0002E46079B0A9836B20B96324621461844BB
:1009C00000F06CFCAD1B0E95CBE0BBF1610F17D1B5
:1009D0004FF0700B19E030B2404504DA9DF8481032
:1009E0000A0758BF8046B8F1010848BF4FF0000819
:1009F000BBF1670F14BF4FF0450B4FF0650B04E0E0
:100A0000BBF1410F08BF4FF0500B0A98411C0A91EF
:100A1000B8F1000F079914F8012B0A5403DC9DF874
:100A2000480001071AD50A98411C0A91B8F1000F35
:100A300007990F5412DD761E30B28045B8BF464686
:100A400007980A9B32B22146184400F027FC0A9806
:100A500036B230180A90A8EB06000D9007980A9954
:100A6000014428B2002881F800B003D42B2048703C
:100A7000891C04E02D224A700546891C6D42002025
:100A80001FAA0AE02B460A2593FBF5F505EB850422
:100A9000A3EB440302F8013B401C2DB2002DF1DC16
:100AA000012806DC4BF02002652A04BF302201F841
:100AB000012B00281FAA08D1302001F8010B06E005
:100AC000401E135C303301F8013B0028F8DC079A24
:100AD0000A981044091A0B9143E0084431B22AB233
:100AE000914219DA32B2214600F0D8FB0A9936B2A7
:100AF00071180A91ABEB0600B8F1000F0D9003DC02
:100B00009DF84800020704D5079847540B99491CE3
:100B10000B91CDF8388024E0214600F0BFFB0A9805
:100B2000761B5844B8F1000F0A9003DC9DF848107A
:100B30000A0703D5411C0A9107990F5430B280452A
:100B4000B8BF464607980A9B32B204EB0B01184423
:100B500000F0A4FB0A9836B230180A90A8EB060001
:100B60000D909DF8480000F0140010287FF41CAC94
:100B7000099A0A980D9982180B988A1882180E986B
:100B8000119980188842BFF60FAC081A0C900BE43C
:100B90009DF84A00622808D068280ED06A2814D030
:100BA0006C281FD0712810D01CE0DAF8001051F822
:100BB000040BCAF80010C0B21AE0DAF8001051F8BD
:100BC000040BCAF8001080B212E0DAF80000C21D6F
:100BD00022F00702CAF80020D2E900010832CAF860
:100BE000002006E0DAF8001051F8040BCAF80010F3
:100BF0000021CDE904019DF8480002075AD5DDE93E
:100C00000401002908BF002854D04BF02002782AA4
:100C100050D1099822A930230B54401C421C099240
:100C200001F800B046E09DF84A00622808D0682824
:100C30000ED06A2814D06C281FD0712810D01CE068
:100C4000DAF8001051F8040BCAF8001040B21AE0AC
:100C5000DAF8001051F8040BCAF8001000B212E0E4
:100C6000DAF80000C21D22F00702CAF80020D2E91B
:100C700000010832CAF8002006E0DAF8001051F846
:100C8000040BCAF80010C117CDE90401002902D5F0
:100C900009982D210AE0BDF84800810702D509987E
:100CA0002B2103E0C00705D50998202122AA115461
:100CB000401C099022A80999014407915946FFF761
:100CC000AFBB9DF84A106C290BD001200990DAF8CF
:100CD000001051F8040BCAF800108DF88800FFF7D7
:100CE00063BBDAF8001051F8040BCAF800100022B8
:100CF00016924FF0FF311590109115AAFFF779BBAE
:100D000001202521BBF1000F09908DF888103FF4D8
:100D10004BAB022109918DF889B0FFF745BB00006C
:100D2000CBCCCC0C686A6C747A4C00007072696E23
:100D300074665F733A2062616420256C732061726F
:100D400067756D656E7400007072696E74665F73AE
:100D50003A2062616420257320617267756D656E4B
:100D60007400000000000000000000007072696E56
:100D700074665F733A20256E20646973616C6C6FD2
:100D8000776564007072696E74663A2062616420EF
:100D9000256E20617267756D656E740033B0BDE8B5
:100DA000F08F2DE9FC410F4606467D6B7869396A64
:100DB0002D1AB8696D1A796A2D1AF8696D1AB96A0F
:100DC0002D1A97F838006D1A410790460FD420204D
:100DD000002D8DF800000ADD2C4601236A463946B5
:100DE000304600F079F900285DD1641EF5D17B69A9
:100DF00042463946304600F06FF9002853D1302082
:100E00008DF800003C6A002C09DD01236A46394652
:100E1000304600F061F9002845D1641EF5D1BB6968
:100E2000FA683946304600F057F900283BD13020A7
:100E30008DF800007C6A002C08DD01236A463946E3
:100E4000304600F049F970BB641EF6D1F868B96904
:100E5000FB6942183946304600F03EF918BB302095
:100E60008DF80000BC6A002C08DD01236A46394673
:100E7000304600F031F9B0B9641EF6D197F8380069
:100E800041070DD52020002D8DF8000008DD01233D
:100E90006A463946304600F01FF920B96D1EF6D17A
:100EA0000020BDE8F6814FF0FF30BDE8F6812DE966
:100EB000F8470F46A3B03D6B82469046002D48BFD1
:100EC0006FF0004500F06FFE7A6B801801A90022D8
:100ED000C1E90022812828BF4FF0FF3044D291465B
:100EE0001EE0A54230DB7869201881280BD3002151
:100EF000796303AA39465046FFF753FF5FEA0009BA
:100F000022D40020786103AB7E6922466946981995
:100F100000F0C4F9A6197E6158F8040BA0B12D1B8E
:100F2000002D11DDD8F8001001AA684600F03AF94A
:100F30000446002C05D4D8F800000028D1D1641E46
:100F4000CFD54FF0FF390EE0B9F1000F504604D174
:100F500003AA3946FFF725FF8146B9F1000F02D1F8
:100F6000002078617863484624B0BDE8F0872DE919
:100F7000FC4D06468846376940466F2808BF08245E
:100F800005D0FFF7DBF8782814BF0A241024D6E92F
:100F900000013C2582468B46B8F1640F18BFB8F1BA
:100FA000690F05D1002903D5DAF1000A6BEB4B0B71
:100FB000BBF1000F08BFBAF1000F0CD1306B50B974
:100FC000082C3AD196F83800010736D530223B2557
:100FD00087F83B2031E08DF8008050465946224684
:100FE000002300F0E5FD3032D0B26D1E3A280195A5
:100FF0000EDA7A55504659462246002300F0D8FDB5
:1010000082465FEA010B08BFBAF1000F05D108E084
:101010009DF800001218513AEBE7F0687919884200
:10102000DBD3082C09D196F83800010705D5785D87
:10103000302802D06D1E30207855C5F13C02306B4F
:10104000B26179198242F16008DA318F821A4FF663
:10105000EF70014031873262BDE8F38D00280ED574
:1010600096F8380000F01400102808D1736B7069EE
:10107000316A1B1A5B1A9B1A002BC8BF3362BDE88A
:10108000F38D2DE9D04306460F4614464FF0000875
:10109000DFF8409012E0E00707D542464B46304665
:1010A000394600F0ABFC06460F46404649464246EC
:1010B0004B4600F0A3FC641080468946002CEAD120
:1010C00030463946BDE8D083A08601000000F03FDD
:1010D00084D7974100002440F8B505460E461746D0
:1010E0001C4600205CB117F8011BB068A847B0602F
:1010F00030B1F06A401CF0620020641EF3D1F2BDF2
:101100004FF0FF30F2BD00006E616E004E414E00A8
:10111000696E6600494E46003000B1F5807F02D30B
:101120004FF0FF3070470170012070470078401E7B
:101130008041C043C00F70471C48704770B453686B
:10114000D41801E05B1C491E042B08DA00291FBFDC
:10115000057804F8015B10F8016B002EF2D15360A2
:1011600070BC704738B514461D4661B1FFF7E6FF05
:1011700061686A6B204690476FF00102811A02D0C5
:10118000491E01D001E003E005E00021616032BDAD
:101190006FF0010032BD4FF0FF3032BDDA6B104707
:1011A000024BDFE7014BF9E7014870472C20002094
:1011B000BC200020C9B202788A421AB11CBF10F8C4
:1011C000012FF9E718BF002070472E0080B500B945
:1011D00006A005490B681BB122220021984701E0B7
:1011E00000F069FD222002BD8C270020636F6E7322
:1011F000747261696E742068616E646C65723A2005
:10120000626164206D6573736167650000F10103BD
:10121000810704D010F8011B820781B1FAD102685E
:10122000A2F10131914311F0803104BF50F8042F35
:10123000F6E709BAB1FA81F100EBD100401CC01AFF
:1012400070474300C9B2830706D0521E22D310F85C
:10125000013B9942F7D11FE0083A13D302F104028F
:1012600041EA012141EA014150F8043B121F21BF2C
:101270004B40A3F1013C2CEA030C1CF0803FF3D05F
:10128000C9B2001F0832521E24BF10F8013B91EA78
:10129000030FF8D818BF0120401E70474AB1000064
:1012A00011F8013B521E00F8013B1CBF11F8013B35
:1012B000F8E7704710B5144600F002F8226010BD40
:1012C000C1F30A5343B14A0012F5001F28D2A3F21A
:1012D000FE32A1EB0251704750EA410C20D001F0E0
:1012E000004C31EA0C01B1FA81F204BFB0FA80F38C
:1012F000D2180B3AB2F120032CBF00FA03F191404F
:1013000041EA0C013EBFC2F1200C20FA0CF3194354
:101310009040524240F2FD33D21A01EB0351704724
:101320000022704741EA030C50EA4C0C52EA0C0CC4
:101330004FF4001C09D307D01CEB410F9CBF1CEBE2
:10134000430F8B4208BF824270471CEB430FFBD810
:10135000994208BF9042704741EA030C50EA4C0C96
:1013600052EA0C0C4FF4001C09D307D01CEB410FC0
:101370009CBF1CEB430F994208BF904270471CEB87
:10138000410FFBD88B4208BF82427047124254D4AF
:1013900040F2FF7C1CEA11530FD0634531D09B18FB
:1013A00063453CBF01EB0251704701F0004141EA47
:1013B0000C510020AFF30080704750EA410320D069
:1013C00001F0004C91EA0C011CD0B1FA81F30B3B07
:1013D0009A420DD9D21A994051EA0C01C3F1200C5E
:1013E00020FA0CFC61449840531C40F2FF7CD7E784
:1013F000914041EA0C01C2F1200C20FA0CF3194390
:1014000090407047B0FA80F31533202BE0D3202AA8
:10141000EED3203A203B9A4209D9D21A00FA03F1BE
:1014200041EA0C010020531C40F2FF7CB8E700FAAF
:1014300002F141EA0C0100207047524240F2FF7C69
:101440001CEA11530DD06345DBD0B2EB030C3CBF5B
:10145000A1EB025170470CF1010221EA035141F462
:10146000801150EA410CCCD001F0004C352A27DC29
:1014700030B481EA0C01B2F1200309DAC2F1200391
:10148000044601FA03F5D0402843D1409C400CE0CB
:10149000C3F12002450020FA03F418BF44F0010410
:1014A00021FA03F091400C43002174F1004550F102
:1014B000000051EB0C01244230BC7FF47BAF70473D
:1014C0006146002076E77047C1F30A5340F21E429E
:1014D000D31A0CDDCA0283F3070342EA505242F0EA
:1014E0000042DA4002EBE17282EAE17070476FEA93
:1014F000E17203F2E13008B182F0004070477047BA
:1015000010F0004160B148BF4042B0FA80F2904014
:10151000D21CC2F5846241EA025202EBD02140059E
:1015200070470000841A71EB030604D26E40001B62
:10153000B141121973414FF4001C1CEB410F34BF31
:101540007CEB430683E00C0DA4EB1356362E00F320
:101550007C80012E45EAC32341DC43EA525312BF8B
:10156000D20292025B08240545EAC12141EA5051AA
:10157000D2EBC020994125D407D1B0FA80F610FAF9
:1015800006F162D00020203608E0B1FA81F6B140C1
:10159000C6F1200220FA02F21143B0404FEAF4747F
:1015A000B4EB465434F001064FEA74040AD8D6F579
:1015B0000016760D04F00044F04061FA06F2504047
:1015C000F1404840C00A40EA415021F0004128BFA4
:1015D0005FEA500550F1000044EBD12135E0DB0A11
:1015E00045EAC121C90AB6F120050EDD42EA0242F0
:1015F000120CC5F1200603FA06F6EB4042EA060596
:101600006D42984161F100010DE062FA06F5F24089
:10161000554063FA06FC82EA0C02F3405A406D42E0
:10162000904161EB030111F4801F05D1641E620536
:1016300002D06D004041494121F48011430875F109
:10164000004350F1000041EB045170BC70471CEBAB
:10165000410F15D223F0004352EA43060BD04FEA64
:101660004C0CBCEB410F04D80C0D661E342EB7DDBC
:10167000EBE7801A994150EA410608BF0021E4E7F0
:1016800008BF1CEB430F28BF6FF00001DDE700002F
:1016900070B491EA030F4FF000457FF543AF6B4004
:1016A000841A71EB030603D2001BB1411219734176
:1016B0004FF4001C1CEB410F34BF7CEB430442E0B1
:1016C0000C0DA4EB1356352E4FDC45EAC323DB0A81
:1016D00045EAC121C912B6F120050DDD63FA05F610
:1016E000EB4086EA0305124218BF45F00105C01819
:1016F00051F100010CD213E062FA06F5F2405540B8
:10170000F3415A40B340F3405A408018594107D33F
:1017100049085FEA30005FEA350528BF45F001055A
:1017200001F58011420875F1004250F1000041EBD3
:1017300004514E0016F5001F70BC38BF70470020E2
:10174000090D090570471CEB410F10D252EA430600
:101750000BD0BCEB410F05D80C0DAB43661E342EED
:10176000B6DD02E0AB438018594170BC704770BCD5
:1017700070470000F0B540F2FF7581EA030C0CF0F1
:10178000004C15EA11541DBF15EA1357AC42AF4285
:10179000E5E0BC41C1F31301C3F31303801A99417F
:1017A00043F4801304D2641E001849418018594143
:1017B000C90241EA5051B1FBF3F603FB1611A2FB3B
:1017C0000675D7EBC020A94102D2761E8018594178
:1017D000C90241EA5051B1FBF3FE03FB1E11A2FB0B
:1017E0000E75D7EBC020A94103D2AEF1010E8018CF
:1017F0005941890241EA9051760546EA8E2EB1FBA5
:10180000F3F603FB1611A2FB0675D7EB8020A94166
:1018100002D2761E80185941C90241EA50514EEA5F
:10182000060EB1FBF3F603FB1611A2FB0675D7EB10
:10183000C020A94102D2761E80185941C90241EA4E
:101840005051B1FBF3F703FB1711A2FB0735D3EBA4
:10185000C020A94167F100070CBF004247F0010713
:1018600066F3D5274FEA1E31B80814F5806412DDFF
:10187000BD0775F1004250EB0E5051EB045111F5CC
:10188000801F5CBF41EA0C01F0BD4CF07F6141F06C
:10189000E0410020F0BDBD076D0840EA0E5041F464
:1018A0008011D4F10104B4F120060ADAC4F1200653
:1018B0000200E04001FA06F3E1401843B24015434C
:1018C0000EE0342C13DCC6F1200445EA40056D0817
:1018D00020FA06F2154321FA06F0A1400D4300213B
:1018E00075F1004250F1000051EB0C01F0BD0020F9
:1018F0005FEA0C01F0BDCFB992185B41B3FA83F7F0
:1019000004BFB2FA82F6BF190B3FB7F120062FBF12
:1019100002FA06F3BB40C7F1200622FA06F638BFEA
:101920003343BA401CB1E419641E33E77F4231F0FF
:101930000041B1FA81F404BFB0FA80F6A4190B3C5F
:10194000B4F120062FBF00FA06F1A140C4F1200631
:1019500020FA06F638BF3143A0403C1B1AE7AC42E0
:101960001ABF05EA1357AF4212E050EA41061CBF06
:1019700052EA4306BFE750EA4107304661461CBFC2
:1019800041EA0551F0BD52EA430C08BFC143F0BD26
:1019900000204FF4001616EB410F98BF16EB430FD3
:1019A00008BF16EB410F24BFC14305E016EB430F00
:1019B0000CBF61464CEA0551F0BD0000400D40F2FD
:1019C0001E4C40EAC120BCEB115C40F0004003D447
:1019D0008CF30701C84070476FEAE1707047000060
:1019E00050B1B0FA80F18840C91CC1F58461090585
:1019F00001EBD021400570470146704730B540F2F9
:101A0000FF7C1CEA11541DBF1CEA13556445654553
:101A10003FE0641981EA030C6FF35F530CF0004C54
:101A200043F48013C90241F0004141EA505EC5020F
:101A30001100A5FB020200284FF00000EEFB012080
:101A40004FF00001E3FB052118BF42F001024018EE
:101A500000214941E3FB0E01A4F580640D0302D28D
:101A600092184041494154F1010470DD450872F17A
:101A7000004250F1000051EB0451A1F5801102D455
:101A800041EA0C0130BD40F2FF7E4CEA0E510020CD
:101A900030BD0CEA1355644518BF654581EA030C57
:101AA0000CF0004C41D050EA410E1CBF52EA430EEC
:101AB00002E06146002030BD24422C441BD15FEA85
:101AC000050EF6D0090302BF01460020AEF1140E48
:101AD000B1FA81F5AEEB050401FA05FE0C35C5F14E
:101AE000200100FA05F5C8404EEA000E6FF35F537F
:101AF00043F480139CE733F00043B3FA83F504BF4B
:101B0000B2FA82FE75440B3D641BB5F1200E2FBF67
:101B100002FA0EF3AB40C5F1200E22FA0EFE38BFDA
:101B200043EA0E03AA40641C7CE750EA410E14BF4E
:101B300052EA430E6FF000014FF4001515EB430F0E
:101B40008EBF194615EB410F9DE7B4D830BDD4F1D7
:101B50000104B4F120050FDAC4F12005520828BFB2
:101B600042F0010210FA05FE01FA05F57244E2BFE7
:101B7000E0402843E1400FE0352C9ADCC5F1200419
:101B800052EA400220FA05F218BF42F0010231FA8F
:101B900005F0A1400A43002172F1004250F100001B
:101BA00051EB0C0130BD80B5FFF7C6FA006C02BDE9
:101BB000D3BBD9B1B2F5803F5BD2022A1ED98C4685
:101BC000B1FBF2F102FB11C31B0443EA1043B3FB68
:101BD000F2FC02FB1C3380B240EA0343B3FBF2F099
:101BE00002FB103240EA0C4000237047022A05D95C
:101BF0008446B0FBF2F002FB10C270474AB105D137
:101C000000F0010249085FEA30007047002200231B
:101C1000704700F053B80B0002000021002070470D
:101C2000F7D3002200237047904271EB030CF2D3EC
:101C300070B5B1FA81F4B3FA83F52C1BA340C4F15B
:101C4000200532FA05F63343A2405FF00046E64035
:101C500002E05B085FEA3202841A71EB030524BFDD
:101C6000204629467641F4D302000B0030000021C3
:101C700070BD70B5B1FA81F4B2FA82F5C4F12004F6
:101C80006419B4F12006DAD3B2405FF00044F440A6
:101C9000002502E052085FEA3303C61A71EB020E18
:101CA00024BF3046714664416D41F3D302000B00FE
:101CB0002000290070BD012000F002B8704700002C
:101CC00080B5AFF30080024A11001820ABBEFBE7DD
:101CD0002600020038B5040001D1012032BD04F114
:101CE0008405686808B900F020F800F00DF808B124
:101CF00000F031F800F02CF8012804D000F00DF8C5
:101D000021F02A0116E032BD2420686020680168B5
:101D1000490849000160A06A70472068416821F4C1
:101D200090414160206881687047002129702046F9
:101D300000F084BF816000F004F8BDE8324000F09C
:101D400070BB2068016841F00101016020467047C6
:101D5000204600F0FFB9204600F000BB38B503462E
:101D6000D3F88C0020280AD109B1100001D101203C
:101D700032BD00F048F8BDE8384000F0F9BB022061
:101D800032BD38B5044604F154051346686B20286B
:101D900031D121B3180022D021652B806B80002027
:101DA000E86321216963A86AD8B1DFF89813C1629A
:101DB000DFF89403A96A0863A96ADFF8900348630F
:101DC0000020A96A88632068216D00F12802A86AB2
:101DD00001F091F828B11020E86320216963012007
:101DE00032BD216840200862226800F006F800F049
:101DF00061FBF9D132BD022032BD02F1080151E888
:101E0000001F083270470020D866DFF84443186886
:101E1000A0420CD04068040209D5186850E8004F71
:101E2000054644F0806445E800400028F5D1184696
:101E30007047216801F1080353E8001F206800F192
:101E4000080221F0400142E8001000287047206895
:101E500050E8001F024621F4907142E8001000286B
:101E600070472DE9F041044640F60F0C2268D66910
:101E7000104616EA0C0F0768936804F15C0507F03A
:101E8000200006F020010DD1002914D010B9D8008F
:101E900040F18D80A969002900F048812046BDE805
:101EA000F0410847DFF860C813EA0C0F04BFDFF801
:101EB0005CE817EA0E0F7AD05FEAC67E48BF5FEA99
:101EC000C75807D54FF0010EC2F820E06A6B42F008
:101ED00001026A63B2070AD5DA0708D5D4F800E030
:101EE0000222CEF820206A6B42F004026A63720775
:101EF0000AD5DA0708D5D4F800E00422CEF820206D
:101F00006A6B42F002026A6332070DD5002808BFEF
:101F100013EA0C0F08D0D4F800C00822CCF8202017
:101F20006A6B42F008026A63320509D57F0107D562
:101F300026684FF4006232626A6B42F020026A63E4
:101F40006A6B002A32D031B108B9D80003D5A9692B
:101F500009B120468847686B21688A68510602D417
:101F600010F0280F1DD0204600F0A3FB20688168E8
:101F7000480611D5FFF75DFFFCD1686A60B10FF626
:101F80001D018163686A01F034F800280ED0686A88
:101F9000816BBDE8F04108472046BDE8F04101F003
:101FA0001FB9204601F01CF900206863BEE02869D3
:101FB00001287BD1F00679D5F90677D5102010627B
:101FC000226829889068420637D56A6A136858687B
:101FD00080B2002828D0884226DA6880106801681C
:101FE0008A061AD400F0A8F821F4807100F064FA8F
:101FF000F8D100F065FAFCD1FFF71BFFFCD12020DF
:1020000028630021296100F097F821F0100100F009
:1020100053FAF8D1686A00F0B6FF02206861298897
:102020006888091A89B206E08842BFD11A6890060A
:102030007CD502226A61204634E06A886888891A61
:1020400000281CBF88B2002870D02246106850E8D3
:10205000003F044623F4907300F06AF8F6D110684C
:1020600000F1080400F1080354E8004FDFF8A0066F
:10207000044043E800400028F1D102F15C03202035
:10208000186300241C619C61146854E8004F1568B3
:1020900024F0100445E800400028F5D102205861E2
:1020A00089B21046BDE8F04101F09BB8F00209D5B5
:1020B000590207D54FF4801010622046BDE8F04168
:1020C00001F090B8300609D5390601D4180205D5BB
:1020D000E96959B32046BDE8F0410847700613D5B9
:1020E000790611D500F028F821F0400100F0E4F95C
:1020F000F8D104F15C002021C1620022C2612046B7
:10210000BDE8F04101F0A1B8300206D5790004D550
:102110002046BDE8F04101F0ABB8F00148BF002F08
:1021200004D52046BDE8F04101F0A3B8BDE8F08138
:1021300044E8003000287047206850E8001F02463D
:10214000704700001527000853270008592700088A
:1021500000800040F8B50446DFF89808226813684C
:10216000A168034020690B4361690343E0690B43A5
:102170000343136000255168E06821F44051014396
:102180005160A369DFF870188A421CBF206A0343BC
:102190009668DFF86808DFF868E8DFF868780640D6
:1021A0003343936067A6D36A606A1B0940EA03134E
:1021B000D3627245DFF850084FF4004338D13F68CE
:1021C00007F00307032F4CD8DFE807F00245424829
:1021D0004FF0010CE169B1F5004F4FF6F07740F098
:1021E0007F80BCF1010F09D0BCF1020F0AD0BCF115
:1021F000040F70D0BCF1080F70D098E001F0D6FB4E
:10220000002814D0626A616836F81230B0FBF3F02F
:102210004A0802EB4002B2FBF1F0A0F11001B94212
:10222000EBD20740C0F3420007432068C7607FE05D
:102230008A4216D13F6817F4406723D0B7F5806F04
:1022400009D0B7F5006F03D0B7F5406F06D008E0AE
:102250004FF0020C07E04FF0040C04E04FF0080CC4
:1022600001E04FF0100C8A42B4D1BCF1000F09D04C
:10227000BCF1020F0AD0BCF1040F15D0BCF1080F5D
:1022800015D054E001F08AFB002851D0616A36F87D
:102290001120B0FBF2F6626802EB42018E4246D397
:1022A0001303B34205D242E001F02EFBECE71846DF
:1022B000ECE75008002110EB062051EB16610023DB
:1022C000FFF776FCA0F54076DFF8EC78BE422ED220
:1022D0002168C8602CE001F017FB91E7184691E7F0
:1022E000BCF1010F09D0BCF1020F09D0BCF1040F01
:1022F00018D0BCF1080F18D019E001F057FBB8B1A5
:10230000626A36F812306168B0FBF3F000EB5100FE
:10231000B0FBF1F0A0F11001B94208D2226880B2FE
:10232000D06005E001F0F0FAE9E71846E8E701259A
:1023300004F168000121002341800180C360036132
:102340002846F2BD010002000400060008000A0051
:102350000C001000200040008000000190F82810C0
:102360000A0706D502685368816B23F400430B43C8
:10237000536090F82810CA0706D502685368C16AEE
:1023800023F400330B43536090F828108A0706D5D6
:1023900002685368016B23F480330B43536090F859
:1023A00028104A0706D502685368416B23F480233E
:1023B0000B43536090F82810CA0606D5026893684C
:1023C000C16B23F480530B43936090F828108A0666
:1023D00006D502689368016C23F400530B439360A5
:1023E00090F828104A0610D502685368416C23F40F
:1023F00080130B435360436CB3F5801F05D15368C2
:10240000816C23F4C0030B43536090F828100A0634
:1024100006D501684A68C06C22F4002202434A6073
:102420007047F8B5044604F184050020E8606FF0B9
:102430007E4701F053FB0646206801680A0714D561
:102440000097334600224FF40011204600F046F872
:1024500058B1FFF771FE21F0800100F02DF8F8D19E
:1024600004F184002021416016E0206801684A07D9
:1024700016D50097334600224FF48001204600F025
:102480002DF868B1FFF7E3FCFCD100F019F8FCD19E
:1024900004F1840020218160002202700320F2BD3B
:1024A000202068602021A9600020E06600212167CB
:1024B0002870F2BD41F0800142E80010002870470A
:1024C000216801F1080353E8001F2068490800F162
:1024D0000802490042E80010002870472DE9F04149
:1024E000069C05460E4690461F462868C169314045
:1024F000B1420CBF01200020404537D114F1010F3B
:10250000F3D001F0EBFAC01B844200D314B90320CE
:10251000BDE8F081286801684A07E6D5802E18BF1B
:10252000402EE2D0C169080704D42968C8690105B2
:10253000DBD50DE02A6808201062284600F0B9F8C3
:1025400005F184000821C160002202700120DFE74C
:1025500029684FF400600862284600F0AAF805F1E7
:1025600084002021C16000220270D0E70020CFE764
:1025700030B5034600209965FF2403F15C010A8011
:102580004A8088619868B0F5805F04D1186990B975
:1025900040F2FF140FE018B9186960B17F2007E01E
:1025A000B0F1805F06D1186908B97F2403E03F20AD
:1025B000888001E000248C800020486322240C6382
:1025C000196801F1080555E8001F186800F10804B2
:1025D00041F0010144E800100028F1D103F15C0151
:1025E0008868B0F1005F28D18889824225D39A6833
:1025F000B2F5805F04BF1869002803D10FF20D42C5
:102600008A610BE00FF21D348C61186930B100F063
:1026100036F841F48071FFF74FFFF8D1196801F1E6
:10262000080454E8001F186800F1080241F08051C6
:10263000FFF742FFF2D1002030BD9868B0F5805F0F
:1026400004BF186900280CD10FF2DD128A611868E6
:1026500050E8001F024641F02001FFF72DFFF6D1A0
:10266000E9E70FF271128A6118690028EFD000F0D3
:1026700006F841F49071FFF71FFFF8D1DBE7196806
:1026800051E8001F1A68704710B5016851E8002F23
:102690000B4622F0C00200F008F8F6D100F081F8F5
:1026A000FCD12021C0F8881010BD43E8002100298A
:1026B0007047016851E8002F0B4622F4907243E8FE
:1026C00000210029F5D1016801F1080301F1080298
:1026D00053E8003F0E490B4042E800310029F2D197
:1026E000C16E012909D1026852E8002F036822F067
:1026F000100243E800210029F5D12021C0F88C10F8
:102700000022C266426770470100001020010004E9
:10271000FEFFFFEF10B50146886A09680A68930654
:102720000AD400F00DF822F08002FFF7BEFFF8D1C6
:1027300000F045F8FCD110BDBDE8104000F085BDAB
:10274000026802F1080454E8002F016801F108034F
:102750007047806A01F0C8B970B5846A04F18805D1
:1027600028686E6821688A68110604D5212804BF8C
:102770002046FFF789FF20688168480604D5222E8D
:1027800004BF2046FFF795FFA86840F01000A8603E
:102790002046BDE8704000F023BD0000806A00F0D4
:1027A0001FBD026802F1080454E8002F016801F11E
:1027B000080322F4000243E8002100297047016861
:1027C00051E8002F0B4642F0400243E80021002967
:1027D0007047000010B500F050F81FD14B6A918887
:1027E000846D0B402370816D4B1C00F04CF819D1A7
:1027F00000F050F8FCD100F057F8FCD100F06CF874
:102800000BD10023136100F05DF8FCD10168CB69A6
:10281000DC0644BF10230B627AE07EE0886940F05A
:102820000800886110BD000010B500F026F81FD127
:102830004B6A9188846D0B402380816D8B1C00F066
:1028400022F819D100F026F8FCD100F02DF8FCD1C7
:1028500000F042F80BD10023136100F033F8FCD1F3
:102860000168CB69DC0644BF10230B6250E054E0E2
:10287000886940F00800886110BD00F15C020168C1
:10288000136B222B7047836551884B1E53805188F0
:1028900000297047026852E8002F036822F4907202
:1028A00043E8002100297047026802F1080454E857
:1028B000002F0168520801F10803520043E800218B
:1028C00000297047016851E8003F0C4623F01003CF
:1028D00044E800310029704700F15C0220211163B7
:1028E0000023936100215161434B016899420CD050
:1028F00049680B0209D5016851E8003F0C4623F0F6
:10290000806344E800310029F5D11169012970473D
:102910001188BDE8104000F064BCBDE8104000F034
:102920008ABC00002DE9F84300F00DF94BD1A889CD
:1029300000283AD0B80638D500F0CFF80870A06D5E
:10294000421C00F0C1F817D0F90748BF5FEAC8522F
:1029500000F0B1F803D5F20701D500F0CCF8780704
:1029600003D5F20701D500F0BEF8686B20B1204610
:1029700000F036FC0020686368880028DAD100F097
:10298000CCF8FCD100F028F8FCD100F0FAF809D11D
:1029900000F0E7F844BF102101622988204600F0CA
:1029A00020FC02E0204600F046FC688868B1A98956
:1029B00088420ADA00F0BBF8FCD18048A86100F038
:1029C000A2F8FCD101E000F002F8BDE8F1838169D2
:1029D00041F0080181617047206800F1080200F1B0
:1029E000080152E8002F7648024041E80020002804
:1029F00070470000F369FFCF00800040FFF4FF1133
:102A000000380140880000580024F4002DE9F84304
:102A100000F099F84BD1A88900283AD0B80638D5EB
:102A200000F05BF80880A06D821C00F04DF817D014
:102A3000F90748BF5FEAC85200F03DF803D5F20736
:102A400001D500F058F8780703D5F20701D500F05A
:102A50004AF8686B20B1204600F0C2FB0020686392
:102A600068880028DAD100F058F8FCD1FFF7B4FFED
:102A7000FCD100F086F809D100F073F844BF1021B2
:102A800001622988204600F0ACFB02E0204600F0FD
:102A9000D2FB688868B1A98988420ADA00F047F851
:102AA000FCD14848A86100F02EF8FCD101E0FFF706
:102AB0008EFFBDE8F18305D501210162686B40F00E
:102AC00001006863B8077047A2656888411E698085
:102AD0002068C76917F0070F70472168486AA16D21
:102AE00009EA00007047216804200862686B40F022
:102AF000020068637047216802200862686B40F03A
:102B0000040068637047216851E8001F226841F0A3
:102B1000200142E8001000287047216851E8001F9A
:102B2000226821F4807142E8001000287047226872
:102B300002F1080353E8001F083221F0805142E8F7
:102B4000001000287047044604F15C052068B5F8C1
:102B50000490C7690146D1F800808668296B222954
:102B6000704700212961206850E8001F024621F0CB
:102B7000100142E800100028F5D12068C169CA069A
:102B80007047202028630021A961002068610E4958
:102B9000206888420CD04068010209D5206850E8BE
:102BA000001F024621F0806142E800100028F5D1A4
:102BB000286901287047000000FD0F00D527000894
:102BC000FEFFFFEF2928000800800040854900E053
:102BD000854981B00A6802430A600968084000908C
:102BE000009801B0704780B54FF40020FFF7F0FF68
:102BF000002200212E2000F090FFBDE802402E2090
:102C000000F0A8BF0168794A914200D0704780B5B2
:102C10004FF48010FFF7DCFF002200212C2000F091
:102C20007CFF2C2000F096FF002200212D2000F0D8
:102C300074FFBDE802402D2000F08CBF38B59EB077
:102C400004461421684600F0D9FF50210AA800F07C
:102C5000D5FF20686649674D884246D102200A9018
:102C6000002111910AA800F0E3FF08B101F041FA38
:102C7000286840F00100286029685F4D01F00101DB
:102C8000059105980120FFF7A1FF02210191002283
:102C900002920C20032100900391082204926946BD
:102CA0004FF0904001F026FA54482860112100F0BE
:102CB00058F808B101F01DFA4FF088500021069035
:102CC0000791ADF820100122099206A9284601F0CB
:102CD000F1FA08B101F00DFAE567AC6200220021BB
:102CE000252000F01AFF252037E04549884236D1DB
:102CF00001200A90002110910AA800F099FF08B164
:102D000001F0F7F9686840F48040686068683D4DFC
:102D100000F48040059005980220FFF757FF02213C
:102D2000019101220292C020032100900391072209
:102D300004926946344801F0DDF9344828600F21D7
:102D400000F00FF808B101F0D4F9E567AC62002299
:102D50000021242000F0E1FE242000F0FBFE1FB043
:102D600030BD696000201022E86080216861A861A0
:102D7000E8612862AA602961284600F04DB818B5BC
:102D800095B00446502101A800F038FF2268204980
:102D90008A4224D14FF4006001904FF48071119168
:102DA00001A800F045FF08B101F0A3F91948816BB3
:102DB00041F4004181630021026842F480620260B4
:102DC0000022006800F4806000900098032000F06A
:102DD000A4FE032000F0BEFE204601F01FFB16B04B
:102DE00010BD00004C00005850000058000C005866
:102DF000008000405C0000585C2500204400024038
:102E000000380140BC250020000400484404024072
:102E1000002800405800005838B5040001D10120B6
:102E200032BD2168DFF89023914204F1240502D2DB
:102E300000F055F805E000F04AF8DFF88003296259
:102E4000E8610221697020680268A068E16823686F
:102E50006FF30E12024320690A4361690243A069BD
:102E60000A43E1690243206A0A4302431A6020468A
:102E700000F074F9A068B0F5804F04BF00216160D4
:102E80002079696A00F03F0000F014F838B1052895
:102E900005D2204600F07FF900F012F803E0002090
:102EA00028636863A8630021A96101206870297004
:102EB000002032BD0860A96AE86A4860606870470F
:102EC000296B00200860696BA86B48607047DFF8C9
:102ED000F00241181422B1FBF2F189007047DFF8CB
:102EE000E40241181423B1FBF3F18900DFF8D82282
:102EF0002962EA617047F8B5044604F1240600250A
:102F00003078012801D10220F2BD0120307077789D
:102F1000012F2ED102207070AC46C6F818C0206870
:102F200007687F087F000760204600F0FBF82168F3
:102F3000F06820B10A6842F00E020A6008E00868F2
:102F400020F0040008602068016841F00A01016077
:102F5000706A0168CA0303D5016841F48071016099
:102F6000306B18B1016841F48071016000F005F820
:102F700001E0357002252846F2BD2068016841F065
:102F800001010160704740B100F124014A78022A32
:102F900005D00420886100220A7001207047026871
:102FA000136823F00E0313604A6A136823F48073D6
:102FB000136000680268520852000260012091F814
:102FC0002020CB6902F01C02904058608A6AC86ACF
:102FD0005060086B38B10246106820F480701060B1
:102FE0004A6B886B50600120487000220A700020F4
:102FF000704738B500F1240200245178022903D02B
:1030000004209061012429E001680B6823F00E037D
:103010000B6001680D686D086D000D60516A0B68EA
:1030200023F480730B60012192F82030D56903F0FE
:103030001C0399406960936AD16A5960116B39B178
:103040000B46196821F480711960536B916B5960BC
:10305000012151701470516901B18847204632BD79
:10306000F8B500F124010426CA69126803681C68D7
:1030700091F8205005F01C0506FA05F73A4210D0E9
:1030800067070ED51A68940603D41A6822F0040262
:103090001A6000F03EF8C968002939D0BDE8F44054
:1030A0000847022606FA05F73A4213D0A70711D5BA
:1030B0001A68940605D41A6822F00A021A600123DD
:1030C0004B7000F026F800220A70896801B3BDE851
:1030D000F4400847082606FA05F52A4218D02207C8
:1030E00016D51C6824F00E041C60012291F82030D3
:1030F000CC6903F01C039A406260012301228A61BB
:103100004B7000220A70096911B1BDE8F44008470C
:10311000F1BD91F82020CB6902F01C0296405E6060
:103120007047000070B5C56C046D6C60446D14B1DF
:10313000856DC46D6C60012490F84450066C05F0F8
:103140001C05AC407460046863608068102802D17C
:10315000A260E16070BDA160E26070BD10B5416C1D
:103160000268154B89089A4239BF184C04EB81015B
:10317000174B03EB8101816402F0FF02083A14212E
:10318000B2FBF1F1012301F01F01124AC26403FAFC
:1031900001F1016510BD01790F4A104B836501F003
:1031A0003F0102EB81024265491E012201F0030149
:1031B0008A40C265704700000804024000040240D3
:1031C000F8FBFDBFF8FFFDBF000002400008024011
:1031D0001C08024080080240FC08024040090240EE
:1031E0007047704770470000002800D0704710B546
:1031F0001B4C00F004F8BDE81040FEF7AFBD1A48C4
:1032000023601A4B0360704738B5002488B9154D08
:1032100015482B60154B0360FEF7B3FD012805D060
:1032200007D3032804D038BF022402E0012400E0C1
:103230000324204632BD00680C49884204D1084A64
:103240001068002818BF0047704700680749884287
:1032500004D1044A1068002818BF004770470000D6
:103260008427002088270020E02200200038014029
:10327000704770474FF0B040006800F0F000B02891
:1032800088BFB0207047DFF8E0070068000100F059
:10329000F00070472DE9F041040051D020788106FC
:1032A0004FF0B0453AD5A868E96810F00C0001F07D
:1032B000030103D00C2808BF012943D1E06900288D
:1032C0003ED0FFF7D7FF0146606A814211D200F07D
:1032D0007FFB002834D12968606A21F0F0010143A6
:1032E00029606968206A21F47F4141EA0021696010
:1032F00009E0296821F0F001084300F018FA606A3B
:1033000000F066FBE0B900F03BFBDFF860170860F7
:10331000DFF85C07006801F09BF888B92078C107E6
:1033200062D5A868E96800F00C00082801F00301E4
:1033300003D00C2808BF03292ED16068002853D180
:103340000120F2E1E069B8B1296841F0010100F023
:10335000D8FA06462868800706D400F0BFFB801B19
:103360000328F7D30320E0E12868616A20F0F00029
:10337000084300F0DCF9D1E728684008400000F07D
:1033800094FB064628684008C007C7D500F0A6FB96
:10339000801B0328F6D3E5E76068B0F5803F04D1D1
:1033A000296841F48031296003E0286820F48030E6
:1033B0002860606858B100F091FB064628688003D9
:1033C00012D400F08BFB801B6528F7D3CAE700F00E
:1033D00085FB06462868400CC00705D500F07EFB3B
:1033E000801B6528F6D3BDE72078810715D5A8682E
:1033F000E96800F00C00042801F0030103D00C2858
:1034000008BF022928D1E068002899D0686821699E
:1034100020F0FE4040EA016068602168DFF85466F1
:1034200011F0180F00F08B806069002877D0C80673
:10343000706858D5800730D4716841F0010171601F
:1034400000F04CFB07467068800726D400F046FB6E
:10345000C01B0328F7D385E7E06870B1296841F401
:10346000807100F04EFA064628684005CED400F080
:1034700035FB801B0328F7D374E7286820F480709D
:1034800000F013FB06462868800AC007C5D500F087
:1034900025FB801B0328F6D364E7706840F0040026
:1034A00000F04EF907467068000705D400F016FBDF
:1034B000C01B0428F7D355E77068A16920F4706039
:1034C00040EA0120706070684008400000F038F960
:1034D000074670684008C00731D500F0FFFAC01BEE
:1034E0000328F6D33EE740F0010000F029F9074633
:1034F0007068800705D400F0F1FAC01B0328F7D3E9
:1035000030E7706820F0040070607068C008C00781
:1035100015D500F0E3FAC01B0428F6D322E7706843
:1035200020F0040000F00CF907467068C008C007DE
:10353000C9D500F0D3FAC01B0428F6D312E72078CF
:1035400041074CD5DFF83085D8F80000C1050ED40E
:1035500000F0A0FF00F0C2FA0746D8F80000C1054D
:1035600005D400F0BBFAC01B0328F6D3FAE6A06826
:10357000012804D1306840F00100306010E00528D7
:10358000306806D140F004003060316841F001013C
:1035900005E0400840003060316821F004013160EE
:1035A000A06841F2893760B100F098FA804630682F
:1035B000800714D400F092FAA0EB0800B842F6D3CA
:1035C000D0E600F08BFA804630684008C00706D588
:1035D00000F084FAA0EB0800B842F5D3C2E62078E8
:1035E000410622D5A06A0028B0680ED040F0010044
:1035F000B06000F073FA0746B068800715D400F099
:103600006DFAC01B0328F7D3ACE640084000B06059
:1036100000F064FA0746B0684008C00705D500F01E
:103620005DFAC01B0328F6D39CE6E06A00287BD035
:10363000A968EA68022801F00C0161D1236B02F04D
:103640000300984202BF02F07000636B984213D1EE
:10365000A36BC2F30620984202BF02F47810E36B1A
:10366000984209D1236C02F06060984202BF02F0D8
:103670006042606C824237D00C2942D028684101F8
:103680003FF55EAE00F00EFA06462868810105D5CA
:1036900000F024FA801B0328F7D363E6EA68DFF81A
:1036A000DC03216B0240606B0A43A16B0243E06BB9
:1036B00042EA0122216C0243606C0A430243EA6041
:1036C000296841F080712960E86840F08050E86026
:1036D00000F004FA04462868810125D400F0FEF9C0
:1036E000001B0328F7D33DE6286881011CD4286815
:1036F00040F080702860E96841F08051E960E7E7B8
:103700000C293FF41DAE00F0CDF904462868810174
:1037100005D500F0E3F9001B0328F7D322E6E9689A
:10372000DFF85C030140E9600020BDE8F08128601B
:103730006868216A20F47F4040EA01206860704791
:10374000706000F0CBB92DE9F8430400884600F022
:10375000B080DFF8305300F0CBF80CD200F0CDF899
:10376000074600F0C5F806D000F0B8F9C01B0228E3
:10377000F7D90320BAE0207882074FF0B04711D57F
:10378000B968A06821F0F0010143B96000F0A6F922
:103790000646B868C00305D400F0A0F9801B0228D3
:1037A000F7D9E6E72078DFF8C062820612D53168E3
:1037B000606921F0F0010143316000F08FF981462A
:1037C0003068800306D400F089F9A0EB09000228D4
:1037D000F6D9CEE72078410613D53068A1690009F3
:1037E000000140EA1110306000F078F9814630683D
:1037F000C00306D400F072F9A0EB09000228F6D944
:10380000B7E72078420711D5B968E06821F4E06194
:103810000143B96000F062F90646B868800305D438
:1038200000F05CF9801B0228F7D9A2E72078010795
:1038300012D5B868216920F4605040EAC100B86030
:1038400000F04CF90646B868400305D400F046F98C
:10385000801B0228F7D98CE72078C1072BD5606838
:10386000022819D13968890323D5BA68920840EA39
:103870008200B86000F032F90646B868616800F06E
:103880000C00B0EB810F16D000F028F9801B41F23C
:1038900089318842F1D36CE7032802D13968890164
:1038A00003E00028396802D18907DED401E0490528
:1038B000DBD401201AE0286800F0070080450BD215
:1038C00000F01BF8044600F013F805D000F006F9EC
:1038D000001B0228F7D94CE700F052F86349086052
:1038E00000F0F4FDBDE8F24300F0B2BDBDE8F283A4
:1038F000286800F00700404570472968C90848EA71
:10390000C101296000F0EAB838B54FF0B0455F4C0E
:10391000A96811F00C0106D1FFF7ACFCC0F303104D
:1039200054F8200032BD0429594828D00829594AA2
:1039300004D12968C90222D4104632BDE96801F0D9
:10394000030102290CD0032904D12968C90207D434
:10395000104605E0FFF78EFCC0F3031054F820007A
:10396000E968EA68EB68C1F306214843C2F3021133
:10397000491C5B0FB0FBF1F05B1CB0FBF3F032BDF8
:1039800080B5FFF7C1FF4049FFE7434A0968C1F32B
:10399000031152F82110B0FBF1F002BD80B5FFF722
:1039A000EFFF00F010F8C1F3022106E080B5FFF749
:1039B000E7FF00F008F8C1F3C22112F8211001F06E
:1039C0001F01C84002BD3049344A096870470000F1
:1039D00070B52E49B1282EBFCC6AC0F3031051F840
:1039E0002040FFF750FC054600F08AFD2A49C5F348
:1039F000031251F822102A4AB4FBF1F15FF00004DF
:103A0000B1FBF2F1B0F5007F30A220461FD100BF1C
:103A100027A353F820508D4216D2401C0328F8D912
:103A2000184D2868C00844EAC00000F03EF8064679
:103A3000286800F00700A04213D000F04FF8801B68
:103A40000328F5D3032070BD52F82040E8E700BFFB
:103A50001BA353F820508D42F6D2401C0328F8D304
:103A6000DEE7002070BD0000080100583C21002066
:103A70002021002090000058000400588C80C111C3
:103A8000FCFFFEEE0040005808000058D0850008FA
:103A90000024F4000048E80190850008E48800084C
:103AA00040420F00286820F08070286000F016B8AF
:103AB000120000002400000036000000400000005A
:103AC000060000000C0000001000000000000000D4
:103AD00001000000020000000300000001484068EF
:103AE000704700BF18210020704700000901020044
:103AF00002D4394881547047384B02F00F021A44FF
:103B000002F8041C704736490A6860F30A2240F242
:103B1000FA5060F31F420A60704770B5304B1C6862
:103B2000C4F302230124C3F10705052D2EBF0F2581
:103B300004FA05F56D1E1E1D072E34BF0023DB1E83
:103B40002940994004FA03F3BDE870405B1E1A4017
:103B50001143CBE7010007D4012200F01F01214BE4
:103B60008A40400943F82020704701000BD401220D
:103B700000F01F011C4B8A40400943F82020BFF38E
:103B80004F8FBFF36F8F7047401EB0F1807F01D31E
:103B9000012070471549164A48600023F020107034
:103BA0008B600720086000207047010007D40122C5
:103BB00000F01F010F4B8A40400943F82020704756
:103BC000010007D4012200F01F010B4B8A4040097D
:103BD00043F820207047000000E400E018ED00E00A
:103BE0000CED00E000E100E080E100E010E000E02A
:103BF00023ED00E000E200E080E200E0002200F0BF
:103C000087BC0000DFF81C130A68030903F47F2354
:103C100000019A4300F47F2000F081B9DFF804230B
:103C20001368010C23EA014343EA00431360704721
:103C30002DE9F843054600242878DFF8E8624106BC
:103C4000A0464FF0B04743D5286B70B1B0F5800F58
:103C500006D0B0F5000F18BFB0F5400F2ED035E0FC
:103C6000F96841F48031F96029E0386820F080601B
:103C70003860FFF733FF81463868C00EC00707D5AC
:103C8000FFF72CFFA0EB09000228F5D9032415E06B
:103C900000F03CF9A86821F4781100F02FF9814672
:103CA0003868000106D4FFF719FFA0EB09000228CD
:103CB000F6D9EBE739696869014339613CB9316884
:103CC000286B21F440010143316001E00124A0464A
:103CD0002868010532D5D6F80880286C08F44078A9
:103CE00080452AD000F0D6FBB8F1000FB16805D1AD
:103CF000286C21F440710143B1601EE0B06840F4CB
:103D00008030B06021F44071B06820F48030B06041
:103D1000286C0143B160B068C0070ED5FFF7DEFE26
:103D20008046B068800708D4FFF7D8FEA0EB0800F3
:103D300041F289318842F4D30324A0462878C2078F
:103D400005D53168A869890840EA81013160297880
:103D5000880705D53168E86921F440610143316085
:103D60002978C80644BFA86AFFF758FF287881065B
:103D700044BFE86AFFF752FF2878410744BF286A2A
:103D8000FFF740FF2878010744BF686AFFF73AFF52
:103D90002868C20535D53168686B21F04061014360
:103DA0003160696BB1F1006F00F0A2F8686BB0F19F
:103DB000806F26D1396821F0806100F0A4F80446B4
:103DC0003868C00EC10707D5FFF788FE001B022820
:103DD000F6D94FF0030814E000F098F8E86821F0F5
:103DE000606100F08BF804463868010105D4FFF7E4
:103DF00075FE001B0228F7D9EBE7396968690143B2
:103E00003961296888051CD5A86BB0F1804F18BFAF
:103E1000B0F1004F00D020B9316821F04041084393
:103E200009E0316821F04041316020F08050326873
:103E300022F0406210433060A86BB0F1C05F00F028
:103E400057F82868420538D53168E86B21F04051B1
:103E500001433160E96BB1F1005F03D1F86840F4D0
:103E60008030F860E86BB0F1805F26D1396821F0CE
:103E7000806100F048F804463868C00EC10707D5D5
:103E8000FFF72CFE001B0228F6D94FF0030814E0C0
:103E900000F03CF8286921F0604100F02FF804465A
:103EA0003868010105D4FFF719FE001B0228F7D975
:103EB000EBE739696869014339612968C80405D5A8
:103EC000F168686C21F440410143F160296888047D
:103ED0000BD5796AE86C21F0300101437962796A87
:103EE000A86C890840EA810179624046BDE8F28306
:103EF00003D1F86840F08070F86070470143396181
:103F0000396841F080613960FFF7E8BD3869696858
:103F100020F4FE4040EA01203861396970471043BF
:103F20000860704788000058644900E0644981B027
:103F30000A6802430A60096808400090009801B0CE
:103F4000704710B500F0AEFA00F0FCFA00F045F84A
:103F500000F080F85B4C5C48606204F1240000F0E3
:103F60007BFD0420FFF7E2FF0120FFF7DFFF0220C7
:103F7000FFF7DCFF0420FFF7D7FF0220FFF7D4FF95
:103F80000120FFF7D1FF00220F210E20FFF7C5FD12
:103F90000E20FFF7DFFD00220F213A20FFF7BDFDC5
:103FA0003A20FFF7D7FD49482060002147F6FF700F
:103FB0000F22E0606160A2602161A161E161616145
:103FC000204600F081FD00220021204600F0A5F9E6
:103FD00000F000FB00F03DFCFCE780B59AB0482102
:103FE00008A8FFF70BFE1C2101A8FFF707FE00F051
:103FF00051FA3748016821F0180101600121354864
:10400000026861F34A2202604FF48031006800F4D4
:10401000C06000900720009A099101224FF480713E
:104020000A920B910890402200210C92139108A84B
:10403000FFF730F96F2002210190029100220392D4
:104040000492059206920792012101A8FFF77BFBDB
:104050001BB000BD80B594B050216846FFF7CEFD7F
:104060004FF440524FF480410092119102221021EE
:10407000129213916846FFF7DBFD15B000BD10B535
:10408000154C164820604FF4E1310C20606100228D
:104090004FF40040E06100F023F82046FDF71AFEDF
:1040A0000021204600F0D6FD0021204600F0DDFD75
:1040B0002046BDE8104000F0AFBD000048000058A9
:1040C0004C000058FC240020000C00580028004040
:1040D0009000005800040058E02200200038014001
:1040E0006160A260E2602261A26122626262A262F9
:1040F000704770472DE9F04F0024DFF89881664E35
:104100004FF00F0902460B4631E0644FBA4214BF2C
:104110004FF0070E4FF0040E0EFA01F141EA050EC2
:104120005F4941F82CE0C74331685D683940ED02D2
:1041300048BF0143316071685D683940AD0248BFD6
:1041400001437160D8F800105D683940ED0348BF45
:104150000143C8F80010D8F8041007EA010C5968A8
:10416000890348BF40EA0C0CC8F804C0641C1868F6
:1041700030FA04F100F07D800121A1400840F5D023
:104180004FEA440C032505FA0CF56FEA050E5D684D
:1041900005F00307012F1CBF05F00305022D10D108
:1041A0009568DF680EEA050507FA0CF73D43956050
:1041B000556825EA01015D68C5F30015A54029434E
:1041C0005160A1001D7905F00305032D1ED0D568AF
:1041D0009F680EEA050507FA0CF73D43D5601D7987
:1041E00005F00305022D11D1E50802EB850501F06C
:1041F0001C07D5F820B009FA07FA2BEA0A0BD3F806
:1042000010A00AFA07F747EA0B072F6215680EEAB3
:1042100005071D7905F0030505FA0CF545EA070CBD
:10422000C2F800C05D6815F4403F9FD01C4D4FEAB6
:10423000940C55F82C5001F00C0109FA01F7BD431C
:10424000B2F1904F08BF4FF0000E11D0154FBA4297
:1042500008BF4FF0010E0BD0134FBA4208BF4FF00A
:10426000020E05D0114FBA427FF44FAF4FF0030E4C
:1042700052E7BDE8F08F0AB18161704781627047F3
:104280000B4A136801460B421CBF116000F0F1BAE3
:1042900070470000800800580008005800100048CF
:1042A000080001400004004800080048000C0048D5
:1042B0000C08005870B500F12403587801281CD16F
:1042C0001A78012A01D1022070BD5C6A1870256835
:1042D0000B480A68CE6805401543761E48680A7A7E
:1042E00045EAC6450543487A45EA024545EA402580
:1042F000256000211970002070BD012070BD0000F4
:10430000FFFD00E08A60FF210268516280F82130E1
:10431000002180F8201000207047F8B53E4E03467B
:1043200030684FF47A7540092C46B0FBF4F46C43C6
:10433000009493F82000012801D10220F2BD012051
:1043400083F82000022783F82170CA201C6860626D
:10435000532718684762FF241F68B868400507D5CF
:104360000098401E00900098F0B1F8684007F7D41C
:10437000B86820F48060B8601868C76807F08007E4
:1043800067F49067C760306840092E46B0FBF6F6C8
:10439000754300951D680098401E0090009818B164
:1043A000E8684607F7D506E018684462032100F084
:1043B00023F80320F2BDA868C008C000A8601868F0
:1043C00085682A438260186841611148016841F498
:1043D000002101600F48026842F400220260186860
:1043E000816841F480418160186800F00BF818681A
:1043F000446200F001F8F2BD83F82110002083F838
:1044000020007047816841F480618160012170471C
:1044100080080058000800583C21002090F8201027
:10442000012901D102207047012180F820100223C8
:1044300080F82130CA2102685162532301684B621F
:10444000012301688A6842F02002FFF75BBF000089
:1044500070B50F4E044630780025A8B1FFF790FAEA
:1044600032784FF47A71B1FBF2F2B0FBF2F0FFF761
:104470008BFB48B9102C07D2002221464FF0FF30A9
:10448000FFF74BFBB46000E00125284670BD00BF7C
:10449000182100200248016841F4807101607047D2
:1044A00000040058134810B5016841F480710160A0
:1044B0000320FFF728FB0020FFF7CAFF0024002895
:1044C00014BF0124FEF78FFB204610BD0A48806808
:1044D0007047094800787047084805E007480168B8
:1044E00041F0020101607047016841F00101016083
:1044F000704700000040005818210020042004E00C
:10450000DFF80800006800F4C0607047000400583D
:1045100000B500BF130096469446103928BFA0E8A6
:104520000C50FAD85FEA417C28BF0CC048BF40F865
:10453000042BC90728BF20F8022B48BF00F8012B25
:1045400000BD00001CB5DFF8EC13DFF8EC434FF4BE
:1045500000400860606C40010ED5606CC0000BD458
:10456000FFF798FFFFF796FF206C40F4803020643F
:10457000206C20F4803020643F22216841F48011B7
:1045800021603F21206800F4801000900098DFF83F
:10459000AC0341604261016841F47C110160026931
:1045A00042F47C120261016841F03F01016002693E
:1045B00042F03F020261002000F0AAFB48B180797E
:1045C000DFF87C13E164E26C22F47C5242EA0022C0
:1045D000E26413BD10B5DFF86C03DFF86C4388B0FC
:1045E000016841F050010160CA22DFF86003C26136
:1045F0005321C161FF210268D208D2000260C1616B
:10460000DFF84C03026842F40042026000F094FBC1
:10461000DFF840030268042161F302020260002017
:10462000CD4900F0C4FC00F070FE0121012000F033
:1046300088FB002000F018FF012000F015FF022089
:1046400000F012FF012000F031FF0121002000F0F6
:1046500047FF0121012000F043FF0121022000F06B
:104660003FFF0FF22923BD4901220020FEF7BCFDC8
:1046700000F08EFFBA4A00214FF4807001F017F964
:1046800004F23C500FF231010090019169460FF2A3
:104690002D0001F075F904F5C961039104F254701D
:1046A000029040F23C510591049402A800F0F8FFFA
:1046B00000F06CFF08B010BD7047000070B50646F2
:1046C00088B07068A74C00F10B054FF4124229889E
:1046D000891A11D0491E6ED0491E00F08080891EB3
:1046E00000F08A80491E00F08C80491E00F08C800A
:1046F000491E00F0908092E0684601F004FA9DF8AF
:1047000002309DF801209DF80010204601F03CFA8F
:104710009DF804100FF2682001F036FA9DF80C3075
:104720009DF80B209DF80A109CA001F02DFA00BF07
:10473000A0A001F029FA04A80021002200230025EE
:1047400080E82E00716801F10D0090F8000038BB80
:10475000A0A0854D01F018FA00F054FE0F207F2133
:104760008DF810008DF8121004F509702E68360CC3
:10477000314601F009FAADF81C602C689CA0C4F326
:104780000B04214601F000FAADF81E4004A801F028
:10479000B3F901F00DFA0021012000F0D2FA3EE059
:1047A000012805D104F5127001F0EEF9357036E0FC
:1047B00004F51F7031E004F1240001F0E5F97068A0
:1047C00000F10D0504F5C070297801F0DDF92878B5
:1047D000002814BF04F5F67004F5D8701DE004F14C
:1047E000480001F0D1F9D5F80620D5F8021004F1FF
:1047F000980001F0C9F912E0D5F8021004F1C000E8
:1048000006E004F1FC0008E0D5F8021004F5907011
:1048100001F0BAF903E004F5AE7001F0B5F908B0A3
:1048200070BD38B50446FFF759F914F1010F05467C
:1048300009D0FFF74EFE241805E04C48016821F02E
:104840000401016030BFFFF749F9401BA042F4D3D7
:1048500031BD4FF0FF3000F08BBF704700214FF4A7
:10486000807001F032B8022001F051B8022001F04E
:1048700056B8012805D0022805D0102805D101F02E
:10488000F6BB01F003BC01F002BC7047F8B5384C30
:10489000324F04F580752E88B6F5807F3BD238788C
:1048A0000D2835D14FEA040159A001F06DF91EA180
:1048B000204601F0B9FC04F5827620B958A001F039
:1048C00063F92C4814E019A1204601F0ADFC28B989
:1048D00055A001F059F94FF0B05009E014A120465D
:1048E00001F0A2FC48B900BF51A001F04DF92248E7
:1048F0006860304601F0A2FC03E021464EA001F0C2
:1049000043F94FF480712046FFF778F9002601E063
:10491000A055761C2E80394601B0BDE8F040174BFB
:1049200001220020FEF760BC53573100535732007C
:10493000535733001040005850000058040C0058E2
:10494000FECAFECA900800583C0003200828004018
:104950000800005880040058FC2400205027002044
:10496000C3590008687E0008002004E010ED00E054
:104970004021002004000016010000168D480008A8
:10498000576972656C657373204669726D776172E1
:1049900065206275696C642025640A0046555320C1
:1049A00076657273696F6E2025642E25642E2564EA
:1049B0000A0000003E3E3D3D20534843495F5355A9
:1049C000425F4556545F434F44455F524541445909
:1049D0000A0D00003E3E3D3D20574952454C45538F
:1049E000535F46575F52554E4E494E47200A0000CE
:1049F0003E3E3D3D204442474D43555F476574442C
:104A0000657669636549443D20256C78200A0D0070
:104A100072656365697665642025730A000000008D
:104A2000535731204F4B0A00535732204F4B0A0047
:104A3000535733204F4B0A004E4F54205245434F9B
:104A4000474E495A454420434F4D4D414E44203A2C
:104A50002025730A00000000F8B504460025ACB11B
:104A600004F13406307910B92046FEF7CBF80F4F29
:104A7000384600F021F8386840F0011038602046D0
:104A800000F007F835600121317100E0012528466A
:104A9000F2BD10B50021064A064B00EB8104491C0B
:104AA00006296360E261F8D310BD0000000C0058D5
:104AB000FF140008C7140008002101604FF03F12E6
:104AC00042603F238360704738B5040001D1012064
:104AD00032BD94F8210028B9002184F82010204626
:104AE000FEF74DF9022084F821002068C168CA064B
:104AF00037D4CA21416253202268506200F036F850
:104B000001001AD12168DFF898008A6802408A60A3
:104B100022689368606821690343A0690B430343DB
:104B200093602068E168016120680169A26841EA38
:104B300002410161204600F059F801000BD12168C3
:104B4000CA6C92089200CA642368DD6CE1696269EC
:104B50000D431543DD64FF2122680300516204D137
:104B600000E00020012184F8211032BD20461BE026
:104B700038B504460B482168C860FEF7AFFF05460C
:104B80002068C168880608D4FEF7A8FF401B40F2E1
:104B9000E9318842F4D3032032BD002032BD000049
:104BA000BFFF8FFF5FFF010070B50446002520683E
:104BB000C1684A0618D4C16841F08001C160FEF79F
:104BC0008DFF06460AE0FEF789FF801B40F2E931BF
:104BD000884203D3042084F8210001252068C1689D
:104BE000480601D42800EED0284670BD38B50446EA
:104BF00000252068C16821F08001C16020688168BB
:104C0000880607D42046FFF7B3FF18B1042084F8C4
:104C100021000125284632BD10B500F184010A7833
:104C2000012A01D1022010BD01220A7024234B6009
:104C30000268136814686408640014600022426605
:104C400023F000530068036020224A6000230B70A9
:104C5000002010BD70B500F01FF801D1022070BD1A
:104C600000F020F822F0604209E070B500F014F87E
:104C700001D1022070BD00F015F822F060621143EE
:104C80008160204600F01CF82068066020216960E1
:104C900000222A70002070BD044604F184052878A3
:104CA000012870470120287024226A602068066865
:104CB0000268520852000260206882687047000053
:104CC00030B5416E11B90122012114E0026800BF24
:104CD0000BA49168D2F808200BA3490E01F007013C
:104CE000520FA55C645C9A5C595CED00E40095FB96
:104CF000F2F294FBF1F168304280018030BD000097
:104D00000101010307010000080402040801010178
:104D100020B501460648074D00E00838C2798A42AE
:104D200018BFA842F9D18A4218BF002020BD00BF99
:104D3000F873FF1F0070FF1F0D48002101604160E4
:104D4000704710B500F007F85C6800F009F85C6087
:104D500082F3108810BDEFF3108272B6044B7047D7
:104D600019B1012902D10443704784437047000000
:104D700058270020DFF854150A6892B200E0024676
:104D8000086880B28242FAD17047F0B5DFF840552A
:104D9000DFF840352E78182204465443B0421C44B4
:104DA00004D128786870627D2A700FE0267D607DCE
:104DB00094F815C003F115075643062807F806C0F6
:104DC00004D0267D143312FB00F29E540120207380
:104DD0002A78062A02BF00294FF0FF30E860F0BDB4
:104DE00010B5DFF8EC44E06810F1010F0ED0FFF7CA
:104DF000C1FFE16881422FBFE268E168E2888A185A
:104E00002179101AE2784843D04000E0002080B2B7
:104E100010BD2DE9F047DFF8C084DFF8C004D8F8F2
:104E2000006001684A0502D5F0684107FCD4B0680B
:104E3000DFF89C74DFF89CA420F48060B0604FF031
:104E400018093D780AF1080019FB05F14458FFF7ED
:104E5000C7FF844202D20024012105E039894118AC
:104E6000A14203D23C890021B97013E00122241A27
:104E7000BA700FE019FB05F50AF108035F59874284
:104E800026BF5959091A00210AF1080251510AEBAB
:104E900005014D7D062DEDD1DFF83474A0B238B98F
:104EA000FFF768FFF8600320BDE8F047FEF77DBE1E
:104EB000022802DAF878012800D0641EF068410761
:104EC000FCD5F06800F06CF8F06000F051F9DFF804
:104ED0000C04C16864F30F01C160FFF74BFFF86079
:104EE000D8F80000816841F480618160AFF30080F0
:104EF000BDE8F0872DE9F843EFF3108472B6DFF8D0
:104F0000D853DFF8D0332A68CA2050625321516247
:104F10009068DFF8BC1320F48060906018200E7851
:104F2000374647431F4497F80CC0BCF1020F26D107
:104F3000D7F80080D7F810908878E8B17A7B012AFA
:104F40000AD101213046FFF720FF84F310887968E9
:104F5000304600F013F904E084F31088304600F086
:104F6000C7F82868CA21416253224262314642464C
:104F7000484601F071F90EE0FFF74BFF09E0D068F9
:104F80004107FCD5D06800F00BF8D0604FF400204A
:104F9000086084F31088FF2228684262BDE8F1832C
:104FA000DFF83C1300F0800060F490607047F8B5C3
:104FB000C94CCA4D2168CA224A6253234B624FF63C
:104FC000FF7C2A6842F020022A602A68AB68AD683C
:104FD0001B0C03F07F03C5F30E055B1C6D1C6F1EDD
:104FE0001E4602F0070216FB07F6C2F10402A6F500
:104FF000A076D640B64F66452CBFA7F808C03E81C4
:10500000FA703B71FD80B74A136843F400231360C4
:10501000B54B1D6845F400251D6070BB0120B870BC
:105020004FF0FF31F9600020AA49002301F10C0480
:1050300018255FFA80FC15FB0CFC401CC6B204F876
:105040000C30062EF5DB06203870A34C20688168F2
:1050500021F480618160C16801F0800161F4906198
:10506000C16003204FF40021D160FEF7A9FD206844
:10507000816841F48041816005E0C868410544BF12
:105080000320FEF792FD2168FF20486200220321E1
:105090000320FEF742FDBDE8F2400320FEF75ABDB3
:1050A0002DE9F04104460025EFF3108672B618276B
:1050B000DFF820C20CF10C0E07FB05F81EF8080003
:1050C00010B16D1C062DF5DB062D0CD06F430CEBDB
:1050D00007000127077386F3108804614273036099
:1050E0000D70002002E086F310880120BDE8F081F9
:1050F000F8B50446EFF3108572B60320FEF735FDD0
:10510000754E7A493768CA207862532322461820A0
:105110007B6242438B5C022B21D100212046FFF7AA
:1051200034FE6B480178062914D16C4801684A05A1
:1051300002D5F8684107FCD4B86820F48060B860F4
:10514000F8684107FCD5F868FFF72AFFF86000F01F
:105150000FF804E04078884218BFFFF75AFE316824
:10516000FF2048620320FEF7F5FC85F31088F1BDAF
:105170004FF4002008600320FEF722BD2DE9F84F10
:1051800004468A4618252146524E69437718387BD3
:10519000022804BF2046FFF7ABFFEFF3108872B67A
:1051A0000320FEF7E2FCDFF83091D9F80000CA21B5
:1051B00041625322426202203873C7F808A0C7F840
:1051C00004A0DFF80CA19AF80000062808D100F02E
:1051D00075F878754FF0FF31CAF80C10002056E0D2
:1051E000FFF7FEFDB9680918B96006F10803B96850
:1051F0009AF800206A439A5891422AD39AF80020DC
:1052000004E006F1150E6A431EF8022006F11503AC
:1052100015FB02FC13F80C30062B06D006F1080C27
:105220006B435CF803309942EBD21146694306F1B7
:10523000150E1EF80130062B05D006F1140C15FBD7
:1052400003F50CF805407B753A7506F115025454C8
:105250001DE09AF800109AF800C0614515FB01F2B4
:105260000FD006F1140B06F1150C1BF8023015FBDC
:1052700003F50CF8054079753B7506F114018C5463
:1052800003E006F1140379759C5400F017F89AF8BE
:1052900000109AF801208A4202D0FFF7BAFD02E01E
:1052A000B968081AB860FF20D9F8001048620320D6
:1052B000FEF750FC88F31088BDE8F18F9AF80010D3
:1052C0008AF801108AF80040704700002828004042
:1052D0001827002074230020FC2400200828004008
:1052E0000C0800580008005880080058802300204F
:1052F0003E4900E03E4981B00A6802430A600968FD
:1053000008400090009801B07047F0B585B0FFF7F5
:10531000E3F8FFF7E3F83748016841F480310160B2
:10532000002600F0B6FF14216846FEF767FC002552
:1053300000240021304A02EBC102907988B1136841
:10534000B3F1904F0BD02D4FBB4205D02C4FBB4239
:1053500007D19088044304E09288154301E09088C7
:105360000643491C2629E5DB012101910020032287
:1053700031000290039211D000960120FFF7B8FF90
:105380000120FFF7B7FF69464FF09040FEF7B2FEED
:10539000002231464FF09040FEF76DFF280010D0FC
:1053A00000950220FFF7A4FF0220FFF7A3FF134E92
:1053B00069463046FEF79EFE002229463046FEF73B
:1053C0005AFF200010D000940420FFF791FF042022
:1053D000FFF790FF0A4D69462846FEF78BFE002234
:1053E00021462846FEF747FF05B0F0BD4C000058A7
:1053F0004C01005890080058C8820008000400487A
:105400000008004800B587B04FEA0D0009A11C2232
:10541000FBF744FF00F07BF9684600F065FB07B03E
:1054200000BDFEF72CBE13460A4601460020FDF7DC
:10543000EBBE0000000000000000000000000000C3
:10544000C8820008280003202C0003202604040042
:10545000464981B00A6802430A6009680840009022
:10546000009801B07047000078B585B0044600F0A0
:1054700078F80220FFF7ECFF3FA13D4E31F81450C1
:1054800000950121019100220221029203916946B7
:1054900056F82400FEF72EFE00F002F806B070BDAC
:1054A00056F8240000222946FEF7E5BE10B500F0AC
:1054B0000FF8BDE810400122FEF7DDBE10B500F088
:1054C00007F8BDE810400022FEF7D5BE000000003E
:1054D00029A4274B34F8101053F82000704700001F
:1054E00030B585B004460D4600F03BF8200008BFFB
:1054F000042004D0012C18BF022C02D10820FFF791
:10550000A7FF2900DFF86C201DA00ED1002130F884
:10551000140001910090012302210293039100F0F5
:105520001BF80120FFF77DF914E0012D12D130F8AE
:10553000140000904FF404130295019300F00CF84E
:1055400011A0045D00220F2160B2FEF7E6FA60B2FE
:10555000FEF700FB05B030BD694652F82400FEF7A7
:10556000C9BD14210022684600F0D0BE4C0000588E
:105570002421002030210020200001000200000032
:1055800010000100020000000A06070000F049BFF9
:105590006D486E49016001F12002426001F1300363
:1055A000836001F14002026201F14803436201F1AC
:1055B0005002C26001F15803036101F174024261BB
:1055C00001F1780383618431C16100F048BF38B5CF
:1055D00004465F4D284600F0B9FF5B494868A16862
:1055E0000160E2685B49C2604160856000F053FF82
:1055F00059482AE080B5544842681368012119725D
:10560000406800F050FF002002BD38B5524C504DAC
:1056100004E000F041F8009821688847284600F02F
:1056200098FF0028F5D031BD4B494868004738B590
:1056300004464A4D284600F089FF4349C868A168DE
:105640000160456000F034FF4548216801606268F0
:105650004260002032BD80B53B48C268136810210B
:105660001972C06800F02FFF002002BD36483C4A86
:10567000C168C36811681868084738B5384C374D99
:1056800004E000F009F8009861688847284600F0B7
:1056900060FF0028F5D031BD6946284600F082BF82
:1056A00038B504462F4D284600F050FF2E4800F034
:1056B0004DFF25480069A1688160E268C26005610C
:1056C00021680160626842602169416162698261AA
:1056D00031BD80B50146244800F04EFFBDE80240D0
:1056E0000FF2090000F0FDBE0000000038B5164CB6
:1056F0001D4D06E0FFF7D0FF00992069006900F01A
:105700003BFF284600F025FF0028F3D031BD10B53F
:10571000164C204600F01AFF0B4948690460BDE8AA
:10572000104000F0F7BE1CB5104C06E0694620465C
:1057300000F038FF009800F047FF204600F009FF16
:105740000028F3D013BD000000000320B809032097
:10575000580A03209C08032068270020600A0320C1
:1057600070270020480A032060270020500A0320E9
:105770002DE9F84F7D4CDFF8F8912569284020612C
:105780004FF0FF3AA06800904FF0010B6669E768A0
:10579000D4F8188019E062680BFA01F122EA0101DD
:1057A000616066688047606806406660E06900F096
:1057B0000CFFA06800906669E768D4F81880E1697A
:1057C000206A0BFA01F108432062009822693840F0
:1057D000104250D016EA080F4DD1002007EA02010E
:1057E00000E0401C54F830301942FAD054F8301020
:1057F00004EBC003394058680A40104208BFC3F8A0
:1058000004A0A068D4F820C059686CEA010C20EA12
:105810000C0012EA000118BF0A4608B94FF0000C4C
:105820005868C4F820C0104000F0A4F8E061EFF31D
:10583000108172B60BFA00F2A068D2431040A0604B
:10584000012004EBC003401E53F808CC02EA0C0C04
:1058500043F808CCF5D181F31088E06900F0B6FE7A
:10586000E169202903D259F82100002893D10020B2
:1058700000F0ADFEA9E7C4F81CA0A069064213D150
:1058800000F0A6FEEFF3108672B6A2686169E068C8
:10589000236902401A4202BFA0690142FEF7DDFF00
:1058A00086F3108800F095FE2561BDE8F18F38B5CC
:1058B000144600F006F82E4941F8204085F3108880
:1058C00031BDEFF3108572B654E030B5EFF31082BE
:1058D00072B6264B9C6804439C6053F831502843B1
:1058E00043F8310082F3108830BDEFF3108172B6B7
:1058F0001E4AD36823EA000005E0EFF3108172B678
:105900001A4AD3681843D06081F310887047EFF3C8
:10591000108172B6154A536918435061F4E72DE9B6
:10592000F041124DEE690446374616F1010F0EBFE5
:105930000026012000FA06F6D5F81880AC6103E0D5
:105940002146304600F046FE68692042F8D0EF61FB
:10595000EFF3108072B6696921EA04046C6180F388
:105960001088C5F81880BDE8F0810000F420002000
:1059700004240020B0FA80F0C0F11F00C0B27047CC
:105980007FB50C464E4D61684E4E28626962281DF7
:1059900000F024FE2468746006F1080000F0D6FDD3
:1059A000012000F069F801203070696841B10FF200
:1059B000ED020FF2F10300920193029468468847CA
:1059C0007FBD1FB53F4C04F1080000F0C2FDF8B9DF
:1059D0002078E8B1694604F1080000F0E3FD38489A
:1059E000016A49B10098029001228DF8042001A8B3
:1059F00088479DF8040000E00120207018B100984D
:105A0000FFF767FE04E0009904F1080000F0AAFD2A
:105A100004F1080000F09DFD28B9207818B104F1C8
:105A20000800FEF71BFF1FBD2DE9F04105460E469D
:105A300090461C46002000F01FF8224F7868A0F81E
:105A40000950C672324641460C30FBF727FC1C4A0F
:105A500001201070002152690020904748F2E800B0
:105A6000FEF704FF79688A78D21C04F10800FBF77E
:105A700015FCBDE8F041012010B51149124C496AEE
:105A800020B901B188470021217010BD012020708C
:105A900011B1BDE81040084710BD00000020FEF71E
:105AA000E2BE000010B50146064C04F1080000F00B
:105AB00063FD04F10800BDE81040FEF7CFBE000012
:105AC0009C2600203827002090270020FFF7ACFFFD
:105AD0009DF80E0005B000BDF8B500F10C026B4654
