:020000040800F2
:100000000810002009810008997E00089B7E0008E6
:100010009D7E00089F7E0008A17E00080000000071
:10002000000000000000000000000000A37E0008A7
:10003000A57E000800000000A77E0008A97E000839
:100040002B8100082F81000833810008AD7E000855
:10005000378100083B810008EB7E0008F17E000834
:100060003F81000843810008E57E000847810008C1
:100070004B8100084F810008B17E000853810008C1
:10008000578100085B8100085F81000863810008D8
:10009000678100086B8100086F8100087381000888
:1000A000778100087B8100087F8100088381000838
:1000B000878100088B8100088F81000893810008E8
:1000C000978100089B8100089F810008A381000898
:1000D000B77E0008BD7E0008A7810008AB8100083C
:1000E000AF810008B3810008B7810008BB81000818
:1000F000C37E0008C77E0008CB7E0008BF810008D1
:10010000C3810008C7810008CB810008CF810008A7
:10011000D3810008D7810008DB810008DF81000857
:10012000E3810008E7810008CF7E0008EB8100082A
:10013000EF810008F3810008F78100082DE9F84FEE
:100140000FF2D017A2B0D7E90045CDE900452C9EAB
:10015000DFF82C7C04918DF8436000210FF2BC1471
:100160000D9112944FF0FF368246904699460FE06B
:10017000C3462C461BF8011B0498D0470028049066
:1001800000F0B2800D98401C641E0D90F2D1A8447E
:1001900098F80000252807D10021079108910991BE
:1001A0000A910B910C910DE06A463146404600F0F1
:1001B000CFFF050001D10D98B4E0D9D50125E6E7C0
:1001C00041F0010118F8010F2028F9D023280CD0A4
:1001D0002B2804D02D2805D0302809D086E041F006
:1001E0000201EFE741F00401ECE741F00801E9E723
:1001F00041F01001E6E700200F900AE00F98B842A6
:1002000005DA00EB800302EB4302303A0F9208F16B
:10021000010898F80020A2F130000A28EED398F8DF
:1002200000002E2818BF0E9629D118F8010F2A2891
:100230000BD1D9F80000C9F8000008F1010850F806
:10024000042BC9F800000E9219E02D280CBF18F8F5
:10025000010B002000220E920BE040B90E9ABA4228
:1002600005DA02EB820403EB4403303B0E9308F102
:10027000010898F80030A3F130020A2AEDD3ADF856
:100280004010129898F8001000F06EFF08B118F8AE
:10029000010B8DF842009DF84200682804BF98F8D1
:1002A0000010682903D162208DF8420008E06C2814
:1002B00004BF98F800006C2804D171218DF8421019
:1002C00008F1010813A806904A4618F8013B02A954
:1002D000504600F067F838B913AA02A9504600F05A
:1002E000C9F900287FF554AF30461BE02A2882D197
:1002F000D9F80020C9F8002052F8040BC9F80020F2
:1003000000280F9003D540420F9041F0040108F1FE
:10031000010884E70000000000000000686A6C74B7
:100320007A4C000023B0BDE8F08F622820D0682806
:1003300011D06A2803D06C2827D0712825D10868ED
:10034000C01D20F007000860D0E9002308300860D5
:10035000194610467047002A0A680A60106803D0E0
:10036000121D0A6000B217E0121D0A6080B217E089
:10037000002A0A680A60106803D0121D0A6040B2A1
:100380000AE0121D0A60C0B20AE0002A0A680A6088
:10039000106803D0121D0A60C1177047121D0A6051
:1003A000002170477CB50D4611461C462E69B4F1FC
:1003B000250200F04D811C3A00F08680121F022AAF
:1003C00040F282800E3A00F00781521F5AD0093A5B
:1003D0007AD0921E16D0521E35D0521E022A73D9E0
:1003E000121F30D0521F00F09A80521E4AD0521E67
:1003F00000F0E480D21E00F0FD80921E42D0D21E9A
:1004000040D02BE195F83A206C2A09D06869421C4B
:100410006A610A680A6052F8043B0A60335427E1B3
:100420000A680A6052F8043B0A60002100930191B7
:100430004FF0FF322A6329466A4600F096F90028F9
:1004400040F1168101E195F83A000122FFF76DFFB6
:10045000C5E900010023994204DA6869411C696119
:100460002D210DE0288F810704D56869411C696141
:100470002B2105E0C00722D56869411C6961202154
:1004800031541CE095F83A000022FFF74EFFC5E911
:10049000000195F83800010711D5D5E900230020A7
:1004A000834208BF82420AD044F02000782806D157
:1004B000686930213154401C411C69613454214623
:1004C00068693044E86083E00868C01D20F00700D8
:1004D0000860D0E9002308300860C5E90023D5E9A9
:1004E0000001C80F04D06869411C69612D210DE02D
:1004F000288F810704D56869411C69612B2105E0BB
:10050000C00704D56869411C6961202131546869BC
:100510003044E8602146284600F032FAA8E005F1B0
:100520003A02507820B14FF0FF340FF6243070E0DB
:100530001078622808D0682824D06A2812D06C2845
:100540002ED071280ED02BE00A680A6052F8040BF6
:100550000A6020B94FF0FF340FF60C3059E0E96A19
:10056000017085E00A680A6052F8040B0A6020B93D
:100570004FF0FF340FF6F0204BE0EA6AD317C0E9E2
:10058000002375E00A680A6052F8040B0A6020B97B
:100590004FF0FF340FF6D0203BE0E96A018067E0BE
:1005A0000A680A6052F8040B0A6020B94FF0FF3461
:1005B0000FF6B4202DE0E96A016059E00A680A608C
:1005C00052F8040B0A600021C5E90001EE607821B1
:1005D000284600F029F94BE06C2285F83A200B6898
:1005E0000B6053F8042B0B6052BB4FF0FF340FF637
:1005F000AC200EE095F83A206C2AF0D0086808602C
:1006000050F8044B0860EC603CB94FF0FF340FF633
:10061000702000F0B5FD201A76BD2E6B002E04D59B
:10062000204600F0CFFD044608E032460021204677
:1006300000F0E4FD002814BF041B3446AC6117E051
:10064000294600F092F8002812D54FF0FF3076BD11
:100650006869411C69612521315409E06969481CB8
:10066000686125227254210002D0411C6961345412
:10067000002076BD2DE9F0410E460546716B70698C
:10068000B46A091A306A091AB069091A706A091A33
:10069000F069091A96F838000C1B410790460DD4F2
:1006A000002C0BDD2746B0682021A8470028B06049
:1006B00057D0F06A401C7F1EF062F4D17369424645
:1006C0003146284600F0ACFC00284AD1376A002F9A
:1006D0000ADDB0683021A8470028B06041D0F06A38
:1006E000401C7F1EF062F4D1B369F268314628469F
:1006F00000F096FCA8BB776A002F09DDB0683021B6
:10070000A847B06068B3F06A401C7F1EF062F5D164
:10071000F068B169F36942183146284600F080FC60
:10072000F8B9B76A002F09DDB0683021A847B0607A
:10073000B8B1F06A401C7F1EF062F5D196F838001F
:1007400041070BD5002C09DDB0682021A847B06017
:1007500038B1F06A401C641EF062F5D10020BDE89B
:10076000F0814FF0FF30BDE8F0812DE9F8470D46EC
:10077000A3B02F6B002F8146904648BF6FF0004713
:1007800000F068FD696B40180FF62C118128D1E943
:100790000023CDE9012328BF4FF0FF303ED20024D3
:1007A000002F2FDDD8F8001001AA684600F0D2FC17
:1007B0000646002E35D4D8F8000008B9761E30D48D
:1007C000B7421FDB6869301881280AD300206863AC
:1007D00003AA29464846FFF74DFF040012D4002023
:1007E000686103A8D5F814A032466946504400F069
:1007F00037FDB244C5F814A058F8040B002818BF00
:10080000BF1BCDD12CB903AA29464846FFF732FFBA
:10081000044614B9002068616863204624B0BDE82E
:10082000F0874FF0FF34F8E72DE9FC4707468A468A
:100830003E69BAF16F0F08BF082405D04AF02001C5
:10084000782914BF0A2410243C25D7E90023BAF1E3
:10085000640F18BFBAF1690F9046994606D100217E
:100860008B4203DAD8F1000869EB49090020814581
:1008700008BF80451FD1386BE8B9082C4CD197F8D8
:100880003800010748D530203B2586F83B0043E07F
:1008900000280ED597F8380000F01400102808D171
:1008A0007A6B7869121A386A121A511A0029C8BF6D
:1008B0003962BDE8F3878DF800A0404649462246DC
:1008C000E31700F021FD3032D0B26D1E3A280195B9
:1008D00004DB9DF80000A0F151018A1872554046D2
:1008E00049462246E31700F00FFD80468946002066
:1008F000814508BF804503D0F86871198842DCD370
:10090000082C09D197F83800010705D5715D302909
:1009100002D06D1E30207055C5F13C01B9617019CF
:10092000F860386B8142B3DA411A39624FF6EF70E2
:10093000398F01403987BDE8F3872DE9D04306465A
:100940000F4614464FF00008DFF8389412E0E00735
:1009500007D542464B463046394600F0EDFD064687
:100960000F464046494642464B4600F0E5FD6410BE
:1009700080468946002CEAD130463946BDE8D0830E
:100980002DE9F34F054641F020048DB0D5E90089EB
:10099000612C02AE09D0286B002848BF062003D482
:1009A00008BF672C01D101202863D5E90023580036
:1009B0004015401C0ED119030CD00320A8619DF8EE
:1009C000380061381A2802D20FF2F46111E00FF2F8
:1009D000F4610EE058004015401C0FD119030DD1F1
:1009E0000320A8619DF8380061381A2814D30FF24B
:1009F000DC61E868032200F033FCD3E1194621F002
:100A00000043B3F5801F10460DD20027BB4208BF3C
:100A1000BA42019703D111E00FF2AC61E9E701AAF4
:100A200000F05CFE0AE0DFF8607307EB1352DFF8BA
:100A30005C3301921940DFF858331943C5E90001CE
:100A4000612C0ED1E86830210170811CE9609DF8AD
:100A5000381061290CBF7821582141706869801CC9
:100A60006861D5E900AB2BF0004300202AF00002BA
:100A7000834204BF8242002300F05A81612C40F07F
:100A8000A980286B00284CBF2120401C00904046C4
:100A9000009F7F1C49460022002300F057FED946E4
:100AA00001988DF8082038BF89F00049001F019097
:100AB000002FD0460DF1090040F3498140F2FF714B
:100AC000DFF8D0B20C91064640464946002200238A
:100AD00000F054FE80F03A814800400D00F11C0205
:100AE00010D0002A0EDD0C98824205DB09F0004090
:100AF00040EA0B01002013E0A448084040EA0251FC
:100B000040460DE029F00043002028F00002834217
:100B100008BF82420FBF40461C22404600F046FEFE
:100B20008046894600F0E0FEFF1F002F044609DDE5
:100B300000F0F8FE02460B464046494600F004FF2E
:100B400080468946F01D072104E004F00F0200F8FA
:100B5000012D2411002C01DD491EF6D5491E5CBF74
:100B6000002200F8012DF9D5ECE00020194602AA78
:100B70000A4400E05B1E12F80149491E8442F9D084
:100B80000F2804D10DF10900425C521C4254002987
:100B900004D50198001D02AE5B1C0190591E12D4B1
:100BA0009DF838007218147804F130085FFA88F460
:100BB000392CC4BFA0F13A04A044491E02F80189AF
:100BC000F1D58DF83800286B002840F1B080591E0F
:100BD0002963ACE0404649460022002300F0B6FD00
:100BE000019938BF89F0004947F2975041436A4A5A
:100BF00091FBF2F20192D2F1070204DD4046494630
:100C0000FFF79BFE0AE0524200206449FFF795FE81
:100C100002460B464046494600F008FF8046662CD7
:100C2000286BDFF87CB106BF019F0A3706273F1803
:100C3000142FC8BF142730208DF8080089460DF105
:100C4000090000E03046002F34DD064640464946A4
:100C500001F010F801460A4606F1080304200A26AE
:100C6000B2FBF6F606EB860EA2EB4E02303203F82C
:100C7000012C0A22B6FBF2F202EB820EA6EB4E0624
:100C80003036401E03F8026DE9D1083F002F03F112
:100C90000806D7DD084601F001F802460B4640463B
:100CA000494600F051FE00225B4600F045FC8046BC
:100CB0008946CBE70DF10901401A0DF1090604E060
:100CC0000199491E401E0191761C31783029F7D0D8
:100CD000662C02D10199491C03E0652C0CBF01214F
:100CE00000212B6BCB189842B8BF431E002B1ED49B
:100CF000834204DAF05C3528A8BF392000DA3020BE
:100D00001946721E02EB010800E05B1E18F80199FB
:100D1000491E8145F9D0392802D1705C401C7054BD
:100D2000002904D50198401C16465B1C01900198CF
:100D300000B200901BB29DF838103246284600F0F1
:100D400034F82FE0C61D002F3FF7BEAE30460DF140
:100D50000901401A009903468842C8BF0B46002B80
:100D60000DF109063FF52FAF8342BFF6FEAE0DF140
:100D70000900C05C07287FF7F8AE0F20F6E60000F8
:100D8000CBCCCC0C0000244002FCFFFFFFFF0F8007
:100D90000000E03F0000F07FA08601000000F03F6F
:100DA00084D797410FB0BDE8F08F2DE9F84783B0A5
:100DB00006468A461746984600F0CEF9B8F1000F6D
:100DC000406A356B90F8009003DC4FF001080FF299
:100DD0000037BDF930404AF02000662808BF641C87
:100DE00015D0672840F0848014F1040FC0F286808B
:100DF000AC4280F2838096F83800641C010702D46C
:100E0000A845B8BF454620B22D1A48BF00250FFAA5
:100E100084FAF068B169BAF1000F25DC4A1C30236E
:100E20004354002D03DC96F83800010703D5F06821
:100E300000F80290521C15EB0A0FB8BF6C4220B2AA
:100E4000441941424445B8BFA046B26171620FFAED
:100E500088F5F561F068B3692A463946184400F010
:100E6000FFF9641BB462C4E022B29045084417DA6B
:100E70004246394600F0F4F9B0694044B061AAEB4B
:100E80000801002D716203DC96F838100A0705D5B9
:100E9000F16801F80090F069401CF061B562A8E0CB
:100EA000394600F0DDF9B069002D5044A8EB040884
:100EB00003DC96F838100A0703D5F16801F80090B2
:100EC000401CB0610FFA88F08542F068B369B8BF82
:100ED000A8460FFA88F207EB0A01184400F0C0F99F
:100EE000B0690FFA88F10844B061681A706280E056
:100EF000BAF1610F14D14FF0700A16E0A84504DA78
:100F000096F838100A0758BF45466D1E48BF0025A1
:100F1000BAF1670F14BF4FF0450A4FF0650A04E0BD
:100F2000BAF1410F08BF4FF0500AB169F368481C8D
:100F3000B061002D17F8012B5A5403DC96F83810D5
:100F40000A071BD5F168431CB36101F80090002D1E
:100F500014DDA8F101080FFA88F08542F068B8BFE7
:100F6000A8460FFA88F23946184400F079F9B069BA
:100F70000FFA88F108446D1AB0617562F068B169C2
:100F80000844002C80F800A003D42B214170811C60
:100F900003E02D2141706442811C00206A460AE072
:100FA00023460A2493FBF4F404EB8405A3EB4503E6
:100FB00002F8013B401C24B2002CF1DC012806DCC5
:100FC0004AF02002652A04BF302201F8012B48B9FB
:100FD000302001F8010B07E0401E1DF800203032E0
:100FE00001F8012B0028F7DCF068B2691044091AF7
:100FF000F16196F8380000F0140010280DD17169E5
:10100000B0694118706A4118F0694118B06A411816
:10101000706B8142BCBF411A316204B0BDE8F087F9
:10102000F8B505460E4617461C46002074B117F861
:10103000011BB068A847B06030B1F06A401CF06294
:101040000020641EF3D1F2BD4FF0FF30F2BD00006E
:101050007072696E74665F733A20256E20646973DE
:10106000616C6C6F776564007072696E74663A20AB
:1010700062616420256E20617267756D656E740013
:101080007072696E74665F733A20626164202573C2
:1010900020617267756D656E740000007072696E14
:1010A00074665F733A2062616420256C73206172FC
:1010B00067756D656E7400000000000000000000A0
:1010C0006E616E004E414E00696E6600494E4600EC
:1010D0003000B1F5807F02D34FF0FF3070470170D0
:1010E000012070470078401E8041C043C00F704708
:1010F0001B48704730B45368D418042B09DA41B147
:10110000057804F8015B10F8015B15B15B1C491E02
:10111000F3E7536030BC704738B514461D4661B1E3
:10112000FFF7E8FF61686A6B204690476FF00102A5
:10113000811A02D0491E03D005E06FF0010032BDD4
:101140004FF0FF3032BD0021616032BDDA6B1047D5
:10115000034BE1E7024BF9E702487047000000004B
:101160002C2400204C2500200278C9B28A421AB1F2
:101170001CBF10F8012FF9E718BF00207047704717
:1011800080B508B90FF21C0005490B681BB122227B
:101190000021984701E000F08EFD222002BD0000F2
:1011A000FC2B0020636F6E73747261696E7420682B
:1011B000616E646C65723A20626164206D65737360
:1011C0006167650000F10103810704D010F8011B7D
:1011D00089B18107FAD10268B2F10131914311F06E
:1011E000803F04BF50F8042FF6E710F8011B11B13F
:1011F00010F8011BFBE7C01A70477047C9B283079C
:1012000006D0521E22D310F8013B9942F7D11FE0BD
:10121000083A13D302F1040241EA012141EA0141F3
:1012200050F8043B121F21BF4B40A3F1013C2CEAB4
:10123000030C1CF0803FF3D0C9B2001F083210F835
:10124000013B521E28BF91EA030FF8D818BF0120B6
:10125000401E704780B5FFF74BFF006C02BD0000D9
:1012600062B38B0708D0521E11F8013B00F8013B16
:1012700000F024808B07F6D1830740F0208000BF68
:10128000103A07D330B4B1E83810103AA0E838105B
:10129000F9D230BC530724BFB1E80810A0E8081009
:1012A00044BF51F8043B40F8043BD20724BF31F857
:1012B000022B20F8022B44BF0B7803707047121FDB
:1012C00017D35B0009D151F8043B20F8023B1B0CFB
:1012D000121F20F8023BF6D20BE051F8043B00F855
:1012E000013B1B0A20F8023B1B0C121F00F8013BBC
:1012F000F3D238BF121D521E24BF11F8013B00F873
:10130000013BF8D870470000B3BBD9B1B2F5803FBC
:101310007DD2022A1ED98C46B1FBF2F102FB11C329
:101320001B0443EA1043B3FBF2FC02FB1C3380B204
:1013300040EA0343B3FBF2F002FB103240EA0C40F8
:1013400000237047022A05D98446B0FBF2F002FB65
:1013500010C270474AB105D100F0010249085FEAA6
:101360003000704700220023704700F0A7BC0B003C
:101370000200002100207047904271EB030CF6D36D
:10138000B3F5803F2FD2F0B5B3FA83F7B1FA81F409
:10139000A7F10F0E3D1B5340CEF1200602FA0EF2CC
:1013A000F3415340B5F10F0746D80F3C2C44414060
:1013B000C4F12006A040F1414140B1FBF3F603FB2C
:1013C0001611A2FB0645001BA94102D2761E801809
:1013D000594180EA010221FA0EF362FA0EF200216D
:1013E0005A403046F0BD30B4B1FBF3FC03FB1C1196
:1013F000A2FB0C45001BA94103D2ACF1010C8018E3
:10140000594130BC02460B46604600217047B2F19C
:10141000807F65D3F0B5B2FA82F7B1FA81F4C7F1F3
:101420000F063D1B22FA06F307F1110EF24120359B
:101430005A40B5F10F07B8D94140C4F12006A04089
:10144000F1414140B1FBF3FC03FB1C11A2FB0C4535
:10145000001BA94103D2BCF1010C801859410F2F88
:1014600012D30F3FC90341EA5041B1FBF3F603FB2E
:101470001611A2FB0645D4EBC030A94102D2761E5C
:101480008018594146EACC3C07B34140C7F12006D9
:10149000B840F1414140B1FBF3F603FB1611A2FB4A
:1014A0000645001BA94102D2761E8018594180EAE8
:1014B000010221FA0EF3C7F1200462FA0EF20CFACF
:1014C00007F05A402CFA04F13043F0BD80EA0102E3
:1014D00021FA0EF3002162FA0EF260465A40F0BD86
:1014E0008C46B1FBF2F102FB11C31B0243EA10630D
:1014F000B3FBF2FC02FB1C331B024CEA002043EA64
:101500001063B3FBF2FC02FB1C331B024CEA00200D
:1015100043EA1063B3FBF2FC02FB1C331B024CEAF0
:10152000002043EA1063B3FBF2FC02FB1C324CEADE
:101530000020002370470000B0B581EA030C0CF0D6
:10154000004C40F2FF7515EA11541DBF15EA135700
:10155000AC42AF4239E0E41923EA455343F4801327
:10156000C90241F0004141EA505EC7021100A7FBE9
:10157000020200284FF00000EEFB01204FF00001B6
:10158000E3FB072118BF42F0010240180021494146
:10159000E3FB0E01A4F580640F0302D25200404128
:1015A000494154F101046CDD470872F1004250F1E9
:1015B000000051EB0451A1F580115CBF41EA0C0120
:1015C000B0BD4CEA05510020B0BD05EA1357AC424E
:1015D00014BFAF4241E050EA410E1CBF52EA430E35
:1015E00002E061460020B0BD24423C441BD15FEACA
:1015F000070EF6D0090302BF01460020AEF1140E1B
:10160000B1FA81F7AEEB070401FA07FE0C37C7F118
:10161000200100FA07F7C8404EEA000E23EA4553BE
:1016200043F48013A2E733F00043B3FA83F704BF17
:10163000B2FA82FE77440B3FE41BB7F1200E2FBFB6
:1016400002FA0EF3BB40C7F1200E22FA0EFE38BF9D
:1016500043EA0E03BA40641C82E750EA410E14BF0D
:1016600052EA430E6FF000014FF4001717EB430FDF
:101670008ABF194617EB410FB5E74CEA0551002028
:10168000B0BDD4F10104B4F120070FDAC4F1200792
:10169000520828BF42F0010210FA07F501FA07F7D5
:1016A000E1BF2A43E0403843E1400FE0352C98DCAD
:1016B000C7F1200452EA400220FA07F218BF42F0B4
:1016C000010231FA07F0A1400A43002172F1004201
:1016D00050F1000051EB0C01B0BD000010B51446F4
:1016E00000F002F8226010BDC1F30A5343B14A0072
:1016F00012F5001F28D2A3F2FE32A1EB025170476F
:1017000050EA410C20D001F0004C31EA0C01B1FA52
:1017100081F204BFB0FA80F3D2180B3AB2F1200381
:101720002CBF00FA03F1914041EA0C013EBFC2F127
:10173000200C20FA0CF319439040524240F2FD3342
:10174000D21A01EB03517047002270474FF4001C7E
:101750001CEB410F94BF1CEB430F09E041EA030C63
:1017600050EA4C0C52EA0C0C03D2994208BF90424A
:10177000704714BF8B428242704700004FF4001C38
:101780001CEB410F94BF1CEB430F09E041EA030C33
:1017900050EA4C0C52EA0C0C03D28B4208BF824236
:1017A000704714BF9942904270470000124254D4CF
:1017B00040F2FF7C1CEA11530FD0634531D09B18D7
:1017C00063453CBF01EB0251704701F0004141EA23
:1017D0000C510020AFF30080704750EA410320D045
:1017E00001F0004C91EA0C011CD0B1FA81F30B3BE3
:1017F0009A420DD9D21A994051EA0C01C3F1200C3A
:1018000020FA0CFC61449840531C40F2FF7CD7E75F
:10181000914041EA0C01C2F1200C20FA0CF319436B
:1018200090407047B0FA80F31533202BE0D3202A84
:10183000EED3203A203B9A4209D9D21A00FA03F19A
:1018400041EA0C010020531C40F2FF7CB8E700FA8B
:1018500002F141EA0C0100207047524240F2FF7C45
:101860001CEA11530DD06345DBD0B2EB030C3CBF37
:10187000A1EB025170470CF1010221EA035141F43E
:10188000801150EA410CCCD001F0004C352A27DC05
:1018900030B481EA0C01B2F1200309DAC2F120036D
:1018A000044601FA03F5D0402843D1409C400CE0A7
:1018B000C3F12002450020FA03F418BF44F00104EC
:1018C00021FA03F091400C43002174F1004550F1DE
:1018D000000051EB0C01244230BC7FF47BAF704719
:1018E0006146002076E70000C1F30A5340F2FE3261
:1018F0009B1A14DDD3F120034FEAE17208DDC9021F
:1019000041EA505141F00040D840801850407047A3
:1019100003F2E13010B1D24382F000407047002062
:1019200070470000C11768B14840401AB0FA80F211
:101930009040D21CC907C2F5846241EA025202EB10
:10194000D02140057047000070B44FF0004591EA87
:10195000030F40F1B5816B40841A71EB030603D28B
:10196000001BB141121973414FF4001C1CEB410FD5
:1019700034BF7CEB430442E00C0DA4EB1356352E30
:101980004FDC45EAC323DB0A45EAC121C912B6F19F
:1019900020050DDD63FA05F6EB4086EA03051242E9
:1019A00018BF45F00105C01851F100010CD213E039
:1019B00062FA06F5F2405540F3415A40B340F34015
:1019C0005A408018594107D349085FEA30005FEA5E
:1019D000350528BF45F0010501F58011420875F174
:1019E000004250F1000041EB04514E0016F5001F7B
:1019F00070BC38BF70470020090D090570471CEB0B
:101A0000410F10D252EA43060BD0BCEB410F05D870
:101A10000C0DAB43661E342EB6DD02E0AB438018DE
:101A2000594170BC704770BC70470000F0B540F27F
:101A3000FF7581EA030C0CF0004C15EA11541DBF30
:101A400015EA1357AC42AF42E5E0BC41C1F31301C4
:101A5000C3F31303801A994143F4801304D2641E24
:101A60004000494180185941C90241EA5051B1FB37
:101A7000F3F603FB1611A2FB0675D7EBC020A941B4
:101A800002D2761E80185941C90241EA5051B1FB79
:101A9000F3FE03FB1E11A2FB0E75D7EBC020A9417C
:101AA00003D2AEF1010E80185941890241EA9051EA
:101AB000760546EA8E2EB1FBF3F603FB1611A2FB68
:101AC0000675D7EB8020A94102D2761E80185941B5
:101AD000C90241EA50514EEA060EB1FBF3F603FB90
:101AE0001611A2FB0675D7EBC020A94102D2761EC3
:101AF00080185941C90241EA5051B1FBF3F703FB89
:101B00001711A2FB0735D3EBC020A94167F10007ED
:101B10000CBF004247F0010766F3D5274FEA1E319C
:101B2000B80814F5806412DDBD0775F1004250EB72
:101B30000E5051EB045111F5801F5CBF41EA0C01BE
:101B4000F0BD4CF07F6141F0E0410020F0BDBD07E9
:101B50006D0840EA0E5041F48011D4F10104B4F153
:101B600020060ADAC4F120060200E04001FA06F37A
:101B7000E1401843B24015430EE0342C13DCC6F1AB
:101B8000200445EA40056D0820FA06F2154321FAC3
:101B900006F0A1400D43002175F1004250F1000014
:101BA00051EB0C01F0BD00205FEA0C01F0BDCFB994
:101BB00092185B41B3FA83F704BFB2FA82F6BF19F9
:101BC0000B3FB7F120062FBF02FA06F3BB40C7F167
:101BD000200622FA06F638BF3343BA401CB1E41996
:101BE000641E33E77F4231F00041B1FA81F404BF53
:101BF000B0FA80F6A4190B3CB4F120062FBF00FA0E
:101C000006F1A140C4F1200620FA06F638BF3143A0
:101C1000A0403C1B1AE7AC421ABF05EA1357AF427B
:101C200012E050EA41061CBF52EA4306BFE750EA01
:101C30004107304661461CBF41EA0551F0BD52EAFA
:101C4000430C08BFC143F0BD00204FF4001616EB53
:101C5000410F98BF16EB430F08BF16EB410F24BF8F
:101C6000C14305E016EB430F0CBF61464CEA05513A
:101C7000F0BD0000400D491840EA81200CD2490D0A
:101C8000A1F58061491C40F0004005DBD1F11F0146
:101C900054BFC840C017704700207047014648B184
:101CA000B0FA80F18840C91CC1F58461090501EBD7
:101CB000D02140057047012000F0B6B87047000001
:101CC000841A71EB030604D26E40001BB141121955
:101CD00073414FF4001C1CEB410F34BF7CEB4306F7
:101CE00082E00C0DA4EB1356362E7BDC012E45EA68
:101CF000C32341DC43EA525312BFD20292025B0873
:101D0000240545EAC12141EA5051D2EBC020994156
:101D100025D407D1B0FA80F610FA06F162D000207F
:101D2000203608E0B1FA81F6B140C6F1200220FA6F
:101D300002F21143B0404FEAF474B4EB465434F06D
:101D400001064FEA74040AD8D6F50016760D04F0A1
:101D50000044F04061FA06F25040F1404840C00AA9
:101D600040EA415021F0004128BF5FEA500550F1A0
:101D7000000044EBD12135E0DB0A45EAC121C90A64
:101D8000B6F120050EDD42EA0242120CC5F1200632
:101D900003FA06F6EB4042EA06056D42984161F10E
:101DA00000010DE062FA06F5F240554063FA06FCC8
:101DB00082EA0C02F3405A406D42904161EB03010C
:101DC00011F4801F05D1641E620502D06D004041F0
:101DD000494121F48011430875F1004350F100009E
:101DE00041EB045170BC70471CEB410F15D223F03E
:101DF000004352EA43060BD04FEA4C0CBCEB410FB8
:101E000004D80C0D661E342EB7DDEBE7801A99411D
:101E100050EA410608BF0021E4E708BF1CEB430F6E
:101E200028BF6FF00001DDE780B5AFF30080024A04
:101E300011001820ABBEFBE72600020038B50400F5
:101E400009D004F18005686808B900F01EF800F0B8
:101E500021F8012801D1012032BDA06A08B100F0AB
:101E60002AF800F00AF821F02A01FFE7816000F06B
:101E70001BF8BDE8324000F03EBB2068416821F409
:101E80009041416020688168704700212970204698
:101E900000F0AEBC24206860206801684908490051
:101EA0000160204600F0BCB92068016841F00101E2
:101EB000016020467047204600F0BABA70B504466B
:101EC00004F180051346686820283DD169B31800E5
:101ED0002BD02878012837D001222A7004F154062B
:101EE0002165338073800020E86021206860706A7B
:101EF000E8B1DFF82013C162DFF81C03716A0863E0
:101F0000716ADFF8180348630020716A88632068EB
:101F1000216D00F12802706A00F0C1FD38B1102077
:101F2000E8600020287020206860012070BD2168D2
:101F3000402008620020287000F008F841F080017D
:101F400000F061FBF8D170BD022070BD206800F187
:101F5000080151E8001F00F108027047216851E8AC
:101F6000002F7047206800F1080151E8001F00F1C0
:101F7000080221F0400142E8001000287047F8B53F
:101F8000044640F60F002668F1693268B3680840DD
:101F900004F15C050ED1880602D5900602D4D80063
:101FA00040F181806969002900F029812046BDE85F
:101FB000F4400847DFF8E006034204BFDFF8DC76B0
:101FC0003A4270D0CF0707D5D70505D5012737622C
:101FD0002E6B46F001062E638E0708D5DE0706D568
:101FE000276802263E622E6B46F004062E634E07DB
:101FF00008D5DE0706D5276804263E622E6B46F01C
:1020000002062E630E070AD5960601D4034206D0B7
:10201000266808203062286B40F008002863080515
:1020200009D5500107D526684FF400603062286B4F
:1020300040F020002863286B002833D0890607D59C
:10204000900601D4D80003D5696909B120468847B4
:10205000286B21688A68510602D410F0280F1CD022
:10206000204600F0EFFA00F0D1F811D5FFF77AFF23
:10207000FCD1286A60B10FF2B1618163286A00F077
:1020800087FD00280ED0286A816BBDE8F440084720
:102090002046BDE8F24000F06DBE204600F06AFE2A
:1020A00000202863F1BD286901286AD1CF0668D5D0
:1020B000D00666D51020306200F0A8F82DD5296A28
:1020C0000868406880B20028ECD02A889042E9DA9B
:1020D0006880086801688A061BD4FFF73FFF22F476
:1020E000807200F08FF8F8D1206800F07DFAFBD103
:1020F000FFF738FFFCD12020E86200202861FFF7BD
:102100002DFF22F0100200F07DF8F8D1286A00F0CF
:1021100009FD29886888091A2DE028886988411AEC
:10212000688800281CBF88B2002868D0226852E85E
:10213000003F23F4907342E800300028F6D1206875
:1021400000F1080200F1080352E8002FDFF8C40292
:10215000024043E800200028F1D12020E86200205E
:1021600028616861226852E8003F23F0100342E8CA
:1021700000300028F6D12046BDE8F44089B200F0D6
:10218000FABDC80209D5580207D54FF48010306255
:102190002046BDE8F24000F069BE080609D51006E9
:1021A00001D4180205D5A96949B32046BDE8F44019
:1021B0000847480611D550060FD5FFF7CFFE22F08D
:1021C000400200F01FF8F8D12020A8620020A8618A
:1021D0002046BDE8F24000F062BE080206D550007D
:1021E00004D52046BDE8F24000F06ABEC80148BFF1
:1021F000002A04D52046BDE8F24000F062BEF1BDE1
:1022000022F4F07241E800200028704720688168BD
:1022100048067047A5260008D7260008DD260008D6
:10222000F8B50446DFF838052168DFF838C50A68D4
:10223000DFF834750240A0680243206902436069F8
:102240000243E06902430A6000254A68E06822F41C
:10225000405202434A60A369DFF8102591421CBF37
:10226000206A03438E68DFF80805064033438B601D
:102270000FF2A416CB6A606A1B0940EA0313CB6213
:102280006145DFF8F0044FF4004339D13F6807F0AF
:102290000307032F4DD8DFE807F0024643494FF00C
:1022A000010CE169B1F5004F4FF6F07740F0808006
:1022B000BCF1010F09D0BCF1020F0AD0BCF1040F30
:1022C00071D0BCF1080F71D099E001F0E8F9002855
:1022D00015D0626A616836F81230B0FBF3F04A0834
:1022E00002EB4002B2FBF1F080B2A0F11001B94262
:1022F000EAD20740C0F3420007432068C7607FE08E
:10230000914216D13F6817F4406723D0B7F5806F2C
:1023100009D0B7F5006F03D0B7F5406F06D008E0DD
:102320004FF0020C07E04FF0040C04E04FF0080CF3
:1023300001E04FF0100C9142B3D1BCF1000F09D075
:10234000BCF1020F0AD0BCF1040F15D0BCF1080F8C
:1023500015D054E001F09BF9002851D0616A36F89D
:102360001120B0FBF2F6626802EB42018E4246D3C6
:102370001103B14205D242E001F03FF9ECE7184603
:10238000ECE75008002110EB062051EB166100230A
:10239000FEF7BAFFA0F54071DFF8DC2391422ED2A0
:1023A0002268D0602CE001F028F990E7184690E709
:1023B000BCF1010F09D0BCF1020F09D0BCF1040F30
:1023C00018D0BCF1080F18D019E001F068F9B8B1C5
:1023D000626A36F812306168B0FBF3F000EB51002E
:1023E000B0FBF1F080B2A0F11001B94207D2216830
:1023F000C86005E001F001F9E9E71846E8E70125C2
:1024000004F1680001214180018000218160C160E8
:102410002846F2BDFEFFFFEF0100020004000600A7
:1024200008000A000C00100020004000800000019D
:1024300090F82810CA0706D502685368C16A23F4C9
:1024400000330B43536090F828108A0706D50268C2
:102450005368016B23F480330B43536090F82810CA
:102460004A0706D502685368416B23F480230B4367
:10247000536090F828100A0706D502685368816BEC
:1024800023F400430B43536090F82810CA0606D586
:1024900002689368C16B23F480530B43936090F8F8
:1024A00028108A0606D502689368016C23F400534D
:1024B0000B43936090F828104A0610D502685368C1
:1024C000416C23F480130B435360416CB1F5801FC2
:1024D00005D15368816C23F4C0030B43536090F81B
:1024E00028100A0606D501684A68C06C22F400224A
:1024F00002434A607047F8B5044604F180050020A5
:10250000E8606FF07E4701F05BF9064620680168DD
:102510000A0708D50097334600224FF400112046E1
:1025200000F017F860B9206801684A070AD50097DB
:10253000334600224FF48001204600F00AF808B12B
:102540000320F2BD20206860A8600020E0662870AB
:10255000F2BD2DE9F041069C05460E4690461F4609
:102560002868C1693140B1420CBF012000204045BC
:1025700026D114F1010FF3D001F022F9C01B8442DF
:1025800000D33CB900F025F800F02DF8FCD100F0A4
:102590001AF811E0286801684A07E1D5C1690A05FF
:1025A000DED54FF40062026200F013F800F01BF871
:1025B000FCD100F008F8C16000210170032000E0A8
:1025C0000020BDE8F08105F180002021416081609C
:1025D0007047296851E8002F22F4D07241E80020AA
:1025E0000028F6D17047286800F1080151E8001F63
:1025F000490800F10802490042E80010002870472D
:10260000DFF87801014042E8001000287047000020
:10261000026852E8003F23F0C00342E8003100297D
:10262000F6D1016801F1080252E8002F01F1080318
:1026300022F4000243E800210029F2D12021C0F851
:1026400084107047026852E8003F23F4907342E818
:1026500000310029F6D1016801F1080201F10803F7
:1026600052E8002F0E490A4043E800210029F2D128
:10267000C16E012908D1026852E8003F23F010031F
:1026800042E800310029F6D12021C0F8881000214D
:10269000C1660167704700000100001020010004BE
:1026A000FEFFFFEF0146886A09680A68930610D4A6
:1026B0000021A0F85610016801F1080252E8002F2D
:1026C00001F1080322F0800243E800210029F2D141
:1026D0003BE000F0E4BB806A01F078B8F8B5846AAA
:1026E00004F1840504F1560728686E6821688A6839
:1026F000110606D5212804D1002038802046FFF796
:1027000087FFFFF783FD06D5222E04D100203881F4
:102710002046FFF797FFA86840F01000A860204609
:10272000BDE8F24000F026BB806A00F156010022AD
:102730000A810A8000F01EBB026852E8003F23F0C5
:10274000800342E800310029F6D1026852E8003FD8
:1027500043F0400342E800310029F6D17047000001
:10276000F369FFCF00380140880000580080004026
:10277000FFF4FF110024F40000FD0F00FEFF7FEFC7
:10278000854900E0854981B00A6802430A6009680A
:1027900008400090009801B0704780B54FF40020C9
:1027A000FFF7F0FF002200212E2001F02DF8BDE8F8
:1027B00002402E2001F046B800687949884200D0D6
:1027C000704780B54FF48010FFF7DCFF0022002136
:1027D0002C2001F019F82C2001F034F800220021FF
:1027E0002D2001F011F8BDE802402D2001F02AB89B
:1027F00038B59EB004466846142101F079F80AA85D
:10280000502101F075F820686649674D884246D12D
:1028100002200A90002111910AA801F083F808B162
:1028200001F0E7FA286840F00100286029685F4D50
:1028300001F00101059105980120FFF7A1FF0C208F
:1028400000900221002001910290032108200391B1
:10285000049069464FF0904001F0CCFA544828604B
:10286000112000F058F808B101F0C3FA4FF0885079
:102870000690002101200791ADF82010099006A9CB
:10288000284601F09BFB08B101F0B3FAA567AC62E2
:1028900000220021252000F0B7FF252037E0454920
:1028A000884236D101200A90002110910AA801F037
:1028B00039F808B101F09DFA686840F4804068601A
:1028C00068683D4D00F48040059005980220FFF7B0
:1028D00057FFC020009002210120019102900321A6
:1028E0000720039104906946344801F083FA344884
:1028F00028600F2000F00FF808B101F07AFAA56700
:10290000AC6200220021242000F07EFF242000F091
:1029100099FF1FB030BD68601020A8600020E860FB
:102920008020286100206861A861E861286228464B
:1029300000F04CB818B595B0044601A8502100F03D
:10294000D7FF21681F4A914224D14FF400600190C3
:102950004FF48071119101A800F0E4FF08B101F07B
:1029600048FA1948816B41F40041816300210268F3
:1029700042F4806202600022006800F480600090EF
:102980000098032000F040FF032000F05BFF20468A
:1029900001F0D6FB16B010BD4C0000585000005896
:1029A000000C0058008000405C000058882900207E
:1029B0004400024000380140E8290020000400489B
:1029C00044040240002800405800005838B5040074
:1029D00001D1012032BD2168DFF87003814204F18A
:1029E000240500F044F8022068700A68A0686FF3BC
:1029F0000E120243E0680243206902436069024309
:102A0000A0690243E0690243206A02430A6020464B
:102A100000F070F9A068B0F5804F04BF002161603C
:102A20002079696A00F03F0000F014F838B10528F9
:102A300005D2204600F078F900F012F803E00020FB
:102A400028636863A8630020A861012068700020E3
:102A5000287032BD0860A96AE86A486060687047FB
:102A6000296B00200860696BA86B486070470AD228
:102A7000DFF8DC0242181423B2FBF3F292002A6260
:102A8000DFF8D00209E0DFF8D00242181423B2FBCD
:102A9000F3F292002A62DFF8C402E8617047F8B5E9
:102AA000044604F1240600253078012801D10220D3
:102AB000F2BD01273770707801282FD10227777077
:102AC000B561206807687F087F000760204600F036
:102AD000F5F82168F06820B10A6842F00E020A6039
:102AE00008E0086820F0040008602068016841F0F0
:102AF0000A010160706A0168CA0303D5026842F4E2
:102B000080720260306B18B1016841F4807101601D
:102B10002068026842F00102026001E0357002257F
:102B20002846F2BD81B040B100F124014A78022A62
:102B300005D00420886100200870012026E002688A
:102B4000136823F00E0313604A6A136823F480733A
:102B5000136000680268520852000260012091F878
:102B60002020CB6902F01C02904058608A6AC86A33
:102B70005060086B30B1026822F4807202604A6BC8
:102B8000886B5060012048700020087001B07047C9
:102B900038B500F1240200245178022903D0042022
:102BA0009061012428E001680B6823F00E030B609C
:102BB00001680D686D086D000D60516A0B6823F4A3
:102BC00080730B60012192F82030D56903F01C035B
:102BD00099406960936AD16A5960116B31B10B6891
:102BE00023F480730B60536B916B5960012151701A
:102BF0001470516901B18847204632BDF8B500F123
:102C000024010423CA6914680268156891F82060D9
:102C100006F01C0603FA06F73C4210D06F070ED5EB
:102C20001468A50603D4156825F00405156000F0A6
:102C30003DF8C968002938D0BDE8F44008470223B0
:102C400003FA06F73C4213D0AF0711D51468A50666
:102C500005D4156825F00A05156001224A7000F0B8
:102C600025F800220A708968F9B1BDE8F4400847E8
:102C7000082303FA06F6344217D02B0715D513683C
:102C800023F00E031360012291F82030CC6903F089
:102C90001C039A40626001228A614A7000220A7015
:102CA000096911B1BDE8F4400847F1BD91F8202051
:102CB000CC6902F01C0293406360704778B5C56C24
:102CC000046D6C60446D14B1846DC56D6560012543
:102CD00090F84440066C04F01C04A540756004683C
:102CE00063608068102802D1A260E16071BDA160BC
:102CF000E26071BD416C0268144B89089A4234BF8E
:102D0000174B184B03EB8101816402F0FF02083A74
:102D10001421B2FBF1F1144AC26401F01F01012237
:102D200002FA01F1016570470179104A01F03F0193
:102D300002EB81024265491E0D4A826501F00301E2
:102D400001228A40C265704700000000080402406A
:102D5000F8FFFDBF00000240F8FBFDBF0004024089
:102D6000000802401C08024080080240FC080240A3
:102D7000400902407047704710B500F180010A78A1
:102D8000012A01D1022010BD01230B7024224A60C8
:102D900002681368146864086400146000224266C4
:102DA00023F0005300680360202048600020087072
:102DB00010BD70B500F01EF801D1022070BD00F00A
:102DC0001FF822F0604209E070B500F013F801D15D
:102DD000022070BD00F014F822F06062114381609F
:102DE000204600F01AF82068066020206860002065
:102DF000287070BD044604F18005287801287047CA
:102E000001222A702420686020680668026852083F
:102E10005200026020688268704730B5416E11B977
:102E20000121012214E001680FF230048A688968E8
:102E30000FF23003520E02F00702490F655CA45CEA
:102E4000595C9A5CED00E40095FBF1F194FBF2F221
:102E500068304180028030BD0000000001010103A4
:102E60000701000008040204080101017047000086
:102E700010B5002488B9114803600E480E4B03605A
:102E8000FFF71CF8012805D007D3032804D038BF6A
:102E9000022402E0012400E00324204610BD006863
:102EA0000549884204D105490868002818BF004731
:102EB000704700008426002000380140F82B0020D5
:102EC000704770474FF0B040006800F0F000B02845
:102ED00088BFB02070472DE9F041040054D020781D
:102EE00081064FF0B04538D5A868E96810F00C00AD
:102EF00001F0030103D00C2808BF012946D128683E
:102F0000800702D5E06900283ED0FFF7DBFF616A49
:102F1000884207D2084600F0D3FB002834D100F0E5
:102F200075FA0FE0286820F0F00001432960696815
:102F3000206A21F47F4141EA00216960606A00F063
:102F4000BFFB08BB00F095FBDFF810180860DFF846
:102F50001008006801F00CF9B0B92078C1070DD550
:102F6000A868E96800F00C00082801F0030103D00C
:102F70000C2808BF03292DD12868800340F139812E
:102F80006068002840F03581012038E2E06980B1B6
:102F9000296841F0010100F047FA064628688007D9
:102FA00000F1248100F00CFC801B0328F6D30320E1
:102FB00025E2286840084000286000F001FC064631
:102FC000286800F01FFAC8D000F0FAFB801B032825
:102FD000F6D3ECE76068B0F5803F04D1296841F48E
:102FE0008031296003E02A6822F480322A60606818
:102FF00060B100F0E5FB06462868800300F1F98027
:1030000000F0DEFB801B6528F6D3D0E700F0D8FB8C
:1030100006462868400C10F0010000F0EA8000F03D
:10302000CFFB801B6528F4D3C1E700F0C9FBC01BB0
:103030000328C0F01281BAE7E06878B1296841F44A
:10304000807100F0F1F906462868400500F118810A
:1030500000F0B6FB801B0328F6D3A8E7286820F40D
:103060008070286000F0ACFB06462868800A10F0EB
:10307000010000F0DC8000F0A3FB801B0328F4D3E8
:1030800095E700F09DFBC01B0328C0F00B818EE785
:1030900040F0010000F0CEF907467068800700F1AB
:1030A0001C8100F08DFBC01B0328F6D37FE77068FE
:1030B00020F0040000F0BEF907467068C00810F068
:1030C000010000F0198100F07BFBC01B0428F4D341
:1030D0006DE70528306806D140F0040030603168A3
:1030E00041F0010105E0400840003060316821F006
:1030F00004013160A06841F2893768B100F060FBDB
:1031000080463068800700F10C8100F059FBA0EB8D
:103110000800B842F5D34AE700F052FB8046306819
:1031200000F070F900F0FD8000F04AFBA0EB080011
:10313000B842F4D33BE700F043FBC01B0328C0F0C8
:10314000FE8034E7B06840084000B06000F038FB13
:103150000746B06800F056F900F0F58000F030FB4B
:10316000C01B0328F5D322E700F02AFB801B0328AD
:10317000C0F01F811BE700F023FB001B0328C0F0F9
:10318000398114E7286881010CD4296841F08071E5
:103190002960E86840F08050E86000F011FB0446C8
:1031A0002868810100F12A8100F00AFB001B032836
:1031B000F6D3FCE60C2931D0286820F08070286016
:1031C000E968DFF8A00589088900E960E96801403D
:1031D000E96000F0F5FA04462868810140F10E81AB
:1031E00000F0EEFA001B0328F6D3E0E600F00EF93B
:1031F000B3E6207881071AD5A868E96800F00C00CA
:10320000042801F0030104D00C2808BF02297FF430
:1032100013AF2868400503D5E06800283FF4B4AE3A
:103220006968206921F0FE4141EA00616960216816
:10323000DFF8346511F0180F38D0606900283FF4CA
:1032400036AFC90670687FF523AF800709D4706870
:1032500040F0010000F0EEF80746706880077FF547
:10326000E4AE706840F0040000F0E4F807467068CF
:1032700000070DD400F0A4FAC01B0428F7D396E68B
:103280006868216920F0FE4040EA01606860CEE78E
:103290007068A16920F4706040EA0120706000F05D
:1032A000C6F8074600F0ADF87FF4EBAE2078410792
:1032B00037D5DFF8B8743868C10529D400F07AFF33
:1032C00000F07EFA80463868C10521D400F078FA13
:1032D000A0EB08000328F6D369E6706820F004002C
:1032E00070607068C00810F00100DFD000F068FA6C
:1032F000C01B0428F5D35AE600F099F8074600F001
:1033000080F8D3D000F05CFAC01B0328F7D34EE658
:10331000A06801287FF4DDAE306840F00100306025
:10332000E8E6217848060ED5A06A00283FF40AAFE7
:10333000B16841F00101B16000F042FA0746B0689F
:1033400080077FF5F8AEE06A002857D0A968EA68E0
:10335000022801F00C017FF42DAF236B02F0030073
:10336000984202BF02F07000636B984214D1A36BC5
:10337000C2F30620984202BF02F47810E36B984231
:103380000AD1236C02F06060984202BF02F06042F2
:10339000606C82423FF4F6AE0C293FF4F5AD28682C
:1033A00041013FF5F1AD296821F0807100F03CF852
:1033B0000646286881013FF5D7AEE968DFF8B0031B
:1033C000A26B0140206B0143606B0143E06B41EA5B
:1033D00002210143206C0143606C0143E9602868CD
:1033E00040F080702860E96841F08051E96000F0A9
:1033F000E7F90446286881017FF5BDAE0020BDE8ED
:10340000F0817068400810F0010070472968606A18
:1034100021F0F001014329606868216A20F47F40AF
:1034200040EA012068607047296000F0C9B97068FF
:1034300040084000706000F0C3B92DE9F843040073
:10344000884644D0DFF82C6300F0CBF847D200F078
:10345000CDF8074600F0C5F841D000F0B1F9C01B27
:103460000228F7D90320BAE000F0AAF9401B02288D
:1034700043D9F7E700F0A4F9A0EB090002284CD9E2
:10348000F0E700F09DF9A0EB0900022854D9E9E724
:1034900000F096F9401B02285DD9E3E700F090F9AF
:1034A000401B022867D9DDE700F08AF9401B484538
:1034B00077D3D7E7032802D13968890103E00028D0
:1034C000396802D1890762D401E049055FD401203F
:1034D00085E000F075F9C01B022872D9C2E7207898
:1034E00081074FF0B0470BD5B968A06821F0F00113
:1034F0000143B96000F064F90546B868C003B3D56C
:103500002078DFF8545281060AD52968606921F0D5
:10351000F0010143FFF788FF814628688003A9D5A1
:10352000207841060BD52968A0690909090141EAFB
:103530001011FFF779FF81462868C003A1D52078D4
:1035400041070BD5B968E06821F4E0610143B96037
:1035500000F036F90546B868800399D52078010750
:103560000CD5B868216920F4605040EAC100B86009
:1035700000F026F90546B86840038FD52078C107CA
:1035800017D56068022895D1396889039FD5B96835
:10359000890840EA8100B86041F2893900F010F9E9
:1035A0000546B868616800F00C00B0EB810F7FF44D
:1035B0007BAF306800F00700804505D200F016F8B8
:1035C000074600F00EF884D100F053F8DFF88C11B4
:1035D000086000F00BFEBDE8F24300F0C9BDBDE895
:1035E000F283306800F00700404570473168C90831
:1035F00048EAC101316000F0E3B838B54FF0B0449B
:103600005E4DA16811F00C0106D1FFF75BFCC0F321
:10361000031055F8200032BD0429594A05D0082965
:10362000584804D12168C90222D5104632BDE1684C
:1036300001F00301022904D0032904D12168C90241
:1036400007D5104605E0FFF73DFCC0F3031055F821
:103650002000E168E268E368C1F306214843C2F351
:103660000211491C5B0FB0FBF1F05B1CB0FBF3F0E7
:1036700032BD80B5FFF7C1FF3F49FFE7424A096805
:10368000C1F3031152F82110B0FBF1F002BD80B577
:10369000FFF7EFFF00F010F8C1F3022106E080B55C
:1036A000FFF7E7FF00F008F8C1F3C22112F821107C
:1036B00001F01F01C84002BD2F49344A0968704714
:1036C00070B52E49B1282EBFCC6AC0F3031051F853
:1036D00020402148056800F0A3FD2B492C4A05F045
:1036E0000F0551F82510B4FBF1F10024B1FBF2F104
:1036F000B0F5007F0FF2B802204609D10FF2940313
:1037000053F820508D4214D2401C0328F8D912E0FF
:103710000FF2900353F820508D420AD2401C032828
:10372000F8D308E000F04CF8801B03280CD30320EA
:1037300070BD52F820400F4D2868C00844EAC00010
:10374000286000F03DF80646296801F00701A14213
:10375000E8D1002070BD000008010058F0250020CD
:10376000D4250020FFFFFEEE900000580004005812
:103770008C80C111004000580800005810790008E2
:103780000024F4000048E801D07800089080000888
:1037900040420F001200000024000000360000002C
:1037A00040000000060000000C00000010000000B7
:1037B0000000000001000000020000000300000003
:1037C00001484068704700BFCC25002070470000CA
:1037D0000901020081B002D43C48815405E03C4814
:1037E00002F00F02104400F8041C01B07047394A7F
:1037F00013684FF6FF0100020B4000F4E06018432D
:10380000354908431060704738B5324B1C68C4F323
:103810000223C3F10704052C28BF04241D1D072D16
:1038200034BF0023DB1E012505FA04F4641E214089
:10383000994005FA03F35B1E1A401143BDE834407A
:10384000C6E70000010007D4012200F01F01234B4E
:103850008A40400943F82020704701000BD4012220
:1038600000F01F011E4B8A40400943F82020BFF39F
:103870004F8FBFF36F8F704710B5401EB0F1807F40
:1038800001D3012010BD174C60600F214FF0FF30B5
:10389000FFF79EFF0022A26007202060002010BDDD
:1038A000010007D4012200F01F010F4B8A4040099C
:1038B00043F820207047010007D4012200F01F01C7
:1038C0000A4B8A40400943F82020704700E400E09A
:1038D00018ED00E00CED00E00000FA0500E100E06A
:1038E00080E100E010E000E000E200E080E200E0C3
:1038F000002200F09DBC0000DFF820130A680309D5
:1039000003F47F2300019A4300F47F2000F082B982
:10391000DFF808231368010C23EA014343EA00435C
:10392000136070472DE9F843054600242878DFF836
:10393000EC624106A0464FF0B0472DD5286B70B120
:10394000B0F5800F06D0B0F5000F18BFB0F5400FEE
:1039500017D01FE0F86840F48030F860EDE0386878
:1039600020F080603860FFF72BFF81463868000147
:1039700040F1D080FFF724FFA0EB09000228F5D921
:103980000324D7E0FFF71CFFA0EB0900022840F258
:10399000C980F5E70124A0462868010531D5B06843
:1039A00000F44078286C80452AD000F003FCB8F180
:1039B000000FB16805D1286C21F440710143B1605A
:1039C0001EE0B06840F48030B06021F44071B0680F
:1039D00020F48030B060286C0143B160B068C0074B
:1039E0000ED5FFF7EDFE804641F28939B0688007B9
:1039F00006D4FFF7E5FEA0EB08004845F6D3032404
:103A0000A0462878C10705D53168A869890840EA29
:103A1000810131602878810705D53168E86921F492
:103A20004061014331602878C10644BFA86AFFF7AE
:103A30006FFF2878810644BFE86AFFF769FF28789E
:103A4000410744BF286AFFF757FF2878010744BFA2
:103A5000686AFFF751FF2868C1051BD53168686B9C
:103A600021F0406101433160686BB0F1006F00F0FC
:103A7000BDF8686BB0F1806F75D100F0BDF80446F9
:103A80003868000160D5FFF79BFE001B0228F7D9BC
:103A90004FF0030867E0FFF793FE001B02285BD995
:103AA000F6E7316821F04041316020F08050326803
:103AB00022F0406210433060A86BB0F1C05F00F0AC
:103AC00095F8286841056DD53168E86B21F04051C3
:103AD00001433160E86BB0F1005F03D1F96841F454
:103AE0008031F960E86BB0F1805F5BD100F084F861
:103AF00004463868000146D5FFF762FE001B022825
:103B0000F7D94FF003084DE0FFF75AFE001B0228DB
:103B100041D9F6E700F061F8A86821F4781100F0C7
:103B200071F88146386800017FF52CAF3969686902
:103B300001433961002C7FF42EAF3168286B21F4EA
:103B400040010143316027E700F047F8E86821F0C1
:103B5000606100F057F80446386800019BD5396968
:103B600068690143396128688105AAD5A86BB0F15D
:103B7000804F1CBFB0F1004F002892D1316821F076
:103B80004041084397E700F028F8286921F0604198
:103B900000F038F8044638680001B5D5396968691D
:103BA000014339612868C10405D5F168686C21F4C6
:103BB00040410143F160286881040BD5796AE86CC3
:103BC00021F0300101437962796AA86C890840EAE2
:103BD000810179624046BDE8F2833869696820F462
:103BE000FE4040EA012038613969704703D1F96825
:103BF00041F08071F9607047396821F08061396067
:103C0000FFF7DEBD01433961386840F080603860FD
:103C1000FFF7D6BD104308607047000088000058C9
:103C2000644900E0644981B00A6802430A60096897
:103C300008400090009801B0704710B500F0C2FA3B
:103C400000F010FB00F046F800F082F85B4C5C4896
:103C5000606204F1240000F0FDFD0420FFF7E2FFA4
:103C60000120FFF7DFFF0220FFF7DCFF0420FFF752
:103C7000D7FF0220FFF7D4FF0120FFF7D1FF00227A
:103C80000F210E20FFF7C0FD0E20FFF7DBFD002205
:103C90000F213A20FFF7B8FD3A20FFF7D3FD49483E
:103CA0002060002060600F20A06047F6FF70E06099
:103CB00000202061A061E0616061204600F002FE0A
:103CC00000220021204600F0ABF900F0F3FA00F0EA
:103CD0004BFCFCE780B59AB008A84821FFF708FE26
:103CE00001A81C21FFF704FE00F064FA36480168C1
:103CF00021F01801016007213448026822F4C062F3
:103D000042F4007202604FF48032006800F4C06038
:103D100000900098089101200A904FF480710B9157
:103D200040200C9000210992139108A8FFF7D3F8C6
:103D30006F200190022100200291039004900590D1
:103D400006900790012101A8FFF777FB1BB000BD8B
:103D500010B594B068465021FFF7CAFD4FF480407B
:103D600011900221102013904FF4405412910094AE
:103D70006846FFF7D7FD14B010BD10B5144C1548B8
:103D800000F02AF84FF40040E061002020626062F9
:103D9000A0622046FEF752F800212046FFF709F8FE
:103DA00000212046FFF710F82046BDE81040FEF73E
:103DB000E3BF0000480000584C00005828290020AC
:103DC000000C0058002800409000005800040058E3
:103DD000842600200038014020604FF4E13060600C
:103DE0000020A060E06020610C2060610020A061E4
:103DF000704770472DE9F84F4FF00009674A684B4C
:103E00004FF00F0805460E4633E0664FBD4214BF23
:103E1000072704278F4027434CF82E70C1431C68A6
:103E200001EA040C7468E40248BF40EA0C0CC3F8D1
:103E300000C05C6801EA040C7468A40248BF40EA50
:103E40000C0CC3F804C0146801EA040C7468E403A1
:103E500048BF40EA0C0CC2F800C0546801EA040CE8
:103E60007168890348BF40EA0C0CC2F804C009F12C
:103E70000109316831FA09F000F07E80012404FA6A
:103E800009F414EA0100F2D04FEA490C032101FAC7
:103E90000CF16FEA010E716801F00307012F1CBFDE
:103EA00001F00301022911D1A968F7680EEA0101A6
:103EB00007FA0CF73943A960696821EA04047168BC
:103EC000C1F3001101FA09F10C436C604FEA89015A
:103ED000347904F00304032C1FD0EC68B7680EEAB1
:103EE000040407FA0CF73C43EC60347904F0030453
:103EF000022C12D14FEAD90705EB870401F01C0709
:103F0000D4F820A008FA07FB2AEA0B0AD6F810B06A
:103F10000BFA07F747EA0A0727622C680EEA04073C
:103F2000347904F0030404FA0CF43C432C60746804
:103F300014F4403F9BD0DFF870C04FEA990E5CF854
:103F40002E7001F00C0108FA01F427EA0404B5F11F
:103F5000904F08BF00270ED0144FBD4208BF012765
:103F600009D0134FBD4208BF022704D0114FBD42F4
:103F70007FF44BAF03274DE7BDE8F18F81B0002AF6
:103F800014BF8161816201B070470B4A136803421C
:103F90001CBF106000F0FABA70470000800800589B
:103FA00000080058001000480800014000040048C4
:103FB00000080048000C00480C08005818B500F133
:103FC0002402507801281BD11378012B01D1022043
:103FD00012BD536A10701C680A4804400868044304
:103FE000C868401E44EAC04448680443087A497AD5
:103FF00044EA004444EA41241C600020107012BDD1
:10400000012012BDFFFD00E08A60FF2102685162BD
:10401000012180F82110002180F820100020704735
:104020002DE9F84300F065F808BF022038D000F011
:1040300067F814D5FFF7C4FB07462068C168480736
:104040000DD5FFF7BDFBC01B4845F6D300F039F88E
:1040500026E0FFF7B5FBC01B484507D3F6E700F0A5
:104060002AF800F065F8FFF7ABFB07462068C16847
:104070004A07EED5C0F81480206800F013F82A48EB
:10408000016841F4002101602848026842F40022DE
:1040900002602068816841F48041816000F01BF873
:1040A000BDE8F2838168C908C90081602068816821
:1040B0000D43856070472068816821F480618160CC
:1040C000704720684662032184F82110002084F89C
:1040D0002000032070472068816841F4806181607E
:1040E00001212068466284F82110002084F8200015
:1040F00070470446884694F820000128154670470A
:10410000012184F82010022084F82100CA202168AF
:104110004862532022685062FF2620688168480563
:1041200040F2E93970470000800800580008005844
:104130002068C16801F0800161F49061C16070473E
:1041400090F82010012901D102207047012280F847
:104150002020022180F82110CA21026851625321D7
:104160000368596201688A6842F02002FFF74CBF79
:1041700070B50F4E044630780025A8B1FFF779FAE4
:1041800032784FF47A71B1FBF2F1B0FBF1F0FFF746
:1041900073FB48B9102C07D2002221464FF0FF30A4
:1041A000FFF732FBB46000E00125284670BD00BF78
:1041B000CC2500200248016841F4807101607047FD
:1041C00000040058134810B5016841F48071016083
:1041D0000320FFF70CFB0020FFF7CAFF0024002894
:1041E00014BF0124FEF7D9FA204610BD0A488068A2
:1041F0007047094800787047084805E0074801689B
:1042000041F0020101607047016841F00101016065
:104210007047000000400058CC250020042004E036
:10422000DFF80800006800F4C06070470004005820
:1042300000B500BF130096469446103928BFA0E889
:104240000C50FAD85FEA417C28BF0CC048BF40F848
:10425000042BC90728BF20F8022B48BF00F8012B08
:1042600000BD000010B5B249B24C4FF400400860E8
:10427000606840010ED56068C0000BD4FFF79AFF5C
:10428000FFF798FF206840F480302060216821F417
:104290008031216000F073F8002000F0B7FB40B1DE
:1042A0008079A549E160E16821F47C5141EA00216F
:1042B000E16010BD10B5A148A14C88B00168016053
:1042C000CA21A048C1615321C161FF220168C90808
:1042D000C9000160C2619C48016841F4004101606D
:1042E00000F0A6FB99480168C908C90041F0040123
:1042F00001600020964900F02CFD00F076FE0121BF
:10430000012000F09AFB002000F0B7FF012000F030
:10431000B4FF022000F0B1FF012000F0D6FF012120
:10432000002000F0E6FF0121012000F0E2FF012162
:10433000022000F0DEFF01F031F8864A00214FF440
:10434000807001F082F904F23C500FF27901009084
:10435000019169460FF2710001F0FAF904F254700C
:10436000029004F5C96140F23C5005900391049419
:1043700002A801F09BF801F00FF808B010BD7648D4
:1043800081B0016841F4801101603F21006800F4B0
:10439000801000900098714841604161016841F4CB
:1043A0007C110160026942F47C120261016841F0F3
:1043B0003F010160026942F03F02026101B07047B3
:1043C000000000007047000038B5044688B06168FE
:1043D00001F10B05684601F07CFA9DF802309DF86A
:1043E00001209DF800100FF2C01001F0B1FA9DF805
:1043F00004100FF2D81001F0ABFA9DF80C309DF8C4
:104400000B209DF80A100FF2E01001F0A1FA2888A5
:104410004FF41241401A0CD0401E3ED0401E4CD0EA
:10442000801E57D0401E5AD0401E5BD0401E60D028
:1044300063E004A81021FFF75BFA60680D30007894
:10444000F8B90FF2683001F083FA00F0DDFD0D20BD
:104450008DF810007F2142488DF8121004680FF289
:104460007C30240C214601F073FAADF81C4004A8FE
:1044700001F028FA01F080FA0021012000F0DDFAB5
:104480003BE0012806D10FF2743001F061FA002000
:10449000207032E00FF290302DE0606800F10D04E2
:1044A0000FF27020217801F053FA2078002814BF11
:1044B0000FF2C4200FF288201DE00FF2441001F02B
:1044C00047FAD5F80620D5F802100FF2601001F077
:1044D0003FFA12E0D5F802100FF2941006E00FF246
:1044E000C41008E0D5F802100FF2D41001F030FA31
:1044F00003E00FF2042001F02BFA09B030BD38B50B
:104500000446FFF75DF914F1010F054609D0FFF7E6
:1045100070FE241805E01348016821F004010160D1
:1045200030BFFFF74DF9401BA042F4D331BD00006E
:104530001040005890000058FECAFECA900800586B
:10454000300003200828004008000058800400586C
:10455000282900209357000850000058040C0058E8
:10456000002004E010ED00E001E0704700BF4FF0D4
:10457000FF3001F003B800214FF4807001F072B8F1
:10458000022001F095B8022001F09AB8012805D068
:10459000022805D0102805D101F011BB01F01EBB87
:1045A00001F01DBB70470000576972656C6573733D
:1045B000204669726D776172652076657273696FE6
:1045C0006E2025642E25642E25640A0057697265C5
:1045D0006C657373204669726D77617265206275D0
:1045E000696C642025640A00465553207665727311
:1045F000696F6E2025642E25642E25640A0A00004A
:104600002D2D20424C45204E564D2052414D2048E4
:104610004153204245454E20555044415445442085
:10462000425920434D4F2B200A0000005348434974
:104630005F5355425F4556545F424C455F4E564D61
:104640005F52414D5F555044415445203A205374C8
:1046500061727441646472657373203D20256C78C7
:10466000202C2053697A65203D20256C640A0000C7
:10467000534843495F5355425F4556545F4E564D2C
:104680005F53544152545F5752495445203A204E8B
:10469000756D6265724F66576F726473203D202599
:1046A0006C640A00534843495F5355425F45565472
:1046B0005F4E564D5F454E445F57524954450A0080
:1046C000534843495F5355425F4556545F4E564DDC
:1046D0005F53544152545F4552415345203A204E56
:1046E000756D6265724F66536563746F7273203DBA
:1046F00020256C640A000000534843495F5355422B
:104700005F4556545F4E564D5F454E445F4552419E
:1047100053450A00534843495F5355425F45565439
:104720005F4552524F525F4E4F54494620574954AD
:104730004820524541534F4E202578200A00000062
:10474000534843495F5355425F4556545F45525263
:104750004F525F4E4F5449462057495448205245C6
:1047600041534F4E202D204552525F424C455F49E8
:104770004E4954200A000000534843495F535542B4
:104780005F4556545F4552524F525F4E4F54494613
:10479000205749544820524541534F4E202D204226
:1047A0004C45204552524F52200A0000534843497D
:1047B0005F5355425F4556545F434F44455F5245F2
:1047C000414459202D20574952454C4553535F468B
:1047D000575F52554E4E494E47200A004442474DBE
:1047E00043555F4765745265766973696F6E4944D6
:1047F0003D20256C78200A0A0000000053484349F8
:104800005F5355425F4556545F434F44455F5245A1
:10481000414459202D204655535F46575F52554E0F
:104820004E494E47200A0000534843495F535542C2
:104830005F4556545F434F44455F524541445920BC
:104840002D20554E4558504543544544204341532F
:1048500045200A00F8B504460025ACB104F1340641
:10486000307910B92046FDF7A7FF0F4F384600F00A
:1048700021F8386840F001103860204600F007F851
:1048800035600120307100E001252846F2BD10B5E9
:104890000021064A064B00EB8104491C062963608F
:1048A000E261F8D310BD0000000C0058FB110008B5
:1048B0007F110008002101604FF03F1141603F214E
:1048C0008160704738B5040044D094F8210028B9BD
:1048D000002184F820102046FEF72CF800F049F85B
:1048E000FF2510B100F03FF834E02168DFF8B00098
:1048F0008A6802408A6021688A6863682069034385
:10490000A06903431A438A602168E068086120684F
:104910000169A26841EA024101612068C16821F091
:104920008001C1602068C16C89088900C164216868
:10493000CA6CE369606903431A43CA6420688168EA
:10494000880609D400F020F830B1206845620421BF
:1049500000F01FF8012032BD20684562012184F873
:104960002110002032BD20684562042184F8211006
:104970007047022084F82100CA2021684862532031
:1049800022685062204626E020460BE02068C0F8EE
:10499000248084F82110002084F820007047000053
:1049A000BFFF8FFF70B5044640F2E9362068C1684A
:1049B00021F0A001C160FEF703FF05462068C16831
:1049C000880606D4FEF7FCFE401BB042F6D3032057
:1049D00070BD002070BD70B504462068C1684A06ED
:1049E00012D44FF0FF32C26040F2E936FEF7E8FE23
:1049F00005462068C168480606D4FEF7E1FE401B64
:104A0000B042F6D3032070BD002070BD01460648B9
:104A1000064AC3798B4218BF904218BF0838F8D1B4
:104A20008B4218BF00207047F873FF1F0070FF1FF4
:104A30000C48002101604160704710B500F00CF88F
:104A40005C6819B1012904D1204301E024EA000087
:104A5000586082F3108810BDEFF3108272B6014BDC
:104A600070470000BC2B0020DFF83C150A6892B2AA
:104A700000E00246086880B28242FAD170472DE910
:104A8000FC4104461825DFF82485DFF824656843D7
:104A900008EB00073078062808D13178717034703F
:104AA00078754FF0FF307060002039E000F077F843
:104AB000B9680918B96008F10803B96832786A431F
:104AC0009A589142327813D308F1150315FB02FC72
:104AD00013F80C30062B25D008F108066B43F35869
:104AE000994222BF08F115036A439A5CEED219E09D
:104AF0001146337869439A420BD008F1140308F148
:104B0000150C5B5C15FB03F50CF805407A753B75DD
:104B100000E07A7508F114025454317871703470E1
:104B2000BDE8F6811146694308F115035B5C062B6D
:104B300004D008F1140615FB03F574557B753A751E
:104B400008F115025454EBE7F8B5DFF86434DFF8E8
:104B50005C541E78182402466243B0422A4404D1B1
:104B600018785870507D18700FE0167D507D92F8BF
:104B700015C005F115076643062807F806C004D0DE
:104B8000167D143514FB00F42E550120107318788F
:104B9000062802BF00294FF0FF315960F1BD10B562
:104BA000DFF80C44606810F1010F0FD0FFF75CFFD5
:104BB0006168DFF80024814261683CBF5388C918EE
:104BC000081A517848431178C84000E0002080B2AC
:104BD00010BD2DE9F84FDFF8DC53DFF8DCB3D5F872
:104BE0000880D8F80000DBF800104A0500F090F9C2
:104BF000DFF8BC63DFF8B4A321F4806181604FF07B
:104C0000180934780AF1080019FB04F14758FFF736
:104C1000C6FF874217D200270121B170062C3DD074
:104C200019FB04F40AF108010AF10802095981424A
:104C300023BF0AF108010959091A002111510AEB91
:104C400004014C7DEAE7A9884118B94202D2AF8835
:104C50000021E2E73F1ADFE7022802DA287801287C
:104C600000D07F1ED8F80000C1684A07FAD500F0CE
:104C700055F9DBF80C00000CBFB247EA0047CBF84F
:104C80000C70FFF7F1FE7060A8680068816841F45D
:104C900080618160AFF30080BDE8F18FB8B2002879
:104CA000DAD1FFF7E1FE70600320BDE8F24FFEF7B6
:104CB000F7BD2DE9F843EFF3108872B6BD4DBB4B3D
:104CC000A8680168CA224A6253204862B84A8868C4
:104CD00020F48060886018201678374647431F44C8
:104CE000387B022826D13C68D7F810909078F0B134
:104CF0007A7B012A0AD101213046FFF725FF88F38C
:104D000010887968304600F016F904E088F31088BE
:104D1000304600F0C1F8A8680068CA214162224606
:104D2000532141624846314600F050F90BE0FFF74D
:104D300050FF06E0C8684207FCD500F07EF89F49A6
:104D4000086088F31088FF21A86802685162BDE8F6
:104D5000F183F8B5974CA160CA2209684A625322D0
:104D60004A62954A136843F020031360136803F006
:104D70000703C3F10403237095682D0C05F07F052C
:104D80006D1C6570EDB29268C2F30E02521C628017
:104D900092B2521E6A43A2F5A072DA404FF6FF7338
:104DA0009A422CBFA380A280854A136843F4002353
:104DB0001360844B1D6845F400251D6048BB7C488A
:104DC0007A4E0123837018254FF0FF334360002390
:104DD0005FFA83FC06F10C0715FB0CFC4FF0000E8C
:104DE00007F80CE05B1CDFB2062FF1DB0623037033
:104DF000886820F48060886000F01FF8D06003208D
:104E0000FEF759FDA1680868826842F4804282601A
:104E100005E0C868410544BF0320FEF741FDA168D5
:104E20000A68FF205062002203210320FEF7ECFCF9
:104E3000BDE8F2400320FEF705BDC86800F0800021
:104E400060F49060C8604FF400207047F0B50446ED
:104E50000025EFF3108672B61827DFF850C10CF169
:104E60000C0007FB05FE10F80E0010B16D1C062D9E
:104E7000F5DB062D0CD06F430CEB07000127077301
:104E800086F310880461427303600D700020F0BD4A
:104E900086F310880120F0BDF8B50746EFF31084C3
:104EA00072B60320FEF7D9FC424DAE683068CA21C5
:104EB00041623A4653214162182043494243895C8A
:104EC00002291BD100213846FFF73EFE3848017801
:104ED00006290ED1306838490A68530500F018F8E1
:104EE00021F480618160C1684A07FCD500F016F8A2
:104EF00004E04078884218BFFFF76BFEA9680A6893
:104F0000FF2050620320FEF79DFC84F31088F1BD62
:104F100002D5C1684A07FCD481687047C16801F0B6
:104F2000800161F49061C1604FF400202349086062
:104F30000320FEF7C0BC2DE9F04180460F464246F3
:104F400018201A4942438C18207B022804BF40468F
:104F5000FFF7A2FFEFF3108572B60320FEF77DFC8A
:104F6000144EB0680068CA21416253214162022098
:104F70002073A76067604046FFF781FD0C490A78FF
:104F80004978914202D0FFF724FE02E0A168081A96
:104F9000A060FF20B1680A6850620320FEF752FC4F
:104FA00085F31088BDE8F0812828004014270020F0
:104FB000EC2B0020A82B0020082800400C080058EB
:104FC00000080058800800582027002010470000E3
:104FD000484900E0484981B00A6802430A6009680C
:104FE00008400090009801B0704780B5FFF704F9C1
:104FF000FFF704F94148016841F48031016001F094
:105000003AF8BDE801400EE000B587B068460FF2FF
:1050100038211C22FCF734F900F07DFA684600F0D4
:1050200049FC07B000BDF0B585B068461421FEF715
:105030005FFC00260025002400210FF2DC0000EBBD
:10504000C102907988B11368B3F1904F08D02C4F0A
:10505000BB4208D02B4FBB4204BF9088044304E0FE
:105060009088064301E090880543491C2629E4DB2B
:10507000002002900121032003900191B0B288B179
:1050800000900120FFF7A4FF0120FFF7A3FF69466E
:105090004FF09040FEF7AEFE0022B1B24FF09040CC
:1050A000FEF76CFFA8B280B100900220FFF790FFDE
:1050B0000220FFF78FFF124E69463046FEF79AFE38
:1050C0000022A9B23046FEF759FFA0B280B100908D
:1050D0000420FFF77DFF0420FFF77CFF094D6946A0
:1050E0002846FEF787FE0022A1B22846FEF746FFBB
:1050F00005B0F0BD4C0000584C0100589008005815
:105100000004004800080048FEF737BE13460A4670
:1051100001460020FDF7ACBE000000480100000081
:1051200000000048010000000000004801000000ED
:1051300000000048010000000000004801000000DD
:1051400000000048010000000000004801000000CD
:1051500000000048010000000000004801000000BD
:1051600000000048010000000000004801000000AD
:10517000000000480100000000000048010000009D
:10518000000000480100000000000048010000008D
:10519000000000480100000000000048010000007D
:1051A000000000480100000000000048010000006D
:1051B000000000480100000000000048010000005D
:1051C000000000480100000000000048010000004D
:1051D000000000480100000000000048010000003D
:1051E000000000480100000000000048010000002D
:1051F000000000480100000000000048010000001D
:10520000000000480100000000000048010000000C
:1052100000000048010000000000004801000000FC
:1052200000000048010000000000004801000000EC
:1052300000000048010000000000004801000000DC
:105240000000004801000000000000000000000015
:105250000000000018510008280003202C00032043
:1052600026040400444981B00A6802430A600968C0
:1052700008400090009801B0704778B585B00446AA
:1052800068461421FEF734FB0220FFF7EBFF00F025
:1052900010F8009501200190002102200390029156
:1052A000694656F82400FEF7A5FD00F008F806B0A0
:1052B00070BD0FF2D000314E30F81450704756F8E0
:1052C000240000222946FEF759BE0FF2B8012B4BED
:1052D00031F8101053F820000122FEF74FBE0FF2F4
:1052E000A401264B31F8101053F820000022FEF7DD
:1052F00045BEF0B585B005460C4668461421FEF75C
:10530000F7FA0DB9042004E0012D18BF022D02D1D7
:105310000820FFF7A7FF2000194E0FF270070DD1EC
:1053200037F8150000900021019101200290022120
:10533000039100F01CF80120FFF7E1F8012C14D1D3
:1053400037F81500009001214FF4041001900291EC
:1053500000F00DF80FF23C00445D00220F2160B216
:10536000FEF752FA60B2FEF76DFA05B0F0BD69467D
:1053700056F82500FEF73EBD4C000058D825002009
:10538000E4250020200001000200000010000100C0
:10539000020000000A06070000F01FBF6C486D49BC
:1053A000016001F12002426001F13002826001F1EE
:1053B0003C02026201F14402426201F14C02C2600D
:1053C00001F15402026101F17002426101F17402C3
:1053D00082618031C16100F01EBF38B504465E4D68
:1053E000284600F07BFF5A484068A1680160E168E8
:1053F000C16085605949416000F029FF58482AE0A2
:1054000080B553484268136801211972406800F062
:1054100024FF002002BD38B5514C4F4D04E000F090
:1054200041F8009821688847284600F05AFF002874
:10543000F5D031BD4A484168084738B50446494D62
:10544000284600F04BFF4248C068A16801604560F3
:1054500000F008FF44482168016061684160002055
:1054600032BD80B53A48C268136810211972C0680D
:1054700000F0FEFE002002BD35483B4AC168C1680D
:1054800013680868184738B5374C364D04E000F00B
:1054900009F8009861688847284600F022FF002834
:1054A000F5D031BD6946284600F044BF38B5044602
:1054B0002E4D284600F012FF2D4800F00FFF244823
:1054C0000069A1688160E168C160056121680160CF
:1054D00061684160216941616169816131BD80B567
:1054E0000146234800F010FFBDE802400FF205001E
:1054F00000F0C7BE38B5164C1D4D06E0FFF7D2FFD1
:1055000000992069006900F0FFFE284600F0E9FEDE
:105510000028F3D031BD10B5164C204600F0DEFE59
:105520000B4841690C60BDE8104000F0BEBE1CB5E0
:10553000104C06E06946204600F0FCFE009800F0A2
:105540001BF8204600F0CDFE0028F3D013BD00006C
:1055500000000320AC090320480A03209008032020
:10556000CC2B0020500A0320D42B0020380A032023
:10557000C42B0020400A0320704700002DE9FC479F
:10558000604CDFF88491A5692840A0614FF0FF3A94
:1055900021694FF0010834E0521C54F8320061696F
:1055A00019400142F8D0616904EBC20608407168F5
:1055B0001840014208BFC6F804A07768384000F0E0
:1055C000A5F8606208FA00F087437760EFF3108176
:1055D00072B6626A206908FA02F2D2431040206172
:1055E000022004EBC00353F8086C1640401E43F839
:1055F000086CF6D181F31088606A59F8201088474A
:105600002169A36960690140194205D0E069216AF6
:10561000084208BF0022C0D0C4F824A000F09BFEBE
:10562000EFF3108972B6216960690140A0690142F7
:1056300001BFE169206A0142FEF797FF89F31088F4
:1056400000F08AFEA561BDE8F38738B51446EFF394
:10565000108572B600F05AF82B4941F8204085F3C6
:10566000108831BD10B500F00BF804431C6153F8ED
:105670003140204343F83100FFE782F3108810BD2A
:10568000EFF3108272B61F4B1C697047EFF3108165
:1056900072B61C4A536923EA000005E0EFF310815B
:1056A00072B6184A53691843506181F310887047E5
:1056B000EFF3108172B6134AD3691843D061F4E74F
:1056C000F8B5104C666A256A374616F1010F0EBF11
:1056D0000026012101FA06F6206202E03046FEF7BC
:1056E00045FF216AE0690842F8D06762EFF3108154
:1056F00072B6E269206A8243E26181F31088256212
:10570000F1BD00008425002028280020024600204A
:10571000110C090404BF1020120412F07F4F04BFC3
:10572000083012020FF2180112F0704F04BF001D72
:105730001201120FC0F11F00895C401AC0B27047FD
:10574000040302020101010100000000000000004A
:105750007FB50C464D4D61684D4EE8612962284683
:1057600000F0FCFD2468746006F1080000F0B6FD4E
:10577000012000F068F801203070296841B10FF273
:10578000E9000FF2ED02009001920294684688470A
:105790007FBD1FB53E4C04F1080000F0A2FD00BB28
:1057A0002178F1B1694604F1080000F0C3FD3748E3
:1057B000C16949B10098029001228DF8042001A826
:1057C00088479DF8040000E001202070207818B17F
:1057D0000098FFF784FE04E0009904F1080000F04F
:1057E00089FD04F1080000F07CFD28B9207818B18B
:1057F00004F10800FEF7BFFE1FBD2DE9F04105468C
:105800000E4690461C46002000F01DF8204F786898
:10581000A0F80950C672324641460C30FBF720FD15
:105820001A4A136900210020984748F2E800FEF761
:10583000AAFE79688A78D21C04F10800FBF710FDF3
:10584000BDE8F04101201CB51049124C096A20B98D
:1058500001B188470020207013BD0120207011B1D4
:10586000BDE81C40084713BD0020FEF789BE0000BC
:1058700010B50146064C04F1080000F045FD04F1A6
:105880000800BDE81040FEF776BE0000142B002093
:10589000982B0020042C0020FFF7AFFF9DF80E008E
:1058A00005B000BDF8B500F10C026B4625214FF69E
:1058B0006640F1E7F8B500F10C026B460F214FF698
:1058C0006840E9E7F8B502466B460E214FF6754091
:1058D000E2E770B51B491C4B0A681C49C2F30D0274
:1058E00001EB82010C6822689A4205D16569A169C1
:1058F000E269E368246904E025696169A269636873
:10590000A4682E0E067001722E0C467042722E0A8A
:105910008670C473C5F3031605F00F050571C670D4
:105920000D0E45710D0C85710D0A190E8172C57130
:10593000190CC1721B0A210E41730373210C817370
:10594000002070BD3C400058B95646A90000032015
:105950000EB4C0B5024603A800210190009101AB2E
:105960000121044878440C30FAF7E8FB06BC5DF8E6
:1059700010FB00BF7327000018B58FB002A80FF20C
:105980008C61DFF800443422FBF77AFC0FF24540CB
:105990000190009469460FF2254000F0E9FC0121D6
:1059A0000220FFF74AF8DFF8E02300211020FFF77C
:1059B0004CFE02A8FFF776FF08B1FEF71AFA00F0D6
:1059C0000FF900F0B9FD0FF2293200210120FFF795
:1059D0003CFE0FF2593200210220FFF736FEDFF8BD
:1059E000AC43002084F88000202000F04DFE00F041
:1059F0007DFE0FF2AD33002204F181010020FFF79C
:105A000025FA10B010BD2DE9F043074685B078782F
:105A1000DFF87843DFF8786305284FF0000804F1D9
:105A2000800554D03E2863D0FF280DD1012030726C
:105A3000B7F80300042842D040F20741884204D05E
:105A400040F60201884218D0A6E07879022804BF07
:105A5000B9790029F8D10020FFF741FC0FF2883016
:105A6000FFF776FFA878012806D12978062903D008
:105A700000210220FFF7F6FD8EE0002000F004FE7A
:105A8000F879307301253889F08179893182BA89B2
:105A90007282FB89B382388A04950090F082357B4C
:105AA000E08A039510260296019601F063F910B181
:105AB0000220FFF70AFC202000F0E6FD6CE0012048
:105AC000FFF703FC68780A21FFF735FA64E0B8882D
:105AD000E18A884260D1A4F8168085F800800FF230
