:020000040800F2
:100000002015002029460008F5430008F7430008A2
:10001000F9430008FB430008FD430008000000000E
:10002000000000000000000000000000FF43000886
:1000300001440008000000000344000805440008D3
:1000400045460008494600084D460008434400085C
:100050005146000855460008594600085D4600080C
:1000600061460008654600083D4400080944000850
:10007000694600086D46000871460008754600088C
:10008000794600087D46000881460008854600083C
:10009000894600088D4600089146000895460008EC
:1000A000994600089D460008A1460008A54600089C
:1000B000A9460008AD460008B1460008B54600084C
:1000C000B9460008BD460008C1460008C5460008FC
:1000D0000F44000815440008C9460008CD46000832
:1000E000D1460008D5460008D9460008DD4600087C
:1000F0001B4400081F44000823440008E146000890
:10010000E5460008E9460008ED460008F14600080B
:10011000F5460008F9460008FD46000801470008BA
:100120000547000809470008274400080D47000854
:1001300011470008154700081947000838B50400A2
:1001400009D004F18005686808B900F01EF800F0D5
:1001500021F8012801D1012032BDA06A08B100F0C8
:100160002AF800F00AF821F02A01FFE7816000F088
:100170001BF8BDE8324000F02EBB2068416821F436
:1001800090414160206881687047002129702046B5
:1001900000F03EBE242068602068016849084900DC
:1001A0000160204600F0B0B92068016841F001010B
:1001B000016020467047204600F0AABA30B500F131
:1001C00080035C68202C41D109B1140001D10120C9
:1001D00030BD1C78012C39D001251D7000F154046C
:1001E00001652280628000212162D960212159604D
:1001F00021698268B1F1005F13D1B2F5805F04BF5D
:100200000169002907BFDFF8F4242262DFF8F01447
:100210002162002119700068816841F40001816049
:1002200012E0B2F5805F04BF0169002907BFDFF863
:10023000D4242262DFF8D0142162002119700068F2
:10024000016841F080010160002030BD022030BD16
:1002500038B500F180039C68202C0DD109B1140041
:1002600001D1012032BD1C78012C05D000F006F828
:10027000BDE8384000F01DBB022032BD01251D70D5
:100280000023C366DFF884440368A34206D05C6899
:10029000250203D51D6845F080651D6070478168A3
:1002A00021F0400181607047206881684A067047EC
:1002B0002068016821F0100101607047F8B504461C
:1002C00040F60F002668F1693268B368084004F10F
:1002D0005C050ED1880602D5900602D4D80040F104
:1002E00080806969002900F00E812046BDE8F44055
:1002F0000847DFF8BC06034204BFDFF8B8763A428D
:100300006FD0CF0707D5D70505D5012737622E6BEC
:1003100046F001062E638E0708D5DE0706D527684E
:1003200002263E622E6B46F004062E634E0708D569
:10033000DE0706D5276804263E622E6B46F00206CD
:100340002E630E070AD5960601D4034206D026680E
:1003500008203062286B40F008002863080509D5A2
:10036000500107D526684FF400603062286B40F0DA
:1003700020002863286B002832D0890607D5900614
:1003800001D4D80003D5696909B120468847286B94
:1003900021688A68510602D410F0280F1BD020462D
:1003A00000F0EBFAFFF780FF10D5FFF778FF286A1F
:1003B00060B10FF219618163286A00F080FE0028A5
:1003C0000ED0286A816BBDE8F44008472046BDE89E
:1003D000F24000F049BF204600F046FF00202863AD
:1003E000F1BD2869012853D1CF0651D5D0064FD58C
:1003F0001020306222689068410626D5296A086874
:10040000406880B20028EBD02B8898427BDA688065
:10041000086801688B0614D4106820F4807010609E
:10042000206881684908490081602068FFF737FF2C
:100430002020E86200202861FFF73AFF286A00F0D8
:1004400008FE29886888091A1CE028886988411AEA
:10045000688800281CBF88B2002854D01368DFF8D1
:10046000440823F4907313602268936803409360F8
:100470002020E8620020286168612068026822F07C
:10048000100202602046BDE8F44089B200F0EDBEE3
:10049000C80209D5580207D54FF4801030622046B3
:1004A000BDE8F24000F05CBF080609D5100601D493
:1004B000180205D5A96931B32046BDE8F4400847C4
:1004C00048060ED550060CD5306820F0400030604C
:1004D0002021A9620020A8612046BDE8F24000F07A
:1004E0005DBF080206D5500004D52046BDE8F240A5
:1004F00000F066BFC80148BF002A04D52046BDE809
:10050000F24000F05EBFF1BDF8B50446DFF8980791
:100510002168DFF898C70A68DFF894770240A0687E
:1005200002432069024360690243E06902430A60B2
:1005300000254A68E06822F4405202434A60A369F9
:10054000724A91421CBF206A03438E68DFF8640739
:10055000064033438B600FF63006CB6A606A1B0996
:1005600040EA0313CB626145DFF84C074FF40043C8
:1005700039D13F6807F00307032F4DD8DFE807F0B4
:10058000024643494FF0010CE169B1F5004F4FF6C7
:10059000F07740F08080BCF1010F09D0BCF1020F70
:1005A0000AD0BCF1040F71D0BCF1080F71D099E0F2
:1005B00001F0F5FA002815D0626A616836F8123049
:1005C000B0FBF3F04A0802EB4002B2FBF1F080B25C
:1005D000A0F11001B942EAD20740C0F3420007433C
:1005E0002068C7607FE0914216D13F6817F44067EA
:1005F00023D0B7F5806F09D0B7F5006F03D0B7F5FA
:10060000406F06D008E04FF0020C07E04FF0040CFA
:1006100004E04FF0080C01E04FF0100C9142B3D110
:10062000BCF1000F09D0BCF1020F0AD0BCF1040FDD
:1006300015D0BCF1080F15D054E001F0A8FA00283D
:1006400051D0616A36F81120B0FBF2F6626802EB15
:1006500042018E4246D31103B14205D242E001F07D
:100660004CFAECE71846ECE75008002110EB0620A6
:1006700051EB1661002301F023FBA0F54071DFF878
:100680003C2691422ED22268D0602CE001F035FA4F
:1006900090E7184690E7BCF1010F09D0BCF1020FBA
:1006A00009D0BCF1040F18D0BCF1080F18D019E024
:1006B00001F075FAB8B1626A36F812306168B0FBC1
:1006C000F3F000EB5100B0FBF1F080B2A0F11001AB
:1006D000B94207D22168C86005E001F00EFAE9E7E7
:1006E0001846E8E7012504F16800012141800180F6
:1006F00000218160C1602846F2BD0000750A000833
:10070000350A0008070A0008DD09000800800040DB
:1007100090F82810CA0706D502685368C16A23F406
:1007200000330B43536090F828108A0706D50268FF
:100730005368016B23F480330B43536090F8281007
:100740004A0706D502685368416B23F480230B43A4
:10075000536090F828100A0706D502685368816B29
:1007600023F400430B43536090F82810CA0606D5C3
:1007700002689368C16B23F480530B43936090F835
:1007800028108A0606D502689368016C23F400538A
:100790000B43936090F828104A0610D502685368FE
:1007A000416C23F480130B435360416CB1F5801FFF
:1007B00005D15368816C23F4C0030B43536090F858
:1007C00028100A0606D501684A68C06C22F4002287
:1007D00002434A607047F8B5044604F180050020E2
:1007E000E8606FF07E4701F083FB064620680168F1
:1007F0000A0708D50097334600224FF4001120461F
:1008000000F017F860B9206801684A070AD5009718
:10081000334600224FF48001204600F00AF808B168
:100820000320F2BD20206860A8600020E0662870E8
:10083000F2BD2DE9F041069C05460E4690461F4646
:100840002868C1693140B1420CBF012000204045F9
:100850001CD114F1010FF3D001F04AFBC01B8442FC
:1008600000D314B900F015F80CE0286801684A07B5
:10087000E6D5C1690A05E3D54FF40062026200F0D3
:1008800008F8C16000210170032000E00020BDE8ED
:10089000F0812868016821F4D071016028688168BE
:1008A00049084900816005F1800020214160816094
:1008B000704730B500F15C0381651A805A800021D1
:1008C0005961FF248168B1F5805F04D1016961B984
:1008D00040F2FF1409E011B9016929B905E0B1F14D
:1008E000805F06D1016911B97F249C8003E03F211C
:1008F00000E00021998000F180040021E1602221C4
:10090000A16001688D6845F001058D609968B1F1BD
:10091000005F1CD19D89AA4219D38268B2F5805F1D
:1009200004BF0169002907BF0FF2ED225A610FF2DF
:10093000512159610021217001680A6842F48072D6
:100940000A600068816841F08051816013E082682C
:10095000B2F5805F04BF0169002907BF0FF295124D
:100960005A610FF269115961002121700068016814
:1009700041F490710160002030BD01680A6822F4E2
:1009800090720A60DFF81C13026893680B40936052
:10099000C16E012904D101680A6822F010020A60C0
:1009A0002021C0F888100021C1660167704700004F
:1009B0000100001020010004136823F0800313607D
:1009C0000068016841F0400101607047806A00F1F1
:1009D000560100220A810A8000F046BCD0F884103B
:1009E00021290FD10268B0F8561001B9E4E7036D70
:1009F00019789162016D4A1C0265B0F856104A1EC2
:100A0000A0F856207047D0F88410212911D102682F
:100A1000B0F8561001B9CFE7036D1988C1F308018A
:100A20009162016D8A1C0265B0F856104A1EA0F84A
:100A300056207047D0F88410212900D0704730B577
:100A400000F15602938A0CE0E1690D0608D5016DAC
:100A50000D78A562016D4C1C04651488611E11801F
:100A60005B1E99B229B1046811880029ECD100F00D
:100A700023F830BDD0F88410212900D0704730B55C
:100A800000F15602938A0EE0E1690D060AD5016D68
:100A90000D88C5F30805A562016D8C1C04651488DA
:100AA000611E11805B1E99B229B10468118800296A
:100AB000EAD100F001F830BDA26822F40002A26081
:100AC0000068016841F04001016070471CB500F00A
:100AD00025F80AD14A6AA1880A40816D0A70816DA1
:100AE0004A1C00F021F821B924E0886940F0080090
:100AF000886113BD1CB500F011F80AD14A6AA188BB
:100B00000A40816D0A80816D8A1C00F00DF821B9C0
:100B100010E0886940F00800886113BD00F15C04B2
:100B20000168E26A222A7047826561884A1E6280F3
:100B30006188704700F01DF801688A685208520009
:100B40008A602021E162002161612169012905D1CA
:100B500000F009F8218800F088FB01E000F014FCA7
:100B60000020206113BD01680A6822F010020A60AB
:100B7000704701680A6822F490720A6070470000AA
:100B80002DE9F04700F0B3F83CD1A089DFF81481DB
:100B900080B96088002837D0A189884234DA00F013
:100BA000A0F8474800F096F82EE0304600F0ECFB45
:100BB00000202061A806ECD500F086F80870B06D22
:100BC000411C00F0B6F814D0E90748BF5FEAC951EC
:100BD00001D500F0B7F8A80703D5F80701D500F054
:100BE000A0F800F091F820B1304600F03DFB002164
:100BF000216360880028DDD100F0B4F8D5D100F081
:100C0000A8F8D5E700F002F8BDE8F087816941F067
:100C100008018161704700002DE9F04700F067F896
:100C20003CD1A089DFF87C8080B96088002837D06B
:100C3000A189884234DA00F054F8224800F04AF8DA
:100C40002EE0304600F0A0FB00202061A806ECD585
:100C500000F03AF80880B06D811C00F06AF814D0FA
:100C6000E90748BF5FEAC95101D500F06BF8A80752
:100C700003D5F80701D500F054F800F045F820B18D
:100C8000304600F0F1FA0021216360880028DDD1B0
:100C900000F068F8D5D100F05CF8D5E7FFF7B6FFB3
:100CA000BDE8F087FEFFFFEFF369FFCF003801409A
:100CB00088000058FFF4FF110024F40000FD0F002D
:100CC000CD0A0008F50A00083068406AB16D0AEAEA
:100CD0000000704760613068016841F020010160E8
:100CE00070473068816821F0805181607047064606
:100CF00006F15C043068B4F804A0C569D0F800902F
:100D00008768E16A22297047680708D5F80706D581
:100D1000316804200862206B40F002002063206BE1
:100D20007047316802200862206B40F004002063A5
:100D30007047B1656088411E61803068C56915F0F3
:100D4000070F704701210162206B40F00100206312
:100D500070473068016821F0100101603046218839
:100D600000F083BA3068016821F480710160306856
:100D7000816808EA010181602020E0620020606152
:100D800020690128704700000100020004000600ED
:100D900008000A000C001000200040008000000144
:100DA0006A4900E06A4981B00A6802430A6009683A
:100DB00008400090009801B0704780B54FF40020C3
:100DC000FFF7F0FF002200212E2001F0B3F8BDE86C
:100DD00002402E2001F0CCB800685E49884200D065
:100DE000704780B54FF48010FFF7DCFF0022002130
:100DF0002C2001F09FF82C2001F0BAF800220021ED
:100E00002D2001F097F8BDE802402D2001F0B0B888
:100E100038B586B004466846142101F0FFF8206812
:100E20004D4A4E4990422CD108684D4D40F001008A
:100E30000860096801F00101059105980120FFF79C
:100E4000AFFF0C20009002210020019102900321AD
:100E500008200391049069464FF0904001F0E2F8B9
:100E600040482860112000F03EF808B101F018FB5E
:100E7000A567AC6200220021252001F05BF8252047
:100E80002DE0394A90422CD14868384D40F48040DA
:100E90004860486800F48040059005980220FFF7FC
:100EA0007FFFC020009002210120019102900321C8
:100EB00007200391049069462D4801F0B3F82D48AE
:100EC00028600F2000F00FF808B101F0E9FAA567DB
:100ED000AC6200220021242001F02CF8242001F033
:100EE00047F807B030BD68601020A8600020E860B7
:100EF0008020286100206861A861E8612862284696
:100F000000F03EB81CB504461B49206888421CD13D
:100F100001F0C8FA01F0C6FA1848816B21F440715B
:100F200041F480718163816B41F400418163026807
:100F300042F480620260006800F4806000900098D3
:100F40002046BDE8164001F0C1BA13BD4C00005860
:100F500050000058000C0058008000405C00005811
:100F6000F803002008000240003801405804002027
:100F70000004004844040240002800405800005883
:100F800038B5040001D1012032BD2168DFF8B0027C
:100F9000814204F1240500F044F8022068700A68D8
:100FA000A0686FF30E120243E06802432069024317
:100FB00060690243A0690243E0690243206A024378
:100FC0000A60204600F011F9A068B0F5804F04BF18
:100FD000002161602079696A00F03F0000F014F898
:100FE00038B1052805D2204600F019F900F012F8B2
:100FF00003E0002028636863A8630020A861012043
:1010000068700020287032BD0860A96AE86A4860EC
:1010100060687047296B00200860696BA86B4860A6
:1010200070470AD2DFF81C0242181423B2FBF3F215
:1010300092002A62DFF8100209E0DFF8100242187D
:101040001423B2FBF3F292002A62DFF80402E86193
:10105000704781B040B100F124014A78022A05D0DE
:101060000420886100200870012026E002681368CF
:1010700023F00E0313604A6A136823F4807313602D
:1010800000680268520852000260012091F8202096
:10109000CB6902F01C02904058608A6AC86A5060AE
:1010A000086B30B1026822F4807202604A6B886B70
:1010B0005060012048700020087001B0704738B5BA
:1010C00000F1240200245178022903D00420906109
:1010D000012428E001680B6823F00E030B6001680F
:1010E0000D686D086D000D60516A0B6823F4807304
:1010F0000B60012192F82030D56903F01C03994060
:101100006960936AD16A5960116B31B10B6823F43D
:1011100080730B60536B916B596001215170147097
:10112000516901B18847204632BDF8B500F124016C
:101130000423CA6914680268156891F8206006F0F3
:101140001C0603FA06F73C4210D06F070ED5146850
:10115000A50603D4156825F00405156000F03DF8D8
:10116000C968002938D0BDE8F4400847022303FAD3
:1011700006F73C4213D0AF0711D51468A50605D475
:10118000156825F00A05156001224A7000F025F85F
:1011900000220A708968F9B1BDE8F44008470823C5
:1011A00003FA06F6344217D02B0715D5136823F03F
:1011B0000E031360012291F82030CC6903F01C0368
:1011C0009A40626001228A614A7000220A700969AD
:1011D00011B1BDE8F4400847F1BD91F82020CC6979
:1011E00002F01C02934063607047416C0268144B2C
:1011F00089089A4234BF174B174B03EB8101816476
:1012000002F0FF02083A1421B2FBF1F1134AC26462
:1012100001F01F01012202FA01F101657047017915
:101220000F4A01F03F0102EB81024265491E0D4A5F
:10123000826501F0030101228A40C2657047000007
:1012400008040240F8FFFDBF00000240F8FBFDBFAC
:1012500000040240000802401C08024080080240CE
:10126000FC080240400902407047704710B500F189
:1012700080010A78012A01D1022010BD01230B70E0
:1012800024224A60026813681468640864001460C9
:101290000022426623F0005300680360202048606B
:1012A0000020087010BD70B500F01EF801D10220BA
:1012B00070BD00F01FF822F0604209E070B500F048
:1012C00013F801D1022070BD00F014F822F0606222
:1012D00011438160204600F01AF820680660202043
:1012E00068600020287070BD044604F180052878ED
:1012F0000128704701222A7024206860206806684F
:10130000026852085200026020688268704730B557
:10131000416E11B90121012214E001680FF230047D
:101320008A6889680FF23003520E02F00702490FF3
:10133000655CA45C595C9A5CED00E40095FBF1F1FE
:1013400094FBF2F268304180028030BD0000000062
:101350000101010307010000080402040801010162
:101360007047704730B9124803601248124B03604F
:10137000FEF76EBF704730B9104803600D480E4B42
:101380000360FEF71BBF704700680B49884204D119
:1013900007490868002818BF0047704700680649D9
:1013A000884204D105490868002818BF00477047E3
:1013B00018050020F8010020003801401C0500201D
:1013C000704770474FF0B040006800F0F000B02860
:1013D00088BFB02070472DE9F041040054D0207838
:1013E00081064FF0B04538D5A868E96810F00C00C8
:1013F00001F0030103D00C2808BF012946D1286859
:10140000800702D5E06900283ED0FFF7DBFF616A64
:10141000884207D2084600F0D3FB002834D100F000
:1014200075FA0FE0286820F0F00001432960696830
:10143000206A21F47F4141EA00216960606A00F07E
:10144000BFFB08BB00F095FBDFF810180860DFF861
:101450001008006801F052F8B0B92078C1070DD526
:10146000A868E96800F00C00082801F0030103D027
:101470000C2808BF03292DD12868800340F1398149
:101480006068002840F03581012038E2E06980B1D1
:10149000296841F0010100F047FA064628688007F4
:1014A00000F1248100F024FD801B0328F6D30320E3
:1014B00025E2286840084000286000F019FD064633
:1014C000286800F01FFAC8D000F012FD801B032826
:1014D000F6D3ECE76068B0F5803F04D1296841F4A9
:1014E0008031296003E02A6822F480322A60606833
:1014F00060B100F0FDFC06462868800300F1F98029
:1015000000F0F6FC801B6528F6D3D0E700F0F0FC75
:1015100006462868400C10F0010000F0EA8000F058
:10152000E7FC801B6528F4D3C1E700F0E1FCC01B99
:101530000328C0F01281BAE7E06878B1296841F465
:10154000807100F0F1F906462868400500F1188125
:1015500000F0CEFC801B0328F6D3A8E7286820F40F
:101560008070286000F0C4FC06462868800A10F0ED
:10157000010000F0DC8000F0BBFC801B0328F4D3EA
:1015800095E700F0B5FCC01B0328C0F00B818EE787
:1015900040F0010000F0CEF907467068800700F1C6
:1015A0001C8100F0A5FCC01B0328F6D37FE7706800
:1015B00020F0040000F0BEF907467068C00810F083
:1015C000010000F0198100F093FCC01B0428F4D343
:1015D0006DE70528306806D140F0040030603168BE
:1015E00041F0010105E0400840003060316821F021
:1015F00004013160A06841F2893768B100F078FCDD
:1016000080463068800700F10C8100F071FCA0EB8F
:101610000800B842F5D34AE700F06AFC804630681B
:1016200000F070F900F0FD8000F062FCA0EB080013
:10163000B842F4D33BE700F05BFCC01B0328C0F0CA
:10164000FE8034E7B06840084000B06000F050FC15
:101650000746B06800F056F900F0F58000F048FC4D
:10166000C01B0328F5D322E700F042FC801B0328AF
:10167000C0F01F811BE700F03BFC001B0328C0F0FB
:10168000398114E7286881010CD4296841F0807100
:101690002960E86840F08050E86000F029FC0446CA
:1016A0002868810100F12A8100F022FC001B032838
:1016B000F6D3FCE60C2931D0286820F08070286031
:1016C000E968DFF8A00589088900E960E968014058
:1016D000E96000F00DFC04462868810140F10E81AC
:1016E00000F006FC001B0328F6D3E0E600F00EF93C
:1016F000B3E6207881071AD5A868E96800F00C00E5
:10170000042801F0030104D00C2808BF02297FF44B
:1017100013AF2868400503D5E06800283FF4B4AE55
:101720006968206921F0FE4141EA00616960216831
:10173000DFF8346511F0180F38D0606900283FF4E5
:1017400036AFC90670687FF523AF800709D470688B
:1017500040F0010000F0EEF80746706880077FF562
:10176000E4AE706840F0040000F0E4F807467068EA
:1017700000070DD400F0BCFBC01B0428F7D396E68D
:101780006868216920F0FE4040EA01606860CEE7A9
:101790007068A16920F4706040EA0120706000F078
:1017A000C6F8074600F0ADF87FF4EBAE20784107AD
:1017B00037D5DFF8B8743868C10529D400F072FE57
:1017C00000F096FB80463868C10521D400F090FBFC
:1017D000A0EB08000328F6D369E6706820F0040047
:1017E00070607068C00810F00100DFD000F080FB6E
:1017F000C01B0428F5D35AE600F099F8074600F01C
:1018000080F8D3D000F074FBC01B0328F7D34EE65A
:10181000A06801287FF4DDAE306840F00100306040
:10182000E8E6217848060ED5A06A00283FF40AAF02
:10183000B16841F00101B16000F05AFB0746B068A1
:1018400080077FF5F8AEE06A002857D0A968EA68FB
:10185000022801F00C017FF42DAF236B02F003008E
:10186000984202BF02F07000636B984214D1A36BE0
:10187000C2F30620984202BF02F47810E36B98424C
:101880000AD1236C02F06060984202BF02F060420D
:10189000606C82423FF4F6AE0C293FF4F5AD286847
:1018A00041013FF5F1AD296821F0807100F03CF86D
:1018B0000646286881013FF5D7AEE968DFF8B00336
:1018C000A26B0140206B0143606B0143E06B41EA76
:1018D00002210143206C0143606C0143E9602868E8
:1018E00040F080702860E96841F08051E96000F0C4
:1018F000FFFA0446286881017FF5BDAE0020BDE8EF
:10190000F0817068400810F0010070472968606A33
:1019100021F0F001014329606868216A20F47F40CA
:1019200040EA012068607047296000F0E1BA706801
:1019300040084000706000F0DBBA2DE9F843040075
:10194000884644D0DFF82C6300F0CBF847D200F093
:10195000CDF8074600F0C5F841D000F0C9FAC01B29
:101960000228F7D90320BAE000F0C2FA401B02288F
:1019700043D9F7E700F0BCFAA0EB090002284CD9E4
:10198000F0E700F0B5FAA0EB0900022854D9E9E726
:1019900000F0AEFA401B02285DD9E3E700F0A8FA98
:1019A000401B022867D9DDE700F0A2FA401B48453A
:1019B00077D3D7E7032802D13968890103E00028EB
:1019C000396802D1890762D401E049055FD401205A
:1019D00085E000F08DFAC01B022872D9C2E720789A
:1019E00081074FF0B0470BD5B968A06821F0F0012E
:1019F0000143B96000F07CFA0546B868C003B3D56E
:101A00002078DFF8545281060AD52968606921F0F0
:101A1000F0010143FFF788FF814628688003A9D5BC
:101A2000207841060BD52968A0690909090141EA16
:101A30001011FFF779FF81462868C003A1D52078EF
:101A400041070BD5B968E06821F4E0610143B96052
:101A500000F04EFA0546B868800399D52078010752
:101A60000CD5B868216920F4605040EAC100B86024
:101A700000F03EFA0546B86840038FD52078C107CC
:101A800017D56068022895D1396889039FD5B96850
:101A9000890840EA8100B86041F2893900F028FAEB
:101AA0000546B868616800F00C00B0EB810F7FF468
:101AB0007BAF306800F00700804505D200F016F8D3
:101AC000074600F00EF884D100F053F8DFF88C11CF
:101AD000086000F049FDBDE8F24300F00FBDBDE82D
:101AE000F283306800F00700404570473168C9084C
:101AF00048EAC101316000F0FBB938B54FF0B0449D
:101B00005E4DA16811F00C0106D1FFF75BFCC0F33C
:101B1000031055F8200032BD0429594A05D0082980
:101B2000584804D12168C90222D5104632BDE16867
:101B300001F00301022904D0032904D12168C9025C
:101B400007D5104605E0FFF73DFCC0F3031055F83C
:101B50002000E168E268E368C1F306214843C2F36C
:101B60000211491C5B0FB0FBF1F05B1CB0FBF3F002
:101B700032BD80B5FFF7C1FF3F49FFE7424A096820
:101B8000C1F3031152F82110B0FBF1F002BD80B592
:101B9000FFF7EFFF00F010F8C1F3022106E080B577
:101BA000FFF7E7FF00F008F8C1F3C22112F8211097
:101BB00001F01F01C84002BD2F49344A096870472F
:101BC00070B52E49B1282EBFCC6AC0F3031051F86E
:101BD00020402148056800F0E7FC2B492C4A05F01D
:101BE0000F0551F82510B4FBF1F10024B1FBF2F11F
:101BF000B0F5007F0FF2B802204609D10FF294032E
:101C000053F820508D4214D2401C0328F8D912E01A
:101C10000FF2900353F820508D420AD2401C032843
:101C2000F8D308E000F064F9801B03280CD30320EC
:101C300070BD52F820400F4D2868C00844EAC0002B
:101C4000286000F055F90646296801F00701A14215
:101C5000E8D1002070BD00000801005850000020AD
:101C600034000020FFFFFEEE9000005800040058F2
:101C70008C80C1110040005808000058B44300088F
:101C80000024F4000048E80174430008A845000857
:101C900040420F0012000000240000003600000047
:101CA00040000000060000000C00000010000000D2
:101CB000000000000100000002000000030000001E
:101CC000B3BBD9B1B2F5803F7DD2022A1ED98C4672
:101CD000B1FBF2F102FB11C31B0443EA1043B3FB57
:101CE000F2FC02FB1C3380B240EA0343B3FBF2F088
:101CF00002FB103240EA0C4000237047022A05D94B
:101D00008446B0FBF2F002FB10C270474AB105D125
:101D100000F0010249085FEA30007047002200230A
:101D2000704700F049BC0B00020000210020704702
:101D3000904271EB030CF6D3B3F5803F2FD2F0B590
:101D4000B3FA83F7B1FA81F4A7F10F0E3D1B5340AC
:101D5000CEF1200602FA0EF2F3415340B5F10F071F
:101D600046D80F3C2C444140C4F12006A040F1412C
:101D70004140B1FBF3F603FB1611A2FB0645001B25
:101D8000A94102D2761E8018594180EA010221FA47
:101D90000EF362FA0EF200215A403046F0BD30B424
:101DA000B1FBF3FC03FB1C11A2FB0C45001BA9417A
:101DB00003D2ACF1010C8018594130BC02460B46ED
:101DC000604600217047B2F1807F65D3F0B5B2FA6A
:101DD00082F7B1FA81F4C7F10F063D1B22FA06F330
:101DE00007F1110EF24120355A40B5F10F07B8D96D
:101DF0004140C4F12006A040F1414140B1FBF3FC59
:101E000003FB1C11A2FB0C45001BA94103D2BCF132
:101E1000010C801859410F2F12D30F3FC90341EA1B
:101E20005041B1FBF3F603FB1611A2FB0645D4EBC0
:101E3000C030A94102D2761E8018594146EACC3CF6
:101E400007B34140C7F12006B840F1414140B1FB22
:101E5000F3F603FB1611A2FB0645001BA94102D2B3
:101E6000761E8018594180EA010221FA0EF3C7F16B
:101E7000200462FA0EF20CFA07F05A402CFA04F130
:101E80003043F0BD80EA010221FA0EF3002162FA2C
:101E90000EF260465A40F0BD8C46B1FBF2F102FBF7
:101EA00011C31B0243EA1063B3FBF2FC02FB1C33B9
:101EB0001B024CEA002043EA1063B3FBF2FC02FB76
:101EC0001C331B024CEA002043EA1063B3FBF2FC14
:101ED00002FB1C331B024CEA002043EA1063B3FBF5
:101EE000F2FC02FB1C324CEA0020002370477047D2
:101EF00001484068704700BF2C0000200901020023
:101F000081B002D43C48815405E03C4802F00F0205
:101F1000104400F8041C01B07047394A13684FF6AA
:101F2000FF0100020B4000F4E0601843354908430C
:101F30001060704738B5324B1C68C4F30223C3F1FC
:101F40000704052C28BF04241D1D072D34BF0023C2
:101F5000DB1E012505FA04F4641E2140994005FAB0
:101F600003F35B1E1A401143BDE83440C6E700008E
:101F7000010007D4012200F01F01234B8A404009D1
:101F800043F82020704701000BD4012200F01F010C
:101F90001E4B8A40400943F82020BFF34F8FBFF308
:101FA0006F8F704710B5401EB0F1807F01D30120C4
:101FB00010BD174C60600F214FF0FF30FFF79EFF00
:101FC0000022A26007202060002010BD010007D47D
:101FD000012200F01F010F4B8A40400943F82020E6
:101FE0007047010007D4012200F01F010A4B8A400C
:101FF000400943F82020704700E400E018ED00E0BD
:102000000CED00E00000FA0500E100E080E100E0F6
:1020100010E000E000E200E080E200E0002200F0DA
:10202000CDBA00002DE9F84F4FF00009644A654B26
:102030004FF00F0805460E4633E0634FBD4214BF14
:10204000072704278F4027434CF82E70C1431C6894
:1020500001EA040C7468E40348BF40EA0C0CC3F8BE
:1020600000C05C6801EA040C7468A40348BF40EA3D
:102070000C0CC3F804C0146801EA040C7468E40290
:1020800048BF40EA0C0CC2F800C0546801EA040CD6
:102090007168890248BF40EA0C0CC2F804C009F11B
:1020A0000109316831FA09F077D0012404FA09F402
:1020B00014EA0100F3D04FEA490C032101FA0CF1B4
:1020C0006FEA010E7168012918BF022903D0112996
:1020D00018BF122911D1A968F7680EEA010107FAA1
:1020E0000CF73943A960696821EA04047168C1F3F7
:1020F000001101FA09F10C436C60E968B4680EEA5A
:10210000010104FA0CF42143E9604FEA8901746883
:10211000022C18BF122C12D14FEAD90405EB84040B
:1021200001F01C07D4F820A008FA07FB2AEA0B0AE2
:10213000D6F810B00BFA07F747EA0A0727622C68AF
:102140000EEA0407347904F0030404FA0CF43C4367
:102150002C607468E400A2D5DFF870C04FEA990ED5
:102160005CF82E7001F00C0108FA01F427EA04046F
:10217000B5F1904F08BF00270ED0154FBD4208BFE4
:10218000012709D0134FBD4208BF022704D0124FC8
:10219000BD427FF452AF032754E7BDE8F18F81B011
:1021A000002A14BF8161816201B070470B4A136835
:1021B00003421CBF106000F09DBA70470000000091
:1021C000000800588008005800100048080001402E
:1021D0000004004800080048000C00480C080058A3
:1021E000A04900E0A04981B00A6802430A6009687A
:1021F00008400090009801B0704738B59B499C4C4E
:102200004FF40040086000F09BF9606840010ED573
:102210006068C0000BD400F045F900F043F9206875
:1022200040F480302060216821F48031216000F08A
:10223000DEF8002000F064FA40B180798D49E16059
:10224000E16821F47C5141EA0021E16000F053F89B
:10225000894C8A488A4D606204F1240000F062FAD9
:102260008848016800220260026902F0500202619F
:102270000420FFF7B7FF0120FFF7B4FF0220FFF7AC
:10228000B1FF0420FFF7ACFF0220FFF7A9FF0120F8
:10229000FFF7A6FF00220F210B20FFF74BFE0B20BC
:1022A000FFF766FE00220F213A20FFF743FE3A2097
:1022B000FFF75EFE0020606025600F20A06047F6FB
:1022C000FF70E06000202061A061E0616061204655
:1022D00000F060FACA206862FF2153206862A86893
:1022E000C008C000A860696200F082F94FF0FF30BA
:1022F00000F0F4FAFAE710B5AEB01CA84821FFF7D9
:102300008DFE01A81C21FFF789FE08A85021FFF7C8
:1023100085FE00F0C7F85648016821F018010160F9
:1023200007215948026822F4C06242F40072026038
:102330004FF48032006800F4C06000904FF4807465
:1023400000981C9101201E900021402020901D9299
:1023500027911F941CA8FFF73EF86F2001900221DF
:1023600000200291039004900590069007900121AF
:1023700001A8FFF7E2FA43F60300089000214FF4AA
:10238000804019900E910F91102002211B901A91FC
:10239000189408A800F08AFB2EB010BD10B53B4C75
:1023A0003B4800F017F84FF40040E0610020206245
:1023B0006062A0622046FDF7C1FE00212046FEF7C4
:1023C00072FF00212046FEF779FF2046BDE810404D
:1023D000FEF74CBF20604FF4E13060600020A06049
:1023E000E06020610C2060610020A06170472948F6
:1023F00081B0016841F4801101603F21006800F460
:10240000801000900098244841604161016841F4C7
:102410007C110160026942F47C120261016841F0A2
:102420003F010160026942F03F02026101B0704762
:1024300038B50446FFF75CFD14F1010F054609D0DD
:1024400000F095F8241805E01448016821F0040113
:10245000016030BFFFF74CFD401BA042F4D331BDFB
:1024600000000000480000584C0000581040005880
:1024700090000058FECAFECA98030020000C0058C5
:10248000002800408008005800040058F80100208F
:102490000038014050000058040C005810ED00E0D6
:1024A000704700000248016841F480710160704784
:1024B000000400588A60FF2102685162012180F8FF
:1024C0002110002180F820100020704790F8201083
:1024D000012901D102207047012280F82020022129
:1024E00080F82110CA2102685162532103685962A1
:1024F00001688A6842F02002FFF7DCBF70B50F4E1A
:10250000044630780025A8B1FFF733FB32784FF44A
:102510007A71B1FBF2F1B0FBF1F0FFF743FD48B97E
:10252000102C07D2002221464FF0FF30FFF702FDAA
:10253000B46000E00125284670BD00BF2C000020DB
:10254000164810B5016841F4807101600320FFF75F
:10255000E4FC0020FFF7D2FF0024002814BF012470
:10256000FEF72BFC204610BD0D48806870470C48D4
:10257000007870470B480BE00A48016821F002011F
:10258000016070470748016821F00401016070474D
:102590000168490849000160704700000040005888
:1025A0002C000020042004E0DFF80800006800F49C
:1025B000C0607047000400587047000000B500BFBD
:1025C000130096469446103928BFA0E80C50FAD85C
:1025D0005FEA417C28BF0CC048BF40F8042BC90704
:1025E00028BF20F8022B48BF00F8012B00BD0000D7
:1025F00018B53748374C89B0016841F40041016093
:1026000000F0D2FB34480168C908C90041F0040158
:1026100001600020314900F082FD00F0A6FE01219A
:10262000012000F0D3FB002000F0EFFF012000F0BC
:10263000ECFF022000F0E9FF012001F00EF801217B
:10264000002001F01EF801F073F8254801F069F947
:102650000FF259020021202000F0A5F904F23C50AD
:10266000029020490FF22D0001900091684601F080
:10267000B8F804F25470039004F5C96140F23C507C
:1026800006900491059403A801F0E4F801F04EF8D7
:102690000AB010BD80B50146114801F04EF9BDE801
:1026A00004400021202000F08BB9000080B500F02C
:1026B0008AFE0021012000F089FB6946084801F0EC
:1026C00052F9009801F0DFF801F05EF901BD000059
:1026D00008000058300003208004005898030020B0
:1026E000E4040020533A000800F084BB4FF0FF30B0
:1026F00000F0F4B8102808BF01F0BAB97047000024
:1027000001460648064AC3798B4218BF904218BF5B
:102710000838F8D18B4218BF00207047F873FF1FAC
:102720000070FF1FF8B504460025ACB104F1340673
:10273000307910B92046FEF74FFB0F4F384600F0B6
:1027400021F8386840F001103860204600F007F8A2
:1027500035600120307100E001252846F2BD10B53A
:102760000021064A064B00EB8104491C06296360E0
:10277000E261F8D310BD0000000C0058EF1E000805
:1027800063130008002101604FF03F1141603F21B9
:102790008160704738B5040044D094F8210028B90E
:1027A000002184F820102046FEF7ACFB00F049F829
:1027B000FF2510B100F03FF834E02168DFF8B000E9
:1027C0008A6802408A6021688A68636820690343D6
:1027D000A06903431A438A602168E06808612068A1
:1027E0000169A26841EA024101612068C16821F0E3
:1027F0008001C1602068C16C89088900C1642168BA
:10280000CA6CE369606903431A43CA64206881683B
:10281000880609D400F020F830B120684562042110
:1028200000F01FF8012032BD20684562012184F8C4
:102830002110002032BD20684562042184F8211057
:102840007047022084F82100CA2021684862532082
:1028500022685062204626E020460BE02068C0F83F
:10286000248084F82110002084F8200070470000A4
:10287000BFFF8FFF70B5044640F2E9362068C1689B
:1028800021F0A001C160FFF733FB05462068C16855
:10289000880606D4FFF72CFB401BB042F6D303207A
:1028A00070BD002070BD70B504462068C1684A063E
:1028B00012D44FF0FF32C26040F2E936FFF718FB46
:1028C00005462068C168480606D4FFF711FB401B87
:1028D000B042F6D3032070BD002070BD2DE9FC4747
:1028E000544CDFF85491A5692840A0614FF0FF3A9D
:1028F0004FF0010830E0491C54F831000642FAD08C
:1029000004EBC106184071681040014208BFC6F8C8
:1029100004A07768384000F091F8606208FA00F08F
:1029200087437760EFF3108172B6626A206908FA14
:1029300002F2D24310402061022004EBC00353F89E
:10294000086C1640401E43F8086CF6D181F31088DD
:10295000606A59F82010884763692069A2691840A5
:10296000104207D0E069216A084203D1002103EA3E
:102970000206C1E7C4F824A001F0E0F9EFF31089E2
:1029800072B6216960690140A069014201BFE16935
:10299000206A0142FFF7A8FE89F3108801F0CFF901
:1029A000A561BDE8F38738B51446EFF3108572B61C
:1029B00000F044F8204941F8204085F3108831BDEB
:1029C00010B500F00BF804431C6153F8314020436C
:1029D00043F83100FFE782F3108810BDEFF3108257
:1029E00072B6144B1C697047506181F310887047B0
:1029F000EFF3108172B60F4AD3691843D061F4E740
:102A0000F8B50C4C656A276A2E4615F1010F0EBF0A
:102A10000025012101FA05F5206202E02846FFF7B2
:102A200065FE216AE0690842F8D088436662E06189
:102A30002762F1BD04000020180300200246002098
:102A4000110C090404BF1020120412F07F4F04BFC0
:102A5000083012020FF2180112F0704F04BF001D6F
:102A60001201120FC0F11F00895C401AC0B27047FA
:102A70000403020201010101000000000000000047
:102A8000DFF820130A68030903F47F2300019A4347
:102A900000F47F2000F082B9DFF808231368010CEE
:102AA00023EA014343EA0043136070472DE9F843EA
:102AB000054600242878DFF8EC624106A0464FF076
:102AC000B0472DD5286B70B1B0F5800F06D0B0F5AA
:102AD000000F18BFB0F5400F17D01FE0F86840F4A2
:102AE0008030F860EDE0386820F080603860FFF7F3
:102AF000FFF981463868000140F1D080FFF7F8F90E
:102B0000A0EB09000228F5D90324D7E0FFF7F0F97C
:102B1000A0EB0900022840F2C980F5E70124A04695
:102B20002868010531D5B06800F44078286C8045EC
:102B30002AD0FFF7B7FCB8F1000FB16805D1286CB7
:102B400021F440710143B1601EE0B06840F4803070
:102B5000B06021F44071B06820F48030B060286C1F
:102B60000143B160B068C0070ED5FFF7C1F98046D8
:102B700041F28939B068800706D4FFF7B9F9A0EBB4
:102B800008004845F6D30324A0462878C10705D598
:102B90003168A869890840EA810131602878810795
:102BA00005D53168E86921F4406101433160287836
:102BB000C10644BFA86AFFF76FFF2878810644BFAB
:102BC000E86AFFF769FF2878410744BF286AFFF7E2
:102BD00057FF2878010744BF686AFFF751FF28684C
:102BE000C1051BD53168686B21F04061014331603C
:102BF000686BB0F1006F00F0BDF8686BB0F1806FEA
:102C000075D100F0BDF804463868000160D5FFF7C3
:102C10006FF9001B0228F7D94FF0030867E0FFF7B0
:102C200067F9001B02285BD9F6E7316821F04041C3
:102C3000316020F08050326822F0406210433060F2
:102C4000A86BB0F1C05F00F095F8286841056DD51C
:102C50003168E86B21F0405101433160E86BB0F11D
:102C6000005F03D1F96841F48031F960E86BB0F19D
:102C7000805F5BD100F084F804463868000146D5D7
:102C8000FFF736F9001B0228F7D94FF003084DE093
:102C9000FFF72EF9001B022841D9F6E700F061F892
:102CA000A86821F4781100F071F8814638680001B5
:102CB0007FF52CAF3969686901433961002C7FF4D5
:102CC0002EAF3168286B21F440010143316027E7C2
:102CD00000F047F8E86821F0606100F057F804461A
:102CE000386800019BD539696869014339612868F2
:102CF0008105AAD5A86BB0F1804F1CBFB0F1004F81
:102D0000002892D1316821F04041084397E700F054
:102D100028F8286921F0604100F038F80446386846
:102D20000001B5D539696869014339612868C10472
:102D300005D5F168686C21F440410143F1602868D1
:102D400081040BD5796AE86C21F030010143796286
:102D5000796AA86C890840EA810179624046BDE839
:102D6000F2833869696820F4FE4040EA0120386146
:102D70003969704703D1F96841F08071F960704793
:102D8000396821F080613960FFF7B2B801433961D9
:102D9000386840F080603860FFF7AAB810430860D8
:102DA0007047000088000058204800210160416001
:102DB000704710B500F019F81C6819B1012904D149
:102DC000204301E024EA000018600BE010B500F099
:102DD0000CF85C6819B1012904D1204301E024EA10
:102DE0000000586082F3108810BDEFF3108272B6B5
:102DF0000E4B704738B5EFF3108472B60B490C4D8B
:102E0000086820B129688847686880470AE04868F0
:102E100020B1A9688847E868804703E028698047AF
:102E20006869804784F3108831BD0000EC040020FD
:102E300010460008DFF8F0140A6892B200E002467B
:102E4000086880B28242FAD170472DE9FC410446FD
:102E50001825DFF8D884DFF8D864684308EB00074A
:102E60003078062808D131787170347078754FF059
:102E7000FF307060002039E000F077F8B968091879
:102E8000B96008F10803B96832786A439A589142E8
:102E9000327813D308F1150315FB02FC13F80C303C
:102EA000062B25D008F108066B43F358994222BF40
:102EB00008F115036A439A5CEED219E011463378A3
:102EC00069439A420BD008F1140308F1150C5B5CBE
:102ED00015FB03F50CF805407A753B7500E07A7533
:102EE00008F114025454317871703470BDE8F681E1
:102EF0001146694308F115035B5C062B04D008F109
:102F0000140615FB03F574557B753A7508F1150227
:102F10005454EBE7F8B5DFF81834DFF810541E7896
:102F2000182402466243B0422A4404D118785870EB
:102F3000507D18700FE0167D507D92F815C005F198
:102F400015076643062807F806C004D0167D143519
:102F500014FB00F42E55012010731878062802BFC8
:102F600000294FF0FF315960F1BD10B5DFF8C043C3
:102F7000606810F1010F0FD0FFF75CFF6168DFF8A8
:102F8000B423814261683CBF5388C918081A51783C
:102F900048431178C84000E0002080B210BD2DE900
:102FA000F84FDFF89053DFF890B3D5F80880D8F8E1
:102FB0000000DBF800104A0500F06AF9DFF87063E2
:102FC000DFF868A321F4806181604FF0180934783C
:102FD0000AF1080019FB04F14758FFF7C6FF8742C2
:102FE00017D200270121B170062C3DD019FB04F443
:102FF0000AF108010AF108020959814223BF0AF1C6
:1030000008010959091A002111510AEB04014C7DEC
:10301000EAE7A9884118B94202D2AF880021E2E765
:103020003F1ADFE7022802DA2878012800D07F1E45
:10303000D8F80000C1684A07FAD500F02FF9DBF88C
:103040000C00000CBFB247EA0047CBF80C70FFF74A
:10305000F1FE7060A8680068816841F48061816059
:10306000AFF30080BDE8F18FB8B20028DAD1FFF7E6
:10307000E1FE70600320BDE8F24FFEF7A7BF2DE927
:10308000F843EFF3108872B6AA4DA84BA868016800
:10309000CA224A6253204862A54A886820F48060A8
:1030A000886018201678374647431F44387B02282B
:1030B00026D13C68D7F810909078F0B17A7B012A3D
:1030C0000AD101213046FFF725FF88F3108879687F
:1030D000304600F0F0F804E088F31088304600F045
:1030E0009BF8A8680068CA214162224653214162C8
:1030F0004846314600F02AF90BE0FFF750FF06E0A2
:10310000C8684207FCD500F07EF88C49086088F357
:103110001088FF21A86802685162BDE8F183F8B504
:10312000844CA160CA2209684A6253224A62824AD8
:10313000136843F020031360136803F00703C3F11F
:103140000403237095682D0C05F07F056D1C6570D8
:10315000EDB29268C2F30E02521C628092B2521E0D
:103160006A43A2F5A072DA404FF6FF739A422CBF71
:10317000A380A280724A136843F400231360714B4A
:103180001D6845F400251D6048BB6948674E012352
:10319000837018254FF0FF33436000235FFA83FCF0
:1031A00006F10C0715FB0CFC4FF0000E07F80CE0C5
:1031B0005B1CDFB2062FF1DB06230370886820F466
:1031C0008060886000F01FF8D0600320FEF709FFE0
:1031D000A1680868826842F48042826005E0C8689D
:1031E000410544BF0320FEF7F1FEA1680A68FF20F5
:1031F0005062002203210320FEF79CFEBDE8F2404E
:103200000320FEF7B5BEC86800F0800060F490604F
:10321000C8604FF400207047F8B50746EFF31084FC
:1032200072B60320FEF7AFFE424DAE683068CA2189
:1032300041623A4653214162182043494243895C26
:1032400002291BD100213846FFF764FE3848017877
:1032500006290ED1306838490A68530500F018F87D
:1032600021F480618160C1684A07FCD500F016F83E
:1032700004E04078884218BFFFF791FEA9680A6809
:10328000FF2050620320FEF773FE84F31088F1BD27
:1032900002D5C1684A07FCD481687047C16801F053
:1032A000800161F49061C1604FF4002023490860FF
:1032B0000320FEF796BE2DE9F04180460F464246B8
:1032C00018201A4942438C18207B022804BF40462C
:1032D000FFF7A2FFEFF3108572B60320FEF753FE4F
:1032E000144EB0680068CA21416253214162022035
:1032F0002073A76067604046FFF7A7FD0C490A7876
:103300004978914202D0FFF74AFE02E0A168081A0C
:10331000A060FF20B1680A6850620320FEF728FE13
:1033200085F31088BDE8F08128280040880200203D
:103330000C050020D8040020082800400C08005884
:103340000008005880080058940200201047000030
:10335000564900E0564981B00A6802430A6009688C
:1033600008400090009801B0704718B585B06846D5
:103370001421FEF753FE032001904FF46041002416
:10338000009102940120FFF7E3FF00F097F8474C0B
:103390002068400840002060182100910220FFF7BB
:1033A000D7FF69464348FEF73DFE206820F0020043
:1033B0002060FFF7DFF8FFF7DFF8FFF7E3F800F032
:1033C00011F806B010BD00B587B068460FF20821AD
:1033D0001C2200F0C5FC00F072FA684600F012FDF5
:1033E00007B000BDF0B585B068461421FEF716FEA3
:1033F00000260025002400210FF2CC0000EBC102C2
:10340000907988B11368B3F1904F08D0294FBB422F
:1034100008D0294FBB4204BF9088044304E0908841
:10342000064301E090880543491C2229E4DB002083
:1034300002900121032003900191B0B270B100907D
:103440000120FFF785FF0120FFF784FF00F036F829
:103450000022B1B24FF09040FEF7A1FEA8B280B1B9
:1034600000900220FFF774FF0220FFF773FF114E58
:1034700069463046FEF7D6FD0022A9B23046FEF777
:103480008EFEA0B280B100900420FFF761FF0420FF
:10349000FFF760FF084D69462846FEF7C3FD00228E
:1034A000A1B22846FEF77BFE05B0F0BD4C000058E7
:1034B0004C010058000400480008004869464FF0DD
:1034C0009040FEF7AFBD0000000000480100000082
:1034D000000000480100000000000048010000005A
:1034E000000000480100000000000048010000004A
:1034F000000000480100000000000048010000003A
:103500000000004801000000000000480100000029
:103510000000004801000000000000480100000019
:103520000000004801000000000000480100000009
:1035300000000048010000000000004801000000F9
:1035400000000048010000000000004801000000E9
:1035500000000048010000000000004801000000D9
:1035600000000048010000000000004801000000C9
:1035700000000048010000000000004801000000B9
:1035800000000048010000000000004801000000A9
:103590000000004801000000000000480100000099
:1035A0000000004801000000000000480100000089
:1035B0000000004801000000000000480100000079
:1035C0000000004801000000000000480100000069
:1035D00000000048010000000000000000000000A2
:1035E00000000000C8340008280003202C0003203D
:1035F00022040400444981B00A6802430A60096851
:1036000008400090009801B0704778B585B0044636
:1036100068461421FEF702FD0220FFF7EBFF00F0E1
:1036200010F80095012001900021022003900291E2
:10363000694656F82400FEF7F5FC00F008F806B0DD
:1036400070BD0FF2D400314E30F81450704756F868
:10365000240000222946FEF7A2BD0FF2BC012B4B2D
:1036600031F8101053F820000122FEF798BD0FF238
:10367000A801264B31F8101053F820000022FEF765
:103680008EBDF0B585B005460C4668461421FEF7A0
:10369000C5FC0DB9042004E0012D18BF022D02D194
:1036A0000820FFF7A7FF2000194E0FF274070DD175
:1036B00037F81500009000210191012002900221AD
:1036C000039100F01BF80120FEF7B2FE012C13D18C
:1036D00037F81500009001210E480190029100F08A
:1036E0000DF80FF24400445D00220F2160B2FEF796
:1036F00021FC60B2FEF73CFC05B0F0BD694656F80F
:103700002500FEF78FBC00004C0000583800002058
:1037100044000020000021102000010002000000F1
:1037200010000100020000000A06070000F0E6BBDE
:1037300071487249016001F12002426001F13002DA
:10374000826001F13C02026201F14402426201F135
:103750004C02C26001F15402026101F17002426147
:1037600001F1740282618031C16100F0E5BB38B5BE
:103770000446634D284600F0D4F85F484068A168CD
:103780000160E168C16085605E49416000F0F0FB66
:103790005D4834E080B558484268136801211972C9
:1037A000406800F0EBFB002002BD38B5564C544D8C
:1037B00004E000F04BF8009821688847284600F0A4
:1037C000B3F80028F5D031BD80B54B494A68D168BF
:1037D0000220087200F0D7FB002002BD4A48416871
:1037E000084738B50446494D284600F09AF8424843
:1037F000C068A1680160456000F0CEFB44482168C4
:10380000016061684160002032BD80B53A48C268FD
:10381000136810211972C06800F0C4FB002002BDBB
:1038200035483B4AC168C16813680868184738B50D
:10383000374C364D04E000F009F80098616888477D
:10384000284600F071F80028F5D031BD69462846B9
:1038500000F089B838B504462E4D284600F061F8CE
:103860002D4800F05EF824480069A1688160E16895
:10387000C160056121680160616841602169416141
:103880006169816131BD80B50146234800F055F87A
:10389000BDE802400FF2050000F094BB38B5164CAD
:1038A0001D4D06E0FFF7D2FF00992069006900F086
:1038B00044F8284600F038F80028F3D031BD10B5A0
:1038C000164C204600F02DF80B4841690C60BDE80D
:1038D000104000F08BBB1CB5104C06E0694620463A
:1038E00000F041F8009800F01BF8204600F01CF8AA
:1038F0000028F3D013BD000000000320B40A032009
:10390000500B0320A40A0320FC040020580B0320C2
:1039100004050020400B0320F4040020480B032082
:103920007047006040607047EFF3108172B6026824
:1039300082420CBF0120002012E0EFF3108272B629
:10394000086043684B6041604868016019E0EFF32C
:10395000108172B64268036813600268436853605E
:1039600081F31088704710B5EFF3108472B60268C7
:103970000A600068FFE7FFF7EAFF84F3108810BDD4
:103980000B6082F31088704710B590B004A80FF256
:103990007C31DFF85043302200F0E2F92068DFF894
:1039A00048434FF6FC7101EA8001DFF840034118FB
:1039B000DFF83C030290E16000F5867003900FF29F
:1039C000B9210FF2CD20019000916846FFF7CFFE9C
:1039D00001210220FFF7FAF901210220FFF7E9F99E
:1039E0000020E070A07004A800F004FA0FF20112A9
:1039F00000210820FEF7D7FFBE4A00210120FEF774
:103A0000D2FF0FF2990200211020FEF7CCFFBA4A34
:103A100000210220FEF7C7FFB84A00210420FEF76C
:103A2000C2FF012060700020A06004F11800FFF7C1
:103A300078FFFEF7B3FC04F11000606000202070F6
:103A400001220FF2011304F11001FDF78BFC10B0FD
:103A500010BD80B5A44A917831B10020907001204A
:103A6000BDE80240FEF7C4BF014602F1180007E1BD
:103A700010B59D4CE07830B90120FFF7F8FD012129
:103A8000E170002105E00120FFF7E7FD0020E07074
:103A90000121BDE810400220FFF78BB938B5EFF3E4
:103AA0001084914D6878012821D10021697005F1B9
:103AB000180005F10801FFF756FFE878A0B9A868DB
:103AC0000FF28113017A022972B607BFB0F80B20FA
:103AD000521D827AD21C00F1080192B20020FDF73B
:103AE0004AFC84F3108831BDBDE83140AAE031BD05
:103AF00010B5834CB4F809004FF66052811A04D017
:103B0000491E06D0491E08D00BE0204600F086FA78
:103B100011E0204600F0BDFA0DE0204600F0DFFA8B
:103B200009E0A0810120A073E072212020720E2004
:103B300060720420A07221467248FFF7FEFEBDE8C5
:103B40001040A1E0F8B5684D69682A78002400208B
:103B50001AB1022A64D013D358E00978012905D09C
:103B6000022907D0102918BF202907D10120287069
:103B700003244BE001202870042447E0012445E0A1
:103B80000E78E868022E11D0102E02D0202E03D01D
:103B90001CE0CC78C0681BE0CC78594805F11001D6
:103BA00000F108070A6840F8082F18E04068CA7852
:103BB0000979C36802EB012403F10807052205F126
:103BC0001001384600F0BCF8052009E0CC784068C8
:103BD000016805F1100001F108070168396004204F
:103BE0006F60A1B211B1022129700FE0022E25D021
:103BF000102E1DD0202E1ED000210120FEF7E0FE49
:103C0000002005F11001287001246960A2B201B002
:103C100069683D4BBDE8F04001440020FDF7A2BBC0
:103C2000087802280AD0102802D0202803D0E3E721
:103C300000210220E2E700210820DFE70021042024
:103C4000DCE700001CB5284C01206070E0680169C9
:103C5000A0688A68904205D3C9681144884238BF79
:103C6000FFF711FE04F11800FFF75EFE10B9BDE882
:103C70001C4009E013BD000080B50146DFF8840058
:103C8000FFF75BFEBDE8044000211020FEF798BE60
:103C9000704770B51446134A134E12681D4601232F
:103CA000B3704FF6FC7303EA8203104AD3180A4636
:103CB000DE683668A6F80900F17206F10C002146AC
:103CC00000F03EF800210020FFF79FFD0120FEF7E5
:103CD00097FE314605F10800B278BDE87040D21C6D
:103CE00000F02EB83C400058B8040020000003202B
:103CF00090080320953700080B380008C9370008E2
:103D00005C000020D0040020453B000800000000BB
:103D100000000000000000000000000000000000A3
:103D2000440008004005020112279C00F401000035
:103D3000FFFF0000480101000020000070477047AD
:103D400062B38B0708D0521E11F8013B00F8013B0B
:103D500000F024808B07F6D1830740F0208000BF5D
:103D6000103A07D330B4B1E83810103AA0E8381050
:103D7000F9D230BC530724BFB1E80810A0E80810FE
:103D800044BF51F8043B40F8043BD20724BF31F84C
:103D9000022B20F8022B44BF0B7803707047121FD0
:103DA00017D35B0009D151F8043B20F8023B1B0CF0
:103DB000121F20F8023BF6D20BE051F8043B00F84A
:103DC000013B1B0A20F8023B1B0C121F00F8013BB1
:103DD000F3D238BF121D521E24BF11F8013B00F868
:103DE000013BF8D870470000FFF753FF9DF80E0025
:103DF00005B000BDF8B500F10C026B4624214FF66A
:103E00006640F1E7F8B500F10C026B460F214FF662
:103E10006840E9E7C0680840884201D10120704746
:103E200000207047C0690840884201D101207047D6
:103E30000020704710B5704C02212046FFF7F2FFBA
:103E400038B16068C043810703D5FFF7F0FC02205A
:103E500018E001212046FFF7E5FF38B16068C04354
:103E6000C10703D5FFF7A1FC01200BE00821204684
:103E7000FFF7D8FF38B16068C043010703D5FFF7EB
:103E80002AFD0820A06010BD10B55B4C00F033F88F
:103E900018B96068C043810306D400F02CF830B92B
:103EA0006068C043810302D5BDE8104083E008216B
:103EB00000F022F870B96068C04301030AD5606859
:103EC0004E4940F400206060086880474FF40020AD
:103ED000A06010BD202100F00FF858B96068C04301
:103EE000810207D5606840F400106060BDE81040B2
:103EF000FFF774BC10BD022120468BE7404881B01B
:103F0000016841F480110160006800F480100090A5
:103F100000983C48016841F4007101603A48026829
:103F200042F40072026040BF20BF3848016841F48B
:103F30000041016001B0704780B53548016841F427
:103F400080110160006800F48010009000982A48F9
:103F5000016841F001010160026842F480320260B0
:103F60002C20FEF705F8BDE802402D20FEF700B832
:103F700028480168490849000160704726494FF404
:103F800080300860704723484FF400114160016899
:103F900021F40011016070471E48016821F0020100
:103FA000016070471B484FF400314160016821F403
:103FB0000031016070471748016841F40031016029
:103FC000FFF72EBC38B504460B4D08212846FFF7F5
:103FD00021FF30B109480460686820F4002068605F
:103FE00031BDA0474FF40021A96031BD09480168E7
:103FF00021F0080101607047000C005814050020F2
:1040000050010058D4080058200800580C040058EB
:1040100050000058040C0058080C005870B5EFF31D
:104020001081027B012A02D0022A07D00DE000F0A5
:1040300028F8137800F01FF814700CE000F021F855
:10404000138800F018F8148005E000F01AF81368DF
:1040500000F011F8146081F31088212101720E2103
:104060004172042181724FF6605181810021817378
:104070000121C17270BD264623EA040435402C4359
:10408000704772B6D0F81120D0F80D40D0F8155016
:10409000704781B0017B012902D0022904D008E0D9
:1040A000D0F80D10097807E0D0F80D100A880092BA
:1040B00003E0D0F80D10096800910E214172212211
:1040C0000821817202724FF6615181810121C17212
:1040D00000218173009A40F80F2F01B0704738B566
:1040E0000446284800684FF6FC7505EA8005264816
:1040F0004519212020720E2060724220A0724FF6D6
:104100006250A0810120E0720020A0731F48016866
:10411000090CA4F80F100068C0F30B00A4F81100FC
:104120001B4801781B4801F01F01E17441682175AB
:104130004168090AC4F815100268C4F81920016919
:10414000C4F81D104169C4F8211004F129018069E7
:10415000C4F82500286802680A600C222B68191D23
:1041600004F12D00FFF7ECFD286800F1100110228A
:1041700004F13900FFF7E4FD07480168C4F849106D
:1041800031BD00003C40005800000320002004E046
:104190000075FF1F8075FF1F1C47000800EB8100A2
:1041A000404AD0F88010914201D001207047002091
:1041B000704742F4806240F82120704780B500F0DB
:1041C00097F839481F2181610168C908C90041F089
:1041D000030100F026F861E000F092B810B500F09D
:1041E00087F8324C00F04CF80028FBD1042100F095
:1041F00048F828B92E480068010403D500F043F8B8
:1042000000F05CF80022032100F03FF82648016826
:10421000C908C90041F0020100F003F8016030BF95
:1042200010BD01602348016841F00401704710B5DA
:104230001E4C00F028F800F023F80028FBD14FF0C6
:10424000B040816801F00C01042911D1016841F4EA
:104250008031016001688903FCD581688908890083
:1042600041F002018160816801F00C010829FAD156
:104270000022032100F009F8BDE8104000F040B82A
:10428000032120468AE700220421204691E780B5D9
:1042900000F02EF80748016821F00401016030BFEA
:1042A00001BD000000040080000400580014005804
:1042B0008804005810ED00E000F022B84FF0B04044
:1042C000016841F48071016001684905FCD581688D
:1042D0008908890041F001018160416A89088900EB
:1042E0004162816801F00C010429FAD17047000095
:1042F0000248016821F002010160704710E000E00F
:104300000248016841F002010160704710E000E0DE
:104310001349002008604FF4E0221248016841F47C
:10432000700101604FF0B041086840F00100086082
:104330008A600D480A6802400C480A60036823F04E
:104340000503036042685208520042600022084898
:10435000C8600861086820F4802008608A6170479E
:1043600008ED00E088ED00E0FBFEF6FA940000584E
:1043700000100422010000000300000005000000FE
:104380000100000001000000060000000A0000001B
:1043900020000000020000000400000008000000EF
:1043A000100000004000000080000000000100003C
:1043B00000020000A0860100400D0300801A0600E4
:1043C00000350C0040420F0080841E0000093D00B3
:1043D00000127A000024F40000366E010048E80163
:1043E000006CDC0200000000000000000000000083
:1043F000000000007047FEE7FEE7FEE7FEE77047BB
:104400007047704700F020B80848FCF78EBE084897
:10441000FBF754BF0748FBF751BFFFF70BBDFFF792
:1044200033BD00F019B80448FCF77FBEF803002044
:10443000F801002068010020580400201020FDF73A
:10444000B5BEFEF71CBE000002484168027889181C
:10445000416070472C0000200449C8680A68824304
:104460000A60486000F004B8000000000015005821
:10447000704719E050F8042BD30744BFA9F101039A
:104480009A18091F0023042942F8043BF9D25FEA75
:10449000817C134604D54FF0000CA2F800C09B1C91
:1044A000C90744BF0021197050F8041B0029E1D14D
:1044B000704730B5016884684218416802EB5103C7
:1044C000C9070BD54C4409E012F9011B12F8015B36
:1044D000002904F8015B05D5491CF9D19A42F3D1B2
:1044E0000C3030BD491EF1D5F8E7000010B500F0E2
:1044F00013F802000023DB4300241068984203D025
:1045000011000220ABBE14605068984203D0111D08
:104510000220ABBE546010BD01487047000000008F
:104520005400002010B5074979441831064C7C44EA
:10453000163404E00A68081D114488470146A14268
:10454000F8D110BD2C000000600000004EF688512C
:10455000CEF20001086840F470000860BFF34F8F8E
:10456000BFF36F8F4FF00070E1EE100A704700004C
:1045700003FFFFFFC40400005C000020840A000069
:1045800030000320000000002BFFFFFF940100001B
:1045900058000000040000201BFFFFFFB0010000D6
:1045A00004000000280003200000000000000000BC
:1045B00000000000000000000100000002000000F8
:1045C000030000000400000000F00DF8002801D0F6
:1045D000FFF7A8FFAFF300800020AFF30080FDF7E6
:1045E0000CFE00F002F80120704700F001B8000056
:1045F0000746384600F002F8FBE7000080B5FFF7F9
:1046000075FF024A11001820ABBEFBE7260002002E
:104610008F420008B9420008DD4100082F4200081F
:10462000BD410008D94100080148804701480047C2
:104630001143000839460008AFF30080FFF786FFFA
:10464000FFF7C2FFFFF7FEBFFFF7FEBFFFF7FEBF9A
:10465000FFF7FEBFFFF7FEBFFFF7FEBFFFF7FEBF8E
:10466000FFF7FEBFFFF7FEBFFFF7FEBFFFF7FEBF7E
:10467000FFF7FEBFFFF7FEBFFFF7FEBFFFF7FEBF6E
:10468000FFF7FEBFFFF7FEBFFFF7FEBFFFF7FEBF5E
:10469000FFF7FEBFFFF7FEBFFFF7FEBFFFF7FEBF4E
:1046A000FFF7FEBFFFF7FEBFFFF7FEBFFFF7FEBF3E
:1046B000FFF7FEBFFFF7FEBFFFF7FEBFFFF7FEBF2E
:1046C000FFF7FEBFFFF7FEBFFFF7FEBFFFF7FEBF1E
:1046D000FFF7FEBFFFF7FEBFFFF7FEBFFFF7FEBF0E
:1046E000FFF7FEBFFFF7FEBFFFF7FEBFFFF7FEBFFE
:1046F000FFF7FEBFFFF7FEBFFFF7FEBFFFF7FEBFEE
:10470000FFF7FEBFFFF7FEBFFFF7FEBFFFF7FEBFDD
:10471000FFF7FEBFFFF7FEBFFFF7FEBF000100007F
:10472000EC00F8FFF4000001F9000010FC001A048E
:104730000048000400480004004800080048000C3D
:0E4740000048000C004800093D00F8FFF8009A
:040000050800463970
:00000001FF
