:020000040800F2
:10000000081000204DB70008ADB10008AFB10008DE
:10001000B1B10008B3B10008B5B10008000000009C
:10002000000000000000000000000000B7B1000860
:10003000B9B1000800000000BBB10008BDB1000864
:10004000B1B70008B5B70008B9B70008C1B10008DA
:10005000BDB70008C1B70008FFB10008C5B7000868
:10006000C9B70008CDB70008F9B10008D1B700083A
:10007000D5B70008D9B70008C5B10008DDB700083A
:10008000E1B70008E5B70008E9B70008EDB70008D8
:10009000F1B70008F5B70008F9B70008FDB7000888
:1000A00001B8000805B8000809B800080DB8000834
:1000B00011B8000815B8000819B800081DB80008E4
:1000C00021B8000825B8000829B800082DB8000894
:1000D000CBB10008D1B1000831B8000835B800082C
:1000E00039B800083DB8000841B8000845B8000814
:1000F000D7B10008DBB10008DFB1000849B800083B
:100100004DB8000851B8000855B8000859B80008A3
:100110005DB8000861B8000865B8000869B8000853
:100120006DB8000871B80008E3B1000875B80008A0
:1001300079B800087DB8000881B8000840F02000B8
:1001400070472DE9F14FB2B09A4601A891460023BD
:100150000691C0E900333C9A0F930DF14A011491C6
:100160004A7009E0329823464A4604A900F0B4FFD9
:10017000002800F12181A14499F80010252909D116
:1001800000200021002209900A910B920C910D92FF
:100190000E910FE001AA4FF0FF31484601F01EF822
:1001A000040002D10F9800F0F9BDDBD50124E2E78D
:1001B00041F0010119F8010F2028F9D023280CD0B3
:1001C0002B2804D02D2805D0302809D00BE041F091
:1001D0000201EFE741F00401ECE741F00801E9E733
:1001E00041F01001E6E72A280FD1DAF8002052F892
:1001F000040BCAF800200028119003D5404211904A
:1002000041F0040109F1010914E01192DFF8102B0B
:100210000AE0119B934205DA03EB830400EB4400F0
:100220003038119009F1010999F80000A0F130036C
:100230000A2BEED399F800202E2A03D04FF0FF307E
:10024000109029E019F8010F2A2809D1DAF80020C6
:1002500052F8040BCAF80020109009F101091BE0C4
:100260002D280CBF09F10109002000221092DFF8AF
:10027000B02A0BE040B9109C944205DA04EB8405E7
:1002800003EB4503303B109309F1010999F8003065
:10029000A3F130040A2CEDD3ADF848100FF68420FA
:1002A00099F8001000F0A4FF08B119F8010B8DF8BF
:1002B0004A009DF84A00682805D199F8001068297D
:1002C0000CD1622006E06C2804BF99F800106C295C
:1002D00004D171208DF84A0009F1010922AA08927F
:1002E00019F801BBBBF125002DD01C3800F0278187
:1002F000001F022840F223810E382AD0401F00F050
:100300004784093800F01B81801E00F0DA84401E0B
:1003100000F08984401E022840F21181001F00F085
:100320008284401F00F08080401E00F03184401E17
:1003300066D0C01E21D0801E00F02A84C01E00F0AE
:10034000278400F0DDBC0122252109928DF8881058
:100350002AE06C228DF84A20DAF8000050F8042BCD
:10036000CAF80000002A44D11499487800283ED0E9
:100370004FF0FF340FF6B41012E09DF84A006C28DD
:10038000EAD0DAF8000050F8044BCAF800000794ED
:10039000D4B91499487898B14FF0FF340FF6A810EB
:1003A00000F036FF241A07D1329822AA04A900F0DF
:1003B000F8FC00287FF5E0AE4FF0FF3000F0EEBC17
:1003C0000FF6A0100790EFE7109D002D04D52046F2
:1003D00000F03EFF044608E02A460021204600F0D7
:1003E00041FF002814BF041B2C460A94DCE70FF6DB
:1003F0007812329804A900F05AFD0028D4D5DBE722
:10040000DAF8001051F8040BCAF8001020F00002CE
:10041000002121F0FF33CDE9042322AC0794782199
:1004200004A800F0A4FDBFE71499487820B14FF06C
:10043000FF340FF63810B3E79DF84A00622862D007
:10044000682819D06A2840D06C2806D071284DD071
:1004500074282DD07A281ED064E0DAF8001051F804
:10046000040BCAF8001020B94FF0FF340FF6141037
:1004700096E70F99016097E7DAF8001051F8040B3E
:10048000CAF8001020B94FF0FF340FF6F80087E7E4
:100490000F99018088E7DAF8001051F8040BCAF8C8
:1004A00000100028E5D14FF0FF340FF6D80077E7B1
:1004B000DAF8001051F8040BCAF800100028D8D15F
:1004C0004FF0FF340FF6BC006AE7DAF8001051F87D
:1004D000040BCAF8001020B94FF0FF340FF6A40047
:1004E0005EE70F9AD317C0E900235DE7DAF8001042
:1004F00051F8040BCAF800100028F2D14FF0FF3475
:100500000FF680004CE7DAF8001051F8040BCAF837
:10051000001020B94FF0FF340FF6680040E70F9944
:10052000017041E7DAF8001051F8040BCAF8001026
:1005300000289ED14FF0FF340FF6480030E7DAF87C
:100540000000C21D9DF84A0022F007024C28CAF89C
:100550000020D2E9000107BF0832CAF8002002F1EA
:100560000803CAF80030CDE90401C80F02D0099889
:100570002D210AE0BDF84800810702D509982B21FA
:1005800003E0C00705D50998202122AA1154401C78
:10059000099022A809994BF0200300EB010CDDE93A
:1005A0000401CDE92001612BCDF81CC015AC0BD0A6
:1005B0001098002848BF062105D404BF4BF0200046
:1005C000672801D101211091DDE904014F0047EABC
:1005D000D0777E15FF174FF0FF32974208BF964243
:1005E00014D1090341EA10510003002908BF002873
:1005F0000CD0ABF1610503211A2D0A9118D30FF627
:100600000C310322604600F059FECDE6DDE904011D
:100610004A00521512F1010F0DD108030BD1ABF1B5
:10062000610503211A2D0A911BD30FF6E821E8E793
:100630000FF6D421E5E7DDE904016A4600F04AFE41
:10064000CDE904014BF02000612811D10798302238
:100650000270811C0791BBF1610F0CBF78215821FA
:1006600002E00FF6AC21CCE741700998801C09909C
:10067000DDE9040120F0000231F0004308BF002A48
:1006800002D10026002546E14BF02008B8F1610FA9
:1006900040F092801099002947BF21200390491C07
:1006A0000391039FDDE920017F1C00220023DDE987
:1006B000044500F047FE38BF85F0004500988DF8EE
:1006C0005420001F002F00900DF1550632DD20460A
:1006D00029460022002300F04FFE2BD21C2200F0FE
:1006E00065FE04460D4600F0FFFEFF1F002F80460A
:1006F00009DD00F015FF02460B462046294600F0B2
:10070000D7FF04460D46F01D0721B8F1000F0CDDA0
:10071000491E5EBF08F00F0200F8012D4FEA2818AD
:10072000F3D502E0002200F8012D491EFAD5C61DBE
:10073000002FCCDC0DF15500361A03980DF155044D
:100740008642D8BF304600282FD4B04206DA0DF1D9
:1007500055010A5C082AA8BF0F2100DA00210246D1
:1007600015AB134400E0401E13F80159521E8D4290
:10077000F9D00F2904D10DF155018B5C5B1C8B5412
:10078000002A04D50099091D15AC401C0091411E9A
:100790000BD4621813783033DDB23A2DA4BF5B441A
:1007A0003A3B491E02F80139F4D5109A002A40F16B
:1007B000B080411E1091ACE00099DFF80C2947F29F
:1007C0009750414391FBF2F20092DDE92045C2F1DE
:1007D0000702002A25F0004504DD2046294600F0E6
:1007E00050FC0BE052420020DFF8E01800F049FC1A
:1007F00002460B462046294600F0CCFF04460D4633
:10080000B8F1660F06BF009F0A37062710983F18F9
:10081000142FC8BF142730208DF854000020DFF8B3
:10082000B018CDE920010DF15506002F33DD20462B
:10083000294601F0D3F801460A4606F108030420D0
:100840000A26B2FBF6F606EB860EA2EB4E0230321B
:1008500003F8012C0A22B6FBF2F202EB820EA6EBA1
:100860004E063036401E03F8026DE9D1083F002FD6
:1008700003F10806D9DD084601F0C2F802460B462E
:100880002046294600F014FFDDE9202301F0C6F8D8
:1008900004460D46CBE70DF15500361A0DF155040F
:1008A00004E00098401E761E0090641C20783028DA
:1008B000F7D0B8F1660F02D10098401C04E0B8F1FF
:1008C000650F0CBF01200020109940188642B8BF68
:1008D000701E00281DD4B04204DA215C3429C8BF40
:1008E000392100DC30210246631E9D1800E0401EC5
:1008F00015F80169521E8E42F9D0392902D1A15C46
:10090000491CA154002A04D50099491C1C46401CCE
:1009100000910646009D00F065FC406A0778DDF80E
:10092000408030B2002802DC01260FF2EC744BF05C
:100930002000662808BF6D1C16D0672845D128B254
:1009400010F1040F47DB404545DA9DF848006D1C67
:10095000010703D430B24045D8BF804628B2B8EB77
:10096000000848BF4FF000080FFA85FB07980A9966
:10097000BBF1000F00F3B1804A1C0A9230234354AC
:10098000B8F1000F03DC9DF84800010704D50A9870
:10099000411C0A9107990F5418EB0B0FB8BFC8F10F
:1009A00000052DB26842454432B20D909542B8BF61
:1009B0002E46079B0A9836B20B96324621461844BB
:1009C00000F07CFCAD1B0E95CBE0BBF1610F17D1A5
:1009D0004FF0700B19E030B2404504DA9DF8481032
:1009E0000A0758BF8046B8F1010848BF4FF0000819
:1009F000BBF1670F14BF4FF0450B4FF0650B04E0E0
:100A0000BBF1410F08BF4FF0500B0A98411C0A91EF
:100A1000B8F1000F079914F8012B0A5403DC9DF874
:100A2000480001071AD50A98411C0A91B8F1000F35
:100A300007990F5412DD761E30B28045B8BF464686
:100A400007980A9B32B22146184400F037FC0A98F6
:100A500036B230180A90A8EB06000D9007980A9954
:100A6000014428B2002881F800B003D42B2048703C
:100A7000891C04E02D224A700546891C6D42002025
:100A80001FAA0AE02B460A2593FBF5F505EB850422
:100A9000A3EB440302F8013B401C2DB2002DF1DC16
:100AA000012806DC4BF02002652A04BF302201F841
:100AB000012B00281FAA08D1302001F8010B06E005
:100AC000401E135C303301F8013B0028F8DC079A24
:100AD0000A981044091A0B9143E0084431B22AB233
:100AE000914219DA32B2214600F0E8FB0A9936B297
:100AF00071180A91ABEB0600B8F1000F0D9003DC02
:100B00009DF84800020704D5079847540B99491CE3
:100B10000B91CDF8388024E0214600F0CFFB0A98F5
:100B2000761B5844B8F1000F0A9003DC9DF848107A
:100B30000A0703D5411C0A9107990F5430B280452A
:100B4000B8BF464607980A9B32B204EB0B01184423
:100B500000F0B4FB0A9836B230180A90A8EB0600F1
:100B60000D909DF8480000F0140010287FF41CAC94
:100B7000099A0A980D9982180B988A1882180E986B
:100B8000119980188842BFF60FAC081A0C900BE43C
:100B90009DF84A00622808D068280ED06A2814D030
:100BA0006C281FD0712810D01CE0DAF8001051F822
:100BB000040BCAF80010C0B21AE0DAF8001051F8BD
:100BC000040BCAF8001080B212E0DAF80000C21D6F
:100BD00022F00702CAF80020D2E900010832CAF860
:100BE000002006E0DAF8001051F8040BCAF80010F3
:100BF0000021CDE904019DF8480002075AD5DDE93E
:100C00000401002908BF002854D04BF02002782AA4
:100C100050D1099822A930230B54401C421C099240
:100C200001F800B046E09DF84A00622808D0682824
:100C30000ED06A2814D06C281FD0712810D01CE068
:100C4000DAF8001051F8040BCAF8001040B21AE0AC
:100C5000DAF8001051F8040BCAF8001000B212E0E4
:100C6000DAF80000C21D22F00702CAF80020D2E91B
:100C700000010832CAF8002006E0DAF8001051F846
:100C8000040BCAF80010C117CDE90401002902D5F0
:100C900009982D210AE0BDF84800810702D509987E
:100CA0002B2103E0C00705D50998202122AA115461
:100CB000401C099022A80999014407915946FFF761
:100CC000AFBB9DF84A106C290BD001200990DAF8CF
:100CD000001051F8040BCAF800108DF88800FFF7D7
:100CE00063BBDAF8001051F8040BCAF800100022B8
:100CF00016924FF0FF311590109115AAFFF779BBAE
:100D000001202521BBF1000F09908DF888103FF4D8
:100D10004BAB022109918DF889B0FFF745BB00006C
:100D2000CBCCCC0C686A6C747A4C00007072696E23
:100D300074665F733A2062616420256C732061726F
:100D400067756D656E7400007072696E74665F73AE
:100D50003A2062616420257320617267756D656E4B
:100D60007400000000000000000000007072696E56
:100D700074665F733A20256E20646973616C6C6FD2
:100D8000776564007072696E74663A2062616420EF
:100D9000256E20617267756D656E740033B0BDE8B5
:100DA000F08F2DE9FC410F4606467D6B7869396A64
:100DB0002D1AB8696D1A796A2D1AF8696D1AB96A0F
:100DC0002D1A97F838006D1A410790460FD420204D
:100DD000002D8DF800000ADD2C4601236A463946B5
:100DE000304600F079F900285DD1641EF5D17B69A9
:100DF00042463946304600F06FF9002853D1302082
:100E00008DF800003C6A002C09DD01236A46394652
:100E1000304600F061F9002845D1641EF5D1BB6968
:100E2000FA683946304600F057F900283BD13020A7
:100E30008DF800007C6A002C08DD01236A463946E3
:100E4000304600F049F970BB641EF6D1F868B96904
:100E5000FB6942183946304600F03EF918BB302095
:100E60008DF80000BC6A002C08DD01236A46394673
:100E7000304600F031F9B0B9641EF6D197F8380069
:100E800041070DD52020002D8DF8000008DD01233D
:100E90006A463946304600F01FF920B96D1EF6D17A
:100EA0000020BDE8F6814FF0FF30BDE8F6812DE966
:100EB000F8470F46A3B03D6B82469046002D48BFD1
:100EC0006FF0004500F07FFE7A6B801801A90022C8
:100ED000C1E90022812828BF4FF0FF3044D291465B
:100EE0001EE0A54230DB7869201881280BD3002151
:100EF000796303AA39465046FFF753FF5FEA0009BA
:100F000022D40020786103AB7E6922466946981995
:100F100000F0D4F9A6197E6158F8040BA0B12D1B7E
:100F2000002D11DDD8F8001001AA684600F058F92C
:100F30000446002C05D4D8F800000028D1D1641E46
:100F4000CFD54FF0FF390EE0B9F1000F504604D174
:100F500003AA3946FFF725FF8146B9F1000F02D1F8
:100F6000002078617863484624B0BDE8F0872DE919
:100F7000FC4D06468846376940466F2808BF08245E
:100F800005D0FFF7DBF8782814BF0A241024D6E92F
:100F900000013C2582468B46B8F1640F18BFB8F1BA
:100FA000690F05D1002903D5DAF1000A6BEB4B0B71
:100FB000BBF1000F08BFBAF1000F0CD1306B50B974
:100FC000082C3AD196F83800010736D530223B2557
:100FD00087F83B2031E08DF8008050465946224684
:100FE000002300F0F5FD3032D0B26D1E3A28019595
:100FF0000EDA7A55504659462246002300F0E8FDA5
:1010000082465FEA010B08BFBAF1000F05D108E084
:101010009DF800001218513AEBE7F0687919884200
:10102000DBD3082C09D196F83800010705D5785D87
:10103000302802D06D1E30207855C5F13C02306B4F
:10104000B26179198242F16008DA318F821A4FF663
:10105000EF70014031873262BDE8F38D00280ED574
:1010600096F8380000F01400102808D1736B7069EE
:10107000316A1B1A5B1A9B1A002BC8BF3362BDE88A
:10108000F38D2DE9D04306460F4614464FF0000875
:10109000DFF8409012E0E00707D542464B46304665
:1010A000394600F0BBFC06460F46404649464246DC
:1010B0004B4600F0B3FC641080468946002CEAD110
:1010C00030463946BDE8D083A08601000000F03FDD
:1010D00084D7974100002440F8B505460E461746D0
:1010E0001C4600205CB117F8011BB068A847B0602F
:1010F00030B1F06A401CF0620020641EF3D1F2BDF2
:101100004FF0FF30F2BD00006E616E004E414E00A8
:10111000696E6600494E46003000B1F5807F02D30B
:101120004FF0FF3070470170012070470078401E7B
:101130008041C043C00F7047613807E005E0A0F16F
:1011400061011A2901D20120704741381A288041D3
:10115000C00F7047A0F10901052901D3202801D152
:101160000120704700207047A0F141011A2938BFC3
:10117000203070471C48704770B45368D41801E0A1
:101180005B1C491E042B08DA00291FBF057804F8F0
:10119000015B10F8016B002EF2D1536070BC7047F8
:1011A00038B514461D4661B1FFF7E6FF61686A6B0A
:1011B000204690476FF00102811A02D0491E01D0EB
:1011C00001E003E005E00021616032BD6FF0010045
:1011D00032BD4FF0FF3032BDDA6B1047024BDFE714
:1011E000014BF9E7014870470421002094210020B9
:1011F000C9B202788A421AB11CBF10F8012FF9E770
:1012000018BF002070470268531C036011707047BC
:1012100080B500B906A005490B681BB12222002148
:10122000984701E000F057FD222002BD0C2C002061
:10123000636F6E73747261696E742068616E646C42
:1012400065723A20626164206D6573736167650041
:1012500000F1010310F8011B11B110F8011BFBE7AD
:10126000C01A7047C9B2830706D0521E22D310F8A5
:10127000013B9942F7D11FE0083A13D302F104026F
:1012800041EA012141EA014150F8043B121F21BF0C
:101290004B40A3F1013C2CEA030C1CF0803FF3D03F
:1012A000C9B2001F0832521E24BF10F8013B91EA58
:1012B000030FF8D818BF0120401E70474AB1000044
:1012C00011F8013B521E00F8013B1CBF11F8013B15
:1012D000F8E7704710B5144600F002F8226010BD20
:1012E000C1F30A5343B14A0012F5001F28D2A3F2FA
:1012F000FE32A1EB0251704750EA410C20D001F0C0
:10130000004C31EA0C01B1FA81F204BFB0FA80F36B
:10131000D2180B3AB2F120032CBF00FA03F191402E
:1013200041EA0C013EBFC2F1200C20FA0CF3194334
:101330009040524240F2FD33D21A01EB0351704704
:101340000022704741EA030C50EA4C0C52EA0C0CA4
:101350004FF4001C09D307D01CEB410F9CBF1CEBC2
:10136000430F8B4208BF824270471CEB430FFBD8F0
:10137000994208BF9042704741EA030C50EA4C0C76
:1013800052EA0C0C4FF4001C09D307D01CEB410FA0
:101390009CBF1CEB430F994208BF904270471CEB67
:1013A000410FFBD88B4208BF82427047124254D48F
:1013B00040F2FF7C1CEA11530FD0634531D09B18DB
:1013C00063453CBF01EB0251704701F0004141EA27
:1013D0000C51002000F082BC704750EA410320D03D
:1013E00001F0004C91EA0C011CD0B1FA81F30B3BE7
:1013F0009A420DD9D21A994051EA0C01C3F1200C3E
:1014000020FA0CFC61449840531C40F2FF7CD7E763
:10141000914041EA0C01C2F1200C20FA0CF319436F
:1014200090407047B0FA80F31533202BE0D3202A88
:10143000EED3203A203B9A4209D9D21A00FA03F19E
:1014400041EA0C010020531C40F2FF7CB8E700FA8F
:1014500002F141EA0C0100207047524240F2FF7C49
:101460001CEA11530DD06345DBD0B2EB030C3CBF3B
:10147000A1EB025170470CF1010221EA035141F442
:10148000801150EA410CCCD001F0004C352A27DC09
:1014900030B481EA0C01B2F1200309DAC2F1200371
:1014A000044601FA03F5D0402843D1409C400CE0AB
:1014B000C3F12002450020FA03F418BF44F00104F0
:1014C00021FA03F091400C43002174F1004550F1E2
:1014D000000051EB0C01244230BC7FF47BAF70471D
:1014E0006146002076E72E00C1F30A5340F21E4207
:1014F000D31A0CDDCA0283F3070342EA505242F0CA
:101500000042DA4002EBE17282EAE17070476FEA72
:10151000E17203F2E13008B182F00040704743000D
:1015200010F0004160B148BF4042B0FA80F29040F4
:10153000D21CC2F5846241EA025202EBD02140057E
:1015400070477047841A71EB030604D26E40001B8B
:10155000B141121973414FF4001C1CEB410F34BF11
:101560007CEB430683E00C0DA4EB1356362E00F300
:101570007C80012E45EAC32341DC43EA525312BF6B
:10158000D20292025B08240545EAC12141EA50518A
:10159000D2EBC020994125D407D1B0FA80F610FAD9
:1015A00006F162D00020203608E0B1FA81F6B140A1
:1015B000C6F1200220FA02F21143B0404FEAF4745F
:1015C000B4EB465434F001064FEA74040AD8D6F559
:1015D0000016760D04F00044F04061FA06F2504027
:1015E000F1404840C00A40EA415021F0004128BF84
:1015F0005FEA500550F1000044EBD12135E0DB0AF1
:1016000045EAC121C90AB6F120050EDD42EA0242CF
:10161000120CC5F1200603FA06F6EB4042EA060575
:101620006D42984161F100010DE062FA06F5F24069
:10163000554063FA06FC82EA0C02F3405A406D42C0
:10164000904161EB030111F4801F05D1641E620516
:1016500002D06D004041494121F48011430875F1E9
:10166000004350F1000041EB045170BC70471CEB8B
:10167000410F15D223F0004352EA43060BD04FEA44
:101680004C0CBCEB410F04D80C0D661E342EB7DD9C
:10169000EBE7801A994150EA410608BF0021E4E7D0
:1016A00008BF1CEB430F28BF6FF00001DDE700000F
:1016B00070B491EA030F4FF000457FF543AF6B40E4
:1016C000841A71EB030603D2001BB1411219734156
:1016D0004FF4001C1CEB410F34BF7CEB430442E091
:1016E0000C0DA4EB1356352E4FDC45EAC323DB0A61
:1016F00045EAC121C912B6F120050DDD63FA05F6F0
:10170000EB4086EA0305124218BF45F00105C018F8
:1017100051F100010CD213E062FA06F5F240554097
:10172000F3415A40B340F3405A408018594107D31F
:1017300049085FEA30005FEA350528BF45F001053A
:1017400001F58011420875F1004250F1000041EBB3
:1017500004514E0016F5001F70BC38BF70470020C2
:10176000090D090570471CEB410F10D252EA4306E0
:101770000BD0BCEB410F05D80C0DAB43661E342ECD
:10178000B6DD02E0AB438018594170BC704770BCB5
:1017900070477047F0B540F2FF7581EA030C0CF01A
:1017A000004C15EA11541DBF15EA1357AC42AF4265
:1017B000E5E0BC41C1F31301C3F31303801A99415F
:1017C00043F4801304D2641E001849418018594123
:1017D000C90241EA5051B1FBF3F603FB1611A2FB1B
:1017E0000675D7EBC020A94102D2761E8018594158
:1017F000C90241EA5051B1FBF3FE03FB1E11A2FBEB
:101800000E75D7EBC020A94103D2AEF1010E8018AE
:101810005941890241EA9051760546EA8E2EB1FB84
:10182000F3F603FB1611A2FB0675D7EB8020A94146
:1018300002D2761E80185941C90241EA50514EEA3F
:10184000060EB1FBF3F603FB1611A2FB0675D7EBF0
:10185000C020A94102D2761E80185941C90241EA2E
:101860005051B1FBF3F703FB1711A2FB0735D3EB84
:10187000C020A94167F100070CBF004247F00107F3
:1018800066F3D5274FEA1E31B80814F5806412DDDF
:10189000BD0775F1004250EB0E5051EB045111F5AC
:1018A000801F5CBF41EA0C01F0BD4CF07F6141F04C
:1018B000E0410020F0BDBD076D0840EA0E5041F444
:1018C0008011D4F10104B4F120060ADAC4F1200633
:1018D0000200E04001FA06F3E1401843B24015432C
:1018E0000EE0342C13DCC6F1200445EA40056D08F7
:1018F00020FA06F2154321FA06F0A1400D4300211B
:1019000075F1004250F1000051EB0C01F0BD0020D8
:101910005FEA0C01F0BDCFB992185B41B3FA83F7CF
:1019200004BFB2FA82F6BF190B3FB7F120062FBFF2
:1019300002FA06F3BB40C7F1200622FA06F638BFCA
:101940003343BA401CB1E419641E33E77F4231F0DF
:101950000041B1FA81F404BFB0FA80F6A4190B3C3F
:10196000B4F120062FBF00FA06F1A140C4F1200611
:1019700020FA06F638BF3143A0403C1B1AE7AC42C0
:101980001ABF05EA1357AF4212E050EA41061CBFE6
:1019900052EA4306BFE750EA4107304661461CBFA2
:1019A00041EA0551F0BD52EA430C08BFC143F0BD06
:1019B00000204FF4001616EB410F98BF16EB430FB3
:1019C00008BF16EB410F24BFC14305E016EB430FE0
:1019D0000CBF61464CEA0551F0BD0000400D40F2DD
:1019E0001E4C40EAC120BCEB115C40F0004003D427
:1019F0008CF30701C84070476FEAE1707047000040
:101A000050B1B0FA80F18840C91CC1F58461090564
:101A100001EBD021400570470146704730B540F2D8
:101A2000FF7C1CEA11541DBF1CEA13556445654533
:101A30003FE0641981EA030C6FF35F530CF0004C34
:101A400043F48013C90241F0004141EA505EC502EF
:101A50001100A5FB020200284FF00000EEFB012060
:101A60004FF00001E3FB052118BF42F001024018CE
:101A700000214941E3FB0E01A4F580640D0302D26D
:101A800092184041494154F1010470DD450872F15A
:101A9000004250F1000051EB0451A1F5801102D435
:101AA00041EA0C0130BD40F2FF7E4CEA0E510020AD
:101AB00030BD0CEA1355644518BF654581EA030C37
:101AC0000CF0004C41D050EA410E1CBF52EA430ECC
:101AD00002E06146002030BD24422C441BD15FEA65
:101AE000050EF6D0090302BF01460020AEF1140E28
:101AF000B1FA81F5AEEB050401FA05FE0C35C5F12E
:101B0000200100FA05F5C8404EEA000E6FF35F535E
:101B100043F480139CE733F00043B3FA83F504BF2A
:101B2000B2FA82FE75440B3D641BB5F1200E2FBF47
:101B300002FA0EF3AB40C5F1200E22FA0EFE38BFBA
:101B400043EA0E03AA40641C7CE750EA410E14BF2E
:101B500052EA430E6FF000014FF4001515EB430FEE
:101B60008EBF194615EB410F9DE7B4D830BDD4F1B7
:101B70000104B4F120050FDAC4F12005520828BF92
:101B800042F0010210FA05FE01FA05F57244E2BFC7
:101B9000E0402843E1400FE0352C9ADCC5F12004F9
:101BA00052EA400220FA05F218BF42F0010231FA6F
:101BB00005F0A1400A43002172F1004250F10000FB
:101BC00051EB0C0130BD80B5FFF7D4FA006C02BDBB
:101BD000D3BBD9B1B2F5803F5BD2022A1ED98C4665
:101BE000B1FBF2F102FB11C31B0443EA1043B3FB48
:101BF000F2FC02FB1C3380B240EA0343B3FBF2F079
:101C000002FB103240EA0C4000237047022A05D93B
:101C10008446B0FBF2F002FB10C270474AB105D116
:101C200000F0010249085FEA3000704700220023FB
:101C3000704700F067B80B000200002100207047D9
:101C4000F7D3002200237047904271EB030CF2D3CC
:101C500070B5B1FA81F4B3FA83F52C1BA340C4F13B
:101C6000200532FA05F63343A2405FF00046E64015
:101C700002E05B085FEA3202841A71EB030524BFBD
:101C8000204629467641F4D302000B0030000021A3
:101C900070BD70B5B1FA81F4B2FA82F5C4F12004D6
:101CA0006419B4F12006DAD3B2405FF00044F44086
:101CB000002502E052085FEA3303C61A71EB020EF8
:101CC00024BF3046714664416D41F3D302000B00DE
:101CD0002000290070BD012000F016B80FB581B0BA
:101CE00000F01CF805492222425001B00FBD80B51A
:101CF00000F014F80249084402BD0000102C002036
:101D0000102C00207047000080B5AFF30080024A1D
:101D100011001820ABBEFBE7260002000020704730
:101D200038B5040001D1012032BD04F18405686892
:101D300008B900F020F800F00DF808B100F031F813
:101D400000F02CF8012804D000F00DF821F02A0151
:101D500016E032BD24206860206801684908490007
:101D60000160A06A70472068416821F49041416099
:101D700020688168704700212970204600F0DABF92
:101D8000816000F004F8BDE8324000F0C6BB206876
:101D9000016841F00101016020467047204600F0D3
:101DA00055BA204600F056BB2DE9F843064606F129
:101DB00054070C46786B20281546994647D1002CCD
:101DC00035D0280033D00020F8632121796301F059
:101DD000BDF83D807D80B168B1F5805F04BF316999
:101DE00000291ABF21464FF00008A04605460C46C0
:101DF00002E07888411E79802B467888CDF80090E3
:101E0000002816D000228021304600F0E3FBD0B934
:101E10003068002C06BF38F8021BC1F3080114F823
:101E2000011B8162786B00F021002128E1D00120A4
:101E30000EE000224021304600F0CCFB18B92020F3
:101E40007863002004E020207863032000E0022073
:101E5000BDE8F28338B50346D3F88C0020280AD1B8
:101E600009B1100001D1012032BD00F048F8BDE8F1
:101E7000384000F0F9BB022032BD38B5044604F109
:101E800054051346686B202831D121B3180022D0A5
:101E900021652B806B800020E86321216963A86A9B
:101EA000D8B1DFF89813C162DFF89403A96A086318
:101EB000A96ADFF8900348630020A96A8863206854
:101EC000216D00F12802A86A01F0B5F828B11020B0
:101ED000E86320216963012032BD21684020086247
:101EE000226800F006F800F061FBF9D132BD022053
:101EF00032BD02F1080151E8001F0832704700208E
:101F0000D866DFF844431868A0420CD04068040249
:101F100009D5186850E8004F054644F0806445E84C
:101F200000400028F5D118467047216801F10803E8
:101F300053E8001F206800F1080221F0400142E848
:101F4000001000287047206850E8001F024621F466
:101F5000907142E80010002870472DE9F0410446D6
:101F600040F60F0C2268D669104616EA0C0F076877
:101F7000936804F15C0507F0200006F020010DD104
:101F8000002914D010B9D80040F18D80A96900292A
:101F900000F048812046BDE8F0410847DFF860C8FE
:101FA00013EA0C0F04BFDFF85CE817EA0E0F7AD0D3
:101FB0005FEAC67E48BF5FEAC75807D54FF0010EFB
:101FC000C2F820E06A6B42F001026A63B2070AD5E8
:101FD000DA0708D5D4F800E00222CEF820206A6B98
:101FE00042F004026A6372070AD5DA0708D5D4F80A
:101FF00000E00422CEF820206A6B42F002026A63FD
:1020000032070DD5002808BF13EA0C0F08D0D4F80A
:1020100000C00822CCF820206A6B42F008026A63F4
:10202000320509D57F0107D526684FF40062326278
:102030006A6B42F020026A636A6B002A32D031B1C7
:1020400008B9D80003D5A96909B120468847686B4B
:1020500021688A68510602D410F0280F1DD020464E
:1020600000F0A3FB20688168480611D5FFF75DFFEB
:10207000FCD1686A60B10FF61D018163686A01F0E6
:1020800058F800280ED0686A816BBDE8F041084717
:102090002046BDE8F04101F043B9204601F040F987
:1020A00000206863BEE0286901287BD1F00679D55D
:1020B000F90677D5102010622268298890684206B8
:1020C00037D56A6A1368586880B2002828D08842D9
:1020D00026DA6880106801688A061AD400F0A8F829
:1020E00021F4807100F064FAF8D100F065FAFCD1B7
:1020F000FFF71BFFFCD1202028630021296100F09D
:1021000097F821F0100100F053FAF8D1686A00F056
:10211000DAFF0220686129886888091A89B206E016
:102120008842BFD11A6890067CD502226A61204697
:1021300034E06A886888891A00281CBF88B20028A1
:1021400070D02246106850E8003F044623F4907394
:1021500000F06AF8F6D1106800F1080400F10803F5
:1021600054E8004FDFF8A006044043E80040002890
:10217000F1D102F15C032020186300241C619C61F2
:10218000146854E8004F156824F0100445E8004036
:102190000028F5D10220586189B21046BDE8F0410F
:1021A00001F0BFB8F00209D5590207D54FF48010ED
:1021B00010622046BDE8F04101F0B4B8300609D500
:1021C000390601D4180205D5E96959B32046BDE89E
:1021D000F0410847700613D5790611D500F028F8AC
:1021E00021F0400100F0E4F9F8D104F15C00202175
:1021F000C1620022C2612046BDE8F04101F0F9B899
:10220000300206D5790004D52046BDE8F04101F042
:102210000DB9F00148BF002F04D52046BDE8F041BC
:1022200001F005B9BDE8F08144E8003000287047AE
:10223000206850E8001F0246704700000D28000883
:102240004B2800085128000800800040F8B50446DB
:10225000DFF8980822681368A168034020690B43DF
:1022600061690343E0690B43034313600025516830
:10227000E06821F4405101435160A369DFF8701810
:102280008A421CBF206A03439668DFF86808DFF8BB
:1022900068E8DFF8687806403343936067A6D36A3E
:1022A000606A1B0940EA0313D3627245DFF85008E5
:1022B0004FF4004338D13F6807F00307032F4CD891
:1022C000DFE807F0024542484FF0010CE169B1F543
:1022D000004F4FF6F07740F07F80BCF1010F09D03E
:1022E000BCF1020F0AD0BCF1040F70D0BCF1080F92
:1022F00070D098E001F038FC002814D0626A616860
:1023000036F81230B0FBF3F04A0802EB4002B2FBA1
:10231000F1F0A0F11001B942EBD20740C0F3420046
:1023200007432068C7607FE08A4216D13F6817F4F0
:10233000406723D0B7F5806F09D0B7F5006F03D0A1
:10234000B7F5406F06D008E04FF0020C07E04FF001
:10235000040C04E04FF0080C01E04FF0100C8A422E
:10236000B4D1BCF1000F09D0BCF1020F0AD0BCF10E
:10237000040F15D0BCF1080F15D054E001F0ECFBB0
:10238000002851D0616A36F81120B0FBF2F662687D
:1023900002EB42018E4246D31303B34205D242E020
:1023A00001F090FBECE71846ECE75008002110EB39
:1023B000062051EB16610023FFF70AFCA0F54076DA
:1023C000DFF8EC78BE422ED22168C8602CE001F024
:1023D00079FB91E7184691E7BCF1010F09D0BCF1F8
:1023E000020F09D0BCF1040F18D0BCF1080F18D0AF
:1023F00019E001F0B9FBB8B1626A36F812306168D1
:10240000B0FBF3F000EB5100B0FBF1F0A0F11001D4
:10241000B94208D2226880B2D06005E001F052FBD8
:10242000E9E71846E8E7012504F1680001210023E7
:1024300041800180C36003612846F2BD01000200B3
:102440000400060008000A000C00100020004000F4
:102450008000000190F828100A0706D5026853682A
:10246000816B23F400430B43536090F82810CA0794
:1024700006D502685368C16A23F400330B435360E6
:1024800090F828108A0706D502685368016B23F478
:1024900080330B43536090F828104A0706D5026832
:1024A0005368416B23F480230B43536090F828104A
:1024B000CA0606D502689368C16B23F480530B43A8
:1024C000936090F828108A0606D502689368016C1C
:1024D00023F400530B43936090F828104A0610D55C
:1024E00002685368416C23F480130B435360436CC0
:1024F000B3F5801F05D15368816C23F4C0030B43EF
:10250000536090F828100A0606D501684A68C06C26
:1025100022F4002202434A607047F8B5044604F1F1
:1025200084050020E8606FF07E4700F00FFD06464E
:10253000206801680A0714D50097334600224FF43B
:102540000011204600F046F858B1FFF771FE21F067
:10255000800100F02DF8F8D104F1840020214160C1
:1025600016E0206801684A0716D500973346002216
:102570004FF48001204600F02DF868B1FFF7E3FC2E
:10258000FCD100F019F8FCD104F184002021816015
:10259000002202700320F2BD202068602021A96083
:1025A0000020E066002121672870F2BD41F0800123
:1025B00042E8001000287047216801F1080353E841
:1025C000001F2068490800F10802490042E8001095
:1025D000002870472DE9F041069C05460E469046BE
:1025E0001F462868C1693140B1420CBF012000205C
:1025F000404537D114F1010FF3D000F0A7FCC01B08
:10260000844200D314B90320BDE8F0812868016832
:102610004A07E6D5802E18BF402EE2D0C1690807D0
:1026200004D42968C8690105DBD50DE02A680820B3
:102630001062284600F0B9F805F184000821C16055
:10264000002202700120DFE729684FF40060086271
:10265000284600F0AAF805F184002021C16000227C
:102660000270D0E70020CFE730B50346002099651F
:10267000FF2403F15C010A804A8088619868B0F504
:10268000805F04D1186990B940F2FF140FE018B9C7
:10269000186960B17F2007E0B0F1805F06D118694A
:1026A00008B97F2403E03F20888001E000248C806B
:1026B0000020486322240C63196801F1080555E8DD
:1026C000001F186800F1080441F0010144E80010FF
:1026D0000028F1D103F15C018868B0F1005F28D1D6
:1026E0008889824225D39A68B2F5805F04BF186951
:1026F000002803D10FF20D428A610BE00FF21D3466
:102700008C61186930B100F036F841F48071FFF740
:102710004FFFF8D1196801F1080454E8001F186848
:1027200000F1080241F08051FFF742FFF2D1002092
:1027300030BD9868B0F5805F04BF186900280CD1DF
:102740000FF2DD128A61186850E8001F024641F05E
:102750002001FFF72DFFF6D1E9E70FF271128A6130
:1027600018690028EFD000F006F841F49071FFF7E7
:102770001FFFF8D1DBE7196851E8001F1A6870479E
:1027800010B5016851E8002F0B4622F0C00200F09E
:1027900008F8F6D100F081F8FCD12021C0F88810AB
:1027A00010BD43E8002100297047016851E8002F5F
:1027B0000B4622F4907243E800210029F5D101680C
:1027C00001F1080301F1080253E8003F0E490B40F4
:1027D00042E800310029F2D1C16E012909D1026815
:1027E00052E8002F036822F0100243E8002100297C
:1027F000F5D12021C0F88C100022C26642677047D4
:102800000100001020010004FEFFFFEF10B501469B
:10281000886A09680A6893060AD400F00DF822F065
:102820008002FFF7BEFFF8D100F045F8FCD110BDE3
:10283000BDE8104000F0DDBD026802F1080454E874
:10284000002F016801F108037047806A01F024BA83
:1028500070B5846A04F1880528686E6821688A6802
:10286000110604D5212804BF2046FFF789FF206800
:102870008168480604D5222E04BF2046FFF795FF45
:10288000A86840F01000A8602046BDE8704000F045
:1028900047BD0000806A00F043BD026802F10804F1
:1028A00054E8002F016801F1080322F4000243E814
:1028B000002100297047016851E8002F0B4642F0C3
:1028C000400243E8002100297047000010B500F0E5
:1028D00050F81FD14B6A9188846D0B402370816D35
:1028E0004B1C00F04CF819D100F050F8FCD100F06E
:1028F00057F8FCD100F06CF80BD10023136100F005
:102900005DF8FCD10168CB69DC0644BF10230B6283
:102910007AE07EE0886940F00800886110BD000020
:1029200010B500F026F81FD14B6A9188846D0B40DA
:102930002380816D8B1C00F022F819D100F026F85D
:10294000FCD100F02DF8FCD100F042F80BD10023AF
:10295000136100F033F8FCD10168CB69DC0644BF99
:1029600010230B6250E054E0886940F00800886151
:1029700010BD00F15C020168136B222B7047836568
:1029800051884B1E5380518800297047026852E8D5
:10299000002F036822F4907243E800210029704759
:1029A000026802F1080454E8002F0168520801F19E
:1029B0000803520043E8002100297047016851E8EC
:1029C000003F0C4623F0100344E800310029704713
:1029D00000F15C0220211163002393610021516109
:1029E000434B016899420CD049680B0209D5016834
:1029F00051E8003F0C4623F0806344E80031002991
:102A0000F5D11169012970471188BDE8104000F027
:102A100088BCBDE8104000F0DCBC00002DE9F843A4
:102A200000F00DF94BD1A88900283AD0B80638D566
:102A300000F0CFF80870A06D421C00F0C1F817D06C
:102A4000F90748BF5FEAC85200F0B1F803D5F207B2
:102A500001D500F0CCF8780703D5F20701D500F0D6
:102A6000BEF8686B20B1204600F05AFC0020686375
:102A700068880028DAD100F0CCF8FCD100F028F802
:102A8000FCD100F0FAF809D100F0E7F844BF1021BA
:102A900001622988204600F044FC02E0204600F054
:102AA00098FC688868B1A98988420ADA00F0BBF806
:102AB000FCD18048A86100F0A2F8FCD101E000F050
:102AC00002F8BDE8F183816941F008018161704736
:102AD000206800F1080200F1080152E8002F764852
:102AE000024041E80020002870470000F369FFCF52
:102AF00000800040FFF4FF110038014088000058BA
:102B00000024F4002DE9F84300F099F84BD1A8898E
:102B100000283AD0B80638D500F05BF80880A06DE0
:102B2000821C00F04DF817D0F90748BF5FEAC85281
:102B300000F03DF803D5F20701D500F058F878070A
:102B400003D5F20701D500F04AF8686B20B12046A2
:102B500000F0E6FB0020686368880028DAD100F006
:102B600058F8FCD1FFF7B4FFFCD100F086F809D18A
:102B700000F073F844BF102101622988204600F05C
:102B8000D0FB02E0204600F024FC688868B1A989E7
:102B900088420ADA00F047F8FCD14848A86100F002
:102BA0002EF8FCD101E0FFF78EFFBDE8F18305D5DB
:102BB00001210162686B40F001006863B80770474B
:102BC000A2656888411E69802068C76917F0070FF1
:102BD00070472168486AA16D09EA000070472168C2
:102BE00004200862686B40F0020068637047216847
:102BF00002200862686B40F0040068637047216837
:102C000051E8001F226841F0200142E8001000282E
:102C10007047216851E8001F226821F4807142E862
:102C2000001000287047226802F1080353E8001FD3
:102C3000083221F0805142E8001000287047044615
:102C400004F15C052068B5F80490C7690146D1F825
:102C500000808668296B222970470021296120683D
:102C600050E8001F024621F0100142E80010002841
:102C7000F5D12068C169CA06704720202863002169
:102C8000A961002068610E49206888420CD0406824
:102C9000010209D5206850E8001F024621F080613A
:102CA00042E800100028F5D128690128704700008B
:102CB00000FD0F00CD280008FEFFFFEF21290008CE
:102CC00000800040934900E0934981B00A680243C4
:102CD0000A60096808400090009801B0704780B50C
:102CE0004FF40020FFF7F0FF002200212E2000F01B
:102CF000ECFFBDE802402E2001F004B80168874ACD
:102D0000914200D0704780B54FF48010FFF7DCFF90
:102D1000002200212C2000F0D8FF2C2000F0F2FF30
:102D2000002200212D2000F0D0FFBDE802402D2020
:102D300000F0E8BF38B59EB004461421684601F0A3
:102D400035F850210AA801F031F820687449754D12
:102D5000884246D102200A90002111910AA801F070
:102D60003FF808B101F071FB286840F001002860CD
:102D700029686D4D01F00101059105980120FFF7CB
:102D8000A1FF02210191002202920C200321009058
:102D900003910822049269464FF0904001F076FBBF
:102DA00062482860112100F058F808B101F04DFB8D
:102DB0004FF08850002106900791ADF820100122B5
:102DC000099206A9284601F041FC08B101F03DFB3B
:102DD000E567AC6200220021252000F076FF252067
:102DE00037E05349884236D101200A9000211091E2
:102DF0000AA800F0F5FF08B101F027FB686840F46D
:102E00008040686068684B4D00F4804005900598EC
:102E10000220FFF757FF0221019101220292C020F8
:102E2000032100900391072204926946424801F071
:102E30002DFB424828600F2100F00FF808B101F087
:102E400004FBE567AC6200220021242000F03DFF76
:102E5000242000F057FF1FB030BD69600020102211
:102E6000E86080216861A861E8612862AA60296140
:102E7000284600F071B810B594B004465021684659
:102E800000F094FF22682E498A420FD14FF400705F
:102E900000904FF080510E91684600F0A1FF08B1FC
:102EA00001F0D3FA4FF48020FFF70EFF14B010BDED
:102EB00018B595B00446502101A800F077FF2268AC
:102EC00020498A4224D14FF4006001904FF4807170
:102ED000119101A800F084FF08B101F0B6FA1A4878
:102EE000816B41F4004181630021026842F48062F9
:102EF00002600022006800F48060009000980320C7
:102F000000F0E3FE032000F0FDFE204601F052FC3D
:102F100016B010BD4C00005850000058000C00586E
:102F2000008000405C0000583C2800204400024023
:102F3000003801409C28002000040048440402405E
:102F40000010005800280040580000580148406810
:102F5000704700BF2C22002038B5040001D10120A9
:102F600032BD2168DFF89023914204F1240502D29A
:102F700000F055F805E000F04AF8DFF88003296218
:102F8000E8610221697020680268A068E16823682E
:102F90006FF30E12024320690A4361690243A0697C
:102FA0000A43E1690243206A0A4302431A60204649
:102FB00000F074F9A068B0F5804F04BF0021616093
:102FC0002079696A00F03F0000F014F838B1052854
:102FD00005D2204600F07FF900F012F803E000204F
:102FE00028636863A8630021A961012068702970C3
:102FF000002032BD0860A96AE86A486060687047CE
:10300000296B00200860696BA86B48607047DFF887
:10301000F00241181422B1FBF2F189007047DFF889
:10302000E40241181423B1FBF3F18900DFF8D82240
:103030002962EA617047F8B5044604F124060025C8
:103040003078012801D10220F2BD0120307077785C
:10305000012F2ED102207070AC46C6F818C020682F
:1030600007687F087F000760204600F0FBF82168B2
:10307000F06820B10A6842F00E020A6008E00868B1
:1030800020F0040008602068016841F00A01016036
:10309000706A0168CA0303D5016841F48071016058
:1030A000306B18B1016841F48071016000F005F8DF
:1030B00001E0357002252846F2BD2068016841F024
:1030C00001010160704740B100F124014A78022AF1
:1030D00005D00420886100220A7001207047026830
:1030E000136823F00E0313604A6A136823F4807395
:1030F000136000680268520852000260012091F8D3
:103100002020CB6902F01C02904058608A6AC86A8D
:103110005060086B38B10246106820F4807010606F
:103120004A6B886B50600120487000220A700020B2
:10313000704738B500F1240200245178022903D0E9
:1031400004209061012429E001680B6823F00E033C
:103150000B6001680D686D086D000D60516A0B68A9
:1031600023F480730B60012192F82030D56903F0BD
:103170001C0399406960936AD16A5960116B39B137
:103180000B46196821F480711960536B916B59607B
:10319000012151701470516901B18847204632BD38
:1031A000F8B500F124010426CA69126803681C6896
:1031B00091F8205005F01C0506FA05F73A4210D0A8
:1031C00067070ED51A68940603D41A6822F0040221
:1031D0001A6000F03EF8C968002939D0BDE8F44013
:1031E0000847022606FA05F73A4213D0A70711D579
:1031F0001A68940605D41A6822F00A021A6001239C
:103200004B7000F026F800220A70896801B3BDE80F
:10321000F4400847082606FA05F52A4218D0220786
:1032200016D51C6824F00E041C60012291F8203091
:10323000CC6903F01C039A406260012301228A6179
:103240004B7000220A70096911B1BDE8F4400847CB
:10325000F1BD91F82020CB6902F01C0296405E601F
:103260007047000070B5C56C046D6C60446D14B19E
:10327000856DC46D6C60012490F84450066C05F0B7
:103280001C05AC407460046863608068102802D13B
:10329000A260E16070BDA160E26070BD10B5416CDC
:1032A0000268154B89089A4239BF184C04EB81011A
:1032B000174B03EB8101816402F0FF02083A1421ED
:1032C000B2FBF1F1012301F01F01124AC26403FABB
:1032D00001F1016510BD01790F4A104B836501F0C2
:1032E0003F0102EB81024265491E012201F0030108
:1032F0008A40C26570470000080402400004024092
:10330000F8FBFDBFF8FFFDBF0000024000080240CF
:103310001C08024080080240FC08024040090240AC
:10332000704770477047000010B53A4C10B1022842
:1033300003D010BD00F00CF801E000F005F80360C8
:10334000BDE81040FEF786BD63603348334B7047DD
:1033500023603348334B704738B50024002510B143
:10336000022803D008E02E482E4C01E02A482B4CBE
:103370000460FEF719FD0446012C05D007D3032C89
:1033800004D038BF022502E0012500E003252846CD
:1033900032BD70B500240025234E10B1022804D0A0
:1033A0000AE03360FFF7D5FF02E07360FFF7CDFF5F
:1033B0000360FEF762FD0446012C05D007D3032C01
:1033C00004D038BF022502E0012500E0032528468D
:1033D00070BD0068114A0F49904205D0114A9042D1
:1033E00006D1086820B100474868002818BF004788
:1033F00070470068094A0C49904205D0094A90423A
:1034000006D1086820B100474868002818BF004767
:1034100070470000B82B00201825002000800040D5
:10342000AC25002000380140C02B002070477047B9
:103430004FF0B040006800F0F000B02888BFB02026
:103440007047DFF8E0070068000100F0F000704707
:103450002DE9F041040051D0207881064FF0B045AD
:103460003AD5A868E96810F00C0001F0030103D018
:103470000C2808BF012943D1E06900283ED0FFF79E
:10348000D7FF0146606A814211D200F07FFB00281D
:1034900034D12968606A21F0F0010143296069682C
:1034A000206A21F47F4141EA0021696009E029682E
:1034B00021F0F001084300F018FA606A00F066FBA2
:1034C000E0B900F03BFBDFF860170860DFF85C074D
:1034D000006801F089F988B92078C10762D5A86829
:1034E000E96800F00C00082801F0030103D00C2863
:1034F00008BF03292ED16068002853D10120F2E1D2
:10350000E069B8B1296841F0010100F0D8FA064637
:103510002868800706D4FFF719FD801B0328F7D31E
:103520000320E0E12868616A20F0F000084300F021
:10353000DCF9D1E728684008400000F094FB06461B
:1035400028684008C007C7D5FFF700FD801B032887
:10355000F6D3E5E76068B0F5803F04D1296841F40F
:103560008031296003E0286820F48030286060689A
:1035700058B1FFF7EBFC06462868800312D4FFF72A
:10358000E5FC801B6528F7D3CAE7FFF7DFFC06469A
:103590002868400CC00705D5FFF7D8FC801B6528BC
:1035A000F6D3BDE72078810715D5A868E96800F053
:1035B0000C00042801F0030103D00C2808BF0229E5
:1035C00028D1E068002899D06868216920F0FE4081
:1035D00040EA016068602168DFF8546611F0180F56
:1035E00000F08B806069002877D0C806706858D5D5
:1035F000800730D4716841F001017160FFF7A6FCCB
:1036000007467068800726D4FFF7A0FCC01B03287C
:10361000F7D385E7E06870B1296841F4807100F064
:103620004EFA064628684005CED4FFF78FFC801B73
:103630000328F7D374E7286820F4807000F013FBA8
:1036400006462868800AC007C5D5FFF77FFC801BA7
:103650000328F6D364E7706840F0040000F04EF9E8
:1036600007467068000705D4FFF770FCC01B0428EC
:10367000F7D355E77068A16920F4706040EA012033
:10368000706070684008400000F038F907467068C4
:103690004008C00731D5FFF759FCC01B0328F6D3FB
:1036A0003EE740F0010000F029F907467068800706
:1036B00005D4FFF74BFCC01B0328F7D330E7706835
:1036C00020F0040070607068C008C00715D5FFF7CF
:1036D0003DFCC01B0428F6D322E7706820F00400EC
:1036E00000F00CF907467068C008C007C9D5FFF79D
:1036F0002DFCC01B0428F6D312E7207841074CD5D7
:10370000DFF83085D8F80000C1050ED401F08EF83E
:10371000FFF71CFC0746D8F80000C10505D4FFF7E9
:1037200015FCC01B0328F6D3FAE6A068012804D1D3
:10373000306840F00100306010E00528306806D1A4
:1037400040F004003060316841F0010105E04008BC
:1037500040003060316821F004013160A06841F21E
:10376000893760B1FFF7F2FB80463068800714D4D8
:10377000FFF7ECFBA0EB0800B842F6D3D0E6FFF76A
:10378000E5FB804630684008C00706D5FFF7DEFB42
:10379000A0EB0800B842F5D3C2E62078410622D556
:1037A000A06A0028B0680ED040F00100B060FFF7BA
:1037B000CDFB0746B068800715D4FFF7C7FBC01BD9
:1037C0000328F7D3ACE640084000B060FFF7BEFB2B
:1037D0000746B0684008C00705D5FFF7B7FBC01B18
:1037E0000328F6D39CE6E06A00287BD0A968EA6843
:1037F000022801F00C0161D1236B02F00300984212
:1038000002BF02F07000636B984213D1A36BC2F346
:103810000620984202BF02F47810E36B984209D167
:10382000236C02F06060984202BF02F06042606C5C
:10383000824237D00C2942D0286841013FF55EAE64
:1038400000F00EFA06462868810105D5FFF77EFBD9
:10385000801B0328F7D363E6EA68DFF8DC03216BFB
:103860000240606B0A43A16B0243E06B42EA012213
:10387000216C0243606C0A430243EA60296841F00C
:1038800080712960E86840F08050E860FFF75EFBD7
:1038900004462868810125D4FFF758FB001B032844
:1038A000F7D33DE6286881011CD4286840F0807079
:1038B0002860E96841F08051E960E7E70C293FF4AE
:1038C0001DAE00F0CDF904462868810105D5FFF74B
:1038D0003DFB001B0328F7D322E6E968DFF85C0311
:1038E0000140E9600020BDE8F08128606868216A35
:1038F00020F47F4040EA0120686070477060FFF765
:1039000025BB2DE9F8430400884600F0B080DFF8BD
:10391000305300F0CBF80CD200F0CDF8074600F0A1
:10392000C5F806D0FFF712FBC01B0228F7D9032009
:10393000BAE0207882074FF0B04711D5B968A06887
:1039400021F0F0010143B960FFF700FB0646B868BB
:10395000C00305D4FFF7FAFA801B0228F7D9E6E77F
:103960002078DFF8C062820612D53168606921F0E4
:10397000F00101433160FFF7E9FA814630688003C6
:1039800006D4FFF7E3FAA0EB09000228F6D9CEE748
:103990002078410613D53068A1690009000140EA8A
:1039A00011103060FFF7D2FA81463068C00306D4A8
:1039B000FFF7CCFAA0EB09000228F6D9B7E7207888
:1039C000420711D5B968E06821F4E0610143B960AC
:1039D000FFF7BCFA0646B868800305D4FFF7B6FACD
:1039E000801B0228F7D9A2E72078010712D5B86812
:1039F000216920F4605040EAC100B860FFF7A6FAE0
:103A00000646B868400305D4FFF7A0FA801B0228D9
:103A1000F7D98CE72078C1072BD56068022819D127
:103A20003968890323D5BA68920840EA8200B860F1
:103A3000FFF78CFA0646B868616800F00C00B0EB3E
:103A4000810F16D0FFF782FA801B41F2893188423C
:103A5000F1D36CE7032802D13968890103E000281B
:103A6000396802D18907DED401E04905DBD40120A1
:103A70001AE0286800F0070080450BD200F01BF820
:103A8000044600F013F805D0FFF760FA001B022887
:103A9000F7D94CE700F052F86349086000F0E2FE05
:103AA000BDE8F24300F0A0BEBDE8F283286800F054
:103AB0000700404570472968C90848EAC1012960E4
:103AC000FFF744BA38B54FF0B0455F4CA96811F024
:103AD0000C0106D1FFF7ACFCC0F3031054F8200032
:103AE00032BD0429594828D00829594A04D12968E7
:103AF000C90222D4104632BDE96801F0030102294F
:103B00000CD0032904D12968C90207D4104605E066
:103B1000FFF78EFCC0F3031054F82000E968EA6850
:103B2000EB68C1F306214843C2F30211491C5B0F45
:103B3000B0FBF1F05B1CB0FBF3F032BD80B5FFF7DA
:103B4000C1FF4049FFE7434A0968C1F3031152F836
:103B50002110B0FBF1F002BD80B5FFF7EFFF00F0E0
:103B600010F8C1F3022106E080B5FFF7E7FF00F08F
:103B700008F8C1F3C22112F8211001F01F01C8405A
:103B800002BD3049344A09687047000070B52E49BB
:103B9000B1282EBFCC6AC0F3031051F82040FFF7C4
:103BA00050FC054600F074FE2A49C5F3031251F893
:103BB00022102A4AB4FBF1F15FF00004B1FBF2F1EC
:103BC000B0F5007F30A220461FD100BF27A353F8D5
:103BD00020508D4216D2401C0328F8D9184D286871
:103BE000C00844EAC00000F03EF80646286800F02D
:103BF0000700A04213D0FFF7A9F9801B0328F5D3D3
:103C0000032070BD52F82040E8E700BF1BA353F823
:103C100020508D42F6D2401C0328F8D3DEE7002066
:103C200070BD00000801005844220020342200200A
:103C300090000058000400588C80C111FCFFFEEE7B
:103C400000400058080000588CAF00080024F40021
:103C50000048E8014CAF000850B5000840420F0092
:103C6000286820F080702860FFF770B9120000000B
:103C700024000000360000004000000006000000A4
:103C80000C00000010000000000000000100000017
:103C9000020000000300000070470000090102005C
:103CA00002D4394881547047384B02F00F021A444D
:103CB00002F8041C704736490A6860F30A2240F291
:103CC000FA5060F31F420A60704770B5304B1C68B1
:103CD000C4F302230124C3F10705052D2EBF0F25D0
:103CE00004FA05F56D1E1E1D072E34BF0023DB1ED2
:103CF0002940994004FA03F3BDE870405B1E1A4066
:103D00001143CBE7010007D4012200F01F01214B32
:103D10008A40400943F82020704701000BD401225B
:103D200000F01F011C4B8A40400943F82020BFF3DC
:103D30004F8FBFF36F8F7047401EB0F1807F01D36C
:103D4000012070471549164A48600023F020107082
:103D50008B600720086000207047010007D4012213
:103D600000F01F010F4B8A40400943F820207047A4
:103D7000010007D4012200F01F010B4B8A404009CB
:103D800043F820207047000000E400E018ED00E058
:103D90000CED00E000E100E080E100E010E000E078
:103DA00023ED00E000E200E080E200E0002200F00D
:103DB00077BD0000DFF81C130A68030903F47F23B2
:103DC00000019A4300F47F2000F081B9DFF804235A
:103DD0001368010C23EA014343EA00431360704770
:103DE0002DE9F843054600242878DFF8E86241060B
:103DF000A0464FF0B04743D5286B70B1B0F5800FA7
:103E000006D0B0F5000F18BFB0F5400F2ED035E04A
:103E1000F96841F48031F96029E0386820F0806069
:103E20003860FFF793F881463868C00EC00707D5A1
:103E3000FFF78CF8A0EB09000228F5D9032415E060
:103E400000F03CF9A86821F4781100F02FF98146C0
:103E50003868000106D4FFF779F8A0EB09000228C2
:103E6000F6D9EBE739696869014339613CB93168D2
:103E7000286B21F440010143316001E00124A04698
:103E80002868010532D5D6F80880286C08F44078F7
:103E900080452AD000F0CAFCB8F1000FB16805D106
:103EA000286C21F440710143B1601EE0B06840F419
:103EB0008030B06021F44071B06820F48030B06090
:103EC000286C0143B160B068C0070ED5FFF73EF81B
:103ED0008046B068800708D4FFF738F8A0EB0800E8
:103EE00041F289318842F4D30324A0462878C207DE
:103EF00005D53168A869890840EA810131602978CF
:103F0000880705D53168E86921F4406101433160D3
:103F10002978C80644BFA86AFFF758FF28788106A9
:103F200044BFE86AFFF752FF2878410744BF286A78
:103F3000FFF740FF2878010744BF686AFFF73AFFA0
:103F40002868C20535D53168686B21F040610143AE
:103F50003160696BB1F1006F00F0A2F8686BB0F1ED
:103F6000806F26D1396821F0806100F0A4F8044602
:103F70003868C00EC10707D5FEF7E8FF001B02280E
:103F8000F6D94FF0030814E000F098F8E86821F043
:103F9000606100F08BF804463868010105D4FEF733
:103FA000D5FF001B0228F7D9EBE73969686901439F
:103FB0003961296888051CD5A86BB0F1804F18BFFE
:103FC000B0F1004F00D020B9316821F040410843E2
:103FD00009E0316821F04041316020F080503268C2
:103FE00022F0406210433060A86BB0F1C05F00F077
:103FF00057F82868420538D53168E86B21F0405100
:1040000001433160E96BB1F1005F03D1F86840F41E
:104010008030F860E86BB0F1805F26D1396821F01C
:10402000806100F048F804463868C00EC10707D523
:10403000FEF78CFF001B0228F6D94FF0030814E0AE
:1040400000F03CF8286921F0604100F02FF80446A8
:104050003868010105D4FEF779FF001B0228F7D963
:10406000EBE739696869014339612968C80405D5F6
:10407000F168686C21F440410143F16029688804CB
:104080000BD5796AE86C21F0300101437962796AD5
:10409000A86C890840EA810179624046BDE8F28354
:1040A00003D1F86840F08070F860704701433961CF
:1040B000396841F080613960FEF748BF3869696846
:1040C00020F4FE4040EA012038613969704710430E
:1040D0000860704788000058BE4981B00A680243F2
:1040E0000A60096808400090009801B0704700001D
:1040F00010B500F0A3FB00F0EDFB00F085F800F038
:10410000C7F8B54CB548A06304F1380000F044FE90
:1041100008B100F09AF90420FFF7DEFF0120FFF755
:10412000DBFF0220FFF7D8FF00220F210E20FFF750
:10413000CCFD0E20FFF7E6FD00220F213A20FFF70D
:10414000C4FD3A20FFF7DEFD00F0BAF800F0DEF81B
:10415000A3482060002147F6FF700F22E0606160F5
:10416000A2602161A161E1616161204600F04CFE25
:1041700008B100F06AF900220021204600F099FA07
:1041800008B100F062F9974860620021A16204F171
:10419000240000F0E1FE08B100F057F900F0E2FB66
:1041A0004021914800F0F8FEA9A000F0ABFF00F01C
:1041B000BDFF0A22ACA18D48FDF780F802F05AF845
:1041C000014606228A48FDF779F88A498A4A8B4BCC
:1041D000182008701360012089498A4B087000225A
:1041E00089481A704FF08441884A894B01601360F6
:1041F00001208849884B087018708849884B0870DE
:10420000187000F0B0FCFCE780B59AB0482108A80F
:10421000FFF7CCFD1C2101A8FFF7C8FD00F006FB4D
:104220008048016821F01801016001217E48026880
:1042300061F34A2202604FF48031006800F4C060EC
:1042400000904720009A099101224FF480710A9250
:104250000B9112920890402100220C91139208A811
:10426000FFF7F6F808B100F0F0F86F200221019096
:104270000291002203920492059206920792012174
:1042800001A8FFF73EFB08B100F0DFF81BB000BD4E
:1042900080B594B050216846FFF788FD4FF4405236
:1042A0004FF4804100921191022210211292139139
:1042B0006846FFF795FD08B100F0C7F815B000BDDE
:1042C00010B55A4C5A4820604FF416510C20002269
:1042D000606100F043F862662046FDF721FD08B1F9
:1042E00000F0B3F80021204602F0E0FB08B100F036
:1042F000ACF80021204602F0E4FB08B100F0A5F87C
:10430000204602F0B5FB00B131E010BD10B5494CBC
:10431000494820604FF4E1310C20606100224FF4E5
:104320000040E06100F01AF82046FDF7F9FC08B102
:1043300000F08BF80021204602F0B8FB08B100F035
:1043400084F80021204602F0BCFB08B100F07DF8A3
:10435000204602F08DFB00B109E010BD6160A26053
:10436000E2602261A26122626262A2627047BDE8DD
:1043700010406AE001B54FF6FF7301226946002044
:10438000FEF7EAFF009802BD38B504460A464FF62C
:10439000FF7321460220FEF7DFFF05464FEA0401C6
:1043A00034A000F0AFFE284632BD000080B520B139
:1043B000DFF8341032A000F0A5FEBDE800500FF287
:1043C0000D031E4901220220FEF7AEBF1B490878EB
:1043D00000F0FABD48000058C8270020000C005823
:1043E00000280040001000581C2A0020882A0020C5
:1043F0005C2A0020732A00207C2A00209A9919BE8A
:104400001A2C0020752A0020802A0020842A0020EF
:1044100000004042192C00206D2A00206E2A002046
:104420006C2A002090000058000400581825002035
:1044300000800040AC250020003801401C2C0020EA
:1044400080B500F089FE002002BD72B6FEE70000D4
:10445000415420424C452073657276657220737416
:10446000617274730A0000004154207365727665AE
:1044700072000000202054583A20257300000000EC
:10448000202052583A2025730D0A00002DE9F04FE4
:104490000024DFF89881664E4FF00F0902460B4664
:1044A00031E0644FBA4214BF4FF0070E4FF0040ED4
:1044B0000EFA01F141EA050E5F4941F82CE0C743CD
:1044C00031685D683940ED0248BF01433160716871
:1044D0005D683940AD0248BF01437160D8F80010F3
:1044E0005D683940ED0348BF0143C8F80010D8F8B3
:1044F000041007EA010C5968890348BF40EA0C0C14
:10450000C8F804C0641C186830FA04F100F07D801B
:104510000121A1400840F5D04FEA440C032505FADB
:104520000CF56FEA050E5D6805F00307012F1CBF4F
:1045300005F00305022D10D19568DF680EEA050528
:1045400007FA0CF73D439560556825EA01015D685F
:10455000C5F30015A54029435160A1001D7905F060
:104560000305032D1ED0D5689F680EEA050507FADE
:104570000CF73D43D5601D7905F00305022D11D1DF
:10458000E50802EB850501F01C07D5F820B009FA13
:1045900007FA2BEA0A0BD3F810A00AFA07F747EA42
:1045A0000B072F6215680EEA05071D7905F0030554
:1045B00005FA0CF545EA070CC2F800C05D6815F471
:1045C000403F9FD01C4D4FEA940C55F82C5001F001
:1045D0000C0109FA01F7BD43B2F1904F08BF4FF04B
:1045E000000E11D0154FBA4208BF4FF0010E0BD08C
:1045F000134FBA4208BF4FF0020E05D0114FBA4216
:104600007FF44FAF4FF0030E52E7BDE8F08F0AB1D1
:1046100081617047816270470B4A136801460B4203
:104620001CBF116000F0AFBA70470000800800584E
:10463000000800580010004808000140000400482D
:1046400000080048000C00480C08005870B500F144
:104650002403587801281CD11A78012A01D102209C
:1046600070BD5C6A187025680B480A68CE68054002
:104670001543761E48680A7A45EAC6450543487AD6
:1046800045EA024545EA40252560002119700020D1
:1046900070BD012070BD0000FFFD00E08A60FF21B9
:1046A0000268516280F82130002180F8201000203B
:1046B0007047F8B53E4E034630684FF47A754009AE
:1046C0002C46B0FBF4F46C43009493F820000128CE
:1046D00001D10220F2BD012083F82000022783F8D7
:1046E0002170CA201C686062532718684762FF2443
:1046F0001F68B868400507D50098401E00900098D4
:10470000F0B1F8684007F7D4B86820F48060B8606A
:104710001868C76807F0800767F49067C76030685B
:1047200040092E46B0FBF6F6754300951D680098CB
:10473000401E0090009818B1E8684607F7D506E0DB
:1047400018684462032100F023F80320F2BDA86832
:10475000C008C000A860186885682A43826018688D
:1047600041611148016841F4002101600F4802686D
:1047700042F4002202601868816841F4804181603F
:10478000186800F00BF81868446200F001F8F2BDF8
:1047900083F82110002083F820007047816841F4DD
:1047A000806181600121704780080058000800582E
:1047B0004422002090F82010012901D102207047E6
:1047C000012180F82010022380F82130CA210268DC
:1047D0005162532301684B62012301688A6842F0E9
:1047E0002002FFF75BBF000070B50F4E0446307823
:1047F0000025A8B1FFF7A2F932784FF47A71B1FB26
:10480000F2F2B0FBF2F0FFF797FA48B9102C07D29A
:10481000002221464FF0FF30FFF757FAB46000E066
:104820000125284670BD00BF2C22002002480168E7
:1048300041F480710160704700040058114810B5C0
:10484000016841F4807101600320FFF734FA002011
:10485000FFF7CAFF0024002814BF0124FEF73FFA27
:10486000204610BD084880687047084805E00748A2
:10487000016841F0020101607047016841F00101E7
:1048800001607047004000582C220020042004E002
:10489000DFF80800006800F4C060704700040058AA
:1048A00000B500BF130096469446103928BFA0E813
:1048B0000C50FAD85FEA417C28BF0CC048BF40F8D2
:1048C000042BC90728BF20F8022B48BF00F8012B92
:1048D00000BD00001CB5DFF88413DFF884434FF4FB
:1048E00000400860606C40010ED5606CC0000BD4C5
:1048F000FFF79CFFFFF79AFF206C40F480302064A4
:10490000206C20F4803020643F22216841F4801123
:1049100021603F21206800F4801000900098DFF8AB
:10492000440341604261016841F47C110160026905
:1049300042F47C120261016841F03F0101600269AA
:1049400042F03F020261002002F00EF948B1807986
:10495000DFF81413E164E26C22F47C5242EA002294
:10496000E26413BD10B5C148C14C88B00168002293
:104970000260CA21036903F0500303615322BD485A
:10498000C161C261FF220168C908C9000160C2613A
:10499000B948016841F40041016002F0F9F8B748F4
:1049A0000268042161F3020202600020B44902F0AF
:1049B0002AFA02F0D6FB0121012002F0EEF80FF2F4
:1049C000C913B04901220020FEF7AEFC02F06EFCD4
:1049D000AD4A00214FF4802002F0F7FD04F23C5074
:1049E0000FF231010090019169460FF22D0002F0A3
:1049F00055FE04F5C961039104F25470029040F22F
:104A00003C510591049402A802F0D8FC02F04CFC41
:104A100008B010BD7047000070B5064688B07168D8
:104A200001F10B05684602F0FCFE984C9DF802303F
:104A30009DF801209DF800104FEA040000F062FB91
:104A40009DF804100FF25C2000F05CFB9DF80C3028
:104A50009DF80B209DF80A1099A000F053FB2888C0
:104A60004FF41241401A0CD0401E4AD0401E58D07C
:104A7000801E63D0401E66D0401E67D0401E6CD0A2
:104A80006FE004A8002100220023002580E82E000A
:104A9000716801F10D00007840BB04F5807000F0F2
:104AA00031FB02F0DBFB0F207F21794C8DF81000E9
:104AB0008DF81210D4F8005095A02D0C294600F066
:104AC00021FBADF81C50246899A0C4F30B042146C7
:104AD00000F018FBADF81E4004A802F09BFE01F0A8
:104AE000F9F80021012002F058F83AE0012805D138
:104AF00004F5987000F006FB357032E004F5AE70F6
:104B00002DE0706800F10D0504F5C470297800F0FF
:104B1000F9FA2878002814BF04F5F67004F5DA7065
:104B20001DE004F1240000F0EDFAD5F80620D5F8D8
:104B3000021004F1500000F0E5FA12E0D5F802107E
:104B400004F1940006E000BF63A008E0D5F802106D
:104B500004F1C80000F0D6FA03E000BF65A000F041
:104B6000D1FA08B070BD4FF0FF3002F08FBC704733
:104B700000214FF4802002F036BD022002F055BD26
:104B8000022002F05ABD70472DE9F041414C3D4FE3
:104B900004F580752E88B6F5807F4FD238780D28C1
:104BA00049D121466AA000F0ADFA28A1204602F0C2
:104BB00079FE04F582764FF4807820B968A000F081
:104BC000A1FA354814E022A1204602F06BFE28B974
:104BD00065A000F097FA4FF0B05009E01DA1204603
:104BE00002F060FE48B900BF61A000F08BFA2B48CC
:104BF0006860304602F060FE17E0022216A12046EF
:104C000002F068FE60B904F586762146304602F06F
:104C100077FE00F0A1FA41463046FFF7C7F804E0FE
:104C20004FEA040154A000F06DFA41462046FFF718
:104C3000BDF8002601E0A055761C2E803946BDE85F
:104C4000F041174B01220020FEF76EBB5357310095
:104C5000535732005357330041540000104000585E
:104C600050000058040C0058FECAFECA80080058C4
:104C70003C00032008280040080000588004005829
:104C8000C8270020A82B0020DF76000810A5000808
:104C9000002004E048220020040000160100001655
:104CA000894B0008576972656C6573732046697299
:104CB0006D77617265206275696C642025640A00F5
:104CC0004655532076657273696F6E2025642E25D4
:104CD000642E25640A0A0000534843495F53554235
:104CE0005F4556545F4E564D5F454E445F5752499F
:104CF00054450A00534843495F5355425F45565453
:104D00005F4E564D5F454E445F45524153450A0044
:104D10004442474D43555F476574526576697369F0
:104D20006F6E49443D20256C78200A0A000000007F
:104D30003E3E3D3D204442474D43555F47657444E8
:104D4000657669636549443D20256C78200A0D002D
:104D500072656365697665642025730A000000004A
:104D6000535731204F4B0A00535732204F4B0A0004
:104D7000535733204F4B0A004E4F54205245434F58
:104D8000474E495A454420434F4D4D414E44203AE9
:104D90002025730A00000000F8B504460025ACB1D8
:104DA00004F13406307910B92046FDF7A7FF0F4F04
:104DB000384600F021F8386840F00110386020468D
:104DC00000F007F835600121317100E00125284627
:104DD000F2BD10B50021064A064B00EB8104491CC8
:104DE00006296360E261F8D310BD0000000C005892
:104DF0009317000843150008002101604FF03F128F
:104E000042603F238360704738B5040001D1012020
:104E100032BD94F8210028B9002184F820102046E2
:104E2000FEF746F8022084F821002068C168CA060F
:104E300037D4CA21416253202268506200F036F80C
:104E400001001AD12168DFF898008A6802408A6060
:104E500022689368606821690343A0690B43034398
:104E600093602068E168016120680169A26841EAF5
:104E700002410161204600F059F801000BD1216880
:104E8000CA6C92089200CA642368DD6CE1696269A9
:104E90000D431543DD64FF2122680300516204D1F4
:104EA00000E00020012184F8211032BD20461BE0E3
:104EB00038B504460B482168C860FEF747F8054638
:104EC0002068C168880608D4FEF740F8401B40F20D
:104ED000E9318842F4D3032032BD002032BD000006
:104EE000BFFF8FFF5FFF010070B5044600252068FB
:104EF000C1684A0618D4C16841F08001C160FEF75C
:104F000025F806460AE0FEF721F8801B40F2E93159
:104F1000884203D3042084F8210001252068C16859
:104F2000480601D42800EED0284670BD38B50446A6
:104F300000252068C16821F08001C1602068816877
:104F4000880607D42046FFF7B3FF18B1042084F881
:104F500021000125284632BD10B5040001D10120F1
:104F600010BD607A20B9002121722046FDF783FF31
:104F70000220607221680A68606822F02002024301
:104F80000A602068016841F004010160012060723C
:104F90000021E160002010BD70B5402904460D4697
:104FA00010D302F0B9FC564E00227270402106F177
:104FB0000800FEF7FBFE746035700020FFF7F6F97D
:104FC000002070BD012070BDF8B54D4C657821788A
:104FD0008D4248D2626850556D1C0A283DD1E8B216
:104FE000022809D9104410F8023D0D2B04D10026E7
:104FF0000A23467003706D1E531EEFB20026DE5565
:105000006D1E6570107838B9012601E0761CF6B285
:10501000905D98550028F9D1EDB2022D17D31146B5
:1050200004F1080002F06CFC4020FFF7BFF9217882
:10503000606802F071FC0020607004F10800FFF766
:10504000FFF9402104F10800FEF7B0FE09E0104628
:1050500002F062FC0020607001E065700020FFF744
:10506000A5F90020F2BD0120F2BD2DE9F8430C4660
:1050700016460546022221A102F02CFC00284FF022
:10508000000838D196F8009030704946204602F06A
:1050900043FC0027AD1C287820281AD07A08A0F1FC
:1050A00030030A2B38BF30380AD3A0F16103062B36
:1050B00038BF573804D3A0F1410106290ED2373842
:1050C000A15CFB074CBF401801EB0010A0547F1CF3
:1050D000BFB26D1CB7EB490FDDDB04E0F80702D56A
:1050E000A15C0909A154012F03D137704046BDE8E6
:1050F000F2837F08F9E74FF00108F7E73078000006
:105100004C2900200EB41EB5024605A801900024CB
:10511000009401AB0121044878440C30FBF711F8EE
:1051200003B010BC5DF810FBB164000010B5DFF8EF
:10513000404B4021201DFEF739FE402104F1440080
:10514000FEF734FE402104F18400FEF72FFE152007
:105150002070002010BD00002DE9F84F2DED028BCE
:1051600094B0074602224DA102F0B4FB01240028AE
:105170000FF22C19DFF8F86A10D13846FCF768F8FE
:10518000022802D100203070E2E0032245A100F0A5
:10519000EAFC002802BFFF1C3078152877D10025D3
:1051A000DFF8D08A58F825A05046FCF751F802469F
:1051B000514600F0D8FC18B16D1C152DF2DB66E0ED
:1051C000357096F800B0584658F82000FCF740F8C3
:1051D000BBF1150F07445AD000F0C8FC32A500F00F
:1051E000C0FC20B131A500F0BCFC00284FD12978CB
:1051F0008DF8001007F1010A9DF80000002846D044
:10520000ABF1010113292AA52AA740D8DFE811F044
:1052100014002F04F5026C038D032D014A01670170
:10522000BE00DF008601A200DB019E01BD01FD0181
:10523000FF0315026502B8023F2843D106F144007E
:1052400002F0A3FC002410BB377838001DD0152FC6
:105250001BDA19A100F079FC58F8271002F0CCFDF8
:1052600016A100F072FC06F1440102F0C5FD4946AA
:1052700000F06BFC301DFBF7EBFF81B2301DFFF738
:1052800083F84021301DFEF791FD00F06FFC33786C
:1052900018000BA140F00C8400F016BC4154000033
:1052A0000D0A000041542B003F0000003D000000AB
:1052B000307800002C0000002B0000003A000000B5
:1052C0004F4B00003D28E2D100F047FC002430B1F4
:1052D000FCF70DFD00F027FC8DF8040000E0012430
:1052E0009DF80400C01E052823D200F044FC0500F0
:1052F00006D0FCF7FCFC00F022FC8DF8050000E075
:10530000012400F038FC050006D0FCF7F0FC00F0AA
:1053100016FCADF8060000E0012400F02CFC0500AE
:1053200006D0FCF7E4FC00F00AFC8DF8080000E071
:1053300001249DF804000828A8BF012400F01BFCEC
:1053400008B10124A3E7002CA1D101A802F0E8FADA
:1053500004469CE73F289AD03D2898D100F0FDFBF9
:105360000024050006D0FCF7C2FC00F0E8FB8DF835
:10537000010000E0012400F0FEFB0028E1D1002C38
:1053800085D10DF1010002F03DFBE1E73F2804D19A
:1053900006F1440002F0A5FC54E73D28F0D100F0EE
:1053A000DCFB0024050006D0FCF7A1FC00F0C7FBE5
:1053B0008DF8010000E0012400F0DDFB0028C0D1E1
:1053C000002CDDD10DF1010002F0F9FAC0E73F2811
:1053D00004D106F1440002F087FC33E73D28CFD129
:1053E00000F0BBFB002430B1FCF781FC00F09BFB1C
:1053F0008DF8040000E0012400F0BDFB050006D09C
:10540000FCF775FC00F09BFB8DF8050000E0012423
:1054100000F0B1FB050006D0FCF769FC00F08FFB43
:105420008DF8060000E0012400F0A5FB050006D081
:10543000FCF75DFC00F083FB8DF8070000E0012421
:1054400000F099FB050005D0FCF751FC00F077FB5C
:10545000029000E0012400F08EFB0028AFD1002C68
:105460008ED101A802F0B4FA72E73F285DD03D2842
:105470007FF40DAF00F071FB0024050006D0FCF7AF
:1054800036FC00F05CFB8DF8010000E0012400F028
:1054900072FB002893D1002C71D10DF1010002F0B4
:1054A00077FA55E73F2840D03D2868D100F055FBFA
:1054B0000024050006D0FCF71AFC00F040FB8DF834
:1054C000010000E0012400F056FB00287FF439AF12
:1054D000002C54D10DF1010002F05FFA38E73F28AB
:1054E00004D106F1440002F096FCABE63D2846D11B
:1054F00000F033FB0024050005D0FCF7F8FB00F0BA
:105500001EFB019000E0012400F035FB002873D160
:10551000002C34D101A802F049FA19E73F2804D041
:105520003D282CD100F019FB07003FF4B0AEFCF78A
:10553000DEFB002101600022384602F0B4FC8DF849
:1055400001000DF1010002F058FA01E73F2804D1F3
:1055500006F1440002F08AFB74E63D280FD100F00A
:10556000FCFA40B100F0D4FA04469DF80100062888
:1055700018BF44F0010400F0FEFA00F0E9FA7FF4ED
:1055800086AE01A802F043FAE2E63F2804D106F114
:10559000440002F082FB55E63D28F0D100F0DDFA30
:1055A00040B100F0B5FA04469DF80100062818BF86
:1055B00044F0010400F0DFFA00F0CAFADFD101A8DC
:1055C00002F030FAC4E63F2804D106F1440002F0AC
:1055D00084FB37E63D28D2D100F0BFFA0024050055
:1055E00006D0FCF784FB00F0AAFA8DF8010000E079
:1055F000012400F0C0FA00287FF4A3AE002CBED135
:105600000DF1010002F020FAA2E63F2804D106F1D4
:10561000440002F07DFB15E63D28B0D15046FBF773
:1056200017FE401C1528BFF432AE514601A802F007
:1056300067F901A802F00DFA8AE63F284ED03D280E
:105640009DD100F08AFA00245FEA000806D0FCF73A
:105650004EFB00F06EFA8DF8080000E0012400F027
:105660008AFA5FEA000806D0FCF741FB00F061FA15
:105670008DF8090000E0012400F07DFA5FEA0008DF
:1056800021D00222294602F025F958B940208DF890
:105690004A000DF14A020DF10A014046FFF7E5FC10
:1056A000044311E0FCF723FB00F043FA02218DF8DC
:1056B0004A10ADF8040001A90DF10A000A78027041
:1056C0004A78427000E0012400F055FA00F040FAF8
:1056D00007D102A802F0CBF93AE63F283FF4D7AD54
:1056E0003D287FF4D4AD00F038FA00245FEA0008CA
:1056F00006D0FCF7FCFA00F01CFA8DF8040000E07C
:10570000012400F038FA5FEA000806D0FCF7EFFA4F
:1057100000F00FFA8DF8050000E0012400F02BFAEC
:105720005FEA000822D00222294602F0D3F858B9D5
:1057300040208DF846000DF146020DF1060140466D
:10574000FFF793FC044312E0FCF7D1FA00F0F1F903
:1057500002218DF84610ADF802000DF102010DF1A5
:1057600006000A7802704A78427000E0012400F0D6
:1057700002FA00F0EDF948D101A802F083F9E7E55B
:105780003F2804D106F1440002F0D4FA5AE53D283E
:105790003BD100F0E2F900249FED4C8AF1EE0E8A35
:1057A00050B100F0BDF900F0AEF905DB00F0A6F94C
:1057B00048BF8DED010A00D4012400F0DCF988B166
:1057C00000F0AEF900F09FF90CDB00F097F909D575
:1057D000DDED010AB4EE600AF1EE10FAA8BF8DED1E
:1057E000020A00DA012400F0C6F9002874D1002C66
:1057F0000BD101A802F05EF9AAE53F2804D106F119
:10580000440002F097F91DE53D287FF440AD00F01B
:10581000A4F90024050006D0FCF769FA00F08FF91E
:105820008DF8040000E001249DF8040000282ED12A
:10583000394602F03BFB050006D0FCF758FA00F0B1
:105840007EF98DF8050000E0012400F094F99FED49
:10585000AA8AF3EE048A50B100F062F900F053F91D
:1058600005DB00F04BF948BF8DED020A00D401249E
:1058700000F081F900282BD000F052F900F043F934
:1058800026DB00F03BF923D58DED030A21E001284A
:1058900008D100204FF084418DF805000291DFF817
:1058A000F42311E0022805D10020DFF8EC13DFF823
:1058B000EC2306E003280BD10020DFF8E413DFF827
:1058C000E4238DF805000291039202E001007A457D
:1058D000012400F050F900287FF433AD002C94D15E
:1058E00001A802F002F933E53F2804D106F1440093
:1058F00002F034FAA6E43D2887D100F02EF9002406
:10590000050006D0FCF7F3F900F019F98DF8010055
:1059100000E0012400F02FF900286FD1002C70D195
:105920000DF1010002F0FEF812E53F283FF4AFACA4
:105930003D2866D100F011F90024050006D0FCF7DF
:10594000D6F900F0FCF88DF8040000E0012400F026
:1059500012F9050006D0FCF7CAF900F0F0F88DF84E
:10596000050000E0012400F006F9050006D0FCF770
:10597000BEF900F0E4F88DF8060000E0012400F024
:10598000FAF8050006D0FCF7B2F900F0D8F8ADF847
:10599000080000E0012400F0EEF8050006D0FCF756
:1059A000A6F900F0CCF8ADF80A0000E0012400F000
:1059B000E2F8050006D0FCF79AF900F0C0F88DF87F
:1059C0000C0000E0012400F0D6F8050006D0FCF73A
:1059D0008EF900F0B4F88DF80D0000E0012400F01D
:1059E000CAF8050006D0FCF782F900F0A8F88DF897
:1059F0000E0000E0012400F0BEF800287FF4A1AC06
:105A0000002C7FF444AC01A801F0A9FFA0E43F28DA
:105A100004D106F1440002F07FF96BE73D28F0D194
:105A200000F09BF80024B8B100F07AF800209E49FD
:105A3000C2B201EB8202D2ED000AB4EE600AF1EECE
:105A400010FA04D0401CC3B2802BF1D304E08DEDDA
:105A5000010A8DF8080000E0012400F08CF800280D
:105A6000CCD1002CCDD101A801F0FAFF70E43F2881
:105A700004D106F1440002F0B3F83BE73D28C0D161
:105A800000F06BF80024050006D0FCF730F900F0B8
:105A900056F88DF8010000E0012400F06CF80028B1
:105AA000ACD1002CADD10DF1010001F050FF4FE45D
:105AB000B3F1150F85A006DA04B1014600F045F8F0
:105AC0004946301D03E0014600F03FF8494602F028
:105AD00093F9301DFBF7BCFB81B2301DFEF754FC7F
