:020000040800F2
:10000000081000204D3B0008E93B0008EB3B0008CE
:10001000ED3B0008EF3B0008F13B0008000000004A
:10002000000000000000000000000000F33B00089A
:10003000F53B000800000000F73B0008F93B000812
:10004000B13D0008B53D0008B93D00081B3C000863
:10005000BD3D0008C13D0008093C0008C53D000841
:10006000C93D0008CD3D00080F3C0008D13D000807
:10007000D53D0008D93D0008DD3D0008E13D000800
:10008000E53D0008E93D0008ED3D000800000000E6
:1000900000000000F13D0008F53D0008153C000897
:1000A000F93D0008FD3D0008013E0008053E00083E
:1000B000093E00080D3E0008113E0008153E0008EC
:1000C0000000000000000000193E000800000000D1
:1000D0001D3E0008213E000800000000253E0008EB
:1000E000293E00082D3E000800000000313E0008B7
:1000F000FD3B0008013C0008053C0008353E0008B7
:10010000393E000800000000000000000000000070
:100110003D3E0008413E0008453E0008000000004A
:1001200000000000000000000000000000000000CF
:100130000000000000000000493E00084FF0B04001
:10014000006800F0F000B02888BFB02070472DE9AB
:10015000F041040054D0207881064FF0B04538D5E6
:10016000A868E96810F00C0001F0030103D00C2826
:1001700008BF012946D12868800702D5E069002818
:100180003ED0FFF7DBFF616A884207D2084600F0E5
:1001900087FB002834D100F043FA0FE0286820F0F4
:1001A000F000014329606968206A21F47F4141EA37
:1001B00000216960606A00F073FB08BB00F062FB1D
:1001C000DFF858170860DFF85807006800F0D2FB26
:1001D000B0B92078C1070DD5A868E96800F00C0017
:1001E000082801F0030103D00C2808BF03292CD1F3
:1001F0002868800340F11D816068002840F0198163
:10020000012006E2E06980B1296841F0010100F0B7
:10021000F3FA06462868800700F1088100F0CCFB5D
:10022000801B0328F6D30320F3E128684008400030
:1002300000F08CFB0646286800F0EEF9C9D000F00B
:10024000BBFB801B0328F6D3EDE76068B0F5803F69
:1002500004D1296841F48031296003E02A6822F43E
:1002600080322A60606860B100F0A6FB064628680C
:10027000800300F1DE8000F09FFB801B6528F6D331
:10028000D1E700F099FB06462868400C10F0010009
:1002900000F0CF8000F090FB801B6528F4D3C2E70C
:1002A00000F08AFBC01B0328C0F0F780BBE7E068C2
:1002B00078B1296841F4807100F09EFA06462868FA
:1002C000400500F1FD8000F077FB801B0328F6D38A
:1002D000A9E7286820F4807000F038FB06462868FB
:1002E000800A10F0010000F0C28000F065FB801B66
:1002F0000328F4D397E700F05FFBC01B0328C0F08E
:10030000F18090E740F0010000F09BF9074670682B
:10031000800700F1028100F04FFBC01B0328F6D3D9
:1003200081E7706820F0040000F08BF907467068E0
:10033000C00810F0010000F0FF8000F03DFBC01B82
:100340000428F4D36FE70528306806D140F0040094
:100350003060316841F0010105E040084000306044
:10036000316821F004013160A06841F2893768B139
:1003700000F022FB80463068800700F1F28000F038
:100380001BFBA0EB0800B842F5D34CE700F014FBD0
:100390008046306800F040F900F0E38000F00CFB8C
:1003A000A0EB0800B842F4D33DE700F005FB801B4A
:1003B0000328C0F0088136E700F0FEFA001B03288E
:1003C000C0F022812FE7286881010CD4296841F010
:1003D00080712960E86840F08050E86000F0ECFA35
:1003E00004462868810100F1138100F0E5FA001B42
:1003F0000328F6D317E70C2930D0286820F0807046
:100400002860E96889088900E960E86820F0805080
:10041000E86000F0D1FA04462868810140F1F880D4
:1004200000F0CAFA001B0328F6D3FCE600F0F8F847
:10043000CFE6207881071AD5A868E96800F00C009B
:10044000042801F0030104D00C2808BF02297FF41E
:100450002EAF2868400503D5E06800283FF4D0AEF1
:100460006968206921F0FE4141EA00616960216804
:10047000DFF8B06411F0180F38D0606900283FF43D
:1004800050AFC90670687FF53DAF800709D470682A
:1004900040F0010000F0D5F80746706880077FF54E
:1004A000FFAE706840F0040000F0CBF807467068BB
:1004B00000070DD400F080FAC01B0428F7D3B2E681
:1004C0006868216920F0FE4040EA01606860CEE77C
:1004D0007068A16920F4706040EA0120706000F04B
:1004E000ADF8074600F097F87FF405AF2078410794
:1004F00037D5DFF834743868C10529D400F062FAC2
:1005000000F05AFA80463868C10521D400F054FA48
:10051000A0EB08000328F6D385E6706820F00400FD
:1005200070607068C00810F00100DFD000F044FA7D
:10053000C01B0428F5D376E600F080F8074600F0EB
:100540006AF8D3D000F038FAC01B0328F7D36AE664
:10055000A06801287FF4F7AE306840F001003060F9
:1005600002E7A06A002853D0A968EA68022801F0CF
:100570000C017FF440AFE36A02F00300984202BF2F
:1005800002F07000236B984214D1636BC2F3062013
:10059000984202BF02F47810A36B98420AD1E36B31
:1005A00002F06060984202BF02F06042206C82421A
:1005B0003FF409AF0C293FF423AE286820F0807087
:1005C00000F0C4F90646296888013FF5EEAEE968F7
:1005D000DFF85803626B0140E06A0143206B01437E
:1005E000A06B41EA02210143E06B0143206C01430F
:1005F000E960286840F080702860E96841F0805127
:10060000E96000F0D9F90446286881017FF5D4AE8D
:100610000020BDE8F0817068400810F001007047CC
:100620002968606A21F0F001014329606868216A45
:1006300020F47F4040EA01206860704770684008FD
:100640004000706000F0B8B92DE9F8430400884616
:1006500044D0DFF8DC6200F0CAF847D200F0CFF8EF
:10066000074600F0C4F841D000F0A6F9C01B0228EC
:10067000F7D90320B9E000F09FF9401B022843D9C5
:10068000F7E700F099F9A0EB090002284CD9F0E750
:1006900000F092F9A0EB0900022854D9E9E700F034
:1006A0008BF9401B02285DD9E3E700F085F9401B78
:1006B000022867D9DDE700F07FF9401B484577D372
:1006C000D7E7032802D13968890103E00028396897
:1006D00002D1890762D401E049055FD4012084E09A
:1006E00000F06AF9C01B022872D9C2E7207881079E
:1006F0004FF0B0470BD5B968A06821F0F001014375
:10070000B96000F059F90546B868C003B3D5207840
:10071000DFF8045281060AD52968606921F0F001EA
:10072000014300F069F8814628688003A9D5207844
:1007300041060BD52968A0690909090141EA101190
:1007400000F05AF881462868C003A1D520784107F7
:100750000BD5B968E06821F4E0610143B96000F0AD
:100760002BF90546B868800399D5207801070CD588
:10077000B868216920F4605040EAC100B86000F018
:100780001BF90546B86840038FD52078C10717D5F7
:100790006068022895D1396889039FD5B9688908AE
:1007A00040EA8100B86041F2893900F005F9054658
:1007B000B868616800F00C00B0EB810F7FF47BAF8C
:1007C000306800F00700804505D200F018F80746B1
:1007D00000F00DF884D100F055F85049086000F0A1
:1007E0000DF9BDE8F24300F0C5B8BDE8F28330680A
:1007F00000F0070040457047296000F0DDB831681F
:10080000C90848EAC101316000F0D6B838B54FF0E8
:10081000B044494DA16811F00C0106D1FFF78EFCE0
:10082000C0F3031055F8200032BD0429434A05D017
:100830000829434804D12168C90222D5104632BD97
:10084000E16801F00301022904D0032904D12168E1
:10085000C90207D5104605E0FFF770FCC0F303108E
:1008600055F82000E168E268E368C1F306214843D7
:10087000C2F30211491C5B0FB0FBF1F05B1CB0FB33
:10088000F3F032BD80B5FFF7C1FF2A49FFE72D4ADB
:100890000968C1F3031152F82110B0FBF1F002BD59
:1008A00070B52549274AB1282EBFC86AC0F3031086
:1008B00051F820001849096801F00F0152F8211081
:1008C000214AB0FBF1F0B0FBF2F0002400210FF25E
:1008D000840252F8213083420AD2491C0329F8D9F4
:1008E0000AE000F069F8801B03280DD3032070BDD7
:1008F0000FF2700050F821400D4D2868C00844EAFE
:10090000C00000F023F80646296801F00701A14263
:10091000E7D1002070BD00000801005898100020A9
:100920008C10002090000058000400588C80C111E9
:1009300000400058080000580C3B00080024F40058
:100940000048E801CC3A000840420F00286000F05F
:1009500033B8000012000000240000003600000040
:100960004000000000000000010000000200000044
:100970000300000070B50F4E044630780025A8B182
:10098000FFF780FF32784FF47A71B1FBF2F1B0FBE0
:10099000F1F000F0A3F848B9102C07D2002221464C
:1009A0004FF0FF3000F062F8B46000E00125284607
:1009B00070BD00BF8410002001484068704700BF30
:1009C000841000200248016841F480710160704782
:1009D00000040058144810B5016841F480710160AA
:1009E000032000F036F80020FFF7C4FF00240028A1
:1009F00014BF012400F0B9F8204610BD0B488068F0
:100A000070470B4801684908490001607047084871
:100A1000016821F00201016070470548016821F07A
:100A2000040101607047000000400058841000205D
:100A3000042004E00901020081B002D43C48815442
:100A400005E03C4802F00F02104400F8041C01B01D
:100A50007047394A13684FF6FF0100020B4000F45B
:100A6000E0601843354908431060704738B5324B91
:100A70001C68C4F30223C3F10704052C28BF042417
:100A80001D1D072D34BF0023DB1E012505FA04F4CC
:100A9000641E2140994005FA03F35B1E1A4011437E
:100AA000BDE83440C6E70000010007D4012200F091
:100AB0001F01234B8A40400943F820207047010062
:100AC0000BD4012200F01F011E4B8A40400943F85D
:100AD0002020BFF34F8FBFF36F8F704710B5401EBC
:100AE000B0F1807F01D3012010BD174C60600F2151
:100AF0004FF0FF30FFF79EFF0022A260072020602A
:100B0000002010BD010007D4012200F01F010F4B8F
:100B10008A40400943F820207047010007D4012291
:100B200000F01F010A4B8A40400943F8202070471B
:100B300000E400E018ED00E00CED00E00000FA0534
:100B400000E100E080E100E010E000E000E200E011
:100B500080E200E02C4981B00A6802430A6009681B
:100B600008400090009801B0704780B54FF4002015
:100B7000FFF7F0FF002200212E20FFF777FFBDE8EE
:100B800002402E20FFF790BF00682049884200D025
:100B9000704780B54FF48010FFF7DCFF0022002182
:100BA0002C20FFF763FF2C20FFF77EFF002200219F
:100BB0002D20FFF75BFFBDE802402D20FFF774BF3B
:100BC0001CB504461249206888421CD1FFF7FAFE82
:100BD000FFF7F8FE0F48816B21F4407141F48071FA
:100BE0008163816B41F400418163026842F4806259
:100BF0000260006800F48060009000982046BDE824
:100C0000164000F015B813BD50000058000C0058F5
:100C100000280040580000588A60FF210268516295
:100C2000012180F82110002180F820100020704759
:100C300090F82010012901D102207047012280F88C
:100C40002020022180F82110CA210268516253211C
:100C50000368596201688A6842F02002DCE7704745
:100C6000DFF83C150A6892B200E00246086880B2DC
:100C70008242FAD170472DE9FC4104461825DFF87D
:100C80002485DFF82465684308EB000730780628E0
:100C900008D131787170347078754FF0FF30706022
:100CA000002039E000F077F8B9680918B96008F158
:100CB0000803B96832786A439A589142327813D35C
:100CC00008F1150315FB02FC13F80C30062B25D098
:100CD00008F108066B43F358994222BF08F1150347
:100CE0006A439A5CEED219E01146337869439A421E
:100CF0000BD008F1140308F1150C5B5C15FB03F530
:100D00000CF805407A753B7500E07A7508F114021D
:100D10005454317871703470BDE8F68111466943DE
:100D200008F115035B5C062B04D008F1140615FBD3
:100D300003F574557B753A7508F115025454EBE7C9
:100D4000F8B5DFF86434DFF85C541E7818240246E6
:100D50006243B0422A4404D118785870507D18700C
:100D60000FE0167D507D92F815C005F1150766431A
:100D7000062807F806C004D0167D143514FB00F4CD
:100D80002E55012010731878062802BF00294FF055
:100D9000FF315960F1BD10B5DFF80C44606810F107
:100DA000010F0FD0FFF75CFF6168DFF8002481427C
:100DB00061683CBF5388C918081A517848431178B4
:100DC000C84000E0002080B210BD2DE9F84FDFF8E8
:100DD000DC53DFF8DCB3D5F80880D8F80000DBF886
:100DE00000104A0500F090F9DFF8BC63DFF8B4A307
:100DF00021F4806181604FF0180934780AF108000D
:100E000019FB04F14758FFF7C6FF874217D20027A6
:100E10000121B170062C3DD019FB04F40AF1080140
:100E20000AF108020959814223BF0AF10801095950
:100E3000091A002111510AEB04014C7DEAE7A98847
:100E40004118B94202D2AF880021E2E73F1ADFE73A
:100E5000022802DA2878012800D07F1ED8F8000086
:100E6000C1684A07FAD500F055F9DBF80C00000C10
:100E7000BFB247EA0047CBF80C70FFF7F1FE706095
:100E8000A8680068816841F480618160AFF30080E8
:100E9000BDE8F18FB8B20028DAD1FFF7E1FE70604B
:100EA0000320BDE8F24FFFF72DBE2DE9F843EFF325
:100EB000108872B6BD4DBB4BA8680168CA224A6251
:100EC00053204862B84A886820F4806088601820FF
:100ED0001678374647431F44387B022826D13C68A2
:100EE000D7F810909078F0B17A7B012A0AD10121CD
:100EF0003046FFF725FF88F310887968304600F008
:100F000016F904E088F31088304600F0C1F8A868AC
:100F10000068CA2141622246532141624846314657
:100F200000F050F90BE0FFF750FF06E0C8684207F9
:100F3000FCD500F07EF89F49086088F31088FF21F7
:100F4000A86802685162BDE8F183F8B5974CA160CA
:100F5000CA2209684A6253224A62954A136843F0DA
:100F600020031360136803F00703C3F10403237025
:100F700095682D0C05F07F056D1C6570EDB29268CB
:100F8000C2F30E02521C628092B2521E6A43A2F554
:100F9000A072DA404FF6FF739A422CBFA380A28062
:100FA000854A136843F400231360844B1D6845F49D
:100FB00000251D6048BB7C487A4E012383701825AC
:100FC0004FF0FF33436000235FFA83FC06F10C0708
:100FD00015FB0CFC4FF0000E07F80CE05B1CDFB2B9
:100FE000062FF1DB06230370886820F48060886098
:100FF00000F01FF8D0600320FFF78FFDA16808689C
:10100000826842F48042826005E0C868410544BFBE
:101010000320FFF777FDA1680A68FF2050620022D5
:1010200003210320FFF722FDBDE8F2400320FFF774
:101030003BBDC86800F0800060F49060C8604FF469
:1010400000207047F0B504460025EFF3108672B615
:101050001827DFF850C10CF10C0007FB05FE10F853
:101060000E0010B16D1C062DF5DB062D0CD06F4364
:101070000CEB07000127077386F3108804614273A5
:1010800003600D700020F0BD86F310880120F0BDD4
:10109000F8B50746EFF3108472B60320FFF70FFD93
:1010A000424DAE683068CA2141623A4653214162DE
:1010B000182043494243895C02291BD1002138464C
:1010C000FFF73EFE3848017806290ED130683849CE
:1010D0000A68530500F018F821F480618160C16846
:1010E0004A07FCD500F016F804E04078884218BFA3
:1010F000FFF76BFEA9680A68FF2050620320FFF724
:10110000D3FC84F31088F1BD02D5C1684A07FCD432
:1011100081687047C16801F0800161F49061C1602D
:101120004FF40020234908600320FFF7F6BC2DE9A7
:10113000F04180460F46424618201A4942438C1817
:10114000207B022804BF4046FFF7A2FFEFF3108583
:1011500072B60320FFF7B3FC144EB0680068CA21D2
:1011600041625321416202202073A76067604046BC
:10117000FFF781FD0C490A784978914202D0FFF7C8
:1011800024FE02E0A168081AA060FF20B1680A6886
:1011900050620320FFF788FC85F31088BDE8F081DA
:1011A000282800409C1000206413002030130020E9
:1011B000082800400C080058000800588008005813
:1011C000A81000201047704710B58EB002A80FF28B
:1011D0000441D54C302200F025FA0FF2A9300190DD
:1011E000009469460FF2853000F060FA0121022078
:1011F00000F045FBCD4A0021042000F0D8FB02A8F6
:1012000000F056FC08B100F04BFD00F09FF800F034
:1012100049FDC74C0FF23D32002084F880000021C8
:101220004FF6FF70E082012000F0C1FB00F09EFD50
:1012300000F0C5FD0FF21533002204F181010020FA
:10124000FFF700FF022060768021012020760D202C
:10125000A076022020761820E07603202076B5487C
:101260000180A0214180012000F019F90EB010BDCD
:101270007CB50646AE4D7078052805F1800404D093
:101280003E280DD0FF2824D03AE0B088E98A884271
:1012900002D10020E8822070012000F000F92FE048
:1012A000F178012908D00C292AD1E88A6A460DF183
:1012B000010100F000FE23E06078FFF7E9FE2078EE
:1012C00004280CBF062005202070B6F80500E8822F
:1012D00016E0B6F8030040F20241401A08D0C01EE2
:1012E0000BD0001F02BF0121E88A01F01EF807E0C1
:1012F000E88A914900F009FF02E0E88A00F0BDFFAA
:10130000012076BD00F0A7BF8948C08A00F04ABF1F
:101310001CB5874CE08A01AA0DF1050100F0CBFD58
:1013200098B99DF80500022804BF9DF80410022911
:1013300003D100200090012302E00020009002234E
:10134000E08A1A46002100F011FE13BD78B50FF2B5
:1013500048207A4D00887A4E89B0ADF81A0000F026
:1013600075FD286810F1010F0ED069683074090A04
:10137000000A707406F110046868B074F174080A09
:10138000090C3075717506E0002000F0E9FF0400DB
:1013900008BF0FF2102422460621002000F0F2FFC1
:1013A00060793072102120797072E078B072A07884
:1013B000F0726078307320780FF2F0147073224668
:1013C000182000F0DFFF0FF2F41600F063F84EF67D
:1013D0006E50089007AA2868079006212E2000F07A
:1013E000D1FF22461021182000F0CCFF00F052F867
:1013F0001821012000F0EDFF01F016F80DF11600A4
:1014000006A90190009105AB07220021012000F000
:1014100099FE0FF28810BDF81810454C0090052376
:10142000BDF81400002201F0BFF80DF11A00009081
:101430000223BDF81610BDF81400002201F0B4F824
:1014400002220221002000F069FD0120207000F03E
:1014500010FE01206070012108202071A170102071
:10146000607100210020E070049110213548A060D7
:101470000390082200200290019100920023012293
:101480000121012000F00EFEA07808B100F0C8FE96
:101490000AB070BD32461021082000F073BF2DE95C
:1014A000F8420746012F87B003D1224805884688B5
:1014B00003E04FF4C8654FF47A66DFF8749009F1E1
:1014C00080046078FFF7E4FD022F05D12078012821
:1014D00014BF022800F072FD2770002006900590CE
:1014E00009F119010491062299F818000FF2DC01A4
:1014F0000390029101920023009332462946002076
:1015000000F06EFD0E490E2000F062FE002808BFBC
:10151000012F06D160780C4908B0BDE8F042FFF712
:1015200006BE08B0BDE8F082A0080320EB16000854
:101530002C1100207813002040E201008075FF1F6D
:101540006C10002007B2010046E0010000210120DC
:1015500000F03ABA0220A2E70021042000F034BAD9
:10156000012000F057BA012000F05CBA10B5044623
:10157000616801F1080000F0A5FB00B101202070B6
:1015800010BD000010B1012803D07047072000F003
:101590002FBA072000F034BA4003000048525354D9
:1015A0004D000000000000000000000012345678DA
:1015B0009ABCDEF0123456789ABCDEF0FEDCBA0932
:1015C00087654321FEDCBA098765432109485253E8
:1015D000544D00000000000000000000000000006A
:1015E00000000000000000001E0004000A050201C7
:1015F00012279C00F4010000FFFF000048010100D9
:101600000020000062B38B0708D0521E11F8013B86
:1016100000F8013B00F024808B07F6D1830740F0EF
:10162000208000BF103A07D330B4B1E83810103A28
:10163000A0E83810F9D230BC530724BFB1E8081035
:10164000A0E8081044BF51F8043B40F8043BD2071F
:1016500024BF31F8022B20F8022B44BF0B78037013
:101660007047121F17D35B0009D151F8043B20F8D3
:10167000023B1B0C121F20F8023BF6D20BE051F884
:10168000043B00F8013B1B0A20F8023B1B0C121F15
:1016900000F8013BF3D238BF121D521E24BF11F8CF
:1016A000013B00F8013BF8D8704700007FB50C46BD
:1016B0006D4D61686D4EE8612962284600F0E0FFDB
:1016C000246805F1240000F0E5FF746006F10800CD
:1016D00000F0E0FF01203070296829B10FF25510A9
:1016E00000900294684688477FBD1FB55F4C04F1A7
:1016F000080000F0D2FF00BB2178F1B1694604F187
:10170000080000F0F3FF5848C16949B10098029001
:1017100001228DF8042001A888479DF8040000E00C
:1017200001202070207818B1009801F094F804E0AE
:10173000009904F1080000F0B9FF04F1080000F07E
:10174000ACFF28B9207818B104F10800FFF704FFB6
:101750001FBD2DE9F8430646002000F05FF87488AD
:101760003088B268DFF80081C4F3090444EA8024B9
:10177000F068A4B2C1B2204600F03CF8002748F25D
:10178000E8094846FFF7EFFE08E06888A04202D16A
:10179000316928780870687800B1012708F12400C1
:1017A00000F07BFFF0B9694608F1240000F09EFFCD
:1017B000009800F10B05407A0F28E6D0B5F801102B
:1017C000A1420DD10098817AC81E7169C0B28842C9
:1017D000C8BF0846706102463069E91CFFF712FF76
:1017E0002878D9E73800CCD0012000F017F8002085
:1017F000BDE8F28310B513461C4A5468A4F80900EA
:10180000E1720A46194604F10C00FFF7FBFE164A86
:101810001369BDE810400021002018471249096AE9
:1018200082B008B921B101E011B1012002B008472E
:1018300002B0704710B50146487A0F2818BF0E282D
:1018400007D10B4800F03CFFBDE810400020FFF737
:1018500087BE064C04F1080000F032FF04F10800D6
:10186000BDE81040FFF778BE6C1200201013002076
:10187000901200201948002101604160704710B5A6
:1018800000F00CF85C6819B1012904D1204301E093
:1018900024EA0000586082F3108810BDEFF3108234
:1018A00072B60E4B704738B5EFF3108472B60B4921
:1018B0000B4D086820B129688847686880470AE0AE
:1018C000486820B1A9688847E868804703E028692C
:1018D00080476869804784F3108831BD3C1300203D
:1018E000843D00082DE9FC475B4CDFF87091A56949
:1018F0002840A0614FF0FF3A4FF0010830E0491C4A
:1019000054F831000642FAD004EBC1061840716861
:101910001040014208BFC6F804A07768384000F0C4
:101920009FF8606208FA00F087437760EFF3108158
:1019300072B6626A206908FA02F2D243104020614E
:10194000022004EBC00353F8086C1640401E43F815
:10195000086CF6D181F31088606A59F82010884726
:1019600063692069A2691840104207D0E069216AC2
:10197000084203D1002103EA0206C1E7C4F824A00B
:1019800000F0B7FFEFF3108972B62169606901407A
:10199000A069014201BFE169206A014201F012F829
:1019A00089F3108801F02BF8A561BDE8F38738B5FD
:1019B0001446EFF3108572B600F052F8274941F84B
:1019C000204085F3108831BD10B500F00BF80443BA
:1019D0001C6153F83140204343F83100FFE782F3A4
:1019E000108810BDEFF3108272B61B4B1C69704754
:1019F000EFF3108172B6184A536923EA000005E03C
:101A0000EFF3108172B6144A53691843506181F3A1
:101A100010887047EFF3108172B60F4AD3691843EC
:101A2000D061F4E7F8B50C4C656A276A2E4615F1CB
:101A3000010F0EBF0025012101FA05F5206202E029
:101A4000284600F0C1FF216AE0690842F8D08843C7
:101A50006662E0612762F1BD44100020B0110020F1
:101A600002460020110C090404BF1020120412F0D9
:101A70007F4F04BF083012020FF2180112F0704FAE
:101A800004BF001D1201120FC0F11F00895C401A33
:101A9000C0B270470403020201010101000000000E
:101AA0000000000001F001F89DF80E0005B000BD37
:101AB000F8B500F10C026B4624214FF66640F1E7C1
:101AC000F8B500F10C026B460F214FF66840E9E7CC
:101AD00080B567494FF400400860FEF77BFF0020A7
:101AE00000F03EFC48B180796249634A0A600A68A6
:101AF00022F47C5242EA00220A6000F015F800F05D
:101B000080F85E48016800220260026902F050021B
:101B1000026100F0A0F800F07FF800F0EBFE4FF05B
:101B2000FF30FFF7DFFEFAE718B5A5B014A844218F
:101B300001F00AF801A81C2101F006F808A83021DC
:101B400001F002F8FEF73EFF4D48016821F0180150
:101B50000160072014904FF48031012016901591F8
:101B60004020189000214FF480741E91179414A8FF
:101B7000FEF7EDFA08B100F093F86F200190022112
:101B80000020029103900490059006900790012197
:101B900001A8FEF759FD08B100F082F84FF460503B
:101BA000089002214FF48040119012911020139060
:101BB000109408A800F0D6FF08B100F071F8314980
:101BC000086820F0700008602F480268C2F3032004
:101BD0000090009830B90A681209120142F004021C
:101BE0000A6008E000980A68801E80F30400120969
:101BF00040EA02100860086840F40040086026B01F
:101C000010BD80B521482249016001F067F810B18C
:101C1000BDE8014044E001BD002110B51D481E4C47
:101C2000416004600F21816047F6FF71C1600021AF
:101C300001618161416101F089F808B100F030F87B
:101C4000CA206062FF2153206062A068C008C00003
:101C5000A060616210BD114881B0016841F00401CB
:101C60000160006800F004000090009801B0704727
:101C7000104000589C000058FECAFECA8008005858
:101C8000900000581C0400585875FF1F30120020A7
:101C9000000C005898120020002800404C0000580A
:101CA00072B6FEE71C490020087700221B4802702C
:101CB00000F036B818490A7F41F82200087F401C1E
:101CC0000877704770B504466078FF2802BFB4F803
:101CD000031001F47F41B1F5406F12D100260E4D83
:101CE00000E0761C297FF0B288420AD2F1B255F8A2
:101CF0002110204688470100F3D002D0022805D0E9
:101D000006E02046BDE87040FFF7B2BA002070BD83
:101D1000012070BD00000000E012002080130020B0
:101D200080B501F0B7F801F0B6F801F0B5F801F0B0
:101D3000B5F801F0EDF801F0ECF801F069F901F007
:101D4000CDF901F0CCF901F0CBF901F0CAF901F0BD
:101D5000C9F901F0C8F901F0C7F901F0C6F901F0BD
:101D6000C5F9BDE8014001F0C2B90000E0B505A029
:101D7000042100908DF8041042F62920694601F0F4
:101D8000B4F807BD53544D0010B500782B4C18B172
:101D900002280FD004D310BDA0800120207310BDF5
:101DA000607BFFF775F9607BBDE8104040F60101EC
:101DB000FFF7BDB9607BBDE81040FFF769B910B50A
:101DC0000FF2450200210220FFF7F1FD1B4C00211C
:101DD000042021732070214642F6382001F063F977
:101DE0001F20E07204F10D010A20A0800120A072E2
:101DF0004FF48060E0800122BDE810400FF24503FF
:101E00000020FFF71FB900000D480C490068CA7A8E
:101E100000F00700413048801307087B04D518B94B
:101E20008888401D888003E0012804BF00200873D3
:101E3000891C42F6372001F036B90000001300205B
:101E40002828004000210220FFF7BEBD00B587B062
:101E500000F010F8012003220690ADF80420ADF840
:101E6000062000F0A5F800284CBFFF209DF80000D8
:101E700007B000BD00208DF800001822002101A845
:101E800001F03CB9ADF80600049107A80121082231
:101E900003900691ADF8042070470922002168469E
:101EA00001F02CB91822002102A801F027B918224C
:101EB00001A801F023B970B5C8B006460C46154616
:101EC0000522FFF7EBFFADF82060FFF7EBFF3021B5
:101ED00000F014F80521049000F019F8002848BF1C
:101EE000FF2009D49DF8000030B99DF80300207050
:101EF0009DF804002870002048B070BDADF80A10AD
:101F000008200221ADF80800059108A87047079144
:101F1000CDF818D0002102A8FFF71BBC00B5C7B050
:101F200000F00EF8FFF7C3FF312000F013F800F0C7
:101F30003FF800284CBFFF209DF8000047B000BDCF
:101F400000238DF81C008DF8003007A841708270C6
:101F500000217047ADF8060007A90320049008226D
:101F6000012003910690ADF80420704730B5C7B04A
:101F70000025ADF81C008DF81F2007A84A9C817031
:101F800003718DF80050ADF82140FFF776FF0F2167
:101F9000029132200721FFF775FF00F009F80028B1
:101FA0004CBFFF209DF8000047B030BD0390069164
:101FB000CDF814D0002101A8FFF7CBBB00B587B046
:101FC00000F045F900F073F9812000F03BF900F0D2
:101FD00085F900284CBFFF209DF8000007B000BD28
:101FE0002DE9F84DC7B09446DDF840E1519A559D72
:101FF000569EDDF84CA1ADF81D108DF81C004FF079
:10200000000BADF81FC08DF821308DF822E000F0F4
:1020100024F800F017F824F8095F668000F047F90B
:102020003F20832100F075F9574406910D3704973E
:1020300000F057F900284CBFFF209DF8000048B081
:10204000BDE8F08D88F800A007AC5499E419524619
:1020500008F10100544401F04BB88DF823201746D5
:1020600052998DF800B00DF1240809A8B84401F088
:102070003FB800B5C7B000F00CF8852000F0C3F8F9
:1020800000F02CF900284CBFFF209DF8000047B05D
:1020900000BD00218DF81C008DF80010182201A849
:1020A00001F02CB82DE9F841C7B04FF0000800F05E
:1020B00026F80DF12300DDF844E14E9F4F9E509D20
:1020C000529C8DF81F30C0F800E08DF800808DF82C
:1020D00020708DF821608DF822508DF8274000F097
:1020E000E6F88620ADF8060007A90C2000F0F2F80B
:1020F00000284CBFFF209DF8000000F024B98DF8A7
:102100001C0007A841708270704700B5C7B000225C
:10211000ADF81C008DF800200DF11E0018220160A2
:1021200001A8002100F0EAFF8820ADF8060007A909
:10213000062000F0CFF800284CBFFF209DF80000DB
:1021400047B000BDF8B5C8B005460E4617461C4658
:1021500000F023F808A8467087708DF8205000F032
:10216000D3F88A21ADF80A103F20032100F0BFF810
:10217000002848BFFF200ED49DF8000058B94F99A1
:102180004E98BDF801202280BDF803200280BDF8E2
:1021900005000880002049B0F0BD072200216846F4
:1021A00000F0ACBF00B5C7B00021ADF81C00FFF7D0
:1021B00073FF0F2102918D20022100F07EF800F0C4
:1021C0008EF800284CBFFF209DF8000047B000BDEE
:1021D00018B5C7B0044600F03AF88DF81C40224606
:1021E00000F09FF800F063F83F208E2100F0AEF879
:1021F000641C049400F075F800284CBFFF209DF883
:10220000000048B010BDADF8060007A901203F222C
:10221000039104907047ADF8060007A902207047AB
:1022200000B587B000F013F800F041F8922000F0FC
:1022300009F800F053F800284CBFFF209DF800007B
:1022400007B000BDADF806003F2201207047002016
:102250008DF80000704700B587B0FFF7F8FF00F079
:1022600026F89420FFF7EEFF00F038F800284CBF66
:10227000FF209DF8000007B000BD00B5C7B00021E9
:10228000ADF81C00FFF708FF9520FFF7C4FF00F032
:1022900021F800284CBFFF209DF8000047B000BD8A
:1022A00000228DF80020ADF81C008DF81E101822B9
:1022B000002101A800F022BF0321ADF8060004911F
:1022C00007A801213F22039006917047ADF8060050
:1022D00007A9032004903F22012003910690ADF846
:1022E0000420CDF814D0002101A8FFF732BAADF8D0
:1022F0000800059108A8072104900791CDF818D08F
:10230000002102A8FFF725BA1822002102A800F038
:10231000F5BEADF80400ADF8061007A80121039042
:1023200070470DF11D0000F0E3BE00B5C7B0FFF728
:10233000B7FFA520FFF7CAFF00284CBFFF209DF87C
:10234000000047B000BD48B0BDE8F081ADF8040022
:10235000ADF8061007A80121039006917047000010
:1023600001460648064AC3798B4218BF904218BFFF
:102370000838F8D18B4218BF00207047F873FF1F50
:102380000070FF1F18B50C46C7B0114600228DF82B
:1023900000208DF81C008DF81D4022460DF11E0016
:1023A00000F0A6FE00F02AF83F200C21ADF8040052
:1023B000ADF8061007A8012103900691A41C04940F
:1023C00000F02CF800284CBFFF209DF8000048B01A
:1023D00010BD00B5C7B000F00AF80F2000F013F8E8
:1023E00000284CBFFF209DF8000047B000BD002230
:1023F0008DF800208DF81C008DF81D10182200218A
:1024000001A800F07BBEADF8060007A902200490E9
:102410003F22012003910690ADF80420CDF814D09E
:10242000002101A8FFF795B900B587B000208DF80D
:10243000000000F0E0F840F20110ADF806003F2285
:102440000120069000F013F900284CBFFF209DF8F2
:10245000000007B000BD2DE9F84107460128C7B0CC
:10246000884615461E4608BF022003D002280CBF2E
:10247000102000200DF11D010C1800F036F8012F7E
:102480008DF81C7002D0022F18D019E002273A46AE
:1024900041460DF11D0000F02BFE2570667000F026
:1024A000AAF83F204FF4817100F016F8FF1C049742
:1024B00000F0DFF8002805D5FF2009E01027E6E747
:1024C000472005E09DF8000010B94E9800F067F82D
:1024D000FFE748B0BDE8F081ADF80400ADF80610A4
:1024E00007A8032103900691704703220021684644
:1024F00000F004BE2DE9F64F0C460546012CC7B08E
:102500009B4608BF022003D0022C0CBF10200020E5
:102510000DF11F010E18FFF7E8FF012CADF81C505C
:102520008DF81E4002D0022C2CD02DE00227569CA4
:10253000559DDDF85091DDF84CA1DDF848814899B2
:102540003A4600F054F8A6F800B086F8028086F803
:1025500003A086F804907571B47100F04CF83F2028
:10256000ADF804004FF4827107A8ADF8061003908F
:1025700003210A370497069100F07BF8002805D55F
:10258000FF2009E01027D2E7472005E09DF8000072
:1025900010B9579800F003F849B0BDE8F08FBDF8C6
:1025A000011001800020704730B5C7B01C464A9B1F
:1025B00000F049F800258DF800508DF821402246A2
:1025C00019460DF1220000F093FD00F014F83F20B1
:1025D0004FF4837100F042F8A41D049400F049F810
:1025E00000284CBFFF209DF8000047B030BD0DF122
:1025F0001F0000F07DBD1822002101A800F07EBD63
:1026000078B5C7B04C9C4D9D00F01DF800268DF8A4
:1026100021308DF800608DF822402246294600F0D6
:1026200019F8FFF7E8FF3F204FF4937100F016F818
:10263000E41D049400F01DF800284CBFFF209DF815
:10264000000048B070BDADF81C00ADF81E108DF84C
:10265000202070470DF1230000F04ABDADF80400C2
:10266000ADF8061007A80121039006917047ADF858
:102670000420CDF814D0002101A8FFF76AB80000AB
:102680000249016002490161704700BF53270008F9
:1026900079270008006040607047EFF3108172B640
:1026A000026882420CBF012000201CE0EFF3108280
:1026B00072B603680B60486001600868416023E0FF
:1026C000EFF3108272B6086043684B60416048685F
:1026D000016019E0EFF3108172B64268036813607D
:1026E00002684368536081F31088704710B5EFF3B8
:1026F000108472B602680A600068FFE7FFF7EAFF1D
:1027000084F3108810BD0B6082F3108870470000BE
:1027100000F072BD6C486D49016001F12002426019
:1027200001F13002826001F13C02026201F14402D7
:10273000426201F14C02C26001F15402026101F1F6
:102740007002426101F1740282618031C16100F066
:1027500071BD38B504465E4D2846FFF79BFF5A48C9
:102760004068A1680160E168C160856059494160C5
:1027700000F07CFD58482AE080B553484268136851
:1027800001211972406800F077FD002002BD38B5C4
:10279000514C4F4D04E000F041F800982168884703
:1027A0002846FFF77AFF0028F5D031BD4A48416836
:1027B000084738B50446494D2846FFF76BFF4248A5
:1027C000C068A1680160456000F05BFD4448216875
:1027D000016061684160002032BD80B53A48C2683E
:1027E000136810211972C06800F051FD002002BD6D
:1027F00035483B4AC168C16813680868184738B54E
:10280000374C364D04E000F009F8009861688847BD
:102810002846FFF742FF0028F5D031BD694628461B
:10282000FFF764BF38B504462E4D2846FFF732FF48
:102830002D48FFF72FFF24480069A1688160E168F7
:10284000C160056121680160616841602169416181
:102850006169816131BD80B501462348FFF730FFD2
:10286000BDE802400FF2050000F021BD38B5164C5E
:102870001D4D06E0FFF7D2FF009920690069FFF7C0
:102880001FFF2846FFF709FF0028F3D031BD10B520
:10289000164C2046FFF7FEFE0B4841690C60BDE870
:1028A000104000F018BD1CB5104C06E069462046EB
:1028B000FFF71CFF009800F01BF82046FFF7EDFE25
:1028C0000028F3D013BD000000000320AC09032052
:1028D000480A0320900803204C130020500A0320CC
:1028E00054130020380A032044130020400A032018
:1028F0007047704710B52048204C88B0016841F4FB
:1029000000410160FEF7B6FF1D480168C908C90013
:1029100041F00401016000F0F7FC1A490020FEF7C5
:1029200014FB00F006FD01210120FEF7A8FF00F0D6
:102930003AF8FFF7EFFE144A00210820FFF737F8B6
:1029400004F23C500FF245010090019169460FF2EC
:10295000410000F055F804F25470029004F5C9618A
:1029600040F23C5005900391049402A8FFF75AFFEF
:10297000FFF7CEFE08B010BD08000058300003205D
:102980008004005898120020432A00087047000075
:1029900080B500F0FCFCFEF717FCBDE80440002108
:1029A0000120FEF76CBF80B50121002000F011FE70
:1029B0000121012000F00DFEBDE8044001210220AC
:1029C00000F007BEFEF76FBF4FF0FF30FEF78ABF83
:1029D00000210820FEF7F8BF0220FFF71BB80220F5
:1029E000FFF720B8012804D0102804D0402804D0D4
:1029F0007047FEF787BCFEF787BCFEF789BC7047BF
:102A00007FB50C464D4D61684D4EE8612962284600
:102A100000F046FE2468746006F10800FFF73AFEF5
:102A2000012000F068F801203070296841B10FF2F0
:102A3000E9000FF2ED020090019202946846884787
:102A40007FBD1FB53E4C04F10800FFF726FE00BB1A
:102A50002178F1B1694604F10800FFF747FE3748D5
:102A6000C16949B10098029001228DF8042001A8A3
:102A700088479DF8040000E001202070207818B1FC
:102A80000098FFF7E8FE04E0009904F10800FFF762
:102A90000DFE04F10800FFF700FE28B9207818B1F8
:102AA00004F10800FFF794FF1FBD2DE9F041054632
:102AB0000E4690461C46002000F01DF8204F786816
:102AC000A0F80950C672324641460C30FEF79AFD16
:102AD0001A4A136900210020984748F2E800FFF7DE
:102AE0007EFF79688A78D21C04F10800FEF78AFD1F
:102AF000BDE8F04101201CB51049124C096A20B90B
:102B000001B188470020207013BD0120207011B151
:102B1000BDE81C40084713BD0020FFF75DBF000063
:102B200010B50146064C04F10800FFF7C9FD04F199
:102B30000800BDE81040FFF74BBF0000BC120020AA
:102B40002013002081130020002200F0B3BD0000FC
:102B5000DFF87C211368010C23EA014343EA0043B8
:102B6000136070472DE9F041054600272868DFF81B
:102B700064610105B8462FD53468286A04F44074AE
:102B8000844229D0FDF71EFF002C316805D1286A48
:102B900021F44071014331601DE0306840F4803021
:102BA000306021F44071326822F480323260286A49
:102BB000014331603068C0070DD5FDF7FDFE0446C6
:102BC00041F289383068800705D4FDF7F5FE001B17
:102BD0004045F7D30327B8462878DFF8FC40C10703
:102BE00005D5E16F6868890840EA8101E1672878C6
:102BF000810705D5E16FA86821F440610143E167D1
:102C00002878C10644BF2869FFF7A2FF287881060B
:102C100044BF6869FFF79CFF287841070AD5E86838
:102C2000E16F020902F47F220001914300F47F204A
:102C30000843E067286881051ED5A869B0F1804F78
:102C400018BFB0F1004F00D018B9E16F21F040413A
:102C500008E0E16F21F04041E16720F08050E16F32
:102C600021F040610843E067A869B0F1C05F03D17B
:102C7000216841F080712160286841050DD5E16F20
:102C8000E86921F040510143E167E869B0F1005F74
:102C900003D1216841F4803121602868C10405D541
:102CA0007168686A21F440410143716028688104B9
:102CB0000BD5A169E86A21F030010143A161A16946
:102CC000A86A890840EA8101A1614046BDE8F08117
:102CD00088000058900000580C000058F8B50446D1
:102CE0000025ACB104F13406307910B92046FDF767
:102CF0004BFF0F4F384600F021F8386840F00110C4
:102D00003860204600F007F835600120307100E09F
:102D100001252846F2BD10B50021064A064B00EBFE
:102D20008104491C06296360E261F8D310BD0000EC
:102D3000000C0058C71100085F0C0008002101605A
:102D40004FF03F1141603F218160704738B504006A
:102D500044D094F8210028B9002184F8201020469E
:102D6000FDF72EFF00F049F8FF2510B100F03FF805
:102D700034E02168DFF8B0008A6802408A60216888
:102D80008A68636820690343A06903431A438A6021
:102D90002168E068086120680169A26841EA02418F
:102DA00001612068C16821F08001C1602068C16CA8
:102DB00021F00201C1642168CA6CE36960690343C0
:102DC0001A43CA6420688168880609D400F020F894
:102DD00030B120684562042100F01FF8012032BDA7
:102DE00020684562012184F82110002032BD20684E
:102DF0004562042184F821107047022084F82100E4
:102E0000CA2021684862532022685062204626E08A
:102E100020460BE02068C0F8248084F821100020B0
:102E200084F8200070470000BFFF8FFF70B5044694
:102E300040F2E9362068C16821F0A001C160FDF7C9
:102E4000BBFD05462068C168880606D4FDF7B4FDC1
:102E5000401BB042F6D3032070BD002070BD70B59A
:102E600004462068C1684A0612D44FF0FF32C2609F
:102E700040F2E936FDF7A0FD05462068C168480626
:102E800006D4FDF799FD401BB042F6D3032070BD78
:102E9000002070BD704770477047000018B51B4C8C
:102EA0000020206087B041F60A00ADF818000094B9
:102EB0000323012206A90120FFF7CDFA42F62922B9
:102EC0000121ADF818200491A01C05900A220023CE
:102ED000022103920293019300912023208806AAE5
:102EE0000121FFF707FB08B010BD80B542F629228B
:102EF000904209D10A680548009200220B79418866
:102F00000088FFF751FB02BD002002BD7C130020AA
:102F10007047704738B5024686B050780024FF28C5
:102F200039D1B2F803106B4840F60143C91A1FD0DB
:102F3000123901BFB2F80710C088401C81422AD163
:102F4000957AB2F80500537A0124012D08D10A328E
:102F50000192009300220023FFF752FB002015E0AE
:102F60000A320192009301228023FFF749FB12E00D
:102F70004088B2F80710801C81420CD1507B01249C
:102F8000C10748BF8DF8084002D402208DF8080020
:102F900002A8FEF7F9FE204607B030BDFEB5014697
:102FA00001AA487A8DF804004B7A08885070DC0733
:102FB00004D50888000A9070032300E00223487AB1
:102FC000040707D54888D0545B1C4888DCB2000A47
:102FD00010555B1C4C7AE00610D50D7A00200BE0F2
:102FE00001EB4004DFB2A688D6555B1CA488DEB294
:102FF000240A94555B1C401CA842F1DB01A935480A
:103000000091DBB2418800880022FFF7CDFAFEBDB7
:1030100018B587B030482F4CFEF74CFE41F60D0135
:10302000ADF8181000940823012206A90120FFF72B
:1030300012FA42F63720ADF81800012204920A2055
:10304000A11C03900023102205910293019300928A
:10305000072300F023F842F63820ADF818000022CC
:103060000492029201920A20211D039002220591EE
:1030700000F012F842F63920ADF818000022049250
:1030800001920A20A11D03900223082205910293B8
:1030900000F002F808B010BD00920123208806AAB3
:1030A0000121FFF727BA80B5002242F63723C01A64
:1030B00009D0401E0BD10748009101238188008868
:1030C000FFF772FA02E00846FFF768FF0246104673
:1030D00002BD00005C130020152F000870477047E8
:1030E0007047704770477047704770477047704728
:1030F00010B50446FEF786FA204610BD10B504460A
:1031000010460A460146204600F0EEFA204610BD61
:10311000C0680840884201D10120704700207047F4
:10312000C0690840884201D10120704700207047E3
:1031300010B56C4C02212046FFF7F2FF38B16068F1
:10314000C043810703D5FFF75AFB022018E0012195
:103150002046FFF7E5FF38B16068C043C10703D5DB
:10316000FFF715FB01200BE008212046FFF7D8FFF1
:1031700038B16068C043010703D5FFF794FB08200E
:10318000A06010BD10B5574C00F033F818B9606856
:10319000C043810306D400F02CF830B96068C04306
:1031A000810302D5BDE810407AE0082100F022F842
:1031B00070B96068C04301030AD560684A4940F4A9
:1031C00000206060086880474FF40020A06010BDB8
:1031D000202100F00FF858B96068C043810207D57C
:1031E000606840F400106060BDE81040FFF7DEBA90
:1031F00010BD022120468BE73C4881B0016841F4B4
:1032000080110160006800F4801000900098384838
:10321000016841F4007101603648026842F40072AE
:10322000026040BF20BF3448016841F400410160A2
:1032300001B0704780B53148016841F480110160E8
:10324000006800F48010009000982648016841F062
:1032500001010160026842F4803202602C20FDF717
:1032600023FCBDE802402D20FDF71EBC2448016868
:10327000490849000160704722494FF480300860D6
:1032800070471F48016821F00201016070471C4827
:103290004FF400314160016821F400310160704752
:1032A0001748016841F400310160FFF7A1BA38B551
:1032B00004460C4D08212846FFF72AFF30B10A4882
:1032C0000460686820F40020686031BDA0474FF4B6
:1032D0000021A96031BD0A48016821F008010160A0
:1032E00070470000000C00586C130020500100587B
:1032F000D4080058200800580C040058500000580A
:10330000040C0058080C00580248016841F4007190
:103310000160704708040058564900E0564981B0E2
:103320000A6802430A60096808400090009801B0EA
:10333000704718B585B068461421FFF705FC0320D7
:1033400001904FF460410024009102940120FFF7A6
:10335000E3FF00F097F8474C2068400840002060E9
:10336000182100910220FFF7D7FF6946434800F07B
:10337000EFF9206820F002002060FDF742FBFDF726
:1033800046FBFDF74AFB00F011F806B010BD00B592
:1033900087B068460FF208211C22FEF743F9FFF7B9
:1033A00076FA6846FEF78CFB07B000BDF0B585B035
:1033B00068461421FFF7C8FB0026002500240021E1
:1033C0000FF2CC0000EBC102907988B11368B3F121
:1033D000904F08D0294FBB4208D0294FBB4204BFB1
:1033E0009088044304E09088064301E090880543F8
:1033F000491C2229E4DB00200290012103200390D4
:103400000191B0B270B100900120FFF785FF01205B
:10341000FFF784FF00F036F80022B1B24FF0904081
:1034200000F04EFAA8B280B100900220FFF774FFBE
:103430000220FFF773FF114E6946304600F088F90D
:103440000022A9B2304600F03BFAA0B280B1009051
:103450000420FFF761FF0420FFF760FF084D694675
:10346000284600F075F90022A1B2284600F028FA9B
:1034700005B0F0BD4C0000584C0100580004004855
:103480000008004869464FF0904000F061B9000024
:10349000000000480100000000000048010000009A
:1034A000000000480100000000000048010000008A
:1034B000000000480100000000000048010000007A
:1034C000000000480100000000000048010000006A
:1034D000000000480100000000000048010000005A
:1034E000000000480100000000000048010000004A
:1034F000000000480100000000000048010000003A
:103500000000004801000000000000480100000029
:103510000000004801000000000000480100000019
:103520000000004801000000000000480100000009
:1035300000000048010000000000004801000000F9
:1035400000000048010000000000004801000000E9
:1035500000000048010000000000004801000000D9
:1035600000000048010000000000004801000000C9
:1035700000000048010000000000004801000000B9
:1035800000000048010000000000004801000000A9
:103590000000004801000000000000480100000099
:1035A000000000000000000000000000903400084F
:1035B000280003202C00032022040400294981B0A4
:1035C0000A6802430A60096808400090009801B048
:1035D0007047F0B585B005460C4668461421FFF7E4
:1035E000B3FA2DB1012D08BF102002D0022D02D157
:1035F0000120FFF7E3FF0FF28C001B4F30F815009E
:10360000009001210220039007EB850602913068AB
:103610002CB900210191694600F09AF81FE0134986
:10362000019107EBC504694600F092F80FF26000C3
:1036300050F8251004F1240000F067F9F268002129
:1036400004F1240000F05AF90FF240004457B16928
:1036500000222046FDF70AFA2046FDF725FA002051
:1036600005B0F0BD4C0000580810002000002110EB
:10367000002000F013B8012000F010B8022000F084
:103680000DB800000100100040000000060A1700FD
:103690000000001604000016060000167047000027
:1036A0000249016002490161704700BFB327000869
:1036B000DB27000800B500BF13009646944610397A
:1036C00028BFA0E80C50FAD85FEA417C28BF0CC0A4
:1036D00048BF40F8042BC90728BF20F8022B48BF79
:1036E00000F8012B00BD000062F30F2262F31F42BD
:1036F000401810F0030308D0C91A1FD3DB0748BFD6
:1037000000F8012D28BF20F8022D130030B4144614
:103710001546103928BF20E93C00FAD8490728BFD0
:1037200020E90C0048BF40F8042D890028BF20F88C
:10373000022D48BF00F8012D30BC7047C91818BFD2
:1037400000F8012DCB0728BF00F8012D70470000BD
:103750002DE9F84F4FF00009614A624B4FF00F0816
:1037600005460E4633E0604FBD4214BF07270427CD
:103770008F4027434CF82E70C1431C6801EA040CAB
:103780007468E40348BF40EA0C0CC3F800C05C68EE
:1037900001EA040C7468A40348BF40EA0C0CC3F8A7
:1037A00004C0146801EA040C7468E40248BF40EAEB
:1037B0000C0CC2F800C0546801EA040C716889025C
:1037C00048BF40EA0C0CC2F804C009F10109316895
:1037D00031FA09F072D0012404FA09F414EA010064
:1037E000F3D04FEA490C032101FA0CF16FEA010E04
:1037F0007168012918BF022903D0112918BF1229A5
:1038000011D1A968F7680EEA010107FA0CF73943EC
:10381000A960696821EA04047168C1F3001101FA22
:1038200009F10C436C60E968B4680EEA010104FA1E
:103830000CF42143E9604FEA89017468022C18BF37
:10384000122C12D14FEAD90405EB840401F01C07B5
:10385000D4F820A008FA07FB2AEA0B0AD6F810B021
:103860000BFA07F747EA0A0727622C680EEA0407F3
:10387000347904F0030404FA0CF43C432C607468BB
:10388000E400A2D5DFF864C04FEA990E5CF82E7010
:1038900001F00C0108FA01F427EA0404B5F1904F95
:1038A00008BF002709D0124FBD4208BF012704D02E
:1038B000104FBD427FF457AF022759E7BDE8F18FA3
:1038C00081B0002A14BF8161816201B070470A4A49
:1038D000136803421CBF1060FFF784B870470000F4
:1038E00000080058800800580010004808000140F7
:1038F00000040048000800480C0800580346002057
:1039000009B95A6070470120704708B90120704713
:10391000016000207047000000EB8100374AD0F8BA
:103920008010914201D0012070470020704742F47E
:10393000806240F8212070477047704710B500F052
:1039400083F82F4C00F049F80028FBD1042100F047
:1039500045F828B92B480068010403D500F040F869
:1039600000F058F80022032100F03CF826480168D6
:10397000C908C90041F0010101602448016841F013
:103980000401016030BF10BD10B51D4C00F028F8D7
:1039900000F023F80028FBD14FF0B040816801F01F
:1039A0000C01042911D1016841F4803101600168E2
:1039B0008903FCD581688908890041F00201816092
:1039C000816801F00C010829FAD10022032100F0DE
:1039D00009F8BDE8104000F03FB8032120469BE7FE
:1039E000002204212046A2E780B500F02DF8074808
:1039F000016821F00401016030BF01BD00040080B6
:103A000000140058880400580004005810ED00E02D
:103A100000F022B84FF0B040016841F480710160BD
:103A200001684905FCD581688908890041F00101D8
:103A30008160416A890889004162816801F00C0156
:103A40000429FAD1704700000248016821F0020100
:103A50000160704710E000E00248016841F0020197
:103A60000160704710E000E01349002008604FF447
:103A7000E0221248016841F4700101604FF0B0414A
:103A8000086840F0010008608A600D480A6802403A
:103A90000C480A60036823F005030360426852087B
:103AA0005200426000220848C860086820F4802064
:103AB00008608A617047000008ED00E088ED00E0D2
:103AC000FBFEF6FA940000580010042201000000EA
:103AD00003000000050000000100000001000000DC
:103AE000060000000A0000002000000002000000A4
:103AF000040000000800000010000000400000006A
:103B0000800000000001000000020000A08601000B
:103B1000400D0300801A060000350C0040420F00E3
:103B200080841E0000093D0000127A000024F40089
:103B300000366E010048E801006CDC020000000065
:103B400000000000000000000000000000F024F869
:103B5000012810D00D4880470D480047F0B5434676
:103B60004C4655465E466746F8B40A4C6B462360A1
:103B7000BFF34F8F30BF074C2468A546F8BC98466A
:103B8000A146AA46B346BC46F0BD0000693A00080B
:103B90009D3D000870130020024900200860704716
:103BA000000000007413002019E050F8042BD30724
:103BB00044BFA9F101039A18091F0023042942F800
:103BC000043BF9D25FEA817C134604D54FF0000C28
:103BD000A2F800C09B1CC90744BF0021197050F80F
:103BE000041B0029E1D17047FEE7FEE7FEE7FEE790
:103BF000FEE770477047704700F012B8FFF798BAB9
:103C0000FFF7C0BA00F014B80120FFF760BE102023
:103C1000FFF75DBE4020FFF75ABEFDF746B9000032
:103C2000024841680278891841607047841000207A
:103C30000449C8680A6882430A60486000F004B812
:103C400000000000001500587047000010B500F09B
:103C500013F802000023DB4300241068984203D0CD
:103C600011000220ABBE14605068984203D0111DB1
:103C70000220ABBE546010BD014870470000000038
:103C80009010002010B450F8041B79B1026843680A
:103C900002440830DC0744BFA9F10104E31852F8DC
:103CA000044B43F8044B091FF9D1ECE710BC7047F3
:103CB00010B5074979441831064C7C44163404E0A9
:103CC0000A68081D114488470146A142F8D110BD79
:103CD0002C000000680000004EF68851CEF2000172
:103CE000086840F470000860BFF34F8FBFF36F8F18
:103CF0004FF00070E1EE100A70470000ADFEFFFFCC
:103D0000E80200009C100020700800003000032032
:103D10000000000071FFFFFF080000008C000000A1
:103D200028000320000000005DFFFFFF940000005A
:103D30001C010000081000200000000000F00DF839
:103D4000002801D0FFF7B4FFAFF300800020AFF3ED
:103D50000080FDF7BDFE00F002F80120704700F082
:103D600001B800000746384600F002F8FBE7000003
:103D700080B5FFF76BFF024A11001820ABBEFBE7CE
:103D800026000200E9390008113A00083D39000810
:103D900089390008393900083B390008AFF3008041
:103DA000FFF79AFFFFF7CAFF0000000000000000C5
:103DB000FFF7FEBFFFF7FEBFFFF7FEBFFFF7FEBF37
:103DC000FFF7FEBFFFF7FEBFFFF7FEBFFFF7FEBF27
:103DD000FFF7FEBFFFF7FEBFFFF7FEBFFFF7FEBF17
:103DE000FFF7FEBFFFF7FEBFFFF7FEBFFFF7FEBF07
:103DF000FFF7FEBFFFF7FEBFFFF7FEBFFFF7FEBFF7
:103E0000FFF7FEBFFFF7FEBFFFF7FEBFFFF7FEBFE6
:103E1000FFF7FEBFFFF7FEBFFFF7FEBFFFF7FEBFD6
:103E2000FFF7FEBFFFF7FEBFFFF7FEBFFFF7FEBFC6
:103E3000FFF7FEBFFFF7FEBFFFF7FEBFFFF7FEBFB6
:103E4000FFF7FEBFFFF7FEBFFFF7FEBF0000004811
:103E5000001000480000004871360008773600085E
:103E60007D3600080F0000000F0000000F0000006A
:103E70000000000000000000000000000000000042
:103E80000000000000000000000000000000000032
:103E9000000000000000000000000000FFFFFFFF26
:103EA000FFFFFFFF00000000000000000000000016
:103EB0000DFF0100000000000000000000000000F5
:103EC00000000000000000000100000000000000F1
:103ED00010000000FFFFFFFFFFFFFFFF00093D0094
:0400000508003D9D15
:00000001FF
