:020000040800F2
:10000000F814002095410008953F0008973F00082C
:10001000993F00089B3F00089D3F0008000000003A
:100020000000000000000000000000009F3F0008EA
:10003000A13F000800000000A33F0008A53F000802
:10004000B1410008B5410008B9410008E33F00088C
:10005000BD410008C1410008D13F0008C54100086A
:10006000C9410008CD410008D73F0008D141000830
:10007000D5410008D9410008A93F0008DD4100082A
:10008000E1410008E5410008E9410008ED410008B0
:10009000F1410008F5410008F9410008DD3F000882
:1000A000FD4100080142000805420008094200081D
:1000B0000D420008114200081542000819420008CC
:1000C0001D4200082142000825420008294200087C
:1000D000AF3F0008B53F0008000000002D420008B7
:1000E0003142000835420008394200083D4200080C
:1000F000EB3F0008E73F0008414200084542000886
:1001000049420008000000004D420008514200082A
:1001100055420008594200085D420008614200084B
:100120006542000869420008BB3F00086D420008B4
:100130007142000875420008794200084FF0B04053
:10014000006800F0F000B02888BFB02070472DE9AB
:10015000F041040051D0207881064FF0B04535D5EC
:10016000A868E96810F00C0001F0030103D00C2826
:1001700008BF012943D12868800702D5E06900281B
:100180003BD0FFF7DBFF616A884207D2084600F0E8
:10019000B7FB002831D100F075FA0FE0286820F095
:1001A000F000014329606968206A21F47F4141EA37
:1001B00000216960606A00F0A3FBF0B900F043FC25
:1001C000DFF8D407006800F0CDFCB0B92078C10793
:1001D0000DD5A868E96800F00C00082801F00301BB
:1001E00003D00C2808BF03292CD12868800340F1D4
:1001F00040816068002840F03C8101203BE2E069DA
:1002000080B1296841F0010100F026FB064628680C
:10021000800700F12B8100F0C7FC801B0328F6D378
:10022000032028E228684008400000F0CBFB064687
:10023000286800F023FAC9D000F0B6FC801B032820
:10024000F6D3EDE76068B0F5803F06D0B0F5A02F9B
:10025000296807D141F480212960286840F4803062
:10026000286006E021F4803129602A6822F4802287
:100270002A60606860B100F097FC06462868800339
:1002800000F1F78000F090FC801B6528F6D3C7E7EB
:1002900000F08AFC06462868400C10F0010000F0CF
:1002A000E88000F081FC801B6528F4D3B8E700F0FB
:1002B0007BFCC01B0328C0F01081B1E7E06878B177
:1002C000296841F4807100F0C7FA064628684005A5
:1002D00000F1168100F068FC801B0328F6D39FE72D
:1002E000286820F4807000F06DFB06462868800ABC
:1002F00010F0010000F0DB8000F056FC801B0328AA
:10030000F4D38DE700F050FCC01B0328C0F00A8135
:1003100086E740F0010000F0C6F9074670688007E4
:1003200000F11B8100F040FCC01B0328F6D377E7E7
:10033000706820F0040000F0B6F907467068C00845
:1003400010F0010000F0188100F02EFCC01B042802
:10035000F4D365E70528306806D140F0040030602A
:10036000316841F0010105E040084000306031682B
:1003700021F004013160A06841F2893768B100F0D2
:1003800013FC80463068800700F10B8100F00CFC04
:10039000A0EB0800B842F5D342E700F005FC804628
:1003A000306800F06BF900F0FC8000F0FDFBA0EB82
:1003B0000800B842F4D333E700F0F6FBC01B032873
:1003C000C0F0FD802CE7B06840084000B06000F04D
:1003D000EBFB0746B06800F051F900F0F48000F044
:1003E000E3FBC01B0328F5D31AE700F0DDFB801BFD
:1003F0000328C0F01A8113E700F0D6FB001B032886
:10040000C0F034810CE7286881010CD4296841F0E0
:1004100080712960E86840F08050E86000F0C4FB1B
:1004200004462868810100F1258100F0BDFB001B16
:100430000328F6D3F4E60C2930D0286820F0807029
:100440002860E96889088900E960E86820F0805040
:10045000E86000F0A9FB04462868810140F10A81A8
:1004600000F0A2FB001B0328F6D3D9E600F00AF93E
:10047000ACE6207881071AD5A868E96800F00C007E
:10048000042801F0030104D00C2808BF02297FF4DE
:1004900015AF2868400503D5E06800283FF4ADAEED
:1004A0006968206921F0FE4141EA006169602168C4
:1004B000DFF8E86411F0180F38D0606900283FF4C5
:1004C00037AFC90670687FF524AF800709D470681C
:1004D00040F0010000F0E7F80746706880077FF5FC
:1004E000E6AE706840F0040000F0DDF80746706882
:1004F00000070DD400F058FBC01B0428F7D38FE68B
:100500006868216920F0FE4040EA01606860CEE73B
:100510007068A16920F4706040EA0120706000F00A
:10052000BFF8074600F0A9F87FF4ECAE2078410749
:1005300037D5DFF86C743868C10529D400F03AFB70
:1005400000F032FB80463868C10521D400F02CFB56
:10055000A0EB08000328F6D362E6706820F00400E0
:1005600070607068C00810F00100DFD000F01CFB64
:10057000C01B0428F5D353E600F092F8074600F0BC
:100580007CF8D3D000F010FBC01B0328F7D347E65C
:10059000A06801287FF4DEAE306840F001003060D2
:1005A000E9E6217848060ED5A06A00283FF40BAF93
:1005B000B16841F00101B16000F0F6FA0746B06899
:1005C00080077FF5F9AEE06A002853D0A968EA6891
:1005D000022801F00C017FF42EAF236B02F0030020
:1005E000984202BF02F07000636B984214D1A36B73
:1005F000C2F30620984202BF02F47810E36B9842DF
:100600000AD1236C02F06060984202BF02F060429F
:10061000606C82423FF4F7AE0C293FF4EEAD2868DF
:1006200020F0807000F0CEF90646296888013FF579
:10063000DCAEE968DFF86C03A26B0140206B01437C
:10064000606B0143E06B41EA02210143206C0143EE
:10065000606C0143E960286840F080702860E968B8
:1006600041F08051E96000F09FFA0446286881015A
:100670007FF5C2AE0020BDE8F0817068400810F040
:10068000010070472968606A21F0F0010143296088
:100690006868216A20F47F4040EA01206860704762
:1006A000706840084000706000F07EBA2DE9F843A1
:1006B0000400884644D0DFF8F06200F0C8F847D262
:1006C00000F0CDF8074600F0C2F841D000F06CFA17
:1006D000C01B0228F7D90320B7E000F065FA401BE1
:1006E000022843D9F7E700F05FFAA0EB09000228DF
:1006F0004CD9F0E700F058FAA0EB0900022854D9D1
:10070000E9E700F051FA401B02285DD9E3E700F069
:100710004BFA401B022867D9DDE700F045FA401B81
:10072000484577D3D7E7032802D13968890103E028
:100730000028396802D1890762D401E049055FD4F5
:10074000012082E000F030FAC01B022872D9C2E713
:10075000207881074FF0B0470BD5B968A06821F029
:10076000F0010143B96000F01FFA0546B868C00304
:10077000B3D52078DFF81C5281060AD52968606954
:1007800021F0F001014300F067F8814628688003FA
:10079000A9D5207841060BD52968A0690909090166
:1007A00041EA101100F058F881462868C003A1D52D
:1007B000207841070BD5B968E06821F4E061014376
:1007C000B96000F0F1F90546B868800399D5207842
:1007D00001070CD5B868216920F4605040EAC100D7
:1007E000B86000F0E1F90546B86840038FD520787D
:1007F000C10717D56068022895D1396889039FD54C
:10080000B968890840EA8100B86041F2893900F08E
:10081000CBF90546B868616800F00C00B0EB810FB9
:100820007FF47BAF306800F00700804505D200F010
:1008300016F8074600F00BF884D100F004F900F038
:10084000D5F9BDE8F24300F08DB9BDE8F283306818
:1008500000F0070040457047296000F0A5B93168F5
:10086000C90848EAC101316000F09EB938B54FF0BF
:10087000B0444F4DA16811F00C0106D1FFF75EFCAA
:10088000C0F3031055F8200032BD0429494A05D0B1
:100890000829494804D12168C90222D5104632BD31
:1008A000E16801F00301022904D0032904D1216881
:1008B000C90207D5104605E0FFF740FCC0F303105E
:1008C00055F82000E168E268E368C1F30621484377
:1008D000C2F30211491C5B0FB0FBF1F05B1CB0FBD3
:1008E000F3F032BD80B5FFF7C1FF3049FFE7334A6F
:1008F0000968C1F3031152F82110B0FBF1F002BDF9
:1009000070B52B49B1282EBFCC6AC0F3031051F843
:1009100020402048056800F087F92849284A05F05A
:100920000F0551F82510B4FBF1F10024B1FBF2F1F1
:10093000B0F5007F0FF2B002204609D10FF28C0310
:1009400053F820508D4214D2401C0328F8D912E0ED
:100950000FF2880353F820508D420AD2401C03281E
:10096000F8D308E000F020F9801B03280BD3032004
:1009700070BD52F820400C4D2868C00844EAC00001
:1009800000F020F80646296801F00701A142E9D1EC
:10099000002070BD0801005854000020900000584D
:1009A000000400588C80C111004000580800005815
:1009B000240B00080024F4000048E801E40A0008C1
:1009C00040420F00286000F0EFB800001200000065
:1009D0002400000036000000400000000600000077
:1009E0000C000000100000000000000001000000EA
:1009F00002000000030000003249002008604FF4AC
:100A0000E0223148016841F4700101604FF0B041CB
:100A1000086840F0010008608A602C480A680240BB
:100A20002B480A60036823F00503036042685208FC
:100A30005200426000222748C860086820F48020E5
:100A400008608A6170474FF0B0410FF2D8000A6821
:100A5000C2F3031250F822008A6802F00C02042A42
:100A600004D0082A04D00C2A04D01CE01A481AE04A
:100A70001A4818E0CA68CB68C3F3021302F00302F5
:100A80005B1C022A08BF144802D0032A08BF13487F
:100A9000B0FBF3F2C868CB68C0F306205B0F42439B
:100AA0005B1CB2FBF3F00E4A0FF23803106088684B
:100AB0001168C0F3031053F82000B1FBF0F0106090
:100AC0007047000008ED00E088ED00E0FBFEF6FA5C
:100AD00094000058001004220024F4000048E801AB
:100AE0005C00002001000000030000000500000081
:100AF0000100000001000000060000000A000000E4
:100B000020000000020000000400000008000000B7
:100B10001000000040000000800000000001000004
:100B200000020000A0860100400D0300801A0600AC
:100B300000350C0040420F0080841E0000093D007B
:100B400000127A000024F40000366E010048E8012B
:100B5000006CDC020000000000000000000000004B
:100B60000000000070B50F4E0446B0680025A8B123
:100B7000FFF7B8FEB2684FF47A71B1FBF2F1B0FB47
:100B8000F1F000F0ACF848B9102C07D20022214651
:100B90004FF0FF3000F06CF8746000E0012528464B
:100BA00070BD00BF5000002001480068704700BFC2
:100BB000500000200248016841F4807101607047D4
:100BC00000040058154810B5016841F480710160B7
:100BD000032000F040F80020FFF7C4FF00240028A5
:100BE00014BF012400F0B8F8204610BD0C4840683E
:100BF00070470B48806870470A48016849084900F7
:100C0000016070470748016821F0020101607047E8
:100C10000448016821F00401016070470040005859
:100C200050000020042004E0DFF80800006800F411
:100C3000C0607047000400580901020081B002D46E
:100C40003C48815405E03C4802F00F02104400F893
:100C5000041C01B07047394A13684FF6FF010002C7
:100C60000B4000F4E06018433549084310607047BA
:100C700038B5324B1C68C4F30223C3F10704052CBA
:100C800028BF04241D1D072D34BF0023DB1E0125B2
:100C900005FA04F4641E2140994005FA03F35B1E33
:100CA0001A401143BDE83440C6E7010007D40122D1
:100CB00000F01F01234B8A40400943F82020704771
:100CC00001000BD4012200F01F011F4B8A40400994
:100CD00043F82020BFF34F8FBFF36F8F704710B5DD
:100CE000401EB0F1807F01D3012010BD174C606021
:100CF0000F214FF0FF30FFF79FFF0022A260072077
:100D00002060002010BD010007D4012200F01F0167
:100D10000F4B8A40400943F820207047010007D458
:100D2000012200F01F010B4B8A40400943F82020AC
:100D30007047000000E400E018ED00E00CED00E07A
:100D40000000FA0500E100E080E100E010E000E0D2
:100D500000E200E080E200E0134881B0016841F465
:100D600000210160006800F400200090009801B0AC
:100D7000704710B504460D492068884213D1FFF72B
:100D800019FFFFF717FF0A48016821F4407141F489
:100D900080710160026842F4004202602046BDE8B2
:100DA000104000F013B810BD50000058002800405B
:100DB000900000588A60FF2102685162012180F88A
:100DC0002110002180F820100020704790F820109A
:100DD000012901D102207047012280F82020022140
:100DE00080F82110CA2102685162532103685962B8
:100DF00001688A6842F02002FFF7DCBFDFF83C158B
:100E00000A6892B200E00246086880B28242FAD1D3
:100E100070472DE9FC4104461825DFF82485DFF8EA
:100E20002465684308EB00073078062808D131783C
:100E30007170347078754FF0FF307060002039E0C9
:100E400000F077F8B9680918B96008F10803B968C3
:100E500032786A439A589142327813D308F11503D5
:100E600015FB02FC13F80C30062B25D008F1080600
:100E70006B43F358994222BF08F115036A439A5C09
:100E8000EED219E01146337869439A420BD008F14B
:100E9000140308F1150C5B5C15FB03F50CF8054019
:100EA0007A753B7500E07A7508F114025454317874
:100EB00071703470BDE8F6811146694308F115037D
:100EC0005B5C062B04D008F1140615FB03F5745582
:100ED0007B753A7508F115025454EBE7F8B5DFF865
:100EE0006434DFF85C541E78182402466243B04232
:100EF0002A4404D118785870507D18700FE0167D80
:100F0000507D92F815C005F115076643062807F8CD
:100F100006C004D0167D143514FB00F42E550120B4
:100F200010731878062802BF00294FF0FF3159606E
:100F3000F1BD10B5DFF80C44606810F1010F0FD05F
:100F4000FFF75CFF6168DFF80024814261683CBF05
:100F50005388C918081A517848431178C84000E0EE
:100F6000002080B210BD2DE9F84FDFF8DC53DFF828
:100F7000DCB3D5F80880D8F80000DBF800104A058B
:100F800000F090F9DFF8BC63DFF8B4A321F48061CE
:100F900081604FF0180934780AF1080019FB04F158
:100FA0004758FFF7C6FF874217D200270121B170CB
:100FB000062C3DD019FB04F40AF108010AF10802DD
:100FC0000959814223BF0AF108010959091A002170
:100FD00011510AEB04014C7DEAE7A9884118B94296
:100FE00002D2AF880021E2E73F1ADFE7022802DAE7
:100FF0002878012800D07F1ED8F80000C1684A0771
:10100000FAD500F055F9DBF80C00000CBFB247EA46
:101010000047CBF80C70FFF7F1FE7060A86800681D
:10102000816841F480618160AFF30080BDE8F18F99
:10103000B8B20028DAD1FFF7E1FE70600320BDE806
:10104000F24FFFF760BE2DE9F843EFF3108872B658
:10105000BD4DBB4BA8680168CA224A625320486252
:10106000B84A886820F4806088601820167837466F
:1010700047431F44387B022826D13C68D7F810909C
:101080009078F0B17A7B012A0AD101213046FFF72E
:1010900025FF88F310887968304600F016F904E0DF
:1010A00088F31088304600F0C1F8A8680068CA21AB
:1010B00041622246532141624846314600F050F9D0
:1010C0000BE0FFF750FF06E0C8684207FCD500F0D0
:1010D0007EF89F49086088F31088FF21A86802689D
:1010E0005162BDE8F183F8B5974CA160CA22096846
:1010F0004A6253224A62954A136843F02003136000
:10110000136803F00703C3F10403237095682D0CE3
:1011100005F07F056D1C6570EDB29268C2F30E029A
:10112000521C628092B2521E6A43A2F5A072DA404B
:101130004FF6FF739A422CBFA380A280854A1368A2
:1011400043F400231360844B1D6845F400251D60A3
:1011500048BB7C487A4E0123837018254FF0FF333B
:10116000436000235FFA83FC06F10C0715FB0CFCBF
:101170004FF0000E07F80CE05B1CDFB2062FF1DB2E
:1011800006230370886820F48060886000F01FF8F0
:10119000D0600320FFF7C2FDA1680868826842F4AE
:1011A0008042826005E0C868410544BF0320FFF724
:1011B000AAFDA1680A68FF205062002203210320D3
:1011C000FFF756FDBDE8F2400320FFF76EBDC8688B
:1011D00000F0800060F49060C8604FF40020704719
:1011E000F0B504460025EFF3108672B61827DFF835
:1011F00050C10CF10C0007FB05FE10F80E0010B1F9
:101200006D1C062DF5DB062D0CD06F430CEB070093
:101210000127077386F310880461427303600D7021
:101220000020F0BD86F310880120F0BDF8B5074618
:10123000EFF3108472B60320FFF742FD424DAE6813
:101240003068CA2141623A4653214162182043491D
:101250004243895C02291BD100213846FFF73EFE3C
:101260003848017806290ED1306838490A68530594
:1012700000F018F821F480618160C1684A07FCD54C
:1012800000F016F804E04078884218BFFFF76BFEC4
:10129000A9680A68FF2050620320FFF706FD84F367
:1012A0001088F1BD02D5C1684A07FCD48168704737
:1012B000C16801F0800161F49061C1604FF40020C9
:1012C000234908600320FFF729BD2DE9F04180463E
:1012D0000F46424618201A4942438C18207B0228A8
:1012E00004BF4046FFF7A2FFEFF3108572B603205C
:1012F000FFF7E6FC144EB0680068CA214162532132
:10130000416202202073A76067604046FFF781FDBD
:101310000C490A784978914202D0FFF724FE02E096
:10132000A168081AA060FF20B1680A685062032013
:10133000FFF7BBFC85F31088BDE8F081282800404A
:10134000FC000020DC040020A80400200828004045
:101350000C080058000800588008005808010020B8
:101360001047000038B58EB002A80FF21C41DFF81C
:101370006C43DFF86C53302200F02EFA0FF2B930D4
:101380000190009469460FF2993000F069FA01214A
:10139000022000F04EFBD34A0021042000F0DFFBC6
:1013A00002A800F05BFC00F0A0F800F067FC002051
:1013B00085F8900005F126044FF6FF70208000218B
:1013C0000FF24532012000F0CAFB00F0B9FC00F03A
:1013D000E0FC0FF22D33002205F191010020FFF710
:1013E000FFFE0220E07080210120A0700D202071FE
:1013F0000220A070182060710320A070BA480180FC
:10140000A0214180012000F024F90FB030BD7CB54F
:101410000646B34D7078052805F1900404D03E28A7
:101420000DD0FF2824D03AE0B088E98C884202D160
:101430000020E8842070012000F00BF92FE0F17803
:10144000012908D00C292AD1E88C6A460DF1010146
:1014500000F01BFD23E06078FFF7E8FE2078042809
:101460000CBF062005202070B6F80500E88416E0C1
:10147000B6F8030040F20241401A08D0C01E0BD05B
:10148000001F02BF0121E88C00F039FF07E0E88C63
:10149000964900F024FE02E0E88C00F0D8FE01201E
:1014A00076BD00F0C2BE8E48C08C00F065BE1CB593
:1014B0008B4CE08C01AA0DF1050100F0E6FC98B917
:1014C0009DF80500022804BF9DF80410022903D1ED
:1014D00000200090012302E0002000900223E08C15
:1014E0001A46002100F02CFD13BD78B50FF25C20E8
:1014F0007F4D00887F4E89B0ADF81A0000F090FC57
:10150000286810F1010F0ED069683074090A020AC8
:10151000000CB074727406F1100468683175F074D0
:10152000090A717506E0002000F004FF040008BFFE
:101530000FF2242422460621002000F00DFF6079DE
:101540003072102120797072E078B072A078F07259
:101550006078307320780FF20824707322461820C8
:1015600000F0FAFE0FF2082600F06EF84EF66E500C
:10157000089007AA2868079006212E2000F0ECFEAC
:1015800022461021182000F0E7FE00F05DF8182137
:10159000012000F008FF00F031FF0DF1160006A950
:1015A0000190009105AB07220021012000F0B4FD5D
:1015B0000FF29C10BDF81810494C00900723BDF89D
:1015C0001400002200F0DAFF0DF11A00009002234F
:1015D000BDF81610BDF81400002200F0CFFF022263
:1015E0000221002000F084FC0120207000F02BFD7F
:1015F000012060700020E070082060751020A07548
:10160000012020753C48A0610120A0700020C1B2DB
:1016100021440871401CC1B21029F8DB002004905D
:101620000023A069617803900122207D0290A07DB3
:101630000190607D0090A07800F01EFDA07808B1B8
:1016400000F0D8FD0AB070BD32461021082000F02D
:1016500083BE2DE9F8420746012F87B003D1224807
:101660000588468803E04FF4C8654FF47A66DFF8D2
:10167000709009F190046078FFF7D8FD022F05D132
:101680002078012814BF022800F082FC2770002077
:101690000690059009F129010491062299F8280085
:1016A0000FF2DC0103900291019200230093324675
:1016B0002946002000F07EFC0E490E2000F072FD4D
:1016C000002808BF012F06D160780C4908B0BDE89A
:1016D000F042FFF7FABD08B0BDE8F082AC88002008
:1016E000680000209F180008EC04002040E2010080
:1016F0008075FF1F0400002007B2010046E00100D2
:101700000021012000F038BA0220A2E700210420C5
:1017100000F032BA012000F051BA012000F056BAB0
:1017200010B50446616801F1080000F0B7FA00B195
:101730000120207010BD000010B1012803D07047B7
:10174000072000F029BA072000F02EBA400300005D
:1017500053544D33325742006C7AD8AC5772000064
:10176000123456789ABCDEF0123456789ABCDEF009
:10177000FEDCBA0987654321FEDCBA09876543218F
:1017800009485253544D00000000000000000000C2
:1017900000000000000000000000000044000800FD
:1017A000400508013A799C00F4010000FFFFFFFFAB
:1017B000480101000000000062B38B0708D0521EF0
:1017C00011F8013B00F8013B00F024808B07F6D1B3
:1017D000830740F0208000BF103A07D330B4B1E84F
:1017E0003810103AA0E83810F9D230BC530724BFA3
:1017F000B1E80810A0E8081044BF51F8043B40F8D5
:10180000043BD20724BF31F8022B20F8022B44BF3F
:101810000B7803707047121F17D35B0009D151F882
:10182000043B20F8023B1B0C121F20F8023BF6D2AF
:101830000BE051F8043B00F8013B1B0A20F8023B87
:101840001B0C121F00F8013BF3D238BF121D521EB1
:1018500024BF11F8013B00F8013BF8D870470000A5
:101860007FB50C466D4D61686D4EE8612962284672
:1018700000F0F0FE246805F1240000F0F5FE74602D
:1018800006F1080000F0F0FE01203070296829B14F
:101890000FF2551000900294684688477FBD1FB52F
:1018A0005F4C04F1080000F0E2FE00BB2178F1B1CA
:1018B000694604F1080000F003FF5848C16949B1C6
:1018C0000098029001228DF8042001A888479DF815
:1018D000040000E001202070207818B1009800F08A
:1018E000A2FF04E0009904F1080000F0C9FE04F131
:1018F000080000F0BCFE28B9207818B104F10800F7
:10190000FFF704FF1FBD2DE9F8430646002000F055
:101910005FF874883088B268DFF80081C4F3090486
:1019200044EA8024F068A4B2C1B2204600F03CF83A
:10193000002748F2E8094846FFF7EFFE08E068880C
:10194000A04202D1316928780870687800B1012777
:1019500008F1240000F08BFEF0B9694608F124007C
:1019600000F0AEFE009800F10B05407A0F28E6D09B
:10197000B5F80110A1420DD10098817AC81E716995
:10198000C0B28842C8BF0846706102463069E91C8F
:10199000FFF712FF2878D9E73800CCD0012000F0FB
:1019A00017F80020BDE8F28310B513461C4A5468AE
:1019B000A4F80900E1720A46194604F10C00FFF789
:1019C000FBFE164A1369BDE81040002100201847AD
:1019D0001249096A82B008B921B101E011B10120B0
:1019E00002B0084702B0704710B50146487A0F2888
:1019F00018BF0E2807D10B4800F04CFEBDE8104080
:101A00000020FFF787BE064C04F1080000F042FEFC
:101A100004F10800BDE81040FFF778BEE4030020A1
:101A2000880400200804002019480021016041605A
:101A3000704710B500F00CF85C6819B1012904D1A9
:101A4000204301E024EA0000586082F3108810BDB2
:101A5000EFF3108272B60E4B704738B5EFF3108477
:101A600072B60B490B4D086820B129688847686831
:101A700080470AE0486820B1A9688847E86880473D
:101A800003E0286980476869804784F3108831BD86
:101A9000B40400207C4100082DE9FC47594CDFF8D4
:101AA0006891A5692840A0614FF0010A4FF0FF3806
:101AB00030E0491C54F831000642FAD004EBC1076B
:101AC000184079681040014208BFC7F804807E685A
:101AD000304000F09BF860620AFA00F086437E60B6
:101AE000EFF3108172B6626A20690AFA02F2D243F9
:101AF00010402061022004EBC00353F8086C16402C
:101B0000401E43F8086CF6D181F31088606A59F8DA
:101B10002010884763692069A2691840104207D0E5
:101B2000E069216A084203D1002103EA0206C1E705
:101B300000F0C7FEEFF3108972B6216960690140B9
:101B4000A069014201BFE169206A014200F013FF70
:101B500089F3108800F02CFFA561BDE8F38738B544
:101B60001446EFF3108572B600F050F8264941F89C
:101B7000204085F3108831BD10B5EFF3108272B6A6
:101B8000204B1C6904431C6153F83140204343F847
:101B9000310082F3108810BDEFF3108172B6194A3C
:101BA000536923EA000005E0EFF3108172B6154A8D
:101BB00053691843506181F310887047EFF3108127
:101BC00072B6104AD3691843D061F4E72DE9F041A9
:101BD0000C4C626A266A2062012101FA02F803E0D5
:101BE0003946404600F0C9FE276AE5693D42F7D014
:101BF000404600F00BF825EA0707E76126626062BD
:101C0000BDE8F08128000020A40200200246002048
:101C1000110C090404BF1020120412F07F4F04BFFE
:101C2000083012020FF2180112F0704F04BF001DAD
:101C30001201120FC0F11F00895C401A70470000AA
:101C40000403020201010101000000000000000085
:101C500000F005FF9DF80E0005B000BDF8B500F1DD
:101C60000C026B4621214FF66640F1E7F8B500F112
:101C70000C026B460F214FF66840E9E71C49002033
:101C8000087700221B48027000F036B818490A7F16
:101C900041F82200087F401C0877704770B5044661
:101CA0006078FF2802BFB4F8031001F47F41B1F55A
:101CB000406F12D100260E4D00E0761C297FF0B255
:101CC00088420AD2F1B255F8211020468847010017
:101CD000F3D002D0022805D006E02046BDE87040CF
:101CE000FFF795BB002070BD012070BD0000000013
:101CF00058040020F404002080B500F0FFFE00F03E
:101D0000FEFE00F0FDFE00F035FF00F034FF00F0B5
:101D1000B1FF01F015F801F014F801F013F801F02B
:101D200012F801F011F801F010F801F00FF801F0CD
:101D30000EF801F00DF8BDE8014001F00AB800000E
:101D4000E0B505A0042100908DF8041042F629208A
:101D5000694600F0FCFE07BD53544D0010B50078F5
:101D60002B4C18B102280FD004D310BDA080012045
:101D7000207310BD607BFFF759FA607BBDE810400F
:101D800040F60101FFF7A1BA607BBDE81040FFF704
:101D90004DBA10B50FF2450200210220FFF7DFFE19
:101DA0001B4C0021042021732070214642F638206C
:101DB00000F0ABFF1F20E07204F10D010A20A080AB
:101DC0000120A0724FF48060E0800122BDE8104045
:101DD0000FF245030020FFF703BA00000D480C493D
:101DE0000068CA7A00F00700413048801307087B7A
:101DF00004D518B98888401D888003E0012804BFF5
:101E000000200873891C42F6372000F07EBF0000D6
:101E1000780400202828004000210220FFF7ACBEF3
:101E200000B587B000F010F8012003220690ADF84D
:101E30000420ADF8062000F0A5F800284CBFFF20D4
:101E40009DF8000007B000BD00208DF800001822AA
:101E5000002101A800F084BFADF80600049107A896
:101E60000121082203900691ADF804207047092251
:101E70000021684600F074BF1822002102A800F07B
:101E80006FBF182201A800F06BBF70B5C8B006463E
:101E90000C4615460522FFF7EBFFADF82060FFF773
:101EA000EBFF302100F014F80521049000F019F840
:101EB000002848BFFF2009D49DF8000030B99DF8E4
:101EC000030020709DF804002870002048B070BD09
:101ED000ADF80A1008200221ADF80800059108A805
:101EE00070470791CDF818D0002102A8FFF70BBD6D
:101EF00000B5C7B000F00EF8FFF7C3FF312000F0C7
:101F000013F800F03FF800284CBFFF209DF80000B8
:101F100047B000BD00238DF81C008DF8003007A8E5
:101F20004170827000217047ADF8060007A90320B8
:101F300004900822012003910690ADF80420704718
:101F400030B5C7B00025ADF81C008DF81F2007A8DC
:101F50004A9C817003718DF80050ADF82140FFF765
:101F600076FF0F21029132200721FFF775FF00F065
:101F700009F800284CBFFF209DF8000047B030BD95
:101F800003900691CDF814D0002101A8FFF7BBBC47
:101F900000B587B000F045F900F073F9812000F03A
:101FA0003BF900F085F900284CBFFF209DF80000A8
:101FB00007B000BD2DE9F84DC7B09446DDF840E10B
:101FC000519A559D569EDDF84CA1ADF81D108DF827
:101FD0001C004FF0000BADF81FC08DF821308DF8BC
:101FE00022E000F024F800F017F824F8095F66807A
:101FF00000F047F93F20832100F075F9574406911E
:102000000D37049700F057F900284CBFFF209DF8CA
:10201000000048B0BDE8F08D88F800A007AC5499E6
:10202000E419524608F10100544400F093BE8DF8C3
:102030002320174652998DF800B00DF1240809A805
:10204000B84400F087BE00B5C7B000F00CF885209A
:1020500000F0C3F800F02CF900284CBFFF209DF8D9
:10206000000047B000BD00218DF81C008DF8001065
:10207000182201A800F074BE2DE9F841C7B04FF056
:10208000000800F026F80DF12300DDF844E14E9F32
:102090004F9E509D529C8DF81F30C0F800E08DF887
:1020A00000808DF820708DF821608DF822508DF819
:1020B000274000F0E6F88620ADF8060007A90C20BE
:1020C00000F0F2F800284CBFFF209DF8000000F05F
:1020D00024B98DF81C0007A841708270704700B5C4
:1020E000C7B00022ADF81C008DF800200DF11E00D5
:1020F0001822016001A8002100F032FE8820ADF80E
:10210000060007A9062000F0CFF800284CBFFF20EA
:102110009DF8000047B000BDF8B5C8B005460E46B2
:1021200017461C4600F023F808A8467087708DF803
:10213000205000F0D3F88A21ADF80A103F20032187
:1021400000F0BFF8002848BFFF200ED49DF8000023
:1021500058B94F994E98BDF801202280BDF8032050
:102160000280BDF805000880002049B0F0BD0722BC
:102170000021684600F0F4BD00B5C7B00021ADF8FD
:102180001C00FFF773FF0F2102918D20022100F048
:102190007EF800F08EF800284CBFFF209DF800006C
:1021A00047B000BD18B5C7B0044600F03AF88DF846
:1021B0001C40224600F09FF800F063F83F208E217B
:1021C00000F0AEF8641C049400F075F800284CBFD1
:1021D000FF209DF8000048B010BDADF8060007A92B
:1021E00001203F22039104907047ADF8060007A933
:1021F0000220704700B587B000F013F800F041F8F6
:10220000922000F009F800F053F800284CBFFF209E
:102210009DF8000007B000BDADF806003F22012088
:10222000704700208DF80000704700B587B0FFF7B9
:10223000F8FF00F026F89420FFF7EEFF00F038F8E2
:1022400000284CBFFF209DF8000007B000BD00B57E
:10225000C7B00021ADF81C00FFF708FF9520FFF77D
:10226000C4FF00F021F800284CBFFF209DF80000BB
:1022700047B000BD00228DF80020ADF81C008DF89D
:102280001E101822002101A800F06ABD0321ADF83C
:102290000600049107A801213F2203900691704790
:1022A000ADF8060007A9032004903F220120039106
:1022B0000690ADF80420CDF814D0002101A8FFF756
:1022C00022BBADF80800059108A8072104900791EA
:1022D000CDF818D0002102A8FFF715BB1822002165
:1022E00002A800F03DBDADF80400ADF8061007A847
:1022F0000121039070470DF11D0000F02BBD00B5CA
:10230000C7B0FFF7B7FFA520FFF7CAFF00284CBFF3
:10231000FF209DF8000047B000BD48B0BDE8F08147
:10232000ADF80400ADF8061007A80121039006914E
:102330007047000001460648064AC3798B4218BF21
:10234000904218BF0838F8D18B4218BF0020704760
:10235000F873FF1F0070FF1F18B50C46C7B0114679
:1023600000228DF800208DF81C008DF81D402246BB
:102370000DF11E0000F0EEFC00F02AF83F200C21C9
:10238000ADF80400ADF8061007A8012103900691EE
:10239000A41C049400F02CF800284CBFFF209DF8EA
:1023A000000048B010BD00B5C7B000F00AF80F201B
:1023B00000F013F800284CBFFF209DF8000047B044
:1023C00000BD00228DF800208DF81C008DF81D1036
:1023D0001822002101A800F0C3BCADF8060007A92F
:1023E000022004903F22012003910690ADF80420C2
:1023F000CDF814D0002101A8FFF785BA00B587B049
:1024000000208DF8000000F0E0F840F20110ADF877
:1024100006003F220120069000F013F900284CBF6F
:10242000FF209DF8000007B000BD2DE9F8410746E8
:102430000128C7B0884615461E4608BF022003D0B3
:1024400002280CBF102000200DF11D010C1800F017
:1024500036F8012F8DF81C7002D0022F18D019E029
:1024600002273A4641460DF11D0000F073FC25702D
:10247000667000F0AAF83F204FF4817100F016F862
:10248000FF1C049700F0DFF8002805D5FF2009E0C5
:102490001027E6E7472005E09DF8000010B94E98A8
:1024A00000F067F8FFE748B0BDE8F081ADF8040040
:1024B000ADF8061007A80321039006917047032288
:1024C0000021684600F04CBC2DE9F64F0C4605464D
:1024D000012CC7B09B4608BF022003D0022C0CBFC2
:1024E000102000200DF11F010E18FFF7E8FF012C4E
:1024F000ADF81C508DF81E4002D0022C2CD02DE0DF
:102500000227569C559DDDF85091DDF84CA1DDF871
:10251000488148993A4600F054F8A6F800B086F889
:10252000028086F803A086F804907571B47100F0FB
:102530004CF83F20ADF804004FF4827107A8ADF8C5
:102540000610039003210A370497069100F07BF8E8
:10255000002805D5FF2009E01027D2E7472005E035
:102560009DF8000010B9579800F003F849B0BDE895
:10257000F08FBDF8011001800020704730B5C7B062
:102580001C464A9B00F049F800258DF800508DF854
:102590002140224619460DF1220000F0DBFB00F03D
:1025A00014F83F204FF4837100F042F8A41D049406
:1025B00000F049F800284CBFFF209DF8000047B00C
:1025C00030BD0DF11F0000F0C5BB1822002101A88D
:1025D00000F0C6BB78B5C7B04C9C4D9D00F01DF80F
:1025E00000268DF821308DF800608DF822402246BB
:1025F000294600F019F8FFF7E8FF3F204FF49371E8
:1026000000F016F8E41D049400F01DF800284CBFFB
:10261000FF209DF8000048B070BDADF81C00ADF87B
:102620001E108DF8202070470DF1230000F092BBA2
:10263000ADF80400ADF8061007A80121039006913B
:102640007047ADF80420CDF814D0002101A8FFF7A1
:102650005AB900000249016002490161704700BF98
:10266000212700084B270008006040607047EFF307
:10267000108172B6026882420CBF012000201CE06B
:10268000EFF3108272B603680B604860016008685F
:10269000416023E0EFF3108272B6086043684B603C
:1026A00041604868016019E0EFF3108172B6436839
:1026B00002681A6042680068426081F310887047BF
:1026C00010B5EFF3108472B602680A600068FFE785
:1026D000FFF7EAFF84F3108810BD086082F31088CA
:1026E0007047000000F0BABB6C486D49016001F111
:1026F0002002426001F13002826001F13C0202627C
:1027000001F14402C26001F14C02026101F1680270
:10271000426101F16C0282617831C16100F0B0BBAD
:1027200038B504465F4D05F11000FFF79DFF5B498A
:102730004868A1680160E168C160456005F1100169
:10274000816000F0B9FB58482DE080B553494A68D4
:1027500013680120187200F0B5FB002002BD38B5E7
:10276000514C504D07E0694605F11000FFF7A8FFF6
:1027700000982168884705F11000FFF778FF0028CE
:10278000F1D031BD48484168084738B50446474D47
:102790002846FFF769FF4148C068A16801604560AD
:1027A00000F095FB424821680160616841600020AB
:1027B00032BD80B53949CA6813681020187200F01C
:1027C0008CFB002002BD3549CA68394910680B6886
:1027D000184738B5364C354D06E069462846FFF7B0
:1027E0006FFF0098616888472846FFF740FF002880
:1027F000F3D031BD38B504462E4D2846FFF734FFDF
:102800002D48FFF731FF25480069A1688160E16824
:10281000C1600561216801606168416021694161B1
:102820006169816131BD80B501462348FFF732FF00
:10283000BDE802400FF2050000F05FBB38B5174C51
:102840001D4D08E069462846FFF73AFF00992069C8
:102850000069FFF71FFF2846FFF709FF0028F1D0A6
:1028600031BD10B5154C2046FFF7FEFE0B484169FF
:102870000C60BDE8104000F054BB1CB50F4C06E0E6
:1028800069462046FFF71CFF009800F019F8204623
:10289000FFF7EDFE0028F3D013BD000000800020FC
:1028A000B88900208C880020C4040020A48800205F
:1028B000CC0400203C8A0020BC040020448A002074
:1028C0007047704710B52148214C88B0016841F429
:1028D00000410160FFF7A8F81E490020FEF703FC45
:1028E00000F043FB01210120FFF7A3F801210020A4
:1028F00000F08BFC0121012000F087FC0121022067
:1029000000F083FCFFF7F0FE134A00210820FFF7D8
:1029100026F904F23C500FF24501009001916946FE
:102920000FF23D0000F046F804F25470029004F5F6
:10293000C96140F23C5005900391049402A8FFF74E
:1029400059FFFFF7CFFE08B010BD00000800005887
:102950002C80002010040020F72900087047000098
:1029600080B500F030FBFEF7FDFCBDE8044000211F
:102970000120FFF75EB8FFF770B84FF0FF30FFF7A8
:102980008BB800210820FFF7F7B80220FFF716B92F
:102990000220FFF71BB9012804D0102804D04028DA
:1029A00004D07047FEF77DBDFEF77DBDFEF77FBD0D
:1029B000704700007FB50C464D4D61684D4EE86193
:1029C0002962284600F070FC2468746006F1080053
:1029D000FFF74AFE012000F068F8012030702968F6
:1029E00041B10FF2E9000FF2ED0200900192029462
:1029F000684688477FBD1FB53E4C04F10800FFF7CD
:102A000036FE00BB2178F1B1694604F10800FFF7FA
:102A100057FE3748C16949B10098029001228DF8EC
:102A2000042001A888479DF8040000E001202070E0
:102A3000207818B10098FFF7F6FE04E0009904F141
:102A40000800FFF71DFE04F10800FFF710FE28B98B
:102A5000207818B104F10800FFF793FF1FBD2DE99E
:102A6000F04105460E4690461C46002000F01DF839
:102A7000204F7868A0F80950C672324641460C30A3
:102A8000FEF79AFE1A4A136900210020984748F27F
:102A9000E800FFF77DFF79688A78D21C04F108000E
:102AA000FEF78AFEBDE8F04101201CB51049124C2A
:102AB000096A20B901B188470020207013BD0120A8
:102AC000207011B1BDE81C40084713BD0020FFF77E
:102AD0005CBF000010B50146064C04F10800FFF78A
:102AE000D9FD04F10800BDE81040FFF74ABF00001F
:102AF0003404002098040020F5040020704770473B
:102B000018B51B4C0020206087B041F60A00ADF8D4
:102B1000180000940323012206A90120FFF785FC79
:102B200042F629220121ADF818200491A01C05903D
:102B30000A22002302210392029301930091202391
:102B4000208806AA0121FFF7BFFC08B010BD80B5A0
:102B500042F62922904209D10A68054800920022D3
:102B60000B7941880088FFF709FD02BD002002BDF6
:102B7000F00400207047704738B5024686B05078A0
:102B80000024FF2839D1B2F803106B4840F6014306
:102B9000C91A1FD0123901BFB2F80710C088401CF3
:102BA00081422AD1957AB2F80500537A0124012D89
:102BB00008D10A320192009300220023FFF70AFD98
:102BC000002015E00A320192009301228023FFF7D2
:102BD00001FD12E04088B2F80710801C81420CD140
:102BE000507B0124C10748BF8DF8084002D4022061
:102BF0008DF8080002A8FFF7B1F8204607B030BDF5
:102C0000FEB5014601AA487A8DF804004B7A08887F
:102C10005070DC0704D50888000A9070032300E098
:102C20000223487A040707D54888D0545B1C48889B
:102C3000DCB2000A10555B1C4C7AE00610D50D7A08
:102C400000200BE001EB4004DFB2A688D6555B1CE8
:102C5000A488DEB2240A94555B1C401CA842F1DB18
:102C600001A935480091DBB2418800880022FFF7B6
:102C700085FCFEBD18B587B030482F4CFFF706F82D
:102C800041F60D01ADF8181000940823012206A9A1
:102C90000120FFF7CAFB42F63720ADF818000122E9
:102CA00004920A20A11C0390002310220591029394
:102CB00001930092072300F023F842F63820ADF884
:102CC000180000220492029201920A20211D039012
:102CD0000222059100F012F842F63920ADF81800F2
:102CE0000022049201920A20A11D039002230822CF
:102CF0000591029300F002F808B010BD0092012384
:102D0000208806AA0121FFF7DFBB80B5002242F62A
:102D10003723C01A09D0401E0BD107480091012368
:102D200081880088FFF72AFC02E00846FFF768FF69
:102D30000246104602BD0000D4040020792B000892
:102D400070477047704770477047704770477047CB
:102D50007047704710B50446FEF72EFD204610BDA3
:102D600010B5044610460A460146204600F0A6FA71
:102D7000204610BDC0680840884201D1012070473C
:102D800000207047C0690840884201D10120704787
:102D90000020704710B5664C02212046FFF7F2FF75
:102DA00038B16068C043810703D5FFF712FD0220E8
:102DB00018E001212046FFF7E5FF38B16068C04305
:102DC000C10703D5FFF7CBFC01200BE0082120460B
:102DD000FFF7D8FF38B16068C043010703D5FFF79C
:102DE0004CFD0820A06010BD10B5514C00F033F828
:102DF00018B96068C043810306D400F02CF830B9DC
:102E00006068C043810302D5BDE810406EE0082130
:102E100000F022F870B96068C04301030AD5606809
:102E2000444940F400206060086880474FF4002067
:102E3000A06010BD202100F00FF858B96068C043B1
:102E4000810207D5606840F400106060BDE8104062
:102E5000FFF798BC10BD022120468BE73648016879
:102E600041F4007101603548026842F4007202606A
:102E700040BF20BF3248016841F400410160704703
:102E800080B53048016841F480110160006800F4A9
:102E90008010009000982648016841F0010101600F
:102EA000026842F4803202602C20FDF7FEFEBDE88D
:102EB00002402D20FDF7F9BE23480168490849006A
:102EC0000160704721494FF48030086070471E4808
:102ED000016821F00201016070471B484FF4003186
:102EE0004160016821F400310160704716480168B3
:102EF00041F400310160FFF766BC38B504460C4D63
:102F000008212846FFF736FF30B10A480460686898
:102F100020F40020686031BDA0474FF40021A96073
:102F200031BD0948016821F00801016070470000C7
:102F3000000C0058E4040020D40800582008005871
:102F40000C04005850000058040C0058080C00589D
:102F5000564900E0564981B00A6802430A60096890
:102F600008400090009801B0704718B585B06846D9
:102F7000142100F0D7F9032001904FF460410024A0
:102F8000009102940120FFF7E3FF00F097F8474C0F
:102F90002068400840002060182100910220FFF7BF
:102FA000D7FF6946434800F0C1F9206820F00200CD
:102FB0002060FDF721FEFDF725FEFDF729FE00F05C
:102FC00011F806B010BD00B587B068460FF20821B1
:102FD0001C22FEF701FCFFF744FC6846FEF746FEA4
:102FE00007B000BDF0B585B06846142100F09AF92D
:102FF00000260025002400210FF2CC0000EBC102C6
:10300000907988B11368B3F1904F08D0294FBB4233
:1030100008D0294FBB4204BF9088044304E0908845
:10302000064301E090880543491C2229E4DB002087
:1030300002900121032003900191B0B270B1009081
:103040000120FFF785FF0120FFF784FF00F036F82D
:103050000022B1B24FF0904000F026FAA8B280B141
:1030600000900220FFF774FF0220FFF773FF114E5C
:103070006946304600F05AF90022A9B2304600F005
:1030800013FAA0B280B100900420FFF761FF042082
:10309000FFF760FF084D6946284600F047F9002217
:1030A000A1B2284600F000FA05B0F0BD4C0000586F
:1030B0004C010058000400480008004869464FF0E1
:1030C000904000F033B9000000000048010000000B
:1030D000000000480100000000000048010000005E
:1030E000000000480100000000000048010000004E
:1030F000000000480100000000000048010000003E
:10310000000000480100000000000048010000002D
:10311000000000480100000000000048010000001D
:10312000000000480100000000000048010000000D
:1031300000000048010000000000004801000000FD
:1031400000000048010000000000004801000000ED
:1031500000000048010000000000004801000000DD
:1031600000000048010000000000004801000000CD
:1031700000000048010000000000004801000000BD
:1031800000000048010000000000004801000000AD
:10319000000000480100000000000048010000009D
:1031A000000000480100000000000048010000008D
:1031B000000000480100000000000048010000007D
:1031C000000000480100000000000048010000006D
:1031D00000000048010000000000000000000000A6
:1031E00000000000C8300008248000202880002053
:1031F00022040400264981B00A6802430A60096873
:1032000008400090009801B07047F0B585B00546C1
:103210000C466846142100F085F82DB1012D08BF39
:10322000102002D0022D02D10120FFF7E3FF200081
:10323000184E0FF268070DD137F8150000900021E5
:103240000191012002900221039100F01BF801205E
:1032500000F055FA012C13D137F815000090012128
:103260000D480190029100F00DF80FF23800445D16
:1032700000220F2160B2FDF7FBFC60B2FDF715FDE7
:1032800005B0F0BD694656F8250000F04FB80000C3
:103290004C0000581C00002000002110010010000C
:1032A00040000000060A170002490160024901615E
:1032B000704700BF8B270008B327000862F30F2276
:1032C00062F31F42401810F0030308D0C91A1FD33D
:1032D000DB0748BF00F8012D28BF20F8022D13009E
:1032E00030B414461546103928BF20E93C00FAD8FE
:1032F000490728BF20E90C0048BF40F8042D890089
:1033000028BF20F8022D48BF00F8012D30BC7047BF
:10331000C91818BF00F8012DCB0728BF00F8012DF0
:1033200070470000002200F01BBA00002DE9F84FA2
:103330004FF0000C644A654BDFF894814FF00F09A1
:1033400082460F4633E0634DAA4514BF0725042586
:103350008D40254348F82E50C1431C6801EA040EF5
:103360007C68E50348BF40EA0E0EC3F800E05C68E5
:1033700001EA040E7C68A50348BF40EA0E0EC3F8BC
:1033800004E0146801EA040E7C68E50248BF40EAE4
:103390000E0EC2F800E0546801EA040E79688C024F
:1033A00048BF40EA0E0EC2F804E00CF1010C396887
:1033B00031FA0CF076D0012000FA0CFE1EEA010072
:1033C000F3D07C68022C18BF122C4FEA8C0110D16C
:1033D0004FEADC040AEB840401F01C05266A09FAB2
:1033E00005FB26EA0B06D7F810B00BFA05F53543B6
:1033F00025624FEA4C040325DAF8006097F804B020
:10340000A540ED430BF0030B2E400BFA04FB4BEAF7
:103410000606CAF800607E68012E18BF022E03D08F
:10342000112E18BF122E17D1DAF80860D7F80CB099
:103430002E400BFA04FB4BEA0606CAF80860DAF8DD
:10344000046026EA0E0E7E68C6F3001606FA0CF635
:1034500046EA0E06CAF80460DAF80C603540BE6829
:1034600006FA04F42C43CAF80C407C68E4009CD5AE
:103470004FEA9C0E58F82E5001F00C0109FA01F4A5
:1034800025EA0404BAF1904F08BF002509D0124D77
:10349000AA4508BF012504D0104DAA457FF453AFBB
:1034A000022555E7BDE8F18F81B0002A14BF816184
:1034B000816201B070470A4A136803421CBF106062
:1034C000FFF769BA704700000008005880080058EC
:1034D00008000140001000480004004800080048AF
:1034E0000C080058924900E0924981B00A680243F2
:1034F0000A60096808400090009801B0704710B554
:10350000FDF760FB8C4C606840010ED56068C00020
:103510000BD4FDF74FFBFDF74DFB206840F48030E6
:103520002060216821F48031216000F0C7F800207C
:10353000FEF700FF40B180798049E160E16821F445
:103540007C5141EA0021E16000F048F87C487D4C64
:10355000016800220260026902F05002026101204B
:10356000FFF7C2FF0220FFF7BFFF0420FFF7BAFFFB
:103570000120FFF7B7FF0220FFF7B4FF00220F2161
:103580000E20FDF775FB0E20FDF78FFB00220F21AB
:103590003A20FDF76DFB3A20FDF787FB00216A48D2
:1035A00041600F218160046047F6FF71C160002116
:1035B00001618161C16100F0EDF8CA206062FF2104
:1035C00053206062A068C008C000A0606162FFF77D
:1035D00079F94FF0FF30FEF75FFAFAE730B5A9B09E
:1035E00017A84821FFF79EFE01A81C21FFF79AFEAD
:1035F00008A83C21FFF796FE4F48544C016821F083
:10360000180101604FF48032206820F4C06040F45B
:10361000007020604FF48075216801F4C061009152
:1036200007210098179101201990002140201B903C
:10363000189222911A9517A8FCF789FD6F20019026
:1036400002210020029103900490059006900790BB
:10365000012101A8FDF72AF843F603000890002194
:103660004FF48040139009910A9110200221159087
:103670001491129508A800F046F9E06920F0700056
:10368000E06133480168C1F303200090009830B92D
:10369000E1690909090141F00401E16108E00098CC
:1036A000E169801E80F30400090940EA0110E0612D
:1036B000E06940F40040E06129B030BD254881B0A8
:1036C000016841F4801101603F21006800F480101E
:1036D00000900098204841604161016841F47C11EC
:1036E0000160026942F47C120261016841F03F010D
:1036F0000160026942F03F02026101B0704738B5D3
:103700000446FDF751FA14F1010F054609D0FDF703
:1037100070FA041905E01148016821F00401016004
:1037200030BFFDF741FA401BA042F4D331BD000089
:10373000480000584C00005890000058FECAFECACD
:1037400080080058002800401004002000040058A1
:103750005875FF1F50000058040C005810ED00E091
:1037600000B500BF130096469446103928BFA0E864
:103770000C50FAD85FEA417C28BF0CC048BF40F823
:10378000042BC90728BF20F8022B48BF00F8012BE3
:1037900000BD000038B5040044D094F8210028B9D9
:1037A000002184F820102046FDF7E3FA00F049F8E4
:1037B000FF2510B100F03FF834E02168DFF8B000D9
:1037C0008A6802408A6021688A68636820690343C6
:1037D000A06903431A438A602168E0680861206891
:1037E0000169A26841EA024101612068C16821F0D3
:1037F0008001C1602068C16C89088900C1642168AA
:10380000CA6CE369606903431A43CA64206881682B
:10381000880609D400F020F830B120684562042100
:1038200000F01FF8012032BD20684562012184F8B4
:103830002110002032BD20684562042184F8211047
:103840007047022084F82100CA2021684862532072
:1038500022685062204626E020460BE02068C0F82F
:10386000248084F82110002084F820007047000094
:10387000BFFF8FFF70B5044640F2E9362068C1688B
:1038800021F0A001C160FDF78FF905462068C168ED
:10389000880606D4FDF788F9401BB042F6D3032012
:1038A00070BD002070BD70B504462068C1684A062E
:1038B00012D44FF0FF32C26040F2E936FDF774F9DE
:1038C00005462068C168480606D4FDF76DF9401B1F
:1038D000B042F6D3032070BD002070BDDFF8D811D0
:1038E0000A68030903F47F2300019A4300F47F2050
:1038F000DFE0DFF8C4211368010C23EA014343EA47
:103900000043136070472DE9F04105460027286801
:10391000DFF8A8610105B8462FD53468A86A04F419
:103920004074844229D0FDF745F9002C316805D157
:10393000A86A21F44071014331601DE0306840F411
:103940008030306021F44071326822F4803232607D
:10395000A86A014331603068C0070DD5FDF724F92E
:10396000044641F289383068800705D4FDF71CF918
:10397000001B4045F7D30327B8462878DFF84041BD
:10398000C10705D5E16F6868890840EA8101E167F0
:103990002878810705D5E16FA86821F440610143CB
:1039A000E1672878C10644BF6869FFF7A2FF28785D
:1039B000810644BFA869FFF79CFF2878410744BFF0
:1039C000E868FFF78BFF2878010744BF2869FFF7F5
:1039D00085FF2868C1050AD5E16FE86921F04061DB
:1039E0000143E167E869B0F1006F00F05CF8286816
:1039F00081051BD5286AB0F1804F18BFB0F1004F88
:103A000000D018B9E16F21F0404108E0E16F21F0EA
:103A10004041E16720F08050E16F21F040610843B0
:103A2000E067286AB0F1C05F00F03DF82868410502
:103A30000AD5E16F686A21F040510143E167686A85
:103A4000B0F1005F00F029F82868C10405D571685D
:103A5000E86A21F4404101437160286881040BD574
:103A6000A169686B21F030010143A161A169286B54
:103A7000890840EA8101A161286841040AD5E16F03
:103A8000A86B21F440710143E167A86BB0F5007F9A
:103A900000F003F84046BDE8F08103D1216841F40D
:103AA00080312160704703D1216841F0807121602D
:103AB0007047104308607047880000589000005815
:103AC0000C000058206881684A067047F8B5044623
:103AD00040F60F002568E9692A68AB6808400DD1F7
:103AE000880602D5900602D4D80040F18980E16EA4
:103AF00000294FD02046BDE8F44008476248034201
:103B000004BF624E32427BD0CF0709D5D60507D518
:103B100001262E62D4F8885045F00105C4F888507B
:103B20008D070AD5DD0708D5266802253562D4F849
:103B3000885045F00405C4F888504D070AD5DD07C4
:103B400008D5266804253562D4F8885045F002056A
:103B5000C4F888500D070CD5950601D4034208D04F
:103B6000256808202862D4F8880040F00800C4F8CE
:103B7000880008050BD5500109D525684FF4006071
:103B80002862D4F8880040F02000C4F88800D4F8F7
:103B90008800002870D0890607D5900601D4D80087
:103BA00003D5E16E09B120468847D4F88800216822
:103BB0008A68510602D410F0280F1AD0204600F06F
:103BC00069F8FFF77FFF0FD500F057F860B1DFF815
:103BD000C0108163A06F00F079F800284CD0A06F6E
:103BE000816BBDE8F44008472046BDE8F24000F094
:103BF00004B9204600F001F90020C4F88800F1BDA6
:103C0000C80209D5580207D54FF480102862204613
:103C1000BDE8F24000F0F2B8080609D5100601D45C
:103C2000180205D5216F39B32046BDE8F440084796
:103C300048060FD550060DD5286820F040002860B2
:103C40002021C4F88010002020672046BDE8F24003
:103C500000F0D6B8080206D5500004D52046BDE8CD
:103C6000F24000F0DBB8C80148BF002A04D5204666
:103C7000BDE8F24000F0D3B8F1BD816821F0400109
:103C80008160A06F70470000010000102001000457
:103C9000B93C000801680A6822F490720A60DFF8F3
:103CA0002810026893680B4093602021C0F88410AC
:103CB0000021C16670470000806A00F156010022B1
:103CC0000A810A8000F099B8FEFFFFEF38B500F1D5
:103CD000240200245178022903D004209061012499
:103CE00028E001680B6823F00E030B6001680D6883
:103CF0006D086D000D60516A0B6823F480730B60D2
:103D0000012192F82030D56903F01C0399406960C5
:103D1000936AD16A5960116B31B10B6823F48073D7
:103D20000B60536B916B5960012151701470516994
:103D300001B18847204632BDF8B500F124010423C3
:103D4000CA6914680268156891F8206006F01C06BC
:103D500003FA06F73C4210D06F070ED51468A5068B
:103D600003D4156825F00405156000F03DF8C96816
:103D7000002938D0BDE8F4400847022303FA06F7CB
:103D80003C4213D0AF0711D51468A50605D41568B9
:103D900025F00A05156001224A7000F025F800227E
:103DA0000A708968F9B1BDE8F4400847082303FAAE
:103DB00006F6344217D02B0715D5136823F00E03EF
:103DC0001360012291F82030CC6903F01C039A4063
:103DD000626001228A614A7000220A70096911B189
:103DE000BDE8F4400847F1BD91F82020CC6902F00D
:103DF0001C029340636070470000704770470000EA
:103E000000680449884204D103490868002818BFA3
:103E10000047704700380140E804002070477047B1
:103E200000EB8100404AD0F88010914201D001207F
:103E300070470020704742F4806240F821207047AC
:103E400080B500F097F83948092181610168C908F7
:103E5000C90041F0030100F026F861E000F092B8DB
:103E600010B500F087F8324C00F04CF80028FBD178
:103E7000042100F048F828B92E480068010403D551
:103E800000F043F800F05CF80022032100F03FF856
:103E900026480168C908C90041F0020100F003F892
:103EA000016030BF10BD01602348016841F004018A
:103EB000704710B51E4C00F028F800F023F80028D9
:103EC000FBD14FF0B040816801F00C01042911D101
:103ED000016841F48031016001688903FCD5816883
:103EE0008908890041F002018160816801F00C01BC
:103EF0000829FAD10022032100F009F8BDE810409A
:103F000000F040B8032120468AE700220421204621
:103F100091E780B500F02EF80748016821F0040110
:103F2000016030BF01BD00000004008000040058A3
:103F3000001400588804005810ED00E000F022B88A
:103F40004FF0B040016841F480710160016849059B
:103F5000FCD581688908890041F001018160416ACE
:103F6000890889004162816801F00C010429FAD1B5
:103F7000704700000248016821F0020101607047AB
:103F800010E000E00248016841F002010160704762
:103F900010E000E07047FEE7FEE7FEE7FEE770474F
:103FA0007047704700F024B80548FFF7C5BE0548C4
:103FB000FFF78CBD0448FFF789BD0448FFF7BCBE7E
:103FC00024030020180200208C010020840300201C
:103FD0000120FFF770BA1020FFF76DBA4020FFF7FD
:103FE0006ABAFDF730B8FEF7FFBEFEF7D3BE000099
:103FF00002490A68886882180A60704750000020E9
:1040000019E050F8042BD30744BFA9F101039A1813
:10401000091F0023042942F8043BF9D25FEA817C9E
:10402000134604D54FF0000CA2F800C09B1CC90732
:1040300044BF0021197050F8041B0029E1D17047DA
:1040400030B5016884684218416802EB5103C90722
:104050000BD54C4409E012F9011B12F8015B002951
:1040600004F8015B05D5491CF9D19A42F3D10C3013
:1040700030BD491EF1D5F8E710B500F013F8020085
:104080000023DB4300241068984203D01100022073
:10409000ABBE14605068984203D0111D0220ABBE25
:1040A000546010BD0148704700000000600000200F
:1040B00010B5074979441831064C7C44163404E0A5
:1040C0000A68081D114488470146A142F8D110BD75
:1040D0002C000000600000004EF68851CEF2000176
:1040E000086840F470000860BFF34F8FBFF36F8F14
:1040F0004FF00070E1EE100A7047000005FFFFFF6F
:104100009004000068000020800800002C8000203F
:10411000000000002DFFFFFF6401000048000000C8
:10412000040000201DFFFFFF7801000004000000D4
:104130002480002000F00DF8002801D0FFF7B8FF20
:10414000AFF300800020AFF30080FFF7D8F900F054
:1041500002F80120704700F001B800000746384619
:1041600000F002F8FBE7000080B5FFF785FF024A88
:1041700011001820ABBEFBE726000200133F000829
:104180003D3F0008613E0008B33E0008413E000884
:104190005D3E00080148804701480047F9090008D2
:1041A000A5410008AFF30080FFF796FFFFF7C2FFBD
:1041B000FFF7FEBFFFF7FEBFFFF7FEBFFFF7FEBF33
:1041C000FFF7FEBFFFF7FEBFFFF7FEBFFFF7FEBF23
:1041D000FFF7FEBFFFF7FEBFFFF7FEBFFFF7FEBF13
:1041E000FFF7FEBFFFF7FEBFFFF7FEBFFFF7FEBF03
:1041F000FFF7FEBFFFF7FEBFFFF7FEBFFFF7FEBFF3
:10420000FFF7FEBFFFF7FEBFFFF7FEBFFFF7FEBFE2
:10421000FFF7FEBFFFF7FEBFFFF7FEBFFFF7FEBFD2
:10422000FFF7FEBFFFF7FEBFFFF7FEBFFFF7FEBFC2
:10423000FFF7FEBFFFF7FEBFFFF7FEBFFFF7FEBFB2
:10424000FFF7FEBFFFF7FEBFFFF7FEBFFFF7FEBFA2
:10425000FFF7FEBFFFF7FEBFFFF7FEBFFFF7FEBF92
:10426000FFF7FEBFFFF7FEBFFFF7FEBFFFF7FEBF82
:10427000FFF7FEBFFFF7FEBFFFF7FEBF020DFF0116
:10428000E800044800100048FD000048EC00F8FF7A
:10429000F0000010FD000001FC0002093D00F8FFE5
:0242A000F80024
:04000005080041A509
:00000001FF
