:020000040800F2
:10000000B8270020B9830008898100088B81000887
:100010008D8100088F810008918100080000000098
:1000200000000000000000000000000093810008B4
:100030009581000800000000978100089981000860
:10004000DB830008DF830008E3830008D181000818
:10005000E7830008EB830008CB810008EF830008EA
:10006000F3830008F7830008C5810008FB830008BC
:10007000FF830008038400089D81000807840008AE
:100080000B8400080F8400081384000817840008FC
:100090001B8400081F8400082384000827840008AC
:1000A0002B8400082F84000833840008378400085C
:1000B0003B8400083F84000843840008478400080C
:1000C0004B8400084F8400085384000857840008BC
:1000D000A3810008A98100085B8400085F840008F0
:1000E00063840008678400086B8400086F8400083C
:1000F000D9810008D581000873840008778400083E
:100100007B8400087F8400088384000887840008BB
:100110008B8400088F84000893840008978400086B
:100120009B8400089F840008AF810008A384000816
:10013000A7840008AB840008AF8400082DE9F84FBD
:100140000FF2D017A2B0D7E90045CDE900452C9EAB
:10015000DFF82C7C04918DF8436000210FF2BC1471
:100160000D9112944FF0FF368246904699460FE06B
:10017000C3462C461BF8011B0498D0470028049066
:1001800000F0B2800D98401C641E0D90F2D1A8447E
:1001900098F80000252807D10021079108910991BE
:1001A0000A910B910C910DE06A463146404600F0F1
:1001B000FDFF050001D10D98B4E0D9D50125E6E792
:1001C00041F0010118F8010F2028F9D023280CD0A4
:1001D0002B2804D02D2805D0302809D086E041F006
:1001E0000201EFE741F00401ECE741F00801E9E723
:1001F00041F01001E6E700200F900AE00F98B842A6
:1002000005DA00EB800302EB4302303A0F9208F16B
:10021000010898F80020A2F130000A28EED398F8DF
:1002200000002E2818BF0E9629D118F8010F2A2891
:100230000BD1D9F80000C9F8000008F1010850F806
:10024000042BC9F800000E9219E02D280CBF18F8F5
:10025000010B002000220E920BE040B90E9ABA4228
:1002600005DA02EB820403EB4403303B0E9308F102
:10027000010898F80030A3F130020A2AEDD3ADF856
:100280004010129898F8001000F09CFF08B118F880
:10029000010B8DF842009DF84200682804BF98F8D1
:1002A0000010682903D162208DF8420008E06C2814
:1002B00004BF98F800006C2804D171218DF8421019
:1002C00008F1010813A806904A4618F8013B02A954
:1002D000504600F067F838B913AA02A9504600F05A
:1002E000C9F900287FF554AF30461BE02A2882D197
:1002F000D9F80020C9F8002052F8040BC9F80020F2
:1003000000280F9003D540420F9041F0040108F1FE
:10031000010884E70000000000000000686A6C74B7
:100320007A4C000023B0BDE8F08F622820D0682806
:1003300011D06A2803D06C2827D0712825D10868ED
:10034000C01D20F007000860D0E9002308300860D5
:10035000194610467047002A0A680A60106803D0E0
:10036000121D0A6000B217E0121D0A6080B217E089
:10037000002A0A680A60106803D0121D0A6040B2A1
:100380000AE0121D0A60C0B20AE0002A0A680A6088
:10039000106803D0121D0A60C1177047121D0A6051
:1003A000002170477CB50D4611461C462E69B4F1FC
:1003B000250200F04D811C3A00F08680121F022AAF
:1003C00040F282800E3A00F00781521F5AD0093A5B
:1003D0007AD0921E16D0521E35D0521E022A73D9E0
:1003E000121F30D0521F00F09A80521E4AD0521E67
:1003F00000F0E480D21E00F0FD80921E42D0D21E9A
:1004000040D02BE195F83A206C2A09D06869421C4B
:100410006A610A680A6052F8043B0A60335427E1B3
:100420000A680A6052F8043B0A60002100930191B7
:100430004FF0FF322A6329466A4600F096F90028F9
:1004400040F1168101E195F83A000122FFF76DFFB6
:10045000C5E900010023994204DA6869411C696119
:100460002D210DE0288F810704D56869411C696141
:100470002B2105E0C00722D56869411C6961202154
:1004800031541CE095F83A000022FFF74EFFC5E911
:10049000000195F83800010711D5D5E900230020A7
:1004A000834208BF82420AD044F02000782806D157
:1004B000686930213154401C411C69613454214623
:1004C00068693044E86083E00868C01D20F00700D8
:1004D0000860D0E9002308300860C5E90023D5E9A9
:1004E0000001C80F04D06869411C69612D210DE02D
:1004F000288F810704D56869411C69612B2105E0BB
:10050000C00704D56869411C6961202131546869BC
:100510003044E8602146284600F032FAA8E005F1B0
:100520003A02507820B14FF0FF340FF6243070E0DB
:100530001078622808D0682824D06A2812D06C2845
:100540002ED071280ED02BE00A680A6052F8040BF6
:100550000A6020B94FF0FF340FF60C3059E0E96A19
:10056000017085E00A680A6052F8040B0A6020B93D
:100570004FF0FF340FF6F0204BE0EA6AD317C0E9E2
:10058000002375E00A680A6052F8040B0A6020B97B
:100590004FF0FF340FF6D0203BE0E96A018067E0BE
:1005A0000A680A6052F8040B0A6020B94FF0FF3461
:1005B0000FF6B4202DE0E96A016059E00A680A608C
:1005C00052F8040B0A600021C5E90001EE607821B1
:1005D000284600F029F94BE06C2285F83A200B6898
:1005E0000B6053F8042B0B6052BB4FF0FF340FF637
:1005F000AC200EE095F83A206C2AF0D0086808602C
:1006000050F8044B0860EC603CB94FF0FF340FF633
:10061000702000F0F1FD201A76BD2E6B002E04D55F
:10062000204600F00BFE044608E03246002120463A
:1006300000F020FE002814BF041B3446AC6117E014
:10064000294600F092F8002812D54FF0FF3076BD11
:100650006869411C69612521315409E06969481CB8
:10066000686125227254210002D0411C6961345412
:10067000002076BD2DE9F0410E460546716B70698C
:10068000B46A091A306A091AB069091A706A091A33
:10069000F069091A96F838000C1B410790460DD4F2
:1006A000002C0BDD2746B0682021A8470028B06049
:1006B00057D0F06A401C7F1EF062F4D17369424645
:1006C0003146284600F0ACFC00284AD1376A002F9A
:1006D0000ADDB0683021A8470028B06041D0F06A38
:1006E000401C7F1EF062F4D1B369F268314628469F
:1006F00000F096FCA8BB776A002F09DDB0683021B6
:10070000A847B06068B3F06A401C7F1EF062F5D164
:10071000F068B169F36942183146284600F080FC60
:10072000F8B9B76A002F09DDB0683021A847B0607A
:10073000B8B1F06A401C7F1EF062F5D196F838001F
:1007400041070BD5002C09DDB0682021A847B06017
:1007500038B1F06A401C641EF062F5D10020BDE89B
:10076000F0814FF0FF30BDE8F0812DE9F8470D46EC
:10077000A3B02F6B002F8146904648BF6FF0004713
:1007800000F0A4FD696B40180FF62C118128D1E907
:100790000023CDE9012328BF4FF0FF303ED20024D3
:1007A000002F2FDDD8F8001001AA684600F000FDE8
:1007B0000646002E35D4D8F8000008B9761E30D48D
:1007C000B7421FDB6869301881280AD300206863AC
:1007D00003AA29464846FFF74DFF040012D4002023
:1007E000686103A8D5F814A032466946504400F069
:1007F00073FDB244C5F814A058F8040B002818BFC4
:10080000BF1BCDD12CB903AA29464846FFF732FFBA
:10081000044614B9002068616863204624B0BDE82E
:10082000F0874FF0FF34F8E72DE9FC4707468A468A
:100830003E69BAF16F0F08BF082405D04AF02001C5
:10084000782914BF0A2410243C25D7E90023BAF1E3
:10085000640F18BFBAF1690F9046994606D100217E
:100860008B4203DAD8F1000869EB49090020814581
:1008700008BF80451FD1386BE8B9082C4CD197F8D8
:100880003800010748D530203B2586F83B0043E07F
:1008900000280ED597F8380000F01400102808D171
:1008A0007A6B7869121A386A121A511A0029C8BF6D
:1008B0003962BDE8F3878DF800A0404649462246DC
:1008C000E31700F05DFD3032D0B26D1E3A2801957D
:1008D00004DB9DF80000A0F151018A1872554046D2
:1008E00049462246E31700F04BFD8046894600202A
:1008F000814508BF804503D0F86871198842DCD370
:10090000082C09D197F83800010705D5715D302909
:1009100002D06D1E30207055C5F13C01B9617019CF
:10092000F860386B8142B3DA411A39624FF6EF70E2
:10093000398F01403987BDE8F3872DE9D04306465A
:100940000F4614464FF00008DFF8389412E0E00735
:1009500007D542464B463046394600F029FE06464A
:100960000F464046494642464B4600F021FE641081
:1009700080468946002CEAD130463946BDE8D0830E
:100980002DE9F34F054641F020048DB0D5E90089EB
:10099000612C02AE09D0286B002848BF062003D482
:1009A00008BF672C01D101202863D5E90023580036
:1009B0004015401C0ED119030CD00320A8619DF8EE
:1009C000380061381A2802D20FF2F46111E00FF2F8
:1009D000F4610EE058004015401C0FD119030DD1F1
:1009E0000320A8619DF8380061381A2814D30FF24B
:1009F000DC61E868032200F06FFCD3E1194621F0C6
:100A00000043B3F5801F10460DD20027BB4208BF3C
:100A1000BA42019703D111E00FF2AC61E9E701AAF4
:100A200000F098FE0AE0DFF8607307EB1352DFF87E
:100A30005C3301921940DFF858331943C5E90001CE
:100A4000612C0ED1E86830210170811CE9609DF8AD
:100A5000381061290CBF7821582141706869801CC9
:100A60006861D5E900AB2BF0004300202AF00002BA
:100A7000834204BF8242002300F05A81612C40F07F
:100A8000A980286B00284CBF2120401C00904046C4
:100A9000009F7F1C49460022002300F093FED946A8
:100AA00001988DF8082038BF89F00049001F019097
:100AB000002FD0460DF1090040F3498140F2FF714B
:100AC000DFF8D0B20C91064640464946002200238A
:100AD00000F090FE80F03A814800400D00F11C02C9
:100AE00010D0002A0EDD0C98824205DB09F0004090
:100AF00040EA0B01002013E0A448084040EA0251FC
:100B000040460DE029F00043002028F00002834217
:100B100008BF82420FBF40461C22404600F082FEC2
:100B20008046894600F01CFFFF1F002F044609DDA8
:100B300000F034FF02460B464046494600F040FFB5
:100B400080468946F01D072104E004F00F0200F8FA
:100B5000012D2411002C01DD491EF6D5491E5CBF74
:100B6000002200F8012DF9D5ECE00020194602AA78
:100B70000A4400E05B1E12F80149491E8442F9D084
:100B80000F2804D10DF10900425C521C4254002987
:100B900004D50198001D02AE5B1C0190591E12D4B1
:100BA0009DF838007218147804F130085FFA88F460
:100BB000392CC4BFA0F13A04A044491E02F80189AF
:100BC000F1D58DF83800286B002840F1B080591E0F
:100BD0002963ACE0404649460022002300F0F2FDC4
:100BE000019938BF89F0004947F2975041436A4A5A
:100BF00091FBF2F20192D2F1070204DD4046494630
:100C0000FFF79BFE0AE0524200206449FFF795FE81
:100C100002460B464046494600F044FF8046662C9B
:100C2000286BDFF87CB106BF019F0A3706273F1803
:100C3000142FC8BF142730208DF8080089460DF105
:100C4000090000E03046002F34DD064640464946A4
:100C500001F04CF801460A4606F1080304200A2672
:100C6000B2FBF6F606EB860EA2EB4E02303203F82C
:100C7000012C0A22B6FBF2F202EB820EA6EB4E0624
:100C80003036401E03F8026DE9D1083F002F03F112
:100C90000806D7DD084601F03DF802460B464046FF
:100CA000494600F08DFE00225B4600F081FC804644
:100CB0008946CBE70DF10901401A0DF1090604E060
:100CC0000199491E401E0191761C31783029F7D0D8
:100CD000662C02D10199491C03E0652C0CBF01214F
:100CE00000212B6BCB189842B8BF431E002B1ED49B
:100CF000834204DAF05C3528A8BF392000DA3020BE
:100D00001946721E02EB010800E05B1E18F80199FB
:100D1000491E8145F9D0392802D1705C401C7054BD
:100D2000002904D50198401C16465B1C01900198CF
:100D300000B200901BB29DF838103246284600F0F1
:100D400034F82FE0C61D002F3FF7BEAE30460DF140
:100D50000901401A009903468842C8BF0B46002B80
:100D60000DF109063FF52FAF8342BFF6FEAE0DF140
:100D70000900C05C07287FF7F8AE0F20F6E60000F8
:100D8000CBCCCC0C0000244002FCFFFFFFFF0F8007
:100D90000000E03F0000F07FA08601000000F03F6F
:100DA00084D797410FB0BDE8F08F2DE9F84783B0A5
:100DB00006468A461746984600F0FCF9B8F1000F3F
:100DC000406A356B90F8009003DC4FF001080FF299
:100DD0000037BDF930404AF02000662808BF641C87
:100DE00015D0672840F0848014F1040FC0F286808B
:100DF000AC4280F2838096F83800641C010702D46C
:100E0000A845B8BF454620B22D1A48BF00250FFAA5
:100E100084FAF068B169BAF1000F25DC4A1C30236E
:100E20004354002D03DC96F83800010703D5F06821
:100E300000F80290521C15EB0A0FB8BF6C4220B2AA
:100E4000441941424445B8BFA046B26171620FFAED
:100E500088F5F561F068B3692A463946184400F010
:100E60003BFA641BB462C4E022B29045084417DA2E
:100E70004246394600F030FAB0694044B061AAEB0E
:100E80000801002D716203DC96F838100A0705D5B9
:100E9000F16801F80090F069401CF061B562A8E0CB
:100EA000394600F019FAB069002D5044A8EB040847
:100EB00003DC96F838100A0703D5F16801F80090B2
:100EC000401CB0610FFA88F08542F068B369B8BF82
:100ED000A8460FFA88F207EB0A01184400F0FCF963
:100EE000B0690FFA88F10844B061681A706280E056
:100EF000BAF1610F14D14FF0700A16E0A84504DA78
:100F000096F838100A0758BF45466D1E48BF0025A1
:100F1000BAF1670F14BF4FF0450A4FF0650A04E0BD
:100F2000BAF1410F08BF4FF0500AB169F368481C8D
:100F3000B061002D17F8012B5A5403DC96F83810D5
:100F40000A071BD5F168431CB36101F80090002D1E
:100F500014DDA8F101080FFA88F08542F068B8BFE7
:100F6000A8460FFA88F23946184400F0B5F9B0697E
:100F70000FFA88F108446D1AB0617562F068B169C2
:100F80000844002C80F800A003D42B214170811C60
:100F900003E02D2141706442811C00206A460AE072
:100FA00023460A2493FBF4F404EB8405A3EB4503E6
:100FB00002F8013B401C24B2002CF1DC012806DCC5
:100FC0004AF02002652A04BF302201F8012B48B9FB
:100FD000302001F8010B07E0401E1DF800203032E0
:100FE00001F8012B0028F7DCF068B2691044091AF7
:100FF000F16196F8380000F0140010280DD17169E5
:10100000B0694118706A4118F0694118B06A411816
:10101000706B8142BCBF411A316204B0BDE8F087F9
:10102000F8B505460E4617461C46002074B117F861
:10103000011BB068A847B06030B1F06A401CF06294
:101040000020641EF3D1F2BD4FF0FF30F2BD00006E
:101050007072696E74665F733A20256E20646973DE
:10106000616C6C6F776564007072696E74663A20AB
:1010700062616420256E20617267756D656E740013
:101080007072696E74665F733A20626164202573C2
:1010900020617267756D656E740000007072696E14
:1010A00074665F733A2062616420256C73206172FC
:1010B00067756D656E7400000000000000000000A0
:1010C0006E616E004E414E00696E6600494E4600EC
:1010D0003000F0B40246106895681318506803EBAE
:1010E0005004C00721D54D441FE0F0BC02F10C00B4
:1010F000704713F8017B05F8017B491EF9D1A0B1B7
:10110000B60813F8011B06F00306032E08BF13F8F8
:10111000016B01EB06214942801C294405D011F8DE
:10112000016B05F8016B401EF9D1A342DDD013F825
:10113000016B16F0030104BF13F8011BC91C300931
:101140000F28DAD113F8010B0F30D6E71B48704790
:1011500030B45368D418042B09DA41B1057804F887
:10116000015B10F8015B15B15B1C491EF3E753608E
:1011700030BC704738B514461D4661B1FFF7E8FF33
:1011800061686A6B204690476FF00102811A02D0B5
:10119000491E03D005E06FF0010032BD4FF0FF3073
:1011A00032BD0021616032BDDA6B1047034BE1E7CD
:1011B000024BF9E70248704700000000D8100020F9
:1011C000A01000200278C9B28A421AB11CBF10F8E0
:1011D000012FF9E718BF00207047B1F5807F02D3D7
:1011E0004FF0FF3070470170012070470078401EBB
:1011F0008041C043C00F704780B508B90FF21C0092
:1012000005490B681BB122220021984701E000F03C
:101210008EFD222002BD0000AC170020636F6E73AC
:10122000747261696E742068616E646C65723A20D4
:10123000626164206D6573736167650000F101038D
:10124000810704D010F8011B89B18107FAD1026827
:10125000B2F10131914311F0803F04BF50F8042FE7
:10126000F6E710F8011B11B110F8011BFBE7C01ADB
:1012700070470000C9B2830706D0521E22D310F86F
:10128000013B9942F7D11FE0083A13D302F104025F
:1012900041EA012141EA014150F8043B121F21BFFC
:1012A0004B40A3F1013C2CEA030C1CF0803FF3D02F
:1012B000C9B2001F083210F8013B521E28BF91EA44
:1012C000030FF8D818BF0120401E704780B5FFF704
:1012D0003DFF006C02BD000062B38B0708D0521EB8
:1012E00011F8013B00F8013B00F024808B07F6D198
:1012F000830740F0208000BF103A07D330B4B1E834
:101300003810103AA0E83810F9D230BC530724BF87
:10131000B1E80810A0E8081044BF51F8043B40F8B9
:10132000043BD20724BF31F8022B20F8022B44BF24
:101330000B7803707047121F17D35B0009D151F867
:10134000043B20F8023B1B0C121F20F8023BF6D294
:101350000BE051F8043B00F8013B1B0A20F8023B6C
:101360001B0C121F00F8013BF3D238BF121D521E96
:1013700024BF11F8013B00F8013BF8D8704700008A
:10138000B3BBD9B1B2F5803F7DD2022A1ED98C46BB
:10139000B1FBF2F102FB11C31B0443EA1043B3FBA0
:1013A000F2FC02FB1C3380B240EA0343B3FBF2F0D1
:1013B00002FB103240EA0C4000237047022A05D994
:1013C0008446B0FBF2F002FB10C270474AB105D16F
:1013D00000F0010249085FEA300070470022002354
:1013E000704700F0A7BC0B000200002100207047EE
:1013F000904271EB030CF6D3B3F5803F2FD2F0B5DA
:10140000B3FA83F7B1FA81F4A7F10F0E3D1B5340F5
:10141000CEF1200602FA0EF2F3415340B5F10F0768
:1014200046D80F3C2C444140C4F12006A040F14175
:101430004140B1FBF3F603FB1611A2FB0645001B6E
:10144000A94102D2761E8018594180EA010221FA90
:101450000EF362FA0EF200215A403046F0BD30B46D
:10146000B1FBF3FC03FB1C11A2FB0C45001BA941C3
:1014700003D2ACF1010C8018594130BC02460B4636
:10148000604600217047B2F1807F65D3F0B5B2FAB3
:1014900082F7B1FA81F4C7F10F063D1B22FA06F379
:1014A00007F1110EF24120355A40B5F10F07B8D9B6
:1014B0004140C4F12006A040F1414140B1FBF3FCA2
:1014C00003FB1C11A2FB0C45001BA94103D2BCF17C
:1014D000010C801859410F2F12D30F3FC90341EA65
:1014E0005041B1FBF3F603FB1611A2FB0645D4EB0A
:1014F000C030A94102D2761E8018594146EACC3C40
:1015000007B34140C7F12006B840F1414140B1FB6B
:10151000F3F603FB1611A2FB0645001BA94102D2FC
:10152000761E8018594180EA010221FA0EF3C7F1B4
:10153000200462FA0EF20CFA07F05A402CFA04F179
:101540003043F0BD80EA010221FA0EF3002162FA75
:101550000EF260465A40F0BD8C46B1FBF2F102FB40
:1015600011C31B0243EA1063B3FBF2FC02FB1C3302
:101570001B024CEA002043EA1063B3FBF2FC02FBBF
:101580001C331B024CEA002043EA1063B3FBF2FC5D
:1015900002FB1C331B024CEA002043EA1063B3FB3E
:1015A000F2FC02FB1C324CEA0020002370470000D2
:1015B000B0B581EA030C0CF0004C40F2FF7515EA5F
:1015C00011541DBF15EA1357AC42AF4239E0E4197C
:1015D00023EA455343F48013C90241F0004141EA34
:1015E000505EC7021100A7FB020200284FF0000066
:1015F000EEFB01204FF00001E3FB072118BF42F092
:101600000102401800214941E3FB0E01A4F580646A
:101610000F0302D252004041494154F101046CDDF4
:10162000470872F1004250F1000051EB0451A1F55E
:1016300080115CBF41EA0C01B0BD4CEA05510020AD
:10164000B0BD05EA1357AC4214BFAF4241E050EAC7
:10165000410E1CBF52EA430E02E061460020B0BDBD
:1016600024423C441BD15FEA070EF6D0090302BFB7
:1016700001460020AEF1140EB1FA81F7AEEB07047B
:1016800001FA07FE0C37C7F1200100FA07F7C8403E
:101690004EEA000E23EA455343F48013A2E733F0E9
:1016A0000043B3FA83F704BFB2FA82FE77440B3FDC
:1016B000E41BB7F1200E2FBF02FA0EF3BB40C7F1B7
:1016C000200E22FA0EFE38BF43EA0E03BA40641C15
:1016D00082E750EA410E14BF52EA430E6FF0000158
:1016E0004FF4001717EB430F8ABF194617EB410F52
:1016F000B5E74CEA05510020B0BDD4F10104B4F1C6
:1017000020070FDAC4F12007520828BF42F0010277
:1017100010FA07F501FA07F7E1BF2A43E040384322
:10172000E1400FE0352C98DCC7F1200452EA40027A
:1017300020FA07F218BF42F0010231FA07F0A14087
:101740000A43002172F1004250F1000051EB0C01FC
:10175000B0BD000010B5144600F002F8226010BDC4
:10176000C1F30A5343B14A0012F5001F28D2A3F275
:10177000FE32A1EB0251704750EA410C20D001F03B
:10178000004C31EA0C01B1FA81F204BFB0FA80F3E7
:10179000D2180B3AB2F120032CBF00FA03F19140AA
:1017A00041EA0C013EBFC2F1200C20FA0CF31943B0
:1017B0009040524240F2FD33D21A01EB0351704780
:1017C000002270474FF4001C1CEB410F94BF1CEB30
:1017D000430F09E041EA030C50EA4C0C52EA0C0CAE
:1017E00003D2994208BF9042704714BF8B42824295
:1017F000704700004FF4001C1CEB410F94BF1CEB22
:10180000430F09E041EA030C50EA4C0C52EA0C0C7D
:1018100003D28B4208BF8242704714BF9942904264
:1018200070470000124254D440F2FF7C1CEA11536E
:101830000FD0634531D09B1863453CBF01EB02518B
:10184000704701F0004141EA0C510020AFF30080E5
:10185000704750EA410320D001F0004C91EA0C019E
:101860001CD0B1FA81F30B3B9A420DD9D21A9940A0
:1018700051EA0C01C3F1200C20FA0CFC61449840A1
:10188000531C40F2FF7CD7E7914041EA0C01C2F1C2
:10189000200C20FA0CF3194390407047B0FA80F303
:1018A0001533202BE0D3202AEED3203A203B9A4256
:1018B00009D9D21A00FA03F141EA0C010020531CA5
:1018C00040F2FF7CB8E700FA02F141EA0C01002087
:1018D0007047524240F2FF7C1CEA11530DD0634521
:1018E000DBD0B2EB030C3CBFA1EB025170470CF113
:1018F000010221EA035141F4801150EA410CCCD09D
:1019000001F0004C352A27DC30B481EA0C01B2F139
:10191000200309DAC2F12003044601FA03F5D0409E
:101920002843D1409C400CE0C3F12002450020FA3E
:1019300003F418BF44F0010421FA03F091400C4372
:10194000002174F1004550F1000051EB0C012442DC
:1019500030BC7FF47BAF70476146002076E7000023
:10196000C1F30A5340F2FE329B1A14DDD3F1200377
:101970004FEAE17208DDC90241EA505141F00040EE
:10198000D84080185040704703F2E13010B1D24384
:1019900082F000407047002070470000C11768B116
:1019A0004840401AB0FA80F29040D21CC907C2F5F4
:1019B000846241EA025202EBD021400570470000E8
:1019C00070B44FF0004591EA030F40F1B5816B40D0
:1019D000841A71EB030603D2001BB1411219734143
:1019E0004FF4001C1CEB410F34BF7CEB430442E07E
:1019F0000C0DA4EB1356352E4FDC45EAC323DB0A4E
:101A000045EAC121C912B6F120050DDD63FA05F6DC
:101A1000EB4086EA0305124218BF45F00105C018E5
:101A200051F100010CD213E062FA06F5F240554084
:101A3000F3415A40B340F3405A408018594107D30C
:101A400049085FEA30005FEA350528BF45F0010527
:101A500001F58011420875F1004250F1000041EBA0
:101A600004514E0016F5001F70BC38BF70470020AF
:101A7000090D090570471CEB410F10D252EA4306CD
:101A80000BD0BCEB410F05D80C0DAB43661E342EBA
:101A9000B6DD02E0AB438018594170BC704770BCA2
:101AA00070470000F0B540F2FF7581EA030C0CF0BE
:101AB000004C15EA11541DBF15EA1357AC42AF4252
:101AC000E5E0BC41C1F31301C3F31303801A99414C
:101AD00043F4801304D2641E4000494180185941E8
:101AE000C90241EA5051B1FBF3F603FB1611A2FB08
:101AF0000675D7EBC020A94102D2761E8018594145
:101B0000C90241EA5051B1FBF3FE03FB1E11A2FBD7
:101B10000E75D7EBC020A94103D2AEF1010E80189B
:101B20005941890241EA9051760546EA8E2EB1FB71
:101B3000F3F603FB1611A2FB0675D7EB8020A94133
:101B400002D2761E80185941C90241EA50514EEA2C
:101B5000060EB1FBF3F603FB1611A2FB0675D7EBDD
:101B6000C020A94102D2761E80185941C90241EA1B
:101B70005051B1FBF3F703FB1711A2FB0735D3EB71
:101B8000C020A94167F100070CBF004247F00107E0
:101B900066F3D5274FEA1E31B80814F5806412DDCC
:101BA000BD0775F1004250EB0E5051EB045111F599
:101BB000801F5CBF41EA0C01F0BD4CF07F6141F039
:101BC000E0410020F0BDBD076D0840EA0E5041F431
:101BD0008011D4F10104B4F120060ADAC4F1200620
:101BE0000200E04001FA06F3E1401843B240154319
:101BF0000EE0342C13DCC6F1200445EA40056D08E4
:101C000020FA06F2154321FA06F0A1400D43002107
:101C100075F1004250F1000051EB0C01F0BD0020C5
:101C20005FEA0C01F0BDCFB992185B41B3FA83F7BC
:101C300004BFB2FA82F6BF190B3FB7F120062FBFDF
:101C400002FA06F3BB40C7F1200622FA06F638BFB7
:101C50003343BA401CB1E419641E33E77F4231F0CC
:101C60000041B1FA81F404BFB0FA80F6A4190B3C2C
:101C7000B4F120062FBF00FA06F1A140C4F12006FE
:101C800020FA06F638BF3143A0403C1B1AE7AC42AD
:101C90001ABF05EA1357AF4212E050EA41061CBFD3
:101CA00052EA4306BFE750EA4107304661461CBF8F
:101CB00041EA0551F0BD52EA430C08BFC143F0BDF3
:101CC00000204FF4001616EB410F98BF16EB430FA0
:101CD00008BF16EB410F24BFC14305E016EB430FCD
:101CE0000CBF61464CEA0551F0BD0000400D49189B
:101CF00040EA81200CD2490DA1F58061491C40F0D9
:101D0000004005DBD1F11F0154BFC840C017704728
:101D100000207047014648B1B0FA80F18840C91CE4
:101D2000C1F58461090501EBD02140057047012010
:101D300000F0B6B870470000841A71EB030604D2B5
:101D40006E40001BB141121973414FF4001C1CEB93
:101D5000410F34BF7CEB430682E00C0DA4EB13561D
:101D6000362E7BDC012E45EAC32341DC43EA525385
:101D700012BFD20292025B08240545EAC12141EA62
:101D80005051D2EBC020994125D407D1B0FA80F64A
:101D900010FA06F162D00020203608E0B1FA81F690
:101DA000B140C6F1200220FA02F21143B0404FEADE
:101DB000F474B4EB465434F001064FEA74040AD8C4
:101DC000D6F50016760D04F00044F04061FA06F2F4
:101DD0005040F1404840C00A40EA415021F00041E3
:101DE00028BF5FEA500550F1000044EBD12135E0F7
:101DF000DB0A45EAC121C90AB6F120050EDD42EA37
:101E00000242120CC5F1200603FA06F6EB4042EA44
:101E100006056D42984161F100010DE062FA06F598
:101E2000F240554063FA06FC82EA0C02F3405A4045
:101E30006D42904161EB030111F4801F05D1641ED6
:101E4000620502D06D004041494121F480114308F0
:101E500075F1004350F1000041EB045170BC704734
:101E60001CEB410F15D223F0004352EA43060BD07E
:101E70004FEA4C0CBCEB410F04D80C0D661E342EFF
:101E8000B7DDEBE7801A994150EA410608BF00210F
:101E9000E4E708BF1CEB430F28BF6FF00001DDE74C
:101EA00080B5AFF30080024A11001820ABBEFBE7FB
:101EB0002600020038B5040009D004F17C056868EA
:101EC00008B900F01EF800F021F8012801D1012026
:101ED00032BDA06A08B100F02AF800F00AF821F03B
:101EE0002A01FFE7816000F01BF8BDE8324000F0F6
:101EF0002EBE2068416821F49041416020688168CD
:101F0000704700212970204600F049BF24206860F6
:101F100020680168490849000160204600F040B986
:101F20002068016841F001010160204670472046A9
:101F300000F0AABD70B5044604F17C05134668683C
:101F4000202836D149B3180027D02878012830D06E
:101F500001222A7004F15406216533807380002029
:101F6000E86021206860306AC8B1DFF82012C162E1
:101F7000DFF81C02316A0863316ADFF8180248632F
:101F80000020316A88632068216D00F12802306AE0
:101F900001F04BF818B100F00EF8012070BD216877
:101FA00040200862002028702068816841F080018C
:101FB00008E0022070BD1020E8600020287020207A
:101FC000686070478160002070BD206881684A06A3
:101FD0007047F8B5044640F60F002568E9692A689D
:101FE000AB6808400DD1880602D5900602D4D8000F
:101FF00040F18980E16E00294FD02046BDE8F440D1
:1020000008476548034204BF644E32427BD0CF0785
:1020100009D5D60507D501262E62D4F8885045F09B
:102020000105C4F888508D070AD5DD0708D5266854
:1020300002253562D4F8885045F00405C4F888506C
:102040004D070AD5DD0708D5266804253562D4F882
:10205000885045F00205C4F888500D070CD5950648
:1020600001D4034208D0256808202862D4F88800EB
:1020700040F00800C4F8880008050BD5500109D5C8
:1020800025684FF400602862D4F8880040F02000F2
:10209000C4F88800D4F88800002870D0890607D5D5
:1020A000900601D4D80003D5E16E09B120468847D7
:1020B000D4F8880021688A68510602D410F0280FED
:1020C0001AD0204600F0BEFDFFF77FFF0FD500F0CD
:1020D00057F860B1DFF890198163A06F00F0E8FF56
:1020E00000284CD0A06F816BBDE8F4400847204623
:1020F000BDE8F24001F0CCB8204601F0C9F800205C
:10210000C4F88800F1BDC80209D5580207D54FF4BC
:10211000801028622046BDE8F24001F041B908066F
:1021200009D5100601D4180205D5216F39B3204610
:10213000BDE8F440084748060FD550060DD528687D
:1021400020F0400028602021C4F880100020206783
:102150002046BDE8F24001F04EB9080206D5500015
:1021600004D52046BDE8F24001F062B9C80148BF7D
:10217000002A04D52046BDE8F24001F05AB9F1BD6D
:10218000816821F040018160A06F7047992C0008A0
:10219000C72C0008CD2C000801000010200100040D
:1021A0002DE9F84F0446DFF8C8082768DFF8C4B8FF
:1021B0003968DFF8C4A80140A068014320690143E1
:1021C00060690143E0690143606E014339600026A4
:1021D0007968E06821F4405101437960B046A16913
:1021E000DFF8880887421CBF206A0143BA68DFF81D
:1021F000780A02401143B9604FF48075F96A606A49
:10220000090940EA0111F9625F454FF400404FF4BB
:1022100000714FF480624FF400634FF4805C4FF420
:10222000005E4FF4804929D1DAF800B00BF0030BBF
:10223000BBF1030F3ED8DFE80BF00237343A4FF022
:10224000010AD4F81CB05746BBF5004F4FF6F07AA0
:1022500040F01183012F09D0022F00F05482042F87
:1022600000F08D82082F00F0C282F5E201F0D4FC6C
:102270000146606A002840F01B8242E2DFF8ECB7BA
:102280005F4517D1DAF800A01AF4406A27D0BAF5F2
:10229000806F09D0BAF5006F03D0BAF5406F06D051
:1022A00008E04FF0020A07E04FF0040A04E04FF0A4
:1022B000080A01E04FF0100ADFF8B0B75F45C0D15F
:1022C000BAF1000F0BD0BAF1020F49D0BAF1040FE6
:1022D00000F08280BAF1080F00F0B080B6E301F0A0
:1022E00093FC0146606A58B3012808BF022028D039
:1022F000022808BF042024D0032808BF062020D0CD
:10230000042808BF08201CD0052808BF0A2018D0C0
:10231000062808BF0C2014D0072808BF102010D0B2
:10232000082808BF20200CD0092808BF402008D06A
:102330000A2808BF802004D00B2808BF284600D0F8
:102340000120B1FBF0F0002800F08283626802EB0C
:102350004201884203D31103814280F0A18075E3DA
:10236000606AB0B3012808BFDFF80009EED0022888
:1023700008BFDFF8FC08E9D0032808BFDFF8F4083D
:10238000E4D0042808BFDFF8F008DFD0052808BF34
:10239000DFF8E808DAD0062808BFDFF8E408D5D06F
:1023A000072808BFDFF8DC08D0D0082808BFDFF80E
:1023B000D808CBD0092808BFDFF8D008C6D00A2833
:1023C00008BFDFF8CC08C1D00B2808BF4FF224406B
:1023D000BCD0DFF8C008B9E701F0CCFB0146606A69
:1023E00058B3012808BF0220ABD0022808BF042040
:1023F000A7D0032808BF0620A3D0042808BF0820C0
:102400009FD0052808BF0A209BD0062808BF0C20B3
:1024100097D0072808BF102093D0082808BF202095
:102420008FD0092808BF40208BD00A2808BF802001
:1024300087D00B2808BF284683D081E7676A002F22
:1024400084D0012F08BF4846FAD0022F08BF70463B
:10245000F6D0032F08BF41F25550F1D0042F08BF2A
:102460006046EDD0052F08BF40F6CC40E8D0062FDF
:1024700008BF40F6AA2012D0072F08BF18460ED07A
:10248000082F08BF10460AD0092F08BF084606D0FB
:102490000A2F08BF284602D00B2F00D1802055E715
:1024A000BAF1000F0BD0BAF1020F38D0BAF1040F15
:1024B00000F07280BAF1080F00F0A780ECE001F0A4
:1024C000A3FB0146606A40B3012808BF02251ED065
:1024D000022808BF04251AD0032808BF062516D0F5
:1024E000042808BF082512D0052808BF0A250ED0E9
:1024F000062808BF0C250AD0072808BF102506D0DB
:10250000082808BF202502D0092808BF402572D01E
:102510000A280CBF80250B286DD001256BE0606A6E
:10252000002836D0012808BFDFF800682BD0022829
:1025300008BFDFF8FC6726D0032808BFDFF8F46780
:1025400021D0042808BFDFF8F0671CD0052808BF99
:10255000DFF8E86717D0062808BFDFF8E46712D075
:10256000072808BFDFF8DC670DD0082808BFDFF8B0
:10257000D86708D0092808BFDFF8D06703D00A2839
:1025800008BFDFF8CC677CD00B2808BFDFF80467F2
:1025900077D0DFF8C06774E001F0ECFA0146606ABA
:1025A00040B3012808BF022525D0022808BF042512
:1025B00021D0032808BF06251DD0042808BF082500
:1025C00019D0052808BF0A2515D0062808BF0C25F4
:1025D00011D0072808BF10250DD0082808BF2025D6
:1025E00009D0092808BF402505D00A280CBF80253E
:1025F0000B2800D001256268B1FBF5F650080021D8
:1026000010EB062051EB166141E0606A002836D0DD
:10261000012808BF4FF4800633D0022808BF4FF4CA
:1026200000162ED0032808BFDFF82C6729D0042815
:1026300008BF4FF4801624D0052808BFDFF81C67B8
:102640001FD0062808BFDFF818671AD0072808BF70
:102650004FF4002615D0082808BF4FF4802610D06C
:10266000092808BF4FF400360BD00A2808BF4FF4E2
:10267000803606D00B2808BF4FF4004601D04FF437
:102680000006C246002116EB52004AEB010100236E
:10269000FEF776FE064601E04FF00108A6F5407011
:1026A000DFF8C016884280F0D1812168CE60CFE18A
:1026B000012808BF02251AD0022808BF042516D019
:1026C000032808BF062512D0042808BF08250ED00D
:1026D000052808BF0A250AD0062808BF0C2506D001
:1026E000072808BF102502D0082808BF202575D06C
:1026F000092808BF402571D00A280CBF80250B2867
:102700006CD001256AE0606AB0B3012808BFDFF829
:10271000840521D0022808BFDFF850051CD003280B
:1027200008BFDFF8440617D0042808BFDFF84005CB
:1027300012D0052808BFDFF834060DD0062808BFE0
:10274000DFF8300508D0072808BFDFF82C0503D0D4
:10275000082808BFDFF82C057AD0092808BFDFF861
:10276000280575D00A2808BFDFF8200570D00B288F
:1027700008BFDFF81C056BD0DFF8D40568E001F076
:10278000F9F90146606A40B3012808BF022525D047
:10279000022808BF042521D0032808BF06251DD024
:1027A000042808BF082519D0052808BF0A2515D018
:1027B000062808BF0C2511D0072808BF10250DD00A
:1027C000082808BF202509D0092808BF402505D0C2
:1027D0000A280CBF80250B2800D001256068B1FBBA
:1027E000F5F1420802EB4102B2FBF0F632E0666A14
:1027F00066B3012E2CD0022E08BF484628D0032EE7
:1028000008BF42F6AA2023D0042E08BF70461FD06E
:10281000052E08BF41F698101AD0062E08BF41F2C7
:10282000545015D0072E08BF604611D0082E08BF9F
:1028300018460DD0092E08BF104609D00A2E08BF31
:10284000084605D00B2E08BF284601D04FF4803033
:1028500000F014F9B6B201E04FF00108A6F1100043
:10286000504580F0F3800AEA0601C6F342000143B6
:102870002068C160ECE0012F07D0022F35D0042F73
:1028800070D0082F00F0A580D7E001F0C5F901460F
:10289000606A40B3012808BF022516D0022808BF8D
:1028A000042512D0032808BF06250ED0042808BF2F
:1028B00008250AD0052808BF0A2506D0062808BF23
:1028C0000C2502D0072808BF10257AD0082808BF99
:1028D000202576D0092808BF402572D00A280CBFD1
:1028E00080250B286DD001256BE0606AB0B301280C
:1028F00008BFDFF8781333D0022808BFDFF8701361
:102900002ED0032808BFDFF86C1329D0042808BF95
:10291000DFF8641324D0052808BFDFF860131FD048
:10292000062808BFDFF858131AD0072808BFDFF8B9
:10293000541315D0082808BFDFF84C1310D009280D
:1029400008BFDFF848130BD00A2808BFDFF8401390
:1029500006D00B2808BF4FF2244101D0DFF8341312
:10296000606831E001F006F90146606A40B3012871
:1029700008BF022525D0022808BF042521D003283E
:1029800008BF06251DD0042808BF082519D0052832
:1029900008BF0A2515D0062808BF0C2511D0072826
:1029A00008BF10250DD0082808BF202509D0092808
:1029B00008BF402505D00A280CBF80250B2800D071
:1029C00001256068B1FBF5F101EB5001B1FBF0F6B8
:1029D00031E0666A6EB3012E08BF484629D0022E48
:1029E00008BF704625D0032E08BF41F2555020D0B5
:1029F000042E08BF60461CD0052E08BF40F6CC4010
:102A000017D0062E08BF40F6AA2012D0072E08BF06
:102A100018460ED0082E08BF10460AD0092E08BF4F
:102A2000084606D00A2E08BF284602D00B2E08BF43
:102A3000802000F023F8B6B201E04FF00108A6F1C3
:102A40001000504502D22068C66001E04FF0010836
:102A500004F1680001214180018000214160816012
:102A60004046BDE8F28F00001B2D000800800040AA
:102A7000F369FFCF0038014088000058616800EB1F
:102A80005100B0FBF1F6704790F82810CA0706D540
:102A900002685368C16A23F400330B43536090F813
:102AA00028108A0706D502685368016B23F4803327
:102AB0000B43536090F828104A0706D50268536804
:102AC000416B23F480230B43536090F828100A07CE
:102AD00006D502685368816B23F400430B435360AF
:102AE00090F82810CA0606D502689368C16B23F4D3
:102AF00080530B43936090F828108A0606D502682D
:102B00009368016C23F400530B43936090F82810F2
:102B10004A0610D502685368416C23F480130B43B6
:102B20005360416CB1F5801F05D15368816C23F46B
:102B3000C0030B43536090F828100A0606D50168BD
:102B40004A68C06C22F4002202434A607047F8B51C
:102B5000044604F17C050020E8606FF07E4701F038
:102B6000E9F80646206801680A0708D50097334649
:102B700000224FF40011204600F016F860B92068DA
:102B800001684A070AD50097334600224FF48001B6
:102B9000204600F009F808B10320F2BD202068604B
:102BA000A86000202870F2BD2DE9F041069C054682
:102BB0000E4690461F462868C1693140B1420CBF9D
:102BC0000120002040451CD114F1010FF3D001F089
:102BD000B1F8C01B844200D314B900F015F80CE022
:102BE000286801684A07E6D5C1690A05E3D54FF4AC
:102BF0000062026200F008F8C16000210170032049
:102C000000E00020BDE8F0812868016821F4D0715F
:102C100001602868816849084900816005F17C00ED
:102C2000202141608160704701680A6822F0C0027B
:102C30000A6001688A6822F400028A602021C0F8D4
:102C40008010704701680A6822F490720A60DFF809
:102C50002011026893680B4093602021C0F8841013
:102C60000021C16670470000FFF4FF1100127A00D6
:102C700000093D00AAB0280080841E00006A1800E8
:102C80005558140040420F0020A1070090D00300C7
:102C900048E801000024F400816A00680268930695
:102CA00044BF084600F0A7BB0020A1F85600086802
:102CB000826822F0800282600868FFE7016841F0C4
:102CC000400101607047806A01F03AB8F8B5846A43
:102CD00004F1800504F1560728686E6821688A6847
:102CE000110606D5212804D1002038802046FFF7A0
:102CF0009BFF20688168480606D5222E04D100205B
:102D000038812046FFF79EFFA86840F01000A860B9
:102D10002046BDE8F24000F0BBBA806A00F15601DF
:102D200000220A810A8000F0B3BA00000000127A83
:102D30000000093D00AAB0280080841E00006A1827
:102D4000005558140040420F0020A1070090D00306
:102D50000048E801000024F40055150000CC0C00E8
:102D600000AA0A0000FD0F005461510000D4300099
:102D7000FEFFFFEF6D4981B00A6802430A600968EF
:102D8000084008E06A4881B0016841F40021016010
:102D9000006800F400200090009801B0704738B53A
:102DA0008AB004466846142100F0CCFF2068614ACE
:102DB000614990423ED10868604D40F001000860D2
:102DC000096801F00101059105980120FFF7D2FF84
:102DD0000C20009002210020019102900321082084
:102DE000039100F06AF8402000F060F8082000F03D
:102DF00064F853482860112000F065F808B101F02C
:102E0000EFF84FF088500690002101200791ADF8AF
:102E10002010099006A9284601F0E4F808B101F055
:102E2000DFF86567AC6200220021252001F01CF963
:102E3000252037E0434A904236D14868424D40F45D
:102E400080404860486800F4804005900598012063
:102E5000FFF790FF0220FFF78DFF4FF4006000F0B6
:102E600025F8072000F029F8C02000900221012059
:102E70000191029003210720039104906946334891
:102E800001F066F9324828600F2000F01CF808B104
:102E900001F0A6F86567AC6200220021242001F051
:102EA000E3F8242001F0FDF80BB030BD00900221C2
:102EB00000200290039001917047049069464FF002
:102EC000904001F045B968601020A8600020E860DB
:102ED0008020286100206861A861E8612862284696
:102EE00000F03CB81CB504461A49206888421CD141
:102EF00001F012FA01F010FA1748816B21F44071C9
:102F000041F480718163816B41F400418163026807
:102F100042F480620260006800F4806000900098D3
:102F20002046BDE8164001F00BBA13BD4C00005816
:102F300050000058008000405C00005854150020EC
:102F40004400024000380140B4150020000400484D
:102F500044040240002800405800005838B50400DE
:102F600001D1012032BD2168DFF8FC02814204F169
:102F7000240500F042F8022068700A68A0686FF328
:102F80000E120243E0680243206902436069024373
:102F9000A0690243E0690243206A02430A602046B6
:102FA00000F039F9A068B0F5804F04BF00216160DE
:102FB000696A207900F014F838B1052805D2204656
:102FC00000F043F900F012F803E000202863686382
:102FD000A8630020A861012068700020287032BD1D
:102FE0000860A96AE86A486060687047296B002039
:102FF0000860696BA86B486070470AD2DFF86C0202
:1030000042181423B2FBF3F292002A62DFF8600246
:1030100009E0DFF8600242181423B2FBF3F29200D9
:103020002A62DFF85402E8617047F8B5044604F1FB
:10303000240600253078012801D10220F2BD0127A5
:103040003770707801282FD102277770B56120681A
:1030500007687F087F000760204600F0C0F82168FD
:10306000F06820B10A6842F00E020A6008E00868C1
:1030700020F0040008602068016841F00A01016046
:10308000706A0168CA0303D5026842F48072026064
:10309000306B18B1016841F48071016020680268EA
:1030A00042F00102026001E0357002252846F2BDBF
:1030B00038B500F1240200245178022903D00420FD
:1030C0009061012428E001680B6823F00E030B6077
:1030D00001680D686D086D000D60516A0B6823F47E
:1030E00080730B60012192F82030D56903F01C0336
:1030F00099406960936AD16A5960116B31B10B686C
:1031000023F480730B60536B916B596001215170F4
:103110001470516901B18847204632BDF8B500F1FD
:1031200024010423CA6914680268156891F82060B4
:1031300006F01C0603FA06F73C4210D06F070ED5C6
:103140001468A50603D4156825F00405156000F081
:103150003DF8C968002938D0BDE8F440084702238B
:1031600003FA06F73C4213D0AF0711D51468A50641
:1031700005D4156825F00A05156001224A7000F093
:1031800025F800220A708968F9B1BDE8F4400847C3
:10319000082303FA06F6344217D02B0715D5136817
:1031A00023F00E031360012291F82030CC6903F064
:1031B0001C039A40626001228A614A7000220A70F0
:1031C000096911B1BDE8F4400847F1BD91F820202C
:1031D000CC6902F01C02934063607047000078B530
:1031E000C56C046D6C60446D14B1846DC56D656013
:1031F000012590F84440066C04F01C04A54075605D
:10320000046863608068102802D1A260E16071BD2B
:10321000A160E26071BD416C0268134B89089A425B
:1032200034BF164B164B03EB8101816402F0FF02A1
:10323000083A1421B2FBF1F1124AC26401F01C01F8
:10324000012202FA01F10165704701790E4A02EB91
:1032500081024265491E0D4A826501F00301012287
:103260008A40C2657047000008040240F8FFFDBFB5
:1032700000000240F8FBFDBF0004024000080240CD
:103280001C08024080080240FC080240400902403D
:103290007047000010B500F17C010A78012A01D1C5
:1032A000022010BD01230B7024224A6002681368BB
:1032B00014686408640014600022426623F000531E
:1032C00000680360202048600020087010BD70B5C1
:1032D00000F01EF801D1022070BD00F01FF822F0AE
:1032E000604209E070B500F013F801D1022070BD12
:1032F00000F014F822F0606211438160204600F073
:103300001AF820680660202068600020287070BDD0
:10331000044604F17C0528780128704701222A70B0
:103320002420686020680668026852085200026023
:10333000206882687047FFB50FF254020FF25806FA
:10334000D2E9003402A9C1E90034D6E90071CDE91F
:103350000071416E11B90121012213E001688A68F0
:103360008968520E02F00702490F02AC655CA45C4A
:103370001DF801101DF80220ED00E40095FBF1F1AD
:1033800094FBF2F2683041800280FFBD0000000033
:103390000101010307010000080402040801010102
:1033A0007047000063601D481D4B704723601D4837
:1033B0001D4B704770B51C46002300251B4E10B1F5
:1033C000022804D00AE03460FFF7F1FF02E07460E5
:1033D000FFF7E9FF0360FEF7ADFD0346012B05D0C3
:1033E00007D3032B04D038BF022502E0012500E0FB
:1033F0000325284670BD82B00068094A0B499042F7
:1034000006D0094A904207D1086828B102B00047A7
:10341000486808B102B0004702B070473C13002072
:1034200000800040C81300200038014060170020D1
:10343000704770474FF0B040006800F0F000B028CF
:1034400088BFB02070472DE9F041040051D02078AA
:1034500081064FF0B04535D5A868E96810F00C003A
:1034600001F0030103D00C2808BF012943D12868CB
:10347000800702D5E06900283BD0FFF7DBFF616AD7
:10348000884207D2084600F0D8FB002831D100F06E
:103490007AFA0FE0286820F0F0000143296069689B
:1034A000206A21F47F4141EA00216960606A00F0EE
:1034B000C4FBF0B900F084FFDFF81808006801F0E1
:1034C0000DF8B0B92078C1070DD5A868E96800F0FB
:1034D0000C00082801F0030103D00C2808BF0329C1
:1034E0002CD12868800340F141816068002840F0B9
:1034F0003D81012040E2E06980B1296841F001018D
:1035000000F02EFB06462868800700F12C8100F0B1
:1035100011FC801B0328F6D303202DE22868400805
:10352000400000F03EFA0646286800F028FAC9D0AC
:1035300000F000FC801B0328F6D3EDE76068B0F5CF
:10354000803F06D0B0F5A02F296807D141F4802133
:103550002960286840F48030286006E021F480313A
:1035600029602A6822F480222A60606860B100F035
:10357000E1FB06462868800300F1F88000F0DAFBE2
:10358000801B6528F6D3C7E700F0D4FB0646286801
:10359000400C10F0010000F0E98000F0CBFB801B34
:1035A0006528F4D3B8E700F0C5FBC01B0328C0F0C2
:1035B0001181B1E7E06878B1296841F4807100F0C9
:1035C000CFFA06462868400500F1178100F0B2FBEB
:1035D000801B0328F6D39FE7286820F4807000F052
:1035E000E0F906462868800A10F0010000F0DC804F
:1035F00000F0A0FB801B0328F4D38DE700F09AFBBA
:10360000C01B0328C0F00B8186E740F0010000F0EA
:10361000CEF907467068800700F11C8100F08AFB34
:10362000C01B0328F6D377E7706820F0040000F091
:10363000BEF907467068C00810F0010000F019815B
:1036400000F078FBC01B0428F4D365E70528306838
:1036500006D140F004003060316841F0010105E01E
:10366000400840003060316821F004013160A068FA
:1036700041F2893768B100F05DFB80463068800711
:1036800000F10C8100F056FBA0EB0800B842F5D326
:1036900042E700F04FFB8046306800F070F900F020
:1036A000FD8000F047FBA0EB0800B842F4D333E7FD
:1036B00000F040FBC01B0328C0F0FE802CE7B06880
:1036C00040084000B06000F035FB0746B06800F0ED
:1036D00056F900F0F58000F02DFBC01B0328F5D350
:1036E0001AE700F027FB801B0328C0F01F8113E7B7
:1036F00000F020FB001B0328C0F039810CE728688C
:1037000081010CD4296841F080712960E86840F09B
:103710008050E86000F00EFB04462868810100F14B
:103720002A8100F007FB001B0328F6D3F4E60C29DE
:1037300031D0286820F080702860E968DFF89805AB
:1037400089088900E960E9680140E96000F0F2FA5F
:1037500004462868810140F10E8100F0EBFA001B5D
:103760000328F6D3D8E600F00EF9ABE620788107FF
:103770001AD5A868E96800F00C00042801F00301DC
:1037800004D00C2808BF02297FF414AF2868400534
:1037900003D5E06800283FF4ACAE6968206921F0E9
:1037A000FE4141EA006169602168DFF8306511F08F
:1037B000180F38D0606900283FF436AFC90670682A
:1037C0007FF523AF800709D4706840F0010000F056
:1037D000EEF80746706880077FF5E5AE706840F048
:1037E000040000F0E4F80746706800070DD400F00C
:1037F000A1FAC01B0428F7D38EE66868216920F07F
:10380000FE4040EA01606860CEE77068A16920F47C
:10381000706040EA0120706000F0C6F8074600F0D2
:10382000ADF87FF4EBAE2078410737D5DFF8B07400
:103830003868C10529D400F06FFD00F07BFA80469E
:103840003868C10521D400F075FAA0EB0800032800
:10385000F6D361E6706820F0040070607068C008FC
:1038600010F00100DFD000F065FAC01B0428F5D38A
:1038700052E600F099F8074600F080F8D3D000F047
:1038800059FAC01B0328F7D346E6A06801287FF445
:10389000DDAE306840F001003060E8E6217848068F
:1038A0000ED5A06A00283FF40AAFB16841F00101CB
:1038B000B16000F03FFA0746B06880077FF5F8AEC8
:1038C000E06A002857D0A968EA68022801F00C01D4
:1038D0007FF42DAF236B02F00300984202BF02F089
:1038E0007000636B984214D1A36BC2F30620984218
:1038F00002BF02F47810E36B98420AD1236C02F005
:103900006060984202BF02F06042606C82423FF405
:10391000F6AE0C293FF4EDAD286841013FF5E9AD65
:10392000296821F0807100F01BF9064628688101A2
:103930003FF5D7AEE968DFF8AC03A26B0140206B1E
:103940000143606B0143E06B41EA02210143206CBB
:103950000143606C0143E960286840F08070286092
:10396000E96841F08051E96000F0E4F90446286814
:1039700081017FF5BDAE0020BDE8F0817068400890
:1039800010F0010070472968606A21F0F0010143DE
:1039900029606868216A20F47F4040EA012068605D
:1039A0007047286000F0C6B9706840084000706039
:1039B00000F0C0B92DE9F8430400884644D0DFF890
:1039C000286300F0C8F847D200F0CDF8074600F0B1
:1039D000C2F841D000F0AEF9C01B0228F7D903208D
:1039E000B7E000F0A7F9401B022843D9F7E700F041
:1039F000A1F9A0EB090002284CD9F0E700F09AF9F0
:103A0000A0EB0900022854D9E9E700F093F9401B24
:103A100002285DD9E3E700F08DF9401B022867D941
:103A2000DDE700F087F9401B484577D3D7E7032847
:103A300002D13968890103E00028396802D1890779
:103A400062D401E049055FD4012082E000F072F900
:103A5000C01B022872D9C2E7207881074FF0B04717
:103A60000BD5B968A06821F0F0010143B96000F0FE
:103A700061F90546B868C003B3D52078DFF8505225
:103A800081060AD52968606921F0F001014300F040
:103A900067F8814628688003A9D5207841060BD5B0
:103AA0002968A0690909090141EA101100F058F8D4
:103AB00081462868C003A1D5207841070BD5B96895
:103AC000E06821F4E0610143B96000F033F9054694
:103AD000B868800399D5207801070CD5B8682169AA
:103AE00020F4605040EAC100B86000F023F90546B8
:103AF000B86840038FD52078C10717D560680228C1
:103B000095D1396889039FD5B968890840EA810051
:103B1000B86041F2893900F00DF90546B86861686E
:103B200000F00C00B0EB810F7FF47BAF306800F049
:103B30000700804505D200F016F8074600F00BF8A4
:103B400084D100F03DFC00F0FFFCBDE8F24300F042
:103B5000C5BCBDE8F283306800F0070040457047FF
:103B6000296000F0E7B83168C90848EAC10131604E
:103B700000F0E0B838B54FF0B0445D4DA16811F0E9
:103B80000C0106D1FFF756FCC0F3031055F82000D6
:103B900032BD0429574A05D00829574804D1216865
:103BA000C90222D5104632BDE16801F003010229A5
:103BB00004D0032904D12168C90207D5104605E0C5
:103BC000FFF738FCC0F3031055F82000E168E26805
:103BD000E368C1F306214843C2F30211491C5B0F9D
:103BE000B0FBF1F05B1CB0FBF3F032BD80B5FFF72A
:103BF000C1FF3E49FFE7414A0968C1F3031152F88A
:103C00002110B0FBF1F002BD80B5FFF7EFFF00F02F
:103C100010F8C1F3022106E080B5FFF7E7FF00F0DE
:103C200008F8C1F3C22112F8211001F01F01C840A9
:103C300002BD2E49324A0968704770B52C49B12837
:103C40002EBFCC6AC0F3031051F82040204805680D
:103C500000F094FC29492B4A05F00F0551F8251076
:103C6000B4FBF1F10024B1FBF2F1B0F5007F0FF2EB
:103C7000B402204609D10FF2900353F820508D4230
:103C800014D2401C0328F8D912E00FF28C0353F829
:103C900020508D420AD2401C0328F8D308E000F0DF
:103CA00049F8801B03280BD3032070BD52F8204035
:103CB0000D4D2868C00844EAC000FFF772FE0646B2
:103CC000296801F00701A142E9D1002070BD000080
:103CD000080100587C100020FFFFFEEE9000005805
:103CE000000400588C80C1110040005808000058A2
:103CF0009C4400080024F4000048E8015C440008EB
:103D00004083000840420F00120000002400000021
:103D10003600000040000000060000000C0000001B
:103D20001000000000000000010000000200000080
:103D30000300000001480068704700BF78100020B1
:103D400070470000002200F021BC0000974900E00D
:103D5000974981B00A6802430A60096808400090E8
:103D6000009801B0704710B500F0DAFB914C606824
:103D700040010ED56068C0000BD400F0CDFA00F011
:103D8000CBFA206840F480302060216821F4803133
:103D9000216000F0D0F8002000F012FC40B18079E2
:103DA0008549E160E16821F47C5141EA0021E1604C
:103DB00000F047F88148824C0168002202600269E5
:103DC00002F0500202610420FFF7C2FF0120FFF75A
:103DD000BFFF0220FFF7BCFF0420FFF7B7FF012061
:103DE000FFF7B4FF0220FFF7B1FF00220F210E20E2
:103DF00000F03AF90E2000F054F900220F213A2089
:103E000000F032F93A2000F04CF900216D48416091
:103E10000F218160046047F6FF71C16000F0E2FB92
:103E2000CA206062FF2153206062A068C008C00001
:103E3000A060616200F07AFC4FF0FF3000F0F4FC0B
:103E4000FAE710B5AEB01CA84821FFF77BFF01A828
:103E50001C21FFF777FF08A85021FFF773FF00F040
:103E60005BFA5448016821F01801016007215648A7
:103E7000026822F4C06242F4007202604FF48032A1
:103E8000006800F4C06000904FF4807400981C91AA
:103E900001201E900021402020901D9227911F9408
:103EA0001CA8FFF7D0FA6F20019002210020029198
:103EB00003900490059006900790012101A8FFF758
:103EC00079FD43F60300089000214FF480401990DB
:103ED0000E910F91102002211B901A91189408A89E
:103EE00000F094FD2EB010BD10B5384C384800F0ED
:103EF00015F820626062A0626066FFE72046FDF769
:103F0000D9FF00212046FFF7E2F900212046FFF704
:103F1000E9F92046BDE81040FFF7BCB920604FF436
:103F2000E13060600020A060E06020610C206061F2
:103F30000020A0617047274881B0016841F48011DA
:103F400001603F21006800F4801000900098224832
:103F500041604161016841F47C110160026942F4F1
:103F60007C120261016841F03F010160026942F088
:103F70003F02026101B0704738B50446FFF7DAFE30
:103F800014F1010F054609D000F0E1FA041905E02B
:103F90001248016821F00401016030BFFFF7CAFE3A
:103FA000401BA042F4D331BD00000000480000587F
:103FB0004C00005890000058FECAFECA8008005805
:103FC00000280040E0160020000400583C130020A8
:103FD0000080004050000058040C005810ED00E034
:103FE0007047000018B500F12402507801281BD159
:103FF0001378012B01D1022012BD536A10701C6886
:104000000A48044008680443C868401E44EAC044A3
:1040100048680443087A497A44EA004444EA41245F
:104020001C600020107012BD012012BDFFFD00E0D9
:104030000901020081B002D43C48815405E03C48AB
:1040400002F00F02104400F8041C01B07047394A16
:1040500013684FF6FF0100020B4000F4E0601843C4
:10406000354908431060704738B5324B1C68C4F3BB
:104070000223C3F10704052C28BF04241D1D072DAE
:1040800034BF0023DB1E012505FA04F4641E214021
:10409000994005FA03F35B1E1A401143BDE8344012
:1040A000C6E7010007D4012200F01F01234B8A401C
:1040B000400943F82020704701000BD4012200F092
:1040C0001F011F4B8A40400943F82020BFF34F8F48
:1040D000BFF36F8F704710B5401EB0F1807F01D3E2
:1040E000012010BD174C60600F214FF0FF30FFF72B
:1040F0009FFF0022A26007202060002010BD010069
:1041000007D4012200F01F010F4B8A40400943F8F9
:1041100020207047010007D4012200F01F010B4B43
:104120008A40400943F820207047000000E400E086
:1041300018ED00E00CED00E00000FA0500E100E001
:1041400080E100E010E000E000E200E080E200E05A
:104150002DE9F84F4FF0000C674A684BDFF8A0815B
:104160004FF00F0982460F4633E0664DAA4514BF53
:10417000072504258D40254348F82E50C1431C686F
:1041800001EA040E7C68E50348BF40EA0E0EC3F85E
:1041900000E05C6801EA040E7C68A50348BF40EAC1
:1041A0000E0EC3F804E0146801EA040E7C68E50210
:1041B00048BF40EA0E0EC2F800E0546801EA040E5F
:1041C00079688C0248BF40EA0E0EC2F804E00CF198
:1041D000010C396831FA0CF000F07C80012000FA03
:1041E0000CFE1EEA0100F2D07C68022C18BF122CD3
:1041F0004FEA8C0110D14FEADC040AEB840401F091
:104200001C05266A09FA05FB26EA0B06D7F810B04A
:104210000BFA05F5354325624FEA4C040325DAF81D
:10422000006097F804B0A540ED430BF0030B2E405F
:104230000BFA04FB4BEA0606CAF800607E68012E02
:1042400018BF022E03D0112E18BF122E17D1DAF884
:104250000860D7F80CB02E400BFA04FB4BEA0606B8
:10426000CAF80860DAF8046026EA0E0E7E68C6F323
:10427000001606FA0CF646EA0E06CAF80460DAF8EA
:104280000C603540BE6806FA04F42C43CAF80C40B2
:104290007C68E4009BD54FEA9C0E58F82E5001F044
:1042A0000C0109FA01F425EA0404BAF1904F08BFA1
:1042B00000250ED0144DAA4508BF012509D0134D85
:1042C000AA4508BF022504D0114DAA457FF44DAF81
:1042D00003254FE7BDE8F18F81B0002A14BF81614B
:1042E000816201B070470B4A136803421CBF106023
:1042F00000F08CBA70470000000800588008005891
:104300000800014000100048000400480008004870
:10431000000C00480C0800580248016841F4807104
:1043200001607047000400588A60FF2102685162F2
:10433000012180F82110002180F820100020704712
:1043400090F82010012901D102207047012280F845
:104350002020022180F82110CA21026851625321D5
:104360000368596201688A6842F02002FFF7DCBFE7
:104370003249002008604FF4E0223148016841F4DE
:10438000700101604FF0B041086840F00100086022
:104390008A602C480A6802402B480A60036823F0B0
:1043A0000503036042685208520042600022274819
:1043B000C8600861086820F4802008608A6170473E
:1043C0004FF0B0410FF2D4000A68C2F3031250F864
:1043D00022008A6802F00C02042A04D0082A04D0C1
:1043E0000C2A04D01CE01A481AE01A4818E0CA68DF
:1043F000CB68C3F3021302F003025B1C022A08BF5E
:10440000134802D0032A08BF1248B0FBF3F2C86871
:10441000CB68C0F306205B0F42435B1CB2FBF3F09A
:104420000D4A0FF23803106088681168C0F303105A
:1044300053F82000B1FBF0F01060704708ED00E089
:1044400088ED00E0FBFEF6FA94000058001004220C
:104450000024F4000048E8019C1000200100000046
:104460000300000005000000010000000100000042
:10447000060000000A00000020000000020000000A
:1044800004000000080000001000000040000000D0
:10449000800000000001000000020000A086010072
:1044A000400D0300801A060000350C0040420F004A
:1044B00080841E0000093D0000127A000024F400F0
:1044C00000366E010048E801006CDC0200000000CC
:1044D00000000000000000000000000070B50F4E5A
:1044E0000446B0680025A8B1FFF780FBB2684FF41E
:1044F0007A71B1FBF2F1B0FBF1F0FFF7ECFD48B9D6
:10450000102C07D2002221464FF0FF30FFF7ACFD00
:10451000746000E00125284670BD00BF78100020BF
:10452000134810B5016841F4807101600320FFF762
:104530008EFD0020FFF7D2FF0024002814BF0124C5
:10454000FEF720FC204610BD0A4840687047094825
:1045500080687047084805E00748016841F002019B
:1045600001607047016841F001010160704700007F
:104570000040005878100020042004E0DFF8080014
:10458000006800F4C06070470004005800B500BF28
:10459000130096469446103928BFA0E80C50FAD86C
:1045A0005FEA417C28BF0CC048BF40F8042BC90714
:1045B00028BF20F8022B48BF00F8012B00BD0000E7
:1045C00001460648064AC3798B4218BF904218BF7D
:1045D0000838F8D18B4218BF00207047F873FF1FCE
:1045E0000070FF1F38B5040044D094F8210028B9AA
:1045F000002184F820102046FEF774FC00F049F8F2
:10460000FF2510B100F03FF834E02168DFF8B0007A
:104610008A6802408A6021688A6863682069034367
:10462000A06903431A438A602168E0680861206832
:104630000169A26841EA024101612068C16821F074
:104640008001C1602068C16C89088900C16421684B
:10465000CA6CE369606903431A43CA6420688168CD
:10466000880609D400F020F830B1206845620421A2
:1046700000F01FF8012032BD20684562012184F856
:104680002110002032BD20684562042184F82110E9
:104690007047022084F82100CA2021684862532014
:1046A00022685062204626E020460BE02068C0F8D1
:1046B000248084F82110002084F820007047000036
:1046C000BFFF8FFF70B5044640F2E9362068C1682D
:1046D00021F0A001C160FFF72DFB05462068C168ED
:1046E000880606D4FFF726FB401BB042F6D3032012
:1046F00070BD002070BD70B504462068C1684A06D0
:1047000012D44FF0FF32C26040F2E936FFF712FBDD
:1047100005462068C168480606D4FFF70BFB401B1E
:10472000B042F6D3032070BD002070BD10B52548FF
:10473000254C88B0016841F40041016000F0E4FAC2
:104740002249002000F071FC00F0BBFD0121012096
:1047500000F0DFFA002000F0ECFE012000F0E9FE9E
:10476000022000F0E6FE012000F00BFF01210020F6
:1047700000F01BFF0121012000F017FF00F06CFF8B
:10478000134A0021102000F0B2F804F23C500FF25E
:1047900045010090019169460FF23D0001F04AF891
:1047A00004F25470029004F5C96140F23C50059047
:1047B0000391049402A800F0D5FF00F04BFF08B06D
:1047C00010BD0000080000582C000320E016002057
:1047D000775800087047000080B500F081FD01F0B7
:1047E000CDF8BDE804400021012000F092BA7047E6
:1047F0004FF0FF3000F018B80021102000F084B80E
:10480000022000F0A3B8022000F0A8B8012805D0CB
:10481000022805D0102805D101F0F2B901F0F2B953
:1048200001F0F4B9704700002DE9FC47594CDFF85E
:104830006891A5692840A0614FF0010A4FF0FF3848
:1048400030E0491C54F831000642FAD004EBC107AD
:10485000184079681040014208BFC7F804807E689C
:10486000304000F09BF860620AFA00F086437E60F8
:10487000EFF3108172B6626A20690AFA02F2D2433B
:1048800010402061022004EBC00353F8086C16406E
:10489000401E43F8086CF6D181F31088606A59F81D
:1048A0002010884763692069A2691840104207D028
:1048B000E069216A084203D1002103EA0206C1E748
:1048C00001F030FEEFF3108972B621696069014092
:1048D000A069014201BFE169206A0142FFF787FF39
:1048E00089F3108801F01FFEA561BDE8F38738B594
:1048F0001446EFF3108572B600F050F8264941F8DF
:10490000204085F3108831BD10B5EFF3108272B6E8
:10491000204B1C6904431C6153F83140204343F889
:10492000310082F3108810BDEFF3108172B6194A7E
:10493000536923EA000005E0EFF3108172B6154ACF
:1049400053691843506181F310887047EFF3108169
:1049500072B6104AD3691843D061F4E72DE9F041EB
:104960000C4C626A266A2062012101FA02F803E017
:1049700039464046FFF73CFF276AE5693D42F7D0DC
:10498000404600F00BF825EA0707E76126626062FF
:10499000BDE8F08150100020541400200246002091
:1049A000110C090404BF1020120412F07F4F04BF41
:1049B000083012020FF2180112F0704F04BF001DF0
:1049C0001201120FC0F11F00895C401A70470000ED
:1049D00004030202010101010000000000000000C8
:1049E000DFF820130A68030903F47F2300019A43C8
:1049F00000F47F2000F082B9DFF808231368010C6F
:104A000023EA014343EA0043136070472DE9F8436A
:104A1000054600242878DFF8EC624106A0464FF0F6
:104A2000B0472DD5286B70B1B0F5800F06D0B0F52A
:104A3000000F18BFB0F5400F17D01FE0F86840F422
:104A40008030F860EDE0386820F080603860FFF773
:104A500071F981463868000140F1D080FFF76AF9AA
:104A6000A0EB09000228F5D90324D7E0FFF762F98B
:104A7000A0EB0900022840F2C980F5E70124A04616
:104A80002868010531D5B06800F44078286C80456D
:104A90002AD0FFF741FCB8F1000FB16805D1286CAE
:104AA00021F440710143B1601EE0B06840F48030F1
:104AB000B06021F44071B06820F48030B060286CA0
:104AC0000143B160B068C0070ED5FFF733F98046E7
:104AD00041F28939B068800706D4FFF72BF9A0EBC3
:104AE00008004845F6D30324A0462878C10705D519
:104AF0003168A869890840EA810131602878810716
:104B000005D53168E86921F44061014331602878B6
:104B1000C10644BFA86AFFF76FFF2878810644BF2B
:104B2000E86AFFF769FF2878410744BF286AFFF762
:104B300057FF2878010744BF686AFFF751FF2868CC
:104B4000C1051BD53168686B21F0406101433160BC
:104B5000686BB0F1006F00F0BDF8686BB0F1806F6A
:104B600075D100F0BDF804463868000160D5FFF744
:104B7000E1F8001B0228F7D94FF0030867E0FFF7C0
:104B8000D9F8001B02285BD9F6E7316821F04041D3
:104B9000316020F08050326822F040621043306073
:104BA000A86BB0F1C05F00F095F8286841056DD59D
:104BB0003168E86B21F0405101433160E86BB0F19E
:104BC000005F03D1F96841F48031F960E86BB0F11E
:104BD000805F5BD100F084F804463868000146D558
:104BE000FFF7A8F8001B0228F7D94FF003084DE0A3
:104BF000FFF7A0F8001B022841D9F6E700F061F8A2
:104C0000A86821F4781100F071F881463868000135
:104C10007FF52CAF3969686901433961002C7FF455
:104C20002EAF3168286B21F440010143316027E742
:104C300000F047F8E86821F0606100F057F804469A
:104C4000386800019BD53969686901433961286872
:104C50008105AAD5A86BB0F1804F1CBFB0F1004F01
:104C6000002892D1316821F04041084397E700F0D5
:104C700028F8286921F0604100F038F804463868C7
:104C80000001B5D539696869014339612868C104F3
:104C900005D5F168686C21F440410143F160286852
:104CA00081040BD5796AE86C21F030010143796207
:104CB000796AA86C890840EA810179624046BDE8BA
:104CC000F2833869696820F4FE4040EA01203861C7
:104CD0003969704703D1F96841F08071F960704714
:104CE000396821F080613960FFF724B801433961E8
:104CF000386840F080603860FFF71CB810430860E7
:104D000070470000880000580C4800210160416095
:104D1000704710B500F00CF85C6819B1012904D196
:104D2000204301E024EA0000586082F3108810BD9F
:104D3000EFF3108272B6014B704700006817002035
:104D4000DFF83C150A6892B200E00246086880B2BB
:104D50008242FAD170472DE9FC4104461825DFF85C
:104D60002485DFF82465684308EB000730780628BF
:104D700008D131787170347078754FF0FF30706001
:104D8000002039E000F077F8B9680918B96008F137
:104D90000803B96832786A439A589142327813D33B
:104DA00008F1150315FB02FC13F80C30062B25D077
:104DB00008F108066B43F358994222BF08F1150326
:104DC0006A439A5CEED219E01146337869439A42FD
:104DD0000BD008F1140308F1150C5B5C15FB03F50F
:104DE0000CF805407A753B7500E07A7508F11402FD
:104DF0005454317871703470BDE8F68111466943BE
:104E000008F115035B5C062B04D008F1140615FBB2
:104E100003F574557B753A7508F115025454EBE7A8
:104E2000F8B5DFF86434DFF85C541E7818240246C5
:104E30006243B0422A4404D118785870507D1870EB
:104E40000FE0167D507D92F815C005F115076643F9
:104E5000062807F806C004D0167D143514FB00F4AC
:104E60002E55012010731878062802BF00294FF034
:104E7000FF315960F1BD10B5DFF80C44606810F1E6
:104E8000010F0FD0FFF75CFF6168DFF8002481425B
:104E900061683CBF5388C918081A51784843117893
:104EA000C84000E0002080B210BD2DE9F84FDFF8C7
:104EB000DC53DFF8DCB3D5F80880D8F80000DBF865
:104EC00000104A0500F090F9DFF8BC63DFF8B4A3E6
:104ED00021F4806181604FF0180934780AF10800EC
:104EE00019FB04F14758FFF7C6FF874217D2002786
:104EF0000121B170062C3DD019FB04F40AF1080120
:104F00000AF108020959814223BF0AF1080109592F
:104F1000091A002111510AEB04014C7DEAE7A98826
:104F20004118B94202D2AF880021E2E73F1ADFE719
:104F3000022802DA2878012800D07F1ED8F8000065
:104F4000C1684A07FAD500F055F9DBF80C00000CEF
:104F5000BFB247EA0047CBF80C70FFF7F1FE706074
:104F6000A8680068816841F480618160AFF30080C7
:104F7000BDE8F18FB8B20028DAD1FFF7E1FE70602A
:104F80000320BDE8F24FFFF7BAB82DE9F843EFF37D
:104F9000108872B6BD4DBB4BA8680168CA224A6230
:104FA00053204862B84A886820F4806088601820DE
:104FB0001678374647431F44387B022826D13C6881
:104FC000D7F810909078F0B17A7B012A0AD10121AC
:104FD0003046FFF725FF88F310887968304600F0E7
:104FE00016F904E088F31088304600F0C1F8A8688C
:104FF0000068CA2141622246532141624846314637
:1050000000F050F90BE0FFF750FF06E0C8684207D8
:10501000FCD500F07EF89F49086088F31088FF21D6
:10502000A86802685162BDE8F183F8B5974CA160A9
:10503000CA2209684A6253224A62954A136843F0B9
:1050400020031360136803F00703C3F10403237004
:1050500095682D0C05F07F056D1C6570EDB29268AA
:10506000C2F30E02521C628092B2521E6A43A2F533
:10507000A072DA404FF6FF739A422CBFA380A28041
:10508000854A136843F400231360844B1D6845F47C
:1050900000251D6048BB7C487A4E0123837018258B
:1050A0004FF0FF33436000235FFA83FC06F10C07E7
:1050B00015FB0CFC4FF0000E07F80CE05B1CDFB298
:1050C000062FF1DB06230370886820F48060886077
:1050D00000F01FF8D0600320FFF71CF8A1680868F3
:1050E000826842F48042826005E0C868410544BF9E
:1050F0000320FFF704F8A1680A68FF20506200222D
:1051000003210320FEF7B0FFBDE8F2400320FEF7C5
:10511000C8BFC86800F0800060F49060C8604FF4B9
:1051200000207047F0B504460025EFF3108672B6F4
:105130001827DFF850C10CF10C0007FB05FE10F832
:105140000E0010B16D1C062DF5DB062D0CD06F4343
:105150000CEB07000127077386F310880461427384
:1051600003600D700020F0BD86F310880120F0BDB3
:10517000F8B50746EFF3108472B60320FEF79CFFE4
:10518000424DAE683068CA2141623A4653214162BD
:10519000182043494243895C02291BD1002138462B
:1051A000FFF73EFE3848017806290ED130683849AD
:1051B0000A68530500F018F821F480618160C16825
:1051C0004A07FCD500F016F804E04078884218BF82
:1051D000FFF76BFEA9680A68FF2050620320FEF704
:1051E00060FF84F31088F1BD02D5C1684A07FCD482
:1051F00081687047C16801F0800161F49061C1600D
:105200004FF40020234908600320FEF783BF2DE9F7
:10521000F04180460F46424618201A4942438C18F6
:10522000207B022804BF4046FFF7A2FFEFF3108562
:1052300072B60320FEF740FF144EB0680068CA2122
:1052400041625321416202202073A760676040469B
:10525000FFF781FD0C490A784978914202D0FFF7A7
:1052600024FE02E0A168081AA060FF20B1680A6865
:1052700050620320FEF715FF85F31088BDE8F0812A
:1052800028280040AC120020A0170020481700205A
:10529000082800400C0800580008005880080058F2
:1052A000B812002010470000484900E0484981B08A
:1052B0000A6802430A60096808400090009801B03B
:1052C000704780B5FFF746F9FFF746F94148016896
:1052D00041F48031016001F042F9BDE801400EE087
:1052E00000B587B068460FF218211C22FCF704F8BD
:1052F00000F06FFA684601F07FF907B000BDF0B525
:1053000085B068461421FEF71DFD00260025002407
:1053100000210FF2DC0000EBC102907988B1136824
:10532000B3F1904F08D02C4FBB4208D02B4FBB425B
:1053300004BF9088044304E09088064301E090880D
:105340000543491C2229E4DB0020029001210320AF
:1053500003900191B0B288B100900120FFF7A4FF43
:105360000120FFF7A3FF69464FF09040FEF7F0FEE3
:105370000022B1B24FF09040FEF7AEFFA8B280B16C
:1053800000900220FFF790FF0220FFF78FFF124EE0
:1053900069463046FEF7DCFE0022A9B23046FEF731
:1053A0009BFFA0B280B100900420FFF77DFF042096
:1053B000FFF77CFF094D69462846FEF7C9FE00222B
:1053C000A1B22846FEF788FF05B0F0BD4C0000589A
:1053D0004C0100589008005800040048000800489C
:1053E000FEF782BD13460A4601460020FDF7E2BFE4
:1053F000000000480100000000000048010000001B
:10540000000000480100000000000048010000000A
:1054100000000048010000000000004801000000FA
:1054200000000048010000000000004801000000EA
:1054300000000048010000000000004801000000DA
:1054400000000048010000000000004801000000CA
:1054500000000048010000000000004801000000BA
:1054600000000048010000000000004801000000AA
:10547000000000480100000000000048010000009A
:10548000000000480100000000000048010000008A
:10549000000000480100000000000048010000007A
:1054A000000000480100000000000048010000006A
:1054B000000000480100000000000048010000005A
:1054C000000000480100000000000048010000004A
:1054D000000000480100000000000048010000003A
:1054E000000000480100000000000048010000002A
:1054F000000000480100000000000048010000001A
:10550000000000000000000000000000F053000850
:10551000240003202800032022040400444981B011
:105520000A6802430A60096808400090009801B0C8
:10553000704778B585B0044668461421FEF702FC32
:105540000220FFF7EBFF00F010F80095012001901A
:105550000021022003900291694656F82400FEF7CC
:10556000F7FD00F008F806B070BD0FF2D400314E20
:1055700030F81450704756F8240000222946FEF7F0
:10558000ABBE0FF2BC012B4B31F8101053F82000CA
:105590000122FEF7A1BE0FF2A801264B31F8101030
:1055A00053F820000022FEF797BEF0B585B00546FF
:1055B0000C4668461421FEF7C5FB0DB9042004E033
:1055C000012D18BF022D02D10820FFF7A7FF2000F0
:1055D000194E0FF274070DD137F815000090002115
:1055E0000191012002900221039100F01BF801209B
:1055F000FEF7C2FC012C13D137F8150000900121F1
:105600000E480190029100F00DF80FF24400445D45
:1056100000220F2160B2FEF727FD60B2FEF741FDC8
:1056200005B0F0BD694656F82500FEF791BD0000B3
:105630004C00005884100020901000200000211021
:105640002000010002000000100001000200000024
:105650000A06070001F04CB86C486D49016001F181
:105660002002426001F13002826001F13C020262DC
:1056700001F14402C26001F14C02026101F16802D1
:10568000426101F16C0282617831C16101F042B87E
:1056900038B504465F4D05F1100001F0A3F85B49F1
:1056A0004868A1680160E168C160456005F11001CA
:1056B000816001F04BF858482DE080B553494A68A5
:1056C00013680120187201F047F8002002BD38B5B8
:1056D000514C504D07E0694605F1100001F0AEF85D
:1056E00000982168884705F1100001F07EF8002835
:1056F000F1D031BD48484168084738B50446474DA8
:10570000284601F06FF84148C068A1680160456013
:1057100001F027F84248216801606168416000207B
:1057200032BD80B53949CA6813681020187201F07B
:105730001EF8002002BD3549CA68394910680B6857
:10574000184738B5364C354D06E06946284601F015
:1057500075F8009861688847284601F046F80028E7
:10576000F3D031BD38B504462E4D284601F03AF845
:105770002D4801F037F825480069A1688160E1688B
:10578000C160056121680160616841602169416112
:105790006169816131BD80B50146234801F038F867
:1057A000BDE802400FF2050000F0F1BF38B5174C1C
:1057B0001D4D08E06946284601F040F8009920692F
:1057C000006901F025F8284601F00FF80028F1D013
:1057D00031BD10B5154C204601F004F80B48416965
:1057E0000C60BDE8104000F0E6BF1CB50F4C06E0B1
:1057F0006946204601F022F8009800F019F820468A
:1058000000F0F3FF0028F3D013BD000000000320D8
:10581000B80903208C08032078170020A40803206F
:10582000801700203C0A032070170020440A032040
:10583000704700007FB50C464D4D61684D4EE861E4
:105840002962284601F00CF82468746006F108000B
:1058500000F0C8FF012000F068F8012030702968CE
:1058600041B10FF2E9000FF2ED02009001920294B3
:10587000684688477FBD1FB53E4C04F1080000F024
:10588000B4FF00BB2178F1B1694604F1080000F0D3
:10589000D5FF3748C16949B10098029001228DF8BF
:1058A000042001A888479DF8040000E00120207032
:1058B000207818B10098FFF76EFF04E0009904F11A
:1058C000080000F09BFF04F1080000F08EFF28B9EB
:1058D000207818B104F10800FEF78EFF1FBD2DE9F6
:1058E000F04105460E4690461C46002000F01DF88B
:1058F000204F7868A0F80950C672324641460C30F5
:10590000FBF7EAFC1A4A136900210020984748F285
:10591000E800FEF778FF79688A78D21C04F1080065
:10592000FBF7DAFCBDE8F04101201CB51049124C30
:10593000096A20B901B188470020207013BD0120F9
:10594000207011B1BDE81C40084713BD0020FEF7D0
:1059500057BF000010B50146064C04F1080000F0E6
:1059600057FF04F10800BDE81040FEF745BF0000F6
:1059700004170020381700205D17002038B58EB0BE
:1059800002A80FF67031DFF860453022FBF7B4FC57
:105990000FF2A5500190009469460FF28550DFF890
:1059A0004C4500F067FF01210220FFF7B2F9DFF854
:1059B000402500210820FEF79AFF02A800F014FEFF
:1059C00000F025F901F03AF8002084F8900004F185
:1059D00026054FF6FF70288000210FF2514201206A
:1059E000FEF785FF0FF2914200210420FEF77FFFB2
:1059F000062001F0B5F8DFF8FC0400210170012158
:105A0000417001F042F90FF26143002204F191016B
:105A10000020FFF787FB0FF25943002204F19201A7
:105A20000020FFF77FFB002068808021DFF8C8049A
:105A30000180A0214180012000F08FF90FB030BD1E
:105A4000F8B50746DFF8A4447878DFF8A8540528AD
:105A500004F1900604D03E2812D0FF285FD0CDE09C
:105A6000B888E18C884206D10020E08430700FF2C3
:105A7000DC4001F015FA012000F06FF9012047E049
:105A8000F87801282BD0032802D00C2803D0B5E0E9
:105A90000FF2E040A8E00FF2085001F001FA387967
:105AA00000280CBF0FF214500FF2385001F0F8F933
:105AB000E08C6A460DF1010101F030FA60B90FF295
:105AC0004C5001F0EDF99DF800209DF801100FF207
:105AD000505001F0E5F991E00FF2605084E07078E9
