:020000040800F2
:10000000B8270020017F0008E17C0008E37C00089D
:10001000E57C0008E77C0008E97C0008000000009F
:10002000000000000000000000000000EB7C000861
:10003000ED7C000800000000EF7C0008F17C000867
:10004000237F0008277F00082B7F0008297D0008F8
:100050002F7F0008337F0008237D0008377F0008CA
:100060003B7F00083F7F00081D7D0008437F00089C
:10007000477F00084B7F0008F57C00084F7F000891
:10008000537F0008577F00085B7F00085F7F0008F0
:10009000637F0008677F00086B7F00086F7F0008A0
:1000A000737F0008777F00087B7F00087F7F000850
:1000B000837F0008877F00088B7F00088F7F000800
:1000C000937F0008977F00089B7F00089F7F0008B0
:1000D000FB7C0008017D0008A37F0008A77F0008C3
:1000E000AB7F0008AF7F0008B37F0008B77F000830
:1000F000317D00082D7D0008BB7F0008BF7F000810
:10010000C37F0008C77F0008CB7F0008CF7F0008AF
:10011000D37F0008D77F0008DB7F0008DF7F00085F
:10012000E37F0008E77F0008077D0008EB7F0008F9
:10013000EF7F0008F37F0008F77F00082DE9F84FF4
:100140000FF2D017A2B0D7E90045CDE900452C9EAB
:10015000DFF82C7C04918DF8436000210FF2BC1471
:100160000D9112944FF0FF368246904699460FE06B
:10017000C3462C461BF8011B0498D0470028049066
:1001800000F0B2800D98401C641E0D90F2D1A8447E
:1001900098F80000252807D10021079108910991BE
:1001A0000A910B910C910DE06A463146404600F0F1
:1001B000FDFF050001D10D98B4E0D9D50125E6E792
:1001C00041F0010118F8010F2028F9D023280CD0A4
:1001D0002B2804D02D2805D0302809D086E041F006
:1001E0000201EFE741F00401ECE741F00801E9E723
:1001F00041F01001E6E700200F900AE00F98B842A6
:1002000005DA00EB800302EB4302303A0F9208F16B
:10021000010898F80020A2F130000A28EED398F8DF
:1002200000002E2818BF0E9629D118F8010F2A2891
:100230000BD1D9F80000C9F8000008F1010850F806
:10024000042BC9F800000E9219E02D280CBF18F8F5
:10025000010B002000220E920BE040B90E9ABA4228
:1002600005DA02EB820403EB4403303B0E9308F102
:10027000010898F80030A3F130020A2AEDD3ADF856
:100280004010129898F8001000F09CFF08B118F880
:10029000010B8DF842009DF84200682804BF98F8D1
:1002A0000010682903D162208DF8420008E06C2814
:1002B00004BF98F800006C2804D171218DF8421019
:1002C00008F1010813A806904A4618F8013B02A954
:1002D000504600F067F838B913AA02A9504600F05A
:1002E000C9F900287FF554AF30461BE02A2882D197
:1002F000D9F80020C9F8002052F8040BC9F80020F2
:1003000000280F9003D540420F9041F0040108F1FE
:10031000010884E70000000000000000686A6C74B7
:100320007A4C000023B0BDE8F08F622820D0682806
:1003300011D06A2803D06C2827D0712825D10868ED
:10034000C01D20F007000860D0E9002308300860D5
:10035000194610467047002A0A680A60106803D0E0
:10036000121D0A6000B217E0121D0A6080B217E089
:10037000002A0A680A60106803D0121D0A6040B2A1
:100380000AE0121D0A60C0B20AE0002A0A680A6088
:10039000106803D0121D0A60C1177047121D0A6051
:1003A000002170477CB50D4611461C462E69B4F1FC
:1003B000250200F04D811C3A00F08680121F022AAF
:1003C00040F282800E3A00F00781521F5AD0093A5B
:1003D0007AD0921E16D0521E35D0521E022A73D9E0
:1003E000121F30D0521F00F09A80521E4AD0521E67
:1003F00000F0E480D21E00F0FD80921E42D0D21E9A
:1004000040D02BE195F83A206C2A09D06869421C4B
:100410006A610A680A6052F8043B0A60335427E1B3
:100420000A680A6052F8043B0A60002100930191B7
:100430004FF0FF322A6329466A4600F096F90028F9
:1004400040F1168101E195F83A000122FFF76DFFB6
:10045000C5E900010023994204DA6869411C696119
:100460002D210DE0288F810704D56869411C696141
:100470002B2105E0C00722D56869411C6961202154
:1004800031541CE095F83A000022FFF74EFFC5E911
:10049000000195F83800010711D5D5E900230020A7
:1004A000834208BF82420AD044F02000782806D157
:1004B000686930213154401C411C69613454214623
:1004C00068693044E86083E00868C01D20F00700D8
:1004D0000860D0E9002308300860C5E90023D5E9A9
:1004E0000001C80F04D06869411C69612D210DE02D
:1004F000288F810704D56869411C69612B2105E0BB
:10050000C00704D56869411C6961202131546869BC
:100510003044E8602146284600F032FAA8E005F1B0
:100520003A02507820B14FF0FF340FF6243070E0DB
:100530001078622808D0682824D06A2812D06C2845
:100540002ED071280ED02BE00A680A6052F8040BF6
:100550000A6020B94FF0FF340FF60C3059E0E96A19
:10056000017085E00A680A6052F8040B0A6020B93D
:100570004FF0FF340FF6F0204BE0EA6AD317C0E9E2
:10058000002375E00A680A6052F8040B0A6020B97B
:100590004FF0FF340FF6D0203BE0E96A018067E0BE
:1005A0000A680A6052F8040B0A6020B94FF0FF3461
:1005B0000FF6B4202DE0E96A016059E00A680A608C
:1005C00052F8040B0A600021C5E90001EE607821B1
:1005D000284600F029F94BE06C2285F83A200B6898
:1005E0000B6053F8042B0B6052BB4FF0FF340FF637
:1005F000AC200EE095F83A206C2AF0D0086808602C
:1006000050F8044B0860EC603CB94FF0FF340FF633
:10061000702000F0F1FD201A76BD2E6B002E04D55F
:10062000204600F00BFE044608E03246002120463A
:1006300000F020FE002814BF041B3446AC6117E014
:10064000294600F092F8002812D54FF0FF3076BD11
:100650006869411C69612521315409E06969481CB8
:10066000686125227254210002D0411C6961345412
:10067000002076BD2DE9F0410E460546716B70698C
:10068000B46A091A306A091AB069091A706A091A33
:10069000F069091A96F838000C1B410790460DD4F2
:1006A000002C0BDD2746B0682021A8470028B06049
:1006B00057D0F06A401C7F1EF062F4D17369424645
:1006C0003146284600F0ACFC00284AD1376A002F9A
:1006D0000ADDB0683021A8470028B06041D0F06A38
:1006E000401C7F1EF062F4D1B369F268314628469F
:1006F00000F096FCA8BB776A002F09DDB0683021B6
:10070000A847B06068B3F06A401C7F1EF062F5D164
:10071000F068B169F36942183146284600F080FC60
:10072000F8B9B76A002F09DDB0683021A847B0607A
:10073000B8B1F06A401C7F1EF062F5D196F838001F
:1007400041070BD5002C09DDB0682021A847B06017
:1007500038B1F06A401C641EF062F5D10020BDE89B
:10076000F0814FF0FF30BDE8F0812DE9F8470D46EC
:10077000A3B02F6B002F8146904648BF6FF0004713
:1007800000F0A4FD696B40180FF62C118128D1E907
:100790000023CDE9012328BF4FF0FF303ED20024D3
:1007A000002F2FDDD8F8001001AA684600F000FDE8
:1007B0000646002E35D4D8F8000008B9761E30D48D
:1007C000B7421FDB6869301881280AD300206863AC
:1007D00003AA29464846FFF74DFF040012D4002023
:1007E000686103A8D5F814A032466946504400F069
:1007F00073FDB244C5F814A058F8040B002818BFC4
:10080000BF1BCDD12CB903AA29464846FFF732FFBA
:10081000044614B9002068616863204624B0BDE82E
:10082000F0874FF0FF34F8E72DE9FC4707468A468A
:100830003E69BAF16F0F08BF082405D04AF02001C5
:10084000782914BF0A2410243C25D7E90023BAF1E3
:10085000640F18BFBAF1690F9046994606D100217E
:100860008B4203DAD8F1000869EB49090020814581
:1008700008BF80451FD1386BE8B9082C4CD197F8D8
:100880003800010748D530203B2586F83B0043E07F
:1008900000280ED597F8380000F01400102808D171
:1008A0007A6B7869121A386A121A511A0029C8BF6D
:1008B0003962BDE8F3878DF800A0404649462246DC
:1008C000E31700F05DFD3032D0B26D1E3A2801957D
:1008D00004DB9DF80000A0F151018A1872554046D2
:1008E00049462246E31700F04BFD8046894600202A
:1008F000814508BF804503D0F86871198842DCD370
:10090000082C09D197F83800010705D5715D302909
:1009100002D06D1E30207055C5F13C01B9617019CF
:10092000F860386B8142B3DA411A39624FF6EF70E2
:10093000398F01403987BDE8F3872DE9D04306465A
:100940000F4614464FF00008DFF8389412E0E00735
:1009500007D542464B463046394600F029FE06464A
:100960000F464046494642464B4600F021FE641081
:1009700080468946002CEAD130463946BDE8D0830E
:100980002DE9F34F054641F020048DB0D5E90089EB
:10099000612C02AE09D0286B002848BF062003D482
:1009A00008BF672C01D101202863D5E90023580036
:1009B0004015401C0ED119030CD00320A8619DF8EE
:1009C000380061381A2802D20FF2F46111E00FF2F8
:1009D000F4610EE058004015401C0FD119030DD1F1
:1009E0000320A8619DF8380061381A2814D30FF24B
:1009F000DC61E868032200F06FFCD3E1194621F0C6
:100A00000043B3F5801F10460DD20027BB4208BF3C
:100A1000BA42019703D111E00FF2AC61E9E701AAF4
:100A200000F098FE0AE0DFF8607307EB1352DFF87E
:100A30005C3301921940DFF858331943C5E90001CE
:100A4000612C0ED1E86830210170811CE9609DF8AD
:100A5000381061290CBF7821582141706869801CC9
:100A60006861D5E900AB2BF0004300202AF00002BA
:100A7000834204BF8242002300F05A81612C40F07F
:100A8000A980286B00284CBF2120401C00904046C4
:100A9000009F7F1C49460022002300F093FED946A8
:100AA00001988DF8082038BF89F00049001F019097
:100AB000002FD0460DF1090040F3498140F2FF714B
:100AC000DFF8D0B20C91064640464946002200238A
:100AD00000F090FE80F03A814800400D00F11C02C9
:100AE00010D0002A0EDD0C98824205DB09F0004090
:100AF00040EA0B01002013E0A448084040EA0251FC
:100B000040460DE029F00043002028F00002834217
:100B100008BF82420FBF40461C22404600F082FEC2
:100B20008046894600F01CFFFF1F002F044609DDA8
:100B300000F034FF02460B464046494600F040FFB5
:100B400080468946F01D072104E004F00F0200F8FA
:100B5000012D2411002C01DD491EF6D5491E5CBF74
:100B6000002200F8012DF9D5ECE00020194602AA78
:100B70000A4400E05B1E12F80149491E8442F9D084
:100B80000F2804D10DF10900425C521C4254002987
:100B900004D50198001D02AE5B1C0190591E12D4B1
:100BA0009DF838007218147804F130085FFA88F460
:100BB000392CC4BFA0F13A04A044491E02F80189AF
:100BC000F1D58DF83800286B002840F1B080591E0F
:100BD0002963ACE0404649460022002300F0F2FDC4
:100BE000019938BF89F0004947F2975041436A4A5A
:100BF00091FBF2F20192D2F1070204DD4046494630
:100C0000FFF79BFE0AE0524200206449FFF795FE81
:100C100002460B464046494600F044FF8046662C9B
:100C2000286BDFF87CB106BF019F0A3706273F1803
:100C3000142FC8BF142730208DF8080089460DF105
:100C4000090000E03046002F34DD064640464946A4
:100C500001F04CF801460A4606F1080304200A2672
:100C6000B2FBF6F606EB860EA2EB4E02303203F82C
:100C7000012C0A22B6FBF2F202EB820EA6EB4E0624
:100C80003036401E03F8026DE9D1083F002F03F112
:100C90000806D7DD084601F03DF802460B464046FF
:100CA000494600F08DFE00225B4600F081FC804644
:100CB0008946CBE70DF10901401A0DF1090604E060
:100CC0000199491E401E0191761C31783029F7D0D8
:100CD000662C02D10199491C03E0652C0CBF01214F
:100CE00000212B6BCB189842B8BF431E002B1ED49B
:100CF000834204DAF05C3528A8BF392000DA3020BE
:100D00001946721E02EB010800E05B1E18F80199FB
:100D1000491E8145F9D0392802D1705C401C7054BD
:100D2000002904D50198401C16465B1C01900198CF
:100D300000B200901BB29DF838103246284600F0F1
:100D400034F82FE0C61D002F3FF7BEAE30460DF140
:100D50000901401A009903468842C8BF0B46002B80
:100D60000DF109063FF52FAF8342BFF6FEAE0DF140
:100D70000900C05C07287FF7F8AE0F20F6E60000F8
:100D8000CBCCCC0C0000244002FCFFFFFFFF0F8007
:100D90000000E03F0000F07FA08601000000F03F6F
:100DA00084D797410FB0BDE8F08F2DE9F84783B0A5
:100DB00006468A461746984600F0FCF9B8F1000F3F
:100DC000406A356B90F8009003DC4FF001080FF299
:100DD0000037BDF930404AF02000662808BF641C87
:100DE00015D0672840F0848014F1040FC0F286808B
:100DF000AC4280F2838096F83800641C010702D46C
:100E0000A845B8BF454620B22D1A48BF00250FFAA5
:100E100084FAF068B169BAF1000F25DC4A1C30236E
:100E20004354002D03DC96F83800010703D5F06821
:100E300000F80290521C15EB0A0FB8BF6C4220B2AA
:100E4000441941424445B8BFA046B26171620FFAED
:100E500088F5F561F068B3692A463946184400F010
:100E60003BFA641BB462C4E022B29045084417DA2E
:100E70004246394600F030FAB0694044B061AAEB0E
:100E80000801002D716203DC96F838100A0705D5B9
:100E9000F16801F80090F069401CF061B562A8E0CB
:100EA000394600F019FAB069002D5044A8EB040847
:100EB00003DC96F838100A0703D5F16801F80090B2
:100EC000401CB0610FFA88F08542F068B369B8BF82
:100ED000A8460FFA88F207EB0A01184400F0FCF963
:100EE000B0690FFA88F10844B061681A706280E056
:100EF000BAF1610F14D14FF0700A16E0A84504DA78
:100F000096F838100A0758BF45466D1E48BF0025A1
:100F1000BAF1670F14BF4FF0450A4FF0650A04E0BD
:100F2000BAF1410F08BF4FF0500AB169F368481C8D
:100F3000B061002D17F8012B5A5403DC96F83810D5
:100F40000A071BD5F168431CB36101F80090002D1E
:100F500014DDA8F101080FFA88F08542F068B8BFE7
:100F6000A8460FFA88F23946184400F0B5F9B0697E
:100F70000FFA88F108446D1AB0617562F068B169C2
:100F80000844002C80F800A003D42B214170811C60
:100F900003E02D2141706442811C00206A460AE072
:100FA00023460A2493FBF4F404EB8405A3EB4503E6
:100FB00002F8013B401C24B2002CF1DC012806DCC5
:100FC0004AF02002652A04BF302201F8012B48B9FB
:100FD000302001F8010B07E0401E1DF800203032E0
:100FE00001F8012B0028F7DCF068B2691044091AF7
:100FF000F16196F8380000F0140010280DD17169E5
:10100000B0694118706A4118F0694118B06A411816
:10101000706B8142BCBF411A316204B0BDE8F087F9
:10102000F8B505460E4617461C46002074B117F861
:10103000011BB068A847B06030B1F06A401CF06294
:101040000020641EF3D1F2BD4FF0FF30F2BD00006E
:101050007072696E74665F733A20256E20646973DE
:10106000616C6C6F776564007072696E74663A20AB
:1010700062616420256E20617267756D656E740013
:101080007072696E74665F733A20626164202573C2
:1010900020617267756D656E740000007072696E14
:1010A00074665F733A2062616420256C73206172FC
:1010B00067756D656E7400000000000000000000A0
:1010C0006E616E004E414E00696E6600494E4600EC
:1010D0003000F0B40246106895681318506803EBAE
:1010E0005004C00721D54D441FE0F0BC02F10C00B4
:1010F000704713F8017B05F8017B491EF9D1A0B1B7
:10110000B60813F8011B06F00306032E08BF13F8F8
:10111000016B01EB06214942801C294405D011F8DE
:10112000016B05F8016B401EF9D1A342DDD013F825
:10113000016B16F0030104BF13F8011BC91C300931
:101140000F28DAD113F8010B0F30D6E71B48704790
:1011500030B45368D418042B09DA41B1057804F887
:10116000015B10F8015B15B15B1C491EF3E753608E
:1011700030BC704738B514461D4661B1FFF7E8FF33
:1011800061686A6B204690476FF00102811A02D0B5
:10119000491E03D005E06FF0010032BD4FF0FF3073
:1011A00032BD0021616032BDDA6B1047034BE1E7CD
:1011B000024BF9E70248704700000000D4100020FD
:1011C0009C1000200278C9B28A421AB11CBF10F8E4
:1011D000012FF9E718BF00207047B1F5807F02D3D7
:1011E0004FF0FF3070470170012070470078401EBB
:1011F0008041C043C00F704780B508B90FF21C0092
:1012000005490B681BB122220021984701E000F03C
:101210008EFD222002BD0000AC170020636F6E73AC
:10122000747261696E742068616E646C65723A20D4
:10123000626164206D6573736167650000F101038D
:10124000810704D010F8011B89B18107FAD1026827
:10125000B2F10131914311F0803F04BF50F8042FE7
:10126000F6E710F8011B11B110F8011BFBE7C01ADB
:1012700070470000C9B2830706D0521E22D310F86F
:10128000013B9942F7D11FE0083A13D302F104025F
:1012900041EA012141EA014150F8043B121F21BFFC
:1012A0004B40A3F1013C2CEA030C1CF0803FF3D02F
:1012B000C9B2001F083210F8013B521E28BF91EA44
:1012C000030FF8D818BF0120401E704780B5FFF704
:1012D0003DFF006C02BD000062B38B0708D0521EB8
:1012E00011F8013B00F8013B00F024808B07F6D198
:1012F000830740F0208000BF103A07D330B4B1E834
:101300003810103AA0E83810F9D230BC530724BF87
:10131000B1E80810A0E8081044BF51F8043B40F8B9
:10132000043BD20724BF31F8022B20F8022B44BF24
:101330000B7803707047121F17D35B0009D151F867
:10134000043B20F8023B1B0C121F20F8023BF6D294
:101350000BE051F8043B00F8013B1B0A20F8023B6C
:101360001B0C121F00F8013BF3D238BF121D521E96
:1013700024BF11F8013B00F8013BF8D8704700008A
:10138000B3BBD9B1B2F5803F7DD2022A1ED98C46BB
:10139000B1FBF2F102FB11C31B0443EA1043B3FBA0
:1013A000F2FC02FB1C3380B240EA0343B3FBF2F0D1
:1013B00002FB103240EA0C4000237047022A05D994
:1013C0008446B0FBF2F002FB10C270474AB105D16F
:1013D00000F0010249085FEA300070470022002354
:1013E000704700F0A7BC0B000200002100207047EE
:1013F000904271EB030CF6D3B3F5803F2FD2F0B5DA
:10140000B3FA83F7B1FA81F4A7F10F0E3D1B5340F5
:10141000CEF1200602FA0EF2F3415340B5F10F0768
:1014200046D80F3C2C444140C4F12006A040F14175
:101430004140B1FBF3F603FB1611A2FB0645001B6E
:10144000A94102D2761E8018594180EA010221FA90
:101450000EF362FA0EF200215A403046F0BD30B46D
:10146000B1FBF3FC03FB1C11A2FB0C45001BA941C3
:1014700003D2ACF1010C8018594130BC02460B4636
:10148000604600217047B2F1807F65D3F0B5B2FAB3
:1014900082F7B1FA81F4C7F10F063D1B22FA06F379
:1014A00007F1110EF24120355A40B5F10F07B8D9B6
:1014B0004140C4F12006A040F1414140B1FBF3FCA2
:1014C00003FB1C11A2FB0C45001BA94103D2BCF17C
:1014D000010C801859410F2F12D30F3FC90341EA65
:1014E0005041B1FBF3F603FB1611A2FB0645D4EB0A
:1014F000C030A94102D2761E8018594146EACC3C40
:1015000007B34140C7F12006B840F1414140B1FB6B
:10151000F3F603FB1611A2FB0645001BA94102D2FC
:10152000761E8018594180EA010221FA0EF3C7F1B4
:10153000200462FA0EF20CFA07F05A402CFA04F179
:101540003043F0BD80EA010221FA0EF3002162FA75
:101550000EF260465A40F0BD8C46B1FBF2F102FB40
:1015600011C31B0243EA1063B3FBF2FC02FB1C3302
:101570001B024CEA002043EA1063B3FBF2FC02FBBF
:101580001C331B024CEA002043EA1063B3FBF2FC5D
:1015900002FB1C331B024CEA002043EA1063B3FB3E
:1015A000F2FC02FB1C324CEA0020002370470000D2
:1015B000B0B581EA030C0CF0004C40F2FF7515EA5F
:1015C00011541DBF15EA1357AC42AF4239E0E4197C
:1015D00023EA455343F48013C90241F0004141EA34
:1015E000505EC7021100A7FB020200284FF0000066
:1015F000EEFB01204FF00001E3FB072118BF42F092
:101600000102401800214941E3FB0E01A4F580646A
:101610000F0302D252004041494154F101046CDDF4
:10162000470872F1004250F1000051EB0451A1F55E
:1016300080115CBF41EA0C01B0BD4CEA05510020AD
:10164000B0BD05EA1357AC4214BFAF4241E050EAC7
:10165000410E1CBF52EA430E02E061460020B0BDBD
:1016600024423C441BD15FEA070EF6D0090302BFB7
:1016700001460020AEF1140EB1FA81F7AEEB07047B
:1016800001FA07FE0C37C7F1200100FA07F7C8403E
:101690004EEA000E23EA455343F48013A2E733F0E9
:1016A0000043B3FA83F704BFB2FA82FE77440B3FDC
:1016B000E41BB7F1200E2FBF02FA0EF3BB40C7F1B7
:1016C000200E22FA0EFE38BF43EA0E03BA40641C15
:1016D00082E750EA410E14BF52EA430E6FF0000158
:1016E0004FF4001717EB430F8ABF194617EB410F52
:1016F000B5E74CEA05510020B0BDD4F10104B4F1C6
:1017000020070FDAC4F12007520828BF42F0010277
:1017100010FA07F501FA07F7E1BF2A43E040384322
:10172000E1400FE0352C98DCC7F1200452EA40027A
:1017300020FA07F218BF42F0010231FA07F0A14087
:101740000A43002172F1004250F1000051EB0C01FC
:10175000B0BD000010B5144600F002F8226010BDC4
:10176000C1F30A5343B14A0012F5001F28D2A3F275
:10177000FE32A1EB0251704750EA410C20D001F03B
:10178000004C31EA0C01B1FA81F204BFB0FA80F3E7
:10179000D2180B3AB2F120032CBF00FA03F19140AA
:1017A00041EA0C013EBFC2F1200C20FA0CF31943B0
:1017B0009040524240F2FD33D21A01EB0351704780
:1017C000002270474FF4001C1CEB410F94BF1CEB30
:1017D000430F09E041EA030C50EA4C0C52EA0C0CAE
:1017E00003D2994208BF9042704714BF8B42824295
:1017F000704700004FF4001C1CEB410F94BF1CEB22
:10180000430F09E041EA030C50EA4C0C52EA0C0C7D
:1018100003D28B4208BF8242704714BF9942904264
:1018200070470000124254D440F2FF7C1CEA11536E
:101830000FD0634531D09B1863453CBF01EB02518B
:10184000704701F0004141EA0C510020AFF30080E5
:10185000704750EA410320D001F0004C91EA0C019E
:101860001CD0B1FA81F30B3B9A420DD9D21A9940A0
:1018700051EA0C01C3F1200C20FA0CFC61449840A1
:10188000531C40F2FF7CD7E7914041EA0C01C2F1C2
:10189000200C20FA0CF3194390407047B0FA80F303
:1018A0001533202BE0D3202AEED3203A203B9A4256
:1018B00009D9D21A00FA03F141EA0C010020531CA5
:1018C00040F2FF7CB8E700FA02F141EA0C01002087
:1018D0007047524240F2FF7C1CEA11530DD0634521
:1018E000DBD0B2EB030C3CBFA1EB025170470CF113
:1018F000010221EA035141F4801150EA410CCCD09D
:1019000001F0004C352A27DC30B481EA0C01B2F139
:10191000200309DAC2F12003044601FA03F5D0409E
:101920002843D1409C400CE0C3F12002450020FA3E
:1019300003F418BF44F0010421FA03F091400C4372
:10194000002174F1004550F1000051EB0C012442DC
:1019500030BC7FF47BAF70476146002076E7000023
:10196000C1F30A5340F2FE329B1A14DDD3F1200377
:101970004FEAE17208DDC90241EA505141F00040EE
:10198000D84080185040704703F2E13010B1D24384
:1019900082F000407047002070470000C11768B116
:1019A0004840401AB0FA80F29040D21CC907C2F5F4
:1019B000846241EA025202EBD021400570470000E8
:1019C00070B44FF0004591EA030F40F1B5816B40D0
:1019D000841A71EB030603D2001BB1411219734143
:1019E0004FF4001C1CEB410F34BF7CEB430442E07E
:1019F0000C0DA4EB1356352E4FDC45EAC323DB0A4E
:101A000045EAC121C912B6F120050DDD63FA05F6DC
:101A1000EB4086EA0305124218BF45F00105C018E5
:101A200051F100010CD213E062FA06F5F240554084
:101A3000F3415A40B340F3405A408018594107D30C
:101A400049085FEA30005FEA350528BF45F0010527
:101A500001F58011420875F1004250F1000041EBA0
:101A600004514E0016F5001F70BC38BF70470020AF
:101A7000090D090570471CEB410F10D252EA4306CD
:101A80000BD0BCEB410F05D80C0DAB43661E342EBA
:101A9000B6DD02E0AB438018594170BC704770BCA2
:101AA00070470000F0B540F2FF7581EA030C0CF0BE
:101AB000004C15EA11541DBF15EA1357AC42AF4252
:101AC000E5E0BC41C1F31301C3F31303801A99414C
:101AD00043F4801304D2641E4000494180185941E8
:101AE000C90241EA5051B1FBF3F603FB1611A2FB08
:101AF0000675D7EBC020A94102D2761E8018594145
:101B0000C90241EA5051B1FBF3FE03FB1E11A2FBD7
:101B10000E75D7EBC020A94103D2AEF1010E80189B
:101B20005941890241EA9051760546EA8E2EB1FB71
:101B3000F3F603FB1611A2FB0675D7EB8020A94133
:101B400002D2761E80185941C90241EA50514EEA2C
:101B5000060EB1FBF3F603FB1611A2FB0675D7EBDD
:101B6000C020A94102D2761E80185941C90241EA1B
:101B70005051B1FBF3F703FB1711A2FB0735D3EB71
:101B8000C020A94167F100070CBF004247F00107E0
:101B900066F3D5274FEA1E31B80814F5806412DDCC
:101BA000BD0775F1004250EB0E5051EB045111F599
:101BB000801F5CBF41EA0C01F0BD4CF07F6141F039
:101BC000E0410020F0BDBD076D0840EA0E5041F431
:101BD0008011D4F10104B4F120060ADAC4F1200620
:101BE0000200E04001FA06F3E1401843B240154319
:101BF0000EE0342C13DCC6F1200445EA40056D08E4
:101C000020FA06F2154321FA06F0A1400D43002107
:101C100075F1004250F1000051EB0C01F0BD0020C5
:101C20005FEA0C01F0BDCFB992185B41B3FA83F7BC
:101C300004BFB2FA82F6BF190B3FB7F120062FBFDF
:101C400002FA06F3BB40C7F1200622FA06F638BFB7
:101C50003343BA401CB1E419641E33E77F4231F0CC
:101C60000041B1FA81F404BFB0FA80F6A4190B3C2C
:101C7000B4F120062FBF00FA06F1A140C4F12006FE
:101C800020FA06F638BF3143A0403C1B1AE7AC42AD
:101C90001ABF05EA1357AF4212E050EA41061CBFD3
:101CA00052EA4306BFE750EA4107304661461CBF8F
:101CB00041EA0551F0BD52EA430C08BFC143F0BDF3
:101CC00000204FF4001616EB410F98BF16EB430FA0
:101CD00008BF16EB410F24BFC14305E016EB430FCD
:101CE0000CBF61464CEA0551F0BD0000400D49189B
:101CF00040EA81200CD2490DA1F58061491C40F0D9
:101D0000004005DBD1F11F0154BFC840C017704728
:101D100000207047014648B1B0FA80F18840C91CE4
:101D2000C1F58461090501EBD02140057047012010
:101D300000F0B6B870470000841A71EB030604D2B5
:101D40006E40001BB141121973414FF4001C1CEB93
:101D5000410F34BF7CEB430682E00C0DA4EB13561D
:101D6000362E7BDC012E45EAC32341DC43EA525385
:101D700012BFD20292025B08240545EAC12141EA62
:101D80005051D2EBC020994125D407D1B0FA80F64A
:101D900010FA06F162D00020203608E0B1FA81F690
:101DA000B140C6F1200220FA02F21143B0404FEADE
:101DB000F474B4EB465434F001064FEA74040AD8C4
:101DC000D6F50016760D04F00044F04061FA06F2F4
:101DD0005040F1404840C00A40EA415021F00041E3
:101DE00028BF5FEA500550F1000044EBD12135E0F7
:101DF000DB0A45EAC121C90AB6F120050EDD42EA37
:101E00000242120CC5F1200603FA06F6EB4042EA44
:101E100006056D42984161F100010DE062FA06F598
:101E2000F240554063FA06FC82EA0C02F3405A4045
:101E30006D42904161EB030111F4801F05D1641ED6
:101E4000620502D06D004041494121F480114308F0
:101E500075F1004350F1000041EB045170BC704734
:101E60001CEB410F15D223F0004352EA43060BD07E
:101E70004FEA4C0CBCEB410F04D80C0D661E342EFF
:101E8000B7DDEBE7801A994150EA410608BF00210F
:101E9000E4E708BF1CEB430F28BF6FF00001DDE74C
:101EA00080B5AFF30080024A11001820ABBEFBE7FB
:101EB0002600020038B5040009D004F17C056868EA
:101EC00008B900F01EF800F021F8012801D1012026
:101ED00032BDA06A08B100F02AF800F00AF821F03B
:101EE0002A01FFE7816000F01BF8BDE8324000F0F6
:101EF00010BE2068416821F49041416020688168EB
:101F0000704700212970204600F023BF242068601C
:101F100020680168490849000160204600F02EB998
:101F20002068016841F001010160204670472046A9
:101F300000F08CBD70B5044604F17C05134668685A
:101F4000202836D149B3180027D02878012830D06E
:101F500001222A7004F15406216533807380002029
:101F6000E86021206860306AC8B1DFF8F411C1620E
:101F7000DFF8F001316A0863316ADFF8EC01486389
:101F80000020316A88632068216D00F12802306AE0
:101F900001F00DF818B100F00EF8012070BD2168B5
:101FA00040200862002028702068816841F080018C
:101FB00008E0022070BD1020E8600020287020207A
:101FC000686070478160002070BD206881684A06A3
:101FD000704770B504462568E9692A68AB6811F056
:101FE0000F000CD1880602D5900601D4D80079D50F
:101FF000E16E002975D02046BDE8704008475B4877
:10200000034208BF12F4907F6CD0CE0709D5D605E5
:1020100007D501262E62D4F8885045F00105C4F892
:1020200088508D070AD5DD0708D526680225356258
:10203000D4F8885045F00405C4F888504D070AD5F7
:10204000DD0708D5266804253562D4F8885045F0A8
:102050000205C4F888500D070CD5950601D403423B
:1020600008D0256808202862D4F8880040F00800CD
:10207000C4F88800D4F8880000286FD0890607D5F6
:10208000900601D4D80003D5E16E09B120468847F7
:10209000D4F8880021688A68510601D400071AD54F
:1020A000204600F0A1FDFFF790FF0FD500F060F88B
:1020B00060B1DFF888198163A06F00F0BBFF0028D2
:1020C0004CD0A06F816BBDE8704008472046BDE84A
:1020D000704001F09FB8204601F09CF80020C4F841
:1020E000880070BDC80209D5580207D54FF480108A
:1020F00028622046BDE8704001F014B9080609D5F1
:10210000100601D4180205D5216F39B32046BDE869
:102110007040084748060FD550060DD5286820F0B6
:10212000400028602021C4F880100020206720464D
:10213000BDE8704001F021B9080206D5500004D571
:102140002046BDE8704001F035B9C80148BF002AFB
:1021500004D52046BDE8704001F02DB970BD0000E7
:102160004D2C00087B2C0008812C00080100001079
:10217000816821F040018160A06F70472DE9F84F20
:102180000446DFF8880A2768DFF884BA3968DFF880
:1021900084AA0140A06801432069014360690143AA
:1021A000E0690143606E0143396000267968E068A8
:1021B00021F4405101437960B046A169DFF8580A23
:1021C00087421CBF206A0143BA68DFF8500A024008
:1021D0001143B9604FF48075F96A606A090940EAF1
:1021E0000111F9625F454FF400404FF400714FF464
:1021F00080624FF400634FF4805C4FF4005E4FF454
:10220000804929D1DAF800B00BF0030BBBF1030FC2
:102210003ED8DFE80BF00237343A4FF0010AD4F829
:102220001CB05746BBF5004F4FF6F07A40F01183D3
:10223000012F09D0022F00F05482042F00F08D826C
:10224000082F00F0C282F5E201F08AFC0146606AC4
:10225000002840F01B8242E2DFF8BCB95F4517D18D
:10226000DAF800A01AF4406A27D0BAF5806F09D0D6
:10227000BAF5006F03D0BAF5406F06D008E04FF012
:10228000020A07E04FF0040A04E04FF0080A01E0F8
:102290004FF0100ADFF880B95F45C0D1BAF1000FE6
:1022A0000BD0BAF1020F49D0BAF1040F00F08280CE
:1022B000BAF1080F00F0B080B3E301F049FC014629
:1022C000606A58B3012808BF022028D0022808BF3E
:1022D000042024D0032808BF062020D0042808BFEB
:1022E00008201CD0052808BF0A2018D0062808BFDF
:1022F0000C2014D0072808BF102010D0082808BFD1
:1023000020200CD0092808BF402008D00A2808BF88
:10231000802004D00B2808BF284600D00120B1FB44
:10232000F0F0002800F07F83626802EB42018842EF
:1023300003D31103814280F0A18072E3606AB0B3DD
:10234000012808BFDFF8D808EED0022808BFDFF860
:10235000D408E9D0032808BFDFF8CC08E4D004286B
:1023600008BFDFF8C808DFD0052808BFDFF8C008BD
:10237000DAD0062808BFDFF8BC08D5D0072808BF88
:10238000DFF8B408D0D0082808BFDFF8B008CBD0F9
:10239000092808BFDFF8A808C6D00A2808BFDFF858
:1023A000A408C1D00B2808BF4FF22440BCD0DFF8EE
:1023B0009808B9E701F082FB0146606A58B301282A
:1023C00008BF0220ABD0022808BF0420A7D00328F2
:1023D00008BF0620A3D0042808BF08209FD00528E6
:1023E00008BF0A209BD0062808BF0C2097D00728DA
:1023F00008BF102093D0082808BF20208FD00928BC
:1024000008BF40208BD00A2808BF802087D00B2827
:1024100008BF284683D081E7676A002F84D0012F48
:1024200008BF4846FAD0022F08BF7046F6D0032FE7
:1024300008BF41F25550F1D0042F08BF6046EDD0DF
:10244000052F08BF40F6CC40E8D0062F08BF40F665
:10245000AA2012D0072F08BF18460ED0082F08BF99
:1024600010460AD0092F08BF084606D00A2F08BF19
:10247000284602D00B2F00D1802055E7BAF1000F7B
:102480000BD0BAF1020F38D0BAF1040F00F072800D
:10249000BAF1080F00F0A780ECE001F059FB01460B
:1024A000606A40B3012808BF02251ED0022808BF79
:1024B00004251AD0032808BF062516D0042808BF13
:1024C000082512D0052808BF0A250ED0062808BF07
:1024D0000C250AD0072808BF102506D0082808BFF9
:1024E000202502D0092808BF402572D00A280CBF39
:1024F00080250B286DD001256BE0606A002836D05E
:10250000012808BFDFF8D8672BD0022808BFDFF802
:10251000D46726D0032808BFDFF8CC6721D0042871
:1025200008BFDFF8C8671CD0052808BFDFF8C06700
:1025300017D0062808BFDFF8BC6712D0072808BFED
:10254000DFF8B4670DD0082808BFDFF8B06708D0FF
:10255000092808BFDFF8A86703D00A2808BFDFF8FA
:10256000A4677CD00B2808BFDFF8DC6677D0DFF8E3
:10257000986774E001F0A2FA0146606A40B301284E
:1025800008BF022525D0022808BF042521D0032832
:1025900008BF06251DD0042808BF082519D0052826
:1025A00008BF0A2515D0062808BF0C2511D007281A
:1025B00008BF10250DD0082808BF202509D00928FC
:1025C00008BF402505D00A280CBF80250B2800D065
:1025D00001256268B1FBF5F65008002110EB0620DA
:1025E00051EB166141E0606A002836D0012808BF2F
:1025F0004FF4800633D0022808BF4FF400162ED0C7
:10260000032808BFDFF8046729D0042808BF4FF467
:10261000801624D0052808BFDFF8F4661FD00628EE
:1026200008BFDFF8F0661AD0072808BF4FF400266D
:1026300015D0082808BF4FF4802610D0092808BFFD
:102640004FF400360BD00A2808BF4FF4803606D06E
:102650000B2808BF4FF4004601D04FF40006C246D5
:10266000002116EB52004AEB01010023FEF788FE21
:10267000064601E04FF00108A6F54070DFF8981615
:10268000884280F0CE812168CE60CCE1012808BF6D
:1026900002251AD0022808BF042516D0032808BF37
:1026A000062512D0042808BF08250ED0052808BF2B
:1026B0000A250AD0062808BF0C2506D0072808BF1F
:1026C000102502D0082808BF202575D0092808BF8A
:1026D000402571D00A280CBF80250B286CD001251D
:1026E0006AE0606AB0B3012808BFDFF85C0521D05A
:1026F000022808BFDFF828051CD0032808BFDFF830
:102700001C0617D0042808BFDFF8180512D00528CA
:1027100008BFDFF80C060DD0062808BFDFF8080553
:1027200008D0072808BFDFF8040503D0082808BF31
:10273000DFF804057AD0092808BFDFF8000575D056
:102740000A2808BFDFF8F80470D00B2808BFDFF8AC
:10275000F4046BD0DFF8AC0568E001F0AFF9014696
:10276000606A40B3012808BF022525D0022808BFAF
:10277000042521D0032808BF06251DD0042808BF42
:10278000082519D0052808BF0A2515D0062808BF36
:102790000C2511D0072808BF10250DD0082808BF28
:1027A000202509D0092808BF402505D00A280CBFDC
:1027B00080250B2800D001256068B1FBF5F14208A7
:1027C00002EB4102B2FBF0F632E0666A66B3012E1C
:1027D0002CD0022E08BF484628D0032E08BF42F650
:1027E000AA2023D0042E08BF70461FD0052E08BF94
:1027F00041F698101AD0062E08BF41F2545015D059
:10280000072E08BF604611D0082E08BF18460DD00D
:10281000092E08BF104609D00A2E08BF084605D069
:102820000B2E08BF284601D04FF4803000F008F985
:10283000B6B201E04FF00108A6F11000504580F05B
:10284000F0800AEA0601C6F3420001432068C16035
:10285000E9E0012F07D0022F35D0042F6DD0082FCB
:1028600000F0A280D4E001F07BF90146606A40B339
:10287000012808BF022512D0022808BF04250ED067
:10288000032808BF06250AD0042808BF082506D05B
:10289000052808BF0A2502D0062808BF0C257BD0D2
:1028A000072808BF102577D0082808BF202573D037
:1028B000092808BF40256FD00A280CBF80250B28A7
:1028C0006AD0012568E0606AA0B3012808BFDFF87C
:1028D000501330D0022808BFDFF848132BD003284C
:1028E00008BFDFF8441326D0042808BFDFF83C13E4
:1028F00021D0052808BFDFF838131CD0062808BFF0
:10290000DFF8301317D0072808BFDFF82C1312D0D8
:10291000082808BFDFF824130DD0092808BFC849CC
:1029200009D00A2808BFC74905D00B2808BF4FF2B5
:10293000244100D0C449606831E001F0BFF801468D
:10294000606A40B3012808BF022525D0022808BFCD
:10295000042521D0032808BF06251DD0042808BF60
:10296000082519D0052808BF0A2515D0062808BF54
:102970000C2511D0072808BF10250DD0082808BF46
:10298000202509D0092808BF402505D00A280CBFFA
:1029900080250B2800D001256068B1FBF5F101EB23
:1029A0005001B1FBF0F631E0666A6EB3012E08BF4C
:1029B000484629D0022E08BF704625D0032E08BFF6
:1029C00041F2555020D0042E08BF60461CD0052E81
:1029D00008BF40F6CC4017D0062E08BF40F6AA200C
:1029E00012D0072E08BF18460ED0082E08BF10467A
:1029F0000AD0092E08BF084606D00A2E08BF28466E
:102A000002D00B2E08BF802000F01AF8B6B201E009
:102A10004FF00108A6F11000504502D22068C660B0
:102A200001E04FF0010804F16800012141800180BC
:102A30000021416081604046BDE8F28FCF2C000844
:102A4000616800EB5100B0FBF1F6704790F8281078
:102A5000CA0706D502685368C16A23F400330B43E2
:102A6000536090F828108A0706D502685368016BF6
:102A700023F480330B43536090F828104A0706D59F
:102A800002685368416B23F480230B43536090F832
:102A900028100A0706D502685368816B23F40043A7
:102AA0000B43536090F82810CA0606D50268936855
:102AB000C16B23F480530B43936090F828108A066F
:102AC00006D502689368016C23F400530B439360AE
:102AD00090F828104A0610D502685368416C23F418
:102AE00080130B435360416CB1F5801F05D15368CF
:102AF000816C23F4C0030B43536090F828100A063E
:102B000006D501684A68C06C22F4002202434A607C
:102B10007047F8B5044604F17C050020E8606FF0CA
:102B20007E4701F0A9F80646206801680A0708D523
:102B30000097334600224FF40011204600F016F8AB
:102B400060B9206801684A070AD500973346002219
:102B50004FF48001204600F009F808B10320F2BDCF
:102B600020206860A86000202870F2BD2DE9F041A7
:102B7000069C05460E4690461F462868C1693140AE
:102B8000B1420CBF0120002040451CD114F1010FBF
:102B9000F3D001F071F8C01B844201D3002CECD1BA
:102BA0002868016821F4D0710160286881684908AB
:102BB0004900816005F17C00202141608160002195
:102BC0000170032000E00020BDE8F08101680A6880
:102BD00022F0C0020A6001688A6822F400028A605A
:102BE0002021C0F88010704701680A6822F49072B2
:102BF0000A60DFF83011026893680B40936020216F
:102C0000C0F884100021C16670470000F369FFCF4F
:102C1000003801408800005800800040FFF4FF1198
:102C200000127A0000093D00AAB0280080841E002E
:102C3000006A18005558140040420F0020A10700F8
:102C400090D0030048E801000024F400816A006885
:102C50000268930644BF084600F08FBB0020A1F82D
:102C600056000868826822F0800282600868FFE7E8
:102C7000016841F0400101607047806A01F002B8CC
:102C8000F8B5846A04F1800504F1560728686E6877
:102C900021688A68110606D5212804D100203880D1
:102CA0002046FFF793FF20688168480606D5222E4C
:102CB00004D1002038812046FFF796FFA86840F035
:102CC0001000A8602046BDE8F24000F0A3BA806A78
:102CD00000F1560100220A810A8000F09BBA000030
:102CE0000000127A0000093D00AAB0280080841E6E
:102CF00000006A18005558140040420F0020A10738
:102D00000090D0030048E801000024F400551500AD
:102D100000CC0C0000AA0A0000FD0F005461510015
:102D200000D43000FEFFFFEF614981B00A68024322
:102D30000A600968084008E05E4881B0016841F413
:102D400000210160006800F400200090009801B0AC
:102D5000704738B586B004466846142100F094FFE9
:102D60002068554A554990422ED10868544D40F08C
:102D700001000860096801F0010105910598012032
:102D8000FFF7D2FF0C200090022100200191029059
:102D900003210820039100F05AF8402000F050F879
:102DA000082000F054F847482860112000F055F83A
:102DB00008B101F0B8F86567AC6200220021252057
:102DC00001F0CEF8252037E03F4A904236D14868DE
:102DD0003E4D40F480404860486800F480400590D3
:102DE00005980120FFF7A0FF0220FFF79DFF4FF499
:102DF000006000F025F8072000F029F8C0200090BE
:102E000002210120019102900321072003910490E7
:102E100069462F4801F002F92E4828600F2000F083
:102E20001CF808B101F07FF86567AC620022002150
:102E3000242001F095F8242001F0AFF807B030BD50
:102E400000900221002002900390019170470490AD
:102E500069464FF0904001F0E1B868601020A8602A
:102E60000020E8608020286100206861A861E86196
:102E70002862284600F034B810B504461649206888
:102E8000884213D101F0AEF901F0ACF913480168A2
:102E900021F4407141F480710160026842F4004203
:102EA00002602046BDE8104001F0B0B910BD00003E
:102EB0004C00005850000058008000405C00005852
:102EC000501500204400024000380140B015002099
:102ED00000040048440402400028004090000058CC
:102EE00038B5040001D1012032BD2168DFF8FC02B1
:102EF000814204F1240500F042F8022068700A685B
:102F0000A0686FF30E120243E06802432069024397
:102F100060690243A0690243E0690243206A0243F8
:102F20000A60204600F039F9A068B0F5804F04BF70
:102F300000216160696A207900F014F838B1052831
:102F400005D2204600F043F900F012F803E000201B
:102F500028636863A8630020A861012068700020CE
:102F6000287032BD0860A96AE86A486060687047E6
:102F7000296B00200860696BA86B486070470AD213
:102F8000DFF86C0242181423B2FBF3F292002A62BB
:102F9000DFF8600209E0DFF8600242181423B2FB98
:102FA000F3F292002A62DFF85402E8617047F8B544
:102FB000044604F1240600253078012801D10220BE
:102FC000F2BD01273770707801282FD10227777062
:102FD000B561206807687F087F000760204600F021
:102FE000C0F82168F06820B10A6842F00E020A6059
:102FF00008E0086820F0040008602068016841F0DB
:103000000A010160706A0168CA0303D5026842F4CC
:1030100080720260306B18B1016841F48071016008
:103020002068026842F00102026001E0357002256A
:103030002846F2BD38B500F1240200245178022957
:1030400003D004209061012428E001680B6823F07C
:103050000E030B6001680D686D086D000D60516A0C
:103060000B6823F480730B60012192F82030D5693E
:1030700003F01C0399406960936AD16A5960116B2F
:1030800031B10B6823F480730B60536B916B596003
:10309000012151701470516901B18847204632BD39
:1030A000F8B500F124010423CA69146802681568A0
:1030B00091F8206006F01C0603FA06F73C4210D097
:1030C0006F070ED51468A50603D4156825F004050E
:1030D000156000F03DF8C968002938D0BDE8F4401B
:1030E0000847022303FA06F73C4213D0AF0711D575
:1030F0001468A50605D4156825F00A051560012297
:103100004A7000F025F800220A708968F9B1BDE81C
:10311000F4400847082303FA06F6344217D02B0779
:1031200015D5136823F00E031360012291F82030A7
:10313000CC6903F01C039A40626001228A614A70E4
:1031400000220A70096911B1BDE8F4400847F1BDD9
:1031500091F82020CC6902F01C0293406360704714
:10316000000078B5C56C046D6C60446D14B1846D5D
:10317000C56D6560012590F84440066C04F01C04A0
:10318000A5407560046863608068102802D1A26061
:10319000E16071BDA160E26071BD416C0268134BDA
:1031A00089089A4234BF164B164B03EB81018164A8
:1031B00002F0FF02083A1421B2FBF1F1124AC26494
:1031C00001F01C01012202FA01F101657047017949
:1031D0000E4A02EB81024265491E0D4A826501F0EA
:1031E000030101228A40C2657047000008040240C2
:1031F000F8FFFDBF00000240F8FBFDBF00040240E5
:10320000000802401C08024080080240FC080240FE
:10321000400902407047000010B500F17C010A78B7
:10322000012A01D1022010BD01230B7024224A6023
:10323000026813681468640864001460002242661F
:1032400023F00053006803602020486000200870CD
:1032500010BD70B500F01EF801D1022070BD00F065
:103260001FF822F0604209E070B500F013F801D1B8
:10327000022070BD00F014F822F0606211438160FA
:10328000204600F01AF820680660202068600020C0
:10329000287070BD044604F17C0528780128704729
:1032A00001222A702420686020680668026852089B
:1032B00052000260206882687047FFB50FF2540226
:1032C0000FF25806D2E9003402A9C1E90034D6E968
:1032D0000071CDE90071416E11B90121012213E0A5
:1032E00001688A688968520E02F00702490F02AC31
:1032F000655CA45C1DF801101DF80220ED00E400DF
:1033000095FBF1F194FBF2F2683041800280FFBD41
:10331000000000000101010307010000080402048D
:10332000080101017047000063601D481D4B704794
:1033300023601D481D4B704770B51C4600230025B7
:103340001B4E10B1022804D00AE03460FFF7F1FFF1
:1033500002E07460FFF7E9FF0360FEF7EBFD034650
:10336000012B05D007D3032B04D038BF022502E080
:10337000012500E00325284670BD82B00068094A97
:103380000B49904206D0094A904207D1086828B1FB
:1033900002B00047486808B102B0004702B0704769
:1033A0003813002000800040C41300200038014082
:1033B0005C170020704770474FF0B040006800F085
:1033C000F000B02888BFB02070472DE9F04104001C
:1033D00066D0207881064FF0B04537D5A868E968F7
:1033E00010F00C0001F0030104D00C2808BF0129E3
:1033F00040F081802868800702D5E06900284FD01E
:10340000FFF7DAFF616A884207D2084600F0B9FB8D
:10341000002819D100F056FA10E0286820F0F000DA
:10342000014329606968206A21F47F4141EA002153
:103430006960606A00F0A5FB002805D100F026FF56
:10344000002000F06DFD002840F086812078C10743
:1034500011D5A868E96800F00C00082801F0030104
:1034600003D00C2808BF032967D12868800302D540
:103470006068002814D0217888071AD5A868E96800
:1034800000F00C00042801F0030104D00C2808BF50
:10349000022940F087802868400503D5E0680028AD
:1034A00000F05A816968206921F0FE4141EA00611B
:1034B00069602168DFF8646711F0180F00F0768109
:1034C0006069002800F0A880C906706840F1958006
:1034D000800707D4706840F0010000F00CFA07463E
:1034E0007068800700F13A8100F0C6FBC01B03281A
:1034F000F6D30320DFE1E06978B1296841F00101EA
:1035000000F0D2FA06462868800700F1368100F004
:10351000B3FB801B0328F6D3EBE728684008400084
:1035200000F0E3F90646286800F0C8F98ED000F0F4
:10353000A3FB801B0328F6D3DBE76068B0F5803F70
:1035400006D0B0F5A02F296807D141F48021296069
:10355000286840F48030286006E021F4803129603A
:103560002A6822F480222A60606860B100F084FB3F
:103570000646286880033FF57EAF00F07DFB801B88
:103580006528F6D3B5E700F077FB06462868400CBF
:1035900010F001003FF46FAF00F06EFB801B652858
:1035A000F4D3A6E7E06878B1296841F4807100F0AF
:1035B0007BFA06462868400500F1E28000F05CFBDB
:1035C000801B0328F6D394E7286820F4807000F06D
:1035D0008CF906462868800A10F001003FF469AFB4
:1035E00000F04AFB801B0328F4D382E700F044FB81
:1035F000C01B0328C0F0D6807BE740F0010000F03C
:103600007AF907467068800700F1E78000F034FB24
:10361000C01B0328F6D36CE7706820F0040000F0AC
:103620006AF907467068C00810F0010000F0E480F5
:1036300000F022FBC01B0428F4D35AE705283068A9
:1036400006D140F004003060316841F0010105E02E
:10365000400840003060316821F004013160A0680A
:1036600041F2893768B100F007FB80463068800777
:1036700000F1D78000F000FBA0EB0800B842F5D3C2
:1036800037E700F0F9FA8046306800F017F900F0EB
:10369000C88000F0F1FAA0EB0800B842F4D328E7A4
:1036A00000F0EAFAC01B0328C0F0C98021E7B06827
:1036B00040084000B06000F0DFFA0746B06800F054
:1036C000FDF800F0C08000F0D7FAC01B0328F5D346
:1036D0000FE700F0D1FA801B0328C0F0C68008E78E
:1036E00000F0CAFA001B0328C0F0E08001E7E96897
:1036F000DFF82C0589088900E960E9680140E96084
:1037000000F0BAFA044600F0EBF823D000F0B4FA67
:10371000001B0328F7D3ECE6E868226B00F00301F6
:10372000914202BF00F07001626B914214D1A26B12
:10373000C0F30621914202BF00F47811E26B91427E
:103740000AD1226C00F06061914202BF00F060403B
:10375000616C884200F0AE800120ACE0706840F0FF
:10376000040000F0C8F807467068000710D400F0A5
:1037700083FAC01B0428F7D3BBE600F0A3F865E684
:103780006868216920F0FE4040EA0160686090E6C8
:103790007068A16920F4706040EA0120706000F058
:1037A000A7F8074600F089F87FF420AF207841079A
:1037B00037D5DFF870743868C10529D400F012FDE0
:1037C00000F05AFA80463868C10521D400F054FA56
:1037D000A0EB08000328F6D38BE6706820F0040005
:1037E00070607068C00810F00100DFD000F044FA8B
:1037F000C01B0428F5D37CE600F07AF8074600F0F9
:103800005CF8D3D000F038FAC01B0328F7D370E679
:10381000A06801287FF412AF306840F001003060EA
:103820001DE7217848060ED5A06A00283FF43FAF77
:10383000B16841F00101B16000F01EFA0746B068BE
:1038400080077FF52DAFE06AA0B3A96801F00C01F5
:103850000C293FF461AF0228286820F080702860AE
:103860007FF445AF00F008FA064600F039F87FF41F
:1038700030AFE968DFF8B003A26B0140206B014371
:10388000606B0143E06B41EA02210143206C01437C
:10389000606C0143E960286840F080702860E96846
:1038A00041F08051E96000F0E7F9044628688001A2
:1038B0007FF516AF0020BDE8F0817068400810F079
:1038C000010070472968606A21F0F0010143296016
:1038D0006868216A20F47F4040EA012068607047F0
:1038E0002868400E10F001007047286000F0C4B94D
:1038F000706840084000706000F0BEB92DE9F843E0
:103900000400884644D0DFF8246300F0C8F847D2AA
:1039100000F0CDF8074600F0C2F841D000F0ACF955
:10392000C01B0228F7D90320B7E000F0A5F9401B1F
:10393000022843D9F7E700F09FF9A0EB090002281D
:103940004CD9F0E700F098F9A0EB0900022854D90F
:10395000E9E700F091F9401B02285DD9E3E700F0A8
:103960008BF9401B022867D9DDE700F085F9401B81
:10397000484577D3D7E7032802D13968890103E0A6
:103980000028396802D1890762D401E049055FD473
:10399000012082E000F070F9C01B022872D9C2E752
:1039A000207881074FF0B0470BD5B968A06821F0A7
:1039B000F0010143B96000F05FF90546B868C00343
:1039C000B3D52078DFF8505281060AD5296860699E
:1039D00021F0F001014300F067F881462868800378
:1039E000A9D5207841060BD52968A06909090901E4
:1039F00041EA101100F058F881462868C003A1D5AB
:103A0000207841070BD5B968E06821F4E0610143F3
:103A1000B96000F031F90546B868800399D520787F
:103A200001070CD5B868216920F4605040EAC10054
:103A3000B86000F021F90546B86840038FD52078BA
:103A4000C10717D56068022895D1396889039FD5C9
:103A5000B968890840EA8100B86041F2893900F00C
:103A60000BF90546B868616800F00C00B0EB810FF7
:103A70007FF47BAF306800F00700804505D200F08E
:103A800016F8074600F00BF884D100F0FFFB00F0B9
:103A90009FFCBDE8F24300F043BABDE8F283306812
:103AA00000F0070040457047296000F0E5B8316834
:103AB000C90848EAC101316000F0DEB838B54FF0FE
:103AC000B0445C4DA16811F00C0106D1FFF774FC05
:103AD000C0F3031055F8200032BD0429564A05D022
:103AE0000829564804D12168C90222D5104632BDA2
:103AF000E16801F00301022904D0032904D12168FF
:103B0000C90207D5104605E0FFF756FCC0F30310C5
:103B100055F82000E168E268E368C1F306214843F4
:103B2000C2F30211491C5B0FB0FBF1F05B1CB0FB50
:103B3000F3F032BD80B5FFF7C1FF3D49FFE7404AD2
:103B40000968C1F3031152F82110B0FBF1F002BD76
:103B500080B5FFF7EFFF00F010F8C1F3022106E097
:103B600080B5FFF7E7FF00F008F8C1F3C22112F8B3
:103B7000211001F01F01C84002BD2D49314A0968DA
:103B8000704770B52B49B1282EBFCC6AC0F3031023
:103B900051F820402048056800F02AFC28492A4AAC
:103BA00005F00F0551F82510B4FBF1F10024B1FB2D
:103BB000F2F1B0F5007F0FF2B002204609D10FF20A
:103BC0008C0353F820508D4214D2401C0328F8D99E
:103BD00012E00FF2880353F820508D420AD2401CA5
:103BE0000328F8D308E000F047F8801B03280BD324
:103BF000032070BD52F820400C4D2868C00844EAEC
:103C0000C000FFF772FE0646296801F00701A142D5
:103C1000E9D1002070BD0000080100589000005854
:103C2000FFFFFEEE000400588C80C11100400058D8
:103C300008000058684300080024F4000048E80128
:103C400028430008887E000840420F001200000050
:103C500024000000360000004000000006000000C4
:103C60000C00000010000000000000000100000037
:103C7000020000000400000001480068704700BF17
:103C80007410002070470000002200F0B9BB000053
:103C9000964900E0964981B00A6802430A600968C3
:103CA00008400090009801B0704710B500F07CFB10
:103CB000904C606840010ED56068C0000BD400F0E5
:103CC00091FA00F08FFA206840F48030206021687B
:103CD00021F48031216000F0E8F8002000F0AAFB18
:103CE00040B180798449E160E16821F47C5141EA86
:103CF0000021E16000F044F800F0B9F87F48804C02
:103D0000016800220260026902F050020261012093
:103D1000FFF7C0FF0220FFF7BDFF0420FFF7B8FF49
:103D20000120FFF7B5FF0220FFF7B2FF00220F21AD
:103D30000E2000F015F90E2000F02FF900220F21BF
:103D40003A2000F00DF93A2000F027F900216D48E3
:103D500041600F218160046047F6FF71C16000215E
:103D600001618161C16100F077FBA068C008C000FB
:103D7000A06000F015FC4FF0FF3000F0A3FCFAE764
:103D800080B5AEB01CA84821FFF77EFF01A81C211A
:103D9000FFF77AFF08A85021FFF776FF5A4801681D
:103DA00021F4C06141F4007101600B21006800F44E
:103DB000C06000904FF4803200981C914FF48070E6
:103DC0001F90402120910520219000211D922791D4
:103DD0001CA8FFF7FAFA6F2001900221002002913F
:103DE00003900490059006900790012101A8FFF729
:103DF00085FD43F60300089000210E910F914FF4CA
:103E000000404FF4007119901891002002211B907E
:103E10001A9108A800F040FD2FB000BD10B53B4C32
:103E20003B4800F017F84FF40040E06100202062AA
:103E30006062A0622046FEF73DF800212046FFF7B1
:103E400008FA00212046FFF70FFA2046BDE810408F
:103E5000FFF7E2B920604FF4E13060600020A0601D
:103E6000E06020610C2060610020A061704729485B
:103E7000816841F00101816081688907FCD5C168D2
:103E800021F4404141F48041C160C16849084900C2
:103E9000C160016941F00101016101698907FCD537
:103EA000016821F04061016070471B4881B00168E2
:103EB00041F4801101603F21006800F480100090FF
:103EC0000098164841604161016841F47C1101602D
:103ED000026942F47C120261016841F03F01016015
:103EE000026942F03F02026101B070474800005889
:103EF0004C00005890000058FECAFECA80080058C6
:103F000000280040DC16002000040058C4130020E4
:103F1000003801408800005850000058040C005838
:103F200000207047704770470901020081B002D439
:103F30003248815405E0324802F00F02104400F884
:103F4000041C01B070472F4A13684FF6FF010002AE
:103F50000B4000F4E06018432B49084310607047A1
:103F600038B5284B1C68C4F30223C3F10704052CA1
:103F700028BF04241D1D072D34BF0023DB1E01258F
:103F800005FA04F4641E2140994005FA03F35B1E10
:103F90001A401143BDE83440C6E7010007D40122AE
:103FA00000F01F01194B8A40400943F82020704758
:103FB00001000BD4012200F01F01154B8A4040097B
:103FC00043F82020BFF34F8FBFF36F8F704701007E
:103FD00007D4012200F01F010E4B8A40400943F82C
:103FE00020207047010007D4012200F01F010A4B76
:103FF0008A40400943F820207047000000E400E0B8
:1040000018ED00E00CED00E00000FA0500E100E032
:1040100080E100E000E200E080E200E02DE9F84FFE
:104020004FF0000C674A684BDFF8A0814FF00F0992
:1040300082460F4633E0664DAA4514BF0725042586
:104040008D40254348F82E50C1431C6801EA040EF8
:104050007C68E50348BF40EA0E0EC3F800E05C68E8
:1040600001EA040E7C68A50348BF40EA0E0EC3F8BF
:1040700004E0146801EA040E7C68E50248BF40EAE7
:104080000E0EC2F800E0546801EA040E79688C0252
:1040900048BF40EA0E0EC2F804E00CF1010C39688A
:1040A00031FA0CF000F07C80012000FA0CFE1EEAD0
:1040B0000100F2D07C68022C18BF122C4FEA8C0150
:1040C00010D14FEADC040AEB840401F01C05266AD7
:1040D00009FA05FB26EA0B06D7F810B00BFA05F52E
:1040E000354325624FEA4C040325DAF8006097F85F
:1040F00004B0A540ED430BF0030B2E400BFA04FB7C
:104100004BEA0606CAF800607E68012E18BF022E30
:1041100003D0112E18BF122E17D1DAF80860D7F885
:104120000CB02E400BFA04FB4BEA0606CAF80860F6
:10413000DAF8046026EA0E0E7E68C6F3001606FA68
:104140000CF646EA0E06CAF80460DAF80C60354050
:10415000BE6806FA04F42C43CAF80C407C68E400FC
:104160009BD54FEA9C0E58F82E5001F00C0109FA2D
:1041700001F425EA0404BAF1904F08BF00250ED0DF
:10418000144DAA4508BF012509D0134DAA4508BF03
:10419000022504D0114DAA457FF44DAF03254FE70A
:1041A000BDE8F18F81B0002A14BF8161816201B046
:1041B00070470B4A136803421CBF106000F074BACA
:1041C00070470000000800588008005808000140AF
:1041D000001000480004004800080048000C004897
:1041E0000C0800580248016841F480710160704772
:1041F000000400588A60FF2102685162012180F8A2
:104200002110002180F820100020704790F8201025
:10421000012901D102207047012280F820200221CB
:1042200080F82110CA210268516253210368596243
:1042300001688A6842F02002FFF7DCBF32490020A3
:1042400008604FF4E0223148016841F470010160D8
:104250004FF0B041086840F0010008608A602C48C7
:104260000A6802402B480A60036823F005030360D4
:10427000426852085200426000222748C860086124
:10428000086820F4802008608A6170474FF0B041D0
:104290000FF2D4000A68C2F3031250F822008A68B1
:1042A00002F00C02042A04D0082A04D00C2A04D0FC
:1042B0001CE01A481AE01A4818E0CA68CB68C3F331
:1042C000021302F003025B1C022A08BF134802D04B
:1042D000032A08BF1248B0FBF3F2C868CB68C0F3EA
:1042E00006205B0F42435B1CB2FBF3F00D4A0FF25A
:1042F0003803106088681168C0F3031053F8200079
:10430000B1FBF0F01060704708ED00E088ED00E0D0
:10431000FBFEF6FA94000058001004220024F4007A
:104320000048E80198100020010000000300000090
:104330000500000001000000010000000600000070
:104340000A0000002000000002000000040000003D
:104350000800000010000000400000008000000085
:104360000001000000020000A0860100400D0300D3
:10437000801A060000350C0040420F0080841E00A9
:1043800000093D0000127A000024F40000366E019E
:104390000048E801006CDC020000000000000000A2
:1043A00000000000000000000E4810B5016841F454
:1043B000807101600320FFF7C6FD0020FFF7B0FD0C
:1043C0000024002814BF0124FEF7B6FC204610BDCF
:1043D0000548406870470548FFE7016841F0010162
:1043E000016070470040005874100020042004E071
:1043F000DFF80800006800F4C0607047000400584F
:1044000000B500BF130096469446103928BFA0E8B7
:104410000C50FAD85FEA417C28BF0CC048BF40F876
:10442000042BC90728BF20F8022B48BF00F8012B36
:1044300000BD000001460648064AC3798B4218BFFA
:10444000904218BF0838F8D18B4218BF002070473F
:10445000F873FF1F0070FF1F38B5040044D094F8B4
:10446000210028B9002184F820102046FEF704FD21
:1044700000F049F8FF2510B100F03FF834E0216862
:10448000DFF8B0008A6802408A6021688A68636841
:1044900020690343A06903431A438A602168E068E6
:1044A000086120680169A26841EA0241016120684F
:1044B000C16821F08001C1602068C16C8908890051
:1044C000C1642168CA6CE369606903431A43CA6422
:1044D00020688168880609D400F020F830B120688F
:1044E0004562042100F01FF8012032BD20684562BA
:1044F000012184F82110002032BD2068456204218A
:1045000084F821107047022084F82100CA20216815
:104510004862532022685062204626E020460BE085
:104520002068C0F8248084F82110002084F820003E
:1045300070470000BFFF8FFF70B5044640F2E936B8
:104540002068C16821F0A001C160FFF795FB054616
:104550002068C168880606D4FFF78EFB401BB04276
:10456000F6D3032070BD002070BD70B504462068EE
:10457000C1684A0612D44FF0FF32C26040F2E936F9
:10458000FFF77AFB05462068C168480606D4FFF7A6
:1045900073FB401BB042F6D3032070BD002070BDFA
:1045A00010B52A482A4C88B0016841F400410160E6
:1045B00000F0D6FA2749002000F063FCFFF70BFF5C
:1045C0002548016841F480310160026C42F4803278
:1045D000026400F0B0FD0121012000F0C6FA0020C5
:1045E00000F0F3FD012000F0F0FD022000F0EDFDF1
:1045F000012000F012FE0121002000F022FE012126
:10460000012000F01EFE00F073FE144A0021082075
:1046100000F0BBF804F23C500FF24501009001910C
:1046200069460FF2410000F04FFF04F2547002900F
:1046300004F5C96140F23C5005900391049402A82E
:1046400000F0D9FE00F052FE08B010BD080000587E
:1046500020000320DC160020900800580B550008AD
:104660007047000080B500F0FEFE00F0C7FFBDE817
:1046700004400021012000F078BA70474FF0FF306D
:1046800000F020B80021082000F08CB8022000F0D3
:10469000ABB8022000F0B0B8FFF7C0BB13460A4623
:1046A00001460020FEF748BE012805D0022805D0AB
:1046B000102805D101F0D8B801F0D8B801F00DB933
:1046C000704700002DE9FC47554CDFF85891A5696B
:1046D0002840A0614FF0010A4FF0FF3830E0491C3C
:1046E00054F831000642FAD004EBC107184079684B
:1046F0001040014208BFC7F804807E68304000F0D7
:1047000093F860620AFA00F086437E60EFF310814E
:1047100072B6626A20690AFA02F2D243104020613E
:10472000022004EBC00353F8086C1640401E43F807
:10473000086CF6D181F31088606A59F82010884718
:1047400063692069A2691840104207D0E069216AB4
:10475000084203D1002103EA0206C1E701F010FD7F
:10476000EFF3108972B6216960690140A0690142C6
:1047700001BFE169206A0142FFF77FFF89F31088DA
:1047800001F0FFFCA561BDE8F38738B51446EFF3EF
:10479000108572B600F048F8224941F8204085F3B0
:1047A000108831BD10B5EFF3108272B61C4B1C6936
:1047B00004431C6153F83140204343F8310082F335
:1047C000108810BDEFF3108172B6154A536923EAC1
:1047D000000005E0EFF3108172B6114A53691843E7
:1047E000506181F310887047EFF3108172B60C4A64
:1047F000D3691843D061F4E770B5094C656A266A3D
:104800002062012101FA05F502E02846FFF736FF94
:10481000216AE0690842F8D088432662E06170BDF1
:104820004C1000205014002002460020110C0904F6
:1048300004BF1020120412F07F4F04BF0830120290
:104840000FF2180112F0704F04BF001D1201120F79
:10485000C0F11F00895C401A704700000403020287
:10486000010101010000000000000000DFF8EC126F
:104870000A68030903F47F2300019A4300F47F20B0
:1048800000F068B9DFF8D4221368010C23EA014371
:1048900043EA0043136070472DE9F84305460026BC
:1048A0002878DFF8B8724106B0464FF0B0442DD5F5
:1048B000286B70B1B0F5800F06D0B0F5000F18BFAF
:1048C000B0F5400F17D01FE0E06840F48030E060A2
:1048D000C5E0206820F080602060FFF7CDF98146B8
:1048E0002068000140F1A880FFF7C6F9A0EB09009D
:1048F0000228F5D90326AFE0FFF7BEF9A0EB0900C7
:10490000022840F2A180F5E70126B046286801059B
:1049100031D5B86800F44078286C80452AD0FFF77C
:1049200061FCB8F1000FB96805D1286C21F4407121
:104930000143B9601EE0B86840F48030B86021F4EB
:104940004071B86820F48030B860286C0143B960C9
:10495000B868C0070ED5FFF78FF9804641F2893954
:10496000B868800706D4FFF787F9A0EB0800484530
:10497000F6D30326B0462878C10705D53968A8695B
:10498000890840EA810139602878810705D53968AE
:10499000E86921F44061014339602878C10644BFC9
:1049A000A86AFFF76FFF2878810644BFE86AFFF71F
:1049B00069FF2878410744BF286AFFF757FF287826
:1049C000010744BF686AFFF751FF2868C1055CD53D
:1049D0003968686B21F0406101433960686BB0F160
:1049E000006F03D1E16841F08071E160686BB0F164
:1049F000806F4AD100F0A0F806462068000135D546
:104A0000FFF73AF9801B0228F7D94FF003083CE082
:104A1000FFF732F9801B022830D9F6E7FFF72CF9AF
:104A2000801B022852D94FF0030861E0FFF724F9F8
:104A3000801B022855D9F6E700F075F8A86821F424
:104A4000781100F07FF88146206800017FF554AFAF
:104A5000216968690143216130007FF456AF3968EC
:104A6000286B21F44001014339604FE700F05BF807
:104A7000E86821F0606100F065F8064620680001F2
:104A8000C6D521696869014321612868810505D57A
:104A90003968A86B21F0404101433960286841051D
:104AA00026D53968E86B21F0405101433960E86B45
:104AB000B0F1005F03D1E16841F48031E160E86B5F
:104AC000B0F1805F14D100F037F80646206800018D
:104AD000A4D400F028F8286921F0604100F032F8F1
:104AE000064620680001A1D521696869014321615A
:104AF0002868C10405D5F968686C21F44041014378
:104B0000F960286881040BD5616AE86C21F03001F6
:104B100001436162616AA86C890840EA81016162AF
:104B20004046BDE8F2832069696820F4FE4040EA0F
:104B30000120206121697047216821F08061216096
:104B4000FFF79AB801432161206840F0806020603F
:104B5000FFF792B8104308607047000088000058C3
:104B60000C48002101604160704710B500F00CF85E
:104B70005C6819B1012904D1204301E024EA000056
:104B8000586082F3108810BDEFF3108272B6014BAB
:104B90007047000064170020DFF83C150A6892B2E5
:104BA00000E00246086880B28242FAD170472DE9DF
:104BB000FC4104461825DFF82485DFF824656843A6
:104BC00008EB00073078062808D13178717034700E
:104BD00078754FF0FF307060002039E000F077F812
:104BE000B9680918B96008F10803B96832786A43EE
:104BF0009A589142327813D308F1150315FB02FC41
:104C000013F80C30062B25D008F108066B43F35837
:104C1000994222BF08F115036A439A5CEED219E06B
:104C20001146337869439A420BD008F1140308F116
:104C3000150C5B5C15FB03F50CF805407A753B75AC
:104C400000E07A7508F114025454317871703470B0
:104C5000BDE8F6811146694308F115035B5C062B3C
:104C600004D008F1140615FB03F574557B753A75ED
:104C700008F115025454EBE7F8B5DFF86434DFF8B7
:104C80005C541E78182402466243B0422A4404D180
:104C900018785870507D18700FE0167D507D92F88E
:104CA00015C005F115076643062807F806C004D0AD
:104CB000167D143514FB00F42E550120107318785E
:104CC000062802BF00294FF0FF315960F1BD10B531
:104CD000DFF80C44606810F1010F0FD0FFF75CFFA4
:104CE0006168DFF80024814261683CBF5388C918BD
:104CF000081A517848431178C84000E0002080B27B
:104D000010BD2DE9F84FDFF8DC53DFF8DCB3D5F840
:104D10000880D8F80000DBF800104A0500F090F990
:104D2000DFF8BC63DFF8B4A321F4806181604FF049
:104D3000180934780AF1080019FB04F14758FFF705
:104D4000C6FF874217D200270121B170062C3DD043
:104D500019FB04F40AF108010AF108020959814219
:104D600023BF0AF108010959091A002111510AEB60
:104D700004014C7DEAE7A9884118B94202D2AF8804
:104D80000021E2E73F1ADFE7022802DA287801284B
:104D900000D07F1ED8F80000C1684A07FAD500F09D
:104DA00055F9DBF80C00000CBFB247EA0047CBF81E
:104DB0000C70FFF7F1FE7060A8680068816841F42C
:104DC00080618160AFF30080BDE8F18FB8B2002848
:104DD000DAD1FFF7E1FE70600320BDE8F24FFFF784
:104DE000F6B82DE9F843EFF3108872B6BD4DBB4B12
:104DF000A8680168CA224A6253204862B84A886893
:104E000020F48060886018201678374647431F4496
:104E1000387B022826D13C68D7F810909078F0B102
:104E20007A7B012A0AD101213046FFF725FF88F35A
:104E300010887968304600F016F904E088F310888D
:104E4000304600F0C1F8A8680068CA2141622246D5
:104E5000532141624846314600F050F90BE0FFF71C
:104E600050FF06E0C8684207FCD500F07EF89F4975
:104E7000086088F31088FF21A86802685162BDE8C5
:104E8000F183F8B5974CA160CA2209684A6253229F
:104E90004A62954A136843F020031360136803F0D5
:104EA0000703C3F10403237095682D0C05F07F05FB
:104EB0006D1C6570EDB29268C2F30E02521C6280E6
:104EC00092B2521E6A43A2F5A072DA404FF6FF7307
:104ED0009A422CBFA380A280854A136843F4002322
:104EE0001360844B1D6845F400251D6048BB7C4859
:104EF0007A4E0123837018254FF0FF33436000235F
:104F00005FFA83FC06F10C0715FB0CFC4FF0000E5A
:104F100007F80CE05B1CDFB2062FF1DB0623037001
:104F2000886820F48060886000F01FF8D06003205B
:104F3000FFF758F8A1680868826842F480428260EE
:104F400005E0C868410544BF0320FFF740F8A168A9
:104F50000A68FF205062002203210320FFF700F8B7
:104F6000BDE8F2400320FFF718B8C86800F08000E1
:104F700060F49060C8604FF400207047F0B50446BC
:104F80000025EFF3108672B61827DFF850C10CF138
:104F90000C0007FB05FE10F80E0010B16D1C062D6D
:104FA000F5DB062D0CD06F430CEB070001270773D0
:104FB00086F310880461427303600D700020F0BD19
:104FC00086F310880120F0BDF8B50746EFF3108492
:104FD00072B60320FEF7ECFF424DAE683068CA217E
:104FE00041623A4653214162182043494243895C59
:104FF00002291BD100213846FFF73EFE38480178D0
:1050000006290ED1306838490A68530500F018F8AF
:1050100021F480618160C1684A07FCD500F016F870
:1050200004E04078884218BFFFF76BFEA9680A6861
:10503000FF2050620320FEF7B0FF84F31088F1BD1B
:1050400002D5C1684A07FCD481687047C16801F085
:10505000800161F49061C1604FF400202349086031
:105060000320FEF7BFBF2DE9F04180460F464246C0
:1050700018201A4942438C18207B022804BF40465E
:10508000FFF7A2FFEFF3108572B60320FEF790FF43
:10509000144EB0680068CA21416253214162022067
:1050A0002073A76067604046FFF781FD0C490A78CE
:1050B0004978914202D0FFF724FE02E0A168081A65
:1050C000A060FF20B1680A6850620320FEF765FF08
:1050D00085F31088BDE8F08128280040A812002040
:1050E0009C17002044170020082800400C08005896
:1050F0000008005880080058B41200201047000033
:1051000038B5EFF3108472B6284D6946281D01F0BA
:1051100052F96946281D01F0ABF938B184F31088C3
:10512000BDF80010224AFFF7B9FA31BD01202870FE
:1051300084F3108831BD80B5FFF7AEFA02210091EB
:1051400000231A4800F124014FF48052001D01F0A1
:1051500019F801BD00BFF8B514460026EFF310851D
:1051600010F1010F1ED001281CBF02284FF0FF369E
:1051700018D1BCB1264672B60C4F012392B2381D2D
:1051800001F014F800281CBF3978002908D000224B
:105190003A7085F31088A1B2054AFFF77FFA01E063
:1051A00085F310883046F2BD000000002800002082
:1051B00001510008444981B00A6802430A60096845
:1051C00008400090009801B0704778B585B004465B
:1051D00068461421FEF758FD0220FFF7EBFF00F0B0
:1051E00010F8009501200190002102200390029107
:1051F000694656F82400FEF711FF00F008F806B0E3
:1052000070BD0FF2D400314E30F81450704756F88C
:10521000240000222946FEF7C5BF0FF2BC012B4B2C
:1052200031F8101053F820000122FEF7BBBF0FF237
:10523000A801264B31F8101053F820000022FEF789
:10524000B1BFF0B585B005460C4668461421FEF79F
:105250001BFD0DB9042004E0012D18BF022D02D161
:105260000820FFF7A7FF2000194E0FF274070DD199
:1052700037F81500009000210191012002900221D1
:10528000039100F01BF80120FEF74CFE012C13D116
:1052900037F81500009001210E480190029100F0AE
:1052A0000DF80FF24400445D00220F2160B2FEF7BA
:1052B00057FE60B2FEF771FE05B0F0BD694656F8C4
:1052C0002500FEF7ABBE00004C0000588010002007
:1052D0008C100020000021102000010002000000BE
:1052E00010000100020000000A06070001F07EB96C
:1052F0006B486C49016001F12002426001F130020B
:10530000826001F13C02C26001F14402026101F1DC
:105310006002426101F1640282617031C16101F099
:105320006DB938B50446604D05F1100001F0CAF9B9
:105330005B494868A1680160E168C160456005F1AA
:105340001001816001F076F958482DE080B554498C
:105350004A6813680120187201F072F9002002BD3A
:1053600038B5524C504D07E0694605F1100001F088
:10537000D5F900982168884705F1100001F0A5F9DA
:105380000028F1D031BD49484168084738B5044686
:10539000474D284601F096F94148C068A168016070
:1053A000456001F052F9434821680160616841603D
:1053B000002032BD80B53A49CA68136810201872BF
:1053C00001F049F9002002BD3549CA683949106821
:1053D0000B68184738B5374C354D06E06946284606
:1053E00001F09CF9009861688847284601F06DF942
:1053F0000028F3D031BD38B504462F4D284601F0C2
:1054000061F92E4801F05EF925480069A1688160C4
:10541000E168C160056121680160616841602169DE
:1054200041616169816131BD80B50146234801F068
:105430005FF9BDE802400FF2090001F01CB900005D
:1054400038B5174C1D4D08E06946284601F066F94D
:1054500000992069006901F04BF9284601F035F9FF
:105460000028F1D031BD10B5154C204601F02AF9C5
:105470000B4841690C60BDE8104001F010B91CB543
:105480000F4C06E06946204601F048F9009800F00C
:1054900019F8204601F019F90028F3D013BD0000D7
:1054A00000000320AC0903208008032074170020AB
:1054B000980803207C170020240A03206C17002082
:1054C0002C0A0320704700007FB50C46484D6168E8
:1054D000484EE8612962284601F032F92468746078
:1054E00006F1080001F0EEF8012000F05DF801205F
:1054F0003070296841B10FF2D5000FF2D902009047
:1055000001920294684688477FBD3EB5384C394DBC
:1055100002E00098FFF788FF05F1080001F0D5F8D8
:10552000D8B92878002818D0694605F1080001F09C
:10553000F5F801202870E1690029EAD0009802906E
:1055400001A888479DF8040028700028E1D100993F
:1055500005F1080001F0C2F8DEE737BD2DE9F041A2
:1055600005460E4690461C46002000F01DF8214FCF
:105570007868A0F80950C672324641460C30FBF7F5
:10558000ABFE1B4A136900210020984748F2E8004F
:10559000FFF77FF879688A78D21C04F10800FBF7DE
:1055A0009BFEBDE8F04101201CB51149124C096A6F
:1055B00020B901B188470020207013BD0120207060
:1055C00011B1BDE81C40084713BD00000020FFF7E3
:1055D0005DB8000010B50146064C04F1080001F06A
:1055E00087F804F10800BDE81040FFF74BB8000051
:1055F00000170020341700205917002038B58EB04E
:1056000002A80FF64C31DFF830453022FBF774FE6C
:105610000FF289500190009469460FF26950DFF84B
:105620001C4501F097F801210220FFF79EFADFF8F0
:10563000102500210420FFF7A8F802A801F06AF95C
:1056400000F04CF901F06EF9002084F8900004F1AC
:1056500026054FF6FF70288000210FF2A14201209D
:10566000FFF793F8062001F0E8F9DFF8D8040021ED
:1056700001700121417001F076FA0FF2E54300223A
:1056800004F191010020FFF779FC0FF2DD430022C5
:1056900004F192010020FFF771FC00206880802156
:1056A000DFF8A4040180A0214180012000F0BDF9B1
:1056B0000FB030BDF8B50746DFF880447878DFF8E2
:1056C0008C54052804F1900604D03E2812D0FF28FF
:1056D0005FD0C7E0B888E18C884206D10020E08422
:1056E00030700FF2CC4001F049FB012000F09DF931
:1056F000012047E0F87801282BD0032802D00C289D
:1057000003D0AFE00FF2D040A2E00FF2F84001F07A
:1057100035FB387900280CBF0FF204500FF22850E7
:1057200001F02CFBE08C6A460DF1010101F064FBF5
:1057300060B90FF23C5001F021FB9DF800209DF86C
:1057400001100FF2405001F019FB8BE00FF25050A6
:105750007EE07078FFF738FCB7F805100FF25C5068
:1057600001F00CFB307804280CBF062005203070B7
:105770000021B7F80500E08468802970284601F010
:10578000ECF900202870E08C6880284601F0E5F9EB
:1057900068E0B7F80300001F5DD04FF47F71401A36
:1057A00014D0401E45D0401E13D0401E18D0401EBD
:1057B00019D0401E1AD0401E22D0401E46D0401E96
:1057C0001ED0401E22D0401E1DD04BE00FF22050B4
:1057D0003EE00FF2485001F0D1FA0FF2685037E086
:1057E0000FF2805034E00FF2A85031E00FF2D050A9
:1057F00001F0C4FAE08C01F07CFC0FF2E45027E0E9
:105800000FF2F85024E00FF2186021E0D7F80710EB
:105810000FF2386001F0B2FAD7F807100FF24060CB
:1058200001F0ACFAE08C012101F0B1FC0FF2406014
:105830000EE0F9790FF2786001F0A0FAF87900280B
:1058400014BF0FF2D8600FF2C06001E00FF2E06009
:1058500001F094FA06E00120FFF7DFFCB0780A219E
:10586000FFF701FC0120F2BD01F097B91CB5B34C64
:1058700094F89000012818BF00282DD0B148417835
:10588000012929D1002201784270491C01EBD17213
:105890005210A1EB42010170F7EE040A017800EB0F
:1058A00081004FF4FA7190ED010AE08C0091C0EE96
:1058B000200AFDEEE00A10EE902A92B20023114673
:1058C00001F07FFCBDE8164000280CBF0FF2F87015
:1058D0000FF6240001F052BA13BD704778B589B0B5
:1058E0000020ADF81A0001F05DFA994D994E286834
:1058F00010F1010F0ED069683074090A020A000C19
:10590000B074727406F1100468683175F074090A95
:10591000717506E00020FEF78DFD040008BF0FF64C
:10592000000422460621002001F052F8607930720E
:1059300007AA207970720621E078B072A078F07220
:105940006078307320787D4C70734EF66E500890FE
:10595000286807902E2001F03BF80FF2CC7210213E
:10596000182001F035F80FF2D0721021082001F054
:105970002FF81821012001F052F801F055FC0DF12B
:10598000160006A90190009105AB07220021012015
:1059900001F03CFB0FF2C050BDF818100090072337
:1059A000BDF81400002201F0FFFC0DF11A00009078
:1059B0000223BDF81610BDF81400002201F0F4FC1B
:1059C00002220221002001F04AFA0020207001F09A
:1059D000D1FA012060700020E0700820607510206E
:1059E000A075012020755C48A0610120A0700020F6
:1059F000C1B221440871401CC1B21029F8DB00205B
:105A000004900023A069617803900022207D029019
:105A1000A07D0190607D0090A07801F0C4FAA0788C
:105A200008B101F04BFB0AB070BD2DE9F841044606
:105A3000012C87B003D144480588478803E04FF420
:105A4000C8654FF47A67DFF8F48008F19006707843
:105A5000FFF7BAFA31780FF2085001F08FF9022CF3
:105A600011D13078012818BF02280CD101F027FA93
:105A7000010004D10FF2045001F080F903E00FF2AD
:105A8000205001F07BF9347000200690059008F159
:105A900029010491082298F828000FF2AC610390C4
:105AA00002910192002300933A462946002001F01A
:105AB00018FA28490E2001F0D9FA010013D1012C5F
:105AC0000AD10FF2045001F059F97078234908B057
:105AD000BDE8F041FFF7C7BA08B0BDE8F0410FF2EA
