:020000040800F2
:100000000810002085920008B58F0008B78F0008FF
:10001000B98F0008BB8F0008BD8F000800000000EA
:10002000000000000000000000000000BF8F00087A
:10003000C18F000800000000C38F0008C58F0008B2
:1000400095920008999200089D920008C98F0008B7
:10005000A1920008A5920008079000080D900008E2
:10006000A9920008AD92000801900008B192000822
:10007000B5920008B9920008CD8F0008BD92000823
:10008000C1920008C5920008C9920008CD920008EC
:10009000D1920008D5920008D9920008DD9200089C
:1000A000E1920008E5920008E9920008ED9200084C
:1000B000F1920008F5920008F9920008FD920008FC
:1000C0000193000805930008099300080D930008A8
:1000D000D38F0008D98F00081193000815930008EA
:1000E000199300081D930008219300082593000828
:1000F000DF8F0008E38F0008E78F000829930008CE
:100100002D930008319300083593000839930008B7
:100110003D93000841930008459300084993000867
:100120004D93000851930008EB8F00085593000889
:10013000599300085D930008619300082DE9F14F81
:10014000B2B09A46914600230691CDE900333C9A1D
:100150000F930DF14A0114914A7011E0329E4F46FF
:100160002C4617F8011B0698B0470028069000F0AF
:1001700026810F98401C641E0F90F2D13296A9443C
:1001800099F80000252808D10021002209910A923F
:100190000B910C920D910E920FE06A464FF0FF31D9
:1001A000484601F01BF8050002D10F9800F00CBE84
:1001B000D4D50125E3E741F0010119F8010F20280A
:1001C000F9D023280CD02B2804D02D2805D0302896
:1001D00009D00BE041F00201EFE741F00401ECE748
:1001E00041F00801E9E741F01001E6E72A280FD1C4
:1001F000DAF8002052F8040BCAF800200028119009
:1002000003D54042119041F0040109F1010914E0C5
:100210001192DFF8503B0AE01198984205DA00EBA2
:10022000800402EB4402303A119209F1010999F875
:100230000020A2F130000A28EED399F800002E2801
:1002400003D04FF0FF32109229E019F8010F2A284D
:1002500009D1DAF8000050F8042BCAF80000109217
:1002600009F101091BE02D280CBF09F1010900204B
:1002700000221092DFF8EC2A0BE040B9109B934269
:1002800005DA03EB830504EB4504303C109409F1D7
:10029000010999F80040A4F130030A2BEDD3ADF821
:1002A00048100FF6C42099F8001000F0A1FF08B123
:1002B00019F8010B8DF84A009DF84A00682805D10D
:1002C00099F8000068280CD1622106E06C2804BF70
:1002D00099F800006C2804D171218DF84A1009F1B9
:1002E00001091FA8089019F801BBBBF125012DD009
:1002F0001C3900F06281091F022940F25E810E392B
:100300002AD0491F00F06584093900F05681891E02
:1003100000F0FB84491E00F0A784491E022940F228
:100320004C81091F00F0A084491F00F0BB80491ECA
:1003300000F04F84491E65D0C91E21D0891E00F0EF
:100340004884C91E00F0458400F0FEBC25238DF8CA
:100350007C30012109912AE06C208DF84A00DAF8FE
:10036000000050F8042BCAF80000002A43D1149969
:10037000487800283DD04FF0FF340FF6F41012E01B
:100380009DF84A006C28EAD0DAF8000050F8044BD7
:10039000CAF800000794D4B91499487898B14FF07E
:1003A000FF340FF6E81000F02FFF201A07D1329823
:1003B0001FAA04A900F00BFD00287FF5E1AE4FF065
:1003C000FF3000F001BD0FF6E0100790EFE7109D41
:1003D000002D04D5204600F037FF044607E02A46EA
:1003E000204600F04DFF002814BF041B2C460A9441
:1003F000DDE70FF6B812329804A900F06EFD002870
:10040000D5D5DCE7DAF8001051F8040BCAF8001073
:1004100020F00004002121F0FF351FABCDE9044599
:100420000793DDE9042308993C2413B90AB910980D
:10043000A0B102F00F05641E30353A2D08DA12091A
:100440000D5542EA03721B0908BF002A02D105E0DC
:100450002735F4E707980D19A842EAD30819079041
:10046000C4F13C0210980A92824209DABDF84810A1
:10047000821A4FF6EF7001400C92ADF8481096E7E3
:10048000002894D59DF8480000F0140010288ED163
:10049000119B09990C985B1A1B1A9A1A002A86DD7F
:1004A0000C9284E71499487820B14FF0FF340FF68E
:1004B000001078E79DF84A00622862D0682819D0B9
:1004C0006A2840D06C2806D071284DD074282DD0D1
:1004D0007A281ED064E0DAF8001051F8040BCAF84C
:1004E000001020B94FF0FF340FF640405BE70F9942
:1004F00001605CE7DAF8001051F8040BCAF800104C
:1005000020B94FF0FF340FF624404CE70F990180DB
:100510004DE7DAF8001051F8040BCAF80010002873
:10052000E5D14FF0FF340FF604403CE7DAF8001055
:1005300051F8040BCAF800100028D8D14FF0FF344E
:100540000FF6E8302FE7DAF8001051F8040BCAF87C
:10055000001020B94FF0FF340FF6D03023E70F9A88
:10056000D317C0E9002322E7DAF8001051F8040B92
:10057000CAF800100028F2D14FF0FF340FF6AC306B
:1005800011E7DAF8001051F8040BCAF8001020B98E
:100590004FF0FF340FF6943005E70F99017006E72E
:1005A000DAF8001051F8040BCAF8001000289ED1A8
:1005B0004FF0FF340FF67430F5E6DAF80020D21D64
:1005C00022F00702CAF80020D2E900010832CAF876
:1005D0000020CDE90401C80F02D009982D210AE0BE
:1005E000BDF84800810702D509982B2103E0C00718
:1005F00005D5099820211FAA1154401C09901FA855
:100600000999DDE9044543184BF020006128079360
:1006100015AE0BD01098002802D50620109005E0EA
:1006200001BF4BF02000672801211091DDE9040192
:1006300048004015401C0A4611D109030FD0ABF108
:10064000610703201A2F0A9002D20FF6F82101E069
:100650000FF6F4210322184600F03EFEA7E650B93B
:10066000120308D1ABF1610703201A2F0A9018D3A7
:100670000FF6DC21EEE7DDE9040102AA00F038FE06
:10068000CDE904014BF02000612811D107983021F9
:100690000170821C0792BBF1610F0CBF78215821B9
:1006A00002E00FF6A821D5E741700998801C099057
:1006B000DDE9040120F0000231F0004308BF002A08
:1006C00002D10025002446E14BF02008B8F1610F6B
:1006D00040F095801098002847BF21210391401CCD
:1006E0000390039F7F1C2046294600220023DDE95A
:1006F000044500F035FE38BF85F0004502998DF8BD
:100700005420091F002F02910DF1550034DD0646DB
:10071000204629460022002300F03CFE2BD21C225A
:1007200000F052FE04460D4600F0ECFEFF1F002FC5
:10073000804609DD00F002FF02460B4620462946AE
:1007400000F0C4FF04460D46F01D0721B8F1000F6C
:100750000CDD491E5EBF08F00F0200F8012D4FEAC4
:100760002818F3D502E0002200F8012D491EFAD521
:10077000C61D002FCCDC30460DF15501401A0399FF
:100780000DF1550605468842C8BF0D46002D2FD4F1
:10079000854206DA0DF15500415D0829A8BF0F20FA
:1007A00000DA0020294615AA0A4400E06D1E12F85E
:1007B0000139491E8342F9D00F2804D10DF15500AB
:1007C000425C521C4254002904D50298001D15AE0B
:1007D0006D1C0290681E0BD431180A783032D3B2E7
:1007E0003A2BA4BF5A443A3A401E01F80129F4D5E5
:1007F0001098002840F1AE80691E1091AAE002997D
:10080000DFF8E82847F29750414391FBF2F2029259
:1008100025F00045C2F10702002A04DD20462946E2
:1008200000F041FC0BE052420020DFF8C41800F059
:100830003AFC02460B462046294600F0B9FF044622
:100840000D46B8F1660F06BF029F0A3706271098BB
:100850003F18142FC8BF142730208DF854000020F3
:10086000DFF89018CDE92E010DF15506002F33DD8C
:100870002046294601F0C0F801460A4606F1080361
:1008800004200A26B2FBF6F606EB860EA2EB4E0219
:10089000303203F8012C0A22B6FBF2F202EB820E90
:1008A000A6EB4E063036401E03F8026DE9D1083F34
:1008B000002F03F10806D9DD084601F0AFF8024623
:1008C0000B462046294600F001FFDDE92E2301F00A
:1008D000B3F804460D46CBE70DF15500301A0DF183
:1008E000550604E00299491E401E0291761C31789B
:1008F0003029F7D0B8F1660F02D10299491C04E003
:10090000B8F1650F0CBF01210021109D4D19A842BF
:10091000B8BF451E002D1DD4854204DA705D342811
:10092000C8BF392000DC30202946721E531800E071
:100930006D1E13F80149491E8442F9D0392802D1AD
:10094000705C401C7054002904D50298401C164667
:100950006D1C0290029C00F045FC406A0778DDF8AF
:10096000408028B2002802DC01250FF2E8764BF027
:100970002000662808BF641C16D0672846D120B224
:1009800010F1040F48DB404546DA9DF84800641C2E
:10099000010703D428B24045D8BF804620B2B8EB47
:1009A000000848BF4FF000080FFA84FB07980A9927
:1009B000BBF1000F00F3B3804A1C0A92302343546A
:1009C000B8F1000F03DC9DF84800010704D50A9830
:1009D000411C0A9107990F5418EB0B0FB8BFC8F1CF
:1009E000000424B26042A0442AB20D909045B8BFE2
:1009F0004546079B0A982DB20B952A463146184466
:100A000000F06AFCA8EB05000E90CCE0BBF1610F92
:100A100017D14FF0700B19E028B2404504DA9DF869
:100A200048100A0758BF8046B8F1010848BF4FF088
:100A30000008BBF1670F14BF4FF0450B4FF0650B7B
:100A400004E0BBF1410F08BF4FF0500B0A98411C66
:100A50000A91B8F1000F079916F8012B0A5403DC2C
:100A60009DF8480001071AD50A98411C0A91B8F16F
:100A7000000F07990F5412DD6D1E28B28045B8BFD4
:100A8000454607980A9B2AB23146184400F024FCD8
:100A90000A992DB269180A91A8EB05000D900798E4
:100AA0000A99084421B2002980F800B003D42B220F
:100AB0004270821C04E02D2242700C46821C64426B
:100AC00000212EAB20460AE004460A2094FBF0F0F9
:100AD00000EB8005A4EB450403F8014B491C00B270
:100AE0000028F1DC012906DC4BF02000652804BF5A
:100AF000302002F8010B00292EAB08D1302002F87B
:100B0000010B06E0491E585C303002F8010B002949
:100B1000F8DC07990A980844121A0B9243E008443B
:100B200029B222B2914219DA2AB2314600F0D4FB3E
:100B30000A992DB269180A91ABEB0500B8F1000FC4
:100B40000D9003DC9DF84800020704D50798475430
:100B50000B99491C0B91CDF8388024E0314600F008
:100B6000BBFB0A982D1B5844B8F1000F0A9003DC18
:100B70009DF848100A0703D5411C0A9107990F54A4
:100B800028B28045B8BF454607980A9B2AB206EBB3
:100B90000B01184400F0A0FB0A982DB228180A9007
:100BA000A8EB05000D909DF8480000F014001028F7
:100BB0007FF4FDAB099A0A990D988A180B9982184F
:100BC0000E988A18821811988242BFF6F0AB821AEA
:100BD00066E49DF84A00622808D068280ED06A288A
:100BE00014D06C281FD0712810D01CE0DAF8001047
:100BF00051F8040BCAF80010C0B21AE0DAF800107D
:100C000051F8040BCAF8001080B212E0DAF80020A4
:100C1000D21D22F00702CAF80020D2E900010832F2
:100C2000CAF8002006E0DAF8001051F8040BCAF800
:100C300000100021CDE904019DF8480001075AD5B4
:100C4000DDE90423002B08BF002A54D04BF020001C
:100C5000782850D109981FA930220A54401C431CFF
:100C6000099301F800B046E09DF84A00622808D0D8
:100C700068280ED06A2814D06C281FD0712810D094
:100C80001CE0DAF8001051F8040BCAF8001040B26A
:100C90001AE0DAF8001051F8040BCAF8001000B29C
:100CA00012E0DAF80020D21D22F00702CAF8002074
:100CB000D2E900010832CAF8002006E0DAF8001094
:100CC00051F8040BCAF80010C117CDE9040100293E
:100CD00002D509982D210AE0BDF84800810702D508
:100CE00009982B2103E0C00705D5099820211FAAE8
:100CF0001154401C09901FA809990144079104A8A8
:100D0000594600F04AF9FFF752BB9DF84A006C289B
:100D10000BD001210991DAF8000050F8041BCAF841
:100D200000008DF87C10FFF742BBDAF8000050F8A5
:100D3000041BCAF8000002914FF0FF32109200210C
:100D4000039102AAFFF757BB25210122BBF1000F37
:100D50008DF87C1009923FF42AAB8DF87DB002210A
:100D6000FFF7F8BACBCCCC0C686A6C747A4C0000F4
:100D70007072696E74665F733A2062616420256CDC
:100D80007320617267756D656E7400007072696EB4
:100D900074665F733A206261642025732061726714
:100DA000756D656E7400000000000000000000001A
:100DB0007072696E74665F733A20256E2064697381
:100DC000616C6C6F7765640033B0BDE8F08F2DE91E
:100DD000FC410F46064690467A6B7869396ABC6AD0
:100DE000121AB869521A796A121AF869521A121A42
:100DF00097F83800141B41070FD42020002C8DF8E1
:100E000000000ADD254601236A463946304600F0D7
:100E100075F900285DD16D1EF5D17B6942463946D2
:100E2000304600F06BF9002853D130208DF80000D7
:100E30003D6A002D09DD01236A463946304600F03F
:100E40005DF9002845D16D1EF5D1BB69FA683946B8
:100E5000304600F053F900283BD130208DF80000D7
:100E60007D6A002D08DD01236A463946304600F0D0
:100E700045F970BB6D1EF6D1F868B969FB69421877
:100E80003946304600F03AF918BB30208DF80000A2
:100E9000BD6A002D08DD01236A463946304600F060
:100EA0002DF9B0B96D1EF6D197F8380041070DD570
:100EB0002020002C8DF8000008DD01236A46394609
:100EC000304600F01BF920B9641EF6D10020BDE8C1
:100ED000F6814FF0FF30BDE8F6812DE9F8470D4669
:100EE000A3B02F6B82469046002F48BF6FF000479B
:100EF00000F077FE696B401801AA0021C2E90011D9
:100F0000812828BF4FF0FF3044D289461EE0A74217
:100F100030DB6869201881280BD30021696303AA9C
:100F200029465046FFF753FF5FEA000922D400200C
:100F3000686103AB6E6922466946981900F0CCF9E6
:100F4000A6196E6158F8040BA0B13F1B002F11DDEC
:100F5000D8F8001001AA684600F042F90446002CB7
:100F600005D4D8F800000028D1D1641ECFD54FF0A9
:100F7000FF390EE0B9F1000F504604D103AA29460B
:100F8000FFF725FF8146B9F1000F02D1002068610B
:100F90006863484624B0BDE8F0872DE9FC43044669
:100FA0006F29256908BF082605D041F02000782860
:100FB00014BF0A261026D4E900233C279046994600
:100FC000642918BF692905D1002B03D5D8F1000881
:100FD00069EB4909B9F1000F08BFB8F1000F0CD156
:100FE000206B50B9082E3AD194F83800010736D555
:100FF00030203B2785F83B0031E08DF8001040465B
:1010000049463246F31700F0F1FD3032D0B27F1E70
:101010003A2801970EDAEA55404649463246F31718
:1010200000F0E4FD80465FEA010908BFB8F1000F57
:1010300005D108E09DF800001218513AEBE7E0688E
:10104000E9198842DBD3082E09D194F8380001074A
:1010500005D5E85D302802D07F1E3020E855C7F165
:101060003C02A261E919E160206B824208DA821A2F
:1010700022624FF6EF70218F01402187BDE8F38394
:1010800000280ED594F8380000F01400102808D17C
:10109000636B6169206A5B1A1B1A9A1A002AC8BF1F
:1010A0002262BDE8F3832DE9D04306460F4614467D
:1010B0004FF00008DFF8409012E0E00707D5424605
:1010C0004B463046394600F0B7FC06460F464046D0
:1010D000494642464B4600F0AFFC641080468946C4
:1010E000002CEAD130463946BDE8D083A086010005
:1010F0000000F03F84D7974100002440F8B5054632
:101100000E4617461C4600205CB117F8011BB0685C
:10111000A847B06030B1F06A401CF0620020641E45
:10112000F3D1F2BD4FF0FF30F2BD00007072696E76
:1011300074663A2062616420256E20617267756D65
:10114000656E74006E616E004E414E00696E660001
:10115000494E46003000B1F5807F02D34FF0FF309A
:1011600070470170012070470078401E8041C043E5
:10117000C00F70471C48704770B45368D41801E022
:101180005B1C491E042B08DA00291FBF057804F8F0
:10119000015B10F8016B002EF2D1536070BC7047F8
:1011A00038B514461D4661B1FFF7E6FF61686A6B0A
:1011B000204690476FF00102811A02D0491E01D0EB
:1011C00001E003E005E00021616032BD6FF0010045
:1011D00032BD4FF0FF3032BDDA6B1047024BDFE714
:1011E000014BF9E7014870472C200020BC2000206B
:1011F000C9B202788A421AB11CBF10F8012FF9E770
:1012000018BF002070472E0080B500B906A0054920
:101210000B681BB122220021984701E000F069FD14
:10122000222002BD9C270020636F6E737472616977
:101230006E742068616E646C65723A20626164202D
:101240006D6573736167650000F10103810704D068
:1012500010F8011B820781B1FAD10268A2F10131B5
:10126000914311F0803104BF50F8042FF6E709BA1A
:10127000B1FA81F100EBD100401CC01A7047430065
:10128000C9B2830706D0521E22D310F8013B9942FF
:10129000F7D11FE0083A13D302F1040241EA012119
:1012A00041EA014150F8043B121F21BF4B40A3F11A
:1012B000013C2CEA030C1CF0803FF3D0C9B2001FA4
:1012C000083210F8013B521E28BF91EA030FF8D8EC
:1012D00018BF0120401E70474AB1000011F8013BC1
:1012E000521E00F8013B1CBF11F8013BF8E77047A4
:1012F00010B5144600F002F8226010BDC1F30A5385
:1013000043B14A0012F5001F28D2A3F2FE32A1EB2E
:101310000251704750EA410C20D001F0004C31EAF4
:101320000C01B1FA81F204BFB0FA80F3D2180B3A83
:10133000B2F120032CBF00FA03F1914041EA0C0105
:101340003EBFC2F1200C20FA0CF3194390405242E8
:1013500040F2FD33D21A01EB03517047002270476F
:1013600041EA030C50EA4C0C52EA0C0C4FF4001CFE
:1013700009D307D01CEB410F9CBF1CEB430F8B42E2
:1013800008BF824270471CEB430FFBD8994208BF4D
:101390009042704741EA030C50EA4C0C52EA0C0CA4
:1013A0004FF4001C09D307D01CEB410F9CBF1CEB72
:1013B000430F994208BF904270471CEB410FFBD886
:1013C0008B4208BF82427047124254D440F2FF7CE5
:1013D0001CEA11530FD0634531D09B1863453CBFC5
:1013E00001EB0251704701F0004141EA0C5100202D
:1013F000AFF30080704750EA410320D001F0004C69
:1014000091EA0C011CD0B1FA81F30B3B9A420DD941
:10141000D21A994051EA0C01C3F1200C20FA0CFCBD
:1014200061449840531C40F2FF7CD7E7914041EA69
:101430000C01C2F1200C20FA0CF3194390407047C4
:10144000B0FA80F31533202BE0D3202AEED3203AD4
:10145000203B9A4209D9D21A00FA03F141EA0C0161
:101460000020531C40F2FF7CB8E700FA02F141EA89
:101470000C0100207047524240F2FF7C1CEA1153DD
:101480000DD06345DBD0B2EB030C3CBFA1EB0251A6
:1014900070470CF1010221EA035141F4801150EA36
:1014A000410CCCD001F0004C352A27DC30B481EA65
:1014B0000C01B2F1200309DAC2F12003044601FA5B
:1014C00003F5D0402843D1409C400CE0C3F12002FA
:1014D000450020FA03F418BF44F0010421FA03F098
:1014E00091400C43002174F1004550F1000051EB94
:1014F0000C01244230BC7FF47BAF70476146002072
:1015000076E77047C1F30A5340F21E42D31A0CDD4E
:10151000CA0283F3070342EA505242F00042DA4023
:1015200002EBE17282EAE17070476FEAE17203F266
:10153000E13008B182F000407047704710F0004180
:1015400060B148BF4042B0FA80F29040D21CC2F570
:10155000846241EA025202EBD0214005704700004C
:10156000841A71EB030604D26E40001BB1411219BC
:1015700073414FF4001C1CEB410F34BF7CEB43065E
:1015800083E00C0DA4EB1356362E00F37C80012E65
:1015900045EAC32341DC43EA525312BFD20292020E
:1015A0005B08240545EAC12141EA5051D2EBC02035
:1015B000994125D407D1B0FA80F610FA06F162D02D
:1015C0000020203608E0B1FA81F6B140C6F12002D1
:1015D00020FA02F21143B0404FEAF474B4EB4654DF
:1015E00034F001064FEA74040AD8D6F50016760DD9
:1015F00004F00044F04061FA06F25040F1404840E7
:10160000C00A40EA415021F0004128BF5FEA50057E
:1016100050F1000044EBD12135E0DB0A45EAC1215D
:10162000C90AB6F120050EDD42EA0242120CC5F1EC
:10163000200603FA06F6EB4042EA06056D429841A1
:1016400061F100010DE062FA06F5F240554063FADF
:1016500006FC82EA0C02F3405A406D42904161EB75
:10166000030111F4801F05D1641E620502D06D00D4
:101670004041494121F48011430875F1004350F184
:10168000000041EB045170BC70471CEB410F15D2B8
:1016900023F0004352EA43060BD04FEA4C0CBCEB5C
:1016A000410F04D80C0D661E342EB7DDEBE7801A0F
:1016B000994150EA410608BF0021E4E708BF1CEB4E
:1016C000430F28BF6FF00001DDE7000070B491EA1E
:1016D000030F4FF000457FF543AF6B40841A71EB69
:1016E000030603D2001BB141121973414FF4001CD1
:1016F0001CEB410F34BF7CEB430442E00C0DA4EB28
:101700001356352E4FDC45EAC323DB0A45EAC121D7
:10171000C912B6F120050DDD63FA05F6EB4086EA45
:101720000305124218BF45F00105C01851F1000130
:101730000CD213E062FA06F5F2405540F3415A40EC
:10174000B340F3405A408018594107D349085FEA33
:1017500030005FEA350528BF45F0010501F580112D
:10176000420875F1004250F1000041EB04514E0077
:1017700016F5001F70BC38BF70470020090D090521
:1017800070471CEB410F10D252EA43060BD0BCEB62
:10179000410F05D80C0DAB43661E342EB6DD02E0BA
:1017A000AB438018594170BC704770BC7047000053
:1017B000F0B540F2FF7581EA030C0CF0004C15EA1D
:1017C00011541DBF15EA1357AC42AF42E5E0BC41CE
:1017D000C1F31301C3F31303801A994143F4801337
:1017E00004D2641E0018494180185941C90241EAD7
:1017F0005051B1FBF3F603FB1611A2FB0675D7EBB4
:10180000C020A94102D2761E80185941C90241EA7E
:101810005051B1FBF3FE03FB1E11A2FB0E75D7EB7B
:10182000C020A94103D2AEF1010E801859418902AE
:1018300041EA9051760546EA8E2EB1FBF3F603FBA2
:101840001611A2FB0675D7EB8020A94102D2761EA5
:1018500080185941C90241EA50514EEA060EB1FBC7
:10186000F3F603FB1611A2FB0675D7EBC020A941C6
:1018700002D2761E80185941C90241EA5051B1FB8B
:10188000F3F703FB1711A2FB0735D3EBC020A941E7
:1018900067F100070CBF004247F0010766F3D52748
:1018A0004FEA1E31B80814F5806412DDBD0775F1EA
:1018B000004250EB0E5051EB045111F5801F5CBFFC
:1018C00041EA0C01F0BD4CF07F6141F0E0410020A5
:1018D000F0BDBD076D0840EA0E5041F48011D4F10F
:1018E0000104B4F120060ADAC4F120060200E04047
:1018F00001FA06F3E1401843B24015430EE0342CE0
:1019000013DCC6F1200445EA40056D0820FA06F212
:10191000154321FA06F0A1400D43002175F1004264
:1019200050F1000051EB0C01F0BD00205FEA0C010A
:10193000F0BDCFB992185B41B3FA83F704BFB2FA96
:1019400082F6BF190B3FB7F120062FBF02FA06F34C
:10195000BB40C7F1200622FA06F638BF3343BA402F
:101960001CB1E419641E33E77F4231F00041B1FA43
:1019700081F404BFB0FA80F6A4190B3CB4F1200640
:101980002FBF00FA06F1A140C4F1200620FA06F6A6
:1019900038BF3143A0403C1B1AE7AC421ABF05EAEE
:1019A0001357AF4212E050EA41061CBF52EA430609
:1019B000BFE750EA4107304661461CBF41EA055186
:1019C000F0BD52EA430C08BFC143F0BD00204FF404
:1019D000001616EB410F98BF16EB430F08BF16EB2E
:1019E000410F24BFC14305E016EB430F0CBF614616
:1019F0004CEA0551F0BD0000400D40F21E4C40EA9B
:101A0000C120BCEB115C40F0004003D48CF3070113
:101A1000C84070476FEAE1707047000050B1B0FAFB
:101A200080F18840C91CC1F58461090501EBD02112
:101A3000400570470146704730B540F2FF7C1CEA14
:101A400011541DBF1CEA1355644565453FE06419F8
:101A500081EA030C6FF35F530CF0004C43F48013E6
:101A6000C90241F0004141EA505EC5021100A5FBE8
:101A7000020200284FF00000EEFB01204FF00001B1
:101A8000E3FB052118BF42F0010240180021494143
:101A9000E3FB0E01A4F580640D0302D292184041CD
:101AA000494154F1010470DD450872F1004250F1E2
:101AB000000051EB0451A1F5801102D441EA0C0160
:101AC00030BD40F2FF7E4CEA0E51002030BD0CEAE2
:101AD0001355644518BF654581EA030C0CF0004CB2
:101AE00041D050EA410E1CBF52EA430E02E061466B
:101AF000002030BD24422C441BD15FEA050EF6D0F5
:101B0000090302BF01460020AEF1140EB1FA81F5BF
:101B1000AEEB050401FA05FE0C35C5F1200100FA13
:101B200005F5C8404EEA000E6FF35F5343F480138F
:101B30009CE733F00043B3FA83F504BFB2FA82FEA8
:101B400075440B3D641BB5F1200E2FBF02FA0EF356
:101B5000AB40C5F1200E22FA0EFE38BF43EA0E0359
:101B6000AA40641C7CE750EA410E14BF52EA430EBF
:101B70006FF000014FF4001515EB430F8EBF1946AF
:101B800015EB410F9DE7B4D830BDD4F10104B4F199
:101B900020050FDAC4F12005520828BF42F00102E7
:101BA00010FA05FE01FA05F57244E2BFE040284351
:101BB000E1400FE0352C9ADCC5F1200452EA4002E6
:101BC00020FA05F218BF42F0010231FA05F0A140F7
:101BD0000A43002172F1004250F1000051EB0C0168
:101BE00030BD80B5FFF7C6FA006C02BDD3BBD9B1DA
:101BF000B2F5803F5BD2022A1ED98C46B1FBF2F1CE
:101C000002FB11C31B0443EA1043B3FBF2FC02FBCB
:101C10001C3380B240EA0343B3FBF2F002FB103204
:101C200040EA0C4000237047022A05D98446B0FBE5
:101C3000F2F002FB10C270474AB105D100F0010278
:101C400049085FEA3000704700220023704700F027
:101C500053B80B000200002100207047F7D3002288
:101C600000237047904271EB030CF2D370B5B1FAC8
:101C700081F4B3FA83F52C1BA340C4F1200532FA9A
:101C800005F63343A2405FF00046E64002E05B0801
:101C90005FEA3202841A71EB030524BF204629460D
:101CA0007641F4D302000B003000002170BD70B506
:101CB000B1FA81F4B2FA82F5C4F120046419B4F1E6
:101CC0002006DAD3B2405FF00044F440002502E081
:101CD00052085FEA3303C61A71EB020E24BF304686
:101CE000714664416D41F3D302000B0020002900CE
:101CF00070BD012000F002B87047000080B5AFF35E
:101D00000080024A11001820ABBEFBE7260002004B
:101D100038B5040001D1012032BD04F184056868A2
:101D200008B900F017F800F01AF808B100F031F81F
:101D300000F02CF8012804D000F004F821F02A016A
:101D400016E032BD2068416821F49041416020686E
:101D50008168704700212970204600F0A1BF24202F
:101D6000686020680168490849000160A06A7047FE
:101D7000816000F004F8BDE8324000F082BB2068CA
:101D8000016841F00101016020467047204600F0E3
:101D90000FBA204600F012BB284600F0C6BB38B58B
:101DA0000346D3F88C0020280AD109B1100001D1D4
:101DB000012032BD00F043F8BDE8384000F0FDBB23
:101DC000022032BD38B5044604F154051346686B51
:101DD000202832D121B3180022D021652B806B80BE
:101DE0000020E86321216963A86AD8B1DFF8B01345
:101DF000C162DFF8B003A96A0863A96ADFF8A80323
:101E000048630020A96A88632068216D00F12802D8
:101E1000A86A01F0BDF828B11020E86320216963A9
:101E2000012032BD21684020086200F01EF841F018
:101E3000800100F022F8F8D132BD022032BD00202E
:101E4000D866DFF868431868A0420CD040680402E6
:101E500009D5186850E8004F054644F0806445E80D
:101E600000400028F5D118467047206800F10801AD
:101E700051E8001F00F10803704743E800100028F4
:101E800070472DE9F041054640F60F0C2A68D369EA
:101E9000104613EA0C0F0768966805F15C0407F01A
:101EA000200003F020010DD1002914D010B9F0005A
:101EB00040F18C80A169002900F042812846BDE8EC
:101EC000F0410847DFF8A4C816EA0C0F04BFDFF89A
:101ED000A0E817EA0E0F79D05FEAC37E48BF5FEA39
:101EE000C75807D54FF0010EC2F820E0626B42F0F0
:101EF000010262639A070AD5F20708D5D5F8008077
:101F00000222C8F82020626B42F0040262635A0782
:101F10000AD5F20708D5D5F800800422C8F8202099
:101F2000626B42F0020262631A070DD5002808BFF7
:101F300016EA0C0F08D0D5F800C00822CCF82020F3
:101F4000626B42F0080262631A0509D57B0107D56E
:101F50002F684FF400623A62626B42F020026263C3
:101F6000626B002A31D031B108B9F00003D5A16904
:101F700009B128468847606B29688A68510602D4EF
:101F800010F0280F1CD000F007F928688168480677
:101F900011D500F0E1F8FCD1606A60B10FF685015F
:101FA0008163606A01F06CF800280ED0606A816B72
:101FB000BDE8F04108472846BDE8F04101F05AB9B4
:101FC000284601F057F900206063B9E02069012834
:101FD00078D1D80676D5F90674D5102010622A6813
:101FE00021889068420637D5626A1368586880B2C3
:101FF000002828D0884226DA6080106801688A06A6
:102000001AD400F0B7F821F4807100F0A1F8F8D1EB
:1020100000F07EFAFCD100F0B2F8FCD12020206361
:102020000021216100F0A6F821F0100100F090F8E5
:10203000F8D1606A00F0F0FF0220606121886088BA
:10204000091A89B206E088427AD11A68900677D5D3
:1020500002226261284631E062886088891A00287D
:102060001CBF88B200286BD02A46106850E8003F99
:10207000054623F4907300F065F8F6D1106800F17E
:10208000080300F1080653E8003FDFF8140303409B
:1020900046E800300028F1D120202063002323618E
:1020A000A361136853E8003F156823F0100300F0A4
:1020B00049F8F6D10220606189B21046BDE8F041CE
:1020C00001F0D9B8D80209D5710207D54FF48010B4
:1020D00010622846BDE8F04101F0CEB8180609D5D7
:1020E000390601D4300205D5E16949B32846BDE877
:1020F000F0410847580611D579060FD500F03AF897
:1021000021F0400100F024F8F8D12020E062002105
:10211000E1612846BDE8F04101F0F9B8180206D5A2
:10212000790004D52846BDE8F04101F00DB9D80189
:1021300048BF002F04D52846BDE8F04101F005B99D
:10214000BDE8F08145E800300028704721F4F071C7
:1021500042E8001000287047296801F1080252E89F
:10216000001F286800F1080321F0400143E8001037
:1021700000287047286850E8001F0246704728680A
:1021800000F1080151E8001F00F1080321F04001AF
:1021900043E8001000287047284600F0BCBA000051
:1021A0008F270008CF270008D527000800800040AF
:1021B000F8B50446DFF8780822681368A168034080
:1021C00020690B4361690343E0690B4303431360D8
:1021D00000255168E06821F4405101435160A36932
:1021E000DFF850188A421CBF206A03439668DFF864
:1021F0004808DFF848E8DFF8487806403343936042
:1022000068A6D36A606A1B0940EA0313D362724569
:10221000DFF8DC084FF4004338D13F6807F00307CC
:10222000032F4CD8DFE807F0024542484FF0010C7D
:10223000E169B1F5004F4FF6F07740F07F80BCF1D7
:10224000010F09D0BCF1020F0AD0BCF1040F70D00D
:10225000BCF1080F70D098E001F00AFC002814D0FF
:10226000626A616836F81230B0FBF3F04A0802EB9C
:102270004002B2FBF1F0A0F11001B942EBD20740ED
:10228000C0F3420007432068C7607FE08A4216D14E
:102290003F6817F4406723D0B7F5806F09D0B7F5D2
:1022A000006F03D0B7F5406F06D008E04FF0020C86
:1022B00007E04FF0040C04E04FF0080C01E04FF091
:1022C000100C8A42B4D1BCF1000F09D0BCF1020F4E
:1022D0000AD0BCF1040F15D0BCF1080F15D054E0A2
:1022E00001F0BEFB002851D0616A36F81120B0FB26
:1022F000F2F6626802EB42018E4246D31303B34208
:1023000005D242E001F062FBECE71846ECE750082A
:10231000002110EB062051EB16610023FFF766FC4D
:10232000A0F54076DFF8F478BE422ED22168C8606E
:102330002CE001F04BFB91E7184691E7BCF1010F4F
:1023400009D0BCF1020F09D0BCF1040F18D0BCF1C8
:10235000080F18D019E001F08BFBB8B1626A36F8AB
:1023600012306168B0FBF3F000EB5100B0FBF1F00C
:10237000A0F11001B94208D2226880B2D06005E015
:1023800001F024FBE9E71846E8E7012504F16800BD
:102390000121002341800180C36003612846F2BD12
:1023A000FEFFFFEF010002000400060008000A0023
:1023B0000C001000200040008000000190F8281060
:1023C0000A0706D502685368816B23F400430B4368
:1023D000536090F82810CA0706D502685368C16A8E
:1023E00023F400330B43536090F828108A0706D576
:1023F00002685368016B23F480330B43536090F8F9
:1024000028104A0706D502685368416B23F48023DD
:102410000B43536090F82810CA0606D502689368EB
:10242000C16B23F480530B43936090F828108A0605
:1024300006D502689368016C23F400530B43936044
:1024400090F828104A0610D502685368416C23F4AE
:1024500080130B435360436CB3F5801F05D1536861
:10246000816C23F4C0030B43536090F828100A06D4
:1024700006D501684A68C06C22F4002202434A6013
:102480007047F8B5054605F184040020E0606FF060
:102490007E4701F085FB0646286801680A0711D5CA
:1024A0000097334600224FF40011FFF775FC48B146
:1024B000FFF760FE21F08001FFF74AFEF8D12020EF
:1024C000606017E0286801684A0717D5009733460F
:1024D00000224FF48001FFF75FFC78B1FFF74AFE5E
:1024E00021F49071FFF734FEF8D100F011F8FCD11F
:1024F0002020A060002121700320F2BD2020606018
:102500002021A1600020E866002129672070F2BD2B
:10251000286800F1080151E8001F490800F108038C
:10252000490043E80010002870472DE9F041069C5F
:1025300005460E4690461F462868C1693140B142A3
:102540000CBF01200020404535D114F1010FF3D01C
:1025500001F026FBC01B844200D314B90320BDE860
:10256000F081286801684A07E6D5802E18BF402E02
:10257000E2D0C169080704D42968C8690105DBD520
:102580000CE02A6808201062FFF706FE05F18400BF
:102590000821C160002202700120E0E729684FF4A1
:1025A00000600862FFF7F8FD05F184002021C1609A
:1025B00000220270D2E70020D1E750B50346002088
:1025C0009965FF2403F15C010A804A80886198685C
:1025D000B0F5805F04D1186990B940F2FF140FE0A4
:1025E00018B9186960B17F2007E0B0F1805F06D1AB
:1025F000186908B97F2403E03F20888001E00024A7
:102600008C800020486322240C63186800F10804C1
:1026100054E8004F00F1080644F0010446E8004089
:102620000028F2D18868B0F1005F23D18889824206
:1026300020D39A68B2F5805F04BF1869002803D1DF
:102640000FF20D428A610BE00FF245348C6118697C
:1026500030B100F031F841F48071FFF779FDF8D125
:1026600000F02FF841F0805144E800100028F7D125
:10267000002050BD9868B0F5805F04BF186900283D
:102680000CD10FF219228A61186850E8001F024627
:1026900041F02001FFF75CFDF6D1E9E70FF2AD1242
:1026A0008A6118690028EFD000F006F841F49071B3
:1026B000FFF74EFDF8D1DBE7196851E8001F1A68F3
:1026C0007047186800F1080151E8001F00F1080484
:1026D000704710B500F008F8FCD100F00FF8FCD1FD
:1026E0002021C0F8881010BD016851E8002F0B466A
:1026F00022F0C00243E8002100297047016801F17F
:10270000080252E8002F01F1080422F4000244E814
:1027100000210029704710B500F00EF8FCD100F040
:1027200015F8FCD1C16E00F025F82021C0F88C10FE
:102730000022C266426710BD016851E8002F0B46B7
:1027400022F4907243E8002100297047016801F1EA
:10275000080201F1080452E8002FDFF8C4140A400F
:1027600044E800210029704700000000010000102B
:1027700020010004012909D1026852E8002F0368F2
:1027800022F0100243E800210029F5D1704710B56E
:102790000146886A09680A68930614D40021A0F8E3
:1027A0005610026802F1080151E8002F036803F196
:1027B000080422F0800244E800210029F1D100F051
:1027C0003AF8FCD110BDBDE8104000F0A0BD806A11
:1027D00001F0ECB9F8B5846A04F1880504F15607F4
:1027E00028686E6821688A68110606D5212804D1F8
:1027F000002038802046FFF76CFF2168886841067A
:1028000006D5222E04D1002038812046FFF783FF11
:10281000A86840F01000A8602046BDE8F24000F033
:1028200029BD0000806A00F1560100220A810023C0
:102830000B8000F01FBD016851E8002F0B4642F0ED
:10284000400243E8002100297047000038B500F03D
:102850004DF81ED14B6A9188846D0B402370816DB9
:102860004B1C00F049F818D100F04DF800F060F86A
:10287000FCD100F06AF80BD10023136100F04EF890
:10288000FCD10168CB69DC0644BF10230B6276E003
:102890007AE0886940F00800886131BD38B500F001
:1028A00025F81ED14B6A9188846D0B402380816D81
:1028B0008B1C00F021F818D100F025F800F038F852
:1028C000FCD100F042F80BD10023136100F026F890
:1028D000FCD10168CB69DC0644BF10230B624EE0DB
:1028E00052E0886940F00800886131BD00F15C0267
:1028F0000168136B222B7047836551884B1E5380F0
:10290000518800297047036853E8003F046823F4A6
:10291000907344E800310029F5D17047016851E80F
:10292000003F0C4623F0100344E8003100297047B3
:10293000016801F1080353E8003F5B0801F1080555
:102940005B0045E800310029704720211163002316
:10295000936100215161374B016899420CD049685D
:102960000B0209D5016851E8003F0C4623F0806353
:1029700044E800310029F5D1116901297047118817
:10298000BDE8344000F077BCBDE8324000F0AFBC99
:102990002DE9F84300F009F946D1A089002835D087
:1029A000B80633D500F0A6F80870A86D421C00F0F8
:1029B000D9F812D0F90748BF5FEAC85200F0A0F872
:1029C00003D5F10701D500F0C5F800F0A2F820B159
:1029D000284600F04FFC0020606360880028DFD1AB
:1029E00000F0AEF8FCD100F0D3F8FCD100F0FBF819
:1029F00009D100F0E8F844BF10210162218828467F
:102A000000F039FC02E0284600F071FC608868B1F3
:102A1000A18988420ADA00F0AEF8FCD18148A061B1
:102A200000F084F8FCD101E000F00CF8BDE8F1837F
:102A3000F369FFCF00800040FFF4FF110038014030
:102A400088000058816941F00801816170470000E9
:102A50002DE9F84300F0A9F846D1A089002835D027
:102A6000B80633D500F046F80880A86D821C00F047
:102A700079F812D0F90748BF5FEAC85200F040F871
:102A800003D5F10701D500F065F800F042F820B158
:102A9000284600F0EFFB0020606360880028DFD14B
:102AA00000F04EF8FCD100F073F8FCD100F09BF878
:102AB00009D100F088F844BF10210162218828461E
:102AC00000F0D9FB02E0284600F011FC608868B1F4
:102AD000A18988420ADA00F04EF8FCD15248A06180
:102AE00000F024F8FCD101E0FFF7ACFFBDE8F18372
:102AF0000024F4002968486AA96D09EA00007047BB
:102B000005D501210162606B40F001006063B807E8
:102B10007047780708D5F10706D52A6804201062A7
:102B2000606B40F002006063606B7047296851E899
:102B3000001F2A6841F0200142E800100028704779
:102B4000296851E8001F2A6821F4807142E80010CA
:102B5000002870472A6802201062606B40F0040071
:102B600060637047AA656088411E61802868C769F4
:102B700017F0070F7047286800F1080252E8001F9D
:102B800000F1080921F0805149E800100028704741
:102B9000286800F1080100F1080351E8001F2048EF
:102BA000014043E8001000287047054605F15C0429
:102BB0002868B4F80490C7690146D1F80080866897
:102BC000216B2229704700212161286850E8001FED
:102BD000024621F0100142E800100028F5D12868D3
:102BE000C169CA067047202020630021A16100202E
:102BF00060610E49286888420CD04068010209D5FE
:102C0000286850E8001F024621F0806142E8001069
:102C10000028F5D1206901287047000000FD0F0051
:102C2000FEFFFFEF4D2800089D28000800800040AF
:102C3000934900E0934981B00A6802430A60096839
:102C400008400090009801B0704780B54FF4002014
:102C5000FFF7F0FF002200212E2000F0C3FFBDE8A7
:102C600002402E2000F0DCBF00688749884200D077
:102C7000704780B54FF48010FFF7DCFF0022002181
:102C80002C2000F0AFFF2C2000F0CAFF0022002112
:102C90002D2000F0A7FFBDE802402D2000F0C0BFAE
:102CA00038B59EB004461421684601F00FF8502153
:102CB0000AA801F00BF820687449754D884246D186
:102CC000022200210A9211910AA801F019F808B114
:102CD00001F083FA286840F00100286029686D4DF2
:102CE00001F00101059105980120FFF7A1FF0221E4
:102CF0000191002202920C200321009003910822EE
:102D0000049269464FF0904001F068FA62482860EA
:102D1000112100F058F808B101F05FFA4FF0885027
:102D2000002106900791ADF820100122099206A912
:102D3000284601F03DFB08B101F04FFAE567AC62AF
:102D400000220021252000F04DFF252037E05349C7
:102D5000884236D1012200210A9210910AA800F07F
:102D6000CFFF08B101F039FA686840F4804068602C
:102D700068684B4D00F48040059005980220FFF7ED
:102D800057FF0221019101220292C02003210090ED
:102D90000391072204926946424801F01FFA424813
:102DA00028600F2100F00FF808B101F016FAE5676E
:102DB000AC6200220021242000F014FF242000F047
:102DC0002FFF1FB030BD696000201022E860802115
:102DD0006861A861E8612862AA602961284600F05C
:102DE0006BB810B594B004465021684600F06EFFF1
:102DF00022682E498A420FD14FF400734FF0805160
:102E000000930E91684600F07BFF08B101F0E5F9F0
:102E10004FF48020FFF70EFF14B010BD18B595B029
:102E20000446502101A800F051FF226820498A423F
:102E300024D14FF400634FF480710193119101A8E4
:102E400000F05EFF08B101F0C8F91A48816B41F447
:102E5000004181630021026842F480620260002226
:102E6000006800F4806000900098032000F0BAFE33
:102E7000032000F0D5FE204601F05CFB16B010BD2B
:102E80004C00005850000058000C005800800040D2
:102E90005C000058AC25002044000240003801408E
:102EA0000C26002000040048440402400010005892
:102EB000002800405800005838B5040001D1012016
:102EC00032BD2168DFF88423914204F1240500F02B
:102ED00046F80221697020680268A068E1682368EA
:102EE0006FF30E12024320690A4361690243A0692D
:102EF0000A43E1690243206A0A4302431A602046FA
:102F000000F077F9A068B0F5804F04BF0021616040
:102F10002079696A00F03F0000F014F838B1052804
:102F200005D2204600F082F900F012F803E00020FC
:102F300028636863A8630021A96101206870297073
:102F4000002032BD0860A96AE86A4860606870477E
:102F5000296B00200860696BA86B486070470BD232
:102F6000DFF8EC0241181423B1FBF3F18900DFF81C
:102F7000E4222962EA617047DFF8DC02411814227A
:102F8000B1FBF2F18900DFF8D4022962E8617047F1
:102F9000F8B5044604F1240600253078012801D153
:102FA0000220F2BD012030707778012F30D102204D
:102FB00070700027B7612068D0F800C04FEA5C0746
:102FC0004FEA470CC0F800C0204600F0F6F8216830
:102FD000F06820B10A6842F00E020A6008E0086852
:102FE00020F0040008602068016841F00A010160D7
:102FF000706A0168CA0301D500F078F8306B08B137
:1030000000F074F82068016841F00101016001E0FE
:10301000357002252846F2BD40B100F124014A78FE
:10302000022A05D00420886100220A70012070471E
:103030000268136823F00E0313604A6A136823F4CE
:103040008073136000680268520852000260012019
:1030500091F82020CB6902F01C02904058608A6AE7
:10306000C86A5060086B30B1026822F48072026056
:10307000486B8A6B426001224A70002008707047DA
:1030800038B500F1240200245178022903D004202D
:103090009061012428E001680B6823F00E030B60A7
:1030A00001680D686D086D000D60516A0B6823F4AE
:1030B00080730B60012192F82030D56903F01C0366
:1030C00099406960936AD16A5960116B31B10B689C
:1030D00023F480730B60516B936B4B60012353702F
:1030E0001470516901B18847204632BD016841F42E
:1030F000807101607047F8B500F124010423CA69AA
:1031000014680268156891F8206006F01C0603FA3E
:1031100006F73C4210D06F070ED51468A50603D4FD
:10312000146824F00404146000F03EF8C968002913
:1031300039D0BDE8F4400847022303FA06F73C42C1
:1031400013D0AF0711D51468A50605D4146824F070
:103150000A04146001224A7000F026F800220A7066
:10316000896801B3BDE8F4400847082303FA06F66E
:10317000344218D02B0716D5146824F00E041460BE
:10318000012291F82030CC6903F01C039A40626060
:10319000012301228A614B7000220A70096911B172
:1031A000BDE8F4400847F1BD91F82020CC6902F059
:1031B0001C02934063607047000070B5C56C046DDD
:1031C0006C60446D14B1856DC46D6C60012490F821
:1031D0004450066C05F01C05AC40746004686360E4
:1031E0008068102802D1A260E16070BDA160E26039
:1031F00070BD10B5416C0268144B89089A4239BF02
:10320000174C04EB8101174B03EB8101816402F041
:10321000FF02083A1421B2FBF1F1012301F01F0172
:10322000114AC26403FA01F1016510BD01790F4A28
:103230000F4B836501F03F0102EB81024265491E9D
:10324000012201F003018A40C26570470804024070
:10325000F8FFFDBF00000240F8FBFDBF0004024084
:10326000000802401C08024080080240FC0802409E
:1032700040090240704770477047000010B52C4C61
:1032800010B1022803D010BD00F00CF801E000F0EE
:1032900005F80360BDE81040FEF781BD6360254876
:1032A000254B704723602548254B704770B51C4659
:1032B00000230025234E10B1022804D00AE0346018
:1032C000FFF7F1FF02E07460FFF7E9FF0360FEF72C
:1032D00079FD0346012B05D007D3032B04D038BF5B
:1032E000022502E0012500E00325284670BD0068A4
:1032F000114A0F49904205D0114A904206D1086800
:1033000020B100474868002818BF00477047006890
:10331000094A0C49904205D0094A904206D10868F2
:1033200020B100474868002818BF004770470000D8
:10333000582700207C22002000800040102300201D
:103340000038014060270020704770474FF0B040C0
:10335000006800F0F000B02888BFB0207047DFF8A8
:10336000CC070068000100F0F00070472DE9F04143
:1033700004004BD0207881064FF0B04534D5A868C2
:10338000E96810F00C0001F0030103D00C2808BF1D
:1033900001293DD1E069002838D0FFF7D7FF616AE5
:1033A00088420CD2084600F075FB00282ED129680F
:1033B000606A21F0F001014300F01AFA09E0286880
:1033C00020F0F000014300F013FA606A00F062FBA5
:1033D000E0B900F037FBDFF858170860DFF8540752
:1033E000006801F0C1F888B92078C10768D5A868DD
:1033F000E96800F00C00082801F0030103D00C2854
:1034000008BF032934D16068002859D10120EDE1BB
:10341000E069E8B1296841F0010100F0D4FA0646FC
:103420002868800706D400F0BBFB801B0328F7D375
:103430000320DBE12868616A20F0F000084328607F
:103440006868216A20F47F4040EA01206860CBE789
:1034500028684008400000F08AFB064628684008BB
:10346000C007C1D500F09CFB801B0328F6D3DFE723
:103470006068B0F5803F04D1296841F4803129604B
:1034800003E0286820F480302860606858B100F0BC
:1034900087FB06462868800312D400F081FB801B5E
:1034A0006528F7D3C4E700F07BFB06462868400C8C
:1034B000C00705D500F074FB801B6528F6D3B7E77D
:1034C0002078810715D5A868E96800F00C00042869
:1034D00001F0030103D00C2808BF022928D1E068BD
:1034E000002893D06868216920F0FE4040EA01601E
:1034F00068602168DFF8406611F0180F00F08B80DB
:103500006069002877D0C806706858D5800730D425
:10351000716841F00101716000F042FB074670687C
:10352000800726D400F03CFBC01B0328F7D37FE7BD
:10353000E06870B1296841F4807100F044FA0646F1
:1035400028684005CED400F02BFB801B0328F7D35E
:103550006EE7286820F4807000F009FB06462868B2
:10356000800AC007C5D500F01BFB801B0328F6D3DB
:103570005EE7706840F0040000F043F907467068A9
:10358000000705D400F00CFBC01B0428F7D34FE75D
:103590007068A16920F4706040EA01207060706872
:1035A0004008400000F02DF9074670684008C00749
:1035B00031D500F0F5FAC01B0328F6D338E740F008
:1035C000010000F01EF907467068800705D400F07E
:1035D000E7FAC01B0328F7D32AE7706820F004003D
:1035E00070607068C008C00715D500F0D9FAC01B1C
:1035F0000428F6D31CE7706820F0040000F001F9FD
:1036000007467068C008C007C9D500F0C9FAC01BDA
:103610000428F6D30CE7207841074BD5DFF81C755A
:103620003868C1050ED400F0C1FF00F0B9FA804639
:103630003868C10506D400F0B3FAA0EB08000328EF
:10364000F6D3F5E6A068012804D1306840F0010007
:10365000306010E00528306806D140F0040030608A
:10366000316841F0010105E04008400030603168F8
:1036700021F004013160A06841F2893760B100F0A7
:103680008FFA80463068800714D400F089FAA0EBE6
:103690000800B842F6D3CBE600F082FA80463068E4
:1036A0004008C00706D500F07BFAA0EB0800B8423E
:1036B000F5D3BDE62078410620D5A06A0028B06881
:1036C0000DD040F0010000F077F90746B0688007A0
:1036D00014D400F065FAC01B0328F7D3A8E640080D
:1036E000400000F069F90746B0684008C00705D5FA
:1036F00000F056FAC01B0328F6D399E6E06A0028CA
:1037000073D0A968EA68022801F00C0159D1236B33
:1037100002F00300984202BF02F07000636B98420F
:1037200013D1A36BC2F30620984202BF02F47810B3
:10373000E36B984209D1236C02F06060984202BFAB
:1037400002F06042606C824237D00C293AD028687F
:1037500041013FF55BAE00F007FA0646286881019B
:1037600005D500F01DFA801B0328F7D360E6E86852
:10377000DFF8CC13226B0840616B1043A26B084347
:10378000E16B40EA0220226C0843616C104308435D
:10379000E860286840F080702860E96841F0805156
:1037A000E96000F0FDF90446286881011DD400F0AD
:1037B000F7F9001B0328F7D33AE62868810114D4EF
:1037C000E7E70C293FF422AE00F0CEF90446286862
:1037D000810105D500F0E4F9001B0328F7D327E6A3
:1037E000E868DFF860130840E8600020BDE8F08179
:1037F00029606968206A21F47F4141EA00216960FB
:103800007047706000F0CCB92DE9F8430400884699
:1038100000F0AE80DFF8305300F0C9F80CD200F0B1
:10382000CEF8064600F0C3F806D000F0B9F9801BC8
:103830000228F7D90320B8E0207881074FF0B0467E
:1038400011D5B268A06822F0F0020243B26000F025
:10385000A7F90746B068C00305D400F0A1F9C01B62
:103860000228F7D9E6E72078DFF8C072810612D582
:103870003A68606922F0F00202433A6000F090F981
:1038800081463868800306D400F08AF9A0EB09006D
:103890000228F6D9CEE72078410613D53868A16909
:1038A0000009000140EA1110386000F079F9814602
:1038B0003868C00306D400F073F9A0EB09000228B1
:1038C000F6D9B7E72078410711D5B268E06822F44D
:1038D000E0620243B26000F063F90746B06880031B
:1038E00005D400F05DF9C01B0228F7D9A2E72078C3
:1038F000010711D5B068216920F4605040EAC10089
:1039000000F05AF80746B068400305D400F048F9C3
:10391000C01B0228F7D98DE72078C1072AD5606837
:10392000022818D13168890322D5B268920840EA8A
:10393000820000F041F80746B068616800F00C00B2
:10394000B0EB810F16D000F02BF9C01B41F289318A
:103950008842F1D36EE7032802D13168890103E080
:103960000028316802D18907DFD401E04905DCD4A1
:1039700001201AE0286800F0070080450BD200F013
:103980001EF8044600F013F805D000F009F9001BFA
:103990000228F7D94EE700F055F86549086000F0B5
:1039A00021FEBDE8F24300F0DFBDBDE8F2832868E8
:1039B00000F0070040457047B06000F0F1B829689A
:1039C000C90848EAC101296000F0EAB838B54FF0EB
:1039D000B0445F4DA16811F00C0106D1FFF7B6FCB1
:1039E000C0F3031055F8200032BD0429594A05D010
:1039F0000829594804D12168C90222D5104632BD90
:103A0000E16801F00301022904D0032904D12168EF
:103A1000C90207D5104605E0FFF798FCC0F3031074
:103A200055F82000E168E268E368C1F306214843E5
:103A3000C2F30211491C5B0FB0FBF1F05B1CB0FB41
:103A4000F3F032BD80B5FFF7C1FF4049FFE7434ABD
:103A50000968C1F3031152F82110B0FBF1F002BD67
:103A600080B5FFF7EFFF00F010F8C1F3022106E088
:103A700080B5FFF7E7FF00F008F8C1F3C22112F8A4
:103A8000211001F01F01C84002BD3049344A0968C5
:103A90007047000070B52E49B1282EBFCC6AC0F324
:103AA000031051F82040FFF75AFC054600F0B4FD22
:103AB0002A49C5F3031251F822102A4AB4FBF1F146
:103AC0005FF00004B1FBF2F1B0F5007F30A22046B8
:103AD0001FD100BF27A353F820508D4216D2401C9F
:103AE0000328F8D9184D2868C00844EAC00000F03F
:103AF0003EF80646286800F00700A04213D000F008
:103B00004FF8801B0328F5D3032070BD52F82040E6
:103B1000E8E700BF1BA353F820508D42F6D2401CAB
:103B20000328F8D3DEE7002070BD0000080100582C
:103B30006C21002050210020900000580004005803
:103B40008C80C111FCFFFEEE0040005808000058B8
:103B5000108F00080024F4000048E801D08E00080F
:103B6000FC91000840420F00286820F08070286017
:103B700000F016B81200000024000000360000001B
:103B800040000000060000000C00000010000000D3
:103B9000000000000100000002000000030000001F
:103BA00001484068704700BF48210020704700006E
:103BB0000901020002D43C48815470473B4B02F09B
:103BC0000F021A4402F8041C7047394B19684FF66B
:103BD000FF020002114000F4E06008433549084349
:103BE0001860704770B5324B1C68C4F3022301247F
:103BF000C3F10705052D2EBF0F2504FA05F56D1E2F
:103C00001E1D072E34BF0023DB1E2940994004FAF5
:103C100003F3BDE870405B1E1A401143C8E7000083
:103C2000010007D4012200F01F01234B8A40400904
:103C300043F82020704701000BD4012200F01F013F
:103C40001E4B8A40400943F82020BFF34F8FBFF33B
:103C50006F8F704710B5401EB0F1807F01D30120F7
:103C600010BD174C60600F214FF0FF30FFF7A0FF31
:103C70000021A16007202060002010BD010007D4B2
:103C8000012200F01F010F4B8A40400943F8202019
:103C90007047010007D4012200F01F010A4B8A403F
:103CA000400943F82020704700E400E018ED00E0F0
:103CB0000CED00E00000FA0500E100E080E100E02A
:103CC00010E000E000E200E080E200E0002200F00E
:103CD000ABBC0000DFF81C130A68030903F47F2360
:103CE00000019A4300F47F2000F081B9DFF804233B
:103CF0001368010C23EA014343EA00431360704751
:103D00002DE9F843054600242878DFF8E8624106EB
:103D1000A0464FF0B04743D5286B70B1B0F5800F87
:103D200006D0B0F5000F18BFB0F5400F2ED035E02B
:103D3000F96841F48031F96029E0386820F080604A
:103D40003860FFF72DFF81463868C00EC00707D5E1
:103D5000FFF726FFA0EB09000228F5D9032415E0A0
:103D600000F02EF9A96820F4781000F038F98146A7
:103D70003868000106D4FFF713FFA0EB0900022802
:103D8000F6D9EBE738696969084338613CB93168AD
:103D9000286B21F440010143316001E00124A04679
:103DA0002868010532D5D6F80880286C08F44078D8
:103DB00080452AD000F0FAFBB8F1000FB16805D1B8
:103DC000286C21F440710143B1601EE0B06840F4FA
:103DD0008030B06021F44071B06820F48030B06071
:103DE000286C0143B160B068C0070ED5FFF7D8FE5C
:103DF0008046B068800708D4FFF7D2FEA0EB080029
:103E000041F289318842F4D30324A0462878C107BF
:103E100005D53268A869920840EA820232602978A2
:103E2000880705D53168E86921F4406101433160B4
:103E30002978C80644BFA86AFFF758FF287881068A
:103E400044BFE86AFFF752FF2878410744BF286A59
:103E5000FFF740FF2878010744BF686AFFF73AFF81
:103E60002868C10532D53268686B22F0406202438F
:103E70003260696BB1F1006F00F09CF8686BB0F1D3
:103E8000806F23D100F0A5F804463868C00EC00743
:103E900007D5FFF785FE001B0228F6D94FF003086F
:103EA00014E000F08DF8E96820F0606000F097F809
:103EB00004463868000105D4FFF772FE001B022893
:103EC000F7D9EBE7386969690843386128688105E3
:103ED0001CD5A86BB0F1804F18BFB0F1004F00D0D7
:103EE00020B9316821F04041084309E0316821F0F0
:103EF0004041316020F08050326822F0406210432F
:103F00003060A86BB0F1C05F00F054F8286841053C
:103F100035D53268E86B22F0405202433260E96BDB
:103F2000B1F1005F03D1F86840F48030F860E86BCD
:103F3000B0F1805F23D100F04CF804463868C00E21
:103F4000C00707D5FFF72CFE001B0228F6D94FF05B
:103F5000030814E000F034F8296920F0604000F014
:103F60003EF804463868000105D4FFF719FE001B2F
:103F70000228F7D9EBE7386969690843386128688E
:103F8000C10405D5F268686C22F440420243F26035
:103F9000296888040BD5796AE86C21F03001014367
:103FA0007962796AA86C890840EA810179624046A1
:103FB000BDE8F28303D1F86840F08070F860704784
:103FC0003869696820F4FE4040EA012038613869A8
:103FD0007047396821F080613960FFF7E1BD08431F
:103FE0003861386840F080603860FFF7D9BD104311
:103FF0000860704788000058694900E0694981B04D
:104000000A6802430A60096808400090009801B0FD
:10401000704710B500F0D2FA00F020FB00F04DF828
:1040200000F089F8604C6148A06304F1380000F0AA
:10403000A1FD0420FFF7E2FF0120FFF7DFFF0220D0
:10404000FFF7DCFF0420FFF7D7FF0120FFF7D4FFC5
:104050000220FFF7D1FF00220F210E20FFF7C2FD43
:104060000E20FFF7DDFD00220F213A20FFF7BAFDF9
:104070003A20FFF7D5FD4E482060002147F6FF703B
:104080000F22E0606160A2602161A161E161616174
:10409000204600F0A7FD00220021204600F0C5F9CF
:1040A000444860620021A16204F1240000F03CFE5B
:1040B00000F01CFB00F059FCFCE780B59AB04821E9
:1040C00008A8FFF703FE1C2101A8FFF7FFFD00F081
:1040D0006DFA3948016821F0180101600121374863
:1040E000026861F34A2202604721006800F4C06060
:1040F00000904FF4803200980891099201214FF40A
:1041000080720A910B921291402200210C9213911D
:1041100008A8FFF72BF96F200221019002910022DD
:1041200003920492059206920792012101A8FFF7DB
:104130006BFB1BB000BD80B594B050216846FFF703
:10414000C5FD4FF440524FF480410092119102227C
:104150001021129213916846FFF7D2FD15B000BDF1
:1041600010B5174C174820604FF4E1310C20606106
:1041700000224FF40040E06100F026F82046FDF7F1
:10418000C7FD0021204600F00DFE0021204600F072
:1041900014FE2046BDE8104000F0E6BD000000001F
:1041A000480000584C00005838250020000C0058EA
:1041B00000280040001000589000005800040058EB
:1041C00010230020003801406160A260E26022619B
:1041D000A26122626262A262704770472DE9F04FCD
:1041E00000276B4A6B4B4FF00F0805460E4638E030
:1041F000694CA54214BF072404248C40674944EA53
:104200000E0441F82C40C143D3F800C0746801EAA1
:104210000C0CE40248BF40EA0C0CC3F800C0D3F811
:1042200004C0746801EA0C0CA40248BF40EA0C0CFC
:10423000C3F804C0D2F800C0746801EA0C0CE403AF
:1042400048BF40EA0C0CC2F800C0D2F804C001EA32
:104250000C0C7168890348BF40EA0C0CC2F804C01A
:104260007F1C316831FA07F000F082800124BC40E5
:1042700014EA0100F4D04FEA470C032101FA0CF1D3
:104280006FEA010E716801F00309B9F1010F1CBF5B
:1042900001F00301022912D1A968D6F80C900EEAA8
:1042A000010109FA0CF949EA0101A960696821EAEA
:1042B00004047168C1F30011B9400C436C60B9008B
:1042C000347904F00304032C21D0EC68D6F808906C
:1042D0000EEA040409FA0CF949EA0404EC603479A2
:1042E00004F00304022C12D1FC0805EB840401F055
:1042F0001C09D4F820A008FA09FB2AEA0B0AD6F810
:1043000010B00BFA09F949EA0A09C4F820902C68A0
:104310000EEA040E347904F0030404FA0CF444EABF
:104320000E0CC5F800C0746814F4403F98D0DFF854
:104330006CE04FEA970C5EF82C4001F00C0108FA93
:1043400001FE24EA0E0EB5F1904F08BF00240ED0F6
:10435000134CA54208BF012409D0124CA54208BF46
:10436000022404D0104CA5427FF442AF032444E75A
:10437000BDE8F08F0AB181617047816270470B4AD6
:10438000136801460B421CBF116000F000BB704770
:10439000800800580008005800100048080001403C
:1043A0000004004800080048000C00480C080058B1
:1043B00070B500F12403587801281CD11A78012A1D
:1043C00001D1022070BD5C6A0C4A1870256808682B
:1043D000CE6815400543761E48680A7A45EAC64508
:1043E0000543487A45EA024545EA40252560002113
:1043F0001970002070BD012070BD0000FFFD00E0BD
:104400008A60FF210268516280F82130002180F823
:1044100020100020704720684762032184F8211093
:10442000002084F82000032070472DE9F84300F0B5
:1044300047F808BF022038D000F04FF80ED5FFF73C
:10444000AFFB05462068C168480707D5FFF7A8FB02
:10445000401B4045F6D3FFF7DEFF26E000F037F8BB
:1044600000F052F8FFF79CFB05462068C1684A0738
:1044700005D4FFF795FB401B4045F6D3EBE7C0F8AA
:104480001490206800F013F81D48026842F40022DE
:1044900002601C48016841F40021016020688168C5
:1044A00041F48041816000F037F8BDE8F283816813
:1044B000C908C9008160206881680E438660704722
:1044C0000446894694F82000164601287047206863
:1044D000816821F4806181607047012084F82000A8
:1044E000022184F82110CA202268506253212068DA
:1044F0004162FF2720688168480540F2E93870472B
:1045000080080058000800582068C16801F0800148
:1045100061F49061C16070472068816841F48061F6
:10452000816001212068476284F82110002084F80E
:104530002000704790F82010012901D10220704717
:10454000012180F82010022280F82120CA2103686E
:104550005962532201684A62012301688A6842F065
:104560002002FFF74DBF000070B50F4E04463078B3
:104570000025A8B1FFF766FA32784FF47A71B1FBE3
:10458000F2F2B0FBF2F0FFF765FB48B9102C07D24E
:10459000002221464FF0FF30FFF724FBB46000E01B
:1045A0000125284670BD00BF48210020024801684F
:1045B00041F480710160704700040058134810B541
:1045C000016841F4807101600320FFF7FEFA0020CA
:1045D000FFF7CAFF0024002814BF0124FEF735FBB3
:1045E000204610BD0A488068704709480078704727
:1045F000084805E00748016841F002010160704782
:10460000016841F00101016070470000004000585E
:1046100048210020042004E0DFF80800006800F4CE
:10462000C06070470004005800B500BF13009646F4
:104630009446103928BFA0E80C50FAD85FEA417CB4
:1046400028BF0CC048BF40F8042BC90728BF20F87A
:10465000022B48BF00F8012B00BD00001CB5DFF89D
:10466000F013DFF8F0434FF400400860606C400145
:104670000ED5606CC0000BD4FFF798FFFFF796FFD4
:10468000206C40F480302064206C20F48030206462
:104690003F22206840F480102060216801F48011DE
:1046A00000913F210098DFF8B0034160426101684A
:1046B00041F47C110160026942F47C1202610168DC
:1046C00041F03F010160026942F03F0202610020B7
:1046D00000F0C6FB48B18079DFF88013E164E26C3A
:1046E00022F47C5242EA0022E26413BD10B5DFF8E6
:1046F0007003DFF8704388B0016841F05001016039
:10470000CA22DFF86403C2615321C161FF2102683C
:10471000D208D2000260C161DFF85003026842F49F
:104720000042026000F0B0FBDFF84403026804219D
:1047300061F3020202600020DFF8381300F0CFFCC2
:1047400000F07FFE0121012000F0A3FB002000F01B
:1047500027FF012000F024FF022000F021FF0120AC
:1047600000F040FF0121002000F056FF0121012050
:1047700000F052FF0121022000F04EFF0FF229232A
:10478000BD4901220020FEF779FD00F09DFFBB4AE4
:104790000021402001F0F7F804F23C5100916946F5
:1047A0000FF22D020FF22D00019201F06FF904F2C9
:1047B0005471029104F5C96240F23C510392059193
:1047C000049402A801F008F800F07CFF08B010BDC6
:1047D0007047000070B5054688B06868A84C00F1C5
:1047E0000B064FF412423188891A11D0491E6ED03F
:1047F000491E00F08080891E00F08A80491E00F06A
:104800008C80491E00F08C80491E00F0908092E060
:10481000684601F0FEF99DF802309DF801209DF8F0
:104820000010204601F036FA9DF804100FF26C20BB
:1048300001F030FA9DF80C309DF80B209DF80A101D
:104840009DA001F027FA00BFA1A001F023FA04A85F
:10485000002100220023002680E84E00696801F153
:104860000D0090F8000038BBA1A0864D01F012FAAF
:1048700000F064FE0F217F228DF810108DF81220B9
:1048800004F509702E68360C314601F003FAADF8D4
:104890001C602C689DA0C4F30B04214601F0FAF9BA
:1048A000ADF81E4004A801F0ADF901F007FA0021AF
:1048B000012000F0EEFA3EE0012805D104F5127067
:1048C00001F0E8F92E7036E004F51F7031E004F1D4
:1048D000240001F0DFF9686800F10D0504F5C070EF
:1048E000297801F0D7F92878002814BF04F5F6706C
:1048F00004F5D8701DE004F1480001F0CBF9D6F8BA
:104900000620D6F8021004F1980001F0C3F912E075
:10491000D6F8021004F1C00006E004F1FC0008E043
:10492000D6F8021004F5907001F0B4F903E004F534
:10493000AE7001F0AFF908B070BD38B50446FFF7AE
:104940002FF914F1010F054609D0FFF74EFE241888
:1049500005E04D48016821F00401016030BFFFF718
:104960001FF9401BA042F4D331BD02E070470000A4
:1049700000BF4FF0FF3000F095BF0021402001F054
:104980000FB8022001F02EB8022001F033B8012840
:1049900005D0022805D0102805D101F07BBC01F01C
:1049A0007BBC01F07DBC7047F8B5384C324E04F545
:1049B00080752F88B7F5807F3BD230780D2835D1B0
:1049C0004FEA040159A001F065F91EA1204601F04B
:1049D000F3FD04F5827720B958A001F05BF92C486B
:1049E00014E019A1204601F0E7FD28B955A001F017
:1049F00051F94FF0B05009E014A1204601F0DCFD60
:104A000048B900BF51A001F045F922486860384616
:104A100001F0DCFD03E021464EA001F03BF94FF42C
:104A200080712046FFF752F9002701E0E0557F1C16
:104A30002F80314601B0BDE8F040174B0122002025
:104A4000FEF71CBC53573100535732005357330005
:104A50001040005850000058040C0058FECAFECA0E
:104A6000900800583C000320082800400800005827
:104A7000800400583825002050270020CF5A000815
:104A8000FC860008002004E010ED00E0702100200A
:104A90000400001601000016A94900085769726554
:104AA0006C657373204669726D77617265206275FB
:104AB000696C642025640A0046555320766572733C
:104AC000696F6E2025642E25642E25640A0000007F
:104AD0003E3E3D3D20534843495F5355425F455656
:104AE000545F434F44455F52454144590A0D00000D
:104AF0003E3E3D3D20574952454C4553535F465736
:104B00005F52554E4E494E47200A00003E3E3D3D05
:104B1000204442474D43555F476574446576696359
:104B20006549443D20256C78200A0D007265636557
:104B3000697665642025730A000000005357312010
:104B40004F4B0A00535732204F4B0A005357332024
:104B50004F4B0A004E4F54205245434F474E495A3F
:104B6000454420434F4D4D414E44203A2025730A81
:104B700000000000F8B504460025ACB104F134068D
:104B8000307910B92046FEF76FF80F4F384600F025
:104B900021F8386840F001103860204600F007F82E
:104BA00035600121317100E001252846F2BD10B5C4
:104BB0000021064A064B00EB8104491C062963606C
:104BC000E261F8D310BD0000000C00583B1500084E
:104BD00003150008002101604FF03F1242603F239F
:104BE0008360704738B5040052D094F8210028B98A
:104BF000002184F820102046FEF710F90220DFF88B
:104C0000B81084F821000A68D00645D42268CA2169
:104C1000516253202168486200F04BF8FF2510B123
:104C200000F03FF834E02168DFF890008A68024025
:104C30008A6022689368606821690343A0690B4316
:104C4000034393602068E168016120680169A268FC
:104C500041EA024101612068C16821F08001C16020
:104C60002068C16C89088900C1642268D36CE1693D
:104C700060690B430343D36421688868810609D4C3
:104C800000F015F830B100F00CF8002084F8200096
:104C9000012032BD20684562012184F821100020E6
:104CA00032BD20684562042184F8211070472046F7
:104CB00006E020461DE000000C280040BFFF8FFFEB
:104CC00038B504462068C16821F0A001C160FEF734
:104CD00067FF05462068C168880608D4FEF760FFB4
:104CE000401B40F2E9318842F4D3032032BD00205A
:104CF00032BD38B504462068C1684A0612D44FF068
:104D0000FF31C160FEF74CFF05462068C1684806C8
:104D100008D4FEF745FF401B40F2E9318842F4D346
:104D2000032032BD002032BD10B5040001D10120A6
:104D300010BD607A20B9002121722046FEF751F89B
:104D40000220607221680A68606822F02002024333
:104D50000A602068016841F004010160012060726E
:104D60000021E160002010BD10B500F184010A7837
:104D7000012A01D1022010BD01220A7024234B60B8
:104D800002681368146864086400146000224266B4
:104D900023F000530068036020224A6000230B7058
:104DA000002010BD70B500F01FF801D1022070BDC9
:104DB00000F020F822F0604209E070B500F014F82D
:104DC00001D1022070BD00F015F822F0606211439D
:104DD0008160204600F01CF8206806602021696090
:104DE00000222A70002070BD044604F18405287852
:104DF000012870470120287024226A602068066814
:104E00000268520852000260206882687047000001
:104E100030B5416E11B90121012214E0016800BFD3
:104E20000BA48A68D1F808100BA3520E02F00702F7
:104E3000490F655CA45C595C9A5CED00E40095FB4D
:104E4000F1F194FBF2F268304180028030BD000045
:104E50000101010307010000080402040801010127
:104E600020B501460648074D00E00838C2798A425D
:104E700018BFA842F9D18A4218BF002020BD00BF48
:104E8000F873FF1F0070FF1F0D4800210160416093
:104E9000704710B500F007F85C6800F009F85C6036
:104EA00082F3108810BDEFF3108272B6044B704786
:104EB00019B1012902D104437047844370470000AF
:104EC00070270020DFF83C150A6892B200E0024625
:104ED000086880B28242FAD17047F0B5DFF8283511
:104EE000DFF828551E78182402466243B0422A444F
:104EF00004D118785870547D1C700FE0167D507DD9
:104F000092F815C005F115076643062807F806C094
:104F100004D0167D143514FB00F42E5501201073B7
:104F20001A78062A02BF00294FF0FF30D860F0BD82
:104F300010B5DFF8D444E06810F1010F0ED0FFF790
:104F4000C1FFE16881422FBFE268E168E2888A1808
:104F50002179101AE2784843D04000E0002080B266
:104F600010BD2DE9F84FDFF8A884DFF8A8B4D8F811
:104F70000060DBF80000410500F088F9DFF8885494
:104F8000DFF888A420F48060B0604FF018092C7816
:104F90000AF1080019FB04F14758FFF7C9FF8742DF
:104FA00002D20027012105E029894118B94203D224
:104FB0002F890021A97015E001223F1AAA7011E083
:104FC0000A590AF10803121A1A5108E009FB04F4FD
:104FD0000AF108010A598242F2D200230B510AEB6E
:104FE00004014C7D062CF1D1B8B238B9FFF76AFF45
:104FF000E8600320BDE8F24FFEF740BE022802DA67
:10500000E878012800D07F1E00F046F9DBF80C009C
:1050100067F30F00CBF80C00FFF754FFE860D8F8F7
:105020000000816841F480618160AFF30080BDE8D9
:10503000F18F2DE9F843EFF3108472B6DFF8D05307
:10504000DFF8C8332968CA20486253224A62886858
:10505000DFF8B42320F48060886018201678374683
:1050600047431F4497F80CC0BCF1020F26D1D7F874
:105070000080D7F810909078E8B17A7B012A0AD1A5
:1050800001213046FFF729FF84F310887968304604
:1050900000F012F904E084F31088304600F0C0F804
:1050A0002868CA214162532242623146424648463C
:1050B00001F09AFA0EE0FFF754FF09E0C8684207D2
:1050C000FCD500F07EF84FF40020DFF84C130860A8
:1050D00084F31088FF2228684262BDE8F1832DE93D
:1050E000F041DFF82C432168CA224A6253234B6205
:1050F000C84B1A6842F020021A601D68C24A05F0C7
:105100000705C5F10405D5709E68360C06F07F06CC
:10511000761C16719B68C3F30E035B1CD3805B1E69
:105120007343A3F5A073EB404FF6FF75AB422CBF62
:1051300015811381B94B1D6845F400251D60B84DDC
:105140002E6846F400262E6040BB012090704FF080
:10515000FF35D5600020AD4D002605F10C085FFA43
:1051600080FC182515FB0CFC401CC7B208F80C602D
:10517000062FF4DB062010708A6822F480628A60B1
:1051800000F01FF84FF40021D9600320FEF781FDE5
:105190002068816841F48041816005E0C86841056C
:1051A00044BF0320FEF76AFD2168FF204862002209
:1051B00003210320FEF716FDBDE8F0410320FEF7B2
:1051C0002FBDC86800F0800060F49060C860704730
:1051D0002DE9F04104460025EFF3108672B618273A
:1051E000DFF828C20CF10C0E07FB05F81EF80800CA
:1051F00010B16D1C062DF5DB062D0CD06F430CEBAA
:1052000007000127077386F3108804614273036067
:105210000D70002002E086F310880120BDE8F081C7
:10522000F8B50746EFF3108472B60320FEF703FDCE
:10523000774D7C4A2E68CA20706253213B46182065
:1052400071624343D15C022917D100213846FFF730
:1052500044FE6D48017806290AD16E4801684A0566
:1052600000F014F820F48060B06000F015F804E05D
:105270004078884218BFFFF774FE2968FF20486213
:105280000320FEF7CDFC84F31088F1BD02D5F06851
:105290004107FCD4B0687047F0684107FCD5F0685E
:1052A0005D4900F0800060F49060F0604FF40020F1
:1052B00008600320FEF7EDBC2DE9F04704461825F1
:1052C000524E684337188A46397B022904BF20466C
:1052D000FFF7A6FFEFF3108972B60320FEF7ABFCD1
:1052E000DFF82C81D8F80000CA21416253224262C3
:1052F00002203873C7F808A0C7F804A0DFF808A197
:105300009AF80000062808D100F075F878754FF07B
:10531000FF31CAF80C10002056E0FFF709FEB9680B
:105320000918B96006F10803B9689AF800206A43C1
:105330009A5891422AD39AF8002004E006F1150EFB
:105340006A431EF8022006F1150315FB02FC13F850
:105350000C30062B06D006F1080C6B435CF80330CA
:105360009942EBD21146694306F1150E1EF8013041
:10537000062B05D006F1140C15FB03F50CF80540BF
:105380007B753A7506F1150254541DE09AF8001029
:105390009AF800C0614515FB01F20FD006F1140E1A
:1053A00006F1150C1EF8023015FB03F50CF805404C
:1053B00079753B7506F114018C5403E006F1140372
:1053C00079759C5400F017F89AF800109AF80120AB
:1053D0008A4202D0FFF7C5FD02E0B968081AB8603A
:1053E000FF20D8F8001048620320FEF719FC89F36B
:1053F0001088BDE8F0879AF800108AF801108AF842
:10540000004070472828004014270020A4230020D3
:1054100038250020082800400C08005800080058D3
:1054200080080058B02300203E4900E03E4981B08A
:105430000A6802430A60096808400090009801B0B9
:105440007047F0B585B0FFF7D3F8FFF7D3F83748CA
:10545000016841F480310160002601F0E2F8142176
:105460006846FEF733FC002500240021304A02EB99
:10547000C102907988B11368B3F1904F0BD02D4FD2
:10548000BB4205D02C4FBB4207D19088044304E0B7
:105490009288154301E090880643491C2629E5DBE4
:1054A000002102910122032101920391B0B288B13F
:1054B00000900120FFF7B8FF0120FFF7B7FF694612
:1054C0004FF09040FEF78AFE0022B1B24FF09040BC
:1054D000FEF750FFA8B280B100900220FFF7A4FFB2
:1054E0000220FFF7A3FF134E69463046FEF776FE13
:1054F0000022A9B23046FEF73DFFA0B280B1009075
:105500000420FFF791FF0420FFF790FF0A4D694642
:105510002846FEF763FE0022A1B22846FEF72AFFC6
:1055200005B0F0BD4C0000584C01005890080058E0
:10553000688B0008000400480008004800B587B0E8
:105540004FEA0D0009A11C22FBF7C6FE00F079F915
:10555000684600F04FFB07B000BDFEF701BE1346E2
:105560000A4601460020FDF7A1BE00000000000031
:105570000000000000000000688B000828000320E5
:105580002C00032026040400464981B00A68024327
:105590000A60096808400090009801B07047000058
:1055A00078B585B0044600F078F80220FFF7ECFFEC
:1055B0003FA13D4E31F81450009501210191002288
:1055C000022102920391694656F82400FEF706FE76
:1055D00000F002F806B070BD56F8240000222946FB
:1055E000FEF7C8BE10B500F00FF8BDE8104001226C
:1055F000FEF7C0BE10B500F007F8BDE8104000226D
:10560000FEF7B8BE0000000029A3274C33F81010A5
:1056100054F820007047000030B585B004460D46B0
:1056200000F03BF8200008BF042004D0012C18BF74
:10563000022C02D10820FFF7A7FF2900DFF86C2019
:105640001DA00ED130F81410009100230193012108
:1056500002230291039300F01BF80120FFF76DF97C
:1056600014E0012D12D130F8140000904FF404130F
:105670000295019300F00CF811A0045D00220F21A7
:1056800060B2FEF7AFFA60B2FEF7CAFA05B030BDFD
:10569000694652F82400FEF7A1BD14220021684695
:1056A00000F0FCBF4C000058542100206021002075
:1056B00020000100020000001000010002000000B4
:1056C0000A06070001F067B86C486D49016001F1F6
:1056D0002002426001F13003836001F14002026266
:1056E00001F14803436201F15002C26001F1580325
:1056F000036101F17402426101F178038361843135
:10570000C16101F066B838B504465E4D284601F027
:10571000C3F85A494868A1680160E2685A49C26002
:105720004160856001F071F858482AE080B553481F
:105730004268136801211972406801F06CF800207A
:1057400002BD38B5514C4F4D04E000F041F80098CF
:1057500021688847284601F0A2F80028F5D031BD1D
:105760004A484168084738B50446494D284601F083
:1057700093F84249C868A1680160456001F050F89B
:1057800044482168016062684260002032BD80B5F3
:105790003A48C268136810211972C06801F046F8CF
:1057A000002002BD3548C168C2683A4910680B68DC
:1057B000184738B5374C364D04E000F009F800982A
:1057C00061688847284601F06AF80028F5D031BDA5
:1057D0006946284601F08CB838B504462E4D284657
:1057E00001F05AF82D4801F057F824480069A168E3
:1057F0008160E268C26005612168016062684260A0
:10580000216941616269826131BD80B501462348E9
:1058100001F058F8BDE802400FF2050001F00FB8A2
:1058200038B5164C1D4D06E0FFF7D2FF00992069F0
:10583000006901F047F8284601F031F80028F3D05C
:1058400031BD10B5164C204601F026F80B494869C9
:105850000460BDE8104001F006B81CB5104C06E02D
:105860006946204601F044F8009801F053F82046BC
:1058700001F015F80028F3D013BD0000000003204C
:10588000B8090320580A03209C0803208027002021
:10589000600A032088270020480A03207827002078
:1058A000500A03202DE9F843654C664EA56928404F
:1058B000A0614FF0FF372169E2696069236A4FF008
:1058C00001083CE0491C54F831301A42FAD054F82F
:1058D000312004EBC1091040D9F804100CEA000093
:1058E000014208BFC9F80470D9F80410084000F05C
:1058F000ABF8D9F8042008FA00F18A43C9F804206B
:105900006062EFF3108172B608FA00F22069D243A8
:1059100010402061022004EBC003401E53F808CC65
:1059200002EA0C0C43F808CCF5D181F31088606AC8
:1059300056F8201088472169E2696069236AD4F823
:1059400018C0014011EA0C0F05D01A4203D1002102
:1059500000EA0C02B7E7676200F0DDFFEFF31086A4
:1059600072B62269E1696069A36902401A4202BF06
:10597000206A0142FEF7FAFF86F3108800F0CCFFA0
:10598000A561BDE8F18338B51446EFF3108572B612
:1059900000F05AF82B4941F8204085F3108831BDBA
:1059A00030B5EFF3108272B6254B1C6904431C61BD
:1059B00053F83150284343F8310082F3108830BD4A
:1059C000EFF3108172B61E4A536923EA000005E026
:1059D000EFF3108172B61A4A53691843506181F38C
:1059E00010887047EFF3108172B6154AD3691843D7
:1059F000D061F4E72DE9F041114C666A054637465F
:105A000016F1010F0EBF0026012000FA06F6D4F8A9
:105A10002080256203E029463046FEF7A9FFE069B1
:105A20002842F8D06762EFF3108072B6E16921EA8C
:105A30000505E56180F31088C4F82080BDE8F08199
:105A400020210020B824002002460020110C090467
:105A500004BF1020120412F07F4F04BF083012025E
:105A600012F0704F04BF001D120100BF03A3120FFC
:105A7000C0F11F00995C401AC0B2704704030202D3
:105A80000101010100000000000000007FB50C468C
:105A90004E4D61684E4E28626962281D00F03EFF3F
:105AA0002468746006F1080000F0F6FE012000F0A2
:105AB0006AF801203070696841B10FF2ED020FF20F
:105AC000F103009201930294684688477FBD1FB599
:105AD0003F4C04F1080000F0E2FE00BB2078F0B17A
