:020000040800F2
:100000000810002049720008856F0008876F0008FB
:10001000896F00088B6F00088D6F000800000000DA
:100020000000000000000000000000008F6F0008CA
:10003000916F000800000000C5400008494000081A
:10004000597200085D72000861720008936F000821
:100050006572000869720008DB6F0008E16F000834
:100060006D72000871720008D56F00087572000883
:10007000797200087D720008976F0008817200088D
:1000800085720008897200088D720008917200085C
:1000900095720008997200089D720008A17200080C
:1000A000A5720008A97200089D6F0008AD720008D3
:1000B000B1720008B5720008B9720008BD7200087C
:1000C000C1720008C5720008C9720008CD7200082C
:1000D000A36F0008A96F0008D1720008D57200084C
:1000E000D9720008DD720008E1720008E5720008AC
:1000F000AF6F0008B36F0008B76F0008E97200081F
:10010000ED720008F1720008F5720008F97200083B
:10011000FD720008017300080573000809730008E8
:100120000D73000811730008BB6F000815730008F9
:10013000197300081D7300082173000838B50346C1
:10014000D3F88C0020280AD109B1100001D1012078
:1001500032BD00F006F8BDE8384000F0B4B9022026
:1001600032BD0020D866DFF83C431868A0420CD0AE
:100170004068040209D5186850E8004F054644F06D
:10018000806445E800400028F5D1184670472DE905
:10019000F041054640F60F0C2A68D369104613EA71
:1001A0000C0F0768966805F15C0407F0200003F067
:1001B00020010DD1002914D010B9F00040F18C803D
:1001C000A169002900F044812846BDE8F0410847B4
:1001D000DFF858C416EA0C0F04BFDFF854E417EA3E
:1001E0000E0F79D05FEAC37E48BF5FEAC75807D5D4
:1001F0004FF0010EC2F820E0626B42F00102626330
:100200009A070AD5F20708D5D5F800800222C8F867
:100210002020626B42F0040262635A070AD5F2079B
:1002200008D5D5F800800422C8F82020626B42F07F
:10023000020262631A070DD5002808BF16EA0C0FE8
:1002400008D0D5F800C00822CCF82020626B42F01C
:10025000080262631A0509D57B0107D52F684FF4A0
:1002600000623A62626B42F020026263626B002AB3
:1002700031D031B108B9F00003D5A16909B12846E0
:100280008847606B29688A68510602D410F0280FED
:100290001CD000F005F928688168480611D500F0E7
:1002A000DFF8FCD1606A60B10FF2B5318163606A3A
:1002B00000F0F6FB00280ED0606A816BBDE8F041CB
:1002C00008472846BDE8F04100F082BC284600F00F
:1002D0007FFC00206063BBE0206901287AD1D8064A
:1002E00078D5F90676D5102010622A6821889068A2
:1002F000420637D5626A1368586880B2002828D051
:10030000884226DA6080106801688A061AD400F0F4
:10031000B5F821F4807100F09FF8F8D100F0C6F82C
:10032000FCD100F0B0F8FCD1202020630021216135
:1003300000F0A4F821F0100100F08EF8F8D1606A06
:1003400000F07AFB0220606121886088091A89B276
:1003500006E088427CD11A68900679D50222626153
:10036000284633E062886088891A00281CBF88B25A
:1003700000286DD02A46106850E8003F054623F457
:10038000907345E800300028F5D1106800F10803AB
:1003900000F1080653E8003FDFF80C01034046E88F
:1003A00000300028F1D12020206300232361A361C5
:1003B000136853E8003F156823F0100345E8003048
:1003C0000028F5D10220606189B21046BDE8F041F5
:1003D00000F0FFBBD80209D5710207D54FF4801099
:1003E00010622846BDE8F04100F0F4BB180609D5BC
:1003F000390601D4300205D5E16949B32846BDE884
:10040000F0410847580611D579060FD500F036F8A7
:1004100021F0400100F020F8F8D12020E062002116
:10042000E1612846BDE8F04100F0F0BB180206D5B6
:10043000790004D52846BDE8F04100F0FBBBD801A7
:1004400048BF002F04D52846BDE8F04100F0F3BBBB
:10045000BDE8F08121F4F07142E8001000287047F7
:10046000296801F1080252E8001F286800F108031A
:1004700021F0400143E8001000287047286850E848
:10048000001F02467047286800F1080151E8001F6C
:1004900000F1080321F0400143E8001000287047F4
:1004A000284698E000800040FEFFFFEF286800F13A
:1004B000080151E8001F490800F10803490043E81A
:1004C00000100028704750B5034600209965FF24AE
:1004D00003F15C010A804A8088619868B0F5805F0A
:1004E00004D1186990B940F2FF140FE018B91869E7
:1004F00060B17F2007E0B0F1805F06D1186908B9CC
:100500007F2403E03F20888001E000248C800020CD
:10051000486322240C63186800F099F844F0010441
:1005200046E800400028F6D18868B0F1005F23D18A
:100530008889824220D39A68B2F5805F04BF186927
:10054000002803D10FF219328A610BE00FF2612407
:100550008C61186930B100F031F841F48071FFF717
:100560007BFFF8D100F02FF841F0805144E80010F3
:100570000028F7D1002050BD9868B0F5805F04BF17
:10058000186900280CD10FF235128A61186850E8FA
:10059000001F024641F02001FFF75EFFF6D1E9E7B8
:1005A0000FF2C9028A6118690028EFD000F006F83E
:1005B00041F49071FFF750FFF8D1DBE7196851E87B
:1005C000001F1A687047186800F1080151E8001F01
:1005D00000F10804704710B500F00EF8FCD100F0EF
:1005E00015F8FCD1C16E00F025F82021C0F88C1060
:1005F0000022C266426710BD016851E8002F0B4619
:1006000022F4907243E8002100297047016801F14B
:10061000080201F1080452E8002FDFF80C140A4028
:1006200044E800210029704700000000010000108C
:1006300020010004012909D1026852E8002F036853
:1006400022F0100243E800210029F5D1704700F1A3
:10065000080454E8004F00F108067047000000004D
:10066000806A0021A0F85E1000F0B2BA38B500F040
:100670004DF81ED14B6A9188846D0B402370816DBB
:100680004B1C00F049F818D100F04DF800F060F86C
:10069000FCD100F06AF80BD10023136100F04EF892
:1006A000FCD10168CB69DC0644BF10230B6276E005
:1006B0007AE0886940F00800886131BD38B500F003
:1006C00025F81ED14B6A9188846D0B402380816D83
:1006D0008B1C00F021F818D100F025F800F038F854
:1006E000FCD100F042F80BD10023136100F026F892
:1006F000FCD10168CB69DC0644BF10230B624EE0DD
:1007000052E0886940F00800886131BD00F15C0268
:100710000168136B222B7047836551884B1E5380F1
:10072000518800297047036853E8003F046823F4A8
:10073000907344E800310029F5D17047016851E811
:10074000003F0C4623F0100344E8003100297047B5
:10075000016801F1080353E8003F5B0801F1080557
:100760005B0045E800310029704720211163002318
:10077000936100215161364B016899420CD0496860
:100780000B0209D5016851E8003F0C4623F0806355
:1007900044E800310029F5D1116901297047118819
:1007A000BDE8344000F015BABDE8324000F024BA8C
:1007B0002DE9F84300F0FFF846D1A089002835D094
:1007C000B80633D500F09CF80870A86D421C00F004
:1007D000CFF812D0F90748BF5FEAC85200F096F888
:1007E00003D5F10701D500F0BBF800F098F820B16F
:1007F000284600F0EDF90020606360880028DFD112
:1008000000F0A4F8FCD100F0C9F8FCD100F0F1F838
:1008100009D100F0DEF844BF10210162218828468A
:1008200000F0D7F902E0284600F0E6F9608868B1E8
:10083000A18988420ADA00F0A4F8FCD17B48A061C3
:1008400000F07AF8FCD101E000F004F8BDE8F18393
:1008500000800040816941F008018161704700001B
:100860002DE9F84300F0A7F846D1A089002835D03B
:10087000B80633D500F044F80880A86D821C00F05B
:1008800077F812D0F90748BF5FEAC85200F03EF887
:1008900003D5F10701D500F063F800F040F820B16E
:1008A000284600F095F90020606360880028DFD1B9
:1008B00000F04CF8FCD100F071F8FCD100F099F890
:1008C00009D100F086F844BF102101622188284632
:1008D00000F07FF902E0284600F08EF9608868B1E8
:1008E000A18988420ADA00F04CF8FCD15048A06196
:1008F00000F022F8FCD101E0FFF7ACFFBDE8F18386
:100900002968486AA96D09EA0000704705D50121E8
:100910000162606B40F001006063B80770477807C0
:1009200008D5F10706D52A6804201062606B40F0F4
:1009300002006063606B7047296851E8001F2A68F5
:1009400041F0200142E8001000287047296851E872
:10095000001F2A6821F4807142E8001000287047C7
:100960002A6802201062606B40F0040060637047E8
:10097000AA656088411E61802868C76917F0070F63
:100980007047286800F1080252E8001F00F10809CA
:1009900021F0805149E8001000287047286800F1D4
:1009A000080100F1080351E8001F1F48014043E817
:1009B000001000287047054605F15C042868B4F86B
:1009C0000490C7690146D1F800808668216B22290E
:1009D000704700212161286850E8001F024621F07D
:1009E000100142E800100028F5D12868C169CA0644
:1009F0007047202020630021A161002060610D4923
:100A0000286888420CD04068010209D5286850E85F
:100A1000001F024621F0806142E800100028F5D155
:100A20002069012870470000FEFFFFEF6D060008F7
:100A3000BD0600080080004040B100F124014A7862
:100A4000022A05D00420886100220A700120704724
:100A50000268136823F00E0313604A6A136823F4D4
:100A6000807313600068026852085200026001201F
:100A700091F82020CB6902F01C02904058608A6AED
:100A8000C86A5060086B30B1026822F4807202605C
:100A9000486B8A6B426001224A70002008707047E0
:100AA00038B500F1240200245178022903D0042033
:100AB0009061012428E001680B6823F00E030B60AD
:100AC00001680D686D086D000D60516A0B6823F4B4
:100AD00080730B60012192F82030D56903F01C036C
:100AE00099406960936AD16A5960116B31B10B68A2
:100AF00023F480730B60516B936B4B600123537035
:100B00001470516901B18847204632BDF8B500F133
:100B100024010423CA6914680268156891F82060EA
:100B200006F01C0603FA06F73C4210D06F070ED5FC
:100B30001468A50603D4146824F00404146000F0BB
:100B40003EF8C968002939D0BDE8F44008470223BF
:100B500003FA06F73C4213D0AF0711D51468A50677
:100B600005D4146824F00A04146001224A7000F0CD
:100B700026F800220A70896801B3BDE8F4400847EE
:100B8000082303FA06F6344218D02B0716D514684A
:100B900024F00E041460012291F82030CC6903F097
:100BA0001C039A406260012301228A614B7000227B
:100BB0000A70096911B1BDE8F4400847F1BD91F828
:100BC0002020CC6902F01C02934063607047000053
:100BD0007047704770477047002800D0704710B5C5
:100BE000104C00F004F8BDE81040FFF7A7BA0F481A
:100BF00023600F4B0360704700680D49884204D1A1
:100C0000084A1068002818BF004770470068084964
:100C1000884204D1044A1068002818BF0047704772
:100C200000000000EC430020F0430020B83F00200B
:100C300000380140704770474FF0B040006800F046
:100C4000F000B02888BFB0207047DFF800080068C7
:100C5000000100F0F00070472DE9F04104004BD096
:100C6000207881064FF0B04534D5A868E96810F0C7
:100C70000C0001F0030103D00C2808BF01293DD16D
:100C8000E069002838D0FFF7D7FF616A88420CD2AC
:100C9000084600F08FFB00282ED12968606A21F0F9
:100CA000F001014300F01AFA09E0286820F0F00092
:100CB000014300F013FA606A00F07CFBE0B900F039
:100CC00037FBDFF88C170860DFF88807006800F052
:100CD000F7FB88B92078C10768D5A868E96800F0F3
:100CE0000C00082801F0030103D00C2808BF0329D9
:100CF00034D16068002859D10120EDE1E069E8B104
:100D0000296841F0010100F0D4FA064628688007FE
:100D100006D400F031FC801B0328F7D30320DBE16D
:100D20002868616A20F0F000084328606868216A3A
:100D300020F47F4040EA01206860CBE72868400843
:100D4000400000F0A4FB064628684008C007C1D553
:100D500000F012FC801B0328F6D3DFE76068B0F5D3
:100D6000803F04D1296841F48031296003E028687C
:100D700020F480302860606858B100F0FDFB064622
:100D80002868800312D400F0F7FB801B6528F7D396
:100D9000C4E700F0F1FB06462868400CC00705D503
:100DA00000F0EAFB801B6528F6D3B7E720788107BF
:100DB00015D5A868E96800F00C00042801F00301CB
:100DC00003D00C2808BF022928D1E068002893D05E
:100DD0006868216920F0FE4040EA0160686021688F
:100DE000DFF8746611F0180F00F08B80606900283E
:100DF00077D0C806706858D5800730D4716841F044
:100E00000101716000F0B8FB07467068800726D4C6
:100E100000F0B2FBC01B0328F7D37FE7E06870B196
:100E2000296841F4807100F044FA064628684005BC
:100E3000CED400F0A1FB801B0328F7D36EE728680F
:100E400020F4807000F023FB06462868800AC00763
:100E5000C5D500F091FB801B0328F6D35EE77068D0
:100E600040F0040000F043F907467068000705D41D
:100E700000F082FBC01B0428F7D34FE77068A1691C
:100E800020F4706040EA0120706070684008400003
:100E900000F02DF9074670684008C00731D500F012
:100EA0006BFBC01B0328F6D338E740F0010000F0CD
:100EB0001EF907467068800705D400F05DFBC01B73
:100EC0000328F7D32AE7706820F004007060706888
:100ED000C008C00715D500F04FFBC01B0428F6D38F
:100EE0001CE7706820F0040000F001F90746706804
:100EF000C008C007C9D500F03FFBC01B0428F6D3CB
:100F00000CE7207841074BD5DFF850753868C105EC
:100F10000ED400F037FB00F02FFB80463868C10587
:100F200006D400F029FBA0EB08000328F6D3F5E671
:100F3000A068012804D1306840F00100306010E062
:100F40000528306806D140F004003060316841F077
:100F5000010105E0400840003060316821F00401E3
:100F60003160A06841F2893760B100F005FB80462E
:100F70003068800714D400F0FFFAA0EB0800B842F4
:100F8000F6D3CBE600F0F8FA804630684008C00798
:100F900006D500F0F1FAA0EB0800B842F5D3BDE6A3
:100FA0002078410620D5A06A0028B0680DD040F016
:100FB000010000F077F90746B068800714D400F00C
:100FC000DBFAC01B0328F7D3A8E64008400000F076
:100FD00069F90746B0684008C00705D500F0CCFAAB
:100FE000C01B0328F6D399E6E06A002873D0A968ED
:100FF000EA68022801F00C0159D1236B02F00300CA
:10100000984202BF02F07000636B984213D1A36B49
:10101000C2F30620984202BF02F47810E36B9842B4
:1010200009D1236C02F06060984202BF02F0604276
:10103000606C824237D00C293AD0286841013FF5D4
:101040005BAE00F021FA06462868810105D500F064
:1010500093FA801B0328F7D360E6E868DFF80014F2
:10106000226B0840616B1043A26B0843E16B40EABE
:101070000220226C0843616C10430843E860286832
:1010800040F080702860E96841F08051E96000F02C
:1010900073FA0446286881011DD400F06DFA001B24
:1010A0000328F7D33AE62868810114D4E7E70C292E
:1010B0003FF422AE00F0E8F904462868810105D526
:1010C00000F05AFA001B0328F7D327E6E868DFF898
:1010D00094130840E8600020BDE8F0812960696849
:1010E000206A21F47F4141EA002169607047706005
:1010F00000F042BA2DE9F8430400884600F0AE80C3
:10110000DFF8645300F0C9F80CD200F0CEF80646C0
:1011100000F0C3F806D000F02FFA801B0228F7D9A0
:101120000320B8E0207881074FF0B04611D5B268AF
:10113000A06822F0F0020243B26000F01DFA0746F8
:10114000B068C00305D400F017FAC01B0228F7D915
:10115000E6E72078DFF8F472810612D53A68606914
:1011600022F0F00202433A6000F006FA8146386845
:10117000800306D400F000FAA0EB09000228F6D99B
:10118000CEE72078410613D53868A169000900012F
:1011900040EA1110386000F0EFF981463868C0036A
:1011A00006D400F0E9F9A0EB09000228F6D9B7E768
:1011B0002078410711D5B268E06822F4E06202436A
:1011C000B26000F0D9F90746B068800305D400F09A
:1011D000D3F9C01B0228F7D9A2E72078010711D55F
:1011E000B068216920F4605040EAC10000F05AF86C
:1011F0000746B068400305D400F0BEF9C01B0228C2
:10120000F7D98DE72078C1072AD56068022818D160
:101210003168890322D5B268920840EA820000F062
:1012200041F80746B068616800F00C00B0EB810F30
:1012300016D000F0A1F9C01B41F289318842F1D3E8
:101240006EE7032802D13168890103E00028316884
:1012500002D18907DFD401E04905DCD401201AE07E
:10126000286800F0070080450BD200F01EF8044605
:1012700000F013F805D000F07FF9001B0228F7D921
:101280004EE700F055F87249086000F097F9BDE8A4
:10129000F24300F015B9BDE8F283286800F00700BA
:1012A00040457047B06000F067B92968C90848EA4E
:1012B000C101296000F060B938B54FF0B0446C4D01
:1012C000A16811F00C0106D1FFF7B6FCC0F30310C2
:1012D00055F8200032BD0429664828D00829664AFE
:1012E00004D12168C90222D4104632BDE16801F060
:1012F000030102290CD0032904D12168C90207D4B3
:10130000104605E0FFF798FCC0F3031055F82000E5
:10131000E168E268E368C1F306214843C2F30211C1
:10132000491C5B0FB0FBF1F05B1CB0FBF3F032BD6E
:1013300080B5FFF7C1FF4D49FFE7504A0968C1F387
:10134000031152F82110B0FBF1F002BD80B5FFF798
:10135000EFFF00F008F8C1F3C22112F8211001F0EC
:101360001F01C84002BD4149454A096870476F22C4
:1013700002603E4A136803F00C034360136803F0F5
:10138000F0038360136803F4E063C360126802F43F
:10139000605202612D4A136803F0F0034361126842
:1013A000120102F0F00282612F48026802F0070287
:1013B0000A60704770B52E49B1282EBFCC6AC0F3C1
:1013C000031051F82040FFF740FC054600F016F9E5
:1013D0002A49C5F3031251F822102A4AB4FBF1F14D
:1013E0005FF00004B1FBF2F1B0F5007F30A22046BF
:1013F0001FD100BF27A353F820508D4216D2401CA6
:101400000328F8D9184D2868C00844EAC00000F045
:101410003EF80646286800F00700A04213D000F00E
:10142000ABF8801B0328F5D3032070BD52F8204091
:10143000E8E700BF1BA353F820508D42F6D2401CB2
:101440000328F8D3DEE7002070BD00000801005833
:10145000341200201C120020900000580004005894
:101460008C80C111FCFFFEEE0040005808000058BF
:10147000E86D00080024F4000048E801A86D0008A9
:10148000C071000840420F00286820F0807028607A
:1014900000F072B8120000002400000036000000C6
:1014A00040000000060000000C00000010000000DA
:1014B0000000000001000000020000000300000026
:1014C00078B5044689B000F039F81A2000F0D6F853
:1014D0002448254D016841F48021016001A900687C
:1014E00000F480200090009802A8FFF740FFFFF76B
:1014F0002DFF1E491E4B2960B0FBF3F0401E40F249
:10150000E73268600021EA602961A960284600F09E
:10151000F5F806000FD1284600F0FDF806000AD1C4
:101520001A2000F0ABF8102C04D200F007F8114894
:10153000046000E0012630460AB070BD002221465A
:101540001A2000F07DB808480068C16849084900C1
:10155000C160704704480068C16841F00101C16082
:10156000704700006000005894420020004801408D
:1015700040420F001C12002001484068704700BF25
:10158000141200200248016841F480710160704724
:1015900000040058164810B5016841F480710160DC
:1015A000032000F040F80020FFF78AFF0024002805
:1015B00014BF012400F0E1F9204610BD0D488068F9
:1015C00070470C48007870470B480BE00A480168E8
:1015D00021F00201016070470748016821F0040111
:1015E00001607047016849084900016070470000C8
:1015F0000040005814120020042004E0DFF8080026
:10160000006800F4C060704700040058090102003F
:1016100002D4324881547047314B02F00F021A4411
:1016200002F8041C70472F4B19684FF6FF020002A6
:10163000114000F4E06008432B49084318607047EC
:1016400070B5284B1C68C4F302230124C3F10705BD
:10165000052D2EBF0F2504FA05F56D1E1E1D072E44
:1016600034BF0023DB1E2940994004FA03F3BDE890
:1016700070405B1E1A401143C8E70000010007D408
:10168000012200F01F01194B8A40400943F8202035
:10169000704701000BD4012200F01F01144B8A4057
:1016A000400943F82020BFF34F8FBFF36F8F70477F
:1016B000010007D4012200F01F010E4B8A404009AF
:1016C00043F820207047010007D4012200F01F01D9
:1016D000094B8A40400943F82020704700E400E0AD
:1016E00018ED00E00CED00E00000FA0500E100E07C
:1016F00080E100E000E200E080E200E038B50400B4
:1017000001D1012032BD00F047F818B900F0ECF823
:1017100000F0BAF926E090F83D10012901D001202F
:101720007047022180F83D100168CA6842F001024A
:10173000CA600168DFF85820914218BFB1F1804FAC
:1017400009D18A68DFF84C101140062918BFB1F59D
:10175000803F05D001680A68084642F00102026035
:101760000020704702206870211D206800F0C0F83A
:10177000012028730121A970E87029716871A9718D
:10178000E87129726872A972E8726970002032BD2E
:10179000002C01400700010004F13C056878704707
:1017A00070B504462068C5680669B10714D5AA0754
:1017B00012D56FF00201016101222277806910F0D9
:1017C000030F204602D000F060F903E000F05EF95C
:1017D00000F087F800202077700715D5690713D52A
:1017E00020686FF00402026102212177806910F401
:1017F000407F204602D000F048F903E000F046F9AF
:1018000000F06FF800202077300715D5290713D591
:1018100020686FF00802026104212177C06910F08E
:10182000030F204602D000F030F903E000F02EF95B
:1018300000F057F800202077F00615D5E90613D5FB
:1018400020686FF01002026108212177C06910F44E
:10185000407F204602D000F018F903E000F016F9AE
:1018600000F03FF80020207706F0010105F00100AC
:10187000014206D020686FF001010161204600F0AE
:10188000BBF916F4025F08D0280606D522686FF46B
:1018900002511161204600F0CAF9F00508D5290669
:1018A00006D522686FF480701061204600F0C0F900
:1018B000700608D5690606D522686FF040001061F1
:1018C000204600F0B6F9B0060AD5A90608D5226868
:1018D0006FF0200010612046BDE8704000F0AAB90A
:1018E00070BD204600F0A7B900212970204670473E
:1018F000F0B50368DFF86060DFF86040DFF8605043
:10190000B04218BFB0F1804F01BF23F070024B68A6
:101910001343B04205D0B0F1804F1CBFA842A04293
:1019200003D123F44072CB6813434A698F68C762BE
:1019300023F0800313430A688262B0421CBFA842AE
:10194000A04201D1096901630121026842F0040249
:10195000026041610360F0BD002C0140004801407D
:1019600000440140434981B00A6802430A600968A3
:1019700008400090009801B0704780B54FF40020F7
:10198000FFF7F0FF00220F216FF00100FFF758FE74
:10199000002200212E20FFF753FEBDE802402E203A
:1019A000FFF76CBE00683449884200D0704780B5AC
:1019B0004FF48010FFF7D6FF002200212C20FFF704
:1019C0003FFE2C20FFF75AFE002200212D20FFF7BA
:1019D00037FEBDE802402D20FFF750BE10B594B091
:1019E00004465021684600F027F9226823498A42BC
:1019F0000FD14FF400734FF0805100930E91684661
:101A000000F034F908B100F011F94FF48020FFF72D
:101A1000A9FF14B010BD18B595B00446502101A817
:101A200000F00AF9226816498A4221D14FF4006376
:101A30004FF480710193119101A800F017F908B1DA
:101A400000F0F4F80F48816B41F4004181630021FC
:101A5000026842F4806202600022006800F4806044
:101A6000009000980320FFF7EBFD0320FFF706FE30
:101A700016B010BD50000058000C0058001000585F
:101A80000028004058000058704770477047704762
:101A90005D4900E05D4981B00A6802430A60096857
:101AA00008400090009801B0704710B5FFF772FD34
:101AB00000F05AFA00F04DF800F089F8544C5548FF
:101AC000A06304F1380000F015FC0420FFF7E2FFEA
:101AD0000120FFF7DFFF0220FFF7DCFF0420FFF704
:101AE000D7FF0120FFF7D4FF0220FFF7D1FF00222C
:101AF0000E210E20FFF7A4FD0E20FFF7BFFD0022F0
:101B00000E213A20FFF79CFD3A20FFF7B7FD42482F
:101B10002060002147F6FF700F22E0606160A26044
:101B20002161A161E1616161204600F01BFC00229E
:101B30000021204600F0BEFC384860620021A1620E
:101B400004F1240000F038FD00F022FA00F05AFA07
:101B5000FEE780B59AB0482108A800F06DF81C2176
:101B600001A800F069F8FFF70DFD2D48016821F08C
:101B70001801016001212B48026861F34A220260CA
:101B80004721006800F4C06000904FF48032009854
:101B90000891099201214FF480720A910B921291DF
:101BA000402200210C92139108A8FFF755F86F20EE
:101BB0000221019002910022039204920592069262
:101BC0000792012101A8FFF795FA1BB000BD80B56F
:101BD00094B05021684600F02FF84FF440524FF473
:101BE00080410092119102221021129213916846B5
:101BF00000F03CF815B000BD00680B49884208BFF2
:101C000000F0FABC70470000480000584C00005833
:101C100060410020000C00580028004000100058CF
:101C20009000005800040058004801407047704779
:101C30007047704770477047002200F0E5BC000015
:101C4000DFF820130A68030903F47F2300019A4395
:101C500000F47F2000F082B9DFF808231368010C3C
:101C600023EA014343EA0043136070472DE9F84338
:101C7000054600242878DFF8EC624106A0464FF0C4
:101C8000B04743D5286B70B1B0F5800F06D0B0F5E2
:101C9000000F18BFB0F5400F2ED035E0F96841F4C1
:101CA0008031F96029E0386820F080603860FFF703
:101CB00063FC81463868C00EC00707D5FFF75CFC9F
:101CC000A0EB09000228F5D9032415E000F02FF954
:101CD000A96820F4781000F039F9814638680001CD
:101CE00006D4FFF749FCA0EB09000228F6D9EBE780
:101CF00038696969084338613CB93168286B21F457
:101D000040010143316001E00124A046286801053B
:101D100032D5D6F80880286C08F4407880452AD05F
:101D2000FFF730FCB8F1000FB16805D1286C21F441
:101D300040710143B1601EE0B06840F48030B06093
:101D400021F44071B06820F48030B060286C014309
:101D5000B160B068C0070ED5FFF70EFC8046B068D2
:101D6000800708D4FFF708FCA0EB080041F2893196
:101D70008842F4D30324A0462878C10705D53268E9
:101D8000A869920840EA820232602978880705D55E
:101D90003168E86921F44061014331602978C8065F
:101DA00044BFA86AFFF758FF2878810644BFE86A55
:101DB000FFF752FF2878410744BF286AFFF740FF2A
:101DC0002878010744BF686AFFF73AFF2868C10511
:101DD00032D53268686B22F0406202433260696B30
:101DE000B1F1006F00F09DF8686BB0F1806F23D106
:101DF00000F0A6F804463868C00EC10707D5FFF703
:101E0000BBFB001B0228F6D94FF0030814E000F0DA
:101E10008EF8E96820F0606000F098F804463868B1
:101E2000010105D4FFF7A8FB001B0228F7D9EBE757
:101E30003869696908433861286881051CD5A86B31
:101E4000B0F1804F18BFB0F1004F00D020B9316819
:101E500021F04041084309E0316821F04041316000
:101E600020F08050326822F0406210433060A86B4E
:101E7000B0F1C05F00F055F82868410535D53268EB
:101E8000E86B22F0405202433260E96BB1F1005F2F
:101E900003D1F86840F48030F860E86BB0F1805FFF
:101EA00023D100F04DF804463868C00EC10707D5AD
:101EB000FFF762FB001B0228F6D94FF0030814E07D
:101EC00000F035F8296920F0604000F03FF8044642
:101ED0003868010105D4FFF74FFB001B0228F7D932
:101EE000EBE738696969084338612868C10405D59A
:101EF000F268686C22F440420243F2602968880468
:101F00000BD5796AE86C21F0300101437962796A76
:101F1000A86C890840EA810179625FFA88F0BDE81F
:101F2000F28303D1F86840F08070F8607047386938
:101F3000696820F4FE4040EA012038613869704742
:101F4000396821F080613960FFF716BB08433861BA
:101F5000386840F080603860FFF70EBB10430860BF
:101F6000704700008800005880B5BA4A4FF400411D
:101F70001160002000F062FB48B18079B649B74A91
:101F80000A600B6823F47C5343EA00230B6001BD15
:101F900080B5B348016841F050010160CA22B148E0
:101FA000C2615321C161FF210268D208D2000260E0
:101FB000C161AD48026842F40042026000F052FB89
:101FC000AA480268042161F3020202600020A849C5
:101FD00000F091FC00F05DFE0121012000F047FBC4
:101FE0000121002000F018FF0121012000F014FF62
:101FF0000121022000F010FFBDE800500FF2D113C4
:102000009C491DE100F058BF78B587B09A4C04F5A3
:1020100090753426CDF8006042F2A03304F5AA7220
:10202000A3A1284600F06AFF34230022A3A1201DAB
:1020300000F0C6FF1C230022A3A104F1380001F028
:102040001FF81C2300228D4904F1540001F018F8F8
:1020500000234FF480622146284601F065F80022F3
:10206000012104920591B020226810234FF4806171
:102070000690039302930191009200230FF2D10284
:1020800095A104F1700001F089F808B070BD7A4A9A
:1020900010B1012805D070474FF0FF31101D01F03D
:1020A0001FB9101D01F04CB938B5044688B06068FE
:1020B000B0F80B10B1F5124F2ED104A801F079F948
:1020C0006846002100220023002580E82E00616878
:1020D00001F10D000078E0B900F074FE0F218DF8D9
:1020E00000107F2266488DF802200168090CADF8C7
:1020F0000C100068C0F30B00ADF80E00684601F04C
:1021000051F9604801F096F90021012000F0AFFA82
:1021100002E0012808BF227009B030BD38B504467E
:10212000FFF72AFA14F1010F054609D0FFF749FA23
:10213000241805E05448016821F00401016030BF13
:10214000FFF71AFA401BA042F4D331BD0000000093
:1021500010B588B001F07CFC4C4C4D4A4D480192C2
:1021600004F23C510091694601F060FD04F25471A3
:10217000029104F5C96240F23C5103920591049426
:1021800002A801F0EDFC01F061FC3B4C4FF0FF3187
:1021900004F1540001F0F0FD01F069FDF6E73E485E
:1021A00001F00CBE3D4801F009BE4FF0FF313B4845
:1021B00001F0E2BD012805D0022805D0102805D184
:1021C00001F0CBBA01F0CBBA01F0CDBA70470000F4
:1021D000F8B5334C274E04F580752888B0F5807F1C
:1021E00028D231780D2922D117A1204601F0F2FD25
:1021F00004F5827708B92B480DE014A1204601F0C0
:10220000E9FD10B94FF0B05005E011A1204601F0F2
:10221000E1FD20B924486860384601F0E5FD002062
:1022200028804FF480712046FFF706FD02E021541C
:10223000401C2880314601B0BDE8F0401B4B00BF78
:1022400001220020FEF7C8BC53573100535732001B
:1022500053573300104000589C000058FECAFECA75
:1022600090080058082800400800005880040058D2
:1022700060410020B84300203C1200202871000873
:10228000002004E05C13002010ED00E03C0003207F
:102290008F200008A920000890120020741200204E
:1022A000943C00200400001601000016D121000813
:1022B0006279746520706F6F6C2030006D75746585
:1022C000785F73686369000073656D6170686F7231
:1022D000655F7368636900007468726561645F5369
:1022E0006863695573657245767450726F63657380
:1022F00073000000F8B504460025ACB104F13406C3
:10230000307910B92046FFF74DFB0F4F384600F0EB
:1023100021F8386840F001103860204600F007F8D6
:1023200035600121317100E001252846F2BD10B56C
:102330000021064A064B00EB8104491C0629636014
:10234000E261F8D310BD0000000C00588F1A00089D
:10235000D70B0008002101604FF03F1242603F237D
:102360008360704738B5040001D1012032BD94F874
:10237000210028B9002184F820102046FFF74BFBEC
:10238000022084F821002068C168CA0637D4CA2117
:102390004162532022685062204600F053F8010049
:1023A00019D12168DFF894008A6802408A602268A7
:1023B0009368606821690343A0690B4303439360FA
:1023C0002068E168016120680169A26841EA024170
:1023D000016100F019F801000BD12168CA6C920864
:1023E0009200CA642368DD6CE269616915430D439C
:1023F000DD64FF22216803004A6204D100E000206E
:10240000012184F8211032BD20463DE038B5044654
:102410000B482168C860FFF7AFF805462068C1681F
:10242000880608D4FFF7A8F8401B40F2E93188423B
:10243000F4D3032032BD002032BD0000BFFF8FFF68
:102440005FFF010070B5044600252068C1684A0698
:1024500018D4C16841F08001C160FFF78DF80646CD
:102460000AE0FFF789F8801B40F2E931884203D384
:10247000042084F8210001252068C168480601D4A1
:102480002800EED0284670BD38B5044600252068E7
:10249000C16821F08001C16020688168880607D486
:1024A0002046FFF7B3FF18B1042084F8210001256E
:1024B000284632BDF8B53F4E034630684FF47A7572
:1024C00040092C46B0FBF4F46C43009493F82000D0
:1024D000012801D10220F2BD012083F8200002244E
:1024E00083F82140CA201F68786253241868446228
:1024F000FF241F68B868400507D50098401E00906B
:102500000098F0B1F8684007F7D4B86820F480600C
:10251000B8601868C76807F0800767F49067C760FD
:10252000306840092E46B0FBF6F6754300951D68ED
:102530000098401E0090009818B1E8684607F7D54B
:1025400006E018684462032100F023F80320F2BD7E
:10255000A868C008C000A860186885682A4382601F
:10256000186841611148016841F400210160104878
:10257000026842F4002202601868816841F48041D8
:102580008160186800F00BF81868446200F001F8E8
:10259000F2BD83F82110002083F820007047816885
:1025A00041F480618160012170470000800800587B
:1025B000000800583412002010B5040001D1012099
:1025C00010BD607A20B9002121722046FFF706FA7B
:1025D0000220607221680A68606822F020020243CB
:1025E0000A602068016841F0040101600120607206
:1025F0000021E160002010BD0248416802788A187D
:10260000426070471412002000B500BF13009646C8
:102610009446103928BFA0E80C50FAD85FEA417CF4
:1026200028BF0CC048BF40F8042BC90728BF20F8BA
:10263000022B48BF00F8012B00BD000020B5014669
:102640000648074D00E00838C2798A4218BFA84200
:10265000F9D18A4218BF002020BD00BFF873FF1FC8
:102660000070FF1F1B48002101604160704710B5DA
:1026700000F007F85C6800F009F85C6082F31088ED
:1026800010BDEFF3108272B6124B704719B10129D9
:1026900002D1044370478443704738B5EFF3108488
:1026A00072B60C490C4D086820B1296888476A68E1
:1026B00090470AE0486820B1A8688047E9688847E1
:1026C00003E0286980476969884784F3108831BD31
:1026D00000000000C043002030720008DFF87415CD
:1026E0000A6892B200E00246086880B28242FAD1DB
:1026F0007047F0B5DFF86035DFF860551E781824B4
:1027000002466243B0422A4404D118785870547D7E
:102710001C700FE0167D507D92F815C005F115076D
:102720006643062807F806C004D0167D143514FB4E
:1027300000F42E55012010731A78062A02BF0029D2
:102740004FF0FF30D860F0BD10B5DFF80C45E06801
:1027500010F1010F0ED0FFF7C1FFE16881422FBFDA
:10276000E268E168E2888A182179101AE278484321
:10277000D04000E0002080B210BD2DE9F84FDFF816
:10278000E084DFF8E0B4D8F80060DBF80000410531
:1027900000F08CF9DFF8C054DFF8C0A420F48060AA
:1027A000B0604FF018092C780AF1080019FB04F109
:1027B0004758FFF7C9FF874202D20027012105E0F1
:1027C00029894118B94203D22F890021A97015E047
:1027D00001223F1AAA7011E00A590AF10803121ADD
:1027E0001A5108E009FB04F40AF108010A5982426F
:1027F000F2D200230B510AEB04014C7D062CF1D1DF
:10280000B8B238B9FFF76AFFE8600320BDE8F24FBD
:10281000FEF74EBF022802DAE878012800D07F1EBA
:1028200000F04AF9DBF80C0067F30F00CBF80C005E
:10283000FFF754FFE860D8F80000816841F4806138
:102840008160AFF30080BDE8F18F2DE9F843EFF32D
:10285000108472B6DFF80854DFF800342968CA2003
:10286000486253224A628868DFF8EC2320F48060D3
:10287000886018201678374647431F4497F80CC0E5
:10288000BCF1020F26D1D7F80080D7F810909078CD
:10289000E8B17A7B012A0AD101213046FFF729FFEE
:1028A00084F310887968304600F016F904E084F368
:1028B0001088304600F0C4F82868CA2141625322CB
:1028C000426231464246484601F09EFA0EE0FFF76A
:1028D00054FF09E0C8684207FCD500F082F84FF4C5
:1028E0000020DFF88413086084F31088FF22286832
:1028F0004262BDE8F1832DE9F041DFF864432168CD
:10290000CA224A6253234B62DFF858331A6842F0F6
:1029100020021A601D68D04A05F00705C5F10405BC
:10292000D5709D682D0C05F07F056D1C15719B6899
:10293000C3F30E035B1CD3805D1E137913FB05F3F9
:10294000D578A3F5A073EB404FF6FF75AB422CBFD3
:1029500015811381C54B1D6845F400251D60C44DCC
:102960002E6846F400262E6040BB012090704FF088
:10297000FF35D5600020B94D002605F10C085FFA3F
:1029800080FC182515FB0CFC401CC7B208F80C6035
:10299000062FF4DB062010708A6822F480628A60B9
:1029A00000F01FF84FF40021D9600320FEF78BFEE2
:1029B0002068816841F48041816005E0C868410574
:1029C00044BF0320FEF774FE2168FF204862002206
:1029D00003210320FEF734FEBDE8F0410320FEF79B
:1029E0004DBEC86800F0800060F49060C860704719
:1029F0002DE9F04104460025EFF3108672B6182742
:102A0000DFF858C20CF10C0E07FB05F81EF80800A1
:102A100010B16D1C062DF5DB062D0CD06F430CEBB1
:102A200007000127077386F310880461427303606F
:102A30000D70002002E086F310880120BDE8F081CF
:102A4000F8B50746EFF3108472B60320FEF721FEB7
:102A5000834D884A2E68CA20706253213B46182055
:102A600071624343D15C022917D100213846FFF738
:102A700040FE7948017806290AD17A4801684A055A
:102A800000F014F820F48060B06000F015F804E065
:102A90004078884218BFFFF770FE2968FF2048621F
:102AA0000320FEF7EBFD84F31088F1BD02D5F0683A
:102AB0004107FCD4B0687047F0684107FCD5F06866
:102AC000694900F0800060F49060F0604FF40020ED
:102AD00008600320FEF7F7BD2DE9F04704461825EE
:102AE0005E4E684337188A46397B022904BF204668
:102AF000FFF7A6FFEFF3108972B60320FEF7C9FDBA
:102B0000DFF85C81D8F80000CA214162532242629A
:102B100002203873C7F808A0C7F804A0DFF838A16E
:102B20009AF80000062808D100F075F878754FF083
:102B3000FF31CAF80C10002056E0FFF705FEB96817
:102B40000918B96006F10803B9689AF800206A43C9
:102B50009A5891422AD39AF8002004E006F1150E03
:102B60006A431EF8022006F1150315FB02FC13F858
:102B70000C30062B06D006F1080C6B435CF80330D2
:102B80009942EBD21146694306F1150E1EF8013049
:102B9000062B05D006F1140C15FB03F50CF80540C7
:102BA0007B753A7506F1150254541DE09AF8001031
:102BB0009AF800C0614515FB01F20FD006F1140E22
:102BC00006F1150C1EF8023015FB03F50CF8054054
:102BD00079753B7506F114018C5403E006F114037A
:102BE00079759C5400F017F89AF800109AF80120B3
:102BF0008A4202D0FFF7C1FD02E0B968081AB86046
:102C0000FF20D8F8001048620320FEF737FD89F353
:102C10001088BDE8F0879AF800108AF801108AF849
:102C20000040704738B5EFF3108472B60D48016864
:102C30004A0508D5C568FFF787FDADB2A842ACBF0D
:102C400000252D1A01E04FF6FF7584F31088A8B215
:102C500032BD000028280040884300204C4000205E
:102C600060410020082800400C0800580008005867
:102C700080080058584000204B4900E04B4981B083
:102C80000A6802430A60096808400090009801B091
:102C90007047F8B58AB0142105A8FEF7CDFF0022D1
:102CA000079203214FF46042069105920120FFF73D
:102CB000E3FF05A94FF0904001F0A8F83A4D3C4CD5
:102CC0002868400840002860182105910220FFF77D
:102CD000D3FF05A900F073F8286820F002002860EF
:102CE0000025FEF771FCFEF771FCFEF775FC142160
:102CF0006846FEF7A1FF0026002700212D4A02EBBF
:102D0000C102907980B11368B3F1904F0AD0A34209
:102D100005D02948834207D19088074304E0928870
:102D2000164301E090880543491C2629E6DB002173
:102D300002910122032101920391A8B288B100906F
:102D40000120FFF799FF0120FFF798FF69464FF038
:102D5000904001F05BF80022A9B24FF0904001F0E2
:102D60001FF9B0B268B100900220FFF785FF022082
:102D7000FFF784FF00F022F80022B1B2204601F0F4
:102D80000FF9B8B270B100900420FFF775FF04206E
:102D9000FFF774FF084C00F011F80022B9B220468A
:102DA00001F0FEF80BB0F0BD4C0000584C0100588B
:102DB00000040048C8690008000800486946204629
:102DC00001F024B800B587B04FEA0D0005A11C2220
:102DD00001F004F900F0F9FE684600F0DBFA07B0F4
:102DE00000BD000000000000000000000000000026
:102DF000C8690008280003202C00032026040400D2
:102E0000284981B00A6802430A60096808400090B6
:102E1000009801B07047000030B585B004460D46FB
:102E200000F03BF8200008BF042004D0012C18BF9C
:102E3000022C02D10820FFF7E3FF2900DFF8682009
:102E40001AA00ED130F81410009100230193012133
:102E500002230291039300F01BF80120FFF75EF9B3
:102E600014E0012D12D130F8140000904FF4041337
:102E70000295019300F00CF80EA0045D00220F21D2
:102E800060B2FEF7DDFB60B2FEF7F8FB05B030BDC7
:102E9000694652F8240000F0B9BF142200216846A8
:102EA00001F0A8B84C0000582012002010000100CA
:102EB000020000000A06070038B50D4D286810F121
:102EC0000F3F4FF0F03408D02C6001F09DF801F076
:102ED000CDF808480168491C01602C60064800686C
:102EE000FFF792F800202860BDE8314001F0D4B827
:102EF00038120020903E0020F44300202DE9F843D2
:102F0000894690461F46002520B30899342921D1CF
:102F1000EFF3108272B624490B685B1C0B6082F3DE
:102F200010880446214A224816680368002201E0FE
:102F3000F66A521C9A4201D2B442F9D1EFF31080E2
:102F400072B60A68521E0A6080F3108801F00CF90C
:102F5000B44201D1022524E05FEA080208BF03253C
:102F60001FD03B46642B38BF05251AD31148124F9A
:102F70000168B94208BF1325104F3868EFF3058187
:102F8000084308D03968EFF305800143B1F1F03F01
:102F900038BF132505D325B94946204601F002F96B
:102FA00005462846BDE8F283903E002038430020C5
:102FB0003C4300207C3E0020E437002038120020F3
:102FC0002DE9F04104468846154600262CB3342BE3
:102FD00023D1EFF3108172B623480268521C0260BD
:102FE00081F310882149224A0F681368002101E00B
:102FF0003F6A491C994201D2BC42F9D1EFF31081DA
:1030000072B6D0F800C0ACF1010CC0F800C081F37A
:10301000108801F0A9F8BC4201D11C2620E0012D46
:103020001CBF002D1F261BD11248134A0168914274
:1030300008BF1326114A1068EFF30581084308D032
:103040001168EFF305800143B1F1F03F38BF13265B
:1030500006D32EB92A464146204601F0E3F806463B
:103060003046BDE8F08100BF903E0020284300209C
:103070002C4300207C3E0020E43700203812002042
:10308000F8B504000D46164625D01C2B23D1EFF3CE
:10309000108172B61E480268521C026081F31088CB
:1030A0001C491D4A0F681368002101E07F69491C13
:1030B000994201D2BC42F9D1EFF3108172B6D0F837
:1030C00000C0ACF1010CC0F800C081F3108801F021
:1030D0004BF8BC4201D10C20F2BD1048104A0168E7
:1030E00091420CD00F4A1068EFF30581084308D0D5
:1030F0001168EFF305800143B1F1F03F01D21320D5
:10310000F2BD324629462046BDE8F84001F0BAB883
:10311000903E002010430020144300207C3E0020FD
:10312000E437002038120020F8B518B10468174DB4
:10313000AC4201D00220F2BD09B90320F2BD12B1A8
:10314000C469944201D20520F2BD114E33B13468F6
:10315000EFF305852C4301D00420F2BD0D4C0E4F3A
:103160002568BD420BD03468EFF305852C4308D0A9
:103170003568EFF305842543B5F1F03F01D2132004
:10318000F2BD01B0BDE8F04001F0A4B84554594289
:10319000381200207C3E0020E43700202DE9F84F53
:1031A0000025002886B089461746984645D01699CE
:1031B000B02942D1119E109CEFF3108172B6424AA1
:1031C00013685B1C136081F31088A3193F49D1F881
:1031D00000B05B1E0146AC460020009318E0DBF80F
:1031E0000C309C4205D3DBF810A054453CBF0024B2
:1031F0000120DDF800E09E4506D37346DBF810E0C1
:1032000073453CBF00240120DBF888B00CF1010CB1
:103210002F4B1B689C4503D2594501D00028DED0B6
:103220008A46EFF3108072B61168491E116080F370
:10323000108800F099FFDA4501D10E253FE00CB16E
:103240003A0001D103253AE0C82E38BF052536D310
:10325000129F202F28BF0F2531D2DDF84CC06745C3
:1032600038BF18252BD3DDF854E0BEF1010F88BF1D
:10327000102524D81748184B0168994208BF132518
:10328000164B1868EFF30581084308D01968EFF36F
:1032900005800143B1F1F03F38BF13250FD375B955
:1032A0001498CDF814E00490CDF80CC00297019664
:1032B000434649460094504601F06CF805462846BE
:1032C00007B0BDE8F08F00BF903E0020843E002094
:1032D000883E00207C3E0020E43700203812002089
:1032E00038B518B10268124B9A4201D01C2032BD89
:1032F000104C59B12268EFF305831A4304D10E4AEA
:103300000E4D1368AB4201D1042032BD2268EFF3A9
:1033100005831A4308D02368EFF305821343B3F102
:10332000F03F01D2132032BDBDE8344001F0C4B8F3
:103330004554554D381200207C3E0020E4370020D3
:1033400018B101680A4A914201D01C207047094B0C
:103350001968EFF30582114308D01A68EFF305816D
:103360000A43B2F1F03F01D21320704701F028B9AF
:103370004554554D3812002000F0ADFC9DF80E006C
:1033800005B000BDF8B500F10C026B462E214FF6DA
:103390006640F1E7F8B500F10C026B460F214FF6DD
:1033A0006840E9E7F8B502466B4610214FF67540D4
:1033B000E2E7F0B51C491D4B0A681D49C2F30D0236
:1033C00001EB82010C6822689A4205D16569A16906
:1033D000E269E368246905E0264635697169B269E6
:1033E0007368B4682E0E06702F0C47702E0A867014
:1033F00001724272C5F3031605F00F0505711A0C30
:103400000D0EC6704571C2720E0C0D0A190E817236
:103410001B0A210E220C8671C571037341738273DE
:10342000C4730020F0BD00003C400058B95646A9C6
:103430000000032078B597B0054608A8DFF804150A
:10344000DFF804653C2200F0C9FD0FF2D94001907D
:10345000009669460FF2B540DFF8F06401F094F988
:1034600001210220FFF703F9342300220FF2245137
:1034700006F12400FFF7A4FD1C2300220FF21C51CB
:1034800006F15800FFF7FCFD1C2300220FF2145137
:1034900006F59270FFF7F4FD00F0EBF800F0F0F89D
:1034A0000FF241420FF2185106F17400FFF776FE59
:1034B00008A8FFF767FF08B1FEF7B8FB0FF25050FE
:1034C0000088ADF81A0001F039FADFF884040168C9
:1034D00011F1010F0ED042683174120A090A717499
:1034E000110A4068F274B074120C3175727506F1ED
:1034F000100406E00020FFF7A1F8040008BF0FF257
:103500001C5422460621002001F0D6FA60790FF201
:103510001452307221797172E078B072A178F17230
:103520006078307318202178DFF8284471731021F7
:1035300001F0C2FA0FF2FC421021082001F0BCFA9F
:103540001821012001F0DCFA01F00BFB0DF116004F
:1035500006A90190009105AB07220021012001F08E
:1035600029FD0FF2B040BDF8181000900523BDF8FA
:103570001400002201F0B2FB0DF11A0000900223AA
:10358000BDF81610BDF81400002201F0A7FB0222BE
:103590000221002001F04AFA0120207001F0ABFC6A
:1035A00008212171012000216070E17010200121AB
:1035B0006071A1700022DFF8A00310210823A06031
:1035C00004920390029201910093012200230121B1
:1035D000012001F0A4FCA07808B101F05AFD01F02F
:1035E000EFFD00204FF6FF7184F88000E1821C237C
:1035F00000220FF2E83106F5F870FFF741FD00F008
:1036000038F800F03DF80FF2C9220FF2EC3106F560
:10361000A070FFF7C3FD01F0E7FD284601F00EFEA4
:103620008920F07000220FF2A12304F18101002013
:10363000FFF7DEF90FF26D13002206F11C010020E6
:10364000FFF7D6F90220607601210D20A07604F163
:1036500019022176022018212076115403202076A9
:103660008021A02070843184012000F0E7F818B098
:1036700070BD00234FF4806207A92846FFF754BDB0
:103680000022012104920591B020079A10234FF4E3
:10369000806106900393029301910092002370478A
:1036A0007CB50646AB4C7078052804F1800504D043
:1036B0003E280DD0FF282FD04DE0B188E08A81420E
:1036C00002D10021E1822970012000F0B7F842E028
:1036D000F07801280AD00A2811D00C283BD1E08AC2
:1036E0006A460DF1010101F076F934E06878FFF7E0
:1036F000A7F92878042814BF0520062007E0687879
:10370000FFF79EF9287804280CBF062005202870B2
:10371000B6F80500E0821EE0B6F8030040F2024170
:10372000401A0BD0C01E0ED0001F10D040F605016D
:10373000401A04BFE08A01F00DFB0CE0E08A8749E3
:1037400001F01CFC07E0E08A01F0CBFC03E0E08A1A
:10375000012101F00CFD012076BD01F0ACBC7D48DB
:10376000C08A01F056BC1CB57A4CE08A01AA0DF162
:10377000050101F030F9A0B99DF80500022804BF49
:103780009DF80400022804D10021009101230122A8
:1037900004E000200090022302220021E08A01F0D0
:1037A00069F913BD704738B56D49884228BF6D4827
:1037B0000ED202466C4CE825A4FB020105FB021167
:1037C00001F0C8FD694A6A4B01F0E8FD01F00AFF0B
:1037D0005E4C0146207FFFF77FF9FFF723FAA061D7
:1037E00031BDF8B5FFF71EFA584D624EA969081AA7
:1037F00001F01CFF604A614B01F026FF01F0F2FE70
:103800000027B94203D8B04238BF012411D34FF486
:103810007A76A6FB002306FB01331046194601F019
:1038200099FD4FF02242564B01F0B8FD01F0DAFE4F
:103830000446287FFFF704F92046F2BD2DE9F04346
:1038400087B00546414C012807BF268CB4F822906A
:103850004FF4C8664FF47A69DFF8F88008F1800702
:103860007878FFF7EDF8022D05D13878012814BFDC
:10387000022801F0CCFA3D7000200690059008F176
:10388000190204925FF0060298F818006DA10390E7
:1038900002910192002300934A463146002001F034
:1038A000D9FA21460E2001F0CDFB002808BF012DDA
:1038B00006D17878334907B0BDE8F043FFF70CB97B
:1038C00007B0BDE8F08300002F4800F077BA000091
:1038D00080B54FF0FF312C4800F04EFA0220FFF780
:1038E000ADFFF6E780B54FF0FF31284800F044FA0D
:1038F00000F069FFF7E7254800F060BA244800F0BF
:103900005DBA4FF0FF31224800F036BA10B50446D8
:10391000616801F1080001F06DFF00B10120207025
:1039200010BD0000094A10B1012806D070474FF0C1
:10393000FF3102F12400FFF7D3BC02F12400FFF7AE
:10394000FFBC000058700008AC08032008100020DD
:103950008075FF1FDC40002007B2010040E201003B
:10396000997919010000FFFF0010A5D40000B126CD
:10397000F56B5C4201CA9A3B000080A2941ABD41DB
:10398000941A6D4246E00100F81100202C1100202D
:10399000601000206D74785F6863690073656D5F07
:1039A0006863690073656D5F486369557365724547
:1039B000767450726F636573735369676E616C00E0
:1039C0007468726561645F486369557365724576B2
:1039D0007450726F636573730000000073656D5FF0
:1039E00041647655706461746550726F636573737A
:1039F0005369676E616C00007468726561645F4151
:103A0000647655706461746550726F63657373009A
:103A100040030000485253544D0000006C7AD8AC6B
:103A200057720000123456789ABCDEF01234567881
:103A30009ABCDEF0FEDCBA0987654321FEDCBA09D8
:103A400087654321094852535458000001F07DBF57
:103A50006C486D49016001F12002426001F13003C0
:103A6000836001F14002026201F14803436201F107
:103A70005002C26001F15803036101F17402426116
:103A800001F1780383618431C16101F07CBF38B5F5
:103A900004465E4D284601F0EDFF5A494868A1688A
:103AA0000160E2685A49C2604160856001F087FFA9
:103AB00058482AE080B553484268136801211972BA
:103AC000406801F084FF002002BD38B5514C4F4DD5
:103AD00004E000F041F8009821688847284601F08A
:103AE000CCFF0028F5D031BD4A484168084738B5B9
:103AF0000446494D284601F0BDFF4249C868A16807
:103B00000160456001F068FF444821680160626817
:103B10004260002032BD80B53A48C2681368102167
:103B20001972C06801F063FF002002BD3548C1680A
:103B3000C2683A4910680B68184738B5374C364D9B
:103B400004E000F009F8009861688847284601F011
:103B500094FF0028F5D031BD6946284601F0B6BF74
:103B600038B504462E4D284601F084FF2D4801F05B
:103B700081FF24480069A1688160E268C260056134
:103B80002168016062684260216941616269826105
:103B900031BD80B50146234801F082FFBDE80240F7
:103BA0000FF2050001F031BF38B5164C1D4D06E08F
:103BB000FFF7D2FF00992069006901F071FF2846E4
:103BC00001F05BFF0028F3D031BD10B5164C204644
:103BD00001F050FF0B4948690460BDE8104001F056
:103BE0002DBF1CB5104C06E06946204601F06EFF63
:103BF000009801F07DFF204601F03FFF0028F3D040
:103C000013BD000000000320B8090320580A032058
:103C10009C080320D0430020600A0320D8430020E2
:103C2000480A0320C8430020500A03207FB50C46F1
:103C30004E4D61684E4E28626962281D01F05AFFA0
:103C40002468746006F1080001F014FF012000F000
:103C50006AF801203070696841B10FF2ED020FF28D
:103C6000F103009201930294684688477FBD1FB517
:103C70003F4C04F1080001F000FF00BB2078F0B1D8
:103C8000694604F1080001F021FF3848016A49B192
:103C9000009A029201238DF8043001A888479DF80C
:103CA000040000E001202070207818B10098FFF790
:103CB00070FF04E0009904F1080001F0E7FE04F150
:103CC000080001F0DAFE28B9207818B104F10800E4
:103CD000FEF765FA1FBD2DE9F04106460F469046F6
:103CE0001C46002000F01FF8214D6868A0F809600C
:103CF000C7723A4641460C3000F070F91B4A012069
:103D00001070002152690020904748F2E800FEF749
:103D10004CFA69688A78D21C04F1080000F05EF958
:103D2000BDE8F041012010B51049124C496A20B994
:103D300001B188470021217010BD0120207011B110
:103D4000BDE81040084710BD0020FEF72BBA000068
:103D500010B50146064C04F1080001F0A1FE04F183
:103D60000800BDE81040FEF71ABA000040430020EA
:103D7000A84300200544002010B518B102680B4B81
:103D80009A4201D00C2010BD61B1094A1268EFF3CC
:103D900005831A4304D1074A074C1368A34201D193
:103DA000042010BDBDE8104001F0AEBE414D4553AA
:103DB000381200207C3E0020E437002018B1016852
:103DC000034A914201D00C20704701F0E5BE00BFCC
:103DD000414D455310F8012B11F8013B0AB19A42AD
:103DE000F8D0D01A7047000000680649C0F30042BE
:103DF0005201012300F01F0003FA00F088507047C1
:103E00000000000008080058104700002DE9F04F9E
:103E100000276A4A6A4B4FF00F0805460E4636E007
:103E2000684CA54214BF072404248C40664944EA28
:103E30000E0441F82C40C143D3F800C0746801EA75
:103E40000C0CE40248BF40EA0C0CC3F800C0D3F8E5
:103E500004C0746801EA0C0CA40248BF40EA0C0CD0
:103E6000C3F804C0D2F800C0746801EA0C0CE40383
:103E700048BF40EA0C0CC2F800C0D2F804C0746815
:103E800001EA0C01A40348BF014351607F1C316863
:103E900031FA07F000F082800124BC4014EA0100EE
:103EA000F4D04FEA470C032101FA0CF16FEA010E3E
:103EB000716801F00309B9F1010F1CBF01F00301A2
:103EC000022912D1A968D6F80C900EEA010109FA6C
:103ED0000CF949EA0101A960696821EA04047168E2
:103EE000C1F30011B9400C436C60B900347904F09F
:103EF0000304032C21D0EC68D6F808900EEA0404E1
:103F000009FA0CF949EA0404EC60347904F003047A
:103F1000022C12D1FC0805EB840401F01C09D4F832
:103F200020A008FA09FB2AEA0B0AD6F810B00BFA0F
:103F300009F949EA0A09C4F820902C680EEA040E2F
:103F4000347904F0030404FA0CF444EA0E0CC5F8C6
:103F500000C0746814F4403F98D0DFF86CE04FEA7A
:103F6000970C5EF82CE001F00C0108FA01F42EEA3F
:103F7000040EB5F1904F08BF00240ED0134CA5429B
:103F800008BF012409D0124CA54208BF022404D066
:103F9000104CA5427FF444AF032446E7BDE8F08F00
:103FA0000AB181617047816270470B4A136801460C
:103FB0000B421CBF1160FEF7FDB870478008005827
:103FC00000080058001000480800014000040048A4
:103FD00000080048000C00480C0800584AB10000D6
:103FE00011F8013B521E00F8013B1CBF11F8013BC8
:103FF000F8E7704710B5044610460A4601462046C9
:1040000001F0F4FD204610BD72B61248016841F07F
:10401000010101604FF0E0200F49C0F8081D0F4872
:104020000D49096801604FF0E0200D4941614FF0F2
:10403000070101610021C0F8181D0A49C0F81C1DC4
:104040000949C0F8201D704701B501F0D9FDBDE850
:1040500001407047001000E000000008FC43002011
:10406000FF7C0000000000FF0000FF4080B501F071
:1040700023FE01F041FE074800210160416081609C
:10408000C16001614161016241628162C16281611D
:10409000C16101BD104300204FF000002E4A1060A6
:1040A000EFF3148020F0040080F3148862B64FF020
:1040B00080504FF0E021C1F8040DBFF34F8FBFF3E4
:1040C0006F8FFEE72548264A4FF00003016891B143
:1040D0000360EFF3098C2CE9F00F1EF0100F01D1F3
:1040E0002CED108A1F4C4CF804ED2568C1F808C06F
:1040F0000DB18D61236072B61168B1B1016062B615
:104100004F68184C8D6907F101074F602560D1F8A1
:1041100008C05CF804EB1EF0100F01D1BCEC108A53
:10412000BCE8F00F8CF30988704772B61168016023
:1041300049B90FB401F02AFE0FBC0FB401F03FFEE5
:104140000FBC62B6F1E74FF000674FF0E028C8F807
:10415000047D62B6D4E77047903E00207C3E00208C
:10416000803E0020603700200A49086888B90A4963
:104170000A4A0868136898420BD009494FF08050EA
:104180000860EFF3058020B9EFF3108062B680F38A
:1041900010887047903E00207C3E0020803E00202A
:1041A00004ED00E0F8B50E46044615461F463421DE
:1041B000FDF742FDBF08BF00A7F10800A060EA19A3
:1041C0000221101F6660A561E76125616561E160FC
:1041D000046040F8045D286000210E486860216298
:1041E000EFF3108172B60C480C4A0D4B206010683A
:1041F00018B91C602346254603E01B681D6B1C6331
:10420000EC62401C10602563E36281F3108800209B
:10421000F2BD00BFEEEEFFFF455459423C43002083
:104220003843002070B50D46044616463421FDF78C
:1042300003FD65602661EFF3108172B60C480D4BEB
:104240000D4A20601A600D4B0D4A106818B91C60A9
:104250002346254603E01B685D6A5C622C62401CB5
:1042600010606562236281F31088002070BD00BF7A
:104270004554554D943E00206D6C000828430020A5
:104280002C43002070B50D46044616461C21FDF750
:10429000D3FC6560A660EFF3108172B60A480B4A42
:1042A0000B4B2060106818B91C602346254603E0BC
:1042B0001B689D699C616C61401C1060A561636115
:1042C00081F31088002070BD414D455314430020F8
:1042D000104300202DE9F041D21C92080746884681
:1042E0001D469400EFF3108C72B6274B1E683E6299
:1042F0008CF310882146384601F000FEEFF3108C55
:1043000072B610B9396AB142F1D1C8F8000031462D
:1043100018B18CF31088002033E028002ED01B4DFC
:104320002A681AB110208CF310882AE0184A8A668D
:10433000CF668C67C1F87C8001F18404A26A521CAC
:10434000A262BA6A561CBE621AB9796209674967E5
:1043500005E07A6A0A67536F4B671967516709224C
:104360000123C8640A638B632868401C28608CF3AF
:104370001088084601F03CFE206802E08CF31088AB
:104380001020BDE8F08100BF7C3E0020903E002060
:10439000296E00082DE9F24F0A9C0C9FDDF834804D
:1043A000DDF838900B99054616469B46EF222046CD
:1043B00001F01CFCB0212846FDF73EFC0098A862E5
:1043C0006E64C5F848B0EC6005F188060B9868612A
:1043D000EF62F760C5F81890C5F81C902020706156
:1043E0004FF0000A0B99C5F83C802144481E286113
:1043F000C6F810800320284928636965AD65284602
:10440000264901F0CBFEEFF3108172B62448254B0C
:10441000254A2860186818B915602C462F4606E012
:104420001468D4F88C70C4F88C50C7F88850401CBD
:104430000F9A3460776018601C4803685B1C012A7F
:10444000036019D11A480268EFF305800243B2F104
:10445000F03F07D3174804682CB1D4F83CA0E06AB9
:10446000E06300E0002481F31088284601F0B8FEE4
:1044700074B1C4F83CA00BE081F31088EFF3108115
:1044800072B60268521E026081F31088FFF76CFE5C
:104490000020BDE8F28F00BFCD7000080570000855
:1044A00044524854883E0020843E0020903E002024
:1044B00038120020803E0020F8B5EFF3108672B667
:1044C0003C4A1468826804F18405DAB901218160EC
:1044D000C460A4B10169012903D1E16A41612022CC
:1044E0008262296A19B10A6B0863D06202E028620D
:1044F00001460246C1620263E869401CE86186F336
:10450000108806E0C368A34205D1521C826086F37E
:1045100010880020F2BD002947D0274F3A6812B119
:1045200086F3108843E0254AA266E066AA6A521C18
:10453000AA62C2691AB98461246764670BE0D0F883
:1045400018C0C4F870C0DCF874E0C4F874E0CEF8A9
:104550007040CCF87440521CC2610D2222630122CB
:10456000A263E1643968491C396086F310880269E6
:10457000012A15D1E16A826A914288BF114681629F
:1045800003F12C00E16AD3F89C20914288BF1146C8
:1045900001670068E16A81423CBF184601F0BCFE39
:1045A000204601F025FD2868F2BD86F310881D2005
:1045B000F2BD00BF7C3E0020903E0020FD6B000855
:1045C0002DE9F0410546EFF3108372B6A868002884
:1045D00000F0D1806A4CEA6821686A4E8A4204D0B1
:1045E000316811B983F31088C7E0401EA86002D07B
:1045F00083F31088BDE012B983F31088BEE09432D3
:10460000D068401ED06007D0E96A286B0863C16299
:104610001069A84208BF08461061A96928690029E5
:1046200008BF002803D1E86083F31088A6E00027C4
:10463000D2F8008001281CD13068401C306083F320
:10464000108820211369184648B10469012C03D150
:10465000846A8C4298BF2146C06A9842F4D1EFF335
:10466000108372B63068401E30609160414598BF3B
:104670008846E869012810D9286901280DD13168D8
:10468000491C316083F31088284601F0A9FEEFF33E
:10469000108372B63168491E3160AC69CCB930689C
:1046A000401C306083F310882021E868A962C16A49
:1046B00041451CBF414601F02FFEEFF3108072B65A
:1046C0003168491E3160EF6080F31088FFF74CFDC0
:1046D0004FE02869012804D1EF68E06A6861202171
:1046E000A96204F18401C86918B90D622A46AC4672
:1046F00005E00A6AD2F830C01563CCF82C50EA62A3
:10470000C5F830C0401CC861EC600120A860E869B1
:10471000401E02D10022AA6107E0226FAA61D4F8EC
:1047200074C0C2F874C0CCF870200022A266E861A0
:104730000A603168491C316083F3108828690128B8
:1047400014D1E86958B1284601F04AFEEFF3108110
:1047500072B6A86908B1C06AA86281F31088F86AC5
:10476000404503D04146384601F0D6FD204601F0D1
:1047700037FD002002E083F310881E20BDE8F081A1
:104780007C3E0020903E00207FB50C46684D61685D
:10479000684E28626962281D01F070FE246805F1E8
:1047A000280001F067F9746006F1080001F062F971
:1047B00001203070696829B10FF241120092029411
:1047C000684688477FBD1FB55A4C04F1080001F0C8
:1047D00054F900BB2078F0B1694604F1080001F0FB
:1047E00075F95348016A49B1009A029201238DF884
:1047F000043001A888479DF8040000E001202070E3
:10480000207818B10098FFF7C4F904E0009904F18A
:10481000080001F03BF904F1080001F02EF928B975
:10482000207818B104F10800FFF765F81FBD2DE9E5
:10483000FC410446002000F056F8DFF8F48066885A
:104840002088012188F80010C6F3090646EA802670
:1048500038484068A168E268C272B6B2A0F8096040
:10486000D2B20C30FFF7BAFBD8F814200021002098
:104870009047002548F2E800FFF743F812E0B7F848
:104880000100B0420BD1887AC21E6069D2B2824266
:10489000C8BF024620696261F91CFFF79FFB3878A8
:1048A00000B1012508F1280001F0E7F898B9694640
:1048B00008F1280001F00AF90098014600F10B0701
:1048C000487A0F28DBD17888B04202D12269397842
:1048D00011707878E4E72800CCD0012000F003F8CC
:1048E0000020BDE8F6811249496A08B921B108479C
:1048F00000291CBF012008477047000010B5014681
:10490000487A0F2818BF0E2807D10B4801F0C8F8C5
:10491000BDE810400020FEF7F1BF064C04F108008E
:1049200001F0BEF804F10800BDE81040FEF7E3BF57
:10493000E0420020984300200843002000B587B0E3
:1049400000F024F800F01CF8032100F009F800F052
:1049500024F800284CBFFF209DF8000007B000BDE0
:10496000ADF80410ADF806107047049107AA0121B4
:104970000691039270470F210291ADF8062070470F
:104980001822002101A801F089BD014600208DF800
:1049900000007047049207A9039101220692CDF806
:1049A00014D0002101A8FFF742BF09220021684668
:1049B00001F074BD1822002102A801F06FBD05228C
:1049C0000792CDF818D0002102A8FFF730BF0821C8
:1049D000ADF80410704770B5C8B006460C461546D1
:1049E0000522FFF7E3FFADF82060FFF7E3FF302279
:1049F00000F012F8FFF7E3FF002848BFFF2009D4BA
:104A00009DF8000030B99DF80300207000209DF84B
:104A10000410297048B070BDADF80A200821ADF827
:104A200008100222059208A90491704718B5C7B072
:104A300000F013F8312200F009F8FFF7ABFF00286F
:104A40004CBFFF209DF8000048B010BDADF8062017
:104A50000821ADF804100322704700248DF81C00D3
:104A60008DF8004007A8417082700021182201A82B
:104A700001F014BD5CB5C7B00026ADF81C008DF880
:104A80001F2007A84C9C817003718DF80060ADF861
:104A90002140FFF775FFFFF79AFF3222FFF76BFF08
:104AA0000721FFF762FFFFF77AFF00284CBFFF20C6
:104AB0009DF8000049B050BD18B50C46C7B011466E
:104AC00000F03DF88DF81D4022460DF11E0001F06A
:104AD000DFFC00F041F83F21ADF804100C22ADF8E6
:104AE000062007A903910122A41C0692049400F059
:104AF00020F800284CBFFF209DF8000048B010BDF2
:104B000000B5C7B000F021F80F2200F007F8002828
:104B10004CBFFF209DF8000047B000BDADF8062057
:104B20003F21ADF804100222049207A9039101224B
:104B30000692CDF814D0002101A8FFF778BE00221C
:104B40008DF800208DF81C00704700238DF81C00A4
:104B50008DF81D108DF800301822002101A801F0F9
:104B60009DBC00B587B000208DF8000000F0E5F88E
:104B700040F2011200F043F900F0E6F800284CBFC3
:104B8000FF209DF8000007B000BD2DE9F841C7B037
:104B90000446884616461F46012808BF022003D057
:104BA00002280CBF102000200DF11D031D1800F07D
:104BB00035F8012C8DF81C4002D0022C1AD01BE0D5
:104BC0000224224641460DF11D0001F061FC2E70C9
:104BD0006F7000F0B2F800F0AAF84FF4817200F0A4
:104BE00017F8E41C0692049400F0AEF8002805D5EE
:104BF000FF2009E01024E4E7972005E09DF800007D
:104C000010B94E9800F065F8FFE748B0BDE8F081B4
:104C1000ADF8062007A90391032270470322002163
:104C2000684601F03BBC2DE9F64F0C46C7B005467F
:104C30009B46012C08BF022003D0022C0CBF102081
:104C400000200DF11F031E18FFF7E8FF012CADF83F
:104C50001C508DF81E4002D0022C2DD02EE00227D1
:104C6000569C559DDDF85091DDF84CA1DDF848814A
:104C700048993A460DF11F0001F00AFCA6F800B071
:104C800086F8028086F803A086F804907571B471E6
:104C900000F053F800F04BF84FF4827207A9ADF81A
:104CA000062003910A3703220497069200F04CF87D
:104CB000002805D5FF2009E01027D1E7972005E05F
:104CC0009DF8000010B9579800F003F849B0BDE80E
:104CD000F08FBDF8011001800020704778B5C7B093
:104CE0001D464C9B00F07AF800268DF800608DF888
:104CF00021502A4619460DF1220001F0C9FB00F0AF
:104D00001CF800F014F84FF4837200F072F8AD1D37
:104D100000F018F800284CBFFF209DF8000049B0B3
:104D200060BD00228DF80020ADF81C0070473F21C7
:104D3000ADF8041070478DF800301822002101A84A
:104D400001F0ACBB06920495CDF814D0002101A867
:104D5000FFF76DBD00B5C7B0FFF7E3FFFFF7EDFF4D
:104D600040F2251200F009F8FFF7EEFF00284CBFD3
:104D7000FF209DF8000047B000BDADF806203F21A0
:104D8000ADF804100222049207A9039101220692B1
:104D90007047B8B5C7B04C9C4D9D00F01FF8002778
:104DA0008DF821308DF800708DF82240224629467A
:104DB00000F01BF8FFF7C1FFFFF7B9FF4FF4937244
:104DC00000F017F8E41D06920494FFF7BDFF0028D9
:104DD0004CBFFF209DF8000048B0B0BDADF81C00EE
:104DE000ADF81E108DF8202070470DF1230001F062
:104DF0004FBBADF8062007A9039101227047ADF81B
:104E000006203F21ADF8041001220692704700B53C
:104E100087B000F062F900F093F9812200F0CAF93E
:104E200000F010F800284CBFFF209DF8000007B0EC
:104E300000BDADF806203F21ADF804100322049216
:104E400007A9039101220692CDF814D0002101A8F0
:104E5000FFF7EDBC2DE9F84DC7B09446DDF840E111
:104E6000519A559D569EDDF84CA1ADF81D108DF858
:104E70001C004FF0000BADF81FC08DF821308DF8ED
:104E800022E000F02CF800F01FF824F8095F66809B
:104E900000F056F93F20ADF8040083210120ADF861
:104EA000061000F00AF8FFF7CFFF00284CBFFF20E4
:104EB0009DF8000048B0BDE8F08D07AA5744069061
:104EC00003920D370497704788F800A007AC5499F7
:104ED000E419524608F10100544401F0D9BA8DF8A2
:104EE0002320174652998DF800B00DF1240809A827
:104EF000B84401F0CDBA00B5C7B000F007F900F032
:104F00001FF900F059F9852200F006F9FFF79BFF21
:104F100000284CBFFF209DF8000047B000BD2DE9E0
:104F2000F841C7B04FF0000800F022F84E9F4F9EA6
:104F3000509D529C51988DF800800DF123018DF801
:104F40001F308DF820708DF821608DF82250086098
:104F50008DF8274000F0F4F8862200F02BF90C229F
:104F6000FFF76DFF00284CBFFF209DF80000CAE04E
:104F70008DF81C0007A841708270704700B5C7B05B
:104F80000023ADF81C008DF800300DF11E00182232
:104F9000016001A8002101F081FA882200F00AF9DD
:104FA0000622FFF74CFF00284CBFFF209DF80000B1
:104FB00047B000BDF8B5C8B005460E4617461C46BA
:104FC000072200F055F808A8467087708DF8205029
:104FD00000F0C8F88A2200F0B8F80322059208A968
:104FE0000491072200F0B7F8002848BFFF200ED434
:104FF0009DF8000058B94F994E98BDF801202280C5
:10500000BDF803300380BDF805000880002049B0DA
:10501000F0BD00B5C7B000F02FF800F091F800F037
:10502000CBF88D220F210291ADF80620022100F06D
:105030007AF8FFF709FF00284CBFFF209DF8000019
:1050400047B000BD18B5C7B000F09FF800F0A4F855
:1050500000F076F800F0B0F88E2200F0A2F8FFF72A
:10506000F3FE00284CBFFF209DF8000048B010BDA3
:105070000021684601F012BA00228DF80020ADF838
:105080001C007047ADF806203F21ADF80410022245
:10509000704700B587B000F020F800F051F8922278
:1050A00000F088F8FFF7CEFE00284CBFFF209DF8E7
:1050B000000007B000BD00B587B000F00EF800F0AA
:1050C0003FF8942200F076F8FFF7BCFE00284CBFB2
:1050D000FF209DF8000007B000BD00208DF8000003
:1050E000704700B5C7B0FFF7C7FF00F029F8952259
:1050F000FFF7C8FFFFF7A3FE00284CBFFF209DF875
:10510000000047B000BD48B0BDE8F08100228DF836
:1051100000208DF81C007047ADF8062007A9039108
:10512000012204927047049107AA0121069103927B
:1051300070470023ADF81C008DF81E108DF800306C
:105140001822002101A801F0A9B9ADF80A203F21D9
:10515000ADF8081070470792CDF818D0002102A8CA
:10516000FFF765BB1822002102A801F097B900B52E
:10517000C7B0FFF7DEFFA522FFF75BFE00284CBF9C
:10518000FF209DF8000047B000BD002304468DF8C5
:1051900000308DF81C40704722460DF11D0001F0D3
:1051A00077B9ADF8062007A903910122641C069285
:1051B00004947047ADF806203F21ADF80410704705
:1051C00007490020087700220648027001F070B9F4
:1051D00003490A7F41F82200087F401C0877704786
:1051E0006843002004440020E0B505A1009104229A
:1051F0008DF80420694642F6292001F0A8F907BD80
:1052000053544D0010B50078444C18B1022810D00A
:1052100005D310BD00210120A180207310BD607B4B
:10522000FDF70EFC607BBDE8104040F60101FDF784
:1052300053BC607BBDE81040FDF702BC38B50546A5
:10524000DFF8D84038A188B01C23002204F1C00048
:10525000FDF716FF00234FF4806207A92846FDF7EB
:1052600063FF0022012104920591B020079A1023C8
:105270004FF4806106900393029301910092002302
:105280000FF249022EA104F11000FDF787FF002064
:1052900004212073217042F63820214601F0FBF9E9
:1052A0000A21A1801F20C106E07204D501204FF41D
:1052B0008061A072E18001220FF2590304F10D0117
:1052C0000020FDF795FB09B030BD000010B5134C70
:1052D00004E0012817D10020207314E04FF0FF31C3
:1052E00004F1C000FEF748FD0D490868E17AC0F3FB
:1052F000C220413060800A07207BEAD50028E8D12F
:10530000A088401DA080A11C42F6372001F0C3F9FF
:10531000E4E700000348FEF751BD0000A03D002077
:1053200028280040603E002073656D5F487273500E
:10533000726F636573735369676E616C0000000080
:105340007468726561645F48727350726F636573ED
:1053500073000000A9B1B1FA81F241409040C2F15E
:105360002002D14102F21D4241404FEA025C420557
:105370004FEAD02072F1004250EB41504CEBD1216A
:10538000704748B1B0FA80F2C4F2D0119040A1EB5E
:10539000025202EBD021400570470000F0B540F208
:1053A000FF7581EA030C0CF0004C15EA11541DBF87
:1053B00015EA1357AC42AF42E5E0BC41C1F313011B
:1053C000C3F31303801A994143F4801304D2641E7B
:1053D0000018494180185941C90241EA5051B1FBB6
:1053E000F3F603FB1611A2FB0675D7EBC020A9410B
:1053F00002D2761E80185941C90241EA5051B1FBD0
:10540000F3FE03FB1E11A2FB0E75D7EBC020A941D2
:1054100003D2AEF1010E80185941890241EA905140
:10542000760546EA8E2EB1FBF3F603FB1611A2FBBE
:105430000675D7EB8020A94102D2761E801859410B
:10544000C90241EA50514EEA060EB1FBF3F603FBE6
:105450001611A2FB0675D7EBC020A94102D2761E19
:1054600080185941C90241EA5051B1FBF3F703FBDF
:105470001711A2FB0735D3EBC020A94167F1000744
:105480000CBF004247F0010766F3D5274FEA1E31F3
:10549000B80814F5806412DDBD0775F1004250EBC9
:1054A0000E5051EB045111F5801F5CBF41EA0C0115
:1054B000F0BD4CF07F6141F0E0410020F0BDBD0740
:1054C0006D0840EA0E5041F48011D4F10104B4F1AA
:1054D00020060ADAC4F120060200E04001FA06F3D1
:1054E000E1401843B24015430EE0342C13DCC6F102
:1054F000200445EA40056D0820FA06F2154321FA1A
:1055000006F0A1400D43002175F1004250F100006A
:1055100051EB0C01F0BD00205FEA0C01F0BDCFB9EA
:1055200092185B41B3FA83F704BFB2FA82F6BF194F
:105530000B3FB7F120062FBF02FA06F3BB40C7F1BD
:10554000200622FA06F638BF3343BA401CB1E419EC
:10555000641E33E77F4231F00041B1FA81F404BFA9
:10556000B0FA80F6A4190B3CB4F120062FBF00FA64
:1055700006F1A140C4F1200620FA06F638BF3143F7
:10558000A0403C1B1AE7AC421ABF05EA1357AF42D2
:1055900012E050EA41061CBF52EA4306BFE750EA58
:1055A0004107304661461CBF41EA0551F0BD52EA51
:1055B000430C08BFC143F0BD00204FF4001616EBAA
:1055C000410F98BF16EB430F08BF16EB410F24BFE6
:1055D000C14305E016EB430F0CBF61464CEA055191
:1055E000F0BD000040F21E4CBCEB115209DDC902B7
:1055F00082F3070241F0004141EA50500021D040BF
:10560000704720320DDBC902D2F1200341F0004186
:1056100041EA5051C002D04001FA03FCD14060443D
:1056200070476FEAE17108467047000050B1B0FA68
:1056300080F18840C91CC1F58461090501EBD021C6
:10564000400570470146704730B540F2FF7C1CEAC8
:1056500011541DBF1CEA1355644565453FE06419AC
:1056600081EA030C6FF35F530CF0004C43F480139A
:10567000C90241F0004141EA505EC5021100A5FB9C
:10568000020200284FF00000EEFB01204FF0000165
:10569000E3FB052118BF42F00102401800214941F7
:1056A000E3FB0E01A4F580640D0302D29218404181
:1056B000494154F1010470DD450872F1004250F196
:1056C000000051EB0451A1F5801102D441EA0C0114
:1056D00030BD40F2FF7E4CEA0E51002030BD0CEA96
:1056E0001355644518BF654581EA030C0CF0004C66
:1056F00041D050EA410E1CBF52EA430E02E061461F
:10570000002030BD24422C441BD15FEA050EF6D0A8
:10571000090302BF01460020AEF1140EB1FA81F573
:10572000AEEB050401FA05FE0C35C5F1200100FAC7
:1057300005F5C8404EEA000E6FF35F5343F4801343
:105740009CE733F00043B3FA83F504BFB2FA82FE5C
:1057500075440B3D641BB5F1200E2FBF02FA0EF30A
:10576000AB40C5F1200E22FA0EFE38BF43EA0E030D
:10577000AA40641C7CE750EA410E14BF52EA430E73
:105780006FF000014FF4001515EB430F8EBF194663
:1057900015EB410F9DE7B4D830BDD4F10104B4F14D
:1057A00020050FDAC4F12005520828BF42F001029B
:1057B00010FA05FE01FA05F57244E2BFE040284305
:1057C000E1400FE0352C9ADCC5F1200452EA40029A
:1057D00020FA05F218BF42F0010231FA05F0A140AB
:1057E0000A43002172F1004250F1000051EB0C011C
:1057F00030BD000070B504466078FF2802BFB4F8E1
:10580000030000F47F40B0F5406F13D100260D4D2A
:1058100000E0761C297FF0B288420BD2F1B255F835
:105820002120204690470100F3D003D0022806D063
:10583000012070BD2046BDE87040FDF731BF00205B
:1058400070BD00BF68430020C0680840884201D195
:105850000120704700207047C0690840884201D18C
:10586000012070470020704710B5794C0221204676
:10587000FFF7F2FF38B16068C043810703D5FEF738
:105880005CF9022018E001212046FFF7E5FF38B15E
:105890006068C043C10703D5FEF717F901200BE08C
:1058A00008212046FFF7D8FF38B16068C0430107E0
:1058B00003D5FEF796F90820A06010BD10B5644C22
:1058C00002212046FFF7C0FF70B96068C043810322
:1058D0000AD500F035F842F40032626080F3108897
:1058E000BDE81040FEF722B908212046FFF7ACFFC3
:1058F00088B96068C04301030DD500F021F842F477
:105900000022626080F310885248016888474FF493
:105910000022A26010BD20212046FFF795FF70B93C
:105920006068C04381020AD500F00AF842F4001210
:10593000626080F31088BDE81040FEF7D5B810BD56
:10594000EFF3108072B662687047434881B0016817
:1059500041F480110160006800F48010009000980C
:105960003E48016841F4007101603D48026842F41C
:105970000072026040BF20BF3A48016841F4004114
:10598000016001B0704780B53748016841F480116B
:105990000160006800F48010009000982C480168B5
:1059A00041F001010160026842F4803202602C2063
:1059B000FBF764FEBDE802402D20FBF75FBEEFF36E
:1059C000108072B629490A68520852000BE0284933
:1059D0004FF4803008607047EFF3108072B62349AF
:1059E0000A6822F002020A6080F3108870471F489C
:1059F0004FF400314160EFF3108172B6026822F477
:105A00000032026081F31088704738B50446104DAB
:105A100008212846FFF718FF58B10E480460EFF33D
:105A2000108072B6696821F40021696080F31088E3
:105A300031BDA0474FF40020A86031BDEFF31080C6
:105A400072B60A490A6822F00802CCE7000000009A
:105A5000000C0058E843002050010058200800586E
:105A6000D40800580C04005850000058040C00588A
:105A7000080C0058006040607047EFF3108172B668
:105A8000026882420CBF012000201CE0EFF310826C
:105A900072B603680B60486001600868416024E0EA
:105AA000EFF3108272B6086043684B60416048684B
:105AB00001601AE0EFF3108172B642680368136068
:105AC00002684368536081F31088704710B5EFF3A4
:105AD000108472B602680A600168FFE70846FFF7A3
