:020000040800F2
:1000000008100020114600085D4500085F45000803
:1000100061450008634500086545000800000000D0
:10002000000000000000000000000000674500081C
:1000300069450008000000006B4500086D45000898
:10004000FD47000801480008054800087145000800
:10005000094800080D4800089545000811480008A7
:1000600015480008194800089B4500081D4800086D
:10007000214800082548000875450008294800085F
:100080002D480008314800083548000800000000ED
:1000900000000000394800083D480008A14500085C
:1000A0004148000845480008494800084D480008F4
:1000B0005148000855480008594800085D480008A4
:1000C000000000000000000061480008000000007F
:1000D0007B450008654800080000000069480008EA
:1000E0006D480008714800080000000075480008CD
:1000F000894500088D4500089145000879480008A9
:100100007D48000800000000000000000000000022
:100110008148000885480008894800080000000060
:1001200000000000000000000000000000000000CF
:1001300000000000000000008D48000838B50400F1
:1001400009D004F18405696809B900F01EF800F0CF
:1001500021F8012801D1012032BDA06A08B100F0C8
:100160002AF800F00AF821F02A01FFE7816000F088
:100170001BF8BDE8324000F08EBB2068416821F4D6
:1001800090414160206881687047002028702046B7
:1001900000F0EFBF24216960206802685208520015
:1001A0000260204600F00EBA2068016841F00101AB
:1001B000016020467047204600F00ABB284600F048
:1001C000BEBB10B5034603F15404606B20283CD13C
:1001D00009B1100001D1012010BD19652280628093
:1001E000002060620021E16321206063216998683A
:1001F000B1F1005F15D1B0F5805F04BF1869002828
:1002000019BFDFF8AC036062DFF8A813616200F089
:100210005EFC41F4000144E800100028F7D1002002
:1002200010BDB0F5805F04BF1869002807BFDFF874
:1002300088136162DFF88403606200F043FC41F0E0
:10024000800100F08DF9F8D1E9E7022010BD38B542
:100250000346D3F88C0020280AD109B1100001D13F
:10026000012032BD00F006F8BDE8384000F0ABBB1D
:10027000022032BD0020D866DFF844431868A0424F
:100280000CD04068040209D5186850E8004F0546B4
:1002900044F0806445E800400028F5D118467047D6
:1002A0002DE9F041054640F60F0C2A68D369104647
:1002B00013EA0C0F0768966805F15C0407F020004C
:1002C00003F020010DD1002914D010B9F00040F145
:1002D0008C80A169002900F03B812846BDE8F041EF
:1002E0000847DFF854C816EA0C0F04BFDFF84CE8E3
:1002F00017EA0E0F79D05FEAC37E48BF5FEAC7589E
:1003000007D54FF0010EC2F820E0626B42F0010207
:1003100062639A070AD5F20708D5D5F80080022251
:10032000C8F82020626B42F0040262635A070AD5C3
:10033000F20708D5D5F800800422C8F82020626BA7
:1003400042F0020262631A070DD5002808BF16EAC0
:100350000C0F08D0D5F800C00822CCF82020626B22
:1003600042F0080262631A0509D57B0107D52F68A0
:100370004FF400623A62626B42F020026263626B89
:10038000002A31D031B108B9F00003D5A16909B113
:1003900028468847606B29688A68510602D410F0A5
:1003A000280F1CD000F0E0F828688168480611D5B5
:1003B00000F0DDF8FCD1606A60B10FF299718163E1
:1003C000606A00F0D0FF00280ED0606A816BBDE843
:1003D000F04108472846BDE8F04101F08DB82846B5
:1003E00001F08AF800206063B2E02069012871D131
:1003F000D8066FD5F9066DD5102010622968886877
:10040000410630D5616A0868406880B20028EBD0A8
:1004100022889042E8DA6080086801688A061AD467
:1004200000F0B3F821F4807100F09AF8F8D100F0F0
:1004300079FAFCD100F0AEF8FCD120202063002135
:10044000216100F0A2F821F0100100F089F8F8D144
:10045000606A00F054FF0220606121886088091AF8
:1004600089B2284632E0228861886088511A0028C3
:100470001CBF88B200286BD02A46106850E8003FA5
:10048000054623F4907300F065F8F6D1106800F18A
:10049000080300F1080653E8003FDFF818030340A3
:1004A00046E800300028F1D120202063002323619A
:1004B000A361136853E8003F156823F0100300F0B0
:1004C00049F8F6D10220606189B21046BDE8F041DA
:1004D00001F013B8D80209D5710207D54FF4801086
:1004E00010622846BDE8F04101F008B8180609D5A9
:1004F000390601D4300205D5E16949B32846BDE883
:10050000F0410847580611D579060FD500F03DF89F
:1005100021F0400100F024F8F8D12020E062002111
:10052000E1612846BDE8F04101F023B8180206D584
:10053000790004D52846BDE8F04101F02DB8D80176
:1005400048BF002F04D52846BDE8F04101F025B88A
:10055000BDE8F08145E800300028704721F4F071D3
:1005600042E8001000287047284600F0B8BA296811
:1005700001F1080252E8001F286800F1080321F089
:10058000400143E8001000287047286850E8001F29
:1005900002467047286800F1080151E8001F00F189
:1005A000080321F0400143E80010002870470000D4
:1005B000E90B0008450C0008910B0008670B0008C8
:1005C00000800040F8B50446DFF8C40822681368CC
:1005D000A168034020690B4361690343E0690B4351
:1005E0000343136000255168E06821F44051014342
:1005F0005160A369DFF89C188A421CBF206A03433C
:100600009668DFF84009DFF840E9DFF840790640F6
:100610003343936068A6D36A606A1B0940EA0313F8
:10062000D3627245DFF828094FF4004338D13F68A0
:1006300007F00307032F4CD8DFE807F002454248D4
:100640004FF0010CE169B1F5004F4FF6F07740F043
:100650007F80BCF1010F09D0BCF1020F0AD0BCF1C0
:10066000040F70D0BCF1080F70D098E001F0FFFAD1
:10067000002814D0626A616836F81230B0FBF3F0DB
:100680004A0802EB4002B2FBF1F0A0F11001B942BE
:10069000EBD20740C0F3420007432068C7607FE009
:1006A0008A4216D13F6817F4406723D0B7F5806FB0
:1006B00009D0B7F5006F03D0B7F5406F06D008E05A
:1006C0004FF0020C07E04FF0040C04E04FF0080C70
:1006D00001E04FF0100C8A42B4D1BCF1000F09D0F8
:1006E000BCF1020F0AD0BCF1040F15D0BCF1080F09
:1006F00015D054E001F0B3FA002851D0616A36F801
:100700001120B0FBF2F6626802EB42018E4246D342
:100710001303B34205D242E001F057FAECE7184662
:10072000ECE75008002110EB062051EB1661002386
:1007300001F01CFBA0F54076DFF84079BE422ED2D6
:100740002168C8602CE001F040FA91E7184691E773
:10075000BCF1010F09D0BCF1020F09D0BCF1040FAC
:1007600018D0BCF1080F18D019E001F080FAB8B128
:10077000626A36F812306168B0FBF3F000EB5100AA
:10078000B0FBF1F0A0F11001B94208D2226880B2AA
:10079000D06005E001F019FAE9E71846E8E701251D
:1007A00004F168000121002341800180C3600361DE
:1007B0002846F2BDFEFFFFEF010002000400060024
:1007C00008000A000C00100020004000800000011A
:1007D00090F82810CA0706D502685368C16A23F446
:1007E00000330B43536090F828108A0706D502683F
:1007F0005368016B23F480330B43536090F8281047
:100800004A0706D502685368416B23F480230B43E3
:10081000536090F828100A0706D502685368816B68
:1008200023F400430B43536090F82810CA0606D502
:1008300002689368C16B23F480530B43936090F874
:1008400028108A0606D502689368016C23F40053C9
:100850000B43936090F828104A0610D5026853683D
:10086000416C23F480130B435360436CB3F5801F3A
:1008700005D15368816C23F4C0030B43536090F897
:1008800028100A0606D501684A68C06C22F40022C6
:1008900002434A607047F8B5054605F1840400201C
:1008A000E0606FF07E4701F0E5FA064628680168CF
:1008B0000A0711D50097334600224FF40011FFF7C5
:1008C0007DFC48B1FFF761FE21F08001FFF748FE93
:1008D000F8D12020606017E0286801684A0717D522
:1008E0000097334600224FF48001FFF767FC78B190
:1008F000FFF74BFE21F49071FFF732FEF8D100F0C4
:1009000011F8FCD12020A060002121700320F2BD4D
:10091000202060602021A1600020E8660021296776
:100920002070F2BD286800F1080151E8001F490855
:1009300000F10803490043E80010002870472DE942
:10094000F041069C05460E4690461F462868C16940
:100950003140B1420CBF01200020404531D114F19B
:10096000010FF3D001F086FAC01B844200D314B902
:100970000320BDE8F081286801684A07E6D5C1690F
:10098000080704D42968C8690105DFD50CE02A6886
:1009900008201062FFF7E8FD05F184000821C1601E
:1009A000002202700120E4E729684FF40060086229
:1009B000FFF7DAFD05F184002021C16000220270FA
:1009C000D6E70020D5E750B5034600209965FF24FF
:1009D00003F15C010A804A8088619868B0F5805F05
:1009E00004D1186990B940F2FF140FE018B91869E2
:1009F00060B17F2007E0B0F1805F06D1186908B9C7
:100A00007F2403E03F20888001E000248C800020C8
:100A1000486322240C63186800F1080454E8004F6E
:100A200000F1080644F0010446E800400028F2D135
:100A30008868B0F1005F23D18889824220D39A6808
:100A4000B2F5805F04BF1869002803D10FF2554248
:100A50008A610BE00FF299348C61186930B100F0B3
:100A600031F841F48071FFF77BFDF8D100F02FF8E9
:100A700041F0805144E800100028F7D1002050BD1B
:100A80009868B0F5805F04BF186900280CD10FF298
:100A90006D228A61186850E8001F024641F020016B
:100AA000FFF75EFDF6D1E9E70FF201228A611869CE
:100AB0000028EFD000F006F841F49071FFF750FDE8
:100AC000F8D1DBE7196851E8001F1A687047186809
:100AD00000F1080151E8001F00F10804704710B54B
:100AE00000F011F8FCD100F018F8FCD1C16E01291A
:100AF00002D100F025F8FCD12021C0F88C10002292
:100B0000C266426710BD016851E8002F0B4622F40F
:100B1000907243E8002100297047016801F1080242
:100B200001F1080452E8002FDFF854150A4044E8A8
:100B3000002100297047000001000010200100047E
:100B4000026852E8002F036822F0100243E80021F7
:100B500000297047806A00F1560100220A810023B3
:100B60000B8000F0C9BCD0F8881021290FD1B0F853
:100B7000561001B923E0016D03680A789A62016D8D
:100B80004A1C0265B0F856104A1EA0F8562070475D
:100B9000D0F88810212911D1B0F8561001B90EE013
:100BA000016D03680A88C2F308029A62016D8A1C0B
:100BB0000265B0F856104A1EA0F856207047026829
:100BC00052E8002F036822F0800243E80021002948
:100BD000F5D1016851E8002F0B4642F0400243E88E
:100BE00000210029F5D17047D0F88810212900D0C4
:100BF000704730B500F15602938A0DE00168CC6968
:100C0000250608D5046D25788D62016D4C1C0465A0
:100C10001588691E11805B1E99B241B111880029A7
:100C2000ECD100F035F8FCD100F002F8FCD130BD79
:100C3000016851E8002F0B4642F0400243E80021D2
:100C400000297047D0F88810212900D0704730B5AE
:100C500000F15602938A0FE00168CC6925060AD597
:100C6000046D2588C5F308058D62016D8C1C046533
:100C70001588691E11805B1E99B241B11188002947
:100C8000EAD100F005F8FCD1FFF7D2FFFCD130BD6E
:100C9000026802F1080151E8002F036803F108041B
:100CA00022F4000244E800210029704738B500F022
:100CB0004DF81ED14B6A9188846D0B402370816D75
:100CC0004B1C00F049F818D100F04DF800F060F826
:100CD000FCD100F06AF80BD10023136100F04EF84C
:100CE000FCD10168CB69DC0644BF10230B6276E0BF
:100CF0007AE0886940F00800886131BD38B500F0BD
:100D000025F81ED14B6A9188846D0B402380816D3C
:100D10008B1C00F021F818D100F025F800F038F80D
:100D2000FCD100F042F80BD10023136100F026F84B
:100D3000FCD10168CB69DC0644BF10230B624EE096
:100D400052E0886940F00800886131BD00F15C0222
:100D50000168136B222B7047836551884B1E5380AB
:100D6000518800297047036853E8003F046823F462
:100D7000907344E800310029F5D17047016851E8CB
:100D8000003F0C4623F0100344E80031002970476F
:100D9000016801F1080353E8003F5B0801F1080511
:100DA0005B0045E8003100297047202111630023D2
:100DB000936100215161374B016899420CD0496819
:100DC0000B0209D5016851E8003F0C4623F080630F
:100DD00044E800310029F5D11169012970471188D3
:100DE000BDE8344000F089BBBDE8324000F0B7BB3D
:100DF0002DE9F84300F0B4F845D1A08980B96088A6
:100E0000002842D0A18988423FDA00F0EEF89D48E0
:100E1000A06100F0D3F8FCD137E0304600F09FFB32
:100E2000A806ECD500F096F80870B06D421C00F0F2
:100E3000F2F812D0E90748BF5FEAC95200F09EF805
:100E400003D5F90701D500F0DEF800F0A0F820B1D5
:100E5000304600F051FB0020606360880028DFD13D
:100E600000F0A2F8FCD100F0B3F8FCD100F0ECF8EF
:100E7000D3D100F0D9F844BF102101622188304657
:100E800000F03BFBCCE700F007F8BDE8F183000081
:100E9000F369FFCF00800040816941F00801816162
:100EA000704700002DE9F84300F05AF845D1A089B9
:100EB00080B96088002842D0A18988423FDA00F0DA
:100EC00094F87148A06100F079F8FCD137E0304621
:100ED00000F045FBA806ECD500F03CF80880B06DAA
:100EE000821C00F098F812D0E90748BF5FEAC952A7
:100EF00000F044F803D5F90701D500F084F800F0BC
:100F000046F820B1304600F0F7FA002060636088B0
:100F10000028DFD100F048F8FCD100F059F8FCD1EE
:100F200000F092F8D3D100F07FF844BF10210162A5
:100F30002188304600F0E1FACCE7FFF7ADFFBDE8CD
:100F4000F1830000FFF4FF110038014088000058D1
:100F50000024F4003168486AB16D08EA0000704767
:100F6000064606F15C043068B4F80480C5690146A1
:100F7000D1F800908768216B2229704705D501219F
:100F80000162606B40F001006063A807704768076A
:100F900008D5F90706D5326804201062606B40F06E
:100FA00002006063606B7047316851E8001F32686F
:100FB00021F4807142E8001000287047316851E840
:100FC000001F326841F0200142E8001000287047FD
:100FD000306800F1080100F1080351E8001F2848BB
:100FE000014043E8001000287047306800F1080213
:100FF00052E8001F00F1080821F0805148E8001075
:101000000028F2D17047326802201062606B40F015
:10101000040060637047B2656088411E618030687B
:10102000C56915F0070F704700212161306850E84D
:10103000001F024621F0100142E800100028F5D1FF
:101040003068C169CA067047202020630021A16171
:10105000002060610D49306888420CD04068010270
:1010600009D5306850E8001F024621F0806142E84F
:1010700000100028F5D120690128704700FD0F00FD
:10108000FEFFFFEFAD0C0008FD0C000800800040E3
:10109000664981B00A6802430A6009680840009006
:1010A000009801B0704780B54FF40020FFF7F0FFC3
:1010B000002200212E2000F0FDFEBDE802402E207F
:1010C00000F016BF00685A49884200D0704780B5CA
:1010D0004FF48010FFF7DCFF002200212C2000F0ED
:1010E000E9FE2C2000F004FF002200212D2000F05A
:1010F000E1FEBDE802402D2000F0FABE30B58DB013
:101100000446302101A800F049FF226849498A427B
:101110002DD100F047FF484D00F044FFA96B01209E
:1011200060F30921A9634FF400624FF480710192CA
:10113000099101A800F048FF08B101F0D4F8A86BAC
:1011400040F40040A8630022296841F480612960CE
:101150000021286800F4806000900098032000F0CF
:10116000A9FE032000F0C4FE204601F057F90DB09F
:1011700030BD38B592B00446142101A800F00EFF2E
:10118000302106A800F00AFF20682C4988424BD184
:10119000012200210692079106A800F015FF08B170
:1011A00001F0A1F82648274D416941F48041416191
:1011B000416901F4804100910099026842F0010206
:1011C00002604FF4C061006800F00100009002224C
:1011D00000980191029201210391032207210591B8
:1011E000049201A94FF0904001F030F916482860B0
:1011F0000F21696000201022E86080216861A861E9
:10120000E8612862AA602961284600F01FF808B149
:1012100001F069F8E567AC6200220021242000F0AB
:1012200049FE242000F064FE13B030BD5000005889
:10123000000C0058002800405800005800380140B9
:101240004C0000584C1400204400024038B5040003
:1012500001D1012032BD2168DFF884024118142237
:1012600004F12405B1FBF2F29200DFF878022A6261
:10127000E8610221697020680268A068E16823685B
:101280006FF30E12024320690A4361690243A069A9
:101290000A43E1690243206A0A4302431A60204676
:1012A00000F0F8F8A068B0F5804F04BF002161603D
:1012B0002079696A00F03F0000F014F838B1052881
:1012C00005D2204600F0FAF800F012F803E0002002
:1012D00028636863A8630021A961012068702970F0
:1012E000002032BD0860A96AE86A486060687047FB
:1012F000296B00200860696BA86B4860704740B19B
:1013000000F124014A78022A05D0042088610022D5
:101310000A70012070470268136823F00E031360FF
:101320004A6A136823F480731360006802685208E5
:1013300052000260012091F82020CB6902F01C02CB
:10134000904058608A6AC86A5060086B30B1026881
:1013500022F480720260486B8A6B426001224A70FC
:1013600000200870704738B500F12402002451783D
:10137000022903D004209061012428E001680B6851
:1013800023F00E030B6001680D686D086D000D60A1
:10139000516A0B6823F480730B60012192F82030AE
:1013A000D56903F01C0399406960936AD16A59605A
:1013B000116B31B10B6823F480730B60516B936B2D
:1013C0004B60012353701470516901B18847204666
:1013D00032BDF8B500F124010423CA69146802681B
:1013E000156891F8206006F01C0603FA06F73C42E7
:1013F00010D06F070ED51468A50603D4146824F026
:101400000404146000F03EF8C968002939D0BDE832
:10141000F4400847022303FA06F73C4213D0AF0713
:1014200011D51468A50605D4146824F00A041460C4
:1014300001224A7000F026F800220A70896801B380
:10144000BDE8F4400847082303FA06F6344218D0F2
:101450002B0716D5146824F00E041460012291F8AD
:101460002030CC6903F01C039A4062600123012202
:101470008A614B7000220A70096911B1BDE8F4401D
:101480000847F1BD91F82020CC6902F01C0293407E
:1014900063607047426C1449920801EB82018164D9
:1014A00014210278083AB2FBF1F1012301F01F0187
:1014B0000E4AC26403FA01F10165704701790C4AD2
:1014C0000C4B836501F03F0102EB81024265491E2E
:1014D000012201F003018A40C2657047000000004C
:1014E000F8FFFDBF000002400008024080080240F3
:1014F000FC080240400902407047704770470EE008
:1015000002684368024408305FEAC37C44BF4B442E
:101510005B1E52F804CB43F804CB091FF9D150F8F5
:10152000041B0029ECD17047002800D0704710B58B
:10153000154C00F00FF8BDE81040FEF788BE0028FB
:1015400000D0704710B5114C00F004F8BDE8104011
:10155000FEF737BE0E4823600E4B036070470068ED
:101560000C49884204D1084A1068002818BF004777
:10157000704700680749884204D1044A106800286F
:1015800018BF004770470000701500207415002038
:10159000A812002000380140704770474FF0B0405B
:1015A000006800F0F000B02888BFB0207047DFF876
:1015B00054070068000100F0F00070472DE9F04189
:1015C00004004BD0207881064FF0B04534D5A86890
:1015D000E96810F00C0001F0030103D00C2808BFEB
:1015E00001293DD1E069002838D0FFF7D7FF616AB3
:1015F00088420CD2084600F04BFB00282ED1296807
:10160000606A21F0F001014300F0F2F909E0286876
:1016100020F0F000014300F0EBF9606A00F038FBC5
:10162000E0B900F00EFBDFF8E0160860DFF8DC063A
:10163000006800F0EFFF88B92078C10768D5A86876
:10164000E96800F00C00082801F0030103D00C2821
:1016500008BF032934D16068002859D10120C5E1B1
:10166000E069E8B1296841F0010100F0ABFA0646F3
:101670002868800706D400F0FDFB801B0328F7D301
:101680000320B3E12868616A20F0F0000843286075
:101690006868216A20F47F4040EA01206860CBE757
:1016A00028684008400000F04EFB064628684008C5
:1016B000C007C1D500F0DEFB801B0328F6D3DFE7AF
:1016C0006068B0F5803F04D1296841F48031296019
:1016D00003E0286820F480302860606858B100F08A
:1016E000C9FB06462868800312D400F0C3FB801BA8
:1016F0006528F7D3C4E700F0BDFB06462868400C18
:10170000C00705D500F0B6FB801B6528F6D3B7E708
:101710002078810715D5A868E96800F00C00042836
:1017200001F0030103D00C2808BF022928D1E0688A
:10173000002893D06868216920F0FE4040EA0160EB
:1017400068602168DFF8C86511F0180F00F08B8021
:101750006069002877D0C806706858D5800730D4F3
:10176000716841F00101716000F084FB0746706808
:10177000800726D400F07EFBC01B0328F7D37FE749
:10178000E06870B1296841F4807100F01BFA0646E8
:1017900028684005CED400F06DFB801B0328F7D3EA
:1017A0006EE7286820F4807000F0CDFA06462868BD
:1017B000800AC007C5D500F05DFB801B0328F6D367
:1017C0005EE7706840F0040000F01BF9074670689F
:1017D000000705D400F04EFBC01B0428F7D34FE7E9
:1017E0007068A16920F4706040EA01207060706840
:1017F0004008400000F005F9074670684008C0073F
:1018000031D500F037FBC01B0328F6D338E740F092
:10181000010000F0F6F807467068800705D400F074
:1018200029FBC01B0328F7D32AE7706820F00400C7
:1018300070607068C008C00715D500F01BFBC01BA6
:101840000428F6D31CE7706820F0040000F0D9F8F3
:1018500007467068C008C007C9D500F00BFBC01B65
:101860000428F6D30CE7207841074BD5DFF8A474A1
:101870003868C1050ED400F095FB00F0FBFA8046F5
:101880003868C10506D400F0F5FAA0EB080003287B
:10189000F6D3F5E6A068012804D1306840F00100D5
:1018A000306010E00528306806D140F00400306058
:1018B000316841F0010105E04008400030603168C6
:1018C00021F004013160A06841F2893760B100F075
:1018D000D1FA80463068800714D400F0CBFAA0EB30
:1018E0000800B842F6D3CBE600F0C4FA8046306870
:1018F0004008C00706D500F0BDFAA0EB0800B842CA
:10190000F5D3BDE6A06A00286FD0A968EA6802286E
:1019100001F00C0155D1E36A02F00300984202BFC6
:1019200002F07000236B984213D1636BC2F3062060
:10193000984202BF02F47810A36B984209D1E36B7E
:1019400002F06060984202BF02F06042206C824266
:1019500033D00C2936D000F0F3F90646286881010F
:1019600005D500F087FA801B0328F7D388E6E868DE
:10197000DFF8A413E26A0840216B1043626B08434E
:10198000A16B40EA0220E26B0843216C104308433C
:10199000E860286840F080702860E96841F0805174
:1019A000E96000F067FA0446286881011DD400F060
:1019B00061FA001B0328F7D362E62868810114D47A
:1019C000E7E70C293FF44AAE00F0BAF9044628686C
:1019D000810105D500F04EFA001B0328F7D34FE62E
:1019E000E868DFF838130840E8600020BDE8F081BF
:1019F00029606968206A21F47F4141EA0021696019
:101A00007047706000F036BA2DE9F843040088464C
:101A100000F0B080DFF8085300F0CBF80CD200F0F3
:101A2000CDF8064600F0C5F806D000F023FA801B7A
:101A30000228F7D90320BAE0207881074FF0B0469A
:101A400011D5B268A06822F0F0020243B26000F043
:101A500011FA0746B068C00305D400F00BFAC01BAA
:101A60000228F7D9E6E72078DFF89872810612D5C8
:101A70003A68606922F0F00202433A6000F0FAF935
:101A800081463868800306D400F0F4F9A0EB090021
:101A90000228F6D9CEE72078410613D53868A16927
:101AA0000009000140EA1110386000F0E3F98146B6
:101AB0003868C00306D400F0DDF9A0EB0900022865
:101AC000F6D9B7E72078410711D5B268E06822F46B
:101AD000E0620243B26000F0CDF90746B0688003CF
:101AE00005D400F0C7F9C01B0228F7D9A2E7207877
:101AF000010712D5B068216920F4605040EAC100A6
:101B0000B06000F0B7F90746B068400305D400F0B4
:101B1000B1F9C01B0228F7D98CE72078C1072BD573
:101B20006068022819D13168890323D5B268920808
:101B300040EA8200B06000F09DF90746B068616835
:101B400000F00C00B0EB810F16D000F093F9C01B31
:101B500041F289318842F1D36CE7032802D1316820
:101B6000890103E00028316802D18907DED401E051
:101B70004905DBD401201AE0286800F00700804501
:101B80000BD200F01BF8044600F013F805D000F06B
:101B900071F9001B0228F7D94CE700F052F85A49B6
:101BA000086000F06DFDBDE8F24300F033BDBDE814
:101BB000F283286800F00700404570472968C9088B
:101BC00048EAC101296000F055B938B54FF0B0447A
:101BD000554DA16811F00C0106D1FFF7DFFCC0F3F1
:101BE000031055F8200032BD0429504A05D00829B9
:101BF0004F4804D12168C90222D5104632BDE168A0
:101C000001F00301022904D0032904D12168C9028B
:101C100007D5104605E0FFF7C1FCC0F3031055F8E7
:101C20002000E168E268E368C1F306214843C2F39B
:101C30000211491C5B0FB0FBF1F05B1CB0FBF3F031
:101C400032BD80B5FFF7C1FF3649FFE7394A096861
:101C5000C1F3031152F82110B0FBF1F002BD80B5C1
:101C6000FFF7EFFF00F010F8C1F3022106E080B5A6
:101C7000FFF7E7FF00F008F8C1F3C22112F82110C6
:101C800001F01F01C84002BD26492B4A0968704770
:101C900070B52549B1282EBFCC6AC0F3031051F8A6
:101CA0002040FFF784FC234928A2C0F3031051F819
:101CB00020002249B4FBF0F0B0FBF1F00024002139
:101CC00052F82130834216D2491C0329F8D9144D09
:101CD0002868C00844EAC00000F035F806462868C5
:101CE00000F00700A0420BD000F0C4F8801B0328CE
:101CF000F5D3032070BD00BF18A050F82140E6E7DF
:101D0000002070BD080100588C10002080100020B9
:101D100090000058000400588C80C111FCFFFFEFB8
:101D20000040005808000058B84400080024F4009F
:101D30000048E801784400084C47000840420F0082
:101D4000286820F08070286000F094B8120000002D
:101D500024000000360000004000000000000000E9
:101D6000010000000200000003000000D3BBD9B155
:101D7000B2F5803F5BD2022A1ED98C46B1FBF2F14C
:101D800002FB11C31B0443EA1043B3FBF2FC02FB4A
:101D90001C3380B240EA0343B3FBF2F002FB103283
:101DA00040EA0C4000237047022A05D98446B0FB64
:101DB000F2F002FB10C270474AB105D100F00102F7
:101DC00049085FEA3000704700220023704700F0A6
:101DD00073BC0B000200002100207047F7D30022E3
:101DE00000237047904271EB030CF2D370B5B1FA47
:101DF00081F4B3FA83F52C1BA340C4F1200532FA19
:101E000005F63343A2405FF00046E64002E05B087F
:101E10005FEA3202841A71EB030524BF204629468B
:101E20007641F4D302000B003000002170BD70B584
:101E3000B1FA81F4B2FA82F5C4F120046419B4F164
:101E40002006DAD3B2405FF00044F440002502E0FF
:101E500052085FEA3303C61A71EB020E24BF304604
:101E6000714664416D41F3D302000B00200029004C
:101E700070BD704701484068704700BF781000206F
:101E80000901020002D43C48815470473B4B02F0E8
:101E90000F021A4402F8041C7047394B19684FF6B8
:101EA000FF020002114000F4E06008433549084396
:101EB0001860704770B5324B1C68C4F302230124CC
:101EC000C3F10705052D2EBF0F2504FA05F56D1E7C
:101ED0001E1D072E34BF0023DB1E2940994004FA43
:101EE00003F3BDE870405B1E1A401143C8E70000D1
:101EF000010007D4012200F01F01234B8A40400952
:101F000043F82020704701000BD4012200F01F018C
:101F10001E4B8A40400943F82020BFF34F8FBFF388
:101F20006F8F704710B5401EB0F1807F01D3012044
:101F300010BD174C60600F214FF0FF30FFF7A0FF7E
:101F40000021A16007202060002010BD010007D4FF
:101F5000012200F01F010F4B8A40400943F8202066
:101F60007047010007D4012200F01F010A4B8A408C
:101F7000400943F82020704700E400E018ED00E03D
:101F80000CED00E00000FA0500E100E080E100E077
:101F900010E000E000E200E080E200E0002200F05B
:101FA0008DBB70470248016841F480710160704741
:101FB00000040058DFF87C211368010C23EA014378
:101FC00043EA0043136070472DE9F04105460027BE
:101FD0002868DFF864610105B8462FD53468286A9F
:101FE00004F44074844229D0FFF7DCFF002C3168F0
:101FF00005D1286A21F44071014331601DE0326847
:1020000042F48032326021F44071306820F4803034
:102010003060286A014331603068C1070DD5FFF791
:1020200029FF04463068800707D4FFF723FF001B11
:1020300041F289318842F5D30327B8462878DFF882
:10204000FC40C10705D5E26F6868920840EA820249
:10205000E2672978880705D5E16FA86821F4406117
:102060000143E1672978C80644BF2869FFF7A2FF4A
:102070002878810644BF6869FFF79CFF28784107EC
:102080000AD5E868E16F020902F47F22000191435A
:1020900000F47F200843E067286881051ED5A86901
:1020A000B0F1804F18BFB0F1004F00D018B9E16F08
:1020B00021F0404108E0E16F21F04041E16720F06C
:1020C0008050E16F21F040610843E067A869B0F1FA
:1020D000C05F03D1216841F080712160286841050B
:1020E0000DD5E26FE86922F040520243E267E969E8
:1020F000B1F1005F03D1206840F48030206029688E
:10210000C80405D57168686A21F4404101437160D3
:10211000296888040BD5A169E86A21F030010143E0
:10212000A161A169A86A890840EA8101A1614046CC
:10213000BDE8F08188000058900000580C0000585D
:10214000574900E0574981B00A6802430A600968AC
:1021500008400090009801B0704780B500F07CFA0C
:1021600000F0C6FA00F018F800F048F84E484F4961
:10217000016000F0E3FB0420FFF7E4FF0120FFF71C
:10218000E1FF00F09FF800F04EF800F064F800F076
:10219000C3FA00F066FBFCE780B598B0442107A8BD
:1021A000FFF7FCFE1C216846FFF7F8FEFFF7FAFE7A
:1021B0003F48016821F01801016007224FF4803187
:1021C0000792089101224FF4807109920A914022EE
:1021D00000210B92119107A8FFF7F0F96F2002215F
:1021E00000900191002202920392049205920692BD
:1021F00001216846FFF708FC19B000BD80B58CB01E
:1022000030216846FFF7CAFE4FF440524FF4804138
:1022100000920991022210210A920B916846FFF761
:10222000D3FE0DB000BD10B5224C23482060002124
:1022300047F6FF700F22E0606160A2602161A1613A
:102240006161204600F0B2FB2046BDE8104000224C
:10225000002100F05EB810B5184C194820604FF40A
:10226000E1310C20606100224FF40040E0616160C8
:10227000A260E2602261A26122626262A2622046E2
:10228000FDF75CFF0021204600F050FC00212046B5
:1022900000F057FC2046BDE8104000F029BC0000CB
:1022A000480000584C000058AC140020000C0058A6
:1022B00090000058E814002000280040A8120020D8
:1022C0000038014080B50420FFF73AFF0120FFF7F6
:1022D00037FF00220F210E20FFF7ECFDBDE8024082
:1022E0000E20FFF705BE70478A60FF210268516229
:1022F00080F82130002180F82010002070472068ED
:102300004762032184F82110002084F82000032074
:1023100070472DE9F84300F060F808BF022038D07C
:1023200000F048F80ED5FFF7A5FD05462068C16806
:10233000480707D5FFF79EFD401B4045F6D3FFF742
:10234000DEFF26E000F030F800F052F8FFF792FDD3
:1023500005462068C1684A0705D4FFF78BFD401B7E
:102360004045F6D3EBE7C0F81490206800F013F86E
:102370001D48026842F4002202601C48016841F4D2
:10238000002101602068816841F48041816000F093
:1023900037F8BDE8F2838168C908C9008160206808
:1023A00081680E43866070472068816821F48061EF
:1023B00081607047012084F82000022184F82110F8
:1023C000CA2022685062532120684162FF2720689A
:1023D0008168480540F2E93870470446894694F818
:1023E0002000164601287047800800580008005851
:1023F0002068C16801F0800161F49061C16070479C
:102400002068816841F48061816001212068476211
:1024100084F82110002084F82000704790F82010E4
:10242000012901D102207047012180F820100222E9
:1024300080F82120CA2103685962532201684A6248
:10244000012301688A6842F020024DE72DE9F04F30
:102450000027694A694B4FF00F0805460E4638E0E1
:10246000674CA54214BF072404248C40654944EA04
:102470000E0441F82C40C143D3F800C0746801EA4F
:102480000C0CE40248BF40EA0C0CC3F800C0D3F8BF
:1024900004C0746801EA0C0CA40248BF40EA0C0CAA
:1024A000C3F804C0D2F800C0746801EA0C0CE4035D
:1024B00048BF40EA0C0CC2F800C0D2F804C001EAE0
:1024C0000C0C7168890348BF40EA0C0CC2F804C0C8
:1024D0007F1C316831FA07F000F07D800124BC4098
:1024E00014EA0100F4D04FEA470C032101FA0CF181
:1024F0006FEA010E716801F00309B9F1010F1CBF09
:1025000001F00301022912D1A968D6F80C900EEA55
:10251000010109FA0CF949EA0101A960696821EA97
:1025200004047168C1F30011B9400C436C60B90038
:10253000347904F00304032C21D0EC68D6F8089019
:102540000EEA040409FA0CF949EA0404EC6034794F
:1025500004F00304022C12D1FC0805EB840401F002
:102560001C09D4F820A008FA09FB2AEA0B0AD6F8BD
:1025700010B00BFA09F949EA0A09C4F820902C684E
:102580000EEA040E347904F0030404FA0CF444EA6D
:102590000E0CC5F800C0746814F4403F98D0DFF802
:1025A00064E04FEA970C5EF82C4001F00C0108FA49
:1025B00001FE24EA0E0EB5F1904F08BF002409D0A9
:1025C000114CA54208BF012404D0104CA5427FF451
:1025D00047AF022449E7BDE8F08F0AB18161704737
:1025E000816270470A4A136801460B421CBF1160A2
:1025F00000F03FB9704700008008005800080058FC
:10260000001000480800014000040048000800488D
:102610000C08005870B50F4E044630780025A8B15C
:10262000FFF70FFB32784FF47A71B1FBF2F2B0FB97
:10263000F2F0FFF777FC48B9102C07D200222146B0
:102640004FF0FF30FFF736FCB46000E0012528466C
:1026500070BD00BF78100020144810B5016841F427
:10266000807101600320FFF718FC0020FFF7D2FF04
:102670000024002814BF0124FEF715FD204610BDDC
:102680000B48806870470B480168490849000160A1
:1026900070470848016821F0020101607047054851
:1026A000016821F0040101607047000000400058FB
:1026B00078100020042004E07047000000B500BF3F
:1026C000130096469446103928BFA0E80C50FAD85B
:1026D0005FEA417C28BF0CC048BF40F8042BC90703
:1026E00028BF20F8022B48BF00F8012B00BD0000D6
:1026F00080B5824A4FF400411160002000F074FA66
:1027000048B180797E497F4A0A600B6823F47C5384
:1027100043EA00230B6001BD18B57B487B4C89B0B0
:10272000016841F050010160CA227948C261532119
:10273000C161FF210268D208D2000260C161754800
:10274000026842F40042026000F062FA72480268D5
:10275000042161F30202026000F09EFA6F4900203A
:1027600000F0AFFB00F037FD0121012000F05DFA21
:1027700000F059F800F066F80FF20113012221462B
:102780000020FEF7D1FE00F0DFFD04F1080000F0AC
:10279000D3FE0FF271020021202000F072FF604C86
:1027A00060490FF23502009104F23C500290019210
:1027B000684600F022FE04F25471039104F5C962E8
:1027C00040F23C5104920691059403A800F04EFE9D
:1027D00000F0B8FD0AB010BD1FB5044621465248AE
:1027E00000F0B6FE607AFF2804BFB4F80B00B0F525
:1027F000124F06D1684600F0D6FF0021202000F0DD
:102800004DFF1FBD80B500F07FFD0021012000F0CD
:102810000CFA6946444800F0B1FE009800F03FFE13
:1028200001F002F801BD80B5002001F003FA01209B
:1028300001F000FA022001F0FDF9BDE8024001209C
:1028400001F01CBA80B50121002001F02DFA012110
:10285000012001F029FABDE804400121022001F025
:1028600023BA02E000F0F7B900BF4FF0FF3000F0EC
:1028700097BE012808BF01F06BB87047F8B52B4C24
:10288000224E04F580752F88B7F5807F27D23078E7
:102890000D2821D116A1204601F074FA04F58277A3
:1028A00010B94FF0B0500CE012A1204601F06AFAC6
:1028B00008B91F4805E010A1204601F063FA20B9CD
:1028C0001C486860384601F074FA4FF48071204665
:1028D000FFF764FB002701E0E0557F1C2F803146A5
:1028E00001B0BDE8F040144B01220020FEF71CBEF1
:1028F000535731005357320053573300104000589C
:102900009C000058FECAFECA900800582C150020F2
:10291000082800400800005880040058E8140020EF
:102920003C000320333900083415002090100020AB
:1029300004000016060000167D280008F8B50446BD
:102940000025ACB104F13406307910B92046FEF709
:10295000B9FB0F4F384600F021F8386840F00110FD
:102960003860204600F007F835600121317100E041
:1029700001252846F2BD10B50021064A064B00EBA2
:102980008104491C06296360E261F8D310BD000090
:10299000000C0058A31F0008731E000800210160EE
:1029A0004FF03F1242603F238360704738B5040008
:1029B00052D094F8210028B9002184F82010204634
:1029C000FEF79CFB0220DFF8B81084F821000A68AB
:1029D000D00645D42268CA2151625320216848623A
:1029E00000F04BF8FF2510B100F03FF834E021680B
:1029F000DFF890008A6802408A6022689368606805
:102A000021690343A0690B43034393602068E16895
:102A1000016120680169A26841EA02410161206800
:102A2000C16821F08001C1602068C16C21F0020101
:102A3000C1642268D36CE16960690B430343D364CA
:102A400021688868810609D400F015F830B100F0DB
:102A50000CF8002084F82000012032BD2068456277
:102A6000012184F82110002032BD20684562042134
:102A700084F821107047204606E020461DE0000043
:102A80000C280040BFFF8FFF38B504462068C1689E
:102A900021F0A001C160FFF7EDF905462068C1688B
:102AA000880608D4FFF7E6F9401B40F2E931884276
:102AB000F4D3032032BD002032BD38B5044620686F
:102AC000C1684A0612D44FF0FF31C160FFF7D2F956
:102AD00005462068C168480608D4FFF7CBF9401BBB
:102AE00040F2E9318842F4D3032032BD002032BDE8
:102AF00010B500F184010A78012A01D1022010BD2D
:102B000001220A7024234B60026813681468640869
:102B1000640014600022426623F0005300680360E2
:102B200020224A6000230B70002010BD70B500F019
:102B30001FF801D1022070BD00F020F822F06042A1
:102B400009E070B500F014F801D1022070BD00F06A
:102B500015F822F0606211438160204600F01CF8F5
:102B6000206806602021696000222A70002070BD64
:102B7000044604F184052878012870470120287054
:102B800024226A60206806680268520852000260C7
:102B9000206882687047000030B5416E11B901218C
:102BA000012214E0016800BF0BA48A68D1F8081064
:102BB0000BA3520E02F00702490F655CA45C595C3E
:102BC0009A5CED00E40095FBF1F194FBF2F26830C1
:102BD0004180028030BD00000101010307010000B7
:102BE000080402040801010120B501460648074D0A
:102BF00000E00838C2798A4218BFA842F9D18A4257
:102C000018BF002020BD00BFF873FF1F0070FF1F1A
:102C10001F48002101604160704710B500F00FF8B7
:102C20001C6800F011F81C6006E010B500F007F811
:102C30005C6800F009F85C6082F3108810BDEFF367
:102C4000108272B6124B704719B1012902D10443A8
:102C500070478443704738B5EFF3108472B60C495F
:102C60000C4D086820B1296888476A6890470AE0D7
:102C7000486820B1A8688047E968884703E0286968
:102C800080476969884784F3108831BD00000000DF
:102C90004C150020D04700080248016841F400713B
:102CA0000160704708040058DFF8EC140A6892B21B
:102CB00000E00246086880B28242FAD17047F0B55F
:102CC000DFF8D834DFF8D8541E781824024662435F
:102CD000B0422A4404D118785870547D1C700FE01B
:102CE000167D507D92F815C005F11507664306283C
:102CF00007F806C004D0167D143514FB00F42E55D9
:102D0000012010731A78062A02BF00294FF0FF3005
:102D1000D860F0BD10B5DFF88444E06810F1010F11
:102D20000ED0FFF7C1FFE16881422FBFE268E16882
:102D3000E2888A182179101AE2784843D04000E0EE
:102D4000002080B210BD2DE9F84FDFF85884DFF87D
:102D500058B4D8F80060DBF80000410500F060F9D5
:102D6000DFF83854DFF838A420F48060B0604FF00A
:102D700018092C780AF1080019FB04F14758FFF7ED
:102D8000C9FF874202D20027012105E029894118A5
:102D9000B94203D22F890021A97015E001223F1A00
:102DA000AA7011E00A590AF10803121A1A5108E030
:102DB00009FB04F40AF108010A598242F2D2002305
:102DC0000B510AEB04014C7D062CF1D1B8B238B995
:102DD000FFF76AFFE8600320BDE8F24FFFF7B6B8DF
:102DE000022802DAE878012800D07F1E00F01EF9E0
:102DF000DBF80C0067F30F00CBF80C00FFF754FF73
:102E0000E860D8F80000816841F480618160AFF328
:102E10000080BDE8F18F2DE9F843EFF3108472B61E
:102E2000DFF88053DFF878332968CA2048625322DC
:102E30004A628868DFF8642320F480608860182084
:102E40001678374647431F4497F80CC0BCF1020F71
:102E500026D1D7F80080D7F810909078E8B17A7B27
:102E6000012A0AD101213046FFF729FF84F3108897
:102E70007968304600F0EAF804E084F310883046C0
:102E800000F098F82868CA21416253224262314614
:102E90004246484600F09CFF0EE0FFF754FF09E071
:102EA000C8684207FCD500F07EF84FF40020DFF838
:102EB000FC12086084F31088FF2228684262BDE893
:102EC000F1832DE9F041DFF8DC422168CA224A6231
:102ED00053234B62B44B1A6842F020021A601D68FB
:102EE000AE4A05F00705C5F10405D5709E68360C9D
:102EF00006F07F06761C16719B68C3F30E035B1CFD
:102F0000D3805B1E7343A3F5A073EB404FF6FF75B0
:102F1000AB422CBF15811381A54B1D6845F40025DC
:102F20001D60A44D2E6846F400262E6040BB012093
:102F300090704FF0FF35D5600020994D002605F1C7
:102F40000C085FFA80FC182515FB0CFC401CC7B26E
:102F500008F80C60062FF4DB062010708A6822F453
:102F600080628A6000F01FF84FF40021D9600320CE
:102F7000FEF7F7FF2068816841F48041816005E039
:102F8000C868410544BF0320FEF7E0FF2168FF2029
:102F90004862002203210320FEF78CFFBDE8F041C8
:102FA0000320FEF7A5BFC86800F0800060F49060C1
:102FB000C8607047F8B50746EFF3108472B6032077
:102FC000FEF7A1FF774D7C4A2E68CA20706253211C
:102FD0003B46182071624343D15C022917D100217E
:102FE0003846FFF76CFE6D48017806290AD16E4815
:102FF00001684A0500F014F820F48060B06000F029
:1030000015F804E04078884218BFFFF79CFE296855
:10301000FF2048620320FEF76BFF84F31088F1BDA8
:1030200002D5F0684107FCD4B0687047F0684107EA
:10303000FCD5F0685D4900F0800060F49060F060BD
:103040004FF4002008600320FEF78BBF2DE9F04706
:1030500004461825524E684337188A46397B0229A0
:1030600004BF2046FFF7A6FFEFF3108972B60320D6
:10307000FEF749FFDFF82C81D8F80000CA21416231
:103080005322426202203873C7F808A0C7F804A090
:10309000DFF808A19AF80000062808D100F075F8BA
:1030A00078754FF0FF31CAF80C10002056E0FFF79A
:1030B00031FEB9680918B96006F10803B9689AF8D1
:1030C00000206A439A5891422AD39AF8002004E0DB
:1030D00006F1150E6A431EF8022006F1150315FBD2
:1030E00002FC13F80C30062B06D006F1080C6B43DB
:1030F0005CF803309942EBD21146694306F1150E94
:103100001EF80130062B05D006F1140C15FB03F553
:103110000CF805407B753A7506F1150254541DE014
:103120009AF800109AF800C0614515FB01F20FD023
:1031300006F1140E06F1150C1EF8023015FB03F50E
:103140000CF8054079753B7506F114018C5403E0C9
:1031500006F1140379759C5400F017F89AF80010E2
:103160009AF801208A4202D0FFF7EDFD02E0B9682B
:10317000081AB860FF20D8F8001048620320FEF754
:10318000B7FE89F31088BDE8F0879AF800108AF836
:1031900001108AF800407047282800403C150020A4
:1031A0003C130020E8140020082800400C080058B8
:1031B0000008005880080058481300204B4900E0E0
:1031C0004B4981B00A6802430A60096808400090D0
:1031D000009801B07047F8B58AB0142105A8FEF731
:1031E000DDFE0022079203214FF460420691059212
:1031F0000120FFF7E3FF05A94FF09040FFF726F904
:103200003A4D3C4C28684008400028601821059140
:103210000220FFF7D3FF05A900F073F8286820F01B
:10322000020028600025FFF72EFAFFF732FAFFF7B9
:1032300036FA14216846FEF7B1FE00260027002169
:103240002D4A02EBC102907980B11368B3F1904F1F
:103250000AD0A34205D02948834207D1908807436A
:1032600004E09288164301E090880543491C262912
:10327000E6DB002102910122032101920391A8B211
:1032800088B100900120FFF799FF0120FFF798FF18
:1032900069464FF09040FFF7D9F80022A9B24FF0ED
:1032A0009040FFF79AF9B0B268B100900220FFF7A2
:1032B00085FF0220FFF784FF00F022F80022B1B260
:1032C0002046FFF78AF9B8B270B100900420FFF7EA
:1032D00075FF0420FFF774FF084C00F011F800227E
:1032E000B9B22046FFF779F90BB0F0BD4C00005899
:1032F0004C010058000400484843000800080048FA
:1033000069462046FFF7A2B800B587B04FEA0D0026
:1033100005A11C2200F05EFD00F0DDF8684600F01B
:1033200033FA07B000BD00000000000000000000FC
:103330000000000048430008280003202C00032060
:103340002604040000F0C5BD71487249016001F116
:103350002002426001F13003836001F14002026209
:1033600001F14803436201F15002C26001F15803C8
:10337000036101F17402426101F1780383618431D8
:10338000C16100F0C4BD38B50446634D284600F065
:10339000D3F85F494868A1680160E2685F49C2608C
:1033A0004160856000F0CFFD5D4834E080B558484D
:1033B0004268136801211972406800F0CAFD0020BC
:1033C00002BD38B5564C544D04E000F04BF800985F
:1033D00021688847284600F0B2F80028F5D031BDB2
:1033E00080B54B494A68D1680220087200F0B6FDEA
:1033F000002002BD4A484168084738B50446494D97
:10340000284600F099F84249C868A1680160456003
:1034100000F0ADFD44482168016062684260002010
:1034200032BD80B53A48C268136810211972C0686D
:1034300000F0A3FD002002BD3548C168C2683A49CA
:1034400010680B68184738B5374C364D04E000F06B
:1034500009F8009861688847284600F070F800284D
:10346000F5D031BD6946284600F088B838B5044625
:103470002E4D284600F060F82D4800F05DF82448F5
:103480000069A1688160E268C2600561216801602D
:1034900062684260216941616269826131BD80B5C3
:1034A0000146234800F054F8BDE802400FF2050041
:1034B00000F06CBD38B5164C1D4D06E0FFF7D2FF8D
:1034C00000992069006900F043F8284600F037F8B9
:1034D0000028F3D031BD10B5164C204600F02CF872
:1034E0000B4948690460BDE8104000F063BD1CB59D
:1034F000104C06E06946204600F040F8009800F0C5
:1035000071FD204600F01BF80028F3D013BD000029
:1035100000000320C00A0320600B0320B00A032030
:103520005C150020680B032064150020500B03205D
:1035300054150020580B0320006040607047EFF3E3
:10354000108172B6026882420CBF0120002012E096
:10355000EFF3108272B6086043684B6041604868C0
:1035600001601AE0EFF3108172B6426803681360DD
:1035700002684368536081F31088704710B5EFF319
:10358000108472B602680A600168FFE70846FFF718
:10359000E9FF84F3108810BD0B6082F31088704738
:1035A0002DE9F8435E4C5F4EA5692840A0614FF0BD
:1035B000FF372169E2696069236A4FF001083CE046
:1035C000491C54F831301A42FAD054F8312004EB37
:1035D000C1091040D9F804100CEA0000014208BFEC
:1035E000C9F80470D9F80410084000F09DF8D9F823
:1035F000042008FA00F18A43C9F804206062EFF35E
:10360000108172B608FA00F22069D243104020619E
:10361000022004EBC003401E53F808CC02EA0C0C55
:1036200043F808CCF5D181F31088606A56F8201071
:1036300088472169E2696069236AD4F818C00140AB
:1036400011EA0C0F05D01A4203D1002100EA0C0246
:10365000B7E7676200F0C7FCEFF3108672B6226925
:10366000E1696069A36902401A4202BF206A01420F
:10367000FFF7F8F886F3108800F0B6FCA561BDE806
:10368000F18338B51446EFF3108572B600F04CF8AC
:10369000244941F8204085F3108831BD30B5EFF35F
:1036A000108272B61E4B1C6904431C6153F83150E2
:1036B000284343F8310082F3108830BD506181F314
:1036C00010887047EFF3108172B6154AD36918431A
:1036D000D061F4E72DE9F041114C666A05463746A2
:1036E00016F1010F0EBF0026012000FA06F6D4F8ED
:1036F0002080256203E029463046FFF7B5F8E069EF
:103700002842F8D06762EFF3108072B6E16921EACF
:103710000505E56180F31088C4F82080BDE8F081DC
:1037200044100020CC13002002460020110C090494
:1037300004BF1020120412F07F4F04BF08301202A1
:1037400012F0704F04BF001D120100BF03A3120F3F
:10375000C0F11F00995C401AC0B270470403020216
:1037600001010101000000000000000000F015FA56
:103770009DF80E0005B000BDF8B500F10C026B46D7
:103780002E214FF66640F1E7F8B500F10C026B46CA
:103790000F214FF66840E9E7F8B502466B46102165
:1037A0004FF67540E2E7F0B51C491D4B0A681D490C
:1037B000C2F30D0201EB82010C6822689A4205D126
:1037C0006569A169E269E368246905E0264635690F
:1037D0007169B2697368B4682E0E06702F0C477059
:1037E0002E0A867001724272C5F3031605F00F05AA
:1037F00005711A0C0D0EC6704571C2720E0C0D0AC1
:10380000190E81721B0A210E220C8671C571037379
:1038100041738273C4730020F0BD00003C40005827
:10382000B95646A90000032018B597B06C46002091
:1038300000210022002384E80F0008A8DFF8AC1361
:10384000DFF8AC433C2200F0C5FA2068DFF8A4435F
:103850000FF22D3204924FF6FC7101EA8001DFF87D
:1038600098034118E16004A8DFF89013069101F570
:10387000867107910FF221310591FFF784FD012137
:103880000220FFF7D2F901210220FFF7C6F900203C
:10389000E070A0700F208DF80000DFF8640301686D
:1038A000090CADF80C100068C0F30B00ADF80E0069
:1038B0006846FFF771FF08B1FEF715FD08A8FFF78E
:1038C0005BFF08B1FEF70FFD0FF22D12002108205B
:1038D000FFF7D7FEDFF82C2300210120FFF7D1FEF0
:1038E0000FF2990200211020FFF7CBFEC64A0021FB
:1038F0000220FFF7C6FEC54A00210420FFF7C1FEE3
:10390000012060700021A16004F11800FFF714FE8F
:10391000FEF7A1FC04F1100000216060217001227B
:103920000FF2291304F110010020FDF7FDFD18B07E
:1039300010BD80B5AF4A917831B10023937001205A
:10394000BDE80240FFF7BEBE014602F118001BE1D0
:1039500010B5A84CE07830B9012000F094F90121AD
:10396000E170002105E0012000F088F90020E070FE
:103970000121BDE810400220FFF74FB938B5EFF341
:1039800010859C4C6078012835D10022627004F1CA
:10399000080104F11800FFF7F1FDA068E178A9B96A
:1039A000007A0FF2A913022872B6A06804D1B0F809
:1039B0000B20521D92B201E0827AD21C00F1080164
:1039C0000020FDF7BCFD85F3108831BD0121E268C0
:1039D000617011698A68904205D3C96811448842B0
:1039E00038BFFFF75CFD04F11800FFF7A8FD10B920
:1039F000BDE83440CCE031BD10B5854CB4F80900C9
:103A00004FF66052811A04D0491E06D0491E08D0D4
:103A10000BE0204600F0EAFA11E0204600F024FB1B
:103A20000DE0204600F045FB09E0A0810E210120B9
:103A3000A073E0726172212020720420A0722146DE
:103A40007448FFF785FDBDE81040A1E0F8B5694D69
:103A500069682A78002400201AB1022A64D013D39E
:103A600058E00978012905D0022907D0102918BF8C
:103A7000202907D10120287003244BE00120287061
:103A8000042447E0012445E00E78E868022E11D0B6
:103A9000102E02D0202E03D01CE0CC78C0681BE092
:103AA000CC785B4805F1100100F108070A6840F87E
:103AB000082F18E04068CA780979C36802EB01242E
:103AC00003F10807052205F11001384600F082F9DC
:103AD000052009E0CC784068016805F1100001F18B
:103AE00008070168396004206F60A1B211B1022299
:103AF0002A700FE0022E25D0102E1DD0202E1ED0B1
:103B000000210120FFF7CAFD002005F110012870F7
:103B100001246960A2B201B069683F4BBDE8F04082
:103B200001440020FDF700BD087802280AD01028C3
:103B300002D0202803D0E3E700210220E2E70021A1
:103B40000820DFE700210420DCE7000010B5294C45
:103B5000E168012060700969A0688A68904205D315
:103B6000C9681144884238BFFFF799FC04F1180076
:103B7000FFF7E5FC10B9BDE8104009E010BD0000FA
:103B800080B50146234800BFFFF7E2FCBDE80440D2
:103B900000211020FFF782BD704770B51446144A0B
:103BA000144E12681D460123B3704FF6FC7303EAEE
:103BB0008203114AD3180A46DE683668A6F809005F
:103BC000F17206F10C00214600F004F900210020FA
:103BD000FFF727FC0120FFF77DFD314605F10800C6
:103BE000B278BDE87040D21C00F0F4B8D4450008AB
:103BF0003C4000580C150020000003209C080320C6
:103C0000002004E0AD33000823340008E13300084D
:103C10009C110020241500204D3A0008494981B02C
:103C20000A6802430A60096808400090009801B0E1
:103C30007047000078B585B0044600F07EF8022099
:103C4000FFF7ECFF47A1404E31F8145000950121D9
:103C500001910022022102920391694656F8240044
:103C6000FEF7F4FB00F004F8002006B070BD000081
:103C700056F8240000222946FEF7AFBC10B500F02C
:103C80000BF8012203E010B500F006F80022FEF761
:103C9000A4FC002010BD000032A32B4C33F8101000
:103CA00054F8200070470000F0B585B004460D467A
:103CB00000F043F8200005D0012C08BF102002D0EE
:103CC000022C02D10120FFF7A9FF00BF27A01F4F40
:103CD00030F8141000910122022107EB84060292B1
:103CE000039130682DB9002101916946FEF7AEFBC2
:103CF00020E04FF40411019107EBC4056946FEF77B
:103D0000A5FB00BF1CA050F8241005F1240000F012
:103D10004AF8F268002105F1240000F03DF800BFE8
:103D200014A00457B16900222046FEF7C3F82046CC
:103D3000FEF7DEF8002005B0F0BD14220021684631
:103D400000F014BA4C0000586C100020081000203D
:103D5000002000F015BA012000F012BA022000F095
:103D60000FBA000020000100020000000100100056
:103D700040000000060A17000000001604000016AC
:103D80000600001610F8012B11F8013B0AB19A4207
:103D9000F8D0D01A704700000346002009B95A60D5
:103DA00070470120704708B901207047016000206A
:103DB000704700680549C0F300425201012300F03A
:103DC0001F0003FA00F088507047000008080058F0
:103DD000104700004AB1000011F8013B521E00F8E4
:103DE000013B1CBF11F8013BF8E77047C068084071
:103DF000884201D10120704700207047C069084007
:103E0000884201D1012070470020704710B56C4CEA
:103E100002212046FFF7F2FF38B16068C0438107F6
:103E200003D5FFF710FB022018E001212046FFF721
:103E3000E5FF38B16068C043C10703D5FFF7C1FA99
:103E400001200BE008212046FFF7D8FF38B1606859
:103E5000C043010703D5FFF74AFB0820A06010BD4F
:103E600010B5574C02212046FFF7C0FF58B96068D3
:103E7000C043810307D5606840F400306060BDE84E
:103E80001040FFF7D9BA08212046FFF7AFFF70B9FD
:103E90006068C04301030AD560684A4940F40020C5
:103EA0006060086880474FF40022A26010BD2021A6
:103EB0002046FFF79BFF58B96068C043810207D5D1
:103EC000606840F400106060BDE81040FFF792BAEF
:103ED00010BD3D4881B0016841F480110160006867
:103EE00000F48010009000983848016841F4007197
:103EF00001603748026842F40072026040BF20BF90
:103F00003448016841F40041016001B0704780B558
:103F10003148016841F480110160006800F48010AC
:103F2000009000982648016841F001010160026894
:103F300042F4803202602C20FDF7DAFFBDE8024037
:103F40002D20FDF7D5BF25480168490849000160CB
:103F5000704723494FF48030086070471F484FF482
:103F600000114160026822F40012026070471B4891
:103F7000016821F002010160704718484FF40031D8
:103F80004160026822F400320260704738B504468E
:103F90000B4D08212846FFF729FF30B1094804607E
:103FA000696821F40021696031BDA0474FF4002009
:103FB000A86031BD0948016821F00801016070471F
:103FC000000C00586C1500205001005820080058C3
:103FD000D40800580C04005850000058040C005835
:103FE000080C0058704770477047000070B5EFF339
:103FF0001081027B012A02D0022A07D00DE000F0D6
:1040000027F81B7800F01FF814700CE000F020F87F
:104010001B8800F018F8148005E000F019F81B6800
:1040200000F011F8146081F3108821210E22017232
:10403000427204214FF66052817282810021012276
:104040008173C27270BD23EA040435402C4370476B
:1040500072B6D0F81120D0F81130D0F80D40D0F859
:104060001550D0F80D60704781B0017B012902D056
:10407000022904D007E0D0F80D10097806E0D0F846
:104080000D10098802E0D0F80D1009680091212276
:104090000E21417202724FF66151082281818272B3
:1040A000002101228173C272009940F80F1F01B0F4
:1040B000704738B50446274800684FF6FC7505EA96
:1040C000800525484519212121724220A0724FF612
:1040D0006251A1810120E07200210E22A17362725F
:1040E0001E480168090CA4F80F100068C0F30B000B
:1040F000A4F811001A4801781A4801F01F01E17470
:10410000416821754168090AC4F815100168C4F8AE
:1041100019100169C4F81D104169C4F821108069A3
:10412000C4F8250004F1290029680A6802600C22FD
:104130002B68191D04F12D00FFF74CFE2968102291
:10414000103104F13900FFF745FE07480168C4F853
:10415000491031BD3C40005800000320002004E01D
:104160000075FF1F8075FF1F9048000810B50446BA
:1041700010460A460146204600F004F8204610BDCD
:10418000704700004018491C1CBFB1F1010100F844
:10419000012DF9D1704700004D490A68920840EAA4
:1041A00082000860704700EB81004A4AD0F8801016
:1041B000914201D0012070470020704742F4806294
:1041C00040F82120704780B500F0AEF84248016801
:1041D00041F40001016000F05BF840480921816171
:1041E0000321026800F00EF8016001BD704780B540
:1041F00000F09AF800F04CF838480268012100F00D
:1042000001F840E061F3020202603548016841F0C4
:104210000401704710B5334C00F06AF800F029F83B
:104220000028FBD14FF0B040816801F00C01042957
:1042300016D1016841F48031016001222A490B68DE
:1042400062F302030B6001688903FCD502218268D6
:1042500061F301028260816801F00C010829FAD142
:10426000002203212046FFF7A9FFBDE8104000F01F
:1042700063B80321204696E780B500F055F818484A
:10428000016821F00401016030BF01BD00F054B8A5
:1042900038B5144CFFF7EDFF0028FBD10421FFF7E0
:1042A000E9FF114D40B911480168090402D40068C2
:1042B000400507D500F01CF800F01EF82868C0087B
:1042C000C00028602046BDE838400022032175E781
:1042D00008000058000400809400005800040058B2
:1042E00010ED00E000140058004000588804005809
:1042F00000220421204661E710B54FF0B044206849
:1043000040F48070206020684105FCD50120FFF753
:1043100043FF606A800880006062A06800F00C00C3
:104320000428FAD110BD00000248016821F0020102
:104330000160704710E000E00248016841F00201AE
:104340000160704710E000E000000048010000003C
:1043500000000048010000000000004801000000CB
:1043600000000048010000000000004801000000BB
:1043700000000048010000000000004801000000AB
:10438000000000480100000000000048010000009B
:10439000000000480100000000000048010000008B
:1043A000000000480100000000000048010000007B
:1043B000000000480100000000000048010000006B
:1043C000000000480100000000000048010000005B
:1043D000000000480100000000000048010000004B
:1043E000000000480100000000000048010000003B
:1043F000000000480100000000000048010000002B
:10440000000000480100000000000048010000001A
:10441000000000480100000000000048010000000A
:1044200000000048010000000000004801000000FA
:1044300000000048010000000000004801000000EA
:1044400000000048010000000000004801000000DA
:1044500000000048010000000000004801000000CA
:1044600000000048010000000000004801000000BA
:1044700000000048010000000100000003000000EF
:10448000050000000100000001000000060000001F
:104490000A000000200000000200000004000000EC
:1044A0000800000010000000400000008000000034
:1044B0000001000000020000A0860100400D030082
:1044C000801A060000350C0040420F0080841E0058
:1044D00000093D0000127A000024F40000366E014D
:1044E0000048E801006CDC02000000000000000051
:1044F00000000000000000001349002008604FF099
:10450000B0411248026842F4700202604FF4E022A7
:10451000086840F0010008608A600B680C4803409E
:104520000C480B60026822F00502026043685B08D9
:104530005B0043600848C86000200A6822F48022BB
:104540000A6088617047000008ED00E088ED00E037
:10455000FBFEF6FA9400005800100422FEE7FEE786
:10456000FEE7FEE7FEE770477047704700F01CB8B3
:10457000FEF751BC0248FCF72CBF0248FBF790BE87
:104580004C140020A8120020FFF740BCFFF768BCC5
:1045900000F012B80120FEF725B81020FEF722B86F
:1045A0004020FEF71FB800000248416802788A18D0
:1045B00042607047781000200449C8680A68824346
:1045C0000A60486000F004B80000000000150058C0
:1045D0007047000000000000000000000000000024
:1045E00000000000000000001E0004000A05030196
:1045F000122E9C00F4010000FFFFFFFF480101188C
:104600000020D80600039E01000000000D000000FD
:1046100000F01AF801280CD08AB0084880470848F2
:1046200000472DE9F05F074C6B462360BFF34F8FC7
:1046300030BF044C2468A546BDE8F09FF94400084B
:10464000B547000878150020014900200860704730
:104650007C15002030B4002512E050F8042BD3075D
:1046600044BF4A44521E091F042942F8045BFAD28F
:1046700013468C0744BF15809B1CC90748BF1D709B
:1046800050F8041B0029E8D130BC704710B500F089
:1046900013F8020000230024E4431068A04203D072
:1046A00011000220ABBE13605068A04203D0111D60
:1046B0000220ABBE536010BD00487047841000203C
:1046C00010B5074979441831064C7C44163404E08F
:1046D0000A68081D114488470146A142F8D110BD5F
:1046E0002C000000680000004EF68851CEF2000158
:1046F000086840F470000860BFF34F8FBFF36F8FFE
:104700004FF00170E1EE100A7047000049FFFFFF13
:10471000F004000090100020840A00003C000320F8
:1047200000000000DBCDFFFF14000000BC00000013
:104730002800032000000000C7CDFFFF8800000014
:1047400054010000081000200000000000000000DC
:104750000000000000000000000000000100000058
:1047600002000000030000000400000000F00DF84B
:10477000002801D0FFF7A4FFAFF300800020AFF3C3
:104780000080FDF7EAFC00F002F80120704700F01D
:1047900001B800000746384600F002F8FBE70000C9
:1047A00080B5FFF773FF024A11001820ABBEFBE78C
:1047B000260002000548014603B4684680F30988D4
:1047C000AFF30080FFF790FFFFF7D0FFA5EDF5FEF8
:1047D000794200088D420008EF41000815420008A8
:1047E000C7410008ED410008000000000000000083
:1047F000000000000000000000000000FFF7FEBF06
:10480000FFF7FEBFFFF7FEBFFFF7FEBFFFF7FEBFDC
:10481000FFF7FEBFFFF7FEBFFFF7FEBFFFF7FEBFCC
:10482000FFF7FEBFFFF7FEBFFFF7FEBFFFF7FEBFBC
:10483000FFF7FEBFFFF7FEBFFFF7FEBFFFF7FEBFAC
:10484000FFF7FEBFFFF7FEBFFFF7FEBFFFF7FEBF9C
:10485000FFF7FEBFFFF7FEBFFFF7FEBFFFF7FEBF8C
:10486000FFF7FEBFFFF7FEBFFFF7FEBFFFF7FEBF7C
:10487000FFF7FEBFFFF7FEBFFFF7FEBFFFF7FEBF6C
:10488000FFF7FEBFFFF7FEBFFFF7FEBFFFF7FEBF5C
:10489000000100000000004800100048000000482F
:1048A000513D0008573D00085D3D00080F00000025
:1048B0000F0000000F0000000000000000000000DA
:1048C00000000000000000000000000000000000E8
:1048D00000000000000000000000000000000000D8
:1048E00000000000FFFFFFFFFFFFFFFF00000000D0
:1048F0000000000000000000000400480004004820
:10490000000400480100000000000000100000004A
:0C491000FFFFFFFFFFFFFFFF00093D005D
:04000005080047B5F3
:00000001FF
