:020000040800F2
:100000000810002081450008C9440008CB440008BE
:10001000CD440008CF440008D1440008000000008F
:10002000000000000000000000000000D3440008B1
:10003000D544000800000000D7440008D944000857
:1000400055470008594700085D470008DD4400088F
:100050006147000865470008014500086947000836
:100060006D470008714700080745000875470008FC
:10007000794700087D470008E144000881470008EF
:1000800085470008894700088D47000800000000E8
:100090000000000091470008954700080D45000842
:1000A000994700089D470008A1470008A547000898
:1000B000A9470008AD470008B1470008B547000848
:1000C0000000000000000000B94700080000000028
:1000D000E7440008BD47000800000000C1470008D1
:1000E000C5470008C947000800000000CD470008C8
:1000F000F5440008F9440008FD440008D147000811
:10010000D5470008000000000000000000000000CB
:10011000D9470008DD470008E1470008000000005B
:1001200000000000000000000000000000000000CF
:100130000000000000000000E547000838B504009A
:1001400009D004F18005686808B900F01EF800F0D5
:1001500021F8012801D1012032BDA06A08B100F0C8
:100160002AF800F00AF821F02A01FFE7816000F088
:100170001BF8BDE8324000F070BB2068416821F4F4
:1001800090414160206881687047002129702046B5
:1001900000F084BF24206860206801684908490095
:1001A0000160204600F0F0B92068016841F00101CB
:1001B000016020467047204600F0ECBA30B5034697
:1001C00003F180046068202845D109B1100001D1F5
:1001D000012030BD207801283DD00125257019650A
:1001E000002003F154010A804A800862E060212067
:1001F000606008699A68B0F1005F16D1B2F5805F5F
:1002000004BF1869002807BFDFF868230A62DFF817
:10021000680308620020207000F027FC41F4000110
:1002200000F02EFCF8D1002030BDB2F5805F04BF95
:100230001869002807BFDFF844230A62DFF840038B
:1002400008620020207000F00CFC42F0800200F0F8
:1002500089F9F8D1E7E7022030BD38B500F011F890
:100260000DD109B1140001D1012032BD0478012C57
:1002700005D000F00CF8BDE8384000F073BB022058
:1002800032BD034603F180008468202C70470125AD
:1002900005700020D866DFF8EC421868A0420BD049
:1002A0004068040208D51C6854E8005F45F080658A
:1002B00044E800500028F6D118467047216851E8FC
:1002C000002F7047206800F1080151E8001F00F17D
:1002D000080221F0400142E8001000287047F8B5FC
:1002E000044640F60F002668F1693268B36808409A
:1002F00004F15C050ED1880602D5900602D4D80020
:1003000040F181806969002900F029812046BDE81B
:10031000F4400847DFF8C807034204BFDFF8C4779A
:100320003A4270D0CF0707D5D70505D501273762E8
:100330002E6B46F001062E638E0708D5DE0706D524
:10034000276802263E622E6B46F004062E634E0797
:1003500008D5DE0706D5276804263E622E6B46F0D8
:1003600002062E630E070AD5960601D4034206D074
:10037000266808203062286B40F0080028630805D2
:1003800009D5500107D526684FF400603062286B0C
:1003900040F020002863286B002833D0890607D559
:1003A000900601D4D80003D5696909B12046884771
:1003B000286B21688A68510602D410F0280F1CD0DF
:1003C000204600F062FB00F0D1F811D5FFF77AFF6C
:1003D000FCD1286A60B10FF215718163286A00F0C0
:1003E00058FF00280ED0286A816BBDE8F44008470A
:1003F0002046BDE8F24001F013B8204601F010F8A5
:1004000000202863F1BD286901286AD1CF0668D58C
:10041000D00666D51020306200F0A8F82DD5296AE4
:100420000868406880B20028ECD02A889042E9DA57
:100430006880086801688A061BD4FFF73FFF22F432
:10044000807200F08FF8F8D1206800F07FFAFBD1BD
:10045000FFF738FFFCD12020E86200202861FFF779
:100460002DFF22F0100200F07DF8F8D1286A00F08C
:10047000DAFE29886888091A2DE028886988411AD7
:10048000688800281CBF88B2002868D0226852E81B
:10049000003F23F4907342E800300028F6D1206832
:1004A00000F1080200F1080352E8002FDFF8C8024B
:1004B000024043E800200028F1D12020E86200201B
:1004C00028616861226852E8003F23F0100342E887
:1004D00000300028F6D12046BDE8F44089B200F093
:1004E000A0BFC80209D5580207D54FF4801030626A
:1004F0002046BDE8F24001F00FB8080609D5100605
:1005000001D4180205D5A96949B32046BDE8F440D5
:100510000847480611D550060FD5FFF7CFFE22F049
:10052000400200F01FF8F8D12020A8620020A86146
:100530002046BDE8F24001F00DB8080206D5500093
:1005400004D52046BDE8F24001F016B8C80148BF06
:10055000002A04D52046BDE8F24001F00EB8F1BDF6
:1005600022F4F07241E8002000287047206881687A
:1005700048067047DD0B00087B0B0008270B0008BE
:10058000FD0A000800800040F8B50446DFF80C09B9
:100590002168DFF80CC90A68DFF808790240A06812
:1005A00002432069024360690243E06902430A6032
:1005B00000254A68E06822F4405202434A60A36979
:1005C000DFF8782991421CBF206A03438E68DFF868
:1005D0007009064033438B600FF2A016CB6A606A45
:1005E0001B0940EA0313CB626145DFF858094FF459
:1005F000004338D13F6807F00307032F4CD8DFE8EA
:1006000007F0024542484FF0010CE169B1F5004F97
:100610004FF6F07740F07F80BCF1010F09D0BCF1BC
:10062000020F0AD0BCF1040F70D0BCF1080F70D0DB
:1006300097E001F04BFB002814D0626A616836F83D
:100640001230B0FBF3F04A0802EB4002B2FBF1F0CB
:10065000A0F11001B942EBD20740C0F342000743BA
:100660002068C7607EE0914216D13F6817F440676A
:1006700023D0B7F5806F09D0B7F5006F03D0B7F579
:10068000406F06D008E04FF0020C07E04FF0040C7A
:1006900004E04FF0080C01E04FF0100C9142B4D18F
:1006A000BCF1000F09D0BCF1020F0AD0BCF1040F5D
:1006B00015D0BCF1080F15D053E001F0FFFA002867
:1006C00050D0616A36F81120B0FBF2F6626802EB96
:1006D00042018E4245D31103B14205D241E001F0FF
:1006E000A3FAECE71846ECE75008002110EB0620CF
:1006F00051EB1661002301F069FBA0F54071DFF8B2
:10070000482891422DD22268D0602BE001F08CFA6B
:1007100091E7184691E7BCF1010F09D0BCF1020F37
:1007200009D0BCF1040F17D0BCF1080F17D018E0A6
:1007300001F0CCFAB0B1626A36F812306168B0FBF1
:10074000F3F000EB5100B0FBF1F0A0F11001B94261
:1007500007D22168C86005E001F066FAEAE71846AA
:10076000E9E7012504F168000121418001800021B1
:100770008160C1602846F2BDFEFFFFEF010002006C
:100780000400060008000A000C00100020004000D1
:100790008000000190F82810CA0706D50268536847
:1007A000C16A23F400330B43536090F828108A0782
:1007B00006D502685368016B23F480330B43536002
:1007C00090F828104A0706D502685368416B23F455
:1007D00080230B43536090F828100A0706D502685F
:1007E0005368816B23F400430B43536090F8281047
:1007F000CA0606D502689368C16B23F480530B4385
:10080000936090F828108A0606D502689368016CF8
:1008100023F400530B43936090F828104A0610D538
:1008200002685368416C23F480130B435360416C9E
:10083000B1F5801F05D15368816C23F4C0030B43CD
:10084000536090F828100A0606D501684A68C06C03
:1008500022F4002202434A607047F8B5044604F1CE
:1008600080050020E8606FF07E4701F0C7FB064678
:10087000206801680A0708D50097334600224FF424
:100880000011204600F017F860B9206801684A0797
:100890000AD50097334600224FF48001204600F02D
:1008A0000AF808B10320F2BD20206860A86000208B
:1008B000E0662870F2BD2DE9F041069C05460E4623
:1008C00090461F462868C1693140B1420CBF0120E3
:1008D0000020404526D114F1010FF3D001F08EFB2A
:1008E000C01B844200D33CB900F025F800F02DF87D
:1008F000FCD100F01AF811E0286801684A07E1D538
:10090000C1690A05DED54FF40062026200F013F8F7
:1009100000F01BF8FCD100F008F8C1600021017064
:10092000032000E00020BDE8F08105F180002021D7
:10093000416081607047296851E8002F22F4D0722D
:1009400041E800200028F6D17047286800F108012E
:1009500051E8001F490800F10802490042E8001070
:100960000028704770B5034600209965FF2403F105
:100970005C010A804A8048619868B0F5805F04D1C4
:10098000186960B940F2FF1409E010B9186928B974
:1009900005E0B0F1805F06D1186910B97F248C8022
:1009A00003E03F2000E00020888003F18004002065
:1009B000E0602220A060186800F1080555E8005F9B
:1009C00000F1080645F0010546E800500028F2D184
:1009D0008868B0F1005F23D18D89AA4220D39A683C
:1009E000B2F5805F04BF1869002807BF0FF2094203
:1009F0004A610FF25930486100202070186930B107
:100A000000F02FF842F48072FFF7ACFDF8D100F04F
:100A10002CF841F0805100F033F8F8D1002070BD7F
:100A20009A68B2F5805F04BF1869002807BF0FF20B
:100A300055224A610FF20520486100202070186994
:100A400038B100F00EF842F49072FFF78BFDF8D148
:100A5000E4E700F006F842F02002FFF783FDF8D14A
:100A6000DCE7196851E8002F7047186800F10801A9
:100A700051E8001F00F108027047DFF8D004014080
:100A800042E80010002870470000026852E8003F6A
:100A900023F4907342E800310029F6D1016801F196
:100AA000080201F1080352E8002F0F490A4043E809
:100AB00000210029F2D1C16E012908D1026852E853
:100AC000003F23F0100342E800310029F6D1202135
:100AD000C0F888100021C16601677047000000005F
:100AE0000100001020010004FEFFFFEF806A00F10A
:100AF000560100220A810A8000F092BCD0F88420BE
:100B0000212A0FD1B0F8561001B923E0016D036816
:100B10000A789A62016D4A1C0265B0F856104A1EA6
:100B2000A0F856207047D0F88420212A11D1B0F8BF
:100B3000561001B90EE0016D03680A88C2F308027D
:100B40009A62016D8A1C0265B0F856104A1EA0F820
:100B500056207047026852E8003F23F0800342E8C5
:100B600000310029F6D1026852E8003F43F040030B
:100B700042E800310029F6D17047D0F884102129CD
:100B800000D0704730B500F15602938A0DE001683D
:100B9000CC69250608D5046D25788D62016D4C1C45
:100BA00004651488611E11805B1E99B241B11188E1
:100BB0000029ECD100F005F8FCD100F035F8FCD1AB
:100BC00030BD016801F1080252E8002F01F108036D
:100BD00022F4000243E8002100297047D0F8841075
:100BE000212900D0704730B500F15602938A0FE0FA
:100BF0000168CC6925060AD5046D2588C5F308056A
:100C00008D62016D8C1C04651488611E11805B1E51
:100C100099B241B111880029EAD1FFF7D2FFFCD186
:100C200000F002F8FCD130BD026852E8003F43F00A
:100C3000400342E8003100297047000010B500F081
:100C40004BF81AD14B6A91880B40816D0B70816D06
:100C50004B1C00F03BF8A1B900F044F800F060F83C
:100C6000FCD100F056F807D10023136100F044F8DE
:100C700044BF10240C6260E064E0886940F0080022
:100C8000886110BD10B500F027F81AD14B6A918821
:100C90000B40816D0B80816D8B1C00F017F8A1B9A2
:100CA00000F020F800F03CF8FCD100F032F807D159
:100CB0000023136100F020F844BF10240C623CE0D4
:100CC00040E0886940F00800886110BD8365518864
:100CD0004B1E53805188704700F15C020168D36A53
:100CE000222B7047036853E8004F24F4907443E8C4
:100CF00000410029F6D17047036853E8004F24F003
:100D0000100443E800410029F6D10168CB69DC06F4
:100D100070472021D162002151611169012970477A
:100D2000016801F1080353E8003F5B0801F1080482
:100D30005B0044E80031002970471188BDE810408D
:100D400000F06FBBBDE8104000F0FABB2DE9F8439E
:100D500000F0B0F847D1A08978B96088002844D065
:100D6000A189884241DA00F0B2F87948606100F068
:100D7000C4F83AE0304600F0E3FBA806EDD500F0F9
:100D800093F80870B06D411C00F0F7F819D0E9072E
:100D900048BF5FEAC95101D500F0F8F8A80703D5AC
:100DA000F80701D500F0DAF8680703D5F80701D590
:100DB00000F09BF8206B20B1304600F031FB0021A1
:100DC000216360880028D8D100F0A1F800F0CEF8A7
:100DD000D0D100F0E2F844BF1022026221883046F0
:100DE00000F01FFBC9E700F002F8BDE8F18381695C
:100DF00041F00801816170472DE9F84300F05AF88D
:100E000047D1A08978B96088002844D0A189884258
:100E100041DA00F05CF84F48606100F06EF83AE0AB
:100E2000304600F08DFBA806EDD500F03DF80880B7
:100E3000B06D811C00F0A1F819D0E90748BF5FEA46
:100E4000C95101D500F0A2F8A80703D5F80701D5CC
:100E500000F084F8680703D5F80701D500F045F8DD
:100E6000206B20B1304600F0DBFA0021216360885E
:100E70000028D8D100F04BF800F078F8D0D100F07D
:100E80008CF844BF102202622188304600F0C9FA73
:100E9000C9E7FFF7ACFFBDE8F1830000F369FFCFBE
:100EA00000380140880000583068406AB16D08EA97
:100EB00000007047064606F15C043068B4F8048010
:100EC000C569D0F800908768E16A222970473068C8
:100ED00000F1080151E8001F00F1080221F08051E3
:100EE00042E800100028F2D17047316804200862FF
:100EF000206B40F0020020637047316851E8002FFA
:100F000042F0200241E800200028F6D17047316805
:100F100051E8002F22F4807241E800200028F6D129
:100F2000306800F1080100F1080251E8001F0A488A
:100F3000014042E800100028F2D1704700800040D4
:100F4000FFF4FF110024F40000FD0F00FEFF7FEF0F
:100F50003D0C0008850C0008FEFFFFEF3168022001
:100F60000862206B40F00400206370472020E0629C
:100F700000206061206901287047B1656088411ECA
:100F800061803068C56915F0070F70470121016263
:100F9000206B40F00100206370470021216131681F
:100FA00051E8002F22F0100241E800200028F6D17D
:100FB0003068C169CA067047674981B00A68024350
:100FC0000A60096808400090009801B0704780B539
:100FD0004FF40020FFF7F0FF002200212E2001F047
:100FE0002FF8BDE802402E2001F048B800685B49A8
:100FF000884200D0704780B54FF48010FFF7DCFFC7
:10100000002200212C2001F01BF82C2001F036F8E2
:10101000002200212D2001F013F8BDE802402D2010
:1010200001F02CB830B58DB0044601A8302101F094
:101030007BF821684A4A91422ED101F079F801F0FB
:1010400077F8484DA86B20F4407040F48070A86396
:101050004FF480714FF400600190099101A801F0F4
:1010600079F808B101F009FAA86B40F40040A863D0
:101070000022296841F4806129600021286800F479
:10108000806000900098032000F0DAFF032000F059
:10109000F5FF204601F08EFA0DB030BD38B592B0A4
:1010A000044601A8142101F03FF806A8302101F000
:1010B0003BF820682C4988424CD100200121079040
:1010C000069106A801F046F808B101F0D6F92748C4
:1010D000274D416941F4804141610222416901F497
:1010E000804100910099016841F0010101604FF4D5
:1010F000C061006800F0010000900098019101209B
:1011000003900321072004910590029201A94FF05A
:10111000904001F067FA174828600F20686010209F
:10112000A8600020E8608020286100206861A86134
:10113000E8612862284600F01FF808B101F09DF927
:10114000A567AC6200220021242000F079FF242052
:1011500000F094FF13B030BD50000058000C005850
:101160000028004058000058003801404C0000584A
:101170003C1300204400024038B5040001D1012096
:1011800032BD2168DFF880024018142204F12405E2
:10119000B0FBF2F2DFF87402E86192002A620220EA
:1011A00068700A68A0686FF30E120243E068024399
:1011B0002069024360690243A0690243E069024377
:1011C000206A02430A60204600F0F9F8A068B0F5F2
:1011D000804F04BF002161602079696A00F03F0000
:1011E00000F014F838B1052805D2204600F0FBF8CD
:1011F00000F012F803E0002028636863A863002071
:10120000A861012068700020287032BD0860A96ABA
:10121000E86A486060687047296B00200860696B65
:10122000A86B4860704781B040B100F124014A7852
:10123000022A05D00420886100200870012026E0E1
:101240000268136823F00E0313604A6A136823F4DC
:101250008073136000680268520852000260012027
:1012600091F82020CB6902F01C02904058608A6AF5
:10127000C86A5060086B30B1026822F48072026064
:101280004A6B886B5060012048700020087001B0E4
:10129000704738B500F1240200245178022903D0A8
:1012A00004209061012428E001680B6823F00E03FC
:1012B0000B6001680D686D086D000D60516A0B6868
:1012C00023F480730B60012192F82030D56903F07C
:1012D0001C0399406960936AD16A5960116B31B1FE
:1012E0000B6823F480730B60536B916B5960012181
:1012F00051701470516901B18847204632BDF8B56C
:1013000000F124010423CA6914680268156891F881
:10131000206006F01C0603FA06F73C4210D06F0767
:101320000ED51468A50603D4156825F004051560CC
:1013300000F03DF8C968002938D0BDE8F4400847FE
:10134000022303FA06F73C4213D0AF0711D5146805
:10135000A50605D4156825F00A05156001224A7016
:1013600000F025F800220A708968F9B1BDE8F44060
:101370000847082303FA06F6344217D02B0715D581
:10138000136823F00E031360012291F82030CC691A
:1013900003F01C039A40626001228A614A700022B5
:1013A0000A70096911B1BDE8F4400847F1BD91F830
:1013B0002020CC6902F01C02934063607047426CAD
:1013C0001349920801EB82018164142201780839E3
:1013D000B1FBF2F10F4AC26401F01F01012202FACF
:1013E00001F10165704701790B4A01F03F0102EB01
:1013F00081024265491E094A826501F0030101220A
:101400008A40C26570470000F8FFFDBF000002403F
:101410000008024080080240FC08024040090240E7
:101420007047704710B500F180010A78012A01D198
:10143000022010BD01230B7024224A600268136849
:1014400014686408640014600022426623F00053AC
:1014500000680360202048600020087010BD70B54F
:1014600000F01EF801D1022070BD00F01FF822F03C
:10147000604209E070B500F013F801D1022070BDA0
:1014800000F014F822F0606211438160204600F001
:101490001AF820680660202068600020287070BD5F
:1014A000044604F1800528780128704701222A703B
:1014B00024206860206806680268520852000260B2
:1014C00020688268704730B5416E11B90121012250
:1014D00014E001680FF230048A6889680FF2300363
:1014E000520E02F00702490F655CA45C595C9A5CDD
:1014F000ED00E40095FBF1F194FBF2F268304180DD
:10150000028030BD0000000001010103070100005E
:1015100008040204080101017047704730B91248FD
:1015200003601248124B0360FEF797BE704730B954
:10153000104803600D480E4B0360FEF73FBE704736
:1015400000680B49884204D107490868002818BF81
:101550000047704700680649884204D10549086879
:10156000002818BF004770475C1400209C11002021
:101570000038014060140020704770474FF0B040C1
:10158000006800F0F000B02888BFB02070472DE957
:10159000F04104004ED0207881064FF0B04535D59B
:1015A000A868E96810F00C0001F0030103D00C28D2
:1015B00008BF012940D1E06900283BD0FFF7DEFFDA
:1015C000616A884207D2084600F091FB002831D1B9
:1015D00000F034FA0FE0286820F0F00001432960A1
:1015E0006968206A21F47F4141EA00216960606AEC
:1015F00000F07DFBF0B900F053FBDFF86C170860DA
:10160000DFF86807006801F0C9F898B92078C107C9
:1016100040F11D81A868E96800F00C00082801F07D
:10162000030103D00C2808BF032928D160680028D3
:1016300040F00D810120FAE1E06980B1296841F0B4
:10164000010100F0E7FA06462868800700F1FC80F7
:1016500000F0D4FC801B0328F6D30320E7E12868C0
:101660004008400000F09FFB0646286800F0E2F9C1
:10167000CCD000F0C3FC801B0328F6D3EDE76068F4
:10168000B0F5803F04D1296841F48031296003E03E
:101690002A6822F480322A60606860B100F0AEFCF3
:1016A00006462868800300F1D28000F0A7FC801B6A
:1016B0006528F6D3D1E700F0A1FC06462868400C67
:1016C00010F0010000F0C38000F098FC801B65283A
:1016D000F4D3C2E700F092FCC01B0328C0F0E880FE
:1016E000BBE7E06878B1296841F4807100F092FAB4
:1016F00006462868400500F1EE8000F07FFC801B64
:101700000328F6D3A9E7286820F4807000F04BFB8B
:1017100006462868800A10F0010000F0B38000F04F
:101720006DFC801B0328F4D397E700F067FCC01B17
:101730000328C0F0E28090E740F0010000F08FF94C
:1017400007467068800700F1F38000F057FCC01B6B
:101750000328F6D381E7706820F0040000F07FF9D9
:1017600007467068C00810F0010000F0F08000F03B
:1017700045FCC01B0428F4D36FE70528306806D168
:1017800040F004003060316841F0010105E040089C
:1017900040003060316821F004013160A06841F2FE
:1017A000893768B100F02AFC80463068800700F174
:1017B000E38000F023FCA0EB0800B842F5D34CE72F
:1017C00000F01CFC8046306800F034F900F0D48052
:1017D00000F014FCA0EB0800B842F4D33DE700F0A1
:1017E0000DFC801B0328C0F0F68036E700F006FCF5
:1017F000001B0328C0F010812FE7286881010CD45A
:10180000296841F080712960E86840F08050E86004
:1018100000F0F4FB04462868810100F1078100F024
:10182000EDFB001B0328F6D317E70C2921D000F0AD
:10183000B7FA04462968880140F1F38000F0DEFB26
:10184000001B0328F6D308E700F0F8F8DEE620785E
:10185000810717D5A868E96800F00C00042801F09A
:10186000030104D00C2808BF02297FF43AAFE068D6
:1018700000283FF4DFAE6968206921F0FE4141EAAB
:10188000006169602168DFF8E86411F0180F38D052
:10189000606900283FF45FAFC90670687FF54CAF00
:1018A000800709D4706840F0010000F0D8F80746BE
:1018B000706880077FF50EAF706840F0040000F09C
:1018C000CEF80746706800070DD400F097FBC01BE8
:1018D0000428F7D3C1E66868216920F0FE4040EA99
:1018E00001606860CEE77068A16920F4706040EA2A
:1018F0000120706000F0B0F8074600F09AF87FF41D
:1019000014AF2078410737D5DFF868743868C1050F
:1019100029D400F00DFC00F071FB80463868C10549
:1019200021D400F06BFBA0EB08000328F6D394E66B
:10193000706820F0040070607068C00810F001004A
:10194000DFD000F05BFBC01B0428F5D385E600F078
:1019500083F8074600F06DF8D3D000F04FFBC01BB2
:101960000328F7D379E6A06801287FF406AF306832
:1019700040F00100306011E7A06A002856D0A96845
:10198000EA68022801F00C017FF44FAFE36A02F02D
:101990000300984202BF02F07000236B984214D1FA
:1019A000636BC2F30620984202BF02F47810A36B67
:1019B00098420AD1E36B02F06060984202BF02F0E5
:1019C0006042206C82423FF418AF0C293FF432AEE3
:1019D00000F0E6F90646296888013FF500AFE9689E
:1019E000DFF89403626B0140E06A0143206B01431E
:1019F000A06B41EA02210143E06B0143206C0143EB
:101A0000E960286840F080702860E96841F0805102
:101A1000E96000F0F3FA0446286881017FF5E6AE3C
:101A200004E0E968DFF854030140E9600020BDE804
:101A3000F0817068400810F0010070472968606A02
:101A400021F0F001014329606868216A20F47F4099
:101A500040EA01206860704770684008400070608C
:101A600000F0CCBA2DE9F8430400884644D0DFF8F2
:101A7000106300F0CAF847D200F0CFF8074600F034
:101A8000C4F841D000F0BAFAC01B0228F7D90320ED
:101A9000B9E000F0B3FA401B022843D9F7E700F0A1
:101AA000ADFAA0EB090002284CD9F0E700F0A6FA45
:101AB000A0EB0900022854D9E9E700F09FFA401B87
:101AC00002285DD9E3E700F099FA401B022867D9A4
:101AD000DDE700F093FA401B484577D3D7E70328AA
:101AE00002D13968890103E00028396802D18907E9
:101AF00062D401E049055FD4012084E000F07EFA61
:101B0000C01B022872D9C2E7207881074FF0B04786
:101B10000BD5B968A06821F0F0010143B96000F06D
:101B20006DFA0546B868C003B3D52078DFF83452A3
:101B300081060AD52968606921F0F001014300F0AF
:101B400069F8814628688003A9D5207841060BD51D
:101B50002968A0690909090141EA101100F05AF841
:101B600081462868C003A1D5207841070BD5B96804
:101B7000E06821F4E0610143B96000F03FFA0546F6
:101B8000B868800399D5207801070CD5B868216919
:101B900020F4605040EAC100B86000F02FFA05461A
:101BA000B86840038FD52078C10717D56068022830
:101BB00095D1396889039FD5B968890840EA8100C1
:101BC000B86041F2893900F019FA0546B8686168D1
:101BD00000F00C00B0EB810F7FF47BAF306800F0B9
:101BE0000700804505D200F018F8074600F00DF810
:101BF00084D100F055F85C49086000F005FEBDE8AE
:101C0000F24300F0CBBDBDE8F283306800F007007E
:101C100040457047296000F0F1B93168C90848EAC9
:101C2000C101316000F0EAB938B54FF0B044564D0B
:101C3000A16811F00C0106D1FFF7A0FCC0F303105E
:101C400055F8200032BD0429504A05D008295048D3
:101C500004D12168C90222D5104632BDE16801F0E5
:101C60000301022904D0032904D12168C90207D540
:101C7000104605E0FFF782FCC0F3031055F8200082
:101C8000E168E268E368C1F306214843C2F3021148
:101C9000491C5B0FB0FBF1F05B1CB0FBF3F032BDF5
:101CA00080B5FFF7C1FF3749FFE73A4A0968C1F33A
:101CB000031152F82110B0FBF1F002BD80B5FFF71F
:101CC000EFFF00F010F8C1F3022106E080B5FFF746
:101CD000E7FF00F008F8C1F3C22112F8211001F06B
:101CE0001F01C84002BD27492B4A0968704770B5DB
:101CF0002549284AB1282EBFC86AC0F3031051F8FD
:101D000020001849096801F00F0152F82110234AF8
:101D1000B0FBF1F0B0FBF2F0002400210FF28C02D6
:101D200052F8213083420AD2491C0329F8D90AE02B
:101D300000F064F9801B03280DD3032070BD0FF25F
:101D40007C0050F821400E4D2868C00844EAC000CD
:101D500000F029F80646296801F00701A142E7D101
:101D6000002070BD080100588C1000208010002059
:101D700090000058000400588C80C111FCFFFFEF58
:101D80000040005808000058884400080024F4006F
:101D90000048E80148440008B446000840420F00EB
:101DA000286820F08070286000F028B91200000038
:101DB0002400000036000000400000000000000089
:101DC000010000000200000003000000B3BBD9B115
:101DD000B2F5803F7DD2022A1ED98C46B1FBF2F1CA
:101DE00002FB11C31B0443EA1043B3FBF2FC02FBEA
:101DF0001C3380B240EA0343B3FBF2F002FB103223
:101E000040EA0C4000237047022A05D98446B0FB03
:101E1000F2F002FB10C270474AB105D100F0010296
:101E200049085FEA3000704700220023704700F045
:101E300007BD0B000200002100207047904271EBAB
:101E4000030CF6D3B3F5803F2FD2F0B5B3FA83F786
:101E5000B1FA81F4A7F10F0E3D1B5340CEF12006DD
:101E600002FA0EF2F3415340B5F10F0746D80F3C8A
:101E70002C444140C4F12006A040F1414140B1FB57
:101E8000F3F603FB1611A2FB0645001BA94102D283
:101E9000761E8018594180EA010221FA0EF362FA97
:101EA0000EF200215A403046F0BD30B4B1FBF3FCD5
:101EB00003FB1C11A2FB0C45001BA94103D2ACF192
:101EC000010C8018594130BC02460B466046002187
:101ED0007047B2F1807F65D3F0B5B2FA82F7B1FAFC
:101EE00081F4C7F10F063D1B22FA06F307F1110E2C
:101EF000F24120355A40B5F10F07B8D94140C4F13D
:101F00002006A040F1414140B1FBF3FC03FB1C1152
:101F1000A2FB0C45001BA94103D2BCF1010C8018A7
:101F200059410F2F12D30F3FC90341EA5041B1FB72
:101F3000F3F603FB1611A2FB0645D4EBC030A94112
:101F400002D2761E8018594146EACC3C07B3414084
:101F5000C7F12006B840F1414140B1FBF3F603FB65
:101F60001611A2FB0645001BA94102D2761E80185D
:101F7000594180EA010221FA0EF3C7F1200462FA06
:101F80000EF20CFA07F05A402CFA04F13043F0BD7F
:101F900080EA010221FA0EF3002162FA0EF2604695
:101FA0005A40F0BD8C46B1FBF2F102FB11C31B029B
:101FB00043EA1063B3FBF2FC02FB1C331B024CEA46
:101FC000002043EA1063B3FBF2FC02FB1C331B024C
:101FD0004CEA002043EA1063B3FBF2FC02FB1C3323
:101FE0001B024CEA002043EA1063B3FBF2FC02FB45
:101FF0001C324CEA002000237047704701484068BB
:10200000704700BF781000200901020081B002D49F
:102010003C48815405E03C4802F00F02104400F8AF
:10202000041C01B07047394A13684FF6FF010002E3
:102030000B4000F4E06018433549084310607047D6
:1020400038B5324B1C68C4F30223C3F10704052CD6
:1020500028BF04241D1D072D34BF0023DB1E0125CE
:1020600005FA04F4641E2140994005FA03F35B1E4F
:102070001A401143BDE83440C6E70000010007D410
:10208000012200F01F01234B8A40400943F8202021
:10209000704701000BD4012200F01F011E4B8A4043
:1020A000400943F82020BFF34F8FBFF36F8F704775
:1020B00010B5401EB0F1807F01D3012010BD174C38
:1020C00060600F214FF0FF30FFF79EFF0022A260FB
:1020D00007202060002010BD010007D4012200F07D
:1020E0001F010F4B8A40400943F820207047010030
:1020F00007D4012200F01F010A4B8A40400943F82F
:102100002020704700E400E018ED00E00CED00E056
:102110000000FA0500E100E080E100E010E000E0EE
:1021200000E200E080E200E0002200F08BBB000053
:102130000248016841F48071016070470004005852
:10214000DFF87C211368010C23EA014343EA0043D2
:10215000136070472DE9F041054600272868DFF835
:1021600064610105B8462FD53468286A04F44074C8
:10217000844229D0FFF7DCFF002C316805D1286AA2
:1021800021F44071014331601DE0306840F480303B
:10219000306021F44071326822F480323260286A63
:1021A000014331603068C0070DD5FFF727FF0446B3
:1021B00041F289383068800705D4FFF71FFF001B04
:1021C0004045F7D30327B8462878DFF8FC40C1071D
:1021D00005D5E16F6868890840EA8101E1672878E0
:1021E000810705D5E16FA86821F440610143E167EB
:1021F0002878C10644BF2869FFF7A2FF2878810626
:1022000044BF6869FFF79CFF287841070AD5E86852
:10221000E16F020902F47F220001914300F47F2064
:102220000843E067286881051ED5A869B0F1804F92
:1022300018BFB0F1004F00D018B9E16F21F0404154
:1022400008E0E16F21F04041E16720F08050E16F4C
:1022500021F040610843E067A869B0F1C05F03D195
:10226000216841F080712160286841050DD5E16F3A
:10227000E86921F040510143E167E869B0F1005F8E
:1022800003D1216841F4803121602868C10405D55B
:102290007168686A21F440410143716028688104D3
:1022A0000BD5A169E86A21F030010143A161A16960
:1022B000A86A890840EA8101A1614046BDE8F08131
:1022C00088000058900000580C000058594900E060
:1022D000594981B00A6802430A60096808400090C1
:1022E000009801B0704780B500F07AFA00F0C4FAA7
:1022F00000F018F800F048F850485149016000F02B
:1023000087FB0420FFF7E4FF0120FFF7E1FF00F067
:10231000A3F800F04EF800F065F800F0C1FA00F004
:1023200069FBFCE780B598B007A84421FFF7FCFEE5
:1023300068461C21FFF7F8FEFFF7FAFE41480168E6
:1023400021F018010160072007904FF480310891B7
:10235000012009904FF480710A9140200B900021D8
:10236000119107A8FFF713F96F20009002210020B8
:102370000191029003900490059006900121684617
:10238000FFF770FB19B000BD10B58CB06846302166
:10239000FFF7CAFE4FF480400990022110200B90F5
:1023A0004FF440540A9100946846FFF7D3FE0CB0F6
:1023B00010BD10B5244C25482060002060600F201F
:1023C000A06047F6FF70E06000202061A0616061BE
:1023D000204600F055FB2046BDE8104000220021B9
:1023E00000F058B810B51A4C1A4820604FF4E1308C
:1023F00060600020A060E06020610C20606100202F
:10240000A0614FF40040E061002020626062A062A1
:102410002046FDF793FE00212046FFF720F800211B
:102420002046FFF727F82046BDE81040FEF7FABF28
:1024300000000000480000584C0000589C13002089
:10244000000C005890000058D813002000280040CD
:102450009C1100200038014080B50420FFF736FFB2
:102460000120FFF733FF00220F210E20FFF7E8FDC8
:10247000BDE802400E20FFF701BE70478A60FF21D1
:1024800002685162012180F82110002180F820109B
:10249000002070472DE9F84300F065F808BF0220DE
:1024A00038D000F067F814D5FFF7A8FD074620687C
:1024B000C16848070DD5FFF7A1FDC01B4845F6D3FD
:1024C00000F039F826E0FFF799FDC01B484507D317
:1024D000F6E700F02AF800F065F8FFF78FFD0746F1
:1024E0002068C1684A07EED5C0F81480206800F063
:1024F00013F82A48016841F4002101602848026865
:1025000042F4002202602068816841F480418160C9
:1025100000F01BF8BDE8F2838168C908C90081603A
:10252000206881680D43856070472068816821F4C8
:1025300080618160704720684662032184F8211021
:10254000002084F82000032070472068816841F44F
:102550008061816001212068466284F8211000209A
:1025600084F8200070470446884694F8200001282B
:1025700015467047012184F82010022084F82100BC
:10258000CA2021684862532022685062FF262068D2
:102590008168480540F2E93970470000800800581A
:1025A000000800582068C16801F0800161F4906162
:1025B000C160704790F82010012901D102207047B6
:1025C000012280F82020022180F82110CA2102680F
:1025D000516253210368596201688A6842F02002FF
:1025E0004CE700002DE9F84F4FF00009644A654BB5
:1025F0004FF00F0805460E4633E0634FBD4214BF4F
:10260000072704278F4027434CF82E70C1431C68CE
:1026100001EA040C7468E40248BF40EA0C0CC3F8F9
:1026200000C05C6801EA040C7468A40248BF40EA78
:102630000C0CC3F804C0146801EA040C7468E403C9
:1026400048BF40EA0C0CC2F800C0546801EA040C10
:102650007168890348BF40EA0C0CC2F804C009F154
:102660000109316831FA09F078D0012404FA09F43B
:1026700014EA0100F3D04FEA490C032101FA0CF1EE
:102680006FEA010E716801F00307012F1CBF01F012
:102690000301022911D1A968F7680EEA010107FABE
:1026A0000CF73943A960696821EA04047168C1F331
:1026B000001101FA09F10C436C604FEA8901347989
:1026C00004F00304032C1FD0EC68B7680EEA04047E
:1026D00007FA0CF73C43EC60347904F00304022C55
:1026E00012D14FEAD90705EB870401F01C07D4F893
:1026F00020A008FA07FB2AEA0B0AD6F810B00BFA5A
:1027000007F747EA0A0727622C680EEA04073479BC
:1027100004F0030404FA0CF43C432C60746814F4D1
:10272000403F9CD0DFF864C04FEA990E5CF82E70F1
:1027300001F00C0108FA01F427EA0404B5F1904F06
:1027400008BF002709D0124FBD4208BF012704D09F
:10275000104FBD427FF451AF022753E7BDE8F18F20
:1027600081B0002A14BF8161816201B070470A4ABA
:10277000136803421CBF106000F044B970470000AA
:102780008008005800080058001000480800014068
:1027900000040048000800480C08005870B50F4EAF
:1027A000044630780025A8B1FFF77AFA32784FF462
:1027B0007A71B1FBF2F1B0FBF1F0FFF779FC48B9A7
:1027C000102C07D2002221464FF0FF30FFF738FCD3
:1027D000B46000E00125284670BD00BF78100020DD
:1027E000144810B5016841F4807101600320FFF7BF
:1027F0001AFC0020FFF7D2FF0024002814BF012498
:10280000FEF7E5FB204610BD0B48806870470B487B
:10281000016849084900016070470848016821F0D3
:102820000201016070470548016821F00401016060
:10283000704700000040005878100020042004E099
:102840007047000000B500BF13009646944610394B
:1028500028BFA0E80C50FAD85FEA417C28BF0CC022
:1028600048BF40F8042BC90728BF20F8022B48BFF7
:1028700000F8012B00BD000080B553484FF4004123
:102880000160002000F0A0F948B180794F49504A1A
:102890000A600A6822F47C5242EA00220A6001BD02
:1028A00018B54C484C4C89B0016841F050010160AA
:1028B000CA224A48C2615321C161FF220168C90886
:1028C000C9000160C2614648016841F400410160ED
:1028D00000F08CF943480168C908C90041F00401BF
:1028E000016000F0C9F94049002000F042FB00F00F
:1028F00066FC0121012000F08BF900F046F800F0A1
:1029000053F800F0B3FD394800F0A9FE0FF2590268
:102910000021202000F041FF04F23C500290344995
:102920000FF22D0001900091684600F0F8FD04F2CE
:102930005470039004F5C96140F23C500690049134
:10294000059403A800F024FE00F08EFD0AB010BD2F
:1029500080B50146254800F08EFEBDE80440002108
:10296000202000F027BF000080B500F056FC0021B9
:10297000012000F04DF969461C4800F092FE0098D5
:1029800000F01FFE00F082FF01BD80B5002001F0C5
:102990006AF9012001F067F9022001F064F9BDE84D
:1029A0000240012001F088B980B50121002001F02A
:1029B00098F90121012001F094F9BDE804400121BA
:1029C000022001F08EB90000104000589C00005811
:1029D000FECAFECA900800583C00032008280040A8
:1029E0000800005880040058D81300202814002044
:1029F0005D39000802E000F01FB900BF4FF0FF3062
:102A000000F060BE012808BF00F0B7BF70470000AB
:102A1000F8B504460025ACB104F13406307910B99C
:102A20002046FEF7E3FA0F4F384600F021F83868E9
:102A300040F001103860204600F007F835600120B2
:102A4000307100E001252846F2BD10B50021064A8C
:102A5000064B00EB8104491C06296360E261F8D350
:102A600010BD0000000C0058FB1F00081B150008DB
:102A7000002101604FF03F1141603F2181607047AC
:102A800038B5040044D094F8210028B9002184F816
:102A900020102046FEF7C6FA00F049F8FF2510B1D5
:102AA00000F03FF834E02168DFF8B0008A680240A7
:102AB0008A6021688A68636820690343A0690343C8
:102AC0001A438A602168E068086120680169A26889
:102AD00041EA024101612068C16821F08001C160C2
:102AE0002068C16C21F00201C1642168CA6CE369ED
:102AF000606903431A43CA6420688168880609D460
:102B000000F020F830B120684562042100F01FF881
:102B1000012032BD20684562012184F82110002087
:102B200032BD20684562042184F8211070470220DC
:102B300084F82100CA20216848625320226850622C
:102B4000204626E020460BE02068C0F8248084F868
:102B50002110002084F8200070470000BFFF8FFF85
:102B600070B5044640F2E9362068C16821F0A00142
:102B7000C160FFF743FA05462068C168880606D49D
:102B8000FFF73CFA401BB042F6D3032070BD002093
:102B900070BD70B504462068C1684A0612D44FF073
:102BA000FF32C26040F2E936FFF728FA0546206896
:102BB000C168480606D4FFF721FA401BB042F6D39D
:102BC000032070BD002070BD01460648064AC37947
:102BD0008B4218BF904218BF0838F8D18B4218BFFB
:102BE00000207047F873FF1F0070FF1F204800216E
:102BF00001604160704710B500F019F81C6819B108
:102C0000012904D1204301E024EA000018600BE010
:102C100010B500F00CF85C6819B1012904D120430B
:102C200001E024EA0000586082F3108810BDEFF341
:102C3000108272B60E4B704738B5EFF3108472B63F
:102C40000B490C4D086820B129688847686880479F
:102C50000AE0486820B1A9688847E868804703E02F
:102C6000286980476869804784F3108831BD000077
:102C7000301400201C4700080248016841F400712C
:102C80000160704708040058DFF8F0140A6892B237
:102C900000E00246086880B28242FAD170472DE90E
:102CA000FC4104461825DFF8D884DFF8D86468436F
:102CB00008EB00073078062808D13178717034703D
:102CC00078754FF0FF307060002039E000F077F841
:102CD000B9680918B96008F10803B96832786A431D
:102CE0009A589142327813D308F1150315FB02FC70
:102CF00013F80C30062B25D008F108066B43F35867
:102D0000994222BF08F115036A439A5CEED219E09A
:102D10001146337869439A420BD008F1140308F145
:102D2000150C5B5C15FB03F50CF805407A753B75DB
:102D300000E07A7508F114025454317871703470DF
:102D4000BDE8F6811146694308F115035B5C062B6B
:102D500004D008F1140615FB03F574557B753A751C
:102D600008F115025454EBE7F8B5DFF81834DFF832
:102D700010541E78182402466243B0422A4404D1FB
:102D800018785870507D18700FE0167D507D92F8BD
:102D900015C005F115076643062807F806C004D0DC
:102DA000167D143514FB00F42E550120107318788D
:102DB000062802BF00294FF0FF315960F1BD10B560
:102DC000DFF8C043606810F1010F0FD0FFF75CFF20
:102DD0006168DFF8B423814261683CBF5388C91839
:102DE000081A517848431178C84000E0002080B2AA
:102DF00010BD2DE9F84FDFF89053DFF890B3D5F808
:102E00000880D8F80000DBF800104A0500F06AF9E5
:102E1000DFF87063DFF868A321F4806181604FF010
:102E2000180934780AF1080019FB04F14758FFF734
:102E3000C6FF874217D200270121B170062C3DD072
:102E400019FB04F40AF108010AF108020959814248
:102E500023BF0AF108010959091A002111510AEB8F
:102E600004014C7DEAE7A9884118B94202D2AF8833
:102E70000021E2E73F1ADFE7022802DA287801287A
:102E800000D07F1ED8F80000C1684A07FAD500F0CC
:102E90002FF9DBF80C00000CBFB247EA0047CBF873
:102EA0000C70FFF7F1FE7060A8680068816841F45B
:102EB00080618160AFF30080BDE8F18FB8B2002877
:102EC000DAD1FFF7E1FE70600320BDE8F24FFFF7B3
:102ED00003B92DE9F843EFF3108872B6AA4DA84B59
:102EE000A8680168CA224A6253204862A54A8868D5
:102EF00020F48060886018201678374647431F44C6
:102F0000387B022826D13C68D7F810909078F0B131
:102F10007A7B012A0AD101213046FFF725FF88F389
:102F200010887968304600F0F0F804E088F31088E3
:102F3000304600F09BF8A8680068CA21416222462A
:102F4000532141624846314600F02AF90BE0FFF771
:102F500050FF06E0C8684207FCD500F07EF88C49B7
:102F6000086088F31088FF21A86802685162BDE8F4
:102F7000F183F8B5844CA160CA2209684A625322E1
:102F80004A62824A136843F020031360136803F017
:102F90000703C3F10403237095682D0C05F07F052A
:102FA0006D1C6570EDB29268C2F30E02521C628015
:102FB00092B2521E6A43A2F5A072DA404FF6FF7336
:102FC0009A422CBFA380A280724A136843F4002364
:102FD0001360714B1D6845F400251D6048BB6948AE
:102FE000674E0123837018254FF0FF3343600023A1
:102FF0005FFA83FC06F10C0715FB0CFC4FF0000E8A
:1030000007F80CE05B1CDFB2062FF1DB0623037030
:10301000886820F48060886000F01FF8D06003208A
:10302000FFF765F8A1680868826842F48042826010
:1030300005E0C868410544BF0320FFF74DF8A168CB
:103040000A68FF205062002203210320FEF7F8FFE8
:10305000BDE8F2400320FFF711B8C86800F0800017
:1030600060F49060C8604FF400207047F8B50746E0
:10307000EFF3108472B60320FFF70BF8424DAE68F1
:103080003068CA2141623A465321416218204349BF
:103090004243895C02291BD100213846FFF764FEB8
:1030A0003848017806290ED1306838490A68530536
:1030B00000F018F821F480618160C1684A07FCD5EE
:1030C00000F016F804E04078884218BFFFF791FE40
:1030D000A9680A68FF2050620320FEF7CFFF84F33F
:1030E0001088F1BD02D5C1684A07FCD481687047D9
:1030F000C16801F0800161F49061C1604FF400206B
:10310000234908600320FEF7F2BF2DE9F041804615
:103110000F46424618201A4942438C18207B022849
:1031200004BF4046FFF7A2FFEFF3108572B60320FD
:10313000FEF7AFFF144EB0680068CA214162532108
:10314000416202202073A76067604046FFF7A7FD39
:103150000C490A784978914202D0FFF74AFE02E012
:10316000A168081AA060FF20B1680A6850620320B5
:10317000FEF784FF85F31088BDE8F0812828004021
:103180002C120020501400201C140020082800409D
:103190000C08005800080058800800583812002019
:1031A00010470000564900E0564981B00A680243C2
:1031B0000A60096808400090009801B0704718B58F
:1031C00085B068461421FEF7AFFF032001904FF44D
:1031D00060410024009102940120FFF7E3FF00F01A
:1031E00097F8474C20684008400020601821009163
:1031F0000220FFF7D7FF69464348FFF7F3F920683D
:1032000020F002002060FFF702FBFFF706FBFFF74C
:103210000AFB00F011F806B010BD00B587B0684693
:103220000FF228211C2200F0D9FD00F0E6F96846D3
:1032300000F026FE07B000BDF0B585B06846142149
:10324000FEF772FF00260025002400210FF2CC00BB
:1032500000EBC102907988B11368B3F1904F08D0A8
:10326000294FBB4208D0294FBB4204BF908804437A
:1032700004E09088064301E090880543491C262914
:10328000E4DB002002900121032003900191B0B201
:1032900070B100900120FFF785FF0120FFF784FF48
:1032A00000F036F80022B1B24FF09040FFF758FA24
:1032B000A8B280B100900220FFF774FF0220FFF750
:1032C00073FF114E69463046FFF78CF90022A9B210
:1032D0003046FFF745FAA0B280B100900420FFF716
:1032E00061FF0420FFF760FF084D69462846FFF79D
:1032F00079F90022A1B22846FFF732FA05B0F0BDF5
:103300004C0000584C0100580004004800080048D8
:1033100069464FF09040FFF765B900000000004893
:10332000010000000000004801000000000000480B
:1033300001000000000000480100000000000048FB
:1033400001000000000000480100000000000048EB
:1033500001000000000000480100000000000048DB
:1033600001000000000000480100000000000048CB
:1033700001000000000000480100000000000048BB
:1033800001000000000000480100000000000048AB
:10339000010000000000004801000000000000489B
:1033A000010000000000004801000000000000488B
:1033B000010000000000004801000000000000487B
:1033C000010000000000004801000000000000486B
:1033D000010000000000004801000000000000485B
:1033E000010000000000004801000000000000484B
:1033F000010000000000004801000000000000483B
:10340000010000000000004801000000000000482A
:10341000010000000000004801000000000000481A
:10342000010000000000004801000000000000480A
:1034300001000000000000480100000000000048FA
:103440000100000000000048010000000000000032
:1034500000000000000000001C33000828000320CA
:103460002C0003202604040000F085BD7148724939
:10347000016001F12002426001F13002826001F13D
:103480004002026201F14802426201F15002C26050
:1034900001F15802026101F17402426101F1780206
:1034A00082618431C16100F084BD38B50446634D4A
:1034B000284600F0D4F85F484068A1680160E168E0
:1034C000C16085605E49416000F08FFD5D4834E079
:1034D00080B558484268136801211972406800F0AD
:1034E0008AFD002002BD38B5564C544D04E000F072
:1034F0004BF8009821688847284600F0B3F8002868
:10350000F5D031BD80B54B494A68D16802200872B8
:1035100000F076FD002002BD4A484168084738B5F2
:103520000446494D284600F09AF84248C068A16810
:103530000160456000F06DFD4448216801606168EC
:103540004160002032BD80B53A48C268136810213E
:103550001972C06800F063FD002002BD35483B4A87
:10356000C168C16813680868184738B5374C364DCC
:1035700004E000F009F8009861688847284600F0E8
:1035800071F80028F5D031BD6946284600F089B8A9
:1035900038B504462E4D284600F061F82D4800F05D
:1035A0005EF824480069A1688160E168C160056136
:1035B00021680160616841602169416161698161DF
:1035C00031BD80B50146234800F055F8BDE8024002
:1035D0000FF2050000F02CBD38B5164C1D4D06E06D
:1035E000FFF7D2FF00992069006900F044F82846EF
:1035F00000F038F80028F3D031BD10B5164C204645
:1036000000F02DF80B4841690C60BDE8104000F057
:1036100023BD1CB5104C06E06946204600F041F879
:10362000009800F01BF8204600F01CF80028F3D0AA
:1036300013BD000000000320C00A0320600B03201C
:10364000B00A032040140020680B03204814002017
:10365000500B032038140020580B032070470060E3
:1036600040607047EFF3108172B6026882420CBF6F
:103670000120002012E0EFF3108272B60860436868
:103680004B6041604868016019E0EFF3108172B649
:1036900042680368136002684368536081F31088CE
:1036A000704710B5EFF3108472B602680A600068C4
:1036B000FFE7FFF7EAFF84F3108810BD0B6082F389
:1036C000108870472DE9F8435D4CDFF87891A569C3
:1036D0002840A0614FF0FF372169E2696069236AE1
:1036E0004FF0010837E0491C54F831301A42FAD043
:1036F00054F831201040304004EBC106716801429B
:1037000008BF77607168084000F09EF860627068DA
:10371000616A08FA01F188437060EFF3108172B6B4
:10372000626A206908FA02F2D24310402061022046
:1037300004EBC00353F8086C1640401E43F8086CB5
:10374000F6D181F31088606A59F820108847216902
:10375000E2696069236AA6690140314205D01A42D4
:1037600003D1002100EA0602BEE7676200F08CFC8C
:10377000EFF3108972B62269E16960690240A069BD
:10378000024202BF226A1142FFF735F989F310881D
:1037900000F07BFCA561BDE8F18338B51446EFF37A
:1037A000108572B600F050F8264941F8204085F3A4
:1037B000108831BD10B500F00BF804431C6153F8BC
:1037C0003140204343F83100FFE782F3108810BDF9
:1037D000EFF3108272B61A4B1C697047506181F387
:1037E00010887047EFF3108172B6154AD3691843F9
:1037F000D061F4E72DE9F041114C666A276A05466D
:10380000B04616F1010F0EBF0026012000FA06F6A1
:10381000256203E029463046FFF7EFF8E0692842C9
:10382000F8D0C4F82480EFF3108072B6E16921EA81
:103830000505E56180F310882762BDE8F08100008E
:1038400044100020BC12002002460020110C090484
:1038500004BF1020120412F07F4F04BF0830120280
:103860000FF2180112F0704F04BF001D1201120F69
:10387000C0F11F00895C401AC0B270470403020205
:1038800001010101000000000000000010B592B02D
:1038900004A80FF28431DFF85843382200F09EFA72
:1038A0002068DFF850434FF6FC7101EA8001DFF831
:1038B00048034118DFF844030290E16000F5867088
:1038C00003900FF2C1210FF2D520019000916846BC
:1038D000FFF7EBFD01210220FFF79AF901210220F9
:1038E000FFF789F90020E070A07004A800F0C0FA8A
:1038F00008B1FEF7C2FD0FF2051200210820FFF704
:103900004CFFBF4A00210120FFF747FF0FF2990249
:1039100000211020FFF741FFBA4A00210220FFF7E3
:103920003CFFB94A00210420FFF737FF01206070F7
:103930000020A06004F11800FFF791FEFEF752FD91
:1039400004F1100060600020207001220FF20113CA
:1039500004F11001FDF7E2FD12B010BD80B5A54ADB
:10396000917831B1002090700120BDE80240FFF74E
:1039700039BF014602F1180008E110B59D4CE0780E
:1039800030B9012000F09DF90121E170002105E02E
:10399000012000F091F90020E0700121BDE8104005
:1039A0000220FFF728B9000038B5EFF31084914DDD
:1039B0006878012821D10021697005F1180005F10E
:1039C0000801FFF76EFEE878A0B9A8680FF281132E
:1039D000017A022972B607BFB0F80B20521D827A15
:1039E000D21C00F1080192B20020FDF7A0FD84F383
:1039F000108831BDBDE83140AAE031BD10B5834C1F
:103A0000B4F809004FF66052811A04D0491E06D05E
:103A1000491E08D00BE0204600F038FB11E020469C
:103A200000F06FFB0DE0204600F091FB09E0A08163
:103A30000120A073E072212020720E206072042009
:103A4000A07221467248FFF716FEBDE81040A1E0C3
:103A5000F8B5684D69682A78002400201AB1022A56
:103A600064D013D358E00978012905D0022907D082
:103A7000102918BF202907D10120287003244BE00A
:103A800001202870042447E0012445E00E78E8680E
:103A9000022E11D0102E02D0202E03D01CE0CC78A4
:103AA000C0681BE0CC78594805F1100100F1080707
:103AB0000A6840F8082F18E04068CA780979C36896
:103AC00002EB012403F10807052205F11001384635
:103AD00000F074F9052009E0CC784068016805F130
:103AE000100001F108070168396004206F60A1B27D
:103AF00011B1022129700FE0022E25D0102E1DD009
:103B0000202E1ED000210120FFF754FE002005F1D9
:103B10001001287001246960A2B201B069683D4BB0
:103B2000BDE8F04001440020FDF7F8BC0878022809
:103B30000AD0102802D0202803D0E3E70021022079
:103B4000E2E700210820DFE700210420DCE7000095
:103B50001CB5284C01206070E0680169A0688A6883
:103B6000904205D3C9681144884238BFFFF729FD48
:103B700004F11800FFF776FD10B9BDE81C4009E01C
:103B800013BD000080B50146DFF88400FFF773FD28
:103B9000BDE8044000211020FFF70CBE704770B54F
:103BA0001446134A134E12681D460123B3704FF694
:103BB000FC7303EA8203104AD3180A46DE683668AB
:103BC000A6F80900F17206F10C00214600F0F6F8A3
:103BD00000210020FFF7B7FC0120FFF70BFE314664
:103BE00005F10800B278BDE87040D21C00F0E6B8DC
:103BF0003C400058FC130020000003209C080320D8
:103C0000D134000847350008053500089010002021
:103C100014140020513A00080000000000000000C9
:103C20000000000000000000000000001E00040072
:103C30000A050301122E9C00F4010000FFFFFFFFA4
:103C4000480101180020D80600039E010000000072
:103C5000494981B00A6802430A6009680840009037
:103C6000009801B0704778B585B0044668461421C5
:103C7000FEF75AFA0220FFF7EBFF00F011F800956B
:103C8000012001900021022003900291694656F81C
:103C90002400FEF7A7FC00F009F8002006B070BD74
:103CA0000FF2F400354E30F81450704756F82400E7
:103CB00000222946FEF754BD80B500F00AF8012223
:103CC00003E080B500F005F80022FEF749FD002072
:103CD00002BD0FF2C401294B31F8101053F8200037
:103CE0007047F0B585B005460C4668461421FEF7CE
:103CF0001BFA2DB1012D08BF102002D0022D02D1D8
:103D00000120FFF7A5FF0FF298001D4F30F81500B6
:103D1000009001210220039007EB85060291306894
:103D20002CB9002101916946FEF75CFC20E04FF4BC
:103D30000411019107EBC5046946FEF753FC0FF22D
:103D40006C0050F8251004F1240000F066FAF268C7
:103D5000002104F1240000F059FA0FF24C004457FE
:103D6000B16900222046FEF76BF92046FEF786F97E
:103D7000002005B0F0BD00004C0000586C10002081
:103D800008100020002000F017B8012000F014B83F
:103D9000022000F011B80000200001000200000025
:103DA0000100100040000000060A17000000001685
:103DB00004000016060000167047000062B38B076F
:103DC00008D0521E11F8013B00F8013B00F024809E
:103DD0008B07F6D1830740F0208000BF103A07D34D
:103DE00030B4B1E83810103AA0E83810F9D230BC3D
:103DF000530724BFB1E80810A0E8081044BF51F8E9
:103E0000043B40F8043BD20724BF31F8022B20F8D2
:103E1000022B44BF0B7803707047121F17D35B004F
:103E200009D151F8043B20F8023B1B0C121F20F86B
:103E3000023BF6D20BE051F8043B00F8013B1B0AB1
:103E400020F8023B1B0C121F00F8013BF3D238BFD5
:103E5000121D521E24BF11F8013B00F8013BF8D897
:103E600070470000FFF79BFE9DF80E0005B000BDF7
:103E7000F8B500F10C026B462C214FF66640F1E7D5
:103E8000F8B500F10C026B460F214FF66840E9E7E8
:103E9000C0680840884201D1012070470020704767
:103EA000C0690840884201D1012070470020704756
:103EB00010B56C4C02212046FFF7F2FF38B1606864
:103EC000C043810703D5FFF750FB022018E0012112
:103ED0002046FFF7E5FF38B16068C043C10703D54E
:103EE000FFF701FB01200BE008212046FFF7D8FF78
:103EF00038B16068C043010703D5FFF78AFB08208B
:103F0000A06010BD10B5574C02212046FFF7C0FF3E
:103F100058B96068C043810307D5606840F4003039
:103F20006060BDE81040FFF719BB08212046FFF78D
:103F3000AFFF70B96068C04301030AD560684A49A1
:103F400040F400206060086880474FF40020A060C3
:103F500010BD20212046FFF79BFF58B96068C04381
:103F6000810207D5606840F400106060BDE8104031
:103F7000FFF7D2BA10BD3D4881B0016841F480110D
:103F80000160006800F480100090009838480168D3
:103F900041F4007101603748026842F40072026027
:103FA00040BF20BF3448016841F40041016001B0C6
:103FB000704780B53148016841F4801101600068A4
:103FC00000F48010009000982648016841F001013B
:103FD0000160026842F4803202602C20FEF74EF845
:103FE000BDE802402D20FEF749B825480168490880
:103FF00049000160704723494FF4803008607047E2
:104000001F484FF400114160016821F40011016064
:1040100070471B48016821F0020101607047184891
:104020004FF400314160016821F4003101607047B4
:1040300038B504460B4D08212846FFF729FF30B15B
:1040400009480460686820F40020686031BDA0471A
:104050004FF40021A96031BD0948016821F0080131
:1040600001607047000C005858140020500100589F
:1040700020080058D40800580C040058500000587C
:10408000040C0058080C00587047704770B5EFF3E7
:104090001081027B012A02D0022A07D00DE000F035
:1040A00028F8137800F01FF814700CE000F021F8E5
:1040B000138800F018F8148005E000F01AF813686F
:1040C00000F011F8146081F31088212101720E2193
:1040D0004172042181724FF6605181810021817308
:1040E0000121C17270BD264623EA040435402C43E9
:1040F000704772B6D0F81120D0F80D40D0F81550A6
:10410000704781B0017B012902D0022904D008E068
:10411000D0F80D10097807E0D0F80D100A88009249
:1041200003E0D0F80D10096800910E2141722122A0
:104130000821817202724FF6615181810121C172A1
:1041400000218173009A40F80F2F01B0704738B5F5
:104150000446284800684FF6FC7505EA80052648A5
:104160004519212020720E2060724220A0724FF665
:104170006250A0810120E0720020A0731F480168F6
:10418000090CA4F80F100068C0F30B00A4F811008C
:104190001B4801781B4801F01F01E174416821753B
:1041A0004168090AC4F815100268C4F819200169A9
:1041B000C4F81D104169C4F8211004F12901806977
:1041C000C4F82500286802680A600C222B68191DB3
:1041D00004F12D00FFF7F2FD286800F11001102214
:1041E00004F13900FFF7EAFD07480168C4F84910F7
:1041F00031BD00003C40005800000320002004E0D6
:104200000075FF1F8075FF1FE84700080346002068
:1042100009B95A6070470120704708B901207047FA
:10422000016000207047000000EB81004F4AD0F889
:104230008010914201D0012070470020704742F465
:10424000806240F82120704780B500F0BBF84848F4
:10425000016841F40001016000F061F8454809215E
:1042600081610168C908C90041F0030100F011F83B
:10427000016001BD704780B500F0A4F800F04FF870
:104280003C480168C908C90041F0010100F001F88B
:1042900040E001603848016841F00401704710B502
:1042A000364C00F071F800F02BF80028FBD14FF0ED
:1042B000B040816801F00C01042918D1016841F473
:1042C000803101602E490A68D208D20042F0010212
:1042D0000A6001688903FCD581688908890041F07A
:1042E00002018160816801F00C010829FAD10022E5
:1042F00003212046FFF7A3FFBDE8104000F06AB895
:104300000321204690E780B500F05CF81A48016868
:1043100021F00401016030BF01BD00F05BB838B589
:10432000164CFFF7EDFF0028FBD10421FFF7E9FF52
:10433000134D78B913480168090402D40068400598
:104340000ED500F021F800F023F82868C008C0005E
:10435000286005E000F01CF82968C908C900296038
:104360002046BDE838400022032168E700040080B1
:10437000940000580004005810ED00E000140058AC
:10438000004000588804005800220421204656E7C7
:104390004FF0B040016841F4807101600168490547
:1043A000FCD581688908890041F001018160416A7A
:1043B000890889004162816801F00C010429FAD161
:1043C000704700000248016821F002010160704757
:1043D00010E000E00248016841F00201016070470E
:1043E00010E000E01349002008604FF4E02212487A
:1043F000016841F4700101604FF0B041086840F07D
:10440000010008608A600D480A6802400C480A6092
:10441000036823F0050303604268520852004260BB
:1044200000220848C860086820F4802008608A617B
:104430007047000008ED00E088ED00E0FBFEF6FAB2
:104440009400005800100422010000000300000046
:10445000050000000100000001000000060000004F
:104460000A0000002000000002000000040000001C
:104470000800000010000000400000008000000064
:104480000001000000020000A0860100400D0300B2
:10449000801A060000350C0040420F0080841E0088
:1044A00000093D0000127A000024F40000366E017D
:1044B0000048E801006CDC02000000000000000081
:1044C0000000000000000000FEE7FEE7FEE7FEE758
:1044D000FEE770477047704700F01CB8FEF7F9BC64
:1044E0000248FCF70CBF0248FBF7F9BE3C13002062
:1044F0009C110020FFF7DCBCFFF704BD00F012B8F0
:104500000120FEF734B91020FEF731B94020FEF744
:104510002EB900000248416802788918416070474E
:10452000781000200449C8680A6882430A6048601D
:1045300000F004B80000000000150058704719E0B2
:1045400050F8042BD30744BFA9F101039A18091F9F
:104550000023042942F8043BF9D25FEA817C134628
:1045600004D54FF0000CA2F800C09B1CC90744BF43
:104570000021197050F8041B0029E1D17047000098
:1045800000F01AF801280CD08AB008488047084883
:1045900000472DE9F05F074C6B462360BFF34F8F58
:1045A00030BF044C2468A546BDE8F09FE5430008F1
:1045B0004947000864140020014900200860704742
:1045C0006814002010B500F013F802000023DB434C
:1045D00000241068984203D011000220ABBE146082
:1045E0005068984203D0111D0220ABBE546010BD2C
:1045F00001487047000000008410002010B450F8FB
:10460000041B79B10268436802440830DC0744BFE8
:10461000A9F10104E31852F8044B43F8044B091FB5
:10462000F9D1ECE710BC704710B50749794418314F
:10463000064C7C44163404E00A68081D114488477F
:104640000146A142F8D110BD2C0000006800000016
:104650004EF68851CEF20001086840F47000086000
:10466000BFF34F8FBFF36F8F4FF00070E1EE100A72
:1046700070470000CBFEFFFFDC030000901000201D
:10468000840A00003C0003200000000071FFFFFFCF
:1046900014000000A000000028000320000000001B
:1046A0005DFFFFFF880000004401000008100020AB
:1046B00000000000000000000000000000000000FA
:1046C00000000000010000000200000003000000E4
:1046D0000400000000F00DF8002801D0FFF7A4FF4F
:1046E000AFF300800020AFF30080FDF7FCFD00F089
:1046F00002F80120704700F001B800000746384674
:1047000000F002F8FBE7000080B5FFF75BFF024A0C
:1047100011001820ABBEFBE726000200074300088B
:104720001B430008774200089F42000849420008E6
:1047300075420008000000000000000000000000BA
:104740000000000000000000AFF30080FFF780FFD2
:10475000FFF7C0FFFFF7FEBFFFF7FEBFFFF7FEBF8B
:10476000FFF7FEBFFFF7FEBFFFF7FEBFFFF7FEBF7D
:10477000FFF7FEBFFFF7FEBFFFF7FEBFFFF7FEBF6D
:10478000FFF7FEBFFFF7FEBFFFF7FEBFFFF7FEBF5D
:10479000FFF7FEBFFFF7FEBFFFF7FEBFFFF7FEBF4D
:1047A000FFF7FEBFFFF7FEBFFFF7FEBFFFF7FEBF3D
:1047B000FFF7FEBFFFF7FEBFFFF7FEBFFFF7FEBF2D
:1047C000FFF7FEBFFFF7FEBFFFF7FEBFFFF7FEBF1D
:1047D000FFF7FEBFFFF7FEBFFFF7FEBFFFF7FEBF0D
:1047E000FFF7FEBFFFF7FEBF00010000000000481A
:1047F0000010004800000048853D00088B3D00087F
:10480000913D00080F0000000F0000000F000000A5
:104810000000000000000000000000000000000098
:104820000000000000000000000000000000000088
:10483000000000000000000000000000FFFFFFFF7C
:10484000FFFFFFFF0000000000000000000000006C
:104850000004004800040048000400480100000073
:104860000000000010000000FFFFFFFFFFFFFFFF40
:0448700000093D00FE
:04000005080047495F
:00000001FF
